{"abi":[{"type":"constructor","inputs":[{"name":"provider","type":"address","internalType":"contract IPoolAddressesProvider"}],"stateMutability":"nonpayable"},{"type":"function","name":"ADDRESSES_PROVIDER","inputs":[],"outputs":[{"name":"","type":"address","internalType":"contract IPoolAddressesProvider"}],"stateMutability":"view"},{"type":"function","name":"POOL","inputs":[],"outputs":[{"name":"","type":"address","internalType":"contract IPool"}],"stateMutability":"view"},{"type":"function","name":"executeOperation","inputs":[{"name":"asset","type":"address","internalType":"address"},{"name":"amount","type":"uint256","internalType":"uint256"},{"name":"premium","type":"uint256","internalType":"uint256"},{"name":"","type":"address","internalType":"address"},{"name":"","type":"bytes","internalType":"bytes"}],"outputs":[{"name":"","type":"bool","internalType":"bool"}],"stateMutability":"nonpayable"},{"type":"function","name":"supplyAsset","inputs":[{"name":"asset","type":"address","internalType":"address"},{"name":"amount","type":"uint256","internalType":"uint256"}],"outputs":[],"stateMutability":"nonpayable"}],"bytecode":{"object":"0x60c060405234801561000f575f5ffd5b506040516107f23803806107f283398101604081905261002e91610160565b80806001600160a01b03166080816001600160a01b031681525050806001600160a01b031663026b1d5f6040518163ffffffff1660e01b8152600401602060405180830381865afa158015610085573d5f5f3e3d5ffd5b505050506040513d601f19601f820116820180604052508101906100a99190610160565b6001600160a01b031660a0816001600160a01b03168152505050806001600160a01b031663026b1d5f6040518163ffffffff1660e01b8152600401602060405180830381865afa1580156100ff573d5f5f3e3d5ffd5b505050506040513d601f19601f820116820180604052508101906101239190610160565b600180546001600160a01b0319166001600160a01b039290921691909117905550610182565b6001600160a01b038116811461015d575f5ffd5b50565b5f60208284031215610170575f5ffd5b815161017b81610149565b9392505050565b60805160a05161064a6101a85f395f818160cf01526102dc01525f6053015261064a5ff3fe608060405234801561000f575f5ffd5b506004361061004a575f3560e01c80630542975c1461004e5780631416d762146100925780631b11d0ff146100a75780637535d246146100ca575b5f5ffd5b6100757f000000000000000000000000000000000000000000000000000000000000000081565b6040516001600160a01b0390911681526020015b60405180910390f35b6100a56100a03660046104bd565b6100f1565b005b6100ba6100b53660046104fb565b610244565b6040519015158152602001610089565b6100757f000000000000000000000000000000000000000000000000000000000000000081565b60405163140e25ad60e31b81526004810182905282906001600160a01b0382169063a0712d68906024016020604051808303815f875af1158015610137573d5f5f3e3d5ffd5b505050506040513d601f19601f8201168201806040525081019061015b91906105e5565b5060015460405163095ea7b360e01b81526001600160a01b0391821660048201525f1960248201529082169063095ea7b3906044016020604051808303815f875af11580156101ac573d5f5f3e3d5ffd5b505050506040513d601f19601f820116820180604052508101906101d091906105e5565b5060015460405163617ba03760e01b81526001600160a01b038581166004830152602482018590523060448301525f60648301529091169063617ba037906084015b5f604051808303815f87803b158015610229575f5ffd5b505af115801561023b573d5f5f3e3d5ffd5b50505050505050565b5f85816102518787610364565b905061025c88610379565b60405163140e25ad60e31b8152600481018790526001600160a01b0383169063a0712d68906024016020604051808303815f875af11580156102a0573d5f5f3e3d5ffd5b505050506040513d601f19601f820116820180604052508101906102c491906105e5565b5060405163095ea7b360e01b81526001600160a01b037f0000000000000000000000000000000000000000000000000000000000000000811660048301526024820183905289169063095ea7b3906044016020604051808303815f875af1158015610331573d5f5f3e3d5ffd5b505050506040513d601f19601f8201168201806040525081019061035591906105e5565b50600198975050505050505050565b80820182811015610373575f5ffd5b92915050565b60015460405163cff027d960e01b81526001600160a01b038084166004830181905284935f9391926370a082319291169063cff027d990602401602060405180830381865afa1580156103ce573d5f5f3e3d5ffd5b505050506040513d601f19601f820116820180604052508101906103f2919061060b565b6040516001600160e01b031960e084901b1681526001600160a01b039091166004820152602401602060405180830381865afa158015610434573d5f5f3e3d5ffd5b505050506040513d601f19601f820116820180604052508101906104589190610626565b60015460405163a415bcad60e01b81526001600160a01b03868116600483015260248201849052600260448301525f606483015230608483015292935091169063a415bcad9060a401610212565b6001600160a01b03811681146104ba575f5ffd5b50565b5f5f604083850312156104ce575f5ffd5b82356104d9816104a6565b946020939093013593505050565b634e487b7160e01b5f52604160045260245ffd5b5f5f5f5f5f60a0868803121561050f575f5ffd5b853561051a816104a6565b945060208601359350604086013592506060860135610538816104a6565b9150608086013567ffffffffffffffff811115610553575f5ffd5b8601601f81018813610563575f5ffd5b803567ffffffffffffffff81111561057d5761057d6104e7565b604051601f8201601f19908116603f0116810167ffffffffffffffff811182821017156105ac576105ac6104e7565b6040528181528282016020018a10156105c3575f5ffd5b816020840160208301375f602083830101528093505050509295509295909350565b5f602082840312156105f5575f5ffd5b81518015158114610604575f5ffd5b9392505050565b5f6020828403121561061b575f5ffd5b8151610604816104a6565b5f60208284031215610636575f5ffd5b505191905056fea164736f6c634300081b000a","linkReferences":{}},"methodIdentifiers":{"ADDRESSES_PROVIDER()":"0542975c","POOL()":"7535d246","executeOperation(address,uint256,uint256,address,bytes)":"1b11d0ff","supplyAsset(address,uint256)":"1416d762"},"id":198}