{"abi":[{"type":"constructor","inputs":[{"name":"poolProxy","type":"address","internalType":"address"},{"name":"poolAdmin","type":"address","internalType":"address"},{"name":"wrappedNativeToken","type":"address","internalType":"address"},{"name":"poolAddressesProvider","type":"address","internalType":"address"},{"name":"l2Flag","type":"bool","internalType":"bool"}],"stateMutability":"nonpayable"},{"type":"function","name":"getGettersReportTwo","inputs":[],"outputs":[{"name":"","type":"tuple","internalType":"struct AaveV3GettersProcedureTwo.GettersReportBatchTwo","components":[{"name":"wrappedTokenGateway","type":"address","internalType":"address"},{"name":"l2Encoder","type":"address","internalType":"address"},{"name":"protocolDataProvider","type":"address","internalType":"address"}]}],"stateMutability":"view"}],"bytecode":{"object":"0x608060405234801561000f575f5ffd5b5060405161493838038061493883398101604081905261002e91610201565b61003b858585858561008c565b80515f80546001600160a01b03199081166001600160a01b039384161790915560208301516001805483169184169190911790556040909201516002805490931691161790555061026a9350505050565b60408051606080820183525f808352602080840182905283850182905284519283018552818352820181905292810192909252906001600160a01b03851615610124578486886040516100de906101bf565b6001600160a01b03938416815291831660208301529091166040820152606001604051809103905ff080158015610117573d5f5f3e3d5ffd5b506001600160a01b031681525b82156101705786604051610137906101cc565b6001600160a01b039091168152602001604051809103905ff080158015610160573d5f5f3e3d5ffd5b506001600160a01b031660208201525b8360405161017d906101d9565b6001600160a01b039091168152602001604051809103905ff0801580156101a6573d5f5f3e3d5ffd5b506001600160a01b031660408201529695505050505050565b61186c8061033383390190565b610ec480611b9f83390190565b611ed580612a6383390190565b80516001600160a01b03811681146101fc575f5ffd5b919050565b5f5f5f5f5f60a08688031215610215575f5ffd5b61021e866101e6565b945061022c602087016101e6565b935061023a604087016101e6565b9250610248606087016101e6565b91506080860151801515811461025c575f5ffd5b809150509295509295909350565b60bd806102765f395ff3fe6080604052348015600e575f5ffd5b50600436106026575f3560e01c80630791426714602a575b5f5ffd5b607a604080516060810182525f808252602082018190529181019190915250604080516060810182525f546001600160a01b03908116825260015481166020830152600254169181019190915290565b6040805182516001600160a01b039081168252602080850151821690830152928201519092169082015260600160405180910390f3fea164736f6c634300081b000a60c060405234801561000f575f5ffd5b5060405161186c38038061186c83398101604081905261002e91610210565b5f80546001600160a01b031916339081178255604051909182915f51602061184c5f395f51905f52908290a3506001600160a01b03808416608052811660a052610077826100f0565b60405163095ea7b360e01b81526001600160a01b0382811660048301525f19602483015284169063095ea7b3906044016020604051808303815f875af11580156100c3573d5f5f3e3d5ffd5b505050506040513d601f19601f820116820180604052508101906100e7919061025a565b50505050610280565b5f546001600160a01b0316331461014e5760405162461bcd60e51b815260206004820181905260248201527f4f776e61626c653a2063616c6c6572206973206e6f7420746865206f776e657260448201526064015b60405180910390fd5b6001600160a01b0381166101b35760405162461bcd60e51b815260206004820152602660248201527f4f776e61626c653a206e6577206f776e657220697320746865207a65726f206160448201526564647265737360d01b6064820152608401610145565b5f80546040516001600160a01b03808516939216915f51602061184c5f395f51905f5291a35f80546001600160a01b0319166001600160a01b0392909216919091179055565b6001600160a01b038116811461020d575f5ffd5b50565b5f5f5f60608486031215610222575f5ffd5b835161022d816101f9565b602085015190935061023e816101f9565b604085015190925061024f816101f9565b809150509250925092565b5f6020828403121561026a575f5ffd5b81518015158114610279575f5ffd5b9392505050565b60805160a05161150b6103415f395f81816101b60152818161040601528181610518015281816106bd0152818161083201528181610a3701528181610b0801528181610d280152610e7c01525f818160d50152818161025f0152818161028f01528181610344015281816103c6015281816104ee015281816106880152818161073e0152818161080801528181610976015281816109f001528181610ade01528181610cf301528181610da901528181610e2d0152610ee7015261150b5ff3fe6080604052600436106100c5575f3560e01c8063ad5c46481161007e578063d4c40b6c11610058578063d4c40b6c146102c6578063e74f7b85146102e5578063eed88b8d14610304578063f2fde38b146103235761013f565b8063ad5c46481461024e578063affa881714610281578063bcc3c255146102b35761013f565b8063474cf53d1461017e578063715018a6146101915780637535d246146101a557806380500d20146101f45780638da5cb5b14610213578063a3d5b2551461022f5761013f565b3661013f57336001600160a01b037f0000000000000000000000000000000000000000000000000000000000000000161461013d5760405162461bcd60e51b8152602060048201526013602482015272149958d95a5d99481b9bdd08185b1b1bddd959606a1b60448201526064015b60405180910390fd5b005b60405162461bcd60e51b815260206004820152601460248201527311985b1b189858dac81b9bdd08185b1b1bddd95960621b6044820152606401610134565b61013d61018c366004611277565b610342565b34801561019c575f5ffd5b5061013d610466565b3480156101b0575f5ffd5b506101d87f000000000000000000000000000000000000000000000000000000000000000081565b6040516001600160a01b03909116815260200160405180910390f35b3480156101ff575f5ffd5b5061013d61020e3660046112bb565b6104d7565b34801561021e575f5ffd5b505f546001600160a01b03166101d8565b34801561023a575f5ffd5b5061013d6102493660046112fa565b6107af565b348015610259575f5ffd5b506101d87f000000000000000000000000000000000000000000000000000000000000000081565b34801561028c575f5ffd5b507f00000000000000000000000000000000000000000000000000000000000000006101d8565b61013d6102c13660046112bb565b6107f1565b3480156102d1575f5ffd5b5061013d6102e0366004611338565b610ac7565b3480156102f0575f5ffd5b5061013d6102ff3660046113a9565b610e1e565b34801561030f575f5ffd5b5061013d61031e3660046113db565b610f52565b34801561032e575f5ffd5b5061013d61033d366004611405565b610f89565b7f00000000000000000000000000000000000000000000000000000000000000006001600160a01b031663d0e30db0346040518263ffffffff1660e01b81526004015f604051808303818588803b15801561039b575f5ffd5b505af11580156103ad573d5f5f3e3d5ffd5b505060405163e8eda9df60e01b81526001600160a01b037f000000000000000000000000000000000000000000000000000000000000000081166004830152346024830152868116604483015261ffff861660648301527f000000000000000000000000000000000000000000000000000000000000000016935063e8eda9df925060840190505f604051808303815f87803b15801561044b575f5ffd5b505af115801561045d573d5f5f3e3d5ffd5b50505050505050565b5f546001600160a01b0316331461048f5760405162461bcd60e51b815260040161013490611427565b5f80546040516001600160a01b03909116907f8be0079c531659141344cd1fd0a4f28419497f9722a3daafe3b4186f6b6457e0908390a35f80546001600160a01b0319169055565b60405163cff027d960e01b81526001600160a01b037f0000000000000000000000000000000000000000000000000000000000000000811660048301525f917f00000000000000000000000000000000000000000000000000000000000000009091169063cff027d990602401602060405180830381865afa15801561055f573d5f5f3e3d5ffd5b505050506040513d601f19601f82011682018060405250810190610583919061145c565b6040516370a0823160e01b81523360048201529091505f906001600160a01b038316906370a0823190602401602060405180830381865afa1580156105ca573d5f5f3e3d5ffd5b505050506040513d601f19601f820116820180604052508101906105ee9190611477565b905083600181016105fc5750805b6040516323b872dd60e01b8152336004820152306024820152604481018290526001600160a01b038416906323b872dd906064016020604051808303815f875af115801561064c573d5f5f3e3d5ffd5b505050506040513d601f19601f82011682018060405250810190610670919061148e565b50604051631a4ca37b60e21b81526001600160a01b037f000000000000000000000000000000000000000000000000000000000000000081166004830152602482018390523060448301527f000000000000000000000000000000000000000000000000000000000000000016906369328dec906064016020604051808303815f875af1158015610703573d5f5f3e3d5ffd5b505050506040513d601f19601f820116820180604052508101906107279190611477565b50604051632e1a7d4d60e01b8152600481018290527f00000000000000000000000000000000000000000000000000000000000000006001600160a01b031690632e1a7d4d906024015f604051808303815f87803b158015610787575f5ffd5b505af1158015610799573d5f5f3e3d5ffd5b505050506107a78482611070565b505050505050565b5f546001600160a01b031633146107d85760405162461bcd60e51b815260040161013490611427565b6107ec6001600160a01b038416838361111f565b505050565b6040516301b2848560e51b81526001600160a01b037f0000000000000000000000000000000000000000000000000000000000000000811660048301525f917f00000000000000000000000000000000000000000000000000000000000000009091169063365090a090602401602060405180830381865afa158015610879573d5f5f3e3d5ffd5b505050506040513d601f19601f8201168201806040525081019061089d919061145c565b6040516370a0823160e01b81526001600160a01b03848116600483015291909116906370a0823190602401602060405180830381865afa1580156108e3573d5f5f3e3d5ffd5b505050506040513d601f19601f820116820180604052508101906109079190611477565b9050808310156109145750815b803410156109745760405162461bcd60e51b815260206004820152602760248201527f6d73672e76616c7565206973206c657373207468616e2072657061796d656e7460448201526608185b5bdd5b9d60ca1b6064820152608401610134565b7f00000000000000000000000000000000000000000000000000000000000000006001600160a01b031663d0e30db0826040518263ffffffff1660e01b81526004015f604051808303818588803b1580156109cd575f5ffd5b505af11580156109df573d5f5f3e3d5ffd5b505060405163573ade8160e01b81527f00000000000000000000000000000000000000000000000000000000000000006001600160a01b039081166004830152602482018690526002604483015286811660648301527f000000000000000000000000000000000000000000000000000000000000000016935063573ade81925060840190506020604051808303815f875af1158015610a81573d5f5f3e3d5ffd5b505050506040513d601f19601f82011682018060405250810190610aa59190611477565b5080341115610ac157610ac133610abc83346114ad565b611070565b50505050565b60405163cff027d960e01b81526001600160a01b037f0000000000000000000000000000000000000000000000000000000000000000811660048301525f917f00000000000000000000000000000000000000000000000000000000000000009091169063cff027d990602401602060405180830381865afa158015610b4f573d5f5f3e3d5ffd5b505050506040513d601f19601f82011682018060405250810190610b73919061145c565b6040516370a0823160e01b81523360048201529091505f906001600160a01b038316906370a0823190602401602060405180830381865afa158015610bba573d5f5f3e3d5ffd5b505050506040513d601f19601f82011682018060405250810190610bde9190611477565b90508760018101610bec5750805b60405163d505accf60e01b8152336004820152306024820152604481018a90526064810188905260ff8716608482015260a4810186905260c481018590526001600160a01b0384169063d505accf9060e4015f604051808303815f87803b158015610c55575f5ffd5b505af1925050508015610c66575060015b506040516323b872dd60e01b8152336004820152306024820152604481018290526001600160a01b038416906323b872dd906064016020604051808303815f875af1158015610cb7573d5f5f3e3d5ffd5b505050506040513d601f19601f82011682018060405250810190610cdb919061148e565b50604051631a4ca37b60e21b81526001600160a01b037f000000000000000000000000000000000000000000000000000000000000000081166004830152602482018390523060448301527f000000000000000000000000000000000000000000000000000000000000000016906369328dec906064016020604051808303815f875af1158015610d6e573d5f5f3e3d5ffd5b505050506040513d601f19601f82011682018060405250810190610d929190611477565b50604051632e1a7d4d60e01b8152600481018290527f00000000000000000000000000000000000000000000000000000000000000006001600160a01b031690632e1a7d4d906024015f604051808303815f87803b158015610df2575f5ffd5b505af1158015610e04573d5f5f3e3d5ffd5b50505050610e128882611070565b50505050505050505050565b60405163a415bcad60e01b81527f00000000000000000000000000000000000000000000000000000000000000006001600160a01b039081166004830152602482018490526002604483015261ffff831660648301523360848301527f0000000000000000000000000000000000000000000000000000000000000000169063a415bcad9060a4015f604051808303815f87803b158015610ebd575f5ffd5b505af1158015610ecf573d5f5f3e3d5ffd5b5050604051632e1a7d4d60e01b8152600481018590527f00000000000000000000000000000000000000000000000000000000000000006001600160a01b03169250632e1a7d4d91506024015f604051808303815f87803b158015610f32575f5ffd5b505af1158015610f44573d5f5f3e3d5ffd5b505050506107ec3383611070565b5f546001600160a01b03163314610f7b5760405162461bcd60e51b815260040161013490611427565b610f858282611070565b5050565b5f546001600160a01b03163314610fb25760405162461bcd60e51b815260040161013490611427565b6001600160a01b0381166110175760405162461bcd60e51b815260206004820152602660248201527f4f776e61626c653a206e6577206f776e657220697320746865207a65726f206160448201526564647265737360d01b6064820152608401610134565b5f80546040516001600160a01b03808516939216917f8be0079c531659141344cd1fd0a4f28419497f9722a3daafe3b4186f6b6457e091a35f80546001600160a01b0319166001600160a01b0392909216919091179055565b604080515f808252602082019092526001600160a01b03841690839060405161109991906114d2565b5f6040518083038185875af1925050503d805f81146110d3576040519150601f19603f3d011682016040523d82523d5f602084013e6110d8565b606091505b50509050806107ec5760405162461bcd60e51b815260206004820152601360248201527211551217d514905394d1915497d19052531151606a1b6044820152606401610134565b60405163a9059cbb60e01b8082526001600160a01b038416600483015260248201839052905f8060448382895af1611159573d5f5f3e3d5ffd5b50611163846111a7565b610ac15760405162461bcd60e51b815260206004820152601560248201527423a83b191d103330b4b632b2103a3930b739b332b960591b6044820152606401610134565b5f6111c9565b62461bcd60e51b5f52602060045280602452508060445260645ffd5b3d80156112085760208114611239576112037f475076323a206d616c666f726d6564207472616e7366657220726573756c7400601f6111ad565b611244565b823b611230576112307311d41d8c8e881b9bdd08184818dbdb9d1c9858dd60621b60146111ad565b60019150611244565b3d5f5f3e5f51151591505b50919050565b6001600160a01b038116811461125e575f5ffd5b50565b803561ffff81168114611272575f5ffd5b919050565b5f5f5f60608486031215611289575f5ffd5b83356112948161124a565b925060208401356112a48161124a565b91506112b260408501611261565b90509250925092565b5f5f5f606084860312156112cd575f5ffd5b83356112d88161124a565b92506020840135915060408401356112ef8161124a565b809150509250925092565b5f5f5f6060848603121561130c575f5ffd5b83356113178161124a565b925060208401356113278161124a565b929592945050506040919091013590565b5f5f5f5f5f5f5f60e0888a03121561134e575f5ffd5b87356113598161124a565b96506020880135955060408801356113708161124a565b945060608801359350608088013560ff8116811461138c575f5ffd5b9699959850939692959460a0840135945060c09093013592915050565b5f5f5f606084860312156113bb575f5ffd5b83356113c68161124a565b9250602084013591506112b260408501611261565b5f5f604083850312156113ec575f5ffd5b82356113f78161124a565b946020939093013593505050565b5f60208284031215611415575f5ffd5b81356114208161124a565b9392505050565b6020808252818101527f4f776e61626c653a2063616c6c6572206973206e6f7420746865206f776e6572604082015260600190565b5f6020828403121561146c575f5ffd5b81516114208161124a565b5f60208284031215611487575f5ffd5b5051919050565b5f6020828403121561149e575f5ffd5b81518015158114611420575f5ffd5b818103818111156114cc57634e487b7160e01b5f52601160045260245ffd5b92915050565b5f82515f5b818110156114f157602081860181015185830152016114d7565b505f92019182525091905056fea164736f6c634300081b000a8be0079c531659141344cd1fd0a4f28419497f9722a3daafe3b4186f6b6457e060a060405234801561000f575f5ffd5b50604051610ec4380380610ec483398101604081905261002e9161003f565b6001600160a01b031660805261006c565b5f6020828403121561004f575f5ffd5b81516001600160a01b0381168114610065575f5ffd5b9392505050565b608051610e016100c35f395f818161010b015281816101ef015281816102bc0152818161038501528181610467015281816104fe015281816105f0015281816106cc0152818161078301526108270152610e015ff3fe608060405234801561000f575f5ffd5b506004361061009b575f3560e01c80638da7fb18116100635780638da7fb181461016d5780639d2ffc1b14610180578063b76398e414610193578063fc0eed85146101a6578063fed63a93146101b9575f5ffd5b80631a64acf21461009f5780635cc7bc10146100c5578063671a7fae146100d85780637535d2461461010657806388d5185214610145575b5f5ffd5b6100b26100ad3660046109c1565b6101cc565b6040519081526020015b60405180910390f35b6100b26100d3366004610a08565b610299565b6100eb6100e6366004610a47565b61035e565b604080519384526020840192909252908201526060016100bc565b61012d7f000000000000000000000000000000000000000000000000000000000000000081565b6040516001600160a01b0390911681526020016100bc565b610158610153366004610ac0565b610442565b604080519283526020830191909152016100bc565b6100b261017b366004610b20565b6105b9565b6100b261018e366004610b20565b6105cd565b6100b26101a1366004610b52565b6106a9565b6100b26101b4366004610b91565b610760565b6100eb6101c7366004610bc4565b610800565b6040516335ea6a7560e01b81526001600160a01b0385811660048301525f9182917f000000000000000000000000000000000000000000000000000000000000000016906335ea6a75906024016101e060405180830381865afa158015610235573d5f5f3e3d5ffd5b505050506040513d601f19601f820116820180604052508101906102599190610cca565b60e08101519091505f61026b87610902565b90505f6102778761093e565b60109290921b60909290921b60989690961b9590950101019695505050505050565b6040516335ea6a7560e01b81526001600160a01b0383811660048301525f9182917f000000000000000000000000000000000000000000000000000000000000000016906335ea6a75906024016101e060405180830381865afa158015610302573d5f5f3e3d5ffd5b505050506040513d601f19601f820116820180604052508101906103269190610cca565b60e08101519091505f5f1985146103455761034085610902565b61034e565b6001600160801b035b60101b9190910195945050505050565b6040516335ea6a7560e01b81526001600160a01b0388811660048301525f918291829182917f000000000000000000000000000000000000000000000000000000000000000016906335ea6a75906024016101e060405180830381865afa1580156103cb573d5f5f3e3d5ffd5b505050506040513d601f19601f820116820180604052508101906103ef9190610cca565b60e08101519091505f6104018c610902565b90505f61040d8b61096b565b90505f8a60c01b8260a01b018d60901b018360101b0184019050808a8a97509750975050505050509750975097945050505050565b6040516335ea6a7560e01b81526001600160a01b0386811660048301525f91829182917f0000000000000000000000000000000000000000000000000000000000000000909116906335ea6a75906024016101e060405180830381865afa1580156104af573d5f5f3e3d5ffd5b505050506040513d601f19601f820116820180604052508101906104d39190610cca565b60e08101516040516335ea6a7560e01b81526001600160a01b038a8116600483015292935090915f917f0000000000000000000000000000000000000000000000000000000000000000909116906335ea6a75906024016101e060405180830381865afa158015610546573d5f5f3e3d5ffd5b505050506040513d601f19601f8201168201806040525081019061056a9190610cca565b60e08101519091505f5f1989146105895761058489610902565b610592565b6001600160801b035b60109290921b9390930160208a901b019550608087901b0193505050509550959350505050565b5f6105c58484846105cd565b949350505050565b6040516335ea6a7560e01b81526001600160a01b0384811660048301525f9182917f000000000000000000000000000000000000000000000000000000000000000016906335ea6a75906024016101e060405180830381865afa158015610636573d5f5f3e3d5ffd5b505050506040513d601f19601f8201168201806040525081019061065a9190610cca565b60e08101519091505f5f1986146106795761067486610902565b610682565b6001600160801b035b90505f61068e8661093e565b60901b60109290921b91909101919091019695505050505050565b6040516335ea6a7560e01b81526001600160a01b0384811660048301525f9182917f000000000000000000000000000000000000000000000000000000000000000016906335ea6a75906024016101e060405180830381865afa158015610712573d5f5f3e3d5ffd5b505050506040513d601f19601f820116820180604052508101906107369190610cca565b60e08101519091505f61074886610902565b60101b609086901b0191909101925050509392505050565b6040516335ea6a7560e01b81526001600160a01b0383811660048301525f9182917f000000000000000000000000000000000000000000000000000000000000000016906335ea6a75906024016101e060405180830381865afa1580156107c9573d5f5f3e3d5ffd5b505050506040513d601f19601f820116820180604052508101906107ed9190610cca565b60e00151601084901b0191505092915050565b6040516335ea6a7560e01b81526001600160a01b0388811660048301525f918291829182917f000000000000000000000000000000000000000000000000000000000000000016906335ea6a75906024016101e060405180830381865afa15801561086d573d5f5f3e3d5ffd5b505050506040513d601f19601f820116820180604052508101906108919190610cca565b60e08101519091505f5f198c146108b0576108ab8c610902565b6108b9565b6001600160801b035b90505f6108c58c61093e565b90505f6108d18c61096b565b60b89b909b1b60989b909b1b9a909a0160909190911b0160109190911b01019b959a50939850939650505050505050565b5f6001600160801b0382111561093a576040516306dfcc6560e41b815260806004820152602481018390526044015b60405180910390fd5b5090565b5f60ff82111561093a576040516306dfcc6560e41b81526008600482015260248101839052604401610931565b5f63ffffffff82111561093a576040516306dfcc6560e41b81526020600482015260248101839052604401610931565b6001600160a01b03811681146109af575f5ffd5b50565b61ffff811681146109af575f5ffd5b5f5f5f5f608085870312156109d4575f5ffd5b84356109df8161099b565b9350602085013592506040850135915060608501356109fd816109b2565b939692955090935050565b5f5f60408385031215610a19575f5ffd5b8235610a248161099b565b946020939093013593505050565b803560ff81168114610a42575f5ffd5b919050565b5f5f5f5f5f5f5f60e0888a031215610a5d575f5ffd5b8735610a688161099b565b9650602088013595506040880135610a7f816109b2565b945060608801359350610a9460808901610a32565b9699959850939692959460a0840135945060c09093013592915050565b80358015158114610a42575f5ffd5b5f5f5f5f5f60a08688031215610ad4575f5ffd5b8535610adf8161099b565b94506020860135610aef8161099b565b93506040860135610aff8161099b565b925060608601359150610b1460808701610ab1565b90509295509295909350565b5f5f5f60608486031215610b32575f5ffd5b8335610b3d8161099b565b95602085013595506040909401359392505050565b5f5f5f60608486031215610b64575f5ffd5b8335610b6f8161099b565b9250602084013591506040840135610b86816109b2565b809150509250925092565b5f5f60408385031215610ba2575f5ffd5b8235610bad8161099b565b9150610bbb60208401610ab1565b90509250929050565b5f5f5f5f5f5f5f60e0888a031215610bda575f5ffd5b8735610be58161099b565b9650602088013595506040880135945060608801359350610a9460808901610a32565b6040516101e0810167ffffffffffffffff81118282101715610c3857634e487b7160e01b5f52604160045260245ffd5b60405290565b5f60208284031215610c4e575f5ffd5b6040516020810167ffffffffffffffff81118282101715610c7d57634e487b7160e01b5f52604160045260245ffd5b6040529151825250919050565b80516001600160801b0381168114610a42575f5ffd5b805164ffffffffff81168114610a42575f5ffd5b8051610a42816109b2565b8051610a428161099b565b5f6101e0828403128015610cdc575f5ffd5b50610ce5610c08565b610cef8484610c3e565b8152610cfd60208401610c8a565b6020820152610d0e60408401610c8a565b6040820152610d1f60608401610c8a565b6060820152610d3060808401610c8a565b6080820152610d4160a08401610c8a565b60a0820152610d5260c08401610ca0565b60c0820152610d6360e08401610cb4565b60e0820152610d756101008401610cbf565b610100820152610d886101208401610cbf565b610120820152610d9b6101408401610cbf565b610140820152610dae6101608401610cbf565b610160820152610dc16101808401610c8a565b610180820152610dd46101a08401610c8a565b6101a0820152610de76101c08401610c8a565b6101c0820152939250505056fea164736f6c634300081b000a60c060405234801561000f575f5ffd5b50604051611ed5380380611ed583398101604081905261002e916100fb565b806001600160a01b03166080816001600160a01b0316815250505f816001600160a01b031663026b1d5f6040518163ffffffff1660e01b8152600401602060405180830381865afa158015610085573d5f5f3e3d5ffd5b505050506040513d601f19601f820116820180604052508101906100a991906100fb565b90506001600160a01b0381166100d257604051633bf95ba760e01b815260040160405180910390fd5b6001600160a01b031660a0525061011d565b6001600160a01b03811681146100f8575f5ffd5b50565b5f6020828403121561010b575f5ffd5b8151610116816100e4565b9392505050565b60805160a051611d0b6101ca5f395f81816103730152818161047e0152818161053b015281816107500152818161096101528181610a0301528181610a8401528181610bc101528181610c7201528181610d6801528181610d9a01528181610e3901528181610eb8015281816111e9015281816112ac0152818161133c015281816113c801528181611463015281816114e7015281816115da015261175701525f6101460152611d0b5ff3fe608060405234801561000f575f5ffd5b506004361061013d575f3560e01c80636fb07f96116100b4578063c952485d11610079578063c952485d146103e0578063d2493b6c146103f3578063d7ed3ef414610430578063f561ae4114610443578063f7e143071461044b578063fcf40a621461045f575f5ffd5b80636fb07f961461035b5780637535d2461461036e5780637ba1ae3614610395578063b316ff89146103a8578063b55d9904146103bd575f5ffd5b80633e150141116101055780633e1501411461028c57806346fbe558146102f35780634d44ac4f1461031b57806351460e251461032e5780636744362a1461034157806369b169e114610354575f5ffd5b80630542975c1461014157806328dd2d011461018557806335ea6a75146101e55780633c798109146102585780633cb8a62214610279575b5f5ffd5b6101687f000000000000000000000000000000000000000000000000000000000000000081565b6040516001600160a01b0390911681526020015b60405180910390f35b61019861019336600461181a565b610472565b60408051998a5260208a0198909852968801959095526060870193909352608086019190915260a085015260c084015264ffffffffff1660e083015215156101008201526101200161017c565b6101f86101f3366004611851565b610741565b604080519c8d5260208d019b909b52998b019890985260608a0196909652608089019490945260a088019290925260c087015260e086015261010085015261012084015261014083015264ffffffffff166101608201526101800161017c565b61026b610266366004611851565b61093c565b60405190815260200161017c565b61026b610287366004611851565b6109de565b61029f61029a366004611851565b610a77565b604080519a8b5260208b01999099529789019690965260608801949094526080870192909252151560a0860152151560c0850152151560e0840152151561010083015215156101208201526101400161017c565b610306610301366004611851565b610b9a565b6040805192835260208301919091520161017c565b61026b610329366004611851565b610c4f565b61026b61033c366004611851565b610d45565b61016861034f366004611851565b610d97565b600261026b565b61026b610369366004611851565b610e18565b6101687f000000000000000000000000000000000000000000000000000000000000000081565b61026b6103a3366004611851565b505f90565b6103b0610eb3565b60405161017c919061188e565b6103d06103cb366004611851565b6111c4565b604051901515815260200161017c565b61026b6103ee366004611851565b61128b565b610406610401366004611851565b611317565b604080516001600160a01b039485168152928416602084015292169181019190915260600161017c565b6103d061043e366004611851565b611440565b6103b06114e2565b6103d0610459366004611851565b50600190565b6103d061046d366004611851565b611732565b5f5f5f5f5f5f5f5f5f5f7f00000000000000000000000000000000000000000000000000000000000000006001600160a01b03166335ea6a758d6040518263ffffffff1660e01b81526004016104d791906001600160a01b0391909116815260200190565b6101e060405180830381865afa1580156104f3573d5f5f3e3d5ffd5b505050506040513d601f19601f820116820180604052508101906105179190611a1f565b604051634417a58360e01b81526001600160a01b038d811660048301529192505f917f00000000000000000000000000000000000000000000000000000000000000001690634417a58390602401602060405180830381865afa158015610580573d5f5f3e3d5ffd5b505050506040513d601f19601f820116820180604052508101906105a49190611b49565b6101008301516040516370a0823160e01b81526001600160a01b038f811660048301529293509116906370a0823190602401602060405180830381865afa1580156105f1573d5f5f3e3d5ffd5b505050506040513d601f19601f820116820180604052508101906106159190611b63565b6101408301516040516370a0823160e01b81526001600160a01b038f81166004830152929d509116906370a0823190602401602060405180830381865afa158015610662573d5f5f3e3d5ffd5b505050506040513d601f19601f820116820180604052508101906106869190611b63565b610140830151604051630ed1279f60e11b81526001600160a01b038f811660048301525f9d50929b508c9a508a9850889650911690631da24f3e90602401602060405180830381865afa1580156106df573d5f5f3e3d5ffd5b505050506040513d601f19601f820116820180604052508101906107039190611b63565b965081604001516001600160801b031694506107308260e0015161ffff16826117d090919063ffffffff16565b925050509295985092959850929598565b5f5f5f5f5f5f5f5f5f5f5f5f5f7f00000000000000000000000000000000000000000000000000000000000000006001600160a01b03166335ea6a758f6040518263ffffffff1660e01b81526004016107a991906001600160a01b0391909116815260200190565b6101e060405180830381865afa1580156107c5573d5f5f3e3d5ffd5b505050506040513d601f19601f820116820180604052508101906107e99190611a1f565b90505f8161018001518261010001516001600160a01b03166318160ddd6040518163ffffffff1660e01b8152600401602060405180830381865afa158015610833573d5f5f3e3d5ffd5b505050506040513d601f19601f820116820180604052508101906108579190611b63565b5f8461014001516001600160a01b03166318160ddd6040518163ffffffff1660e01b8152600401602060405180830381865afa158015610899573d5f5f3e3d5ffd5b505050506040513d601f19601f820116820180604052508101906108bd9190611b63565b856040015186608001515f5f89602001518a606001518b60c001518a6001600160801b03169a50866001600160801b03169650856001600160801b03169550826001600160801b03169250816001600160801b031691509c509c509c509c509c509c509c509c509c509c509c509c505091939597999b5091939597999b565b60405163c44b11f760e01b81526001600160a01b0382811660048301525f916109d8917f0000000000000000000000000000000000000000000000000000000000000000169063c44b11f790602401602060405180830381865afa1580156109a6573d5f5f3e3d5ffd5b505050506040513d601f19601f820116820180604052508101906109ca9190611b49565b5160d41c64ffffffffff1690565b92915050565b60405163c44b11f760e01b81526001600160a01b0382811660048301525f916109d8917f0000000000000000000000000000000000000000000000000000000000000000169063c44b11f790602401602060405180830381865afa158015610a48573d5f5f3e3d5ffd5b505050506040513d601f19601f82011682018060405250810190610a6c9190611b49565b5160981c61ffff1690565b5f5f5f5f5f5f5f5f5f5f5f7f00000000000000000000000000000000000000000000000000000000000000006001600160a01b031663c44b11f78d6040518263ffffffff1660e01b8152600401610add91906001600160a01b0391909116815260200190565b602060405180830381865afa158015610af8573d5f5f3e3d5ffd5b505050506040513d601f19601f82011682018060405250810190610b1c9190611b49565b9050610b4d815161ffff80821692601083901c821692602081901c831692603082901c60ff169260409290921c1690565b8551919f50939d50919b509950909750600160381b8116151590600160391b81161515906001603a1b8116151590509c9e9b9d50999b989a97998c151599985f9850919650945092505050565b60405163c44b11f760e01b81526001600160a01b0382811660048301525f918291610c45917f00000000000000000000000000000000000000000000000000000000000000009091169063c44b11f790602401602060405180830381865afa158015610c08573d5f5f3e3d5ffd5b505050506040513d601f19601f82011682018060405250810190610c2c9190611b49565b51640fffffffff605082901c81169260749290921c1690565b9094909350915050565b6040516301b2848560e51b81526001600160a01b0382811660048301525f9182917f0000000000000000000000000000000000000000000000000000000000000000169063365090a0906024015b602060405180830381865afa158015610cb8573d5f5f3e3d5ffd5b505050506040513d601f19601f82011682018060405250810190610cdc9190611b7a565b9050806001600160a01b03166318160ddd6040518163ffffffff1660e01b8152600401602060405180830381865afa158015610d1a573d5f5f3e3d5ffd5b505050506040513d601f19601f82011682018060405250810190610d3e9190611b63565b9392505050565b60405163cff027d960e01b81526001600160a01b0382811660048301525f9182917f0000000000000000000000000000000000000000000000000000000000000000169063cff027d990602401610c9d565b5f7f00000000000000000000000000000000000000000000000000000000000000006001600160a01b0316631b8feb0e6040518163ffffffff1660e01b8152600401602060405180830381865afa158015610df4573d5f5f3e3d5ffd5b505050506040513d601f19601f820116820180604052508101906109d89190611b7a565b6040516337d83fcb60e11b81526001600160a01b0382811660048301525f917f000000000000000000000000000000000000000000000000000000000000000090911690636fb07f9690602401602060405180830381865afa158015610e80573d5f5f3e3d5ffd5b505050506040513d601f19601f82011682018060405250810190610ea49190611b95565b6001600160801b031692915050565b60605f7f00000000000000000000000000000000000000000000000000000000000000006001600160a01b031663d1946dbc6040518163ffffffff1660e01b81526004015f60405180830381865afa158015610f11573d5f5f3e3d5ffd5b505050506040513d5f823e601f3d908101601f19168201604052610f389190810190611bae565b90505f815167ffffffffffffffff811115610f5557610f55611925565b604051908082528060200260200182016040528015610f9a57816020015b60408051808201909152606081525f6020820152815260200190600190039081610f735790505b5090505f5b82518110156111bd57739f8f72aa9304c8b593d555f12ef6589cc3a579a26001600160a01b0316838281518110610fd857610fd8611c62565b60200260200101516001600160a01b0316036110625760405180604001604052806040518060400160405280600381526020016226a5a960e91b815250815260200184838151811061102c5761102c611c62565b60200260200101516001600160a01b031681525082828151811061105257611052611c62565b60200260200101819052506111b5565b73eeeeeeeeeeeeeeeeeeeeeeeeeeeeeeeeeeeeeeee6001600160a01b031683828151811061109257611092611c62565b60200260200101516001600160a01b0316036110e65760405180604001604052806040518060400160405280600381526020016208aa8960eb1b815250815260200184838151811061102c5761102c611c62565b604051806040016040528084838151811061110357611103611c62565b60200260200101516001600160a01b03166395d89b416040518163ffffffff1660e01b81526004015f60405180830381865afa158015611145573d5f5f3e3d5ffd5b505050506040513d5f823e601f3d908101601f1916820160405261116c9190810190611c76565b815260200184838151811061118357611183611c62565b60200260200101516001600160a01b03168152508282815181106111a9576111a9611c62565b60200260200101819052505b600101610f9f565b5092915050565b60405163c44b11f760e01b81526001600160a01b0382811660048301525f91611282917f0000000000000000000000000000000000000000000000000000000000000000169063c44b11f790602401602060405180830381865afa15801561122e573d5f5f3e3d5ffd5b505050506040513d601f19601f820116820180604052508101906112529190611b49565b51600160381b8116151591600160391b82161515916001603a1b8116151591671000000000000000909116151590565b95945050505050565b60405163c952485d60e01b81526001600160a01b0382811660048301525f917f00000000000000000000000000000000000000000000000000000000000000009091169063c952485d90602401602060405180830381865afa1580156112f3573d5f5f3e3d5ffd5b505050506040513d601f19601f820116820180604052508101906109d89190611b63565b60405163cff027d960e01b81526001600160a01b0382811660048301525f91829182917f00000000000000000000000000000000000000000000000000000000000000009091169063cff027d990602401602060405180830381865afa158015611383573d5f5f3e3d5ffd5b505050506040513d601f19601f820116820180604052508101906113a79190611b7a565b6040516301b2848560e51b81526001600160a01b0386811660048301525f917f00000000000000000000000000000000000000000000000000000000000000009091169063365090a090602401602060405180830381865afa15801561140f573d5f5f3e3d5ffd5b505050506040513d601f19601f820116820180604052508101906114339190611b7a565b9250925092509193909250565b60405163c44b11f760e01b81526001600160a01b0382811660048301525f9182917f0000000000000000000000000000000000000000000000000000000000000000169063c44b11f790602401602060405180830381865afa1580156114a8573d5f5f3e3d5ffd5b505050506040513d601f19601f820116820180604052508101906114cc9190611b49565b9050610d3e815167800000000000000016151590565b60605f7f00000000000000000000000000000000000000000000000000000000000000006001600160a01b031663d1946dbc6040518163ffffffff1660e01b81526004015f60405180830381865afa158015611540573d5f5f3e3d5ffd5b505050506040513d5f823e601f3d908101601f191682016040526115679190810190611bae565b90505f815167ffffffffffffffff81111561158457611584611925565b6040519080825280602002602001820160405280156115c957816020015b60408051808201909152606081525f60208201528152602001906001900390816115a25790505b5090505f5b82518110156111bd575f7f00000000000000000000000000000000000000000000000000000000000000006001600160a01b031663cff027d985848151811061161957611619611c62565b60200260200101516040518263ffffffff1660e01b815260040161164c91906001600160a01b0391909116815260200190565b602060405180830381865afa158015611667573d5f5f3e3d5ffd5b505050506040513d601f19601f8201168201806040525081019061168b9190611b7a565b90506040518060400160405280826001600160a01b03166395d89b416040518163ffffffff1660e01b81526004015f60405180830381865afa1580156116d3573d5f5f3e3d5ffd5b505050506040513d5f823e601f3d908101601f191682016040526116fa9190810190611c76565b8152602001826001600160a01b031681525083838151811061171e5761171e611c62565b6020908102919091010152506001016115ce565b60405163c44b11f760e01b81526001600160a01b0382811660048301525f916109d8917f0000000000000000000000000000000000000000000000000000000000000000169063c44b11f790602401602060405180830381865afa15801561179c573d5f5f3e3d5ffd5b505050506040513d601f19601f820116820180604052508101906117c09190611b49565b5167400000000000000016151590565b5f608082106117f2576040516385e98beb60e01b815260040160405180910390fd5b509051600191821b82011c16151590565b6001600160a01b0381168114611817575f5ffd5b50565b5f5f6040838503121561182b575f5ffd5b823561183681611803565b9150602083013561184681611803565b809150509250929050565b5f60208284031215611861575f5ffd5b8135610d3e81611803565b5f5b8381101561188657818101518382015260200161186e565b50505f910152565b5f602082016020835280845180835260408501915060408160051b8601019250602086015f5b8281101561191957603f19878603018452815180516040875280518060408901526118e68160608a016020850161186c565b6020928301516001600160a01b031688840152601f01601f191690960160600195509384019391909101906001016118b4565b50929695505050505050565b634e487b7160e01b5f52604160045260245ffd5b6040516101e0810167ffffffffffffffff8111828210171561195d5761195d611925565b60405290565b604051601f8201601f1916810167ffffffffffffffff8111828210171561198c5761198c611925565b604052919050565b5f602082840312156119a4575f5ffd5b6040516020810167ffffffffffffffff811182821017156119c7576119c7611925565b6040529151825250919050565b80516001600160801b03811681146119ea575f5ffd5b919050565b805164ffffffffff811681146119ea575f5ffd5b805161ffff811681146119ea575f5ffd5b80516119ea81611803565b5f6101e0828403128015611a31575f5ffd5b50611a3a611939565b611a448484611994565b8152611a52602084016119d4565b6020820152611a63604084016119d4565b6040820152611a74606084016119d4565b6060820152611a85608084016119d4565b6080820152611a9660a084016119d4565b60a0820152611aa760c084016119ef565b60c0820152611ab860e08401611a03565b60e0820152611aca6101008401611a14565b610100820152611add6101208401611a14565b610120820152611af06101408401611a14565b610140820152611b036101608401611a14565b610160820152611b1661018084016119d4565b610180820152611b296101a084016119d4565b6101a0820152611b3c6101c084016119d4565b6101c08201529392505050565b5f60208284031215611b59575f5ffd5b610d3e8383611994565b5f60208284031215611b73575f5ffd5b5051919050565b5f60208284031215611b8a575f5ffd5b8151610d3e81611803565b5f60208284031215611ba5575f5ffd5b610d3e826119d4565b5f60208284031215611bbe575f5ffd5b815167ffffffffffffffff811115611bd4575f5ffd5b8201601f81018413611be4575f5ffd5b805167ffffffffffffffff811115611bfe57611bfe611925565b8060051b611c0e60208201611963565b91825260208184018101929081019087841115611c29575f5ffd5b6020850194505b83851015611c575784519250611c4583611803565b82825260209485019490910190611c30565b979650505050505050565b634e487b7160e01b5f52603260045260245ffd5b5f60208284031215611c86575f5ffd5b815167ffffffffffffffff811115611c9c575f5ffd5b8201601f81018413611cac575f5ffd5b805167ffffffffffffffff811115611cc657611cc6611925565b611cd9601f8201601f1916602001611963565b818152856020838501011115611ced575f5ffd5b61128282602083016020860161186c56fea164736f6c634300081b000a","linkReferences":{}},"methodIdentifiers":{"getGettersReportTwo()":"07914267"},"id":299}