{"abi":[{"type":"function","name":"loadAddressFromSlot","inputs":[{"name":"target","type":"address","internalType":"address"},{"name":"slot","type":"bytes32","internalType":"bytes32"}],"outputs":[{"name":"","type":"address","internalType":"address"}],"stateMutability":"view"}],"bytecode":{"object":"0x61014a610034600b8282823980515f1a607314602857634e487b7160e01b5f525f60045260245ffd5b305f52607381538281f3fe7300000000000000000000000000000000000000003014608060405260043610610034575f3560e01c8063ea95730014610038575b5f5ffd5b61004b6100463660046100f1565b610067565b6040516001600160a01b03909116815260200160405180910390f35b604051630667f9d760e41b81526001600160a01b0383166004820152602481018290525f90737109709ecfa91a80626ff3989d68f67f5b1dd12d9063667f9d7090604401602060405180830381865afa1580156100c6573d5f5f3e3d5ffd5b505050506040513d601f19601f820116820180604052508101906100ea9190610126565b9392505050565b5f5f60408385031215610102575f5ffd5b82356001600160a01b0381168114610118575f5ffd5b946020939093013593505050565b5f60208284031215610136575f5ffd5b505191905056fea164736f6c634300081b000a","linkReferences":{}},"methodIdentifiers":{"loadAddressFromSlot(address,bytes32)":"ea957300"},"id":476}