{"abi":[{"type":"constructor","inputs":[{"name":"addressesProvider","type":"address","internalType":"contract IPoolAddressesProvider"},{"name":"augustusRegistry","type":"address","internalType":"contract IParaSwapAugustusRegistry"},{"name":"owner","type":"address","internalType":"address"}],"stateMutability":"nonpayable"},{"type":"function","name":"ADDRESSES_PROVIDER","inputs":[],"outputs":[{"name":"","type":"address","internalType":"contract IPoolAddressesProvider"}],"stateMutability":"view"},{"type":"function","name":"AUGUSTUS_REGISTRY","inputs":[],"outputs":[{"name":"","type":"address","internalType":"contract IParaSwapAugustusRegistry"}],"stateMutability":"view"},{"type":"function","name":"MAX_SLIPPAGE_PERCENT","inputs":[],"outputs":[{"name":"","type":"uint256","internalType":"uint256"}],"stateMutability":"view"},{"type":"function","name":"ORACLE","inputs":[],"outputs":[{"name":"","type":"address","internalType":"contract IPriceOracleGetter"}],"stateMutability":"view"},{"type":"function","name":"POOL","inputs":[],"outputs":[{"name":"","type":"address","internalType":"contract IPool"}],"stateMutability":"view"},{"type":"function","name":"executeOperation","inputs":[{"name":"asset","type":"address","internalType":"address"},{"name":"amount","type":"uint256","internalType":"uint256"},{"name":"premium","type":"uint256","internalType":"uint256"},{"name":"initiator","type":"address","internalType":"address"},{"name":"params","type":"bytes","internalType":"bytes"}],"outputs":[{"name":"","type":"bool","internalType":"bool"}],"stateMutability":"nonpayable"},{"type":"function","name":"owner","inputs":[],"outputs":[{"name":"","type":"address","internalType":"address"}],"stateMutability":"view"},{"type":"function","name":"renounceOwnership","inputs":[],"outputs":[],"stateMutability":"nonpayable"},{"type":"function","name":"rescueTokens","inputs":[{"name":"token","type":"address","internalType":"contract IERC20"}],"outputs":[],"stateMutability":"nonpayable"},{"type":"function","name":"swapAndDeposit","inputs":[{"name":"assetToSwapFrom","type":"address","internalType":"contract IERC20Detailed"},{"name":"assetToSwapTo","type":"address","internalType":"contract IERC20Detailed"},{"name":"amountToSwap","type":"uint256","internalType":"uint256"},{"name":"minAmountToReceive","type":"uint256","internalType":"uint256"},{"name":"swapAllBalanceOffset","type":"uint256","internalType":"uint256"},{"name":"swapCalldata","type":"bytes","internalType":"bytes"},{"name":"augustus","type":"address","internalType":"address"},{"name":"permitParams","type":"tuple","internalType":"struct BaseParaSwapAdapter.PermitSignature","components":[{"name":"amount","type":"uint256","internalType":"uint256"},{"name":"deadline","type":"uint256","internalType":"uint256"},{"name":"v","type":"uint8","internalType":"uint8"},{"name":"r","type":"bytes32","internalType":"bytes32"},{"name":"s","type":"bytes32","internalType":"bytes32"}]}],"outputs":[],"stateMutability":"nonpayable"},{"type":"function","name":"transferOwnership","inputs":[{"name":"newOwner","type":"address","internalType":"address"}],"outputs":[],"stateMutability":"nonpayable"},{"type":"event","name":"Bought","inputs":[{"name":"fromAsset","type":"address","indexed":true,"internalType":"address"},{"name":"toAsset","type":"address","indexed":true,"internalType":"address"},{"name":"amountSold","type":"uint256","indexed":false,"internalType":"uint256"},{"name":"receivedAmount","type":"uint256","indexed":false,"internalType":"uint256"}],"anonymous":false},{"type":"event","name":"OwnershipTransferred","inputs":[{"name":"previousOwner","type":"address","indexed":true,"internalType":"address"},{"name":"newOwner","type":"address","indexed":true,"internalType":"address"}],"anonymous":false},{"type":"event","name":"Swapped","inputs":[{"name":"fromAsset","type":"address","indexed":true,"internalType":"address"},{"name":"toAsset","type":"address","indexed":true,"internalType":"address"},{"name":"fromAmount","type":"uint256","indexed":false,"internalType":"uint256"},{"name":"receivedAmount","type":"uint256","indexed":false,"internalType":"uint256"}],"anonymous":false}],"bytecode":{"object":"0x610100604052348015610010575f5ffd5b5060405161241638038061241683398101604081905261002f91610300565b82828180806001600160a01b03166080816001600160a01b031681525050806001600160a01b031663026b1d5f6040518163ffffffff1660e01b8152600401602060405180830381865afa158015610089573d5f5f3e3d5ffd5b505050506040513d601f19601f820116820180604052508101906100ad919061034a565b6001600160a01b031660a052505f80546001600160a01b031916339081178255604051909182915f5160206123f65f395f51905f52908290a350806001600160a01b031663fca513a86040518163ffffffff1660e01b8152600401602060405180830381865afa158015610123573d5f5f3e3d5ffd5b505050506040513d601f19601f82011682018060405250810190610147919061034a565b6001600160a01b0390811660c05260405163fb04e17b60e01b81525f6004820152908316915063fb04e17b90602401602060405180830381865afa158015610191573d5f5f3e3d5ffd5b505050506040513d601f19601f820116820180604052508101906101b5919061036c565b156101be575f5ffd5b6001600160a01b031660e05250600180556101d8816101e0565b50505061038b565b5f546001600160a01b0316331461023e5760405162461bcd60e51b815260206004820181905260248201527f4f776e61626c653a2063616c6c6572206973206e6f7420746865206f776e657260448201526064015b60405180910390fd5b6001600160a01b0381166102a35760405162461bcd60e51b815260206004820152602660248201527f4f776e61626c653a206e6577206f776e657220697320746865207a65726f206160448201526564647265737360d01b6064820152608401610235565b5f80546040516001600160a01b03808516939216915f5160206123f65f395f51905f5291a35f80546001600160a01b0319166001600160a01b0392909216919091179055565b6001600160a01b03811681146102fd575f5ffd5b50565b5f5f5f60608486031215610312575f5ffd5b835161031d816102e9565b602085015190935061032e816102e9565b604085015190925061033f816102e9565b809150509250925092565b5f6020828403121561035a575f5ffd5b8151610365816102e9565b9392505050565b5f6020828403121561037c575f5ffd5b81518015158114610365575f5ffd5b60805160a05160c05160e051611fd761041f5f395f81816101680152610df101525f8181610141015261170001525f818161019701528181610312015281816104ac0152818161065b0152818161068f015281816106e6015281816108e401528181610aa501528181610ad901528181610b3201528181610bb701528181610be10152610d1001525f60c30152611fd75ff3fe608060405234801561000f575f5ffd5b50600436106100a5575f3560e01c80633a8298671161006e5780633a82986714610163578063715018a61461018a5780637535d246146101925780638da5cb5b146101b9578063d3454a35146101c9578063f2fde38b146101dc575f5ffd5b8062ae3bf8146100a95780630542975c146100be5780631b11d0ff1461010257806332e4b2861461012557806338013f021461013c575b5f5ffd5b6100bc6100b7366004611a21565b6101ef565b005b6100e57f000000000000000000000000000000000000000000000000000000000000000081565b6040516001600160a01b0390911681526020015b60405180910390f35b610115610110366004611a81565b6102af565b60405190151581526020016100f9565b61012e610bb881565b6040519081526020016100f9565b6100e57f000000000000000000000000000000000000000000000000000000000000000081565b6100e57f000000000000000000000000000000000000000000000000000000000000000081565b6100bc6103c3565b6100e57f000000000000000000000000000000000000000000000000000000000000000081565b5f546001600160a01b03166100e5565b6100bc6101d7366004611af8565b610434565b6100bc6101ea366004611a21565b61074e565b5f546001600160a01b031633146102215760405162461bcd60e51b815260040161021890611ba4565b60405180910390fd5b6102ac6102355f546001600160a01b031690565b6040516370a0823160e01b81523060048201526001600160a01b038416906370a0823190602401602060405180830381865afa158015610277573d5f5f3e3d5ffd5b505050506040513d601f19601f8201168201806040525081019061029b9190611bd9565b6001600160a01b0384169190610835565b50565b5f6002600154036103025760405162461bcd60e51b815260206004820152601f60248201527f5265656e7472616e637947756172643a207265656e7472616e742063616c6c006044820152606401610218565b6002600155336001600160a01b037f000000000000000000000000000000000000000000000000000000000000000016146103755760405162461bcd60e51b815260206004820152601360248201527210d05313115497d35554d517d09157d413d3d3606a1b6044820152606401610218565b858585895f808080808061038b8c8e018e611cca565b9550955095509550955095506103a9848484848e8e8e8e8e8e6108c3565b505060018080559f9e505050505050505050505050505050565b5f546001600160a01b031633146103ec5760405162461bcd60e51b815260040161021890611ba4565b5f80546040516001600160a01b03909116907f8be0079c531659141344cd1fd0a4f28419497f9722a3daafe3b4186f6b6457e0908390a35f80546001600160a01b0319169055565b6002600154036104865760405162461bcd60e51b815260206004820152601f60248201527f5265656e7472616e637947756172643a207265656e7472616e742063616c6c006044820152606401610218565b600260015560405163cff027d960e01b81526001600160a01b038a811660048301525f917f00000000000000000000000000000000000000000000000000000000000000009091169063cff027d990602401602060405180830381865afa1580156104f3573d5f5f3e3d5ffd5b505050506040513d601f19601f820116820180604052508101906105179190611da4565b905085156105dc576040516370a0823160e01b81523360048201525f906001600160a01b038316906370a0823190602401602060405180830381865afa158015610563573d5f5f3e3d5ffd5b505050506040513d601f19601f820116820180604052508101906105879190611bd9565b9050888111156105d95760405162461bcd60e51b815260206004820152601b60248201527f494e53554646494349454e545f414d4f554e545f544f5f5357415000000000006044820152606401610218565b97505b6105f78a82338b6105f236889003880188611dbf565b610c2b565b5f61064a8787878080601f0160208091040260200160405190810160405280939291908181526020018383808284375f81840152601f19601f82011690508083019250505050505050868e8e8e8e610dd0565b90506106806001600160a01b038b167f00000000000000000000000000000000000000000000000000000000000000005f61138e565b6106b46001600160a01b038b167f00000000000000000000000000000000000000000000000000000000000000008361138e565b60405163e8eda9df60e01b81526001600160a01b038b81166004830152602482018390523360448301525f60648301527f0000000000000000000000000000000000000000000000000000000000000000169063e8eda9df906084015f604051808303815f87803b158015610727575f5ffd5b505af1158015610739573d5f5f3e3d5ffd5b50506001805550505050505050505050505050565b5f546001600160a01b031633146107775760405162461bcd60e51b815260040161021890611ba4565b6001600160a01b0381166107dc5760405162461bcd60e51b815260206004820152602660248201527f4f776e61626c653a206e6577206f776e657220697320746865207a65726f206160448201526564647265737360d01b6064820152608401610218565b5f80546040516001600160a01b03808516939216917f8be0079c531659141344cd1fd0a4f28419497f9722a3daafe3b4186f6b6457e091a35f80546001600160a01b0319166001600160a01b0392909216919091179055565b60405163a9059cbb60e01b8082526001600160a01b038416600483015260248201839052905f8060448382895af161086f573d5f5f3e3d5ffd5b50610879846114c8565b6108bd5760405162461bcd60e51b815260206004820152601560248201527423a83b191d103330b4b632b2103a3930b739b332b960591b6044820152606401610218565b50505050565b60405163cff027d960e01b81526001600160a01b0384811660048301525f917f00000000000000000000000000000000000000000000000000000000000000009091169063cff027d990602401602060405180830381865afa15801561092b573d5f5f3e3d5ffd5b505050506040513d601f19601f8201168201806040525081019061094f9190611da4565b6040516370a0823160e01b81526001600160a01b03878116600483015291925088915f91908416906370a0823190602401602060405180830381865afa15801561099b573d5f5f3e3d5ffd5b505050506040513d601f19601f820116820180604052508101906109bf9190611bd9565b90508c15610a2b575f6109d2828a61156b565b905082811115610a245760405162461bcd60e51b815260206004820152601b60248201527f494e53554646494349454e545f414d4f554e545f544f5f5357415000000000006044820152606401610218565b9150610a84565b610a358289611580565b811015610a845760405162461bcd60e51b815260206004820152601b60248201527f494e53554646494349454e545f41544f4b454e5f42414c414e434500000000006044820152606401610218565b5f610a948e8e8e8a8a888b610dd0565b9050610aca6001600160a01b0387167f00000000000000000000000000000000000000000000000000000000000000005f61138e565b610afe6001600160a01b0387167f00000000000000000000000000000000000000000000000000000000000000008361138e565b60405163e8eda9df60e01b81526001600160a01b0387811660048301526024820183905289811660448301525f60648301527f0000000000000000000000000000000000000000000000000000000000000000169063e8eda9df906084015f604051808303815f87803b158015610b73575f5ffd5b505af1158015610b85573d5f5f3e3d5ffd5b50505050610ba887858a610ba28d8861158090919063ffffffff16565b8f610c2b565b610bdc6001600160a01b0388167f00000000000000000000000000000000000000000000000000000000000000005f61138e565b610c1b7f0000000000000000000000000000000000000000000000000000000000000000610c0a8c8c611580565b6001600160a01b038a16919061138e565b5050505050505050505050505050565b602081015115610ccd578051602082015160408084015160608501516080860151925163d505accf60e01b81526001600160a01b0389811660048301523060248301526044820196909652606481019490945260ff909116608484015260a483015260c48201529085169063d505accf9060e4015f604051808303815f87803b158015610cb6575f5ffd5b505af1158015610cc8573d5f5f3e3d5ffd5b505050505b610ce26001600160a01b03851684308561158f565b604051631a4ca37b60e21b81526001600160a01b0386811660048301526024820184905230604483015283917f0000000000000000000000000000000000000000000000000000000000000000909116906369328dec906064016020604051808303815f875af1158015610d58573d5f5f3e3d5ffd5b505050506040513d601f19601f82011682018060405250810190610d7c9190611bd9565b14610dc95760405162461bcd60e51b815260206004820152601b60248201527f554e45585045435445445f414d4f554e545f57495448445241574e00000000006044820152606401610218565b5050505050565b60405163fb04e17b60e01b81526001600160a01b0386811660048301525f917f00000000000000000000000000000000000000000000000000000000000000009091169063fb04e17b90602401602060405180830381865afa158015610e38573d5f5f3e3d5ffd5b505050506040513d601f19601f82011682018060405250810190610e5c9190611dd9565b610e9b5760405162461bcd60e51b815260206004820152601060248201526f494e56414c49445f415547555354555360801b6044820152606401610218565b5f610ea586611627565b60ff1690505f610eb486611627565b60ff1690505f610ec3886116df565b90505f610ecf886116df565b90505f610f26610ee3610bb8612710611e0c565b610f20610efb610ef489600a611f02565b869061176b565b610f1a610f13610f0c8a600a611f02565b899061176b565b8d9061176b565b90611793565b906117a5565b905086811115610f785760405162461bcd60e51b815260206004820152601f60248201527f4d494e5f414d4f554e545f455843454544535f4d41585f534c495050414745006044820152606401610218565b50506040516370a0823160e01b81523060048201525f93506001600160a01b03891692506370a082319150602401602060405180830381865afa158015610fc1573d5f5f3e3d5ffd5b505050506040513d601f19601f82011682018060405250810190610fe59190611bd9565b9050838110156110375760405162461bcd60e51b815260206004820181905260248201527f494e53554646494349454e545f42414c414e43455f4245464f52455f535741506044820152606401610218565b6040516370a0823160e01b81523060048201525f906001600160a01b038716906370a0823190602401602060405180830381865afa15801561107b573d5f5f3e3d5ffd5b505050506040513d601f19601f8201168201806040525081019061109f9190611bd9565b90506110b56001600160a01b038816898761138e565b891561112d5760048a101580156110d8575088516110d490602061156b565b8a11155b6111245760405162461bcd60e51b815260206004820152601f60248201527f46524f4d5f414d4f554e545f4f46465345545f4f55545f4f465f52414e4745006044820152606401610218565b8460208b018a01525b5f886001600160a01b03168a6040516111469190611f2f565b5f604051808303815f865af19150503d805f811461117f576040519150601f19603f3d011682016040523d82523d5f602084013e611184565b606091505b5050905080611195573d5f5f3e3d5ffd5b6111a96001600160a01b0389168a5f61138e565b6111b38684611e0c565b6040516370a0823160e01b81523060048201526001600160a01b038a16906370a0823190602401602060405180830381865afa1580156111f5573d5f5f3e3d5ffd5b505050506040513d601f19601f820116820180604052508101906112199190611bd9565b146112665760405162461bcd60e51b815260206004820152601860248201527f57524f4e475f42414c414e43455f41465445525f5357415000000000000000006044820152606401610218565b6040516370a0823160e01b81523060048201526112d89083906001600160a01b038a16906370a0823190602401602060405180830381865afa1580156112ae573d5f5f3e3d5ffd5b505050506040513d601f19601f820116820180604052508101906112d29190611bd9565b9061156b565b93508484101561132a5760405162461bcd60e51b815260206004820152601c60248201527f494e53554646494349454e545f414d4f554e545f5245434549564544000000006044820152606401610218565b866001600160a01b0316886001600160a01b03167fa078c4190abe07940190effc1846be0ccf03ad6007bc9e93f9697d0b460befbb8887604051611378929190918252602082015260400190565b60405180910390a3505050979650505050505050565b8015806114065750604051636eb1769f60e11b81523060048201526001600160a01b03838116602483015284169063dd62ed3e90604401602060405180830381865afa1580156113e0573d5f5f3e3d5ffd5b505050506040513d601f19601f820116820180604052508101906114049190611bd9565b155b6114715760405162461bcd60e51b815260206004820152603660248201527f5361666545524332303a20617070726f76652066726f6d206e6f6e2d7a65726f60448201527520746f206e6f6e2d7a65726f20616c6c6f77616e636560501b6064820152608401610218565b604080516001600160a01b038416602482015260448082018490528251808303909101815260649091019091526020810180516001600160e01b031663095ea7b360e01b1790526114c39084906117c9565b505050565b5f6114ea565b62461bcd60e51b5f52602060045280602452508060445260645ffd5b3d8015611529576020811461155a576115247f475076323a206d616c666f726d6564207472616e7366657220726573756c7400601f6114ce565b611565565b823b611551576115517311d41d8c8e881b9bdd08184818dbdb9d1c9858dd60621b60146114ce565b60019150611565565b3d5f5f3e5f51151591505b50919050565b8082038281111561157a575f5ffd5b92915050565b8082018281101561157a575f5ffd5b6040516323b872dd60e01b8082526001600160a01b0385811660048401528416602483015260448201839052905f80606483828a5af16115d1573d5f5f3e3d5ffd5b506115db856114c8565b610dc95760405162461bcd60e51b815260206004820152601960248201527f475076323a206661696c6564207472616e7366657246726f6d000000000000006044820152606401610218565b5f5f826001600160a01b031663313ce5676040518163ffffffff1660e01b8152600401602060405180830381865afa158015611665573d5f5f3e3d5ffd5b505050506040513d601f19601f820116820180604052508101906116899190611f4a565b9050604d8160ff16111561157a5760405162461bcd60e51b815260206004820152601a60248201527f544f4f5f4d414e595f444543494d414c535f4f4e5f544f4b454e0000000000006044820152606401610218565b60405163b3596f0760e01b81526001600160a01b0382811660048301525f917f00000000000000000000000000000000000000000000000000000000000000009091169063b3596f0790602401602060405180830381865afa158015611747573d5f5f3e3d5ffd5b505050506040513d601f19601f8201168201806040525081019061157a9190611bd9565b5f82158061178b5750508181028183828161178857611788611f65565b04145b61157a575f5ffd5b5f61179e8284611f79565b9392505050565b5f811561138819839004841115176117bb575f5ffd5b506127109102611388010490565b5f61181d826040518060400160405280602081526020017f5361666545524332303a206c6f772d6c6576656c2063616c6c206661696c6564815250856001600160a01b031661189a9092919063ffffffff16565b8051909150156114c3578080602001905181019061183b9190611dd9565b6114c35760405162461bcd60e51b815260206004820152602a60248201527f5361666545524332303a204552433230206f7065726174696f6e20646964206e6044820152691bdd081cdd58d8d9595960b21b6064820152608401610218565b60606118a884845f856118b0565b949350505050565b6060824710156119115760405162461bcd60e51b815260206004820152602660248201527f416464726573733a20696e73756666696369656e742062616c616e636520666f6044820152651c8818d85b1b60d21b6064820152608401610218565b843b61195f5760405162461bcd60e51b815260206004820152601d60248201527f416464726573733a2063616c6c20746f206e6f6e2d636f6e74726163740000006044820152606401610218565b5f5f866001600160a01b0316858760405161197a9190611f2f565b5f6040518083038185875af1925050503d805f81146119b4576040519150601f19603f3d011682016040523d82523d5f602084013e6119b9565b606091505b50915091506119c98282866119d4565b979650505050505050565b606083156119e357508161179e565b8251156119f35782518084602001fd5b8160405162461bcd60e51b81526004016102189190611f98565b6001600160a01b03811681146102ac575f5ffd5b5f60208284031215611a31575f5ffd5b813561179e81611a0d565b5f5f83601f840112611a4c575f5ffd5b50813567ffffffffffffffff811115611a63575f5ffd5b602083019150836020828501011115611a7a575f5ffd5b9250929050565b5f5f5f5f5f5f60a08789031215611a96575f5ffd5b8635611aa181611a0d565b955060208701359450604087013593506060870135611abf81611a0d565b9250608087013567ffffffffffffffff811115611ada575f5ffd5b611ae689828a01611a3c565b979a9699509497509295939492505050565b5f5f5f5f5f5f5f5f5f898b03610180811215611b12575f5ffd5b8a35611b1d81611a0d565b995060208b0135611b2d81611a0d565b985060408b0135975060608b0135965060808b0135955060a08b013567ffffffffffffffff811115611b5d575f5ffd5b611b698d828e01611a3c565b90965094505060c08b0135611b7d81611a0d565b925060a060df1982011215611b90575f5ffd5b5060e08a0190509295985092959850929598565b6020808252818101527f4f776e61626c653a2063616c6c6572206973206e6f7420746865206f776e6572604082015260600190565b5f60208284031215611be9575f5ffd5b5051919050565b634e487b7160e01b5f52604160045260245ffd5b604051601f8201601f1916810167ffffffffffffffff81118282101715611c2d57611c2d611bf0565b604052919050565b8035611c4081611a0d565b919050565b60ff811681146102ac575f5ffd5b5f60a08284031215611c63575f5ffd5b60405160a0810167ffffffffffffffff81118282101715611c8657611c86611bf0565b604090815283358252602080850135908301529091508190830135611caa81611c45565b604082015260608381013590820152608092830135920191909152919050565b5f5f5f5f5f5f6101408789031215611ce0575f5ffd5b8635611ceb81611a0d565b95506020870135945060408701359350606087013567ffffffffffffffff811115611d14575f5ffd5b8701601f81018913611d24575f5ffd5b803567ffffffffffffffff811115611d3e57611d3e611bf0565b611d51601f8201601f1916602001611c04565b8181528a6020838501011115611d65575f5ffd5b816020840160208301375f60208383010152809550505050611d8960808801611c35565b9150611d988860a08901611c53565b90509295509295509295565b5f60208284031215611db4575f5ffd5b815161179e81611a0d565b5f60a08284031215611dcf575f5ffd5b61179e8383611c53565b5f60208284031215611de9575f5ffd5b8151801515811461179e575f5ffd5b634e487b7160e01b5f52601160045260245ffd5b8181038181111561157a5761157a611df8565b6001815b6001841115611e5a57808504811115611e3e57611e3e611df8565b6001841615611e4c57908102905b60019390931c928002611e23565b935093915050565b5f82611e705750600161157a565b81611e7c57505f61157a565b8160018114611e925760028114611e9c57611eb8565b600191505061157a565b60ff841115611ead57611ead611df8565b50506001821b61157a565b5060208310610133831016604e8410600b8410161715611edb575081810a61157a565b611ee75f198484611e1f565b805f1904821115611efa57611efa611df8565b029392505050565b5f61179e8383611e62565b5f5b83811015611f27578181015183820152602001611f0f565b50505f910152565b5f8251611f40818460208701611f0d565b9190910192915050565b5f60208284031215611f5a575f5ffd5b815161179e81611c45565b634e487b7160e01b5f52601260045260245ffd5b5f82611f9357634e487b7160e01b5f52601260045260245ffd5b500490565b602081525f8251806020840152611fb6816040850160208701611f0d565b601f01601f1916919091016040019291505056fea164736f6c634300081b000a8be0079c531659141344cd1fd0a4f28419497f9722a3daafe3b4186f6b6457e0","linkReferences":{}},"methodIdentifiers":{"ADDRESSES_PROVIDER()":"0542975c","AUGUSTUS_REGISTRY()":"3a829867","MAX_SLIPPAGE_PERCENT()":"32e4b286","ORACLE()":"38013f02","POOL()":"7535d246","executeOperation(address,uint256,uint256,address,bytes)":"1b11d0ff","owner()":"8da5cb5b","renounceOwnership()":"715018a6","rescueTokens(address)":"00ae3bf8","swapAndDeposit(address,address,uint256,uint256,uint256,bytes,address,(uint256,uint256,uint8,bytes32,bytes32))":"d3454a35","transferOwnership(address)":"f2fde38b"},"id":112}