{"abi":[{"type":"function","name":"CLOSE_FACTOR_HF_THRESHOLD","inputs":[],"outputs":[{"name":"","type":"uint256","internalType":"uint256"}],"stateMutability":"view"},{"type":"function","name":"MIN_BASE_MAX_CLOSE_FACTOR_THRESHOLD","inputs":[],"outputs":[{"name":"","type":"uint256","internalType":"uint256"}],"stateMutability":"view"},{"type":"function","name":"MIN_LEFTOVER_BASE","inputs":[],"outputs":[{"name":"","type":"uint256","internalType":"uint256"}],"stateMutability":"view"},{"type":"event","name":"DeficitCovered","inputs":[{"name":"reserve","type":"address","indexed":true,"internalType":"address"},{"name":"caller","type":"address","indexed":false,"internalType":"address"},{"name":"amountCovered","type":"uint256","indexed":false,"internalType":"uint256"}],"anonymous":false},{"type":"event","name":"DeficitCreated","inputs":[{"name":"user","type":"address","indexed":true,"internalType":"address"},{"name":"debtAsset","type":"address","indexed":true,"internalType":"address"},{"name":"amountCreated","type":"uint256","indexed":false,"internalType":"uint256"}],"anonymous":false},{"type":"event","name":"IsolationModeTotalDebtUpdated","inputs":[{"name":"asset","type":"address","indexed":true,"internalType":"address"},{"name":"totalDebt","type":"uint256","indexed":false,"internalType":"uint256"}],"anonymous":false},{"type":"event","name":"LiquidationCall","inputs":[{"name":"collateralAsset","type":"address","indexed":true,"internalType":"address"},{"name":"debtAsset","type":"address","indexed":true,"internalType":"address"},{"name":"user","type":"address","indexed":true,"internalType":"address"},{"name":"debtToCover","type":"uint256","indexed":false,"internalType":"uint256"},{"name":"liquidatedCollateralAmount","type":"uint256","indexed":false,"internalType":"uint256"},{"name":"liquidator","type":"address","indexed":false,"internalType":"address"},{"name":"receiveAToken","type":"bool","indexed":false,"internalType":"bool"}],"anonymous":false},{"type":"event","name":"ReserveDataUpdated","inputs":[{"name":"reserve","type":"address","indexed":true,"internalType":"address"},{"name":"liquidityRate","type":"uint256","indexed":false,"internalType":"uint256"},{"name":"stableBorrowRate","type":"uint256","indexed":false,"internalType":"uint256"},{"name":"variableBorrowRate","type":"uint256","indexed":false,"internalType":"uint256"},{"name":"liquidityIndex","type":"uint256","indexed":false,"internalType":"uint256"},{"name":"variableBorrowIndex","type":"uint256","indexed":false,"internalType":"uint256"}],"anonymous":false},{"type":"event","name":"ReserveUsedAsCollateralDisabled","inputs":[{"name":"reserve","type":"address","indexed":true,"internalType":"address"},{"name":"user","type":"address","indexed":true,"internalType":"address"}],"anonymous":false},{"type":"event","name":"ReserveUsedAsCollateralEnabled","inputs":[{"name":"reserve","type":"address","indexed":true,"internalType":"address"},{"name":"user","type":"address","indexed":true,"internalType":"address"}],"anonymous":false},{"type":"error","name":"CollateralCannotBeLiquidated","inputs":[]},{"type":"error","name":"HealthFactorNotBelowThreshold","inputs":[]},{"type":"error","name":"InvalidAmount","inputs":[]},{"type":"error","name":"InvalidReserveIndex","inputs":[]},{"type":"error","name":"LiquidationGraceSentinelCheckFailed","inputs":[]},{"type":"error","name":"MustNotLeaveDust","inputs":[]},{"type":"error","name":"NotEnoughAvailableUserBalance","inputs":[]},{"type":"error","name":"PriceOracleSentinelCheckFailed","inputs":[]},{"type":"error","name":"ReserveInactive","inputs":[]},{"type":"error","name":"ReserveNotInDeficit","inputs":[]},{"type":"error","name":"ReservePaused","inputs":[]},{"type":"error","name":"SafeCastOverflowedUintDowncast","inputs":[{"name":"bits","type":"uint8","internalType":"uint8"},{"name":"value","type":"uint256","internalType":"uint256"}]},{"type":"error","name":"SelfLiquidation","inputs":[]},{"type":"error","name":"SpecifiedCurrencyNotBorrowedByUser","inputs":[]},{"type":"error","name":"UserCannotHaveDebt","inputs":[]}],"bytecode":{"object":"0x6134a2610034600b8282823980515f1a607314602857634e487b7160e01b5f525f60045260245ffd5b305f52607381538281f3fe7300000000000000000000000000000000000000003014608060405260043610610060575f3560e01c80631a00fd001461006457806364e377d01461007e5780637e9e608c1461008a57806383c1087d146100a9578063a18964a5146100ca575b5f5ffd5b61006c6100d9565b60405190815260200160405180910390f35b61006c642e90edd00081565b818015610095575f5ffd5b5061006c6100a4366004613045565b6100ec565b8180156100b4575f5ffd5b506100c86100c3366004613119565b610469565b005b61006c670d2f13f7789f000081565b6100e96002642e90edd000613241565b81565b5f81606001515f036101115760405163162908e360e11b815260040160405180910390fd5b6020808301516001600160a01b03165f9081529085905260408120600381015490916001600160801b039091169081900361015f576040516394468f0360e01b815260040160405180910390fd5b60408051602081019091528554908190527f555555555555555555555555555555555555555555555555555555555555555516156101b0576040516316f1ef8160e01b815260040160405180910390fd5b5f6101ba83610ec8565b90506101c68382610feb565b5f6101dc82610120015151600160381b16151590565b9050806101fc576040516324335bc960e21b815260040160405180910390fd5b60608601518381111561020c5750825b6101408301518751604051630ed1279f60e11b81526001600160a01b0391821660048201525f929190911690631da24f3e90602401602060405180830381865afa15801561025c573d5f5f3e3d5ffd5b505050506040513d601f19601f820116820180604052508101906102809190613260565b90505f61029a85606001518461105090919063ffffffff16565b9050818111156102bd576040516311ef12cb60e21b815260040160405180910390fd5b600387015460408051602081019091528b5481525f916102e89190600160a81b900461ffff16611064565b90508080156102f657508282145b1561032057600388015460208b01518b51610320928e92600160a81b90910461ffff16915f611097565b6101408601518a51606088015160405163b18d6afd60e01b81526001600160a01b0384169363b18d6afd9361035d9390928a918991600401613277565b6020604051808303815f875af1158015610379573d5f5f3e3d5ffd5b505050506040513d601f19601f8201168201806040525081019061039d91906132a8565b506103a784611150565b6003890180545f906103c39084906001600160801b03166132c3565b92506101000a8154816001600160801b0302191690836001600160801b0316021790555061040a868b602001515f5f8e604001518d61118c9095949392919063ffffffff16565b6020808b01518b51604080516001600160a01b0392831681529384018890529116917f84b203e49f1a4b553088061534231969a68ad1c81be192205e96d23a206cb26a910160405180910390a2509196505050505050505b9392505050565b610471612ef1565b6040808301516001600160a01b039081165f908152602089815283822060608701518416835284832060808801519094168352908890529290206104b482610ec8565b6102008501526104c383610ec8565b6102208501526102008401516104da908390610feb565b6102208401516104eb908490610feb565b6040805160a081018252825460808083019182529082528701516001600160a01b03908116602083015260c0880151169181019190915260e086015160ff16606082015261053e908a908a90899061143f565b5060a0890152505061010086015260e08501526102208401516060810151610140909101516080870151604051630ed1279f60e11b81526001600160a01b0391821660048201526105de93929190911690631da24f3e906024015b602060405180830381865afa1580156105b4573d5f5f3e3d5ffd5b505050506040513d601f19601f820116820180604052508101906105d89190613260565b906118e9565b845261020084015160a0810151610160909101516080870151604051630ed1279f60e11b81526001600160a01b03918216600482015261066d93929190911690631da24f3e906024015b602060405180830381865afa158015610643573d5f5f3e3d5ffd5b505050506040513d601f19601f820116820180604052508101906106679190613260565b906118f4565b8460200181815250506106e28184846040518060c001604052808961020001518152602001896020015181526020018960a0015181526020018a61010001516001600160a01b031681526020018a608001516001600160a01b031681526020018a5f01516001600160a01b03168152506118ff565b60e085015160ff1615801590610736575060e085015160ff165f90815260208790526040902054600384015461073691660100000000000090046001600160801b031690600160a81b900461ffff16611bd6565b156107675760e085015160ff165f90815260208790526040902054640100000000900461ffff166080850152610780565b61022084015161012001515160201c61ffff1660808501525b60c0850151604080870151905163b3596f0760e01b81526001600160a01b03918216600482015291169063b3596f0790602401602060405180830381865afa1580156107ce573d5f5f3e3d5ffd5b505050506040513d601f19601f820116820180604052508101906107f29190613260565b61018085015260c0850151606086015160405163b3596f0760e01b81526001600160a01b03918216600482015291169063b3596f0790602401602060405180830381865afa158015610846573d5f5f3e3d5ffd5b505050506040513d601f19601f8201168201806040525081019061086a9190613260565b6101a085015261022084015161012001515160301c60ff1661088d90600a6133c5565b6101c085015261020084015161012001515160301c60ff166108b090600a6133c5565b6101e0850181905260208501516101a08601516108cc92611c0f565b6101408501526101c084015161018085015185516108ea91906133d0565b6108f49190613241565b6101608501819052602085015190642e90edd000118015906109205750642e90edd00085610140015110155b80156109375750670d2f13f7789f00008560a00151115b15610984576101008501515f9061095090611388611c3a565b9050808661014001511115610982576101a08601516101e087015161097590836133d0565b61097f9190613241565b91505b505b8086602001511161099957856020015161099b565b805b6040860181905261022086015161012001516101808701516101c08801516101a08901516101e08a01518a5160808c01516109d7979190611c5e565b61012089015260c08801526040870181905260608701919091526020860151118015610a165750845160c08601516060870151610a1491906133e7565b105b15610ad7575f610a2c6002642e90edd000613241565b610a5487604001518860200151610a4391906133fa565b886101a00151896101e00151611c0f565b101590505f610a696002642e90edd000613241565b6101c088015161018089015160c08a015160608b01518b51610a8b91906133fa565b610a9591906133fa565b610a9f91906133d0565b610aa99190613241565b10159050818015610ab75750805b610ad457604051632d8a6c3960e21b815260040160405180910390fd5b50505b845160c08601516060870151610aed91906133e7565b03610b1a57600384015460408701516080880151610b1a928592600160a81b90910461ffff16915f611097565b5f8561012001518660e00151149050610b5486610200015185858a608001518b606001518b602001518c60400151888f6101200151611e0a565b61022086015161012001515160d41c64ffffffffff1615610b8857610b888b87610200015188604001518a60400151611fc1565b8660a0015115610ba557610ba08b8b8b888b8b61204a565b610be8565b86606001516001600160a01b031687604001516001600160a01b031603610bdd57610200860151602090810151610220880151909101525b610be88588886121dc565b60c086015115610da7575f610c13876102200151606001518860c0015161105090919063ffffffff16565b610220880151610140015160808a0151604051630ed1279f60e11b81526001600160a01b0391821660048201529293505f92911690631da24f3e90602401602060405180830381865afa158015610c6c573d5f5f3e3d5ffd5b505050506040513d601f19601f82011682018060405250810190610c909190613260565b905080821115610cbf57809150610cb988610220015160600151826118e990919063ffffffff16565b60c08901525b87610220015161014001516001600160a01b031663353b7b9a8a608001518a610220015161014001516001600160a01b031663ae1673356040518163ffffffff1660e01b8152600401602060405180830381865afa158015610d23573d5f5f3e3d5ffd5b505050506040513d601f19601f82011682018060405250810190610d47919061340d565b8b60c00151868d6102200151606001516040518663ffffffff1660e01b8152600401610d77959493929190613277565b5f604051808303815f87803b158015610d8e575f5ffd5b505af1158015610da0573d5f5f3e3d5ffd5b5050505050505b808015610de5575060408051602081019091528354908190527f55555555555555555555555555555555555555555555555555555555555555551615155b15610df657610df68b8b858a6122b2565b86516102008701516101400151604088015160608a0151610e24936001600160a01b039091169290916123c8565b86608001516001600160a01b031687606001516001600160a01b031688604001516001600160a01b03167fe413a321e8681d831f4dbccbca790d2952b56f977908e45be37335533e00528689604001518a606001518c5f01518d60a00151604051610eb3949392919093845260208401929092526001600160a01b031660408301521515606082015260800190565b60405180910390a45050505050505050505050565b610ed0612f77565b610ed8612f77565b6040805160208101825284548152610120830181905251901c61ffff1661010082015260018301546001600160801b0380821660608401819052604080850191909152600286015480831660a086018190526080860152600160801b93849004831660c086015283900490911660e08401526004808601546001600160a01b03908116610140860152600687015416610160850181905260038701549390930464ffffffffff16610180850152815163b1bf962d60e01b8152915163b1bf962d9280830192602092918290030181865afa158015610fb8573d5f5f3e3d5ffd5b505050506040513d601f19601f82011682018060405250810190610fdc9190613260565b60208201819052815292915050565b4264ffffffffff1681610180015164ffffffffff1603611009575050565b6110138282612460565b61101d8282612537565b6003909101805464ffffffffff4216600160801b810264ffffffffff60801b199092169190911790915561018090910152565b5f61105b83836125ef565b90505b92915050565b5f60808210611086576040516385e98beb60e01b815260040160405180910390fd5b509051600191821b82011c16151590565b608084106110b8576040516385e98beb60e01b815260040160405180910390fd5b600184811b81011b8115611108578554811786556040516001600160a01b0380851691908616907e058a56ea94653cdf4f152d227ace22d4c00ad99e2a43f58cb7d9e3feb295f2905f90a3611148565b855481191686556040516001600160a01b0380851691908616907f44c58d81365b66dd4b1a7f36c25aa97b8c71c361ee4937adc1a00000227db5dd905f90a35b505050505050565b5f6001600160801b03821115611188576040516306dfcc6560e41b815260806004820152602481018390526044015b60405180910390fd5b5090565b5f6111a88660a0015187602001516118f490919063ffffffff16565b60408051610100808201835260038b01546001600160801b0390811683526020830189905282840188905260608301859052908a015160808301526001600160a01b0389811660a0840152600160c084015260088c0154600160801b900490911660e0830152915163b90db31b60e01b81529293505f92839286169163b90db31b916112919190600401815181526020808301519082015260408083015190820152606080830151908201526080808301519082015260a0808301516001600160a01b03169082015260c08083015115159082015260e091820151918101919091526101000190565b6040805180830381865afa1580156112ab573d5f5f3e3d5ffd5b505050506040513d601f19601f820116820180604052508101906112cf9190613428565b915091506112dc82611150565b60018a0180546001600160801b03928316600160801b02921691909117905561130481611150565b60028a0180546001600160801b03928316600160801b029216919091179055851561137b5761133286611150565b60088a018054601090611356908490600160801b90046001600160801b031661344a565b92506101000a8154816001600160801b0302191690836001600160801b031602179055505b84156113d35761138a85611150565b60088a0180546010906113ae908490600160801b90046001600160801b03166132c3565b92506101000a8154816001600160801b0302191690836001600160801b031602179055505b60608881015160a0808b0151604080518781525f602082015280820187905294850193909352608084015290516001600160a01b038a16927f804c9b842b2748a22bb64b345453a3de7ca54a6ca45ce00d415894979e22897a92908290030190a2505050505050505050565b5f5f5f5f5f5f611451875f0151511590565b1561146d57505f94508493508392508291505f199050816118dc565b6114ff6040518061024001604052805f81526020015f81526020015f81526020015f81526020015f81526020015f81526020015f81526020015f81526020015f81526020015f81526020015f81526020015f81526020015f81526020015f81526020015f6001600160801b031681526020015f6001600160a01b031681526020015f151581526020015f151581525090565b606088015160ff16156115735760608801805160ff9081165f90815260208c815260408083205461ffff9081166101808801528551851684528e835281842054620100009004166101a087015293519092168152908b90522054660100000000000090046001600160801b03166101c08201525b8751515f805b82156117ff575050600281811c916001808216149190811614808061159b5750815b156117ef5760c08401515f90815260208e905260409020546001600160a01b03166101e08501819052156117ef576101e08401516001600160a01b03165f90815260208f815260409182902082518083018452815490819052909261ffff80831693601084901c8216939081901c82169260ff603083901c169291905050506060890181905260a0890192909252506080870191909152600a0a602086015260408c8101516101e0870151915163b3596f0760e01b81526001600160a01b03928316600482015291169063b3596f0790602401602060405180830381865afa158015611689573d5f5f3e3d5ffd5b505050506040513d601f19601f820116820180604052508101906116ad9190613260565b855260a0850151158015906116bf5750815b156117ba576116db8c6020015182875f01518860200151612631565b60408601819052610100860180516116f49083906133e7565b90525060608c015160ff161580159061171b575061171b856101c001518660c00151611bd6565b151561022086015260808501511561177157846102200151611741578460800151611748565b8461018001515b856040015161175791906133d0565b856101400181815161176991906133e7565b90525061177a565b60016102008601525b84610220015161178e578460a00151611795565b846101a001515b85604001516117a491906133d0565b85610160018181516117b691906133e7565b9052505b82156117ed576117d78c6020015182875f0151886020015161269e565b85610120018181516117e991906133e7565b9052505b505b60c0840180516001019052611579565b610120840151156118395761271061182a8561012001518661016001516126f790919063ffffffff16565b6118349190613241565b61183c565b5f195b60e08501526101008401515f03611853575f61186e565b8361010001518461014001518161186c5761186c613219565b045b6101408501526101008401515f03611886575f6118a1565b8361010001518461016001518161189f5761189f613219565b045b610160850181905261010085015161012086015161014087015160e088015161020090980151929d50909b5099509097509395509293505050505b9499939850945094509450565b5f61105b838361272c565b5f61105b8383612752565b6040805160a0810182525f808252602082018190529181018290526060810182905260808101919091528160a001516001600160a01b031682608001516001600160a01b031603611963576040516344511af160e01b815260040160405180910390fd5b6040805160208082018352865491829052671000000000000000808316151591850191909152600160381b918216158015808652865161012001515192831615156060870152919092161515928401929092526119c1575080604001515b6119de576040516324335bc960e21b815260040160405180910390fd5b80602001511580156119f257508060600151155b611a0f576040516334dfd7c760e21b815260040160405180910390fd5b60608201516001600160a01b03161580611a345750670d2f13f7789f00008260400151105b80611a9e575081606001516001600160a01b0316637a5d20ea6040518163ffffffff1660e01b8152600401602060405180830381865afa158015611a7a573d5f5f3e3d5ffd5b505050506040513d601f19601f82011682018060405250810190611a9e91906132a8565b611abb57604051639103700960e01b815260040160405180910390fd5b600384015464ffffffffff428116600160b81b90920416108015611af35750600383015464ffffffffff428116600160b81b90920416105b611b10576040516304f1f30360e51b815260040160405180910390fd5b670de0b6b3a7640000826040015110611b3c5760405163930bb77160e01b815260040160405180910390fd5b604080516020810190915284549081905260101c61ffff1615801590611b8557506003840154604080516020810190915286548152611b8591600160a81b900461ffff16611064565b151560808201819052611bab576040516312f36b9d60e31b815260040160405180910390fd5b81602001515f03611bcf57604051633653732b60e01b815260040160405180910390fd5b5050505050565b5f60808210611bf8576040516385e98beb60e01b815260040160405180910390fd5b506001600160801b0391909116901c600116151590565b5f81611c19575f5ffd5b825f1904841115831517611c2b575f5ffd5b50910281810491900615150190565b5f81156113881983900484111517611c50575f5ffd5b506127109102611388010490565b5f5f5f5f611ca86040518061012001604052805f81526020015f81526020015f81526020015f81526020015f81526020015f81526020015f81526020015f81526020015f81525090565b61010081018c90528c5160981c61ffff1660a0820152611cc8898d6133d0565b8b611cd38a8d6133d0565b611cdd91906133d0565b611ce79190613241565b60208201819052611cf89087611c3a565b808252871015611d515760608101879052611d4786611d178d8d6133d0565b8b8460600151856101000151611d2d91906133d0565b611d3791906133d0565b611d419190613241565b90612780565b6080820152611d60565b80516060820152608081018890525b8a8161010001518260600151611d7691906133d0565b611d809190613241565b60e082015260a081015115611ddf576060810151611d9e90876127c3565b8160600151611dad91906133fa565b6040820181905260a0820151611dc39190611c3a565b60c08201819052606082018051611ddb9083906133fa565b9052505b6060810151608082015160c083015160e090930151919f909e50919c509a5098505050505050505050565b60018415611ecf575f83611e1e5784611e20565b855b90508a61016001516001600160a01b031663f5298aca89611e4e8e60a00151856127ec90919063ffffffff16565b60a08f01516040516001600160e01b031960e086901b1681526001600160a01b0390931660048401526024830191909152604482015260640160408051808303815f875af1158015611ea2573d5f5f3e3d5ffd5b505050506040513d601f19601f82011682018060405250810190611ec69190613469565b60208d01529150505b5f611eda85876133fa565b9050838015611ee857508015155b15611f8457611ef681611150565b60038b0180545f90611f129084906001600160801b031661344a565b92506101000a8154816001600160801b0302191690836001600160801b03160217905550866001600160a01b0316886001600160a01b03167f2bccfb3fad376d59d7accf970515eb77b2f27b082c90ed0fb15583dd5a94269983604051611f7b91815260200190565b60405180910390a35b8115611fa65760038a0154611fa6908a90600160a81b900461ffff165f6127f7565b611fb48a8c89885f8861118c565b5050505050505050505050565b6001600160a01b0381165f908152602085905260408120600901546001600160801b031690611ff0858561283b565b90505f816001600160801b0316836001600160801b031611612012575f61201c565b61201c82846132c3565b6001600160a01b0385165f908152602089905260409020909150612041908583612870565b50505050505050565b61022081015161014001518251604051630ed1279f60e11b81526001600160a01b0391821660048201525f929190911690631da24f3e90602401602060405180830381865afa15801561209f573d5f5f3e3d5ffd5b505050506040513d601f19601f820116820180604052508101906120c39190613260565b905081610220015161014001516001600160a01b031663353b7b9a8460800151855f0151856060015161210c87610220015160600151886060015161105090919063ffffffff16565b876102200151606001516040518663ffffffff1660e01b8152600401612136959493929190613277565b5f604051808303815f87803b15801561214d575f5ffd5b505af115801561215f573d5f5f3e3d5ffd5b50505050805f036120415782516001600160a01b03165f9081526020869052604090208351610220840151610120810151610140909101516121a792918b918b9186916128d3565b156121d2576003850154604085015185516121d2928492600160a81b90910461ffff16916001611097565b5050505050505050565b61220981610220015183604001515f84606001518661012001518861118c9095949392919063ffffffff16565b610220810151610140810151608084015184516060808601519401516001600160a01b039093169363b18d6afd93612242908290611050565b866102200151606001516040518663ffffffff1660e01b815260040161226c959493929190613277565b6020604051808303815f875af1158015612288573d5f5f3e3d5ffd5b505050506040513d601f19601f820116820180604052508101906122ac91906132a8565b50505050565b81545f805b82156120415750600282901c9160019081161480156123bd575f828152602087905260409020546001600160a01b031680156123bb576001600160a01b0381165f90815260208990526040812061230d90610ec8565b905061232481610120015151600160381b16151590565b156123b9576001600160a01b0382165f90815260208a90526040902061234a9082610feb565b6001600160a01b038083165f90815260208b9052604090819020608089015160a08501516101608601519351630ed1279f60e11b815282861660048201526123b99587958e94938a936123ab93919290911690631da24f3e90602401610628565b5f60018e6101200151611e0a565b505b505b8160010191506122b7565b6040516323b872dd60e01b8082526001600160a01b0385811660048401528416602483015260448201839052905f80606483828a5af161240a573d5f5f3e3d5ffd5b5061241485612abe565b611bcf5760405162461bcd60e51b815260206004820152601960248201527f475076323a206661696c6564207472616e7366657246726f6d00000000000000604482015260640161117f565b60c0810151156124cb575f61247e8260c00151836101800151612b61565b9050612497826040015182612b9c90919063ffffffff16565b606083018190526124a790611150565b6001840180546001600160801b0319166001600160801b0392909216919091179055505b805115612533575f6124e68260e00151836101800151612bdd565b90506124ff826080015182612b9c90919063ffffffff16565b60a0830181905261250f90611150565b6002840180546001600160801b0319166001600160801b0392909216919091179055505b5050565b8061010001515f03612547575050565b5f61256782608001518360a0015161255f91906133fa565b83519061272c565b90505f61258283610100015183611c3a90919063ffffffff16565b905080156122ac576125a96125a48460600151836127ec90919063ffffffff16565b611150565b6008850180545f906125c59084906001600160801b031661344a565b92506101000a8154816001600160801b0302191690836001600160801b0316021790555050505050565b5f8115744f3a68dbc8f03f243baf513267aa9a3ee524f8e02884111715612614575f5ffd5b50676765c793fa10079d601b1b9190910281810491900615150190565b5f5f8361267661264087612be9565b600488810154604051630ed1279f60e11b81526001600160a01b038c811693820193909352911690631da24f3e90602401610599565b61268091906133d0565b905082818161269157612691613219565b049150505b949350505050565b5f5f6126e06126ac86612c45565b6006870154604051630ed1279f60e11b81526001600160a01b038a8116600483015290911690631da24f3e90602401610628565b90506126ed818585611c0f565b9695505050505050565b5f8115670de0b6b3a764000060028404190484111715612715575f5ffd5b50670de0b6b3a76400009190910260028204010490565b5f815f190483111582151761273f575f5ffd5b50676765c793fa10079d601b1b91020490565b5f815f1904831115821517612765575f5ffd5b50676765c793fa10079d601b1b910281810491900615150190565b5f81157e068db8bac710cb295e9e1b089a027525460aa64c2f837b4a2339c0ebedfa43841117156127af575f5ffd5b506127109190910281810491900615150190565b5f8115612710600284041904841117156127db575f5ffd5b506127109190910260028204010490565b5f61105b8383612c9b565b60808210612818576040516385e98beb60e01b815260040160405180910390fd5b600182811b1b811561282f578354811784556122ac565b83549019169092555050565b610120820151515f9061105b9060029060301c60ff1661285b91906133fa565b61286690600a6133c5565b6125a49084613241565b6009830180546001600160801b0319166001600160801b0383169081179091556040519081526001600160a01b038316907faef84d3b40895fd58c561f3998000f0583abb992a52fbdc99ace8e8de4d676a59060200160405180910390a2505050565b81515f9060d41c64ffffffffff1615612aa7575f826001600160a01b0316637535d2466040518163ffffffff1660e01b8152600401602060405180830381865afa158015612923573d5f5f3e3d5ffd5b505050506040513d601f19601f82011682018060405250810190612947919061340d565b6001600160a01b0316630542975c6040518163ffffffff1660e01b8152600401602060405180830381865afa158015612982573d5f5f3e3d5ffd5b505050506040513d601f19601f820116820180604052508101906129a6919061340d565b9050806001600160a01b031663707cd7166040518163ffffffff1660e01b8152600401602060405180830381865afa1580156129e4573d5f5f3e3d5ffd5b505050506040513d601f19601f82011682018060405250810190612a08919061340d565b604051632474521560e21b81527fd1d2cf869016112a9af1107bcf43c3759daf22cf734aad47d0c9c726e33bc78260048201526001600160a01b038a8116602483015291909116906391d1485490604401602060405180830381865afa158015612a74573d5f5f3e3d5ffd5b505050506040513d601f19601f82011682018060405250810190612a9891906132a8565b612aa5575f9150506126ed565b505b612ab386868686612cd5565b979650505050505050565b5f612ae0565b62461bcd60e51b5f52602060045280602452508060445260645ffd5b3d8015612b1f5760208114612b5057612b1a7f475076323a206d616c666f726d6564207472616e7366657220726573756c7400601f612ac4565b612b5b565b823b612b4757612b477311d41d8c8e881b9bdd08184818dbdb9d1c9858dd60621b6014612ac4565b60019150612b5b565b3d5f5f3e5f51151591505b50919050565b5f80612b7464ffffffffff8416426133fa565b612b7e90856133d0565b6301e133809004905061269681676765c793fa10079d601b1b6133e7565b5f81156b019d971e4fe8401e740000001983900484111517612bbc575f5ffd5b50676765c793fa10079d601b1b91026b019d971e4fe8401e74000000010490565b5f61105b838342612d6e565b60038101545f90600160801b900464ffffffffff16428103612c17575050600101546001600160801b031690565b6001830154610462906001600160801b0380821691612c3f91600160801b9091041684612b61565b90612b9c565b60038101545f90600160801b900464ffffffffff16428103612c73575050600201546001600160801b031690565b6002830154610462906001600160801b0380821691612c3f91600160801b9091041684612bdd565b5f8115744f3a68dbc8f03f243baf513267aa9a3ee524f8e02884111715612cc0575f5ffd5b50676765c793fa10079d601b1b919091020490565b5f612ce2825161ffff1690565b5f03612cef57505f612696565b60408051602081019091528354908190527faaaaaaaaaaaaaaaaaaaaaaaaaaaaaaaaaaaaaaaaaaaaaaaaaaaaaaaaaaaaaaaa16612d2e57506001612696565b6040805160208101909152835481525f90612d4a908787612ddb565b50509050801580156126ed5750825160d41c64ffffffffff16159695505050505050565b5f80612d8164ffffffffff8516846133fa565b9050805f03612d9e57676765c793fa10079d601b1b915050610462565b6301e1338081860204612dc3612db78260068104612b9c565b82906002820401612b9c565b01676765c793fa10079d601b1b019150509392505050565b5f5f5f612de786612e81565b15612e6f575f612e17877faaaaaaaaaaaaaaaaaaaaaaaaaaaaaaaaaaaaaaaaaaaaaaaaaaaaaaaaaaaaaaaa612ec4565b5f81815260208781526040808320546001600160a01b03168084528a8352818420825193840190925290549182905292935060d41c64ffffffffff1690508015612e6b57600195509093509150612e789050565b5050505b505f9150819050805b93509350939050565b80515f907faaaaaaaaaaaaaaaaaaaaaaaaaaaaaaaaaaaaaaaaaaaaaaaaaaaaaaaaaaaaaaaa1680158015906104625750612ebc6001826133fa565b161592915050565b81515f9082165f198101198116825b60029190911c908115612ee857600101612ed3565b95945050505050565b6040518061024001604052805f81526020015f81526020015f81526020015f81526020015f81526020015f81526020015f81526020015f81526020015f81526020015f81526020015f81526020015f81526020015f81526020015f81526020015f81526020015f8152602001612f65612f77565b8152602001612f72612f77565b905290565b604051806101a001604052805f81526020015f81526020015f81526020015f81526020015f81526020015f81526020015f81526020015f81526020015f8152602001612fce60405180602001604052805f81525090565b81525f602082018190526040820181905260609091015290565b604051610140810167ffffffffffffffff8111828210171561301857634e487b7160e01b5f52604160045260245ffd5b60405290565b6001600160a01b0381168114613032575f5ffd5b50565b80356130408161301e565b919050565b5f5f5f83850360c0811215613058575f5ffd5b84359350602085013592506080603f1982011215613074575f5ffd5b506040516080810167ffffffffffffffff811182821017156130a457634e487b7160e01b5f52604160045260245ffd5b60409081528501356130b58161301e565b815260608501356130c58161301e565b602082015260808501356130d88161301e565b604082015260a094909401356060850152509093909250565b8015158114613032575f5ffd5b8035613040816130f1565b803560ff81168114613040575f5ffd5b5f5f5f5f5f8587036101c081121561312f575f5ffd5b86359550602087013594506040870135935060608701359250610140607f198201121561315a575f5ffd5b50613163612fe8565b61316f60808801613035565b815260a0870135602082015261318760c08801613035565b604082015261319860e08801613035565b60608201526131aa6101008801613035565b60808201526131bc61012088016130fe565b60a08201526131ce6101408801613035565b60c08201526131e06101608801613109565b60e08201526131f26101808801613035565b6101008201526132056101a08801613035565b610120820152809150509295509295909350565b634e487b7160e01b5f52601260045260245ffd5b634e487b7160e01b5f52601160045260245ffd5b5f8261325b57634e487b7160e01b5f52601260045260245ffd5b500490565b5f60208284031215613270575f5ffd5b5051919050565b6001600160a01b03958616815293909416602084015260408301919091526060820152608081019190915260a00190565b5f602082840312156132b8575f5ffd5b8151610462816130f1565b6001600160801b03828116828216039081111561105e5761105e61322d565b6001815b600184111561331d578085048111156133015761330161322d565b600184161561330f57908102905b60019390931c9280026132e6565b935093915050565b5f826133335750600161105e565b8161333f57505f61105e565b8160018114613355576002811461335f5761337b565b600191505061105e565b60ff8411156133705761337061322d565b50506001821b61105e565b5060208310610133831016604e8410600b841016171561339e575081810a61105e565b6133aa5f1984846132e2565b805f19048211156133bd576133bd61322d565b029392505050565b5f61105b8383613325565b808202811582820484141761105e5761105e61322d565b8082018082111561105e5761105e61322d565b8181038181111561105e5761105e61322d565b5f6020828403121561341d575f5ffd5b81516104628161301e565b5f5f60408385031215613439575f5ffd5b505080516020909101519092909150565b6001600160801b03818116838216019081111561105e5761105e61322d565b5f5f6040838503121561347a575f5ffd5b8251613485816130f1565b602093909301519294929350505056fea164736f6c634300081b000a","linkReferences":{}},"methodIdentifiers":{"CLOSE_FACTOR_HF_THRESHOLD()":"a18964a5","MIN_BASE_MAX_CLOSE_FACTOR_THRESHOLD()":"64e377d0","MIN_LEFTOVER_BASE()":"1a00fd00","executeEliminateDeficit(mapping(address => DataTypes.ReserveData) storage,DataTypes.UserConfigurationMap storage,DataTypes.ExecuteEliminateDeficitParams)":"7e9e608c","executeLiquidationCall(mapping(address => DataTypes.ReserveData) storage,mapping(uint256 => address) storage,mapping(address => DataTypes.UserConfigurationMap) storage,mapping(uint8 => DataTypes.EModeCategory) storage,DataTypes.ExecuteLiquidationCallParams)":"83c1087d"},"id":224}