{"abi":[{"type":"function","name":"getGitModuleVersion","inputs":[],"outputs":[{"name":"commit","type":"string","internalType":"string"},{"name":"branch","type":"string","internalType":"string"}],"stateMutability":"nonpayable"},{"type":"function","name":"getTimestamp","inputs":[],"outputs":[{"name":"result","type":"string","internalType":"string"}],"stateMutability":"nonpayable"},{"type":"function","name":"writeJsonReportLibraryBatch1","inputs":[{"name":"libraries","type":"tuple","internalType":"struct LibrariesReport","components":[{"name":"borrowLogic","type":"address","internalType":"address"},{"name":"configuratorLogic","type":"address","internalType":"address"},{"name":"eModeLogic","type":"address","internalType":"address"},{"name":"flashLoanLogic","type":"address","internalType":"address"},{"name":"liquidationLogic","type":"address","internalType":"address"},{"name":"poolLogic","type":"address","internalType":"address"},{"name":"supplyLogic","type":"address","internalType":"address"}]}],"outputs":[],"stateMutability":"nonpayable"},{"type":"function","name":"writeJsonReportLibraryBatch2","inputs":[{"name":"libraries","type":"tuple","internalType":"struct LibrariesReport","components":[{"name":"borrowLogic","type":"address","internalType":"address"},{"name":"configuratorLogic","type":"address","internalType":"address"},{"name":"eModeLogic","type":"address","internalType":"address"},{"name":"flashLoanLogic","type":"address","internalType":"address"},{"name":"liquidationLogic","type":"address","internalType":"address"},{"name":"poolLogic","type":"address","internalType":"address"},{"name":"supplyLogic","type":"address","internalType":"address"}]}],"outputs":[],"stateMutability":"nonpayable"},{"type":"function","name":"writeJsonReportMarket","inputs":[{"name":"report","type":"tuple","internalType":"struct MarketReport","components":[{"name":"poolAddressesProviderRegistry","type":"address","internalType":"address"},{"name":"poolAddressesProvider","type":"address","internalType":"address"},{"name":"poolProxy","type":"address","internalType":"address"},{"name":"poolImplementation","type":"address","internalType":"address"},{"name":"poolConfiguratorProxy","type":"address","internalType":"address"},{"name":"poolConfiguratorImplementation","type":"address","internalType":"address"},{"name":"protocolDataProvider","type":"address","internalType":"address"},{"name":"aaveOracle","type":"address","internalType":"address"},{"name":"defaultInterestRateStrategy","type":"address","internalType":"address"},{"name":"priceOracleSentinel","type":"address","internalType":"address"},{"name":"aclManager","type":"address","internalType":"address"},{"name":"treasury","type":"address","internalType":"address"},{"name":"treasuryImplementation","type":"address","internalType":"address"},{"name":"wrappedTokenGateway","type":"address","internalType":"address"},{"name":"walletBalanceProvider","type":"address","internalType":"address"},{"name":"uiIncentiveDataProvider","type":"address","internalType":"address"},{"name":"uiPoolDataProvider","type":"address","internalType":"address"},{"name":"paraSwapLiquiditySwapAdapter","type":"address","internalType":"address"},{"name":"paraSwapRepayAdapter","type":"address","internalType":"address"},{"name":"paraSwapWithdrawSwapAdapter","type":"address","internalType":"address"},{"name":"l2Encoder","type":"address","internalType":"address"},{"name":"aToken","type":"address","internalType":"address"},{"name":"variableDebtToken","type":"address","internalType":"address"},{"name":"emissionManager","type":"address","internalType":"address"},{"name":"rewardsControllerImplementation","type":"address","internalType":"address"},{"name":"rewardsControllerProxy","type":"address","internalType":"address"},{"name":"configEngine","type":"address","internalType":"address"},{"name":"transparentProxyFactory","type":"address","internalType":"address"},{"name":"staticATokenFactoryImplementation","type":"address","internalType":"address"},{"name":"staticATokenFactoryProxy","type":"address","internalType":"address"},{"name":"staticATokenImplementation","type":"address","internalType":"address"},{"name":"revenueSplitter","type":"address","internalType":"address"},{"name":"dustBin","type":"address","internalType":"address"},{"name":"emptyImplementation","type":"address","internalType":"address"}]}],"outputs":[],"stateMutability":"nonpayable"}],"bytecode":{"object":"0x6080604052348015600e575f5ffd5b506130268061001c5f395ff3fe608060405234801561000f575f5ffd5b5060043610610055575f3560e01c8063188ec356146100595780633fc581ad14610077578063d5760b511461008c578063e993af3a146100a2578063f1f61f6e146100b5575b5f5ffd5b6100616100c8565b60405161006e9190611aba565b60405180910390f35b61008a610085366004611b2c565b610235565b005b610094610467565b60405161006e929190611bdc565b61008a6100b0366004611c09565b61073d565b61008a6100c3366004611b2c565b611821565b604080516003808252608082019092526060915f9190816020015b60608152602001906001900390816100e3579050509050604051806040016040528060048152602001630c4c2e6d60e31b815250815f8151811061012957610129611e9b565b6020026020010181905250604051806040016040528060028152602001612d6360f01b8152508160018151811061016257610162611e9b565b6020026020010181905250604051806080016040528060458152602001612ef8604591398160028151811061019957610199611e9b565b6020908102919091010152604051638916046760e01b81525f905f516020612f3d5f395f51905f52906389160467906101d6908590600401611eaf565b5f604051808303815f875af11580156101f1573d5f5f3e3d5ffd5b505050506040513d5f823e601f3d908101601f191682016040526102189190810190611f88565b90508080602001905181019061022e9190611f88565b9250505090565b6060805f6102416100c8565b905061024b610467565b604080518082018252600c81526b6c69622d7265706f72742d3160a01b602082015287519151634b96303160e11b815293965091945090915f516020612f3d5f395f51905f529163972c6062916102a6918591600401611fd5565b5f604051808303815f875af11580156102c1573d5f5f3e3d5ffd5b505050506040513d5f823e601f3d908101601f191682016040526102e89190810190611f88565b506020850151604051634b96303160e11b81525f516020612f3d5f395f51905f529163972c60629161031e918591600401612023565b5f604051808303815f875af1158015610339573d5f5f3e3d5ffd5b505050506040513d5f823e601f3d908101601f191682016040526103609190810190611f88565b506040808601519051634b96303160e11b81525f915f516020612f3d5f395f51905f529163972c60629161039991869190600401612077565b5f604051808303815f875af11580156103b4573d5f5f3e3d5ffd5b505050506040513d5f823e601f3d908101601f191682016040526103db9190810190611f88565b6040519091505f516020612f3d5f395f51905f529063e23cd19f9083906104069087906020016120c4565b6040516020818303038152906040526040518363ffffffff1660e01b8152600401610432929190611bdc565b5f604051808303815f87803b158015610449575f5ffd5b505af115801561045b573d5f5f3e3d5ffd5b50505050505050505050565b6040805160038082526080820190925260609182915f91816020015b6060815260200190600190039081610483575050604080516003808252608082019092529192505f9190602082015b60608152602001906001900390816104b2579050509050604051806040016040528060048152602001630c4c2e6d60e31b815250825f815181106104f8576104f8611e9b565b6020026020010181905250604051806040016040528060028152602001612d6360f01b8152508260018151811061053157610531611e9b565b60200260200101819052506040518060800160405280605b8152602001612f5d605b91398260028151811061056857610568611e9b565b6020908102919091010152604051638916046760e01b81525f905f516020612f3d5f395f51905f52906389160467906105a5908690600401611eaf565b5f604051808303815f875af11580156105c0573d5f5f3e3d5ffd5b505050506040513d5f823e601f3d908101601f191682016040526105e79190810190611f88565b9050808060200190518101906105fd9190611f88565b9450604051806040016040528060048152602001630c4c2e6d60e31b815250825f8151811061062e5761062e611e9b565b6020026020010181905250604051806040016040528060028152602001612d6360f01b8152508260018151811061066757610667611e9b565b60200260200101819052506040518060a0016040528060628152602001612fb8606291398260028151811061069e5761069e611e9b565b6020908102919091010152604051638916046760e01b81525f905f516020612f3d5f395f51905f52906389160467906106db908690600401611eaf565b5f604051808303815f875af11580156106f6573d5f5f3e3d5ffd5b505050506040513d5f823e601f3d908101601f1916820160405261071d9190810190611f88565b9050808060200190518101906107339190611f88565b9450505050509091565b6060805f6107496100c8565b9050610753610467565b604080518082018252600d81526c1b585c9ad95d0b5c995c1bdc9d609a1b602082015290516388da6d3560e01b8152929550909350905f516020612f3d5f395f51905f52906388da6d35906107ae908490889060040161211c565b5f604051808303815f875af11580156107c9573d5f5f3e3d5ffd5b505050506040513d5f823e601f3d908101601f191682016040526107f09190810190611f88565b506040516388da6d3560e01b81525f516020612f3d5f395f51905f52906388da6d35906108239084908790600401612171565b5f604051808303815f875af115801561083e573d5f5f3e3d5ffd5b505050506040513d5f823e601f3d908101601f191682016040526108659190810190611f88565b508451604051634b96303160e11b81525f516020612f3d5f395f51905f529163972c6062916108989185916004016121c6565b5f604051808303815f875af11580156108b3573d5f5f3e3d5ffd5b505050506040513d5f823e601f3d908101601f191682016040526108da9190810190611f88565b506020850151604051634b96303160e11b81525f516020612f3d5f395f51905f529163972c606291610910918591600401612226565b5f604051808303815f875af115801561092b573d5f5f3e3d5ffd5b505050506040513d5f823e601f3d908101601f191682016040526109529190810190611f88565b506040808601519051634b96303160e11b81525f516020612f3d5f395f51905f529163972c60629161098891859160040161227e565b5f604051808303815f875af11580156109a3573d5f5f3e3d5ffd5b505050506040513d5f823e601f3d908101601f191682016040526109ca9190810190611f88565b506060850151604051634b96303160e11b81525f516020612f3d5f395f51905f529163972c606291610a009185916004016122ca565b5f604051808303815f875af1158015610a1b573d5f5f3e3d5ffd5b505050506040513d5f823e601f3d908101601f19168201604052610a429190810190611f88565b506080850151604051634b96303160e11b81525f516020612f3d5f395f51905f529163972c606291610a7891859160040161231f565b5f604051808303815f875af1158015610a93573d5f5f3e3d5ffd5b505050506040513d5f823e601f3d908101601f19168201604052610aba9190810190611f88565b5060a0850151604051634b96303160e11b81525f516020612f3d5f395f51905f529163972c606291610af0918591600401612377565b5f604051808303815f875af1158015610b0b573d5f5f3e3d5ffd5b505050506040513d5f823e601f3d908101601f19168201604052610b329190810190611f88565b5060e0850151604051634b96303160e11b81525f516020612f3d5f395f51905f529163972c606291610b689185916004016123d7565b5f604051808303815f875af1158015610b83573d5f5f3e3d5ffd5b505050506040513d5f823e601f3d908101601f19168201604052610baa9190810190611f88565b50610160850151604051634b96303160e11b81525f516020612f3d5f395f51905f529163972c606291610be1918591600401612424565b5f604051808303815f875af1158015610bfc573d5f5f3e3d5ffd5b505050506040513d5f823e601f3d908101601f19168201604052610c239190810190611f88565b50610400850151604051634b96303160e11b81525f516020612f3d5f395f51905f529163972c606291610c5a91859160040161246f565b5f604051808303815f875af1158015610c75573d5f5f3e3d5ffd5b505050506040513d5f823e601f3d908101601f19168201604052610c9c9190810190611f88565b506101a0850151604051634b96303160e11b81525f516020612f3d5f395f51905f529163972c606291610cd39185916004016124b9565b5f604051808303815f875af1158015610cee573d5f5f3e3d5ffd5b505050506040513d5f823e601f3d908101601f19168201604052610d159190810190611f88565b506101c0850151604051634b96303160e11b81525f516020612f3d5f395f51905f529163972c606291610d4c91859160040161250f565b5f604051808303815f875af1158015610d67573d5f5f3e3d5ffd5b505050506040513d5f823e601f3d908101601f19168201604052610d8e9190810190611f88565b506101e0850151604051634b96303160e11b81525f516020612f3d5f395f51905f529163972c606291610dc5918591600401612567565b5f604051808303815f875af1158015610de0573d5f5f3e3d5ffd5b505050506040513d5f823e601f3d908101601f19168201604052610e079190810190611f88565b50610200850151604051634b96303160e11b81525f516020612f3d5f395f51905f529163972c606291610e3e9185916004016125c7565b5f604051808303815f875af1158015610e59573d5f5f3e3d5ffd5b505050506040513d5f823e601f3d908101601f19168201604052610e809190810190611f88565b50610180850151604051634b96303160e11b81525f516020612f3d5f395f51905f529163972c606291610eb791859160040161261c565b5f604051808303815f875af1158015610ed2573d5f5f3e3d5ffd5b505050506040513d5f823e601f3d908101601f19168201604052610ef99190810190611f88565b50610420850151604051634b96303160e11b81525f516020612f3d5f395f51905f529163972c606291610f30918591600401612675565b5f604051808303815f875af1158015610f4b573d5f5f3e3d5ffd5b505050506040513d5f823e601f3d908101601f19168201604052610f729190810190611f88565b50610280850151604051634b96303160e11b81525f516020612f3d5f395f51905f529163972c606291610fa99185916004016126cb565b5f604051808303815f875af1158015610fc4573d5f5f3e3d5ffd5b505050506040513d5f823e601f3d908101601f19168201604052610feb9190810190611f88565b506102a0850151604051634b96303160e11b81525f516020612f3d5f395f51905f529163972c606291611022918591600401612717565b5f604051808303815f875af115801561103d573d5f5f3e3d5ffd5b505050506040513d5f823e601f3d908101601f191682016040526110649190810190611f88565b506102c0850151604051634b96303160e11b81525f516020612f3d5f395f51905f529163972c60629161109b918591600401612760565b5f604051808303815f875af11580156110b6573d5f5f3e3d5ffd5b505050506040513d5f823e601f3d908101601f191682016040526110dd9190810190611f88565b506102e0850151604051634b96303160e11b81525f516020612f3d5f395f51905f529163972c6062916111149185916004016127b4565b5f604051808303815f875af115801561112f573d5f5f3e3d5ffd5b505050506040513d5f823e601f3d908101601f191682016040526111569190810190611f88565b50610300850151604051634b96303160e11b81525f516020612f3d5f395f51905f529163972c60629161118d918591600401612806565b5f604051808303815f875af11580156111a8573d5f5f3e3d5ffd5b505050506040513d5f823e601f3d908101601f191682016040526111cf9190810190611f88565b50610320850151604051634b96303160e11b81525f516020612f3d5f395f51905f529163972c606291611206918591600401612866565b5f604051808303815f875af1158015611221573d5f5f3e3d5ffd5b505050506040513d5f823e601f3d908101601f191682016040526112489190810190611f88565b50610140850151604051634b96303160e11b81525f516020612f3d5f395f51905f529163972c60629161127f9185916004016128bf565b5f604051808303815f875af115801561129a573d5f5f3e3d5ffd5b505050506040513d5f823e601f3d908101601f191682016040526112c19190810190611f88565b5060c0850151604051634b96303160e11b81525f516020612f3d5f395f51905f529163972c6062916112f791859160040161290c565b5f604051808303815f875af1158015611312573d5f5f3e3d5ffd5b505050506040513d5f823e601f3d908101601f191682016040526113399190810190611f88565b50610220850151604051634b96303160e11b81525f516020612f3d5f395f51905f529163972c606291611370918591600401612963565b5f604051808303815f875af115801561138b573d5f5f3e3d5ffd5b505050506040513d5f823e601f3d908101601f191682016040526113b29190810190611f88565b50610260850151604051634b96303160e11b81525f516020612f3d5f395f51905f529163972c6062916113e99185916004016129c3565b5f604051808303815f875af1158015611404573d5f5f3e3d5ffd5b505050506040513d5f823e601f3d908101601f1916820160405261142b9190810190611f88565b50610100850151604051634b96303160e11b81525f516020612f3d5f395f51905f529163972c606291611462918591600401612a23565b5f604051808303815f875af115801561147d573d5f5f3e3d5ffd5b505050506040513d5f823e601f3d908101601f191682016040526114a49190810190611f88565b50610120850151604051634b96303160e11b81525f516020612f3d5f395f51905f529163972c6062916114db918591600401612a83565b5f604051808303815f875af11580156114f6573d5f5f3e3d5ffd5b505050506040513d5f823e601f3d908101601f1916820160405261151d9190810190611f88565b50610340850151604051634b96303160e11b81525f516020612f3d5f395f51905f529163972c606291611554918591600401612ad9565b5f604051808303815f875af115801561156f573d5f5f3e3d5ffd5b505050506040513d5f823e601f3d908101601f191682016040526115969190810190611f88565b50610380850151604051634b96303160e11b81525f516020612f3d5f395f51905f529163972c6062916115cd918591600401612b28565b5f604051808303815f875af11580156115e8573d5f5f3e3d5ffd5b505050506040513d5f823e601f3d908101601f1916820160405261160f9190810190611f88565b506103a0850151604051634b96303160e11b81525f516020612f3d5f395f51905f529163972c606291611646918591600401612b92565b5f604051808303815f875af1158015611661573d5f5f3e3d5ffd5b505050506040513d5f823e601f3d908101601f191682016040526116889190810190611f88565b506103c0850151604051634b96303160e11b81525f516020612f3d5f395f51905f529163972c6062916116bf918591600401612bf2565b5f604051808303815f875af11580156116da573d5f5f3e3d5ffd5b505050506040513d5f823e601f3d908101601f191682016040526117019190810190611f88565b50610360850151604051634b96303160e11b81525f516020612f3d5f395f51905f529163972c606291611738918591600401612c52565b5f604051808303815f875af1158015611753573d5f5f3e3d5ffd5b505050506040513d5f823e601f3d908101601f1916820160405261177a9190810190611f88565b50610240850151604051634b96303160e11b81525f915f516020612f3d5f395f51905f529163972c6062916117b491869190600401612cb2565b5f604051808303815f875af11580156117cf573d5f5f3e3d5ffd5b505050506040513d5f823e601f3d908101601f191682016040526117f69190810190611f88565b6040519091505f516020612f3d5f395f51905f529063e23cd19f908390610406908790602001612d09565b6060805f61182d6100c8565b9050611837610467565b604080518082018252600c81526b3634b116b932b837b93a169960a11b602082015260608801519151634b96303160e11b815293965091945090915f516020612f3d5f395f51905f529163972c606291611895918591600401612d61565b5f604051808303815f875af11580156118b0573d5f5f3e3d5ffd5b505050506040513d5f823e601f3d908101601f191682016040526118d79190810190611f88565b506080850151604051634b96303160e11b81525f516020612f3d5f395f51905f529163972c60629161190d918591600401612db2565b5f604051808303815f875af1158015611928573d5f5f3e3d5ffd5b505050506040513d5f823e601f3d908101601f1916820160405261194f9190810190611f88565b5060a0850151604051634b96303160e11b81525f516020612f3d5f395f51905f529163972c606291611985918591600401612e05565b5f604051808303815f875af11580156119a0573d5f5f3e3d5ffd5b505050506040513d5f823e601f3d908101601f191682016040526119c79190810190611f88565b5060c0850151604051634b96303160e11b81525f915f516020612f3d5f395f51905f529163972c606291611a0091869190600401612e51565b5f604051808303815f875af1158015611a1b573d5f5f3e3d5ffd5b505050506040513d5f823e601f3d908101601f19168201604052611a429190810190611f88565b6040519091505f516020612f3d5f395f51905f529063e23cd19f908390610406908790602001612e9f565b5f5b83811015611a87578181015183820152602001611a6f565b50505f910152565b5f8151808452611aa6816020860160208601611a6d565b601f01601f19169290920160200192915050565b602081525f611acc6020830184611a8f565b9392505050565b634e487b7160e01b5f52604160045260245ffd5b604051610440810167ffffffffffffffff81118282101715611b0b57611b0b611ad3565b60405290565b80356001600160a01b0381168114611b27575f5ffd5b919050565b5f60e0828403128015611b3d575f5ffd5b5060405160e0810167ffffffffffffffff81118282101715611b6157611b61611ad3565b604052611b6d83611b11565b8152611b7b60208401611b11565b6020820152611b8c60408401611b11565b6040820152611b9d60608401611b11565b6060820152611bae60808401611b11565b6080820152611bbf60a08401611b11565b60a0820152611bd060c08401611b11565b60c08201529392505050565b604081525f611bee6040830185611a8f565b8281036020840152611c008185611a8f565b95945050505050565b5f610440828403128015611c1b575f5ffd5b50611c24611ae7565b611c2d83611b11565b8152611c3b60208401611b11565b6020820152611c4c60408401611b11565b6040820152611c5d60608401611b11565b6060820152611c6e60808401611b11565b6080820152611c7f60a08401611b11565b60a0820152611c9060c08401611b11565b60c0820152611ca160e08401611b11565b60e0820152611cb36101008401611b11565b610100820152611cc66101208401611b11565b610120820152611cd96101408401611b11565b610140820152611cec6101608401611b11565b610160820152611cff6101808401611b11565b610180820152611d126101a08401611b11565b6101a0820152611d256101c08401611b11565b6101c0820152611d386101e08401611b11565b6101e0820152611d4b6102008401611b11565b610200820152611d5e6102208401611b11565b610220820152611d716102408401611b11565b610240820152611d846102608401611b11565b610260820152611d976102808401611b11565b610280820152611daa6102a08401611b11565b6102a0820152611dbd6102c08401611b11565b6102c0820152611dd06102e08401611b11565b6102e0820152611de36103008401611b11565b610300820152611df66103208401611b11565b610320820152611e096103408401611b11565b610340820152611e1c6103608401611b11565b610360820152611e2f6103808401611b11565b610380820152611e426103a08401611b11565b6103a0820152611e556103c08401611b11565b6103c0820152611e686103e08401611b11565b6103e0820152611e7b6104008401611b11565b610400820152611e8e6104208401611b11565b6104208201529392505050565b634e487b7160e01b5f52603260045260245ffd5b5f602082016020835280845180835260408501915060408160051b8601019250602086015f5b82811015611f0657603f19878603018452611ef1858351611a8f565b94506020938401939190910190600101611ed5565b50929695505050505050565b5f5f67ffffffffffffffff841115611f2c57611f2c611ad3565b50604051601f19601f85018116603f0116810181811067ffffffffffffffff82111715611f5b57611f5b611ad3565b604052838152905080828401851015611f72575f5ffd5b611f80846020830185611a6d565b509392505050565b5f60208284031215611f98575f5ffd5b815167ffffffffffffffff811115611fae575f5ffd5b8201601f81018413611fbe575f5ffd5b611fcd84825160208401611f12565b949350505050565b606081525f611fe76060830185611a8f565b828103602080850191909152600b82526a626f72726f774c6f67696360a81b908201526001600160a01b03939093166040928301525001919050565b606081525f6120356060830185611a8f565b8281036020808501919091526011825270636f6e666967757261746f724c6f67696360781b908201526001600160a01b03939093166040928301525001919050565b606081525f6120896060830185611a8f565b828103602080850191909152600a825269654d6f64654c6f67696360b01b908201526001600160a01b03939093166040928301525001919050565b692e2f7265706f7274732f60b01b81525f82516120e881600a850160208701611a6d565b7f2d6c6962726172792d312d6465706c6f796d656e742e6a736f6e000000000000600a939091019283015250602401919050565b606081525f61212e6060830185611a8f565b828103806020850152601682527518585d994b5d8ccb599858dd1bdc9e4b58dbdb5b5a5d60521b602083015260408101604085015250611c006040820185611a8f565b606081525f6121836060830185611a8f565b82810380602085015260168252750c2c2ecca5aec665accc2c6e8dee4f25ac4e4c2dcc6d60531b602083015260408101604085015250611c006040820185611a8f565b606081525f6121d86060830185611a8f565b828103602080850191909152601d82527f706f6f6c41646472657373657350726f76696465725265676973747279000000908201526001600160a01b03939093166040928301525001919050565b606081525f6122386060830185611a8f565b82810360208085019190915260158252743837b7b620b2323932b9b9b2b9a83937bb34b232b960591b908201526001600160a01b03939093166040928301525001919050565b606081525f6122906060830185611a8f565b8281036020808501919091526009825268706f6f6c50726f787960b81b908201526001600160a01b03939093166040928301525001919050565b606081525f6122dc6060830185611a8f565b82810360208085019190915260128252713837b7b624b6b83632b6b2b73a30ba34b7b760711b908201526001600160a01b03939093166040928301525001919050565b606081525f6123316060830185611a8f565b8281036020808501919091526015825274706f6f6c436f6e666967757261746f7250726f787960581b908201526001600160a01b03939093166040928301525001919050565b606081525f6123896060830185611a8f565b828103602080850191909152601e82527f706f6f6c436f6e666967757261746f72496d706c656d656e746174696f6e0000908201526001600160a01b03939093166040928301525001919050565b606081525f6123e96060830185611a8f565b828103602080850191909152600a825269616176654f7261636c6560b01b908201526001600160a01b03939093166040928301525001919050565b606081525f6124366060830185611a8f565b8281036020808501919091526008825267747265617375727960c01b908201526001600160a01b03939093166040928301525001919050565b606081525f6124816060830185611a8f565b8281036020808501919091526007825266323ab9ba2134b760c91b908201526001600160a01b03939093166040928301525001919050565b606081525f6124cb6060830185611a8f565b828103602080850191909152601382527277726170706564546f6b656e4761746577617960681b908201526001600160a01b03939093166040928301525001919050565b606081525f6125216060830185611a8f565b82810360208085019190915260158252743bb0b63632ba2130b630b731b2a83937bb34b232b960591b908201526001600160a01b03939093166040928301525001919050565b606081525f6125796060830185611a8f565b828103602080850191909152601782527f7569496e63656e746976654461746150726f7669646572000000000000000000908201526001600160a01b03939093166040928301525001919050565b606081525f6125d96060830185611a8f565b82810360208085019190915260128252713ab4a837b7b62230ba30a83937bb34b232b960711b908201526001600160a01b03939093166040928301525001919050565b606081525f61262e6060830185611a8f565b82810360208085019190915260168252753a3932b0b9bab93ca4b6b83632b6b2b73a30ba34b7b760511b908201526001600160a01b03939093166040928301525001919050565b606081525f6126876060830185611a8f565b828103602080850191909152601382527232b6b83a3ca4b6b83632b6b2b73a30ba34b7b760691b908201526001600160a01b03939093166040928301525001919050565b606081525f6126dd6060830185611a8f565b8281036020808501919091526009825268361922b731b7b232b960b91b908201526001600160a01b03939093166040928301525001919050565b606081525f6127296060830185611a8f565b828103602080850191909152600682526530aa37b5b2b760d11b908201526001600160a01b03939093166040928301525001919050565b606081525f6127726060830185611a8f565b82810360208085019190915260118252703b30b934b0b13632a232b13a2a37b5b2b760791b908201526001600160a01b03939093166040928301525001919050565b606081525f6127c66060830185611a8f565b828103602080850191909152600f82526e32b6b4b9b9b4b7b726b0b730b3b2b960891b908201526001600160a01b03939093166040928301525001919050565b606081525f6128186060830185611a8f565b828103602080850191909152601f82527f72657761726473436f6e74726f6c6c6572496d706c656d656e746174696f6e00908201526001600160a01b03939093166040928301525001919050565b606081525f6128786060830185611a8f565b828103602080850191909152601682527572657761726473436f6e74726f6c6c657250726f787960501b908201526001600160a01b03939093166040928301525001919050565b606081525f6128d16060830185611a8f565b828103602080850191909152600a82526930b1b626b0b730b3b2b960b11b908201526001600160a01b03939093166040928301525001919050565b606081525f61291e6060830185611a8f565b8281036020808501919091526014825273383937ba37b1b7b62230ba30a83937bb34b232b960611b908201526001600160a01b03939093166040928301525001919050565b606081525f6129756060830185611a8f565b828103602080850191909152601c82527f70617261537761704c6971756964697479537761704164617074657200000000908201526001600160a01b03939093166040928301525001919050565b606081525f6129d56060830185611a8f565b828103602080850191909152601b82527f7061726153776170576974686472617753776170416461707465720000000000908201526001600160a01b03939093166040928301525001919050565b606081525f612a356060830185611a8f565b828103602080850191909152601b82527f64656661756c74496e7465726573745261746553747261746567790000000000908201526001600160a01b03939093166040928301525001919050565b606081525f612a956060830185611a8f565b82810360208085019190915260138252721c1c9a58d953dc9858db1954d95b9d1a5b995b606a1b908201526001600160a01b03939093166040928301525001919050565b606081525f612aeb6060830185611a8f565b828103602080850191909152600c82526b636f6e666967456e67696e6560a01b908201526001600160a01b03939093166040928301525001919050565b606081525f612b3a6060830185611a8f565b8281036020840152602181527f73746174696341546f6b656e466163746f7279496d706c656d656e746174696f6020820152603760f91b60408201526060810191505060018060a01b03831660408301529392505050565b606081525f612ba46060830185611a8f565b828103602080850191909152601882527f73746174696341546f6b656e466163746f727950726f78790000000000000000908201526001600160a01b03939093166040928301525001919050565b606081525f612c046060830185611a8f565b828103602080850191909152601a82527f73746174696341546f6b656e496d706c656d656e746174696f6e000000000000908201526001600160a01b03939093166040928301525001919050565b606081525f612c646060830185611a8f565b828103602080850191909152601782527f7472616e73706172656e7450726f7879466163746f7279000000000000000000908201526001600160a01b03939093166040928301525001919050565b606081525f612cc46060830185611a8f565b82810360208085019190915260148252733830b930a9bbb0b82932b830bca0b230b83a32b960611b908201526001600160a01b03939093166040928301525001919050565b692e2f7265706f7274732f60b01b81525f8251612d2d81600a850160208701611a6d565b7f2d6d61726b65742d6465706c6f796d656e742e6a736f6e000000000000000000600a939091019283015250602101919050565b606081525f612d736060830185611a8f565b828103602080850191909152600e82526d666c6173684c6f616e4c6f67696360901b908201526001600160a01b03939093166040928301525001919050565b606081525f612dc46060830185611a8f565b828103602080850191909152601082526f6c69717569646174696f6e4c6f67696360801b908201526001600160a01b03939093166040928301525001919050565b606081525f612e176060830185611a8f565b8281036020808501919091526009825268706f6f6c4c6f67696360b81b908201526001600160a01b03939093166040928301525001919050565b606081525f612e636060830185611a8f565b828103602080850191909152600b82526a737570706c794c6f67696360a81b908201526001600160a01b03939093166040928301525001919050565b692e2f7265706f7274732f60b01b81525f8251612ec381600a850160208701611a6d565b7f2d6c6962726172792d322d6465706c6f796d656e742e6a736f6e000000000000600a93909101928301525060240191905056fe726573706f6e73653d22242864617465202b257329223b2063617374206162692d656e636f64652022726573706f6e736528737472696e6729222024726573706f6e73653b0000000000000000000000007109709ecfa91a80626ff3989d68f67f5b1dd12d726573706f6e73653d2224286563686f202d6e202428676974207265762d706172736520484541442929223b2063617374206162692d656e636f64652022726573706f6e736528737472696e672922202224726573706f6e736522726573706f6e73653d2224286563686f202d6e202428676974206272616e6368202d2d73686f772d63757272656e742929223b2063617374206162692d656e636f64652022726573706f6e736528737472696e672922202224726573706f6e736522a164736f6c634300081b000a","linkReferences":{}},"methodIdentifiers":{"getGitModuleVersion()":"d5760b51","getTimestamp()":"188ec356","writeJsonReportLibraryBatch1((address,address,address,address,address,address,address))":"3fc581ad","writeJsonReportLibraryBatch2((address,address,address,address,address,address,address))":"f1f61f6e","writeJsonReportMarket((address,address,address,address,address,address,address,address,address,address,address,address,address,address,address,address,address,address,address,address,address,address,address,address,address,address,address,address,address,address,address,address,address,address))":"e993af3a"},"id":301}