{"abi":[{"type":"constructor","inputs":[{"name":"poolProxy","type":"address","internalType":"address"},{"name":"rewardsControllerProxy","type":"address","internalType":"address"},{"name":"treasury","type":"address","internalType":"address"}],"stateMutability":"nonpayable"},{"type":"function","name":"getTokensReport","inputs":[],"outputs":[{"name":"","type":"tuple","internalType":"struct AaveV3TokensProcedure.TokensReport","components":[{"name":"aToken","type":"address","internalType":"address"},{"name":"variableDebtToken","type":"address","internalType":"address"}]}],"stateMutability":"view"}],"bytecode":{"object":"0x608060405234801561000f575f5ffd5b50604051614f39380380614f3983398101604081905261002e91610179565b610039838383610074565b80515f80546001600160a01b03199081166001600160a01b0393841617909155602090920151600180549093169116179055506101b9915050565b604080518082019091525f8082526020820152604080518082019091525f80825260208201525f8585856040516100aa90610144565b6001600160a01b03938416815291831660208301529091166040820152606001604051809103905ff0801580156100e3573d5f5f3e3d5ffd5b5090505f86866040516100f590610151565b6001600160a01b03928316815291166020820152604001604051809103905ff080158015610125573d5f5f3e3d5ffd5b506001600160a01b039283168452909116602083015250949350505050565b612d0c8061024e83390190565b611fdf80612f5a83390190565b80516001600160a01b0381168114610174575f5ffd5b919050565b5f5f5f6060848603121561018b575f5ffd5b6101948461015e565b92506101a26020850161015e565b91506101b06040850161015e565b90509250925092565b6089806101c55f395ff3fe6080604052348015600e575f5ffd5b50600436106026575f3560e01c806396e0b6ad14602a575b5f5ffd5b6040805180820182525f80825260209182018190528251808401845290546001600160a01b03908116808352600154821692840192835284519081529151169181019190915281519081900390910190f3fea164736f6c634300081b000a6101206040525f5f55348015610013575f5ffd5b50604051612d0c380380612d0c833981016040819052610032916101b0565b828282826040518060400160405280600b81526020016a105513d2d15397d253541360aa1b8152506040518060400160405280600b81526020016a105513d2d15397d253541360aa1b8152505f858484848484848484848461009861019460201b60201c565b5f81905550846001600160a01b0316630542975c6040518163ffffffff1660e01b8152600401602060405180830381865afa1580156100d9573d5f5f3e3d5ffd5b505050506040513d601f19601f820116820180604052508101906100fd91906101fa565b6001600160a01b0316608052603761011585826102b4565b50603861012284826102b4565b506039805460ff191660ff93909316929092179091556001600160a01b0393841660a052831660c05250504660e0528b16995061017c9850505050505050505057604051633bf95ba760e01b815260040160405180910390fd5b6001600160a01b0316610100525061036e9350505050565b600490565b6001600160a01b03811681146101ad575f5ffd5b50565b5f5f5f606084860312156101c2575f5ffd5b83516101cd81610199565b60208501519093506101de81610199565b60408501519092506101ef81610199565b809150509250925092565b5f6020828403121561020a575f5ffd5b815161021581610199565b9392505050565b634e487b7160e01b5f52604160045260245ffd5b600181811c9082168061024457607f821691505b60208210810361026257634e487b7160e01b5f52602260045260245ffd5b50919050565b601f8211156102af57805f5260205f20601f840160051c8101602085101561028d5750805b601f840160051c820191505b818110156102ac575f8155600101610299565b50505b505050565b81516001600160401b038111156102cd576102cd61021c565b6102e1816102db8454610230565b84610268565b6020601f821160018114610313575f83156102fc5750848201515b5f19600385901b1c1916600184901b1784556102ac565b5f84815260208120601f198516915b828110156103425787850151825560209485019460019092019101610322565b508482101561035f57868401515f19600387901b60f8161c191681555b50505050600190811b01905550565b60805160a05160c05160e051610100516128c061044c5f395f81816102b301528181610455015281816109f10152610c3d01525f6116b801525f81816103a8015281816104bd01528181610c5e01528181611d4a01528181611d8901528181611e1f01528181611fad0152611fe901525f81816103840152818161065a01528181610704015281816107d60152818161087f015281816109080152818161097f015281816109d001528181610ae201528181610be801528181610d2a01528181610dc101528181611295015261139201525f610e2201526128c05ff3fe608060405234801561000f575f5ffd5b50600436106101fd575f3560e01c80637816037611610114578063b16a19de116100a9578063cd086d4511610079578063cd086d45146104b8578063cea9d26f146104df578063d505accf146104f2578063dd62ed3e14610505578063e07539861461053d575f5ffd5b8063b16a19de14610479578063b18d6afd1461048a578063b1bf962d1461049d578063b3f1c93d146104a5575f5ffd5b806395d89b41116100e457806395d89b4114610425578063a457c2d71461042d578063a9059cbb14610440578063ae16733514610453575f5ffd5b806378160376146103cc5780637df5bd3b146103ec5780637ecebe00146103ff5780637fdd585f14610412575f5ffd5b806330adf81f11610195578063395093511161016557806339509351146103465780634efecaa51461035957806370a082311461036c5780637535d2461461037f57806375d26413146103a6575f5ffd5b806330adf81f146102ed578063313ce56714610314578063353b7b9a146103295780633644e5151461033e575f5ffd5b806318160ddd116101d057806318160ddd146102805780631da24f3e1461028857806323b872dd1461029b5780632d2c5565146102ae575f5ffd5b806306fdde0314610201578063095ea7b31461021f5780630afbcdc9146102425780630bd7ad3b1461026a575b5f5ffd5b610209610575565b6040516102169190612266565b60405180910390f35b61023261022d36600461228f565b610605565b6040519015158152602001610216565b6102556102503660046122b9565b61061b565b60408051928352602083019190915201610216565b610272600481565b604051908152602001610216565b610272610632565b6102726102963660046122b9565b6106d4565b6102326102a93660046122d4565b6106de565b6102d57f000000000000000000000000000000000000000000000000000000000000000081565b6040516001600160a01b039091168152602001610216565b6102727f6e71edae12b1b97f4d1f60370fef10105fa2faae0126114a169c64845d6126c981565b60395460405160ff9091168152602001610216565b61033c610337366004612312565b6107d3565b005b610272610838565b61023261035436600461228f565b610841565b61033c61036736600461228f565b61087c565b61027261037a3660046122b9565b6108e0565b6102d57f000000000000000000000000000000000000000000000000000000000000000081565b7f00000000000000000000000000000000000000000000000000000000000000006102d5565b610209604051806040016040528060018152602001603160f81b81525081565b61033c6103fa36600461235f565b61097c565b61027261040d3660046122b9565b610a1f565b61033c6104203660046123d9565b610a3c565b610209610cbf565b61023261043b36600461228f565b610cce565b61023261044e36600461228f565b610d04565b7f00000000000000000000000000000000000000000000000000000000000000006102d5565b603d546001600160a01b03166102d5565b610232610498366004612312565b610d26565b610272610db3565b6102326104b33660046124ae565b610dbd565b6102d57f000000000000000000000000000000000000000000000000000000000000000081565b61033c6104ed3660046122d4565b610e1f565b61033c6105003660046124f1565b610f7e565b61027261051336600461255b565b6001600160a01b039182165f90815260356020908152604080832093909416825291909152205490565b61027261054b3660046122b9565b6001600160a01b03165f90815260346020526040902054600160801b90046001600160801b031690565b60606037805461058490612592565b80601f01602080910402602001604051908101604052809291908181526020018280546105b090612592565b80156105fb5780601f106105d2576101008083540402835291602001916105fb565b820191905f5260205f20905b8154815290600101906020018083116105de57829003601f168201915b5050505050905090565b5f61061133848461110e565b5060015b92915050565b5f5f6106268361116e565b60365491509150915091565b603d5460405163d15e005360e01b81526001600160a01b0391821660048201525f916106cf917f00000000000000000000000000000000000000000000000000000000000000009091169063d15e005390602401602060405180830381865afa1580156106a1573d5f5f3e3d5ffd5b505050506040513d601f19601f820116820180604052508101906106c591906125c4565b6036545b90611191565b905090565b5f6106158261116e565b603d5460405163d15e005360e01b81526001600160a01b0391821660048201525f9182917f00000000000000000000000000000000000000000000000000000000000000009091169063d15e005390602401602060405180830381865afa15801561074b573d5f5f3e3d5ffd5b505050506040513d601f19601f8201168201806040525081019061076f91906125c4565b90505f61077b8661116e565b90506107b486338661079b8661079183826111a3565b6106c990886125ef565b6107a58688611191565b6107af91906125ef565b6111ae565b6107c786866107c287611237565b61126e565b50600195945050505050565b337f00000000000000000000000000000000000000000000000000000000000000006001600160a01b03161461081c57604051632a59ce7160e11b815260040160405180910390fd5b61083185858561082b86611237565b856113f3565b5050505050565b5f6106cf6116b5565b335f8181526035602090815260408083206001600160a01b03871684529091528120549091610611918590610877908690612602565b61110e565b337f00000000000000000000000000000000000000000000000000000000000000006001600160a01b0316146108c557604051632a59ce7160e11b815260040160405180910390fd5b603d546108dc906001600160a01b031683836116ec565b5050565b603d5460405163d15e005360e01b81526001600160a01b0391821660048201525f91610615917f00000000000000000000000000000000000000000000000000000000000000009091169063d15e005390602401602060405180830381865afa15801561094f573d5f5f3e3d5ffd5b505050506040513d601f19601f8201168201806040525081019061097391906125c4565b6106c98461116e565b337f00000000000000000000000000000000000000000000000000000000000000006001600160a01b0316146109c557604051632a59ce7160e11b815260040160405180910390fd5b81156108dc57610a1a7f00000000000000000000000000000000000000000000000000000000000000007f00000000000000000000000000000000000000000000000000000000000000008484611191611774565b505050565b6001600160a01b0381165f908152603a6020526040812054610615565b60015460049060ff1680610a4f5750303b155b80610a5a57505f5481115b610ac25760405162461bcd60e51b815260206004820152602e60248201527f436f6e747261637420696e7374616e63652068617320616c726561647920626560448201526d195b881a5b9a5d1a585b1a5e995960921b60648201526084015b60405180910390fd5b60015460ff16158015610ae0576001805460ff1916811790555f8290555b7f00000000000000000000000000000000000000000000000000000000000000006001600160a01b03168b6001600160a01b031614610b3257604051634c2b89eb60e01b815260040160405180910390fd5b610b7088888080601f0160208091040260200160405190810160405280939291908181526020018383808284375f920191909152506118f492505050565b610bae86868080601f0160208091040260200160405190810160405280939291908181526020018383808284375f9201919091525061190092505050565b6039805460ff191660ff8b16179055603d80546001600160a01b0319166001600160a01b038c16179055610be061190c565b603b819055507f00000000000000000000000000000000000000000000000000000000000000006001600160a01b03168a6001600160a01b03167fb19e051f8af41150ccccb3fc2c2d8d15f4a4cf434f32a559ba75fe73d6eea20b7f00000000000000000000000000000000000000000000000000000000000000007f00000000000000000000000000000000000000000000000000000000000000008d8d8d8d8d8d8d604051610c999998979695949392919061263d565b60405180910390a38015610cb2576001805460ff191690555b5050505050505050505050565b60606038805461058490612592565b335f8181526035602090815260408083206001600160a01b038716845290915281205490916106119185906108779086906125ef565b5f5f610d0f83611237565b9050610d1c33858361126e565b5060019392505050565b5f337f00000000000000000000000000000000000000000000000000000000000000006001600160a01b031614610d7057604051632a59ce7160e11b815260040160405180910390fd5b5f610d80878786866111916119b4565b90506001600160a01b0386163014610da957603d54610da9906001600160a01b031687876116ec565b9695505050505050565b5f6106cf60365490565b5f337f00000000000000000000000000000000000000000000000000000000000000006001600160a01b031614610e0757604051632a59ce7160e11b815260040160405180910390fd5b610e1685858585611191611774565b95945050505050565b5f7f00000000000000000000000000000000000000000000000000000000000000006001600160a01b031663707cd7166040518163ffffffff1660e01b8152600401602060405180830381865afa158015610e7c573d5f5f3e3d5ffd5b505050506040513d601f19601f82011682018060405250810190610ea091906126aa565b90506001600160a01b038116637be53ca1336040516001600160e01b031960e084901b1681526001600160a01b039091166004820152602401602060405180830381865afa158015610ef4573d5f5f3e3d5ffd5b505050506040513d601f19601f82011682018060405250810190610f1891906126c5565b610f355760405163cdd36a9760e01b815260040160405180910390fd5b603d546001600160a01b0390811690851603610f645760405163bf9cb8bb60e01b815260040160405180910390fd5b610f786001600160a01b03851684846116ec565b50505050565b6001600160a01b038716610fa557604051633bf95ba760e01b815260040160405180910390fd5b83421115610fc657604051637d9533a960e11b815260040160405180910390fd5b6001600160a01b0387165f908152603a602052604081205490610fe7610838565b604080517f6e71edae12b1b97f4d1f60370fef10105fa2faae0126114a169c64845d6126c960208201526001600160a01b03808d1692820192909252908a1660608201526080810189905260a0810184905260c0810188905260e0016040516020818303038152906040528051906020012060405160200161108092919061190160f01b81526002810192909252602282015260420190565b6040516020818303038152906040528051906020012090506110a481868686611bd8565b6001600160a01b0316896001600160a01b0316146110d557604051638baa579f60e01b815260040160405180910390fd5b6110e0826001612602565b6001600160a01b038a165f908152603a602052604090205561110389898961110e565b505050505050505050565b6001600160a01b038381165f8181526035602090815260408083209487168084529482529182902085905590518481527f8c5be1e5ebec7d5bd14f71427d1e84f3dd0314c0f7b2291e5b200ac8c7c3b925910160405180910390a3505050565b6001600160a01b03165f908152603460205260409020546001600160781b031690565b5f61119c8383611c04565b9392505050565b5f61119c8383611c2b565b6001600160a01b038085165f908152603560209081526040808320938716835292905220548281101561120d57604051637dc7a0d960e11b81526001600160a01b03851660048201526024810182905260448101849052606401610ab9565b5f8282101561121c578161121e565b825b905061122f868661087784866125ef565b505050505050565b5f6001600160781b0382111561126a576040516306dfcc6560e41b81526078600482015260248101839052604401610ab9565b5090565b603d5460405163d15e005360e01b81526001600160a01b0391821660048201819052915f917f00000000000000000000000000000000000000000000000000000000000000009091169063d15e005390602401602060405180830381865afa1580156112dc573d5f5f3e3d5ffd5b505050506040513d601f19601f8201168201806040525081019061130091906125c4565b90505f61130c8661116e565b90505f6113188661116e565b90505f61132e6001600160781b038716856111a3565b905061134e8888886001600160781b031661134885611237565b886113f3565b60405163d5ed393360e01b81526001600160a01b03868116600483015289811660248301528881166044830152606482018390526084820185905260a482018490527f0000000000000000000000000000000000000000000000000000000000000000169063d5ed39339060c4015f604051808303815f87803b1580156113d3575f5ffd5b505af11580156113e5573d5f5f3e3d5ffd5b505050505050505050505050565b5f6113fd8661116e565b6001600160a01b0387165f9081526034602052604081205491925090611434908390600160801b90046001600160801b0316611191565b61143e8385611191565b61144891906125ef565b90505f6114548761116e565b6001600160a01b0388165f908152603460205260408120549192509061148b908390600160801b90046001600160801b0316611191565b6114958387611191565b61149f91906125ef565b90506114aa85611c6e565b6001600160a01b038a165f90815260346020526040902080546001600160801b03928316600160801b0292169190911790556114e585611c6e565b6001600160a01b0389165f90815260346020526040902080546001600160801b03928316600160801b029216919091179055611522898988611ca1565b8215611590576040518381526001600160a01b038a16905f905f5160206128945f395f51905f529060200160405180910390a3604080518481526020810185905280820187905290516001600160a01b038b169133915f5160206128745f395f51905f529181900360600190a35b876001600160a01b0316896001600160a01b0316141580156115b157505f81115b1561161e576040518181526001600160a01b038916905f905f5160206128945f395f51905f529060200160405180910390a3604080518281526020810183905280820187905290516001600160a01b038a169133915f5160206128745f395f51905f529181900360600190a35b876001600160a01b0316896001600160a01b03165f5160206128945f395f51905f528960405161165091815260200190565b60405180910390a3604080516001600160781b0388168152602081018790526001600160a01b03808b1692908c16917f4beccb90f994c31aced7a23b5611020728a23d8ec5cddd1a3e9d97b96fda8666910160405180910390a3505050505050505050565b5f7f000000000000000000000000000000000000000000000000000000000000000046036116e45750603b5490565b6106cf61190c565b60405163a9059cbb60e01b8082526001600160a01b038416600483015260248201839052905f8060448382895af1611726573d5f5f3e3d5ffd5b5061173084611e8d565b610f785760405162461bcd60e51b815260206004820152601560248201527423a83b191d103330b4b632b2103a3930b739b332b960591b6044820152606401610ab9565b5f835f036117955760405163199f5a0360e31b815260040160405180910390fd5b5f61179f8661116e565b90505f6117b96117af8388612602565b868663ffffffff16565b6001600160a01b0388165f90815260346020526040812054919250906117f4908490600160801b90046001600160801b031663ffffffff8816565b90505f8161180685898963ffffffff16565b61181091906125ef565b905061181b87611c6e565b6001600160a01b038a165f90815260346020526040902080546001600160801b03928316600160801b02921691909117905561185f8961185a8a611237565b611f30565b5f61186a83856125ef565b9050896001600160a01b03165f6001600160a01b03165f5160206128945f395f51905f528360405161189e91815260200190565b60405180910390a360408051828152602081018490529081018990526001600160a01b03808c1691908d16905f5160206128745f395f51905f529060600160405180910390a35050911598975050505050505050565b60376108dc828261273c565b60386108dc828261273c565b5f7f8b73c3c69bb8fe3d512ecc4cf759cc79239f7b179b0ffacaa9a75d522b39400f611936612055565b805160209182012060408051808201825260018152603160f81b90840152805192830193909352918101919091527fc89efdaa54c0f20c7adf612882df0950f5a951637e0307cdcb4c672f298b8bc660608201524660808201523060a082015260c00160405160208183030381529060405280519060200120905090565b5f835f036119d5576040516302075cc160e41b815260040160405180910390fd5b5f6119df8761116e565b90505f6119ef6117af87846125ef565b6001600160a01b0389165f9081526034602052604081205491925090611a2a908490600160801b90046001600160801b031663ffffffff8816565b90505f81611a3c85898963ffffffff16565b611a4691906125ef565b9050611a5187611c6e565b6001600160a01b038b165f90815260346020526040902080546001600160801b03928316600160801b029216919091179055611a958a611a908a611237565b61205f565b81831115611b25575f611aa883856125ef565b90508a6001600160a01b03165f6001600160a01b03165f5160206128945f395f51905f5283604051611adc91815260200190565b60405180910390a360408051828152602081018490529081018990526001600160a01b038c169081905f5160206128745f395f51905f529060600160405180910390a350611bbf565b5f611b3084846125ef565b90505f6001600160a01b03168b6001600160a01b03165f5160206128945f395f51905f5283604051611b6491815260200190565b60405180910390a360408051828152602081018490529081018990526001600160a01b03808c1691908d16907f4cf25bc1d991c17529c25213d3cc0cda295eeaad5f13f361969b12ea48015f909060600160405180910390a3505b611bc988856125ef565b159a9950505050505050505050565b5f5f5f5f611be8888888886120a3565b925092509250611bf8828261216b565b50909695505050505050565b5f815f1904831115821517611c17575f5ffd5b506b033b2e3c9fd0803ce800000091020490565b5f8115744f3a68dbc8f03f243baf513267aa9a3ee524f8e02884111715611c50575f5ffd5b506b033b2e3c9fd0803ce80000009190910281810491900615150190565b5f6001600160801b0382111561126a576040516306dfcc6560e41b81526080600482015260248101839052604401610ab9565b6001600160a01b0383165f908152603460205260409020546001600160781b0316611ccc82826127f7565b6001600160a01b038581165f9081526034602052604080822080546001600160781b0319166001600160781b039586161790559186168152205416611d118382612816565b6001600160a01b038581165f90815260346020526040902080546001600160781b0319166001600160781b0393909316929092179091557f00000000000000000000000000000000000000000000000000000000000000001615610831576036546040516318c39f1760e11b81526001600160a01b037f000000000000000000000000000000000000000000000000000000000000000016906331873e2e90611dc290899085908890600401612835565b5f604051808303815f87803b158015611dd9575f5ffd5b505af1158015611deb573d5f5f3e3d5ffd5b50505050846001600160a01b0316866001600160a01b03161461122f576040516318c39f1760e11b81526001600160a01b037f000000000000000000000000000000000000000000000000000000000000000016906331873e2e90611e5890889085908790600401612835565b5f604051808303815f87803b158015611e6f575f5ffd5b505af1158015611e81573d5f5f3e3d5ffd5b50505050505050505050565b5f611eaf565b62461bcd60e51b5f52602060045280602452508060445260645ffd5b3d8015611eee5760208114611f1f57611ee97f475076323a206d616c666f726d6564207472616e7366657220726573756c7400601f611e93565b611f2a565b823b611f1657611f167311d41d8c8e881b9bdd08184818dbdb9d1c9858dd60621b6014611e93565b60019150611f2a565b3d5f5f3e5f51151591505b50919050565b603654611f466001600160781b03831682612602565b6036556001600160a01b0383165f908152603460205260409020546001600160781b0316611f748382612816565b6001600160a01b038581165f90815260346020526040902080546001600160781b0319166001600160781b0393909316929092179091557f00000000000000000000000000000000000000000000000000000000000000001615610f78576040516318c39f1760e11b81526001600160a01b037f000000000000000000000000000000000000000000000000000000000000000016906331873e2e9061202290879086908690600401612835565b5f604051808303815f87803b158015612039575f5ffd5b505af115801561204b573d5f5f3e3d5ffd5b5050505050505050565b60606106cf610575565b6036546120756001600160781b038316826125ef565b6036556001600160a01b0383165f908152603460205260409020546001600160781b0316611f7483826127f7565b5f80807f7fffffffffffffffffffffffffffffff5d576e7357a4501ddfe92f46681b20a08411156120dc57505f91506003905082612161565b604080515f808252602082018084528a905260ff891692820192909252606081018790526080810186905260019060a0016020604051602081039080840390855afa15801561212d573d5f5f3e3d5ffd5b5050604051601f1901519150506001600160a01b03811661215857505f925060019150829050612161565b92505f91508190505b9450945094915050565b5f82600381111561217e5761217e61285f565b03612187575050565b600182600381111561219b5761219b61285f565b036121b95760405163f645eedf60e01b815260040160405180910390fd5b60028260038111156121cd576121cd61285f565b036121ee5760405163fce698f760e01b815260048101829052602401610ab9565b60038260038111156122025761220261285f565b036108dc576040516335e2f38360e21b815260048101829052602401610ab9565b5f81518084525f5b818110156122475760208185018101518683018201520161222b565b505f602082860101526020601f19601f83011685010191505092915050565b602081525f61119c6020830184612223565b6001600160a01b038116811461228c575f5ffd5b50565b5f5f604083850312156122a0575f5ffd5b82356122ab81612278565b946020939093013593505050565b5f602082840312156122c9575f5ffd5b813561119c81612278565b5f5f5f606084860312156122e6575f5ffd5b83356122f181612278565b9250602084013561230181612278565b929592945050506040919091013590565b5f5f5f5f5f60a08688031215612326575f5ffd5b853561233181612278565b9450602086013561234181612278565b94979496505050506040830135926060810135926080909101359150565b5f5f60408385031215612370575f5ffd5b50508035926020909101359150565b803560ff8116811461238f575f5ffd5b919050565b5f5f83601f8401126123a4575f5ffd5b50813567ffffffffffffffff8111156123bb575f5ffd5b6020830191508360208285010111156123d2575f5ffd5b9250929050565b5f5f5f5f5f5f5f5f5f60c08a8c0312156123f1575f5ffd5b89356123fc81612278565b985060208a013561240c81612278565b975061241a60408b0161237f565b965060608a013567ffffffffffffffff811115612435575f5ffd5b6124418c828d01612394565b90975095505060808a013567ffffffffffffffff811115612460575f5ffd5b61246c8c828d01612394565b90955093505060a08a013567ffffffffffffffff81111561248b575f5ffd5b6124978c828d01612394565b915080935050809150509295985092959850929598565b5f5f5f5f608085870312156124c1575f5ffd5b84356124cc81612278565b935060208501356124dc81612278565b93969395505050506040820135916060013590565b5f5f5f5f5f5f5f60e0888a031215612507575f5ffd5b873561251281612278565b9650602088013561252281612278565b9550604088013594506060880135935061253e6080890161237f565b9699959850939692959460a0840135945060c09093013592915050565b5f5f6040838503121561256c575f5ffd5b823561257781612278565b9150602083013561258781612278565b809150509250929050565b600181811c908216806125a657607f821691505b602082108103611f2a57634e487b7160e01b5f52602260045260245ffd5b5f602082840312156125d4575f5ffd5b5051919050565b634e487b7160e01b5f52601160045260245ffd5b81810381811115610615576106156125db565b80820180821115610615576106156125db565b81835281816020850137505f828201602090810191909152601f909101601f19169091010190565b6001600160a01b038a811682528916602082015260ff8816604082015260c0606082018190525f90612672908301888a612615565b8281036080840152612685818789612615565b905082810360a084015261269a818587612615565b9c9b505050505050505050505050565b5f602082840312156126ba575f5ffd5b815161119c81612278565b5f602082840312156126d5575f5ffd5b8151801515811461119c575f5ffd5b634e487b7160e01b5f52604160045260245ffd5b601f821115610a1a57805f5260205f20601f840160051c8101602085101561271d5750805b601f840160051c820191505b81811015610831575f8155600101612729565b815167ffffffffffffffff811115612756576127566126e4565b61276a816127648454612592565b846126f8565b6020601f82116001811461279c575f83156127855750848201515b5f19600385901b1c1916600184901b178455610831565b5f84815260208120601f198516915b828110156127cb57878501518255602094850194600190920191016127ab565b50848210156127e857868401515f19600387901b60f8161c191681555b50505050600190811b01905550565b6001600160781b038281168282160390811115610615576106156125db565b6001600160781b038181168382160190811115610615576106156125db565b6001600160a01b0393909316835260208301919091526001600160781b0316604082015260600190565b634e487b7160e01b5f52602160045260245ffdfe458f5fa412d0f69b08dd84872b0215675cc67bc1d5b6fd93300a1c3878b86196ddf252ad1be2c89b69c2b068fc378daa952ba7f163c4a11628f55a4df523b3efa164736f6c634300081b000a6101006040525f5f55348015610013575f5ffd5b50604051611fdf380380611fdf833981016040819052610032916101aa565b8181816040518060400160405280601881526020017f5641524941424c455f444542545f544f4b454e5f494d504c00000000000000008152506040518060400160405280601881526020017f5641524941424c455f444542545f544f4b454e5f494d504c00000000000000008152505f84848484848484848484846100bb61018e60201b60201c565b5f554660805260408051630150a5d760e21b815290516001600160a01b03871691630542975c9160048083019260209291908290030181865afa158015610104573d5f5f3e3d5ffd5b505050506040513d601f19601f8201168201806040525081019061012891906101e2565b6001600160a01b031660a052603b610140858261029c565b50603c61014d848261029c565b50603d805460ff90931660ff19909316929092179091556001600160a01b0393841660c05290921660e052506103569e505050505050505050505050505050565b600490565b6001600160a01b03811681146101a7575f5ffd5b50565b5f5f604083850312156101bb575f5ffd5b82516101c681610193565b60208401519092506101d781610193565b809150509250929050565b5f602082840312156101f2575f5ffd5b81516101fd81610193565b9392505050565b634e487b7160e01b5f52604160045260245ffd5b600181811c9082168061022c57607f821691505b60208210810361024a57634e487b7160e01b5f52602260045260245ffd5b50919050565b601f82111561029757805f5260205f20601f840160051c810160208510156102755750805b601f840160051c820191505b81811015610294575f8155600101610281565b50505b505050565b81516001600160401b038111156102b5576102b5610204565b6102c9816102c38454610218565b84610250565b6020601f8211600181146102fb575f83156102e45750848201515b5f19600385901b1c1916600184901b178455610294565b5f84815260208120601f198516915b8281101561032a578785015182556020948501946001909201910161030a565b508482101561034757868401515f19600387901b60f8161c191681555b50505050600190811b01905550565b60805160a05160c05160e051611c136103cc5f395f81816103330152818161040601528181610a23015281816114f8015261155201525f81816102f70152818161072f0152818161081801528181610932015281816109ce01528181610a8f0152610b6801525f50505f6107bc0152611c135ff3fe608060405234801561000f575f5ffd5b50600436106101d1575f3560e01c80637ecebe00116100fe578063b1bf962d1161009e578063dd62ed3e1161006e578063dd62ed3e14610428578063e075398614610436578063f3bfc7381461046e578063f5298aca14610495575f5ffd5b8063b1bf962d146103de578063b9a7b622146103e6578063c04a8a10146103ee578063cd086d4514610401575f5ffd5b80639ceeaca7116100d95780639ceeaca7146103ba578063a457c2d7146101f3578063a9059cbb146101f3578063b16a19de146103cd575f5ffd5b80637ecebe00146103775780637fdd585f1461039f57806395d89b41146103b2575f5ffd5b8063313ce5671161017457806370a082311161014457806370a08231146102df5780637535d246146102f257806375d26413146103315780637816037614610357575f5ffd5b8063313ce5671461028a5780633644e5151461029f57806339509351146101f35780636bd76d24146102a7575f5ffd5b80630b52d558116101af5780630b52d5581461023e57806318160ddd146102535780631da24f3e1461026957806323b872dd1461027c575f5ffd5b806306fdde03146101d5578063095ea7b3146101f35780630afbcdc914610216575b5f5ffd5b6101dd6104bf565b6040516101ea9190611637565b60405180910390f35b610206610201366004611660565b61054f565b60405190151581526020016101ea565b61022961022436600461168a565b610569565b604080519283526020830191909152016101ea565b61025161024c3660046116ba565b610580565b005b61025b610707565b6040519081526020016101ea565b61025b61027736600461168a565b6107a9565b610206610201366004611724565b603d5460405160ff90911681526020016101ea565b61025b6107b9565b61025b6102b5366004611762565b6001600160a01b039182165f90815260366020908152604080832093909416825291909152205490565b61025b6102ed36600461168a565b6107f0565b6103197f000000000000000000000000000000000000000000000000000000000000000081565b6040516001600160a01b0390911681526020016101ea565b7f0000000000000000000000000000000000000000000000000000000000000000610319565b6101dd604051806040016040528060018152602001603160f81b81525081565b61025b61038536600461168a565b6001600160a01b03165f9081526034602052604090205490565b6102516103ad366004611838565b61088c565b6101dd610a7c565b61025b6103c8366004611930565b610a8b565b6037546001600160a01b0316610319565b61025b610b4a565b61025b600481565b6102516103fc366004611660565b610b54565b6103197f000000000000000000000000000000000000000000000000000000000000000081565b61025b610201366004611762565b61025b61044436600461168a565b6001600160a01b03165f90815260386020526040902054600160801b90046001600160801b031690565b61025b7f323db0410fecc107e39e2af5908671f4c8d106123b35a51501bb805c5fa36aa081565b6104a86104a336600461197d565b610b63565b6040805192151583526020830191909152016101ea565b6060603b80546104ce906119af565b80601f01602080910402602001604051908101604052809291908181526020018280546104fa906119af565b80156105455780601f1061051c57610100808354040283529160200191610545565b820191905f5260205f20905b81548152906001019060200180831161052857829003601f168201915b5050505050905090565b5f6040516329a270f560e01b815260040160405180910390fd5b5f5f61057483610bd1565b603a5491509150915091565b6001600160a01b0387166105a757604051633bf95ba760e01b815260040160405180910390fd5b834211156105c857604051637d9533a960e11b815260040160405180910390fd5b6001600160a01b0387165f90815260346020526040812054906105e96107b9565b604080517f323db0410fecc107e39e2af5908671f4c8d106123b35a51501bb805c5fa36aa060208201526001600160a01b038b1691810191909152606081018990526080810184905260a0810188905260c0016040516020818303038152906040528051906020012060405160200161067992919061190160f01b81526002810192909252602282015260420190565b60405160208183030381529060405280519060200120905061069d81868686610bf4565b6001600160a01b0316896001600160a01b0316146106ce57604051638baa579f60e01b815260040160405180910390fd5b6106d98260016119fb565b6001600160a01b038a165f908152603460205260409020556106fc898989610c20565b505050505050505050565b60375460405163386497fd60e01b81526001600160a01b0391821660048201525f916107a4917f00000000000000000000000000000000000000000000000000000000000000009091169063386497fd90602401602060405180830381865afa158015610776573d5f5f3e3d5ffd5b505050506040513d601f19601f8201168201806040525081019061079a9190611a0e565b603a545b90610c89565b905090565b5f6107b382610bd1565b92915050565b5f7f000000000000000000000000000000000000000000000000000000000000000046036107e8575060355490565b6107a4610c9b565b60375460405163386497fd60e01b81526001600160a01b0391821660048201525f916107b3917f00000000000000000000000000000000000000000000000000000000000000009091169063386497fd90602401602060405180830381865afa15801561085f573d5f5f3e3d5ffd5b505050506040513d601f19601f820116820180604052508101906108839190611a0e565b61079e84610bd1565b60015460049060ff168061089f5750303b155b806108aa57505f5481115b6109125760405162461bcd60e51b815260206004820152602e60248201527f436f6e747261637420696e7374616e63652068617320616c726561647920626560448201526d195b881a5b9a5d1a585b1a5e995960921b60648201526084015b60405180910390fd5b60015460ff16158015610930576001805460ff1916811790555f8290555b7f00000000000000000000000000000000000000000000000000000000000000006001600160a01b0316896001600160a01b03161461098257604051634c2b89eb60e01b815260040160405180910390fd5b61098b86610d43565b61099485610d4f565b603d805460ff191660ff8916179055603780546001600160a01b0319166001600160a01b038a161790556109c6610c9b565b6035819055507f00000000000000000000000000000000000000000000000000000000000000006001600160a01b0316886001600160a01b03167f40251fbfb6656cfa65a00d7879029fec1fad21d28fdcff2f4f68f52795b74f2c7f00000000000000000000000000000000000000000000000000000000000000008a8a8a8a8a604051610a5996959493929190611a25565b60405180910390a380156106fc576001805460ff19169055505050505050505050565b6060603c80546104ce906119af565b5f337f00000000000000000000000000000000000000000000000000000000000000006001600160a01b031614610ad557604051632a59ce7160e11b815260040160405180910390fd5b5f610adf87610bd1565b9050856001600160a01b0316876001600160a01b031614610b2757610b27868887610b0a8588610c89565b610b188861079e8b896119fb565b610b229190611a9a565b610d5b565b610b3687878686610c89610e4d565b50610b3f610b4a565b979650505050505050565b5f6107a4603a5490565b610b5f338383610c20565b5050565b5f80337f00000000000000000000000000000000000000000000000000000000000000006001600160a01b031614610bae57604051632a59ce7160e11b815260040160405180910390fd5b610bbd855f8686610c89610ff3565b610bc5610b4a565b91509150935093915050565b6001600160a01b03165f908152603860205260409020546001600160781b031690565b5f5f5f5f610c0488888888611250565b925092509250610c148282611318565b50909695505050505050565b6001600160a01b038381165f8181526036602090815260408083208786168085529083529281902086905560375490518681529416939192917fda919360433220e13b51e8c211e490d148e61a3bd53de8c097194e458b97f3e1910160405180910390a4505050565b5f610c9483836113d0565b9392505050565b5f7f8b73c3c69bb8fe3d512ecc4cf759cc79239f7b179b0ffacaa9a75d522b39400f610cc56113ff565b805160209182012060408051808201825260018152603160f81b90840152805192830193909352918101919091527fc89efdaa54c0f20c7adf612882df0950f5a951637e0307cdcb4c672f298b8bc660608201524660808201523060a082015260c00160405160208183030381529060405280519060200120905090565b603b610b5f8282611af9565b603c610b5f8282611af9565b6001600160a01b038085165f9081526036602090815260408083209387168352929052205482811015610dba57604051631cb19ef360e01b81526001600160a01b03851660048201526024810182905260448101849052606401610909565b5f82821015610dc95781610dcb565b825b90505f610dd88284611a9a565b6001600160a01b038089165f8181526036602090815260408083208c861680855292529182902085905560375491519495509216927fda919360433220e13b51e8c211e490d148e61a3bd53de8c097194e458b97f3e190610e3c9086815260200190565b60405180910390a450505050505050565b5f835f03610e6e5760405163199f5a0360e31b815260040160405180910390fd5b5f610e7886610bd1565b90505f610e92610e8883886119fb565b868663ffffffff16565b6001600160a01b0388165f9081526038602052604081205491925090610ecd908490600160801b90046001600160801b031663ffffffff8816565b90505f81610edf85898963ffffffff16565b610ee99190611a9a565b9050610ef487611409565b6001600160a01b038a165f90815260386020526040902080546001600160801b03928316600160801b029216919091179055610f3889610f338a611440565b611473565b5f610f438385611a9a565b9050896001600160a01b03165f6001600160a01b03167fddf252ad1be2c89b69c2b068fc378daa952ba7f163c4a11628f55a4df523b3ef83604051610f8a91815260200190565b60405180910390a360408051828152602081018490529081018990526001600160a01b03808c1691908d16907f458f5fa412d0f69b08dd84872b0215675cc67bc1d5b6fd93300a1c3878b861969060600160405180910390a35050911598975050505050505050565b5f835f03611014576040516302075cc160e41b815260040160405180910390fd5b5f61101e87610bd1565b90505f61102e610e888784611a9a565b6001600160a01b0389165f9081526038602052604081205491925090611069908490600160801b90046001600160801b031663ffffffff8816565b90505f8161107b85898963ffffffff16565b6110859190611a9a565b905061109087611409565b6001600160a01b038b165f90815260386020526040902080546001600160801b03928316600160801b0292169190911790556110d48a6110cf8a611440565b6115b0565b8183111561118a575f6110e78385611a9a565b90508a6001600160a01b03165f6001600160a01b03167fddf252ad1be2c89b69c2b068fc378daa952ba7f163c4a11628f55a4df523b3ef8360405161112e91815260200190565b60405180910390a360408051828152602081018490529081018990526001600160a01b038c169081907f458f5fa412d0f69b08dd84872b0215675cc67bc1d5b6fd93300a1c3878b861969060600160405180910390a350611237565b5f6111958484611a9a565b90505f6001600160a01b03168b6001600160a01b03167fddf252ad1be2c89b69c2b068fc378daa952ba7f163c4a11628f55a4df523b3ef836040516111dc91815260200190565b60405180910390a360408051828152602081018490529081018990526001600160a01b03808c1691908d16907f4cf25bc1d991c17529c25213d3cc0cda295eeaad5f13f361969b12ea48015f909060600160405180910390a3505b6112418885611a9a565b159a9950505050505050505050565b5f80807f7fffffffffffffffffffffffffffffff5d576e7357a4501ddfe92f46681b20a084111561128957505f9150600390508261130e565b604080515f808252602082018084528a905260ff891692820192909252606081018790526080810186905260019060a0016020604051602081039080840390855afa1580156112da573d5f5f3e3d5ffd5b5050604051601f1901519150506001600160a01b03811661130557505f92506001915082905061130e565b92505f91508190505b9450945094915050565b5f82600381111561132b5761132b611bb4565b03611334575050565b600182600381111561134857611348611bb4565b036113665760405163f645eedf60e01b815260040160405180910390fd5b600282600381111561137a5761137a611bb4565b0361139b5760405163fce698f760e01b815260048101829052602401610909565b60038260038111156113af576113af611bb4565b03610b5f576040516335e2f38360e21b815260048101829052602401610909565b5f815f19048311158215176113e3575f5ffd5b506b033b2e3c9fd0803ce8000000910281810491900615150190565b60606107a46104bf565b5f6001600160801b0382111561143c576040516306dfcc6560e41b81526080600482015260248101839052604401610909565b5090565b5f6001600160781b0382111561143c576040516306dfcc6560e41b81526078600482015260248101839052604401610909565b603a546114896001600160781b038316826119fb565b603a556001600160a01b0383165f908152603860205260409020546001600160781b03166114b78382611bc8565b6001600160a01b038581165f90815260386020526040902080546effffffffffffffffffffffffffffff19166001600160781b0393909316929092179091557f000000000000000000000000000000000000000000000000000000000000000016156115aa576040516318c39f1760e11b81526001600160a01b038581166004830152602482018490526001600160781b03831660448301527f000000000000000000000000000000000000000000000000000000000000000016906331873e2e906064015f604051808303815f87803b158015611593575f5ffd5b505af11580156115a5573d5f5f3e3d5ffd5b505050505b50505050565b603a546115c66001600160781b03831682611a9a565b603a556001600160a01b0383165f908152603860205260409020546001600160781b03166114b78382611be7565b5f81518084525f5b81811015611618576020818501810151868301820152016115fc565b505f602082860101526020601f19601f83011685010191505092915050565b602081525f610c9460208301846115f4565b6001600160a01b038116811461165d575f5ffd5b50565b5f5f60408385031215611671575f5ffd5b823561167c81611649565b946020939093013593505050565b5f6020828403121561169a575f5ffd5b8135610c9481611649565b803560ff811681146116b5575f5ffd5b919050565b5f5f5f5f5f5f5f60e0888a0312156116d0575f5ffd5b87356116db81611649565b965060208801356116eb81611649565b95506040880135945060608801359350611707608089016116a5565b9699959850939692959460a0840135945060c09093013592915050565b5f5f5f60608486031215611736575f5ffd5b833561174181611649565b9250602084013561175181611649565b929592945050506040919091013590565b5f5f60408385031215611773575f5ffd5b823561177e81611649565b9150602083013561178e81611649565b809150509250929050565b634e487b7160e01b5f52604160045260245ffd5b5f82601f8301126117bc575f5ffd5b813567ffffffffffffffff8111156117d6576117d6611799565b604051601f8201601f19908116603f0116810167ffffffffffffffff8111828210171561180557611805611799565b60405281815283820160200185101561181c575f5ffd5b816020850160208301375f918101602001919091529392505050565b5f5f5f5f5f5f5f60c0888a03121561184e575f5ffd5b873561185981611649565b9650602088013561186981611649565b9550611877604089016116a5565b9450606088013567ffffffffffffffff811115611892575f5ffd5b61189e8a828b016117ad565b945050608088013567ffffffffffffffff8111156118ba575f5ffd5b6118c68a828b016117ad565b93505060a088013567ffffffffffffffff8111156118e2575f5ffd5b8801601f81018a136118f2575f5ffd5b803567ffffffffffffffff811115611908575f5ffd5b8a6020828401011115611919575f5ffd5b602082019350809250505092959891949750929550565b5f5f5f5f5f60a08688031215611944575f5ffd5b853561194f81611649565b9450602086013561195f81611649565b94979496505050506040830135926060810135926080909101359150565b5f5f5f6060848603121561198f575f5ffd5b833561199a81611649565b95602085013595506040909401359392505050565b600181811c908216806119c357607f821691505b6020821081036119e157634e487b7160e01b5f52602260045260245ffd5b50919050565b634e487b7160e01b5f52601160045260245ffd5b808201808211156107b3576107b36119e7565b5f60208284031215611a1e575f5ffd5b5051919050565b6001600160a01b038716815260ff8616602082015260a0604082018190525f90611a51908301876115f4565b8281036060840152611a6381876115f4565b90508281036080840152838152838560208301375f602085830101526020601f19601f860116820101915050979650505050505050565b818103818111156107b3576107b36119e7565b601f821115611af457805f5260205f20601f840160051c81016020851015611ad25750805b601f840160051c820191505b81811015611af1575f8155600101611ade565b50505b505050565b815167ffffffffffffffff811115611b1357611b13611799565b611b2781611b2184546119af565b84611aad565b6020601f821160018114611b59575f8315611b425750848201515b5f19600385901b1c1916600184901b178455611af1565b5f84815260208120601f198516915b82811015611b885787850151825560209485019460019092019101611b68565b5084821015611ba557868401515f19600387901b60f8161c191681555b50505050600190811b01905550565b634e487b7160e01b5f52602160045260245ffd5b6001600160781b0381811683821601908111156107b3576107b36119e7565b6001600160781b0382811682821603908111156107b3576107b36119e756fea164736f6c634300081b000a","linkReferences":{}},"methodIdentifiers":{"getTokensReport()":"96e0b6ad"},"id":308}