{"abi":[{"type":"constructor","inputs":[{"name":"addressesProvider","type":"address","internalType":"contract IPoolAddressesProvider"},{"name":"augustusRegistry","type":"address","internalType":"contract IParaSwapAugustusRegistry"},{"name":"owner","type":"address","internalType":"address"}],"stateMutability":"nonpayable"},{"type":"function","name":"ADDRESSES_PROVIDER","inputs":[],"outputs":[{"name":"","type":"address","internalType":"contract IPoolAddressesProvider"}],"stateMutability":"view"},{"type":"function","name":"AUGUSTUS_REGISTRY","inputs":[],"outputs":[{"name":"","type":"address","internalType":"contract IParaSwapAugustusRegistry"}],"stateMutability":"view"},{"type":"function","name":"MAX_SLIPPAGE_PERCENT","inputs":[],"outputs":[{"name":"","type":"uint256","internalType":"uint256"}],"stateMutability":"view"},{"type":"function","name":"ORACLE","inputs":[],"outputs":[{"name":"","type":"address","internalType":"contract IPriceOracleGetter"}],"stateMutability":"view"},{"type":"function","name":"POOL","inputs":[],"outputs":[{"name":"","type":"address","internalType":"contract IPool"}],"stateMutability":"view"},{"type":"function","name":"executeOperation","inputs":[{"name":"asset","type":"address","internalType":"address"},{"name":"amount","type":"uint256","internalType":"uint256"},{"name":"premium","type":"uint256","internalType":"uint256"},{"name":"initiator","type":"address","internalType":"address"},{"name":"params","type":"bytes","internalType":"bytes"}],"outputs":[{"name":"","type":"bool","internalType":"bool"}],"stateMutability":"nonpayable"},{"type":"function","name":"owner","inputs":[],"outputs":[{"name":"","type":"address","internalType":"address"}],"stateMutability":"view"},{"type":"function","name":"renounceOwnership","inputs":[],"outputs":[],"stateMutability":"nonpayable"},{"type":"function","name":"rescueTokens","inputs":[{"name":"token","type":"address","internalType":"contract IERC20"}],"outputs":[],"stateMutability":"nonpayable"},{"type":"function","name":"swapAndRepay","inputs":[{"name":"collateralAsset","type":"address","internalType":"contract IERC20Detailed"},{"name":"debtAsset","type":"address","internalType":"contract IERC20Detailed"},{"name":"collateralAmount","type":"uint256","internalType":"uint256"},{"name":"debtRepayAmount","type":"uint256","internalType":"uint256"},{"name":"debtRateMode","type":"uint256","internalType":"uint256"},{"name":"buyAllBalanceOffset","type":"uint256","internalType":"uint256"},{"name":"paraswapData","type":"bytes","internalType":"bytes"},{"name":"permitSignature","type":"tuple","internalType":"struct BaseParaSwapAdapter.PermitSignature","components":[{"name":"amount","type":"uint256","internalType":"uint256"},{"name":"deadline","type":"uint256","internalType":"uint256"},{"name":"v","type":"uint8","internalType":"uint8"},{"name":"r","type":"bytes32","internalType":"bytes32"},{"name":"s","type":"bytes32","internalType":"bytes32"}]}],"outputs":[],"stateMutability":"nonpayable"},{"type":"function","name":"transferOwnership","inputs":[{"name":"newOwner","type":"address","internalType":"address"}],"outputs":[],"stateMutability":"nonpayable"},{"type":"event","name":"Bought","inputs":[{"name":"fromAsset","type":"address","indexed":true,"internalType":"address"},{"name":"toAsset","type":"address","indexed":true,"internalType":"address"},{"name":"amountSold","type":"uint256","indexed":false,"internalType":"uint256"},{"name":"receivedAmount","type":"uint256","indexed":false,"internalType":"uint256"}],"anonymous":false},{"type":"event","name":"OwnershipTransferred","inputs":[{"name":"previousOwner","type":"address","indexed":true,"internalType":"address"},{"name":"newOwner","type":"address","indexed":true,"internalType":"address"}],"anonymous":false},{"type":"event","name":"Swapped","inputs":[{"name":"fromAsset","type":"address","indexed":true,"internalType":"address"},{"name":"toAsset","type":"address","indexed":true,"internalType":"address"},{"name":"fromAmount","type":"uint256","indexed":false,"internalType":"uint256"},{"name":"receivedAmount","type":"uint256","indexed":false,"internalType":"uint256"}],"anonymous":false}],"bytecode":{"object":"0x610100604052348015610010575f5ffd5b506040516126ae3803806126ae83398101604081905261002f91610344565b82828180806001600160a01b03166080816001600160a01b031681525050806001600160a01b031663026b1d5f6040518163ffffffff1660e01b8152600401602060405180830381865afa158015610089573d5f5f3e3d5ffd5b505050506040513d601f19601f820116820180604052508101906100ad919061038e565b6001600160a01b031660a052505f80546001600160a01b031916339081178255604051909182915f51602061268e5f395f51905f52908290a350806001600160a01b031663fca513a86040518163ffffffff1660e01b8152600401602060405180830381865afa158015610123573d5f5f3e3d5ffd5b505050506040513d601f19601f82011682018060405250810190610147919061038e565b6001600160a01b0390811660c05260405163fb04e17b60e01b81525f6004820152908316915063fb04e17b90602401602060405180830381865afa158015610191573d5f5f3e3d5ffd5b505050506040513d601f19601f820116820180604052508101906101b591906103b0565b156102075760405162461bcd60e51b815260206004820152601c60248201527f4e6f7420612076616c696420417567757374757320616464726573730000000060448201526064015b60405180910390fd5b6001600160a01b031660e052506001805561022181610229565b5050506103cf565b5f546001600160a01b031633146102825760405162461bcd60e51b815260206004820181905260248201527f4f776e61626c653a2063616c6c6572206973206e6f7420746865206f776e657260448201526064016101fe565b6001600160a01b0381166102e75760405162461bcd60e51b815260206004820152602660248201527f4f776e61626c653a206e6577206f776e657220697320746865207a65726f206160448201526564647265737360d01b60648201526084016101fe565b5f80546040516001600160a01b03808516939216915f51602061268e5f395f51905f5291a35f80546001600160a01b0319166001600160a01b0392909216919091179055565b6001600160a01b0381168114610341575f5ffd5b50565b5f5f5f60608486031215610356575f5ffd5b83516103618161032d565b60208501519093506103728161032d565b60408501519092506103838161032d565b809150509250925092565b5f6020828403121561039e575f5ffd5b81516103a98161032d565b9392505050565b5f602082840312156103c0575f5ffd5b815180151581146103a9575f5ffd5b60805160a05160c05160e0516122166104785f395f81816101680152610daf01525f8181610141015261180e01525f81816101aa0152818161031201528181610493015281816104ea0152818161055101528181610585015281816105dd01528181610657015281816108ed01528181610947015281816109c101528181610a3601528181610a6001528181610b3c01528181610cf1015261167c01525f60c301526122165ff3fe608060405234801561000f575f5ffd5b50600436106100a5575f3560e01c80633a8298671161006e5780633a829867146101635780634db9dc971461018a578063715018a61461019d5780637535d246146101a55780638da5cb5b146101cc578063f2fde38b146101dc575f5ffd5b8062ae3bf8146100a95780630542975c146100be5780631b11d0ff1461010257806332e4b2861461012557806338013f021461013c575b5f5ffd5b6100bc6100b7366004611bd6565b6101ef565b005b6100e57f000000000000000000000000000000000000000000000000000000000000000081565b6040516001600160a01b0390911681526020015b60405180910390f35b610115610110366004611c36565b6102af565b60405190151581526020016100f9565b61012e610bb881565b6040519081526020016100f9565b6100e57f000000000000000000000000000000000000000000000000000000000000000081565b6100e57f000000000000000000000000000000000000000000000000000000000000000081565b6100bc610198366004611cad565b610399565b6100bc6106b6565b6100e57f000000000000000000000000000000000000000000000000000000000000000081565b5f546001600160a01b03166100e5565b6100bc6101ea366004611bd6565b610727565b5f546001600160a01b031633146102215760405162461bcd60e51b815260040161021890611d50565b60405180910390fd5b6102ac6102355f546001600160a01b031690565b6040516370a0823160e01b81523060048201526001600160a01b038416906370a0823190602401602060405180830381865afa158015610277573d5f5f3e3d5ffd5b505050506040513d601f19601f8201168201806040525081019061029b9190611d85565b6001600160a01b038416919061080e565b50565b5f6002600154036103025760405162461bcd60e51b815260206004820152601f60248201527f5265656e7472616e637947756172643a207265656e7472616e742063616c6c006044820152606401610218565b6002600155336001600160a01b037f000000000000000000000000000000000000000000000000000000000000000016146103755760405162461bcd60e51b815260206004820152601360248201527210d05313115497d35554d517d09157d413d3d3606a1b6044820152606401610218565b85848861038686868a85858861089c565b5050600180805598975050505050505050565b6002600154036103eb5760405162461bcd60e51b815260206004820152601f60248201527f5265656e7472616e637947756172643a207265656e7472616e742063616c6c006044820152606401610218565b60026001556103fd8886868933610ab4565b955061041989338961041436869003860186611e66565b610cd0565b5f5f61046c8686868080601f0160208091040260200160405190810160405280939291908181526020018383808284375f81840152601f19601f820116905080830192505050505050508d8d8d8d610d72565b90925090505f61047c838b611e94565b90508015610576576104b86001600160a01b038d167f000000000000000000000000000000000000000000000000000000000000000083611364565b60405163e8eda9df60e01b81526001600160a01b038d81166004830152602482018390523360448301525f60648301527f0000000000000000000000000000000000000000000000000000000000000000169063e8eda9df906084015f604051808303815f87803b15801561052b575f5ffd5b505af115801561053d573d5f5f3e3d5ffd5b50610576925050506001600160a01b038d167f00000000000000000000000000000000000000000000000000000000000000005f611364565b6105aa6001600160a01b038c167f00000000000000000000000000000000000000000000000000000000000000008b611364565b60405163573ade8160e01b81526001600160a01b038c81166004830152602482018b9052604482018a90523360648301527f0000000000000000000000000000000000000000000000000000000000000000169063573ade81906084016020604051808303815f875af1158015610623573d5f5f3e3d5ffd5b505050506040513d601f19601f820116820180604052508101906106479190611d85565b5061067c6001600160a01b038c167f00000000000000000000000000000000000000000000000000000000000000005f611364565b5f6106878a84611e94565b905080156106a3576106a36001600160a01b038d1633836114af565b5050600180555050505050505050505050565b5f546001600160a01b031633146106df5760405162461bcd60e51b815260040161021890611d50565b5f80546040516001600160a01b03909116907f8be0079c531659141344cd1fd0a4f28419497f9722a3daafe3b4186f6b6457e0908390a35f80546001600160a01b0319169055565b5f546001600160a01b031633146107505760405162461bcd60e51b815260040161021890611d50565b6001600160a01b0381166107b55760405162461bcd60e51b815260206004820152602660248201527f4f776e61626c653a206e6577206f776e657220697320746865207a65726f206160448201526564647265737360d01b6064820152608401610218565b5f80546040516001600160a01b03808516939216917f8be0079c531659141344cd1fd0a4f28419497f9722a3daafe3b4186f6b6457e091a35f80546001600160a01b0319166001600160a01b0392909216919091179055565b60405163a9059cbb60e01b8082526001600160a01b038416600483015260248201839052905f8060448382895af1610848573d5f5f3e3d5ffd5b50610852846114df565b6108965760405162461bcd60e51b815260206004820152601560248201527423a83b191d103330b4b632b2103a3930b739b332b960591b6044820152606401610218565b50505050565b5f80808080806108ae8b8d018d611ece565b9550955095509550955095506108c7868486888d610ab4565b94505f5f6108d986858c8b8d8c610d72565b90925090506109126001600160a01b0389167f000000000000000000000000000000000000000000000000000000000000000089611364565b60405163573ade8160e01b81526001600160a01b03898116600483015260248201899052604482018790528c811660648301527f0000000000000000000000000000000000000000000000000000000000000000169063573ade81906084016020604051808303815f875af115801561098d573d5f5f3e3d5ffd5b505050506040513d601f19601f820116820180604052508101906109b19190611d85565b506109e66001600160a01b0389167f00000000000000000000000000000000000000000000000000000000000000005f611364565b5f6109f1838e611582565b90506109ff8b8d8387610cd0565b5f610a0a8984611e94565b90508015610a2657610a266001600160a01b038b168e836114af565b50610a5b6001600160a01b038c167f00000000000000000000000000000000000000000000000000000000000000005f611364565b610aa37f0000000000000000000000000000000000000000000000000000000000000000610a928f8d61158290919063ffffffff16565b6001600160a01b038e169190611364565b505050505050505050505050505050565b5f6002856002811115610ac957610ac9611f87565b6002811115610ada57610ada611f87565b14610b1b5760405162461bcd60e51b8152602060048201526011602482015270494e56414c49445f524154455f4d4f444560781b6044820152606401610218565b6040516301b2848560e51b81526001600160a01b0387811660048301525f917f00000000000000000000000000000000000000000000000000000000000000009091169063365090a090602401602060405180830381865afa158015610b83573d5f5f3e3d5ffd5b505050506040513d601f19601f82011682018060405250810190610ba79190611f9b565b6040516370a0823160e01b81526001600160a01b0385811660048301529192505f918316906370a0823190602401602060405180830381865afa158015610bf0573d5f5f3e3d5ffd5b505050506040513d601f19601f82011682018060405250810190610c149190611d85565b90508515610c745784811115610c6c5760405162461bcd60e51b815260206004820152601c60248201527f494e53554646494349454e545f414d4f554e545f544f5f5245504159000000006044820152606401610218565b809450610cc4565b80851115610cc45760405162461bcd60e51b815260206004820152601960248201527f494e56414c49445f444542545f52455041595f414d4f554e54000000000000006044820152606401610218565b50929695505050505050565b60405163cff027d960e01b81526001600160a01b0385811660048301525f917f00000000000000000000000000000000000000000000000000000000000000009091169063cff027d990602401602060405180830381865afa158015610d38573d5f5f3e3d5ffd5b505050506040513d601f19601f82011682018060405250810190610d5c9190611f9b565b9050610d6b8582868686611597565b5050505050565b5f5f5f5f88806020019051810190610d8a9190611fd8565b60405163fb04e17b60e01b81526001600160a01b0380831660048301529294509092507f00000000000000000000000000000000000000000000000000000000000000009091169063fb04e17b90602401602060405180830381865afa158015610df6573d5f5f3e3d5ffd5b505050506040513d601f19601f82011682018060405250810190610e1a9190612061565b610e595760405162461bcd60e51b815260206004820152601060248201526f494e56414c49445f415547555354555360801b6044820152606401610218565b5f610e6389611735565b60ff1690505f610e7289611735565b60ff1690505f610e818b6117ed565b90505f610e8d8b6117ed565b90505f610ee4610ea1612710610bb8611582565b610ede610eb9610eb288600a612163565b8790611879565b610ed8610ed1610eca8b600a612163565b8890611879565b8f90611879565b906118a1565b906118b3565b9050808b1115610f425760405162461bcd60e51b815260206004820152602360248201527f6d6178416d6f756e74546f5377617020657863656564206d617820736c69707060448201526261676560e81b6064820152608401610218565b50506040516370a0823160e01b81523060048201525f93506001600160a01b038c1692506370a082319150602401602060405180830381865afa158015610f8b573d5f5f3e3d5ffd5b505050506040513d601f19601f82011682018060405250810190610faf9190611d85565b9050868110156110015760405162461bcd60e51b815260206004820181905260248201527f494e53554646494349454e545f42414c414e43455f4245464f52455f535741506044820152606401610218565b6040516370a0823160e01b81523060048201525f906001600160a01b038a16906370a0823190602401602060405180830381865afa158015611045573d5f5f3e3d5ffd5b505050506040513d601f19601f820116820180604052508101906110699190611d85565b905061107f6001600160a01b038b16848a611364565b8b156110f75760048c101580156110a25750835161109e9060206118d7565b8c11155b6110ee5760405162461bcd60e51b815260206004820152601d60248201527f544f5f414d4f554e545f4f46465345545f4f55545f4f465f52414e47450000006044820152606401610218565b8660208d018501525b5f836001600160a01b031685604051611110919061216e565b5f604051808303815f865af19150503d805f8114611149576040519150601f19603f3d011682016040523d82523d5f602084013e61114e565b606091505b505090508061115f573d5f5f3e3d5ffd5b6111736001600160a01b038c16855f611364565b6040516370a0823160e01b81523060048201525f906001600160a01b038d16906370a0823190602401602060405180830381865afa1580156111b7573d5f5f3e3d5ffd5b505050506040513d601f19601f820116820180604052508101906111db9190611d85565b90506111e78185611e94565b9750898811156112395760405162461bcd60e51b815260206004820152601860248201527f57524f4e475f42414c414e43455f41465445525f5357415000000000000000006044820152606401610218565b6040516370a0823160e01b81523060048201526112ab9084906001600160a01b038e16906370a0823190602401602060405180830381865afa158015611281573d5f5f3e3d5ffd5b505050506040513d601f19601f820116820180604052508101906112a59190611d85565b906118d7565b9650888710156112fd5760405162461bcd60e51b815260206004820152601c60248201527f494e53554646494349454e545f414d4f554e545f5245434549564544000000006044820152606401610218565b8a6001600160a01b03168c6001600160a01b03167fbf77fd13a39d14dc0da779342c14105c38d9a5d0c60f2caa22f5fd1d5525416d8a8a60405161134b929190918252602082015260400190565b60405180910390a3505050505050965096945050505050565b8015806113dc5750604051636eb1769f60e11b81523060048201526001600160a01b03838116602483015284169063dd62ed3e90604401602060405180830381865afa1580156113b6573d5f5f3e3d5ffd5b505050506040513d601f19601f820116820180604052508101906113da9190611d85565b155b6114475760405162461bcd60e51b815260206004820152603660248201527f5361666545524332303a20617070726f76652066726f6d206e6f6e2d7a65726f60448201527520746f206e6f6e2d7a65726f20616c6c6f77616e636560501b6064820152608401610218565b6040516001600160a01b0383166024820152604481018290526114aa90849063095ea7b360e01b906064015b60408051601f198184030181529190526020810180516001600160e01b03166001600160e01b0319909316929092179091526118e6565b505050565b6040516001600160a01b0383166024820152604481018290526114aa90849063a9059cbb60e01b90606401611473565b5f611501565b62461bcd60e51b5f52602060045280602452508060445260645ffd5b3d801561154057602081146115715761153b7f475076323a206d616c666f726d6564207472616e7366657220726573756c7400601f6114e5565b61157c565b823b611568576115687311d41d8c8e881b9bdd08184818dbdb9d1c9858dd60621b60146114e5565b6001915061157c565b3d5f5f3e5f51151591505b50919050565b80820182811015611591575f5ffd5b92915050565b602081015115611639578051602082015160408084015160608501516080860151925163d505accf60e01b81526001600160a01b0389811660048301523060248301526044820196909652606481019490945260ff909116608484015260a483015260c48201529085169063d505accf9060e4015f604051808303815f87803b158015611622575f5ffd5b505af1158015611634573d5f5f3e3d5ffd5b505050505b61164e6001600160a01b0385168430856119b7565b604051631a4ca37b60e21b81526001600160a01b0386811660048301526024820184905230604483015283917f0000000000000000000000000000000000000000000000000000000000000000909116906369328dec906064016020604051808303815f875af11580156116c4573d5f5f3e3d5ffd5b505050506040513d601f19601f820116820180604052508101906116e89190611d85565b14610d6b5760405162461bcd60e51b815260206004820152601b60248201527f554e45585045435445445f414d4f554e545f57495448445241574e00000000006044820152606401610218565b5f5f826001600160a01b031663313ce5676040518163ffffffff1660e01b8152600401602060405180830381865afa158015611773573d5f5f3e3d5ffd5b505050506040513d601f19601f820116820180604052508101906117979190612189565b9050604d8160ff1611156115915760405162461bcd60e51b815260206004820152601a60248201527f544f4f5f4d414e595f444543494d414c535f4f4e5f544f4b454e0000000000006044820152606401610218565b60405163b3596f0760e01b81526001600160a01b0382811660048301525f917f00000000000000000000000000000000000000000000000000000000000000009091169063b3596f0790602401602060405180830381865afa158015611855573d5f5f3e3d5ffd5b505050506040513d601f19601f820116820180604052508101906115919190611d85565b5f82158061189957505081810281838281611896576118966121a4565b04145b611591575f5ffd5b5f6118ac82846121b8565b9392505050565b5f811561138819839004841115176118c9575f5ffd5b506127109102611388010490565b80820382811115611591575f5ffd5b5f61193a826040518060400160405280602081526020017f5361666545524332303a206c6f772d6c6576656c2063616c6c206661696c6564815250856001600160a01b0316611a4f9092919063ffffffff16565b8051909150156114aa57808060200190518101906119589190612061565b6114aa5760405162461bcd60e51b815260206004820152602a60248201527f5361666545524332303a204552433230206f7065726174696f6e20646964206e6044820152691bdd081cdd58d8d9595960b21b6064820152608401610218565b6040516323b872dd60e01b8082526001600160a01b0385811660048401528416602483015260448201839052905f80606483828a5af16119f9573d5f5f3e3d5ffd5b50611a03856114df565b610d6b5760405162461bcd60e51b815260206004820152601960248201527f475076323a206661696c6564207472616e7366657246726f6d000000000000006044820152606401610218565b6060611a5d84845f85611a65565b949350505050565b606082471015611ac65760405162461bcd60e51b815260206004820152602660248201527f416464726573733a20696e73756666696369656e742062616c616e636520666f6044820152651c8818d85b1b60d21b6064820152608401610218565b843b611b145760405162461bcd60e51b815260206004820152601d60248201527f416464726573733a2063616c6c20746f206e6f6e2d636f6e74726163740000006044820152606401610218565b5f5f866001600160a01b03168587604051611b2f919061216e565b5f6040518083038185875af1925050503d805f8114611b69576040519150601f19603f3d011682016040523d82523d5f602084013e611b6e565b606091505b5091509150611b7e828286611b89565b979650505050505050565b60608315611b985750816118ac565b825115611ba85782518084602001fd5b8160405162461bcd60e51b815260040161021891906121d7565b6001600160a01b03811681146102ac575f5ffd5b5f60208284031215611be6575f5ffd5b81356118ac81611bc2565b5f5f83601f840112611c01575f5ffd5b50813567ffffffffffffffff811115611c18575f5ffd5b602083019150836020828501011115611c2f575f5ffd5b9250929050565b5f5f5f5f5f5f60a08789031215611c4b575f5ffd5b8635611c5681611bc2565b955060208701359450604087013593506060870135611c7481611bc2565b9250608087013567ffffffffffffffff811115611c8f575f5ffd5b611c9b89828a01611bf1565b979a9699509497509295939492505050565b5f5f5f5f5f5f5f5f5f898b03610180811215611cc7575f5ffd5b8a35611cd281611bc2565b995060208b0135611ce281611bc2565b985060408b0135975060608b0135965060808b0135955060a08b0135945060c08b013567ffffffffffffffff811115611d19575f5ffd5b611d258d828e01611bf1565b90955093505060a060df1982011215611d3c575f5ffd5b5060e08a0190509295985092959850929598565b6020808252818101527f4f776e61626c653a2063616c6c6572206973206e6f7420746865206f776e6572604082015260600190565b5f60208284031215611d95575f5ffd5b5051919050565b634e487b7160e01b5f52604160045260245ffd5b604051601f8201601f1916810167ffffffffffffffff81118282101715611dd957611dd9611d9c565b604052919050565b60ff811681146102ac575f5ffd5b5f60a08284031215611dff575f5ffd5b60405160a0810167ffffffffffffffff81118282101715611e2257611e22611d9c565b604090815283358252602080850135908301529091508190830135611e4681611de1565b604082015260608381013590820152608092830135920191909152919050565b5f60a08284031215611e76575f5ffd5b6118ac8383611def565b634e487b7160e01b5f52601160045260245ffd5b8181038181111561159157611591611e80565b5f67ffffffffffffffff821115611ec057611ec0611d9c565b50601f01601f191660200190565b5f5f5f5f5f5f6101408789031215611ee4575f5ffd5b8635611eef81611bc2565b9550602087013594506040870135935060608701359250608087013567ffffffffffffffff811115611f1f575f5ffd5b8701601f81018913611f2f575f5ffd5b8035611f42611f3d82611ea7565b611db0565b8181528a6020838501011115611f56575f5ffd5b816020840160208301375f60208383010152809450505050611f7b8860a08901611def565b90509295509295509295565b634e487b7160e01b5f52602160045260245ffd5b5f60208284031215611fab575f5ffd5b81516118ac81611bc2565b5f5b83811015611fd0578181015183820152602001611fb8565b50505f910152565b5f5f60408385031215611fe9575f5ffd5b825167ffffffffffffffff811115611fff575f5ffd5b8301601f8101851361200f575f5ffd5b805161201d611f3d82611ea7565b818152866020838501011115612031575f5ffd5b612042826020830160208601611fb6565b809450505050602083015161205681611bc2565b809150509250929050565b5f60208284031215612071575f5ffd5b815180151581146118ac575f5ffd5b6001815b60018411156120bb5780850481111561209f5761209f611e80565b60018416156120ad57908102905b60019390931c928002612084565b935093915050565b5f826120d157506001611591565b816120dd57505f611591565b81600181146120f357600281146120fd57612119565b6001915050611591565b60ff84111561210e5761210e611e80565b50506001821b611591565b5060208310610133831016604e8410600b841016171561213c575081810a611591565b6121485f198484612080565b805f190482111561215b5761215b611e80565b029392505050565b5f6118ac83836120c3565b5f825161217f818460208701611fb6565b9190910192915050565b5f60208284031215612199575f5ffd5b81516118ac81611de1565b634e487b7160e01b5f52601260045260245ffd5b5f826121d257634e487b7160e01b5f52601260045260245ffd5b500490565b602081525f82518060208401526121f5816040850160208701611fb6565b601f01601f1916919091016040019291505056fea164736f6c634300081b000a8be0079c531659141344cd1fd0a4f28419497f9722a3daafe3b4186f6b6457e0","linkReferences":{}},"methodIdentifiers":{"ADDRESSES_PROVIDER()":"0542975c","AUGUSTUS_REGISTRY()":"3a829867","MAX_SLIPPAGE_PERCENT()":"32e4b286","ORACLE()":"38013f02","POOL()":"7535d246","executeOperation(address,uint256,uint256,address,bytes)":"1b11d0ff","owner()":"8da5cb5b","renounceOwnership()":"715018a6","rescueTokens(address)":"00ae3bf8","swapAndRepay(address,address,uint256,uint256,uint256,uint256,bytes,(uint256,uint256,uint8,bytes32,bytes32))":"4db9dc97","transferOwnership(address)":"f2fde38b"},"id":100}