{"abi":[{"type":"function","name":"getTypedDataHash","inputs":[{"name":"permit","type":"tuple","internalType":"struct SigUtils.Permit","components":[{"name":"owner","type":"address","internalType":"address"},{"name":"spender","type":"address","internalType":"address"},{"name":"value","type":"uint256","internalType":"uint256"},{"name":"nonce","type":"uint256","internalType":"uint256"},{"name":"deadline","type":"uint256","internalType":"uint256"}]},{"name":"typehash","type":"bytes32","internalType":"bytes32"},{"name":"domainSeparator","type":"bytes32","internalType":"bytes32"}],"outputs":[{"name":"","type":"bytes32","internalType":"bytes32"}],"stateMutability":"pure"}],"bytecode":{"object":"0x6101ec610034600b8282823980515f1a607314602857634e487b7160e01b5f525f60045260245ffd5b305f52607381538281f3fe7300000000000000000000000000000000000000003014608060405260043610610034575f3560e01c8063af011a1414610038575b5f5ffd5b61004b61004636600461013d565b61005d565b60405190815260200160405180910390f35b5f8161006985856100a6565b60405161190160f01b6020820152602281019290925260428201526062016040516020818303038152906040528051906020012090509392505050565b5f81835f01518460200151856040015186606001518760800151604051602001610104969594939291909586526001600160a01b0394851660208701529290931660408501526060840152608083019190915260a082015260c00190565b60405160208183030381529060405280519060200120905092915050565b80356001600160a01b0381168114610138575f5ffd5b919050565b5f5f5f83850360e0811215610150575f5ffd5b60a081121561015d575f5ffd5b5060405160a0810181811067ffffffffffffffff8211171561018d57634e487b7160e01b5f52604160045260245ffd5b60405261019985610122565b81526101a760208601610122565b60208201526040858101359082015260608086013590820152608080860135908201529560a0850135955060c090940135939250505056fea164736f6c634300081b000a","linkReferences":{}},"methodIdentifiers":{"getTypedDataHash(SigUtils.Permit,bytes32,bytes32)":"af011a14"},"id":475}