{"abi":[{"type":"constructor","inputs":[{"name":"aic","type":"address","internalType":"contract IRewardsController"},{"name":"decimals_","type":"uint256","internalType":"uint256"}],"stateMutability":"nonpayable"},{"type":"function","name":"_aic","inputs":[],"outputs":[{"name":"","type":"address","internalType":"contract IRewardsController"}],"stateMutability":"view"},{"type":"function","name":"cleanUserState","inputs":[],"outputs":[],"stateMutability":"nonpayable"},{"type":"function","name":"decimals","inputs":[],"outputs":[{"name":"","type":"uint256","internalType":"uint256"}],"stateMutability":"view"},{"type":"function","name":"doubleHandleActionOnAic","inputs":[{"name":"user","type":"address","internalType":"address"},{"name":"totalSupply_","type":"uint256","internalType":"uint256"},{"name":"userBalance","type":"uint256","internalType":"uint256"}],"outputs":[],"stateMutability":"nonpayable"},{"type":"function","name":"getScaledUserBalanceAndSupply","inputs":[{"name":"","type":"address","internalType":"address"}],"outputs":[{"name":"","type":"uint256","internalType":"uint256"},{"name":"","type":"uint256","internalType":"uint256"}],"stateMutability":"view"},{"type":"function","name":"handleActionOnAic","inputs":[{"name":"user","type":"address","internalType":"address"},{"name":"totalSupply_","type":"uint256","internalType":"uint256"},{"name":"userBalance","type":"uint256","internalType":"uint256"}],"outputs":[],"stateMutability":"nonpayable"},{"type":"function","name":"scaledTotalSupply","inputs":[],"outputs":[{"name":"","type":"uint256","internalType":"uint256"}],"stateMutability":"view"},{"type":"function","name":"setUserBalanceAndSupply","inputs":[{"name":"userBalance","type":"uint256","internalType":"uint256"},{"name":"totalSupply_","type":"uint256","internalType":"uint256"}],"outputs":[],"stateMutability":"nonpayable"},{"type":"function","name":"totalSupply","inputs":[],"outputs":[{"name":"","type":"uint256","internalType":"uint256"}],"stateMutability":"view"},{"type":"event","name":"Accrued","inputs":[{"name":"asset","type":"address","indexed":true,"internalType":"address"},{"name":"user","type":"address","indexed":true,"internalType":"address"},{"name":"assetIndex","type":"uint256","indexed":false,"internalType":"uint256"},{"name":"userIndex","type":"uint256","indexed":false,"internalType":"uint256"},{"name":"rewardsAccrued","type":"uint256","indexed":false,"internalType":"uint256"}],"anonymous":false},{"type":"event","name":"AssetConfigUpdated","inputs":[{"name":"asset","type":"address","indexed":true,"internalType":"address"},{"name":"reward","type":"address","indexed":true,"internalType":"address"},{"name":"emission","type":"uint256","indexed":false,"internalType":"uint256"},{"name":"distributionEnd","type":"uint256","indexed":false,"internalType":"uint256"},{"name":"assetIndex","type":"uint256","indexed":false,"internalType":"uint256"}],"anonymous":false}],"bytecode":{"object":"0x60a0604052348015600e575f5ffd5b506040516103c13803806103c1833981016040819052602b916052565b5f80546001600160a01b0319166001600160a01b0393909316929092179091556080526087565b5f5f604083850312156062575f5ffd5b82516001600160a01b03811681146077575f5ffd5b6020939093015192949293505050565b60805161032361009e5f395f60db01526103235ff3fe608060405234801561000f575f5ffd5b5060043610610090575f3560e01c80638d279294116100635780638d27929414610114578063b1bf962d146100c7578063b39944ba14610127578063b41c6f9814610135578063f794ca511461015f575f5ffd5b80630afbcdc91461009457806318160ddd146100c7578063313ce567146100d957806334743e7c146100ff575b5f5ffd5b6100ad6100a23660046102a6565b506001546002549091565b604080519283526020830191909152015b60405180910390f35b6002545b6040519081526020016100be565b7f00000000000000000000000000000000000000000000000000000000000000006100cb565b61011261010d3660046102c6565b610178565b005b6101126101223660046102c6565b6101e5565b6101125f6001819055600255565b5f54610147906001600160a01b031681565b6040516001600160a01b0390911681526020016100be565b61011261016d3660046102f6565b600191909155600255565b5f546040516318c39f1760e11b81526001600160a01b0385811660048301526024820185905260448201849052909116906331873e2e906064015b5f604051808303815f87803b1580156101ca575f5ffd5b505af11580156101dc573d5f5f3e3d5ffd5b50505050505050565b5f546040516318c39f1760e11b81526001600160a01b0385811660048301526024820185905260448201849052909116906331873e2e906064015f604051808303815f87803b158015610236575f5ffd5b505af1158015610248573d5f5f3e3d5ffd5b50505f546040516318c39f1760e11b81526001600160a01b038781166004830152602482018790526044820186905290911692506331873e2e91506064016101b3565b80356001600160a01b03811681146102a1575f5ffd5b919050565b5f602082840312156102b6575f5ffd5b6102bf8261028b565b9392505050565b5f5f5f606084860312156102d8575f5ffd5b6102e18461028b565b95602085013595506040909401359392505050565b5f5f60408385031215610307575f5ffd5b5050803592602090910135915056fea164736f6c634300081b000a","linkReferences":{}},"methodIdentifiers":{"_aic()":"b41c6f98","cleanUserState()":"b39944ba","decimals()":"313ce567","doubleHandleActionOnAic(address,uint256,uint256)":"8d279294","getScaledUserBalanceAndSupply(address)":"0afbcdc9","handleActionOnAic(address,uint256,uint256)":"34743e7c","scaledTotalSupply()":"b1bf962d","setUserBalanceAndSupply(uint256,uint256)":"f794ca51","totalSupply()":"18160ddd"},"id":191}