{"abi":[{"type":"function","name":"balanceOf","inputs":[{"name":"user","type":"address","internalType":"address"},{"name":"token","type":"address","internalType":"address"}],"outputs":[{"name":"","type":"uint256","internalType":"uint256"}],"stateMutability":"view"},{"type":"function","name":"batchBalanceOf","inputs":[{"name":"users","type":"address[]","internalType":"address[]"},{"name":"tokens","type":"address[]","internalType":"address[]"}],"outputs":[{"name":"","type":"uint256[]","internalType":"uint256[]"}],"stateMutability":"view"},{"type":"function","name":"getUserWalletBalances","inputs":[{"name":"provider","type":"address","internalType":"address"},{"name":"user","type":"address","internalType":"address"}],"outputs":[{"name":"","type":"address[]","internalType":"address[]"},{"name":"","type":"uint256[]","internalType":"uint256[]"}],"stateMutability":"view"}],"bytecode":{"object":"0x6080604052348015600e575f5ffd5b506109b58061001c5f395ff3fe608060405234801561000f575f5ffd5b506004361061003f575f3560e01c80630240534314610043578063b59b28ef1461006d578063f7888aec1461008d575b5f5ffd5b610056610051366004610637565b6100ae565b6040516100649291906106a8565b60405180910390f35b61008061007b366004610749565b610426565b60405161006491906107b5565b6100a061009b366004610637565b610528565b604051908152602001610064565b6060805f846001600160a01b031663026b1d5f6040518163ffffffff1660e01b8152600401602060405180830381865afa1580156100ee573d5f5f3e3d5ffd5b505050506040513d601f19601f8201168201806040525081019061011291906107ce565b90505f816001600160a01b031663d1946dbc6040518163ffffffff1660e01b81526004015f60405180830381865afa158015610150573d5f5f3e3d5ffd5b505050506040513d5f823e601f3d908101601f19168201604052610177919081019061082e565b90505f8151600161018891906108f6565b67ffffffffffffffff8111156101a0576101a06107e9565b6040519080825280602002602001820160405280156101c9578160200160208202803683370190505b5090505f5b8251811015610223578281815181106101e9576101e9610909565b602002602001015182828151811061020357610203610909565b6001600160a01b03909216602092830291909101909101526001016101ce565b5073eeeeeeeeeeeeeeeeeeeeeeeeeeeeeeeeeeeeeeee8183518151811061024c5761024c610909565b60200260200101906001600160a01b031690816001600160a01b0316815250505f815167ffffffffffffffff811115610287576102876107e9565b6040519080825280602002602001820160405280156102b0578160200160208202803683370190505b5090505f5b83518110156103da575f856001600160a01b031663c44b11f78584815181106102e0576102e0610909565b60200260200101516040518263ffffffff1660e01b815260040161031391906001600160a01b0391909116815260200190565b602060405180830381865afa15801561032e573d5f5f3e3d5ffd5b505050506040513d601f19601f82011682018060405250810190610352919061091d565b80519091506701000000000000001615158061038e575f84848151811061037b5761037b610909565b60200260200101818152505050506103d2565b6103b18a8685815181106103a4576103a4610909565b6020026020010151610528565b8484815181106103c3576103c3610909565b60200260200101818152505050505b6001016102b5565b506103f98773eeeeeeeeeeeeeeeeeeeeeeeeeeeeeeeeeeeeeeee610528565b8184518151811061040c5761040c610909565b6020908102919091010152909450925050505b9250929050565b60605f610433838661095f565b67ffffffffffffffff81111561044b5761044b6107e9565b604051908082528060200260200182016040528015610474578160200160208202803683370190505b5090505f5b8581101561051e575f5b84811015610515576104dc8888848181106104a0576104a0610909565b90506020020160208101906104b59190610976565b8787848181106104c7576104c7610909565b905060200201602081019061009b9190610976565b83826104e8888661095f565b6104f291906108f6565b8151811061050257610502610909565b6020908102919091010152600101610483565b50600101610479565b5095945050505050565b5f73eeeeeeeeeeeeeeeeeeeeeeeeeeeeeeeeeeeeeeed196001600160a01b0383160161055f57506001600160a01b0382163161061a565b6001600160a01b0382163b156105de576040516370a0823160e01b81526001600160a01b0384811660048301528316906370a0823190602401602060405180830381865afa1580156105b3573d5f5f3e3d5ffd5b505050506040513d601f19601f820116820180604052508101906105d79190610991565b905061061a565b60405162461bcd60e51b815260206004820152600d60248201526c24a72b20a624a22faa27a5a2a760991b604482015260640160405180910390fd5b92915050565b6001600160a01b0381168114610634575f5ffd5b50565b5f5f60408385031215610648575f5ffd5b823561065381610620565b9150602083013561066381610620565b809150509250929050565b5f8151808452602084019350602083015f5b8281101561069e578151865260209586019590910190600101610680565b5093949350505050565b604080825283519082018190525f9060208501906060840190835b818110156106ea5783516001600160a01b03168352602093840193909201916001016106c3565b505083810360208501526106fe818661066e565b9695505050505050565b5f5f83601f840112610718575f5ffd5b50813567ffffffffffffffff81111561072f575f5ffd5b6020830191508360208260051b850101111561041f575f5ffd5b5f5f5f5f6040858703121561075c575f5ffd5b843567ffffffffffffffff811115610772575f5ffd5b61077e87828801610708565b909550935050602085013567ffffffffffffffff81111561079d575f5ffd5b6107a987828801610708565b95989497509550505050565b602081525f6107c7602083018461066e565b9392505050565b5f602082840312156107de575f5ffd5b81516107c781610620565b634e487b7160e01b5f52604160045260245ffd5b604051601f8201601f1916810167ffffffffffffffff81118282101715610826576108266107e9565b604052919050565b5f6020828403121561083e575f5ffd5b815167ffffffffffffffff811115610854575f5ffd5b8201601f81018413610864575f5ffd5b805167ffffffffffffffff81111561087e5761087e6107e9565b8060051b61088e602082016107fd565b918252602081840181019290810190878411156108a9575f5ffd5b6020850194505b838510156108d757845192506108c583610620565b828252602094850194909101906108b0565b979650505050505050565b634e487b7160e01b5f52601160045260245ffd5b8082018082111561061a5761061a6108e2565b634e487b7160e01b5f52603260045260245ffd5b5f602082840312801561092e575f5ffd5b506040516020810167ffffffffffffffff81118282101715610952576109526107e9565b6040529151825250919050565b808202811582820484141761061a5761061a6108e2565b5f60208284031215610986575f5ffd5b81356107c781610620565b5f602082840312156109a1575f5ffd5b505191905056fea164736f6c634300081b000a","linkReferences":{}},"methodIdentifiers":{"balanceOf(address,address)":"f7888aec","batchBalanceOf(address[],address[])":"b59b28ef","getUserWalletBalances(address,address)":"02405343"},"id":141}