{"abi":[{"type":"constructor","inputs":[{"name":"owner","type":"address","internalType":"address"},{"name":"permissioned","type":"bool","internalType":"bool"}],"stateMutability":"nonpayable"},{"type":"function","name":"MAX_MINT_AMOUNT","inputs":[],"outputs":[{"name":"","type":"uint256","internalType":"uint256"}],"stateMutability":"view"},{"type":"function","name":"isPermissioned","inputs":[],"outputs":[{"name":"","type":"bool","internalType":"bool"}],"stateMutability":"view"},{"type":"function","name":"mint","inputs":[{"name":"token","type":"address","internalType":"address"},{"name":"to","type":"address","internalType":"address"},{"name":"amount","type":"uint256","internalType":"uint256"}],"outputs":[{"name":"","type":"uint256","internalType":"uint256"}],"stateMutability":"nonpayable"},{"type":"function","name":"owner","inputs":[],"outputs":[{"name":"","type":"address","internalType":"address"}],"stateMutability":"view"},{"type":"function","name":"renounceOwnership","inputs":[],"outputs":[],"stateMutability":"nonpayable"},{"type":"function","name":"setPermissioned","inputs":[{"name":"permissioned","type":"bool","internalType":"bool"}],"outputs":[],"stateMutability":"nonpayable"},{"type":"function","name":"transferOwnership","inputs":[{"name":"newOwner","type":"address","internalType":"address"}],"outputs":[],"stateMutability":"nonpayable"},{"type":"function","name":"transferOwnershipOfChild","inputs":[{"name":"childContracts","type":"address[]","internalType":"address[]"},{"name":"newOwner","type":"address","internalType":"address"}],"outputs":[],"stateMutability":"nonpayable"},{"type":"event","name":"OwnershipTransferred","inputs":[{"name":"previousOwner","type":"address","indexed":true,"internalType":"address"},{"name":"newOwner","type":"address","indexed":true,"internalType":"address"}],"anonymous":false}],"bytecode":{"object":"0x608060405234801561000f575f5ffd5b50604051610a0a380380610a0a83398101604081905261002e916101a0565b5f80546001600160a01b031916339081178255604051909182915f5160206109ea5f395f51905f52908290a3506001600160a01b03821661006d575f5ffd5b61007682610097565b5f8054911515600160a01b0260ff60a01b19909216919091179055506101e7565b5f546001600160a01b031633146100f55760405162461bcd60e51b815260206004820181905260248201527f4f776e61626c653a2063616c6c6572206973206e6f7420746865206f776e657260448201526064015b60405180910390fd5b6001600160a01b03811661015a5760405162461bcd60e51b815260206004820152602660248201527f4f776e61626c653a206e6577206f776e657220697320746865207a65726f206160448201526564647265737360d01b60648201526084016100ec565b5f80546040516001600160a01b03808516939216915f5160206109ea5f395f51905f5291a35f80546001600160a01b0319166001600160a01b0392909216919091179055565b5f5f604083850312156101b1575f5ffd5b82516001600160a01b03811681146101c7575f5ffd5b602084015190925080151581146101dc575f5ffd5b809150509250929050565b6107f6806101f45f395ff3fe608060405234801561000f575f5ffd5b5060043610610085575f3560e01c8063c6c3bbe611610058578063c6c3bbe6146100d8578063e2a4157c146100f9578063f2fde38b14610115578063fa9b701814610128575f5ffd5b80631a678cd314610089578063506f26cc1461009e578063715018a6146100b15780638da5cb5b146100b9575b5f5ffd5b61009c610097366004610539565b610131565b005b61009c6100ac366004610576565b610180565b61009c610244565b5f546040516001600160a01b0390911681526020015b60405180910390f35b6100eb6100e63660046105f5565b6102b5565b6040519081526020016100cf565b5f54600160a01b900460ff1660405190151581526020016100cf565b61009c61012336600461062e565b610442565b6100eb61271081565b5f546001600160a01b031633146101635760405162461bcd60e51b815260040161015a90610647565b60405180910390fd5b5f8054911515600160a01b0260ff60a01b19909216919091179055565b5f546001600160a01b031633146101a95760405162461bcd60e51b815260040161015a90610647565b5f5b8281101561023e578383828181106101c5576101c561067c565b90506020020160208101906101da919061062e565b60405163f2fde38b60e01b81526001600160a01b038481166004830152919091169063f2fde38b906024015f604051808303815f87803b15801561021c575f5ffd5b505af115801561022e573d5f5f3e3d5ffd5b5050600190920191506101ab9050565b50505050565b5f546001600160a01b0316331461026d5760405162461bcd60e51b815260040161015a90610647565b5f80546040516001600160a01b03909116907f8be0079c531659141344cd1fd0a4f28419497f9722a3daafe3b4186f6b6457e0908390a35f80546001600160a01b0319169055565b5f8054600160a01b900460ff1615156001036102f4575f546001600160a01b031633146102f45760405162461bcd60e51b815260040161015a90610647565b836001600160a01b031663313ce5676040518163ffffffff1660e01b8152600401602060405180830381865afa158015610330573d5f5f3e3d5ffd5b505050506040513d601f19601f820116820180604052508101906103549190610690565b61035f90600a6107a9565b61036b906127106107b7565b8211156103c95760405162461bcd60e51b815260206004820152602660248201527f4572726f723a204d696e74206c696d6974207472616e73616374696f6e20657860448201526518d95959195960d21b606482015260840161015a565b6040516340c10f1960e01b81526001600160a01b038481166004830152602482018490528516906340c10f19906044016020604051808303815f875af1158015610415573d5f5f3e3d5ffd5b505050506040513d601f19601f8201168201806040525081019061043991906107ce565b50909392505050565b5f546001600160a01b0316331461046b5760405162461bcd60e51b815260040161015a90610647565b6001600160a01b0381166104d05760405162461bcd60e51b815260206004820152602660248201527f4f776e61626c653a206e6577206f776e657220697320746865207a65726f206160448201526564647265737360d01b606482015260840161015a565b5f80546040516001600160a01b03808516939216917f8be0079c531659141344cd1fd0a4f28419497f9722a3daafe3b4186f6b6457e091a35f80546001600160a01b0319166001600160a01b0392909216919091179055565b8015158114610536575f5ffd5b50565b5f60208284031215610549575f5ffd5b813561055481610529565b9392505050565b80356001600160a01b0381168114610571575f5ffd5b919050565b5f5f5f60408486031215610588575f5ffd5b833567ffffffffffffffff81111561059e575f5ffd5b8401601f810186136105ae575f5ffd5b803567ffffffffffffffff8111156105c4575f5ffd5b8660208260051b84010111156105d8575f5ffd5b6020918201945092506105ec90850161055b565b90509250925092565b5f5f5f60608486031215610607575f5ffd5b6106108461055b565b925061061e6020850161055b565b9150604084013590509250925092565b5f6020828403121561063e575f5ffd5b6105548261055b565b6020808252818101527f4f776e61626c653a2063616c6c6572206973206e6f7420746865206f776e6572604082015260600190565b634e487b7160e01b5f52603260045260245ffd5b5f602082840312156106a0575f5ffd5b815160ff81168114610554575f5ffd5b634e487b7160e01b5f52601160045260245ffd5b6001815b60018411156106ff578085048111156106e3576106e36106b0565b60018416156106f157908102905b60019390931c9280026106c8565b935093915050565b5f82610715575060016107a3565b8161072157505f6107a3565b816001811461073757600281146107415761075d565b60019150506107a3565b60ff841115610752576107526106b0565b50506001821b6107a3565b5060208310610133831016604e8410600b8410161715610780575081810a6107a3565b61078c5f1984846106c4565b805f190482111561079f5761079f6106b0565b0290505b92915050565b5f61055460ff841683610707565b80820281158282048414176107a3576107a36106b0565b5f602082840312156107de575f5ffd5b81516105548161052956fea164736f6c634300081b000a8be0079c531659141344cd1fd0a4f28419497f9722a3daafe3b4186f6b6457e0","linkReferences":{}},"methodIdentifiers":{"MAX_MINT_AMOUNT()":"fa9b7018","isPermissioned()":"e2a4157c","mint(address,address,uint256)":"c6c3bbe6","owner()":"8da5cb5b","renounceOwnership()":"715018a6","setPermissioned(bool)":"1a678cd3","transferOwnership(address)":"f2fde38b","transferOwnershipOfChild(address[],address)":"506f26cc"},"id":195}