{"abi":[{"type":"constructor","inputs":[{"name":"marketId","type":"string","internalType":"string"},{"name":"owner","type":"address","internalType":"address"}],"stateMutability":"nonpayable"},{"type":"function","name":"getACLAdmin","inputs":[],"outputs":[{"name":"","type":"address","internalType":"address"}],"stateMutability":"view"},{"type":"function","name":"getACLManager","inputs":[],"outputs":[{"name":"","type":"address","internalType":"address"}],"stateMutability":"view"},{"type":"function","name":"getAddress","inputs":[{"name":"id","type":"bytes32","internalType":"bytes32"}],"outputs":[{"name":"","type":"address","internalType":"address"}],"stateMutability":"view"},{"type":"function","name":"getMarketId","inputs":[],"outputs":[{"name":"","type":"string","internalType":"string"}],"stateMutability":"view"},{"type":"function","name":"getPool","inputs":[],"outputs":[{"name":"","type":"address","internalType":"address"}],"stateMutability":"view"},{"type":"function","name":"getPoolConfigurator","inputs":[],"outputs":[{"name":"","type":"address","internalType":"address"}],"stateMutability":"view"},{"type":"function","name":"getPoolDataProvider","inputs":[],"outputs":[{"name":"","type":"address","internalType":"address"}],"stateMutability":"view"},{"type":"function","name":"getPriceOracle","inputs":[],"outputs":[{"name":"","type":"address","internalType":"address"}],"stateMutability":"view"},{"type":"function","name":"getPriceOracleSentinel","inputs":[],"outputs":[{"name":"","type":"address","internalType":"address"}],"stateMutability":"view"},{"type":"function","name":"owner","inputs":[],"outputs":[{"name":"","type":"address","internalType":"address"}],"stateMutability":"view"},{"type":"function","name":"renounceOwnership","inputs":[],"outputs":[],"stateMutability":"nonpayable"},{"type":"function","name":"setACLAdmin","inputs":[{"name":"newAclAdmin","type":"address","internalType":"address"}],"outputs":[],"stateMutability":"nonpayable"},{"type":"function","name":"setACLManager","inputs":[{"name":"newAclManager","type":"address","internalType":"address"}],"outputs":[],"stateMutability":"nonpayable"},{"type":"function","name":"setAddress","inputs":[{"name":"id","type":"bytes32","internalType":"bytes32"},{"name":"newAddress","type":"address","internalType":"address"}],"outputs":[],"stateMutability":"nonpayable"},{"type":"function","name":"setAddressAsProxy","inputs":[{"name":"id","type":"bytes32","internalType":"bytes32"},{"name":"newImplementationAddress","type":"address","internalType":"address"}],"outputs":[],"stateMutability":"nonpayable"},{"type":"function","name":"setMarketId","inputs":[{"name":"newMarketId","type":"string","internalType":"string"}],"outputs":[],"stateMutability":"nonpayable"},{"type":"function","name":"setPoolConfiguratorImpl","inputs":[{"name":"newPoolConfiguratorImpl","type":"address","internalType":"address"}],"outputs":[],"stateMutability":"nonpayable"},{"type":"function","name":"setPoolDataProvider","inputs":[{"name":"newDataProvider","type":"address","internalType":"address"}],"outputs":[],"stateMutability":"nonpayable"},{"type":"function","name":"setPoolImpl","inputs":[{"name":"newPoolImpl","type":"address","internalType":"address"}],"outputs":[],"stateMutability":"nonpayable"},{"type":"function","name":"setPriceOracle","inputs":[{"name":"newPriceOracle","type":"address","internalType":"address"}],"outputs":[],"stateMutability":"nonpayable"},{"type":"function","name":"setPriceOracleSentinel","inputs":[{"name":"newPriceOracleSentinel","type":"address","internalType":"address"}],"outputs":[],"stateMutability":"nonpayable"},{"type":"function","name":"transferOwnership","inputs":[{"name":"newOwner","type":"address","internalType":"address"}],"outputs":[],"stateMutability":"nonpayable"},{"type":"event","name":"ACLAdminUpdated","inputs":[{"name":"oldAddress","type":"address","indexed":true,"internalType":"address"},{"name":"newAddress","type":"address","indexed":true,"internalType":"address"}],"anonymous":false},{"type":"event","name":"ACLManagerUpdated","inputs":[{"name":"oldAddress","type":"address","indexed":true,"internalType":"address"},{"name":"newAddress","type":"address","indexed":true,"internalType":"address"}],"anonymous":false},{"type":"event","name":"AddressSet","inputs":[{"name":"id","type":"bytes32","indexed":true,"internalType":"bytes32"},{"name":"oldAddress","type":"address","indexed":true,"internalType":"address"},{"name":"newAddress","type":"address","indexed":true,"internalType":"address"}],"anonymous":false},{"type":"event","name":"AddressSetAsProxy","inputs":[{"name":"id","type":"bytes32","indexed":true,"internalType":"bytes32"},{"name":"proxyAddress","type":"address","indexed":true,"internalType":"address"},{"name":"oldImplementationAddress","type":"address","indexed":false,"internalType":"address"},{"name":"newImplementationAddress","type":"address","indexed":true,"internalType":"address"}],"anonymous":false},{"type":"event","name":"MarketIdSet","inputs":[{"name":"oldMarketId","type":"string","indexed":true,"internalType":"string"},{"name":"newMarketId","type":"string","indexed":true,"internalType":"string"}],"anonymous":false},{"type":"event","name":"OwnershipTransferred","inputs":[{"name":"previousOwner","type":"address","indexed":true,"internalType":"address"},{"name":"newOwner","type":"address","indexed":true,"internalType":"address"}],"anonymous":false},{"type":"event","name":"PoolConfiguratorUpdated","inputs":[{"name":"oldAddress","type":"address","indexed":true,"internalType":"address"},{"name":"newAddress","type":"address","indexed":true,"internalType":"address"}],"anonymous":false},{"type":"event","name":"PoolDataProviderUpdated","inputs":[{"name":"oldAddress","type":"address","indexed":true,"internalType":"address"},{"name":"newAddress","type":"address","indexed":true,"internalType":"address"}],"anonymous":false},{"type":"event","name":"PoolUpdated","inputs":[{"name":"oldAddress","type":"address","indexed":true,"internalType":"address"},{"name":"newAddress","type":"address","indexed":true,"internalType":"address"}],"anonymous":false},{"type":"event","name":"PriceOracleSentinelUpdated","inputs":[{"name":"oldAddress","type":"address","indexed":true,"internalType":"address"},{"name":"newAddress","type":"address","indexed":true,"internalType":"address"}],"anonymous":false},{"type":"event","name":"PriceOracleUpdated","inputs":[{"name":"oldAddress","type":"address","indexed":true,"internalType":"address"},{"name":"newAddress","type":"address","indexed":true,"internalType":"address"}],"anonymous":false},{"type":"event","name":"ProxyCreated","inputs":[{"name":"id","type":"bytes32","indexed":true,"internalType":"bytes32"},{"name":"proxyAddress","type":"address","indexed":true,"internalType":"address"},{"name":"implementationAddress","type":"address","indexed":true,"internalType":"address"}],"anonymous":false}],"bytecode":{"object":"0x608060405234801561000f575f5ffd5b5060405161203b38038061203b83398101604081905261002e916102c1565b5f80546001600160a01b031916339081178255604051909182915f51602061201b5f395f51905f52908290a35061006482610074565b61006d81610167565b50506104d9565b5f6001805461008290610380565b80601f01602080910402602001604051908101604052809291908181526020018280546100ae90610380565b80156100f95780601f106100d0576101008083540402835291602001916100f9565b820191905f5260205f20905b8154815290600101906020018083116100dc57829003601f168201915b50505050509050816001908161010f9190610404565b508160405161011e91906104be565b60405180910390208160405161013491906104be565b604051908190038120907fe685c8cdecc6030c45030fd54778812cb84ed8e4467c38294403d68ba7860823905f90a35050565b5f546001600160a01b031633146101c55760405162461bcd60e51b815260206004820181905260248201527f4f776e61626c653a2063616c6c6572206973206e6f7420746865206f776e657260448201526064015b60405180910390fd5b6001600160a01b03811661022a5760405162461bcd60e51b815260206004820152602660248201527f4f776e61626c653a206e6577206f776e657220697320746865207a65726f206160448201526564647265737360d01b60648201526084016101bc565b5f80546040516001600160a01b03808516939216915f51602061201b5f395f51905f5291a35f80546001600160a01b0319166001600160a01b0392909216919091179055565b634e487b7160e01b5f52604160045260245ffd5b5f5b8381101561029e578181015183820152602001610286565b50505f910152565b80516001600160a01b03811681146102bc575f5ffd5b919050565b5f5f604083850312156102d2575f5ffd5b82516001600160401b038111156102e7575f5ffd5b8301601f810185136102f7575f5ffd5b80516001600160401b0381111561031057610310610270565b604051601f8201601f19908116603f011681016001600160401b038111828210171561033e5761033e610270565b604052818152828201602001871015610355575f5ffd5b610366826020830160208601610284565b9350610377915050602084016102a6565b90509250929050565b600181811c9082168061039457607f821691505b6020821081036103b257634e487b7160e01b5f52602260045260245ffd5b50919050565b601f8211156103ff57805f5260205f20601f840160051c810160208510156103dd5750805b601f840160051c820191505b818110156103fc575f81556001016103e9565b50505b505050565b81516001600160401b0381111561041d5761041d610270565b6104318161042b8454610380565b846103b8565b6020601f821160018114610463575f831561044c5750848201515b5f19600385901b1c1916600184901b1784556103fc565b5f84815260208120601f198516915b828110156104925787850151825560209485019460019092019101610472565b50848210156104af57868401515f19600387901b60f8161c191681555b50505050600190811b01905550565b5f82516104cf818460208701610284565b9190910192915050565b611b35806104e65f395ff3fe608060405234801561000f575f5ffd5b506004361061013d575f3560e01c806376d84ffc116100b4578063e4ca28b711610079578063e4ca28b71461039b578063e860accb146103ae578063ed301ca9146103f6578063f2fde38b14610409578063f67b18471461041c578063fca513a81461042f575f5ffd5b806376d84ffc1461033f5780638da5cb5b14610352578063a156440614610362578063ca446dd914610375578063e44e9ed114610388575f5ffd5b80635dcc528c116101055780635dcc528c1461022f5780635eb88d3d14610242578063631adfca14610292578063707cd716146102de578063715018a61461032457806374944cec1461032c575f5ffd5b8063026b1d5f146101415780630e67178c1461019957806321f8a721146101dd578063530e784f14610205578063568ef4701461021a575b5f5ffd5b631413d3d360e21b5f5260026020527f4fe005067814bb4b024d9515847377d15011b64593c006223b4a722952d2c05a546001600160a01b03165b6040516001600160a01b0390911681526020015b60405180910390f35b6820a1a62fa0a226a4a760b91b5f5260026020527ffab167ad2009dcb80ee379700bb4bd029d97c1181ed9d961625632c8a6f051c6546001600160a01b031661017c565b61017c6101eb366004610fd5565b5f908152600260205260409020546001600160a01b031690565b610218610213366004611000565b610476565b005b61022261052f565b604051610190919061106f565b61021861023d366004611081565b6105bf565b7414149250d157d3d49050d31157d4d1539512539153605a1b5f5260026020527f0d2c1bcee56447b4f46248272f34207a580a5c40f666a31f4e2fbb470ea53ab8546001600160a01b031661017c565b702827a7a62fa1a7a72324a3aaa920aa27a960791b5f5260026020527f90c127ef1c12c03f5781afeca3079527ea5333738078bba6fea26825bf9bf2c5546001600160a01b031661017c565b6a20a1a62fa6a0a720a3a2a960a91b5f5260026020527f9edef266ef35fd0c6e131df0f31a330f3dd4c4d19dd31ed615c21d005c68116b546001600160a01b031661017c565b610218610662565b61021861033a366004611000565b6106d3565b61021861034d366004611000565b61078c565b5f546001600160a01b031661017c565b610218610370366004611000565b610839565b610218610383366004611081565b6108ca565b610218610396366004611000565b610950565b6102186103a9366004611000565b610a01565b6c2220aa20afa82927ab24a222a960991b5f5260026020527fcd7944601aaa5cd7ccdae1bebec659e98c6aac8f12486b30e59db0d39698051f546001600160a01b031661017c565b610218610404366004611000565b610aac565b610218610417366004611000565b610b5b565b61021861042a3660046110c3565b610c42565b6b50524943455f4f5241434c4560a01b5f5260026020527f740f710666bd7a12af42df98311e541e47f7fd33d382d11602457a6d540cbd63546001600160a01b031661017c565b5f546001600160a01b031633146104a85760405162461bcd60e51b815260040161049f90611176565b60405180910390fd5b6b50524943455f4f5241434c4560a01b5f90815260026020527f740f710666bd7a12af42df98311e541e47f7fd33d382d11602457a6d540cbd6380546001600160a01b038481166001600160a01b03198316811790935560405191169283917f56b5f80d8cac1479698aa7d01605fd6111e90b15fc4d2b377417f46034876cbd9190a35050565b60606001805461053e906111ab565b80601f016020809104026020016040519081016040528092919081815260200182805461056a906111ab565b80156105b55780601f1061058c576101008083540402835291602001916105b5565b820191905f5260205f20905b81548152906001019060200180831161059857829003601f168201915b5050505050905090565b5f546001600160a01b031633146105e85760405162461bcd60e51b815260040161049f90611176565b5f828152600260205260408120546001600160a01b03169061060984610c77565b90506106158484610d0e565b6040516001600160a01b038281168252808516919084169086907f3bbd45b5429b385e3fb37ad5cd1cd1435a3c8ec32196c7937597365a3fd3e99c9060200160405180910390a450505050565b5f546001600160a01b0316331461068b5760405162461bcd60e51b815260040161049f90611176565b5f80546040516001600160a01b03909116907f8be0079c531659141344cd1fd0a4f28419497f9722a3daafe3b4186f6b6457e0908390a35f80546001600160a01b0319169055565b5f546001600160a01b031633146106fc5760405162461bcd60e51b815260040161049f90611176565b7414149250d157d3d49050d31157d4d1539512539153605a1b5f90815260026020527f0d2c1bcee56447b4f46248272f34207a580a5c40f666a31f4e2fbb470ea53ab880546001600160a01b038481166001600160a01b03198316811790935560405191169283917f5326514eeca90494a14bedabcff812a0e683029ee85d1e23824d44fd14cd6ae79190a35050565b5f546001600160a01b031633146107b55760405162461bcd60e51b815260040161049f90611176565b6820a1a62fa0a226a4a760b91b5f90815260026020527ffab167ad2009dcb80ee379700bb4bd029d97c1181ed9d961625632c8a6f051c680546001600160a01b038481166001600160a01b03198316811790935560405191169283917fe9cf53972264dc95304fd424458745019ddfca0e37ae8f703d74772c41ad115b9190a35050565b5f546001600160a01b031633146108625760405162461bcd60e51b815260040161049f90611176565b5f610873631413d3d360e21b610c77565b9050610886631413d3d360e21b83610d0e565b816001600160a01b0316816001600160a01b03167f90affc163f1a2dfedcd36aa02ed992eeeba8100a4014f0b4cdc20ea265a6662760405160405180910390a35050565b5f546001600160a01b031633146108f35760405162461bcd60e51b815260040161049f90611176565b5f8281526002602052604080822080546001600160a01b031981166001600160a01b038681169182179093559251911692839186917f9ef0e8c8e52743bb38b83b17d9429141d494b8041ca6d616a6c77cebae9cd8b791a4505050565b5f546001600160a01b031633146109795760405162461bcd60e51b815260040161049f90611176565b6c2220aa20afa82927ab24a222a960991b5f90815260026020527fcd7944601aaa5cd7ccdae1bebec659e98c6aac8f12486b30e59db0d39698051f80546001600160a01b038481166001600160a01b03198316811790935560405191169283917fc853974cfbf81487a14a23565917bee63f527853bcb5fa54f2ae1cdf8a38356d9190a35050565b5f546001600160a01b03163314610a2a5760405162461bcd60e51b815260040161049f90611176565b5f610a48702827a7a62fa1a7a72324a3aaa920aa27a960791b610c77565b9050610a68702827a7a62fa1a7a72324a3aaa920aa27a960791b83610d0e565b816001600160a01b0316816001600160a01b03167f8932892569eba59c8382a089d9b732d1f49272878775235761a2a6b0309cd46560405160405180910390a35050565b5f546001600160a01b03163314610ad55760405162461bcd60e51b815260040161049f90611176565b6a20a1a62fa6a0a720a3a2a960a91b5f90815260026020527f9edef266ef35fd0c6e131df0f31a330f3dd4c4d19dd31ed615c21d005c68116b80546001600160a01b038481166001600160a01b03198316811790935560405191169283917fb30efa04327bb8a537d61cc1e5c48095345ad18ef7cc04e6bacf7dfb6caaf5079190a35050565b5f546001600160a01b03163314610b845760405162461bcd60e51b815260040161049f90611176565b6001600160a01b038116610be95760405162461bcd60e51b815260206004820152602660248201527f4f776e61626c653a206e6577206f776e657220697320746865207a65726f206160448201526564647265737360d01b606482015260840161049f565b5f80546040516001600160a01b03808516939216917f8be0079c531659141344cd1fd0a4f28419497f9722a3daafe3b4186f6b6457e091a35f80546001600160a01b0319166001600160a01b0392909216919091179055565b5f546001600160a01b03163314610c6b5760405162461bcd60e51b815260040161049f90611176565b610c7481610ed5565b50565b5f818152600260205260408120546001600160a01b031680610c9b57505f92915050565b5f819050806001600160a01b0316635c60da1b6040518163ffffffff1660e01b81526004016020604051808303815f875af1158015610cdc573d5f5f3e3d5ffd5b505050506040513d601f19601f82011682018060405250810190610d0091906111dd565b949350505050565b50919050565b5f828152600260205260408082205490513060248201526001600160a01b039091169190819060440160408051601f198184030181529190526020810180516001600160e01b031663189acdbd60e31b17905290506001600160a01b038316610e6f5730604051610d7e90610fc8565b6001600160a01b039091168152602001604051809103905ff080158015610da7573d5f5f3e3d5ffd5b505f868152600260205260409081902080546001600160a01b0319166001600160a01b038416908117909155905163347d5e2560e21b81529194508493509063d1f5789490610dfc90879085906004016111f8565b5f604051808303815f87803b158015610e13575f5ffd5b505af1158015610e25573d5f5f3e3d5ffd5b50505050836001600160a01b0316836001600160a01b0316867f4a465a9bd819d9662563c1e11ae958f8109e437e7f4bf1c6ef0b9a7b3f35d47860405160405180910390a4610ece565b60405163278f794360e11b81528392506001600160a01b03831690634f1ef28690610ea090879085906004016111f8565b5f604051808303815f87803b158015610eb7575f5ffd5b505af1158015610ec9573d5f5f3e3d5ffd5b505050505b5050505050565b5f60018054610ee3906111ab565b80601f0160208091040260200160405190810160405280929190818152602001828054610f0f906111ab565b8015610f5a5780601f10610f3157610100808354040283529160200191610f5a565b820191905f5260205f20905b815481529060010190602001808311610f3d57829003601f168201915b505050505090508160019081610f709190611264565b5081604051610f7f919061131f565b604051809103902081604051610f95919061131f565b604051908190038120907fe685c8cdecc6030c45030fd54778812cb84ed8e4467c38294403d68ba7860823905f90a35050565b6107ee8061133b83390190565b5f60208284031215610fe5575f5ffd5b5035919050565b6001600160a01b0381168114610c74575f5ffd5b5f60208284031215611010575f5ffd5b813561101b81610fec565b9392505050565b5f5b8381101561103c578181015183820152602001611024565b50505f910152565b5f815180845261105b816020860160208601611022565b601f01601f19169290920160200192915050565b602081525f61101b6020830184611044565b5f5f60408385031215611092575f5ffd5b8235915060208301356110a481610fec565b809150509250929050565b634e487b7160e01b5f52604160045260245ffd5b5f602082840312156110d3575f5ffd5b813567ffffffffffffffff8111156110e9575f5ffd5b8201601f810184136110f9575f5ffd5b803567ffffffffffffffff811115611113576111136110af565b604051601f8201601f19908116603f0116810167ffffffffffffffff81118282101715611142576111426110af565b604052818152828201602001861015611159575f5ffd5b816020840160208301375f91810160200191909152949350505050565b6020808252818101527f4f776e61626c653a2063616c6c6572206973206e6f7420746865206f776e6572604082015260600190565b600181811c908216806111bf57607f821691505b602082108103610d0857634e487b7160e01b5f52602260045260245ffd5b5f602082840312156111ed575f5ffd5b815161101b81610fec565b6001600160a01b03831681526040602082018190525f90610d0090830184611044565b601f82111561125f57805f5260205f20601f840160051c810160208510156112405750805b601f840160051c820191505b81811015610ece575f815560010161124c565b505050565b815167ffffffffffffffff81111561127e5761127e6110af565b6112928161128c84546111ab565b8461121b565b6020601f8211600181146112c4575f83156112ad5750848201515b5f19600385901b1c1916600184901b178455610ece565b5f84815260208120601f198516915b828110156112f357878501518255602094850194600190920191016112d3565b508482101561131057868401515f19600387901b60f8161c191681555b50505050600190811b01905550565b5f8251611330818460208701611022565b919091019291505056fe60a060405234801561000f575f5ffd5b506040516107ee3803806107ee83398101604081905261002e9161003f565b6001600160a01b031660805261006c565b5f6020828403121561004f575f5ffd5b81516001600160a01b0381168114610065575f5ffd5b9392505050565b6080516107476100a75f395f818161011e01528181610162015281816102140152818161034801528181610371015261048c01526107475ff3fe60806040526004361061004d575f3560e01c80633659cfe6146100645780634f1ef286146100835780635c60da1b14610096578063d1f57894146100c6578063f851a440146100d95761005c565b3661005c5761005a6100ed565b005b61005a6100ed565b34801561006f575f5ffd5b5061005a61007e366004610530565b610114565b61005a610091366004610550565b610158565b3480156100a1575f5ffd5b506100aa610209565b6040516001600160a01b03909116815260200160405180910390f35b61005a6100d43660046105e2565b610258565b3480156100e4575f5ffd5b506100aa61033d565b6100f5610393565b61011261010d5f51602061071b5f395f51905f525490565b61039b565b565b6001600160a01b037f00000000000000000000000000000000000000000000000000000000000000001633036101505761014d816103b9565b50565b61014d6100ed565b6001600160a01b037f00000000000000000000000000000000000000000000000000000000000000001633036101fc57610191836103b9565b5f836001600160a01b031683836040516101ac9291906106a6565b5f60405180830381855af49150503d805f81146101e4576040519150601f19603f3d011682016040523d82523d5f602084013e6101e9565b606091505b50509050806101f6575f5ffd5b50505050565b6102046100ed565b505050565b5f6001600160a01b037f000000000000000000000000000000000000000000000000000000000000000016330361024d57505f51602061071b5f395f51905f525490565b6102556100ed565b90565b5f61026e5f51602061071b5f395f51905f525490565b6001600160a01b031614610280575f5ffd5b6102ab60017f360894a13ba1a3210667c828492db98dca3e2076cc3735a920a3ca505d382bbd6106b5565b5f51602061071b5f395f51905f52146102c6576102c66106da565b6102cf826103f8565b805115610339575f826001600160a01b0316826040516102ef91906106ee565b5f60405180830381855af49150503d805f8114610327576040519150601f19603f3d011682016040523d82523d5f602084013e61032c565b606091505b5050905080610204575f5ffd5b5050565b5f6001600160a01b037f000000000000000000000000000000000000000000000000000000000000000016330361024d57507f000000000000000000000000000000000000000000000000000000000000000090565b610112610482565b365f5f375f5f365f845af43d5f5f3e8080156103b5573d5ff35b3d5ffd5b6103c2816103f8565b6040516001600160a01b038216907fbc7cd75a20ee27fd9adebab32041f755214dbc6bffa90cc0225b39da2e5c2d3b905f90a250565b803b6104715760405162461bcd60e51b815260206004820152603b60248201527f43616e6e6f742073657420612070726f787920696d706c656d656e746174696f60448201527f6e20746f2061206e6f6e2d636f6e74726163742061646472657373000000000060648201526084015b60405180910390fd5b5f51602061071b5f395f51905f5255565b6001600160a01b037f00000000000000000000000000000000000000000000000000000000000000001633036101125760405162461bcd60e51b815260206004820152603260248201527f43616e6e6f742063616c6c2066616c6c6261636b2066756e6374696f6e20667260448201527137b6903a343290383937bc3c9030b236b4b760711b6064820152608401610468565b80356001600160a01b038116811461052b575f5ffd5b919050565b5f60208284031215610540575f5ffd5b61054982610515565b9392505050565b5f5f5f60408486031215610562575f5ffd5b61056b84610515565b9250602084013567ffffffffffffffff811115610586575f5ffd5b8401601f81018613610596575f5ffd5b803567ffffffffffffffff8111156105ac575f5ffd5b8660208284010111156105bd575f5ffd5b939660209190910195509293505050565b634e487b7160e01b5f52604160045260245ffd5b5f5f604083850312156105f3575f5ffd5b6105fc83610515565b9150602083013567ffffffffffffffff811115610617575f5ffd5b8301601f81018513610627575f5ffd5b803567ffffffffffffffff811115610641576106416105ce565b604051601f8201601f19908116603f0116810167ffffffffffffffff81118282101715610670576106706105ce565b604052818152828201602001871015610687575f5ffd5b816020840160208301375f602083830101528093505050509250929050565b818382375f9101908152919050565b818103818111156106d457634e487b7160e01b5f52601160045260245ffd5b92915050565b634e487b7160e01b5f52600160045260245ffd5b5f82515f5b8181101561070d57602081860181015185830152016106f3565b505f92019182525091905056fe360894a13ba1a3210667c828492db98dca3e2076cc3735a920a3ca505d382bbca164736f6c634300081b000aa164736f6c634300081b000a8be0079c531659141344cd1fd0a4f28419497f9722a3daafe3b4186f6b6457e0","linkReferences":{}},"methodIdentifiers":{"getACLAdmin()":"0e67178c","getACLManager()":"707cd716","getAddress(bytes32)":"21f8a721","getMarketId()":"568ef470","getPool()":"026b1d5f","getPoolConfigurator()":"631adfca","getPoolDataProvider()":"e860accb","getPriceOracle()":"fca513a8","getPriceOracleSentinel()":"5eb88d3d","owner()":"8da5cb5b","renounceOwnership()":"715018a6","setACLAdmin(address)":"76d84ffc","setACLManager(address)":"ed301ca9","setAddress(bytes32,address)":"ca446dd9","setAddressAsProxy(bytes32,address)":"5dcc528c","setMarketId(string)":"f67b1847","setPoolConfiguratorImpl(address)":"e4ca28b7","setPoolDataProvider(address)":"e44e9ed1","setPoolImpl(address)":"a1564406","setPriceOracle(address)":"530e784f","setPriceOracleSentinel(address)":"74944cec","transferOwnership(address)":"f2fde38b"},"id":223}