{"abi":[{"type":"receive","stateMutability":"payable"},{"type":"function","name":"allowance","inputs":[{"name":"","type":"address","internalType":"address"},{"name":"","type":"address","internalType":"address"}],"outputs":[{"name":"","type":"uint256","internalType":"uint256"}],"stateMutability":"view"},{"type":"function","name":"approve","inputs":[{"name":"guy","type":"address","internalType":"address"},{"name":"wad","type":"uint256","internalType":"uint256"}],"outputs":[{"name":"","type":"bool","internalType":"bool"}],"stateMutability":"nonpayable"},{"type":"function","name":"balanceOf","inputs":[{"name":"","type":"address","internalType":"address"}],"outputs":[{"name":"","type":"uint256","internalType":"uint256"}],"stateMutability":"view"},{"type":"function","name":"decimals","inputs":[],"outputs":[{"name":"","type":"uint8","internalType":"uint8"}],"stateMutability":"view"},{"type":"function","name":"deposit","inputs":[],"outputs":[],"stateMutability":"payable"},{"type":"function","name":"mint","inputs":[{"name":"account","type":"address","internalType":"address"},{"name":"value","type":"uint256","internalType":"uint256"}],"outputs":[{"name":"","type":"bool","internalType":"bool"}],"stateMutability":"nonpayable"},{"type":"function","name":"mint","inputs":[{"name":"value","type":"uint256","internalType":"uint256"}],"outputs":[{"name":"","type":"bool","internalType":"bool"}],"stateMutability":"nonpayable"},{"type":"function","name":"name","inputs":[],"outputs":[{"name":"","type":"string","internalType":"string"}],"stateMutability":"view"},{"type":"function","name":"symbol","inputs":[],"outputs":[{"name":"","type":"string","internalType":"string"}],"stateMutability":"view"},{"type":"function","name":"totalSupply","inputs":[],"outputs":[{"name":"","type":"uint256","internalType":"uint256"}],"stateMutability":"view"},{"type":"function","name":"transfer","inputs":[{"name":"dst","type":"address","internalType":"address"},{"name":"wad","type":"uint256","internalType":"uint256"}],"outputs":[{"name":"","type":"bool","internalType":"bool"}],"stateMutability":"nonpayable"},{"type":"function","name":"transferFrom","inputs":[{"name":"src","type":"address","internalType":"address"},{"name":"dst","type":"address","internalType":"address"},{"name":"wad","type":"uint256","internalType":"uint256"}],"outputs":[{"name":"","type":"bool","internalType":"bool"}],"stateMutability":"nonpayable"},{"type":"function","name":"withdraw","inputs":[{"name":"wad","type":"uint256","internalType":"uint256"}],"outputs":[],"stateMutability":"nonpayable"},{"type":"event","name":"Approval","inputs":[{"name":"src","type":"address","indexed":true,"internalType":"address"},{"name":"guy","type":"address","indexed":true,"internalType":"address"},{"name":"wad","type":"uint256","indexed":false,"internalType":"uint256"}],"anonymous":false},{"type":"event","name":"Deposit","inputs":[{"name":"dst","type":"address","indexed":true,"internalType":"address"},{"name":"wad","type":"uint256","indexed":false,"internalType":"uint256"}],"anonymous":false},{"type":"event","name":"Transfer","inputs":[{"name":"src","type":"address","indexed":true,"internalType":"address"},{"name":"dst","type":"address","indexed":true,"internalType":"address"},{"name":"wad","type":"uint256","indexed":false,"internalType":"uint256"}],"anonymous":false},{"type":"event","name":"Withdrawal","inputs":[{"name":"src","type":"address","indexed":true,"internalType":"address"},{"name":"wad","type":"uint256","indexed":false,"internalType":"uint256"}],"anonymous":false}],"bytecode":{"object":"0x60c0604052600d60809081526c2bb930b83832b21022ba3432b960991b60a0525f9061002b908261010b565b506040805180820190915260048152630ae8aa8960e31b6020820152600190610054908261010b565b506002805460ff1916601217905534801561006d575f5ffd5b506101c5565b634e487b7160e01b5f52604160045260245ffd5b600181811c9082168061009b57607f821691505b6020821081036100b957634e487b7160e01b5f52602260045260245ffd5b50919050565b601f82111561010657805f5260205f20601f840160051c810160208510156100e45750805b601f840160051c820191505b81811015610103575f81556001016100f0565b50505b505050565b81516001600160401b0381111561012457610124610073565b610138816101328454610087565b846100bf565b6020601f82116001811461016a575f83156101535750848201515b5f19600385901b1c1916600184901b178455610103565b5f84815260208120601f198516915b828110156101995787850151825560209485019460019092019101610179565b50848210156101b657868401515f19600387901b60f8161c191681555b50505050600190811b01905550565b610890806101d25f395ff3fe6080604052600436106100c2575f3560e01c806340c10f191161007c578063a0712d6811610057578063a0712d6814610211578063a9059cbb14610230578063d0e30db01461024f578063dd62ed3e14610257575f5ffd5b806340c10f19146101b357806370a08231146101d257806395d89b41146101fd575f5ffd5b806306fdde03146100d5578063095ea7b3146100ff57806318160ddd1461012e57806323b872dd1461014a5780632e1a7d4d14610169578063313ce56714610188575f5ffd5b366100d1576100cf61028d565b005b5f5ffd5b3480156100e0575f5ffd5b506100e96102e7565b6040516100f691906106e8565b60405180910390f35b34801561010a575f5ffd5b5061011e61011936600461074e565b610372565b60405190151581526020016100f6565b348015610139575f5ffd5b50475b6040519081526020016100f6565b348015610155575f5ffd5b5061011e610164366004610776565b6103de565b348015610174575f5ffd5b506100cf6101833660046107b0565b610559565b348015610193575f5ffd5b506002546101a19060ff1681565b60405160ff90911681526020016100f6565b3480156101be575f5ffd5b5061011e6101cd36600461074e565b6105f9565b3480156101dd575f5ffd5b5061013c6101ec3660046107c7565b60036020525f908152604090205481565b348015610208575f5ffd5b506100e9610664565b34801561021c575f5ffd5b5061011e61022b3660046107b0565b610671565b34801561023b575f5ffd5b5061011e61024a36600461074e565b6106d5565b6100cf61028d565b348015610262575f5ffd5b5061013c6102713660046107e0565b600460209081525f928352604080842090915290825290205481565b335f90815260036020526040812080543492906102ab908490610825565b909155505060405134815233907fe1fffcc4923d04b559f4d29a8bfc6cda04eb5b0d3c460751c2402c5c5cc9109c9060200160405180910390a2565b5f80546102f390610838565b80601f016020809104026020016040519081016040528092919081815260200182805461031f90610838565b801561036a5780601f106103415761010080835404028352916020019161036a565b820191905f5260205f20905b81548152906001019060200180831161034d57829003601f168201915b505050505081565b335f8181526004602090815260408083206001600160a01b038716808552925280832085905551919290917f8c5be1e5ebec7d5bd14f71427d1e84f3dd0314c0f7b2291e5b200ac8c7c3b925906103cc9086815260200190565b60405180910390a35060015b92915050565b6001600160a01b0383165f90815260036020526040812054821115610401575f5ffd5b6001600160a01b038416331480159061043d57506001600160a01b0384165f9081526004602090815260408083203384529091529020545f1914155b156104a8576001600160a01b0384165f908152600460209081526040808320338452909152902054821115610470575f5ffd5b6001600160a01b0384165f908152600460209081526040808320338452909152812080548492906104a2908490610870565b90915550505b6001600160a01b0384165f90815260036020526040812080548492906104cf908490610870565b90915550506001600160a01b0383165f90815260036020526040812080548492906104fb908490610825565b92505081905550826001600160a01b0316846001600160a01b03167fddf252ad1be2c89b69c2b068fc378daa952ba7f163c4a11628f55a4df523b3ef8460405161054791815260200190565b60405180910390a35060019392505050565b335f90815260036020526040902054811115610573575f5ffd5b335f9081526003602052604081208054839290610591908490610870565b9091555050604051339082156108fc029083905f818181858888f193505050501580156105c0573d5f5f3e3d5ffd5b5060405181815233907f7fcf532c15f0a6db0bd6d0e038bea71d30d808c7d98cb3bf7268a95bf5081b659060200160405180910390a250565b6001600160a01b0382165f90815260036020526040812080548391908390610622908490610825565b90915550506040518281526001600160a01b038416905f907fddf252ad1be2c89b69c2b068fc378daa952ba7f163c4a11628f55a4df523b3ef906020016103cc565b600180546102f390610838565b335f90815260036020526040812080548391908390610691908490610825565b909155505060405182815233905f907fddf252ad1be2c89b69c2b068fc378daa952ba7f163c4a11628f55a4df523b3ef9060200160405180910390a3506001919050565b5f6106e13384846103de565b9392505050565b602081525f82518060208401525f5b8181101561071457602081860181015160408684010152016106f7565b505f604082850101526040601f19601f83011684010191505092915050565b80356001600160a01b0381168114610749575f5ffd5b919050565b5f5f6040838503121561075f575f5ffd5b61076883610733565b946020939093013593505050565b5f5f5f60608486031215610788575f5ffd5b61079184610733565b925061079f60208501610733565b929592945050506040919091013590565b5f602082840312156107c0575f5ffd5b5035919050565b5f602082840312156107d7575f5ffd5b6106e182610733565b5f5f604083850312156107f1575f5ffd5b6107fa83610733565b915061080860208401610733565b90509250929050565b634e487b7160e01b5f52601160045260245ffd5b808201808211156103d8576103d8610811565b600181811c9082168061084c57607f821691505b60208210810361086a57634e487b7160e01b5f52602260045260245ffd5b50919050565b818103818111156103d8576103d861081156fea164736f6c634300081b000a","linkReferences":{}},"methodIdentifiers":{"allowance(address,address)":"dd62ed3e","approve(address,uint256)":"095ea7b3","balanceOf(address)":"70a08231","decimals()":"313ce567","deposit()":"d0e30db0","mint(address,uint256)":"40c10f19","mint(uint256)":"a0712d68","name()":"06fdde03","symbol()":"95d89b41","totalSupply()":"18160ddd","transfer(address,uint256)":"a9059cbb","transferFrom(address,address,uint256)":"23b872dd","withdraw(uint256)":"2e1a7d4d"},"id":205}