{"abi":[{"type":"function","name":"CONFIGURATOR_REVISION","inputs":[],"outputs":[{"name":"","type":"uint256","internalType":"uint256"}],"stateMutability":"view"},{"type":"function","name":"MAX_GRACE_PERIOD","inputs":[],"outputs":[{"name":"","type":"uint40","internalType":"uint40"}],"stateMutability":"view"},{"type":"function","name":"configureReserveAsCollateral","inputs":[{"name":"asset","type":"address","internalType":"address"},{"name":"ltv","type":"uint256","internalType":"uint256"},{"name":"liquidationThreshold","type":"uint256","internalType":"uint256"},{"name":"liquidationBonus","type":"uint256","internalType":"uint256"}],"outputs":[],"stateMutability":"nonpayable"},{"type":"function","name":"disableLiquidationGracePeriod","inputs":[{"name":"asset","type":"address","internalType":"address"}],"outputs":[],"stateMutability":"nonpayable"},{"type":"function","name":"dropReserve","inputs":[{"name":"asset","type":"address","internalType":"address"}],"outputs":[],"stateMutability":"nonpayable"},{"type":"function","name":"getConfiguratorLogic","inputs":[],"outputs":[{"name":"","type":"address","internalType":"address"}],"stateMutability":"pure"},{"type":"function","name":"getPendingLtv","inputs":[{"name":"asset","type":"address","internalType":"address"}],"outputs":[{"name":"","type":"uint256","internalType":"uint256"}],"stateMutability":"view"},{"type":"function","name":"initReserves","inputs":[{"name":"input","type":"tuple[]","internalType":"struct ConfiguratorInputTypes.InitReserveInput[]","components":[{"name":"aTokenImpl","type":"address","internalType":"address"},{"name":"variableDebtTokenImpl","type":"address","internalType":"address"},{"name":"underlyingAsset","type":"address","internalType":"address"},{"name":"aTokenName","type":"string","internalType":"string"},{"name":"aTokenSymbol","type":"string","internalType":"string"},{"name":"variableDebtTokenName","type":"string","internalType":"string"},{"name":"variableDebtTokenSymbol","type":"string","internalType":"string"},{"name":"params","type":"bytes","internalType":"bytes"},{"name":"interestRateData","type":"bytes","internalType":"bytes"}]}],"outputs":[],"stateMutability":"nonpayable"},{"type":"function","name":"initialize","inputs":[{"name":"provider","type":"address","internalType":"contract IPoolAddressesProvider"}],"outputs":[],"stateMutability":"nonpayable"},{"type":"function","name":"setAssetBorrowableInEMode","inputs":[{"name":"asset","type":"address","internalType":"address"},{"name":"categoryId","type":"uint8","internalType":"uint8"},{"name":"borrowable","type":"bool","internalType":"bool"}],"outputs":[],"stateMutability":"nonpayable"},{"type":"function","name":"setAssetCollateralInEMode","inputs":[{"name":"asset","type":"address","internalType":"address"},{"name":"categoryId","type":"uint8","internalType":"uint8"},{"name":"allowed","type":"bool","internalType":"bool"}],"outputs":[],"stateMutability":"nonpayable"},{"type":"function","name":"setBorrowCap","inputs":[{"name":"asset","type":"address","internalType":"address"},{"name":"newBorrowCap","type":"uint256","internalType":"uint256"}],"outputs":[],"stateMutability":"nonpayable"},{"type":"function","name":"setBorrowableInIsolation","inputs":[{"name":"asset","type":"address","internalType":"address"},{"name":"borrowable","type":"bool","internalType":"bool"}],"outputs":[],"stateMutability":"nonpayable"},{"type":"function","name":"setDebtCeiling","inputs":[{"name":"asset","type":"address","internalType":"address"},{"name":"newDebtCeiling","type":"uint256","internalType":"uint256"}],"outputs":[],"stateMutability":"nonpayable"},{"type":"function","name":"setEModeCategory","inputs":[{"name":"categoryId","type":"uint8","internalType":"uint8"},{"name":"ltv","type":"uint16","internalType":"uint16"},{"name":"liquidationThreshold","type":"uint16","internalType":"uint16"},{"name":"liquidationBonus","type":"uint16","internalType":"uint16"},{"name":"label","type":"string","internalType":"string"}],"outputs":[],"stateMutability":"nonpayable"},{"type":"function","name":"setLiquidationProtocolFee","inputs":[{"name":"asset","type":"address","internalType":"address"},{"name":"newFee","type":"uint256","internalType":"uint256"}],"outputs":[],"stateMutability":"nonpayable"},{"type":"function","name":"setPoolPause","inputs":[{"name":"paused","type":"bool","internalType":"bool"},{"name":"gracePeriod","type":"uint40","internalType":"uint40"}],"outputs":[],"stateMutability":"nonpayable"},{"type":"function","name":"setPoolPause","inputs":[{"name":"paused","type":"bool","internalType":"bool"}],"outputs":[],"stateMutability":"nonpayable"},{"type":"function","name":"setReserveActive","inputs":[{"name":"asset","type":"address","internalType":"address"},{"name":"active","type":"bool","internalType":"bool"}],"outputs":[],"stateMutability":"nonpayable"},{"type":"function","name":"setReserveBorrowing","inputs":[{"name":"asset","type":"address","internalType":"address"},{"name":"enabled","type":"bool","internalType":"bool"}],"outputs":[],"stateMutability":"nonpayable"},{"type":"function","name":"setReserveFactor","inputs":[{"name":"asset","type":"address","internalType":"address"},{"name":"newReserveFactor","type":"uint256","internalType":"uint256"}],"outputs":[],"stateMutability":"nonpayable"},{"type":"function","name":"setReserveFlashLoaning","inputs":[{"name":"asset","type":"address","internalType":"address"},{"name":"enabled","type":"bool","internalType":"bool"}],"outputs":[],"stateMutability":"nonpayable"},{"type":"function","name":"setReserveFreeze","inputs":[{"name":"asset","type":"address","internalType":"address"},{"name":"freeze","type":"bool","internalType":"bool"}],"outputs":[],"stateMutability":"nonpayable"},{"type":"function","name":"setReserveInterestRateData","inputs":[{"name":"asset","type":"address","internalType":"address"},{"name":"rateData","type":"bytes","internalType":"bytes"}],"outputs":[],"stateMutability":"nonpayable"},{"type":"function","name":"setReservePause","inputs":[{"name":"asset","type":"address","internalType":"address"},{"name":"paused","type":"bool","internalType":"bool"}],"outputs":[],"stateMutability":"nonpayable"},{"type":"function","name":"setReservePause","inputs":[{"name":"asset","type":"address","internalType":"address"},{"name":"paused","type":"bool","internalType":"bool"},{"name":"gracePeriod","type":"uint40","internalType":"uint40"}],"outputs":[],"stateMutability":"nonpayable"},{"type":"function","name":"setSiloedBorrowing","inputs":[{"name":"asset","type":"address","internalType":"address"},{"name":"newSiloed","type":"bool","internalType":"bool"}],"outputs":[],"stateMutability":"nonpayable"},{"type":"function","name":"setSupplyCap","inputs":[{"name":"asset","type":"address","internalType":"address"},{"name":"newSupplyCap","type":"uint256","internalType":"uint256"}],"outputs":[],"stateMutability":"nonpayable"},{"type":"function","name":"updateAToken","inputs":[{"name":"input","type":"tuple","internalType":"struct ConfiguratorInputTypes.UpdateATokenInput","components":[{"name":"asset","type":"address","internalType":"address"},{"name":"name","type":"string","internalType":"string"},{"name":"symbol","type":"string","internalType":"string"},{"name":"implementation","type":"address","internalType":"address"},{"name":"params","type":"bytes","internalType":"bytes"}]}],"outputs":[],"stateMutability":"nonpayable"},{"type":"function","name":"updateFlashloanPremium","inputs":[{"name":"newFlashloanPremium","type":"uint128","internalType":"uint128"}],"outputs":[],"stateMutability":"nonpayable"},{"type":"function","name":"updateVariableDebtToken","inputs":[{"name":"input","type":"tuple","internalType":"struct ConfiguratorInputTypes.UpdateDebtTokenInput","components":[{"name":"asset","type":"address","internalType":"address"},{"name":"name","type":"string","internalType":"string"},{"name":"symbol","type":"string","internalType":"string"},{"name":"implementation","type":"address","internalType":"address"},{"name":"params","type":"bytes","internalType":"bytes"}]}],"outputs":[],"stateMutability":"nonpayable"},{"type":"event","name":"ATokenUpgraded","inputs":[{"name":"asset","type":"address","indexed":true,"internalType":"address"},{"name":"proxy","type":"address","indexed":true,"internalType":"address"},{"name":"implementation","type":"address","indexed":true,"internalType":"address"}],"anonymous":false},{"type":"event","name":"AssetBorrowableInEModeChanged","inputs":[{"name":"asset","type":"address","indexed":true,"internalType":"address"},{"name":"categoryId","type":"uint8","indexed":false,"internalType":"uint8"},{"name":"borrowable","type":"bool","indexed":false,"internalType":"bool"}],"anonymous":false},{"type":"event","name":"AssetCollateralInEModeChanged","inputs":[{"name":"asset","type":"address","indexed":true,"internalType":"address"},{"name":"categoryId","type":"uint8","indexed":false,"internalType":"uint8"},{"name":"collateral","type":"bool","indexed":false,"internalType":"bool"}],"anonymous":false},{"type":"event","name":"BorrowCapChanged","inputs":[{"name":"asset","type":"address","indexed":true,"internalType":"address"},{"name":"oldBorrowCap","type":"uint256","indexed":false,"internalType":"uint256"},{"name":"newBorrowCap","type":"uint256","indexed":false,"internalType":"uint256"}],"anonymous":false},{"type":"event","name":"BorrowableInIsolationChanged","inputs":[{"name":"asset","type":"address","indexed":false,"internalType":"address"},{"name":"borrowable","type":"bool","indexed":false,"internalType":"bool"}],"anonymous":false},{"type":"event","name":"BridgeProtocolFeeUpdated","inputs":[{"name":"oldBridgeProtocolFee","type":"uint256","indexed":false,"internalType":"uint256"},{"name":"newBridgeProtocolFee","type":"uint256","indexed":false,"internalType":"uint256"}],"anonymous":false},{"type":"event","name":"CollateralConfigurationChanged","inputs":[{"name":"asset","type":"address","indexed":true,"internalType":"address"},{"name":"ltv","type":"uint256","indexed":false,"internalType":"uint256"},{"name":"liquidationThreshold","type":"uint256","indexed":false,"internalType":"uint256"},{"name":"liquidationBonus","type":"uint256","indexed":false,"internalType":"uint256"}],"anonymous":false},{"type":"event","name":"DebtCeilingChanged","inputs":[{"name":"asset","type":"address","indexed":true,"internalType":"address"},{"name":"oldDebtCeiling","type":"uint256","indexed":false,"internalType":"uint256"},{"name":"newDebtCeiling","type":"uint256","indexed":false,"internalType":"uint256"}],"anonymous":false},{"type":"event","name":"EModeCategoryAdded","inputs":[{"name":"categoryId","type":"uint8","indexed":true,"internalType":"uint8"},{"name":"ltv","type":"uint256","indexed":false,"internalType":"uint256"},{"name":"liquidationThreshold","type":"uint256","indexed":false,"internalType":"uint256"},{"name":"liquidationBonus","type":"uint256","indexed":false,"internalType":"uint256"},{"name":"oracle","type":"address","indexed":false,"internalType":"address"},{"name":"label","type":"string","indexed":false,"internalType":"string"}],"anonymous":false},{"type":"event","name":"FlashloanPremiumToProtocolUpdated","inputs":[{"name":"oldFlashloanPremiumToProtocol","type":"uint128","indexed":false,"internalType":"uint128"},{"name":"newFlashloanPremiumToProtocol","type":"uint128","indexed":false,"internalType":"uint128"}],"anonymous":false},{"type":"event","name":"FlashloanPremiumTotalUpdated","inputs":[{"name":"oldFlashloanPremiumTotal","type":"uint128","indexed":false,"internalType":"uint128"},{"name":"newFlashloanPremiumTotal","type":"uint128","indexed":false,"internalType":"uint128"}],"anonymous":false},{"type":"event","name":"LiquidationGracePeriodChanged","inputs":[{"name":"asset","type":"address","indexed":true,"internalType":"address"},{"name":"gracePeriodUntil","type":"uint40","indexed":false,"internalType":"uint40"}],"anonymous":false},{"type":"event","name":"LiquidationGracePeriodDisabled","inputs":[{"name":"asset","type":"address","indexed":true,"internalType":"address"}],"anonymous":false},{"type":"event","name":"LiquidationProtocolFeeChanged","inputs":[{"name":"asset","type":"address","indexed":true,"internalType":"address"},{"name":"oldFee","type":"uint256","indexed":false,"internalType":"uint256"},{"name":"newFee","type":"uint256","indexed":false,"internalType":"uint256"}],"anonymous":false},{"type":"event","name":"PendingLtvChanged","inputs":[{"name":"asset","type":"address","indexed":true,"internalType":"address"},{"name":"ltv","type":"uint256","indexed":false,"internalType":"uint256"}],"anonymous":false},{"type":"event","name":"ReserveActive","inputs":[{"name":"asset","type":"address","indexed":true,"internalType":"address"},{"name":"active","type":"bool","indexed":false,"internalType":"bool"}],"anonymous":false},{"type":"event","name":"ReserveBorrowing","inputs":[{"name":"asset","type":"address","indexed":true,"internalType":"address"},{"name":"enabled","type":"bool","indexed":false,"internalType":"bool"}],"anonymous":false},{"type":"event","name":"ReserveDropped","inputs":[{"name":"asset","type":"address","indexed":true,"internalType":"address"}],"anonymous":false},{"type":"event","name":"ReserveFactorChanged","inputs":[{"name":"asset","type":"address","indexed":true,"internalType":"address"},{"name":"oldReserveFactor","type":"uint256","indexed":false,"internalType":"uint256"},{"name":"newReserveFactor","type":"uint256","indexed":false,"internalType":"uint256"}],"anonymous":false},{"type":"event","name":"ReserveFlashLoaning","inputs":[{"name":"asset","type":"address","indexed":true,"internalType":"address"},{"name":"enabled","type":"bool","indexed":false,"internalType":"bool"}],"anonymous":false},{"type":"event","name":"ReserveFrozen","inputs":[{"name":"asset","type":"address","indexed":true,"internalType":"address"},{"name":"frozen","type":"bool","indexed":false,"internalType":"bool"}],"anonymous":false},{"type":"event","name":"ReserveInitialized","inputs":[{"name":"asset","type":"address","indexed":true,"internalType":"address"},{"name":"aToken","type":"address","indexed":true,"internalType":"address"},{"name":"stableDebtToken","type":"address","indexed":false,"internalType":"address"},{"name":"variableDebtToken","type":"address","indexed":false,"internalType":"address"},{"name":"interestRateStrategyAddress","type":"address","indexed":false,"internalType":"address"}],"anonymous":false},{"type":"event","name":"ReserveInterestRateDataChanged","inputs":[{"name":"asset","type":"address","indexed":true,"internalType":"address"},{"name":"strategy","type":"address","indexed":true,"internalType":"address"},{"name":"data","type":"bytes","indexed":false,"internalType":"bytes"}],"anonymous":false},{"type":"event","name":"ReserveInterestRateStrategyChanged","inputs":[{"name":"asset","type":"address","indexed":true,"internalType":"address"},{"name":"oldStrategy","type":"address","indexed":false,"internalType":"address"},{"name":"newStrategy","type":"address","indexed":false,"internalType":"address"}],"anonymous":false},{"type":"event","name":"ReservePaused","inputs":[{"name":"asset","type":"address","indexed":true,"internalType":"address"},{"name":"paused","type":"bool","indexed":false,"internalType":"bool"}],"anonymous":false},{"type":"event","name":"SiloedBorrowingChanged","inputs":[{"name":"asset","type":"address","indexed":true,"internalType":"address"},{"name":"oldState","type":"bool","indexed":false,"internalType":"bool"},{"name":"newState","type":"bool","indexed":false,"internalType":"bool"}],"anonymous":false},{"type":"event","name":"SupplyCapChanged","inputs":[{"name":"asset","type":"address","indexed":true,"internalType":"address"},{"name":"oldSupplyCap","type":"uint256","indexed":false,"internalType":"uint256"},{"name":"newSupplyCap","type":"uint256","indexed":false,"internalType":"uint256"}],"anonymous":false},{"type":"event","name":"VariableDebtTokenUpgraded","inputs":[{"name":"asset","type":"address","indexed":true,"internalType":"address"},{"name":"proxy","type":"address","indexed":true,"internalType":"address"},{"name":"implementation","type":"address","indexed":true,"internalType":"address"}],"anonymous":false},{"type":"error","name":"AssetNotListed","inputs":[]},{"type":"error","name":"CallerNotAssetListingOrPoolAdmin","inputs":[]},{"type":"error","name":"CallerNotPoolAdmin","inputs":[]},{"type":"error","name":"CallerNotPoolOrEmergencyAdmin","inputs":[]},{"type":"error","name":"CallerNotRiskOrPoolAdmin","inputs":[]},{"type":"error","name":"CallerNotRiskOrPoolOrEmergencyAdmin","inputs":[]},{"type":"error","name":"FlashloanPremiumInvalid","inputs":[]},{"type":"error","name":"InvalidBorrowCap","inputs":[]},{"type":"error","name":"InvalidDebtCeiling","inputs":[]},{"type":"error","name":"InvalidEmodeCategoryParams","inputs":[]},{"type":"error","name":"InvalidFreezeState","inputs":[]},{"type":"error","name":"InvalidGracePeriod","inputs":[]},{"type":"error","name":"InvalidLiquidationBonus","inputs":[]},{"type":"error","name":"InvalidLiquidationProtocolFee","inputs":[]},{"type":"error","name":"InvalidLiquidationThreshold","inputs":[]},{"type":"error","name":"InvalidLtv","inputs":[]},{"type":"error","name":"InvalidReserveFactor","inputs":[]},{"type":"error","name":"InvalidReserveIndex","inputs":[]},{"type":"error","name":"InvalidReserveParams","inputs":[]},{"type":"error","name":"InvalidSupplyCap","inputs":[]},{"type":"error","name":"ReserveDebtNotZero","inputs":[]},{"type":"error","name":"ReserveLiquidityNotZero","inputs":[]}],"bytecode":{"object":"0x60806040525f5f553480156011575f5ffd5b5060065f556140c9806100235f395ff3fe608060405234801561000f575f5ffd5b50600436106101dc575f3560e01c80637641f3d911610109578063aeb4fcc11161009e578063c4d66de81161006e578063c4d66de814610424578063d14a098314610437578063f213ef0e1461044a578063f65278101461045d575f5ffd5b8063aeb4fcc1146103d8578063b42d793b146103eb578063b736aaeb146103fe578063bfbc47ff14610411575f5ffd5b806396c205b3116100d957806396c205b31461037457806396e957c41461039f5780639c1d5f00146103b2578063a7fa83b7146103c5575f5ffd5b80637641f3d9146103105780637af635a6146103235780637c4e560b14610339578063888a1d5e1461034c575f5ffd5b8063466196491161017f57806363c9b8601161014f57806363c9b860146102c45780636623c804146102d7578063682cf264146102ea5780636aabe21d146102fd575f5ffd5b8063466196491461026757806348d9fba91461028b5780634b4e67531461029e578063571f03e5146102b1575f5ffd5b806323415e46116101ba57806323415e461461021b57806326d2cec21461022e57806334a461ea1461024157806338ae0cc314610254575f5ffd5b8063110ac256146101e057806312bc3f61146101f557806314ef0ac514610208575b5f5ffd5b6101f36101ee366004613588565b610470565b005b6101f36102033660046135e0565b6106ec565b6101f361021636600461362d565b6107d2565b6101f3610229366004613666565b61084d565b6101f361023c366004613681565b6108eb565b6101f361024f3660046136fe565b610a42565b6101f3610262366004613784565b610c22565b61027061384081565b60405164ffffffffff90911681526020015b60405180910390f35b6101f3610299366004613784565b610d4a565b6101f36102ac366004613681565b610d61565b6101f36102bf366004613681565b610f6e565b6101f36102d2366004613666565b61109b565b6101f36102e53660046137b0565b611133565b6101f36102f8366004613784565b6112f9565b6101f361030b36600461381f565b611422565b6101f361031e36600461386f565b6115d8565b61032b600681565b604051908152602001610282565b6101f361034736600461388a565b6115ed565b61032b61035a366004613666565b6001600160a01b03165f9081526036602052604090205490565b6040516001600160a01b0373__$7f4825fe44be376a2f872b8658e2a09d99$__168152602001610282565b6101f36103ad366004613784565b611841565b6101f36103c03660046138d6565b611aaa565b6101f36103d3366004613784565b611bf2565b6101f36103e6366004613681565b611d3b565b6101f36103f93660046138f1565b611eee565b6101f361040c366004613784565b612108565b6101f361041f36600461362d565b612232565b6101f3610432366004613666565b61227e565b6101f3610445366004613681565b6123d2565b6101f3610458366004613784565b6124ff565b6101f361046b366004613588565b61261b565b610478612889565b60355460405163903a2c7160e01b815260ff841660048201525f916001600160a01b03169063903a2c7190602401602060405180830381865afa1580156104c1573d5f5f3e3d5ffd5b505050506040513d601f19601f820116820180604052508101906104e59190613939565b6035546040516335ea6a7560e01b81526001600160a01b0387811660048301529293505f92909116906335ea6a75906024016101e060405180830381865afa158015610533573d5f5f3e3d5ffd5b505050506040513d601f19601f820116820180604052508101906105579190613a21565b90508060e0015161ffff165f1415806105fe5750603554604080516334651b6f60e21b815290516001600160a01b0380891693169163d1946dbc916004808301925f9291908290030181865afa1580156105b3573d5f5f3e3d5ffd5b505050506040513d5f823e601f3d908101601f191682016040526105da9190810190613b4b565b5f815181106105eb576105eb613bfd565b60200260200101516001600160a01b0316145b61061b5760405163b77e1e0f60e01b815260040160405180910390fd5b61062e828260e0015161ffff16856129e6565b60355460405160016246f53b60e11b0319815260ff871660048201526001600160801b03831660248201529193506001600160a01b03169063ff72158a906044015f604051808303815f87803b158015610686575f5ffd5b505af1158015610698573d5f5f3e3d5ffd5b50506040805160ff8816815286151560208201526001600160a01b03891693507f60087ca045be9d8d1301445e67d6248eddba97629c80284fa4910c0e52f103ab9250015b60405180910390a25050505050565b6106f4612a28565b603554604080516334651b6f60e21b815290515f926001600160a01b03169163d1946dbc91600480830192869291908290030181865afa15801561073a573d5f5f3e3d5ffd5b505050506040513d5f823e601f3d908101601f191682016040526107619190810190613b4b565b90505f5b81518110156107cc575f6001600160a01b031682828151811061078a5761078a613bfd565b60200260200101516001600160a01b0316146107c4576107c48282815181106107b5576107b5613bfd565b60200260200101518585611eee565b600101610765565b50505050565b6107da612b85565b60355460405163162792d560e31b815273__$7f4825fe44be376a2f872b8658e2a09d99$__9163b13c96a89161081e916001600160a01b0316908590600401613d20565b5f6040518083038186803b158015610834575f5ffd5b505af4158015610846573d5f5f3e3d5ffd5b5050505050565b610855612a28565b6035546040516358d4cf1360e11b81526001600160a01b0383811660048301525f60248301529091169063b1a99e26906044015f604051808303815f87803b15801561089f575f5ffd5b505af11580156108b1573d5f5f3e3d5ffd5b50506040516001600160a01b03841692507f1df36dc1651d06d990805068d22811a3a9ca4396190787ef59f9102e61868fff91505f90a250565b6108f3612889565b6127108111156109165760405163239eacb960e01b815260040160405180910390fd5b60355460405163c44b11f760e01b81526001600160a01b0384811660048301525f92169063c44b11f790602401602060405180830381865afa15801561095e573d5f5f3e3d5ffd5b505050506040513d601f19601f820116820180604052508101906109829190613d43565b805190915060981c61ffff166109988284612c76565b60355460405163f51e435b60e01b81526001600160a01b039091169063f51e435b906109ca9087908690600401613d5d565b5f604051808303815f87803b1580156109e1575f5ffd5b505af11580156109f3573d5f5f3e3d5ffd5b505060408051848152602081018790526001600160a01b03881693507fb5b0a963825337808b6e3154de8e98027595a5cad4219bb3a9bc55b192f4b3919250015b60405180910390a250505050565b610a4a612889565b8461ffff165f03610a6e5760405163ec1dd8d560e01b815260040160405180910390fd5b8361ffff165f03610a925760405163ec1dd8d560e01b815260040160405180910390fd5b8361ffff168561ffff161115610abb5760405163ec1dd8d560e01b815260040160405180910390fd5b6127108361ffff1611610ae15760405163ec1dd8d560e01b815260040160405180910390fd5b612710610af561ffff868116908616612cae565b1115610b145760405163ec1dd8d560e01b815260040160405180910390fd5b6040805160808101825260608082015261ffff8781168252868116602080840191909152908616828401528251601f850182900482028101820190935283835290919084908490819084018382808284375f920191909152505050506060820152603554604051631edd75fd60e21b81526001600160a01b0390911690637b75d7f490610ba7908a908590600401613d77565b5f604051808303815f87803b158015610bbe575f5ffd5b505af1158015610bd0573d5f5f3e3d5ffd5b505050508660ff167f0acf8b4a3cace10779798a89a206a0ae73a71b63acdd3be2801d39c2ef7ab3cb8787875f8888604051610c1196959493929190613e00565b60405180910390a250505050505050565b610c2a612889565b60355460405163c44b11f760e01b81526001600160a01b0384811660048301525f92169063c44b11f790602401602060405180830381865afa158015610c72573d5f5f3e3d5ffd5b505050506040513d601f19601f82011682018060405250810190610c969190613d43565b9050610ca28183612cd2565b60355460405163f51e435b60e01b81526001600160a01b039091169063f51e435b90610cd49086908590600401613d5d565b5f604051808303815f87803b158015610ceb575f5ffd5b505af1158015610cfd573d5f5f3e3d5ffd5b5050604080516001600160a01b038716815285151560208201527f74adf6aaf58c08bc4f993640385e136522375ea3d1589a10d02adbb906c67d1c935001905060405180910390a1505050565b610d52612a28565b610d5d82825f611eee565b5050565b610d69612889565b612710811115610d8c57604051631b9bc96960e11b815260040160405180910390fd5b603554604051635595a8fb60e11b81526001600160a01b0384811660048301529091169063ab2b51f6906024015f604051808303815f87803b158015610dd0575f5ffd5b505af1158015610de2573d5f5f3e3d5ffd5b505060355460405163c44b11f760e01b81526001600160a01b0386811660048301525f9450909116915063c44b11f790602401602060405180830381865afa158015610e30573d5f5f3e3d5ffd5b505050506040513d601f19601f82011682018060405250810190610e549190613d43565b805190915060401c61ffff16610e6a8284612cff565b60355460405163f51e435b60e01b81526001600160a01b039091169063f51e435b90610e9c9087908690600401613d5d565b5f604051808303815f87803b158015610eb3575f5ffd5b505af1158015610ec5573d5f5f3e3d5ffd5b505060408051848152602081018790526001600160a01b03881693507fb46e2b82b0c2cf3d7d9dece53635e165c53e0eaa7a44f904d61a2b7174826aef92500160405180910390a2603554604051634c63ed2760e11b81526001600160a01b038681166004830152909116906398c7da4e906024015b5f604051808303815f87803b158015610f52575f5ffd5b505af1158015610f64573d5f5f3e3d5ffd5b5050505050505050565b610f76612889565b60355460405163c44b11f760e01b81526001600160a01b0384811660048301525f92169063c44b11f790602401602060405180830381865afa158015610fbe573d5f5f3e3d5ffd5b505050506040513d601f19601f82011682018060405250810190610fe29190613d43565b805190915060741c640fffffffff16610ffb8284612d3c565b60355460405163f51e435b60e01b81526001600160a01b039091169063f51e435b9061102d9087908690600401613d5d565b5f604051808303815f87803b158015611044575f5ffd5b505af1158015611056573d5f5f3e3d5ffd5b505060408051848152602081018790526001600160a01b03881693507f0263602682188540a2d633561c0b4453b7d8566285e99f9f6018b8ef2facef49925001610a34565b6110a3612b85565b60355460405163031e4dc360e51b81526001600160a01b038381166004830152909116906363c9b860906024015f604051808303815f87803b1580156110e7575f5ffd5b505af11580156110f9573d5f5f3e3d5ffd5b50506040516001600160a01b03841692507feeec4c06f7adad215cbdb4d2960896c83c26aedce02dde76d36fa28588d62da491505f90a250565b61113b612d7a565b60355460408051630dc7f58760e11b815290516001600160a01b03909216915f918391631b8feb0e916004808201926020929091908290030181865afa158015611187573d5f5f3e3d5ffd5b505050506040513d601f19601f820116820180604052508101906111ab9190613e4a565b90505f5b838110156108465773__$7f4825fe44be376a2f872b8658e2a09d99$__63df59b8b2848787858181106111e4576111e4613bfd565b90506020028101906111f69190613e65565b6040518363ffffffff1660e01b8152600401611213929190613e84565b5f6040518083038186803b158015611229575f5ffd5b505af415801561123b573d5f5f3e3d5ffd5b50505050816001600160a01b031685858381811061125b5761125b613bfd565b905060200281019061126d9190613e65565b61127e906060810190604001613666565b6001600160a01b03167f1e608c2c753fede2f1f22fca4170277b53ebe5015e488a53414a8921446b7c408787858181106112ba576112ba613bfd565b90506020028101906112cc9190613e65565b6112db90610100810190613fd9565b6040516112e992919061401b565b60405180910390a36001016111af565b611301612889565b60355460405163c44b11f760e01b81526001600160a01b0384811660048301525f92169063c44b11f790602401602060405180830381865afa158015611349573d5f5f3e3d5ffd5b505050506040513d601f19601f8201168201806040525081019061136d9190613d43565b90506113798183612ed6565b60355460405163f51e435b60e01b81526001600160a01b039091169063f51e435b906113ab9086908590600401613d5d565b5f604051808303815f87803b1580156113c2575f5ffd5b505af11580156113d4573d5f5f3e3d5ffd5b50505050826001600160a01b03167f2443ba28e8d1d88d531a3d90b981816a4f3b3c7f1fd4085c6029e81d1b7a570d83604051611415911515815260200190565b60405180910390a2505050565b61142a612889565b603554604051635595a8fb60e11b81526001600160a01b0385811660048301529091169063ab2b51f6906024015f604051808303815f87803b15801561146e575f5ffd5b505af1158015611480573d5f5f3e3d5ffd5b505050505f60355f9054906101000a90046001600160a01b03166001600160a01b0316631b8feb0e6040518163ffffffff1660e01b8152600401602060405180830381865afa1580156114d5573d5f5f3e3d5ffd5b505050506040513d601f19601f820116820180604052508101906114f99190613e4a565b60405163a8d9e56f60e01b81529091506001600160a01b0382169063a8d9e56f9061152c9087908790879060040161402e565b5f604051808303815f87803b158015611543575f5ffd5b505af1158015611555573d5f5f3e3d5ffd5b50505050806001600160a01b0316846001600160a01b03167f1e608c2c753fede2f1f22fca4170277b53ebe5015e488a53414a8921446b7c40858560405161159e92919061401b565b60405180910390a3603554604051634c63ed2760e11b81526001600160a01b038681166004830152909116906398c7da4e90602401610f3b565b6115e0612a28565b6115ea815f6106ec565b50565b6115f5612889565b81831115611616576040516332d6d3ef60e01b815260040160405180910390fd5b60355460405163c44b11f760e01b81526001600160a01b0386811660048301525f92169063c44b11f790602401602060405180830381865afa15801561165e573d5f5f3e3d5ffd5b505050506040513d601f19601f820116820180604052508101906116829190613d43565b905082156116dd5761271082116116ac576040516332d6d3ef60e01b815260040160405180910390fd5b6127106116b98484612cae565b11156116d8576040516332d6d3ef60e01b815260040160405180910390fd5b611705565b81156116fc576040516332d6d3ef60e01b815260040160405180910390fd5b61170585612f03565b836117168251600160391b16151590565b1561177057506001600160a01b0385165f818152603660209081526040808320889055518781529192917f6a3fa1f355f7c7ab43e41cb277d1f8471f2693c63dca91049d5ec127bb588e10910160405180910390a261177a565b61177a828661308a565b61178482856130b9565b61178e82846130ef565b60355460405163f51e435b60e01b81526001600160a01b039091169063f51e435b906117c09089908690600401613d5d565b5f604051808303815f87803b1580156117d7575f5ffd5b505af11580156117e9573d5f5f3e3d5ffd5b505060408051848152602081018890529081018690526001600160a01b03891692507f637febbda9275aea2e85c0ff690444c8d87eb2e8339bbede9715abcc89cb0995915060600160405180910390a2505050505050565b611849613128565b60355460405163c44b11f760e01b81526001600160a01b0384811660048301525f92169063c44b11f790602401602060405180830381865afa158015611891573d5f5f3e3d5ffd5b505050506040513d601f19601f820116820180604052508101906118b59190613d43565b90506118c78151600160391b16151590565b1515821515036118ea57604051634c860b2b60e11b815260040160405180910390fd5b6118f481836132f1565b5f5f831561192f57825161ffff166001600160a01b0386165f90815260366020526040812082905590915061192a90849061308a565b61196c565b6001600160a01b0385165f908152603660205260409020549150611953838361308a565b6001600160a01b0385165f908152603660205260408120555b846001600160a01b03167f6a3fa1f355f7c7ab43e41cb277d1f8471f2693c63dca91049d5ec127bb588e10826040516119a791815260200190565b60405180910390a282516001600160a01b038616907f637febbda9275aea2e85c0ff690444c8d87eb2e8339bbede9715abcc89cb099590849060101c61ffff16865160201c61ffff166040805193845260208401929092529082015260600160405180910390a260355460405163f51e435b60e01b81526001600160a01b039091169063f51e435b90611a409088908790600401613d5d565b5f604051808303815f87803b158015611a57575f5ffd5b505af1158015611a69573d5f5f3e3d5ffd5b50505050846001600160a01b03167f0c4443d258a350d27dc50c378b2ebf165e6469725f786d21b30cab16823f5587856040516106dd911515815260200190565b611ab2612b85565b612710816001600160801b03161115611ade57604051633a168e3960e11b815260040160405180910390fd5b6035546040805163074b2e4360e01b815290515f926001600160a01b03169163074b2e439160048083019260209291908290030181865afa158015611b25573d5f5f3e3d5ffd5b505050506040513d601f19601f82011682018060405250810190611b499190613939565b603554604051629c1d5f60e81b81526001600160801b03851660048201529192506001600160a01b031690639c1d5f00906024015f604051808303815f87803b158015611b94575f5ffd5b505af1158015611ba6573d5f5f3e3d5ffd5b5050604080516001600160801b038086168252861660208201527f71aba182c9d0529b516de7a78bed74d49c207ef7e152f52f7ea5d8730138f643935001905060405180910390a15050565b611bfa612889565b8015611c0957611c098261331e565b60355460405163c44b11f760e01b81526001600160a01b0384811660048301525f92169063c44b11f790602401602060405180830381865afa158015611c51573d5f5f3e3d5ffd5b505050506040513d601f19601f82011682018060405250810190611c759190613d43565b90505f611c8c825167400000000000000016151590565b9050611c988284613414565b60355460405163f51e435b60e01b81526001600160a01b039091169063f51e435b90611cca9087908690600401613d5d565b5f604051808303815f87803b158015611ce1575f5ffd5b505af1158015611cf3573d5f5f3e3d5ffd5b505060408051841515815286151560208201526001600160a01b03881693507f842a280b07e8e502a9101f32a3b768ebaba3655556dd674f0831900861fc674b925001610a34565b611d43612889565b60355460405163c44b11f760e01b81526001600160a01b0384811660048301525f92169063c44b11f790602401602060405180830381865afa158015611d8b573d5f5f3e3d5ffd5b505050506040513d601f19601f82011682018060405250810190611daf9190613d43565b805190915060d481901c64ffffffffff169060101c61ffff1615801590611dd4575080155b15611de257611de284612f03565b611dec8284613441565b60355460405163f51e435b60e01b81526001600160a01b039091169063f51e435b90611e1e9087908690600401613d5d565b5f604051808303815f87803b158015611e35575f5ffd5b505af1158015611e47573d5f5f3e3d5ffd5b50505050825f03611ead5760355460405163e43e88a160e01b81526001600160a01b0386811660048301529091169063e43e88a1906024015f604051808303815f87803b158015611e96575f5ffd5b505af1158015611ea8573d5f5f3e3d5ffd5b505050505b60408051828152602081018590526001600160a01b038616917f6824a6c7fbc10d2979b1f1ccf2dd4ed0436541679a661dedb5c10bd4be8306829101610a34565b611ef6612a28565b81158015611f0a575064ffffffffff811615155b15611ff45761384064ffffffffff82161115611f395760405163d7c43e0f60e01b815260040160405180910390fd5b5f611f44824261405b565b6035546040516358d4cf1360e11b81526001600160a01b03878116600483015264ffffffffff8416602483015292935091169063b1a99e26906044015f604051808303815f87803b158015611f97575f5ffd5b505af1158015611fa9573d5f5f3e3d5ffd5b505060405164ffffffffff841681526001600160a01b03871692507fdf4f96448786bcd6fecc9f1fa25f1fbbbee6a5c9e76d635a615ac57bb5983d10915060200160405180910390a2505b60355460405163c44b11f760e01b81526001600160a01b0385811660048301525f92169063c44b11f790602401602060405180830381865afa15801561203c573d5f5f3e3d5ffd5b505050506040513d601f19601f820116820180604052508101906120609190613d43565b905061206c8184613482565b60355460405163f51e435b60e01b81526001600160a01b039091169063f51e435b9061209e9087908590600401613d5d565b5f604051808303815f87803b1580156120b5575f5ffd5b505af11580156120c7573d5f5f3e3d5ffd5b50505050836001600160a01b03167fe188d542a5f11925d3a3af33703cdd30a43cb3e8066a3cf68b1b57f61a5a94b584604051610a34911515815260200190565b612110612b85565b8061211e5761211e82612f03565b60355460405163c44b11f760e01b81526001600160a01b0384811660048301525f92169063c44b11f790602401602060405180830381865afa158015612166573d5f5f3e3d5ffd5b505050506040513d601f19601f8201168201806040525081019061218a9190613d43565b905061219681836134af565b60355460405163f51e435b60e01b81526001600160a01b039091169063f51e435b906121c89086908590600401613d5d565b5f604051808303815f87803b1580156121df575f5ffd5b505af11580156121f1573d5f5f3e3d5ffd5b50505050826001600160a01b03167fc36c7d11ba01a5869d52aa4a3781939dab851cbc9ee6e7fdcedc7d58898a3f1e83604051611415911515815260200190565b61223a612b85565b60355460405163b0f0935560e01b815273__$7f4825fe44be376a2f872b8658e2a09d99$__9163b0f093559161081e916001600160a01b0316908590600401613d20565b60015460069060ff16806122915750303b155b8061229c57505f5481115b6123035760405162461bcd60e51b815260206004820152602e60248201527f436f6e747261637420696e7374616e63652068617320616c726561647920626560448201526d195b881a5b9a5d1a585b1a5e995960921b606482015260840160405180910390fd5b60015460ff16158015612321576001805460ff1916811790555f8290555b603480546001600160a01b0319166001600160a01b0385169081179091556040805163026b1d5f60e01b8152905163026b1d5f916004808201926020929091908290030181865afa158015612378573d5f5f3e3d5ffd5b505050506040513d601f19601f8201168201806040525081019061239c9190613e4a565b603580546001600160a01b0319166001600160a01b039290921691909117905580156123cd576001805460ff191690555b505050565b6123da612889565b60355460405163c44b11f760e01b81526001600160a01b0384811660048301525f92169063c44b11f790602401602060405180830381865afa158015612422573d5f5f3e3d5ffd5b505050506040513d601f19601f820116820180604052508101906124469190613d43565b805190915060501c640fffffffff1661245f82846134dc565b60355460405163f51e435b60e01b81526001600160a01b039091169063f51e435b906124919087908690600401613d5d565b5f604051808303815f87803b1580156124a8575f5ffd5b505af11580156124ba573d5f5f3e3d5ffd5b505060408051848152602081018790526001600160a01b03881693507fc51aca575985d521c5072ad11549bad77013bb786d57f30f94b40ed8f8dc9bc4925001610a34565b612507612889565b60355460405163c44b11f760e01b81526001600160a01b0384811660048301525f92169063c44b11f790602401602060405180830381865afa15801561254f573d5f5f3e3d5ffd5b505050506040513d601f19601f820116820180604052508101906125739190613d43565b905061257f818361351a565b60355460405163f51e435b60e01b81526001600160a01b039091169063f51e435b906125b19086908590600401613d5d565b5f604051808303815f87803b1580156125c8575f5ffd5b505af11580156125da573d5f5f3e3d5ffd5b50505050826001600160a01b03167fc8ff3cc5b0fddaa3e6ebbbd7438f43393e4ea30e88b80ad016c1bc094655034d83604051611415911515815260200190565b612623612889565b60355460405163583b8edd60e11b815260ff841660048201525f916001600160a01b03169063b0771dba90602401602060405180830381865afa15801561266c573d5f5f3e3d5ffd5b505050506040513d601f19601f820116820180604052508101906126909190613939565b6035546040516335ea6a7560e01b81526001600160a01b0387811660048301529293505f92909116906335ea6a75906024016101e060405180830381865afa1580156126de573d5f5f3e3d5ffd5b505050506040513d601f19601f820116820180604052508101906127029190613a21565b90508060e0015161ffff165f1415806127a95750603554604080516334651b6f60e21b815290516001600160a01b0380891693169163d1946dbc916004808301925f9291908290030181865afa15801561275e573d5f5f3e3d5ffd5b505050506040513d5f823e601f3d908101601f191682016040526127859190810190613b4b565b5f8151811061279657612796613bfd565b60200260200101516001600160a01b0316145b6127c65760405163b77e1e0f60e01b815260040160405180910390fd5b6127d9828260e0015161ffff16856129e6565b6035546040516392380ecb60e01b815260ff871660048201526001600160801b03831660248201529193506001600160a01b0316906392380ecb906044015f604051808303815f87803b15801561282e575f5ffd5b505af1158015612840573d5f5f3e3d5ffd5b50506040805160ff8816815286151560208201526001600160a01b03891693507f79409190108b26fcb0e4570f8e240f627bf18fd01a55f751010224d5bd4860989250016106dd565b6034546040805163383e6b8b60e11b815290515f926001600160a01b03169163707cd7169160048083019260209291908290030181865afa1580156128d0573d5f5f3e3d5ffd5b505050506040513d601f19601f820116820180604052508101906128f49190613e4a565b60405163674b5e4d60e01b81523360048201529091506001600160a01b0382169063674b5e4d90602401602060405180830381865afa158015612939573d5f5f3e3d5ffd5b505050506040513d601f19601f8201168201806040525081019061295d919061408a565b806129c95750604051637be53ca160e01b81523360048201526001600160a01b03821690637be53ca190602401602060405180830381865afa1580156129a5573d5f5f3e3d5ffd5b505050506040513d601f19601f820116820180604052508101906129c9919061408a565b6115ea576040516366e574d760e01b815260040160405180910390fd5b5f60808310612a08576040516385e98beb60e01b815260040160405180910390fd5b6001831b8215612a1b5784179050612a21565b19841690505b9392505050565b6034546040805163383e6b8b60e11b815290515f926001600160a01b03169163707cd7169160048083019260209291908290030181865afa158015612a6f573d5f5f3e3d5ffd5b505050506040513d601f19601f82011682018060405250810190612a939190613e4a565b604051637be53ca160e01b81523360048201529091506001600160a01b03821690637be53ca190602401602060405180830381865afa158015612ad8573d5f5f3e3d5ffd5b505050506040513d601f19601f82011682018060405250810190612afc919061408a565b80612b685750604051631280795b60e11b81523360048201526001600160a01b03821690632500f2b690602401602060405180830381865afa158015612b44573d5f5f3e3d5ffd5b505050506040513d601f19601f82011682018060405250810190612b68919061408a565b6115ea57604051630934f60560e41b815260040160405180910390fd5b6034546040805163383e6b8b60e11b815290515f926001600160a01b03169163707cd7169160048083019260209291908290030181865afa158015612bcc573d5f5f3e3d5ffd5b505050506040513d601f19601f82011682018060405250810190612bf09190613e4a565b604051637be53ca160e01b81523360048201529091506001600160a01b03821690637be53ca190602401602060405180830381865afa158015612c35573d5f5f3e3d5ffd5b505050506040513d601f19601f82011682018060405250810190612c59919061408a565b6115ea5760405163cdd36a9760e01b815260040160405180910390fd5b61ffff811115612c995760405163239eacb960e01b815260040160405180910390fd5b815161ffff60981b191660989190911b179052565b5f81156113881983900484111517612cc4575f5ffd5b506127109102611388010490565b603d81612cdf575f612ce2565b60015b8351672000000000000000191660ff9190911690911b1790915250565b61ffff811115612d2257604051631b9bc96960e11b815260040160405180910390fd5b815169ffff0000000000000000191660409190911b179052565b640fffffffff811115612d625760405163606bb6c960e11b815260040160405180910390fd5b8151640fffffffff60741b191660749190911b179052565b6034546040805163383e6b8b60e11b815290515f926001600160a01b03169163707cd7169160048083019260209291908290030181865afa158015612dc1573d5f5f3e3d5ffd5b505050506040513d601f19601f82011682018060405250810190612de59190613e4a565b604051629f719760e51b81523360048201529091506001600160a01b038216906313ee32e090602401602060405180830381865afa158015612e29573d5f5f3e3d5ffd5b505050506040513d601f19601f82011682018060405250810190612e4d919061408a565b80612eb95750604051637be53ca160e01b81523360048201526001600160a01b03821690637be53ca190602401602060405180830381865afa158015612e95573d5f5f3e3d5ffd5b505050506040513d601f19601f82011682018060405250810190612eb9919061408a565b6115ea57604051630e8e140f60e21b815260040160405180910390fd5b603a81612ee3575f612ee6565b60015b8351670400000000000000191660ff9190911690911b1790915250565b6035546040516335ea6a7560e01b81526001600160a01b0383811660048301525f9216906335ea6a75906024016101e060405180830381865afa158015612f4c573d5f5f3e3d5ffd5b505050506040513d601f19601f82011682018060405250810190612f709190613a21565b90505f60345f9054906101000a90046001600160a01b03166001600160a01b031663e860accb6040518163ffffffff1660e01b8152600401602060405180830381865afa158015612fc3573d5f5f3e3d5ffd5b505050506040513d601f19601f82011682018060405250810190612fe79190613e4a565b6040516351460e2560e01b81526001600160a01b03858116600483015291909116906351460e2590602401602060405180830381865afa15801561302d573d5f5f3e3d5ffd5b505050506040513d601f19601f8201168201806040525081019061305191906140a5565b90508015801561306d57506101808201516001600160801b0316155b6123cd57604051633ccca94760e11b815260040160405180910390fd5b61ffff8111156130ad5760405163324b20e160e11b815260040160405180910390fd5b815161ffff1916179052565b61ffff8111156130db5760405162f9474b60e61b815260040160405180910390fd5b815163ffff0000191660109190911b179052565b61ffff81111561311257604051631506630760e21b815260040160405180910390fd5b815165ffff00000000191660209190911b179052565b6034546040805163383e6b8b60e11b815290515f926001600160a01b03169163707cd7169160048083019260209291908290030181865afa15801561316f573d5f5f3e3d5ffd5b505050506040513d601f19601f820116820180604052508101906131939190613e4a565b60405163674b5e4d60e01b81523360048201529091506001600160a01b0382169063674b5e4d90602401602060405180830381865afa1580156131d8573d5f5f3e3d5ffd5b505050506040513d601f19601f820116820180604052508101906131fc919061408a565b806132685750604051637be53ca160e01b81523360048201526001600160a01b03821690637be53ca190602401602060405180830381865afa158015613244573d5f5f3e3d5ffd5b505050506040513d601f19601f82011682018060405250810190613268919061408a565b806132d45750604051631280795b60e11b81523360048201526001600160a01b03821690632500f2b690602401602060405180830381865afa1580156132b0573d5f5f3e3d5ffd5b505050506040513d601f19601f820116820180604052508101906132d4919061408a565b6115ea5760405163803ddb7b60e01b815260040160405180910390fd5b6039816132fe575f613301565b60015b8351670200000000000000191660ff9190911690911b1790915250565b6034546040805163e860accb60e01b815290515f926001600160a01b03169163e860accb9160048083019260209291908290030181865afa158015613365573d5f5f3e3d5ffd5b505050506040513d601f19601f820116820180604052508101906133899190613e4a565b604051634d44ac4f60e01b81526001600160a01b0384811660048301529190911690634d44ac4f90602401602060405180830381865afa1580156133cf573d5f5f3e3d5ffd5b505050506040513d601f19601f820116820180604052508101906133f391906140a5565b90508015610d5d57604051634f9d999f60e01b815260040160405180910390fd5b603e81613421575f613424565b60015b8351674000000000000000191660ff9190911690911b1790915250565b64ffffffffff81111561346757604051632a67d7f960e01b815260040160405180910390fd5b81516001650f000000000160d41b031660d49190911b179052565b603c8161348f575f613492565b60015b8351671000000000000000191660ff9190911690911b1790915250565b6038816134bc575f6134bf565b60015b8351670100000000000000191660ff9190911690911b1790915250565b640fffffffff811115613502576040516353f4dadb60e11b815260040160405180910390fd5b8151640fffffffff60501b191660509190911b179052565b603f81613527575f61352a565b60015b8351678000000000000000191660ff9190911690911b1790915250565b6001600160a01b03811681146115ea575f5ffd5b803561356681613547565b919050565b803560ff81168114613566575f5ffd5b80151581146115ea575f5ffd5b5f5f5f6060848603121561359a575f5ffd5b83356135a581613547565b92506135b36020850161356b565b915060408401356135c38161357b565b809150509250925092565b64ffffffffff811681146115ea575f5ffd5b5f5f604083850312156135f1575f5ffd5b82356135fc8161357b565b9150602083013561360c816135ce565b809150509250929050565b5f60a08284031215613627575f5ffd5b50919050565b5f6020828403121561363d575f5ffd5b81356001600160401b03811115613652575f5ffd5b61365e84828501613617565b949350505050565b5f60208284031215613676575f5ffd5b8135612a2181613547565b5f5f60408385031215613692575f5ffd5b823561369d81613547565b946020939093013593505050565b61ffff811681146115ea575f5ffd5b5f5f83601f8401126136ca575f5ffd5b5081356001600160401b038111156136e0575f5ffd5b6020830191508360208285010111156136f7575f5ffd5b9250929050565b5f5f5f5f5f5f60a08789031215613713575f5ffd5b61371c8761356b565b9550602087013561372c816136ab565b9450604087013561373c816136ab565b9350606087013561374c816136ab565b925060808701356001600160401b03811115613766575f5ffd5b61377289828a016136ba565b979a9699509497509295939492505050565b5f5f60408385031215613795575f5ffd5b82356137a081613547565b9150602083013561360c8161357b565b5f5f602083850312156137c1575f5ffd5b82356001600160401b038111156137d6575f5ffd5b8301601f810185136137e6575f5ffd5b80356001600160401b038111156137fb575f5ffd5b8560208260051b840101111561380f575f5ffd5b6020919091019590945092505050565b5f5f5f60408486031215613831575f5ffd5b833561383c81613547565b925060208401356001600160401b03811115613856575f5ffd5b613862868287016136ba565b9497909650939450505050565b5f6020828403121561387f575f5ffd5b8135612a218161357b565b5f5f5f5f6080858703121561389d575f5ffd5b84356138a881613547565b966020860135965060408601359560600135945092505050565b6001600160801b03811681146115ea575f5ffd5b5f602082840312156138e6575f5ffd5b8135612a21816138c2565b5f5f5f60608486031215613903575f5ffd5b833561390e81613547565b9250602084013561391e8161357b565b915060408401356135c3816135ce565b8051613566816138c2565b5f60208284031215613949575f5ffd5b8151612a21816138c2565b634e487b7160e01b5f52604160045260245ffd5b6040516101e081016001600160401b038111828210171561398b5761398b613954565b60405290565b604051601f8201601f191681016001600160401b03811182821017156139b9576139b9613954565b604052919050565b5f602082840312156139d1575f5ffd5b604051602081016001600160401b03811182821017156139f3576139f3613954565b6040529151825250919050565b8051613566816135ce565b8051613566816136ab565b805161356681613547565b5f6101e0828403128015613a33575f5ffd5b50613a3c613968565b613a4684846139c1565b8152613a546020840161392e565b6020820152613a656040840161392e565b6040820152613a766060840161392e565b6060820152613a876080840161392e565b6080820152613a9860a0840161392e565b60a0820152613aa960c08401613a00565b60c0820152613aba60e08401613a0b565b60e0820152613acc6101008401613a16565b610100820152613adf6101208401613a16565b610120820152613af26101408401613a16565b610140820152613b056101608401613a16565b610160820152613b18610180840161392e565b610180820152613b2b6101a0840161392e565b6101a0820152613b3e6101c0840161392e565b6101c08201529392505050565b5f60208284031215613b5b575f5ffd5b81516001600160401b03811115613b70575f5ffd5b8201601f81018413613b80575f5ffd5b80516001600160401b03811115613b9957613b99613954565b8060051b613ba960208201613991565b91825260208184018101929081019087841115613bc4575f5ffd5b6020850194505b83851015613bf25784519250613be083613547565b82825260209485019490910190613bcb565b979650505050505050565b634e487b7160e01b5f52603260045260245ffd5b5f5f8335601e19843603018112613c26575f5ffd5b83016020810192503590506001600160401b03811115613c44575f5ffd5b8036038213156136f7575f5ffd5b81835281816020850137505f828201602090810191909152601f909101601f19169091010190565b5f8135613c8681613547565b6001600160a01b03168352613c9e6020830183613c11565b60a06020860152613cb360a086018284613c52565b915050613cc36040840184613c11565b8583036040870152613cd6838284613c52565b925050506060830135613ce881613547565b6001600160a01b03166060850152613d036080840184613c11565b8583036080870152613d16838284613c52565b9695505050505050565b6001600160a01b03831681526040602082018190525f9061365e90830184613c7a565b5f60208284031215613d53575f5ffd5b612a2183836139c1565b6001600160a01b0392909216825251602082015260400190565b60ff831681526040602082015261ffff825116604082015261ffff602083015116606082015261ffff60408301511660808201525f6060830151608060a084015280518060c08501525f5b81811015613ddf57602081840181015160e0878401015201613dc2565b505f60e0828601015260e0601f19601f830116850101925050509392505050565b61ffff87811682528681166020830152851660408201526001600160a01b038416606082015260a0608082018190525f90613e3e9083018486613c52565b98975050505050505050565b5f60208284031215613e5a575f5ffd5b8151612a2181613547565b5f823561011e19833603018112613e7a575f5ffd5b9190910192915050565b6001600160a01b0383168152604060208201819052613eb5908201613ea88461355b565b6001600160a01b03169052565b5f613ec26020840161355b565b6001600160a01b03166060830152613edc6040840161355b565b6001600160a01b03166080830152613ef76060840184613c11565b61012060a0850152613f0e61016085018284613c52565b915050613f1e6080850185613c11565b848303603f190160c0860152613f35838284613c52565b92505050613f4660a0850185613c11565b848303603f190160e0860152613f5d838284613c52565b92505050613f6e60c0850185613c11565b848303603f1901610100860152613f86838284613c52565b92505050613f9760e0850185613c11565b848303603f1901610120860152613faf838284613c52565b92505050613fc1610100850185613c11565b848303603f1901610140860152613bf2838284613c52565b5f5f8335601e19843603018112613fee575f5ffd5b8301803591506001600160401b03821115614007575f5ffd5b6020019150368190038213156136f7575f5ffd5b602081525f61365e602083018486613c52565b6001600160a01b03841681526040602082018190525f906140529083018486613c52565b95945050505050565b64ffffffffff818116838216019081111561408457634e487b7160e01b5f52601160045260245ffd5b92915050565b5f6020828403121561409a575f5ffd5b8151612a218161357b565b5f602082840312156140b5575f5ffd5b505191905056fea164736f6c634300081b000a","linkReferences":{"src/contracts/protocol/libraries/logic/ConfiguratorLogic.sol":{"ConfiguratorLogic":[{"start":932,"length":20},{"start":2063,"length":20},{"start":4572,"length":20},{"start":8815,"length":20}]}}},"methodIdentifiers":{"CONFIGURATOR_REVISION()":"7af635a6","MAX_GRACE_PERIOD()":"46619649","configureReserveAsCollateral(address,uint256,uint256,uint256)":"7c4e560b","disableLiquidationGracePeriod(address)":"23415e46","dropReserve(address)":"63c9b860","getConfiguratorLogic()":"96c205b3","getPendingLtv(address)":"888a1d5e","initReserves((address,address,address,string,string,string,string,bytes,bytes)[])":"6623c804","initialize(address)":"c4d66de8","setAssetBorrowableInEMode(address,uint8,bool)":"110ac256","setAssetCollateralInEMode(address,uint8,bool)":"f6527810","setBorrowCap(address,uint256)":"d14a0983","setBorrowableInIsolation(address,bool)":"38ae0cc3","setDebtCeiling(address,uint256)":"aeb4fcc1","setEModeCategory(uint8,uint16,uint16,uint16,string)":"34a461ea","setLiquidationProtocolFee(address,uint256)":"26d2cec2","setPoolPause(bool)":"7641f3d9","setPoolPause(bool,uint40)":"12bc3f61","setReserveActive(address,bool)":"b736aaeb","setReserveBorrowing(address,bool)":"682cf264","setReserveFactor(address,uint256)":"4b4e6753","setReserveFlashLoaning(address,bool)":"f213ef0e","setReserveFreeze(address,bool)":"96e957c4","setReserveInterestRateData(address,bytes)":"6aabe21d","setReservePause(address,bool)":"48d9fba9","setReservePause(address,bool,uint40)":"b42d793b","setSiloedBorrowing(address,bool)":"a7fa83b7","setSupplyCap(address,uint256)":"571f03e5","updateAToken((address,string,string,address,bytes))":"14ef0ac5","updateFlashloanPremium(uint128)":"9c1d5f00","updateVariableDebtToken((address,string,string,address,bytes))":"bfbc47ff"},"id":152}