{"abi":[{"type":"constructor","inputs":[{"name":"customEngine","type":"address","internalType":"contract IAaveV3ConfigEngine"},{"name":"erc20Owner","type":"address","internalType":"address"},{"name":"weth9","type":"address","internalType":"address"},{"name":"report","type":"tuple","internalType":"struct MarketReport","components":[{"name":"poolAddressesProviderRegistry","type":"address","internalType":"address"},{"name":"poolAddressesProvider","type":"address","internalType":"address"},{"name":"poolProxy","type":"address","internalType":"address"},{"name":"poolImplementation","type":"address","internalType":"address"},{"name":"poolConfiguratorProxy","type":"address","internalType":"address"},{"name":"poolConfiguratorImplementation","type":"address","internalType":"address"},{"name":"protocolDataProvider","type":"address","internalType":"address"},{"name":"aaveOracle","type":"address","internalType":"address"},{"name":"defaultInterestRateStrategy","type":"address","internalType":"address"},{"name":"priceOracleSentinel","type":"address","internalType":"address"},{"name":"aclManager","type":"address","internalType":"address"},{"name":"treasury","type":"address","internalType":"address"},{"name":"treasuryImplementation","type":"address","internalType":"address"},{"name":"wrappedTokenGateway","type":"address","internalType":"address"},{"name":"walletBalanceProvider","type":"address","internalType":"address"},{"name":"uiIncentiveDataProvider","type":"address","internalType":"address"},{"name":"uiPoolDataProvider","type":"address","internalType":"address"},{"name":"paraSwapLiquiditySwapAdapter","type":"address","internalType":"address"},{"name":"paraSwapRepayAdapter","type":"address","internalType":"address"},{"name":"paraSwapWithdrawSwapAdapter","type":"address","internalType":"address"},{"name":"l2Encoder","type":"address","internalType":"address"},{"name":"aToken","type":"address","internalType":"address"},{"name":"variableDebtToken","type":"address","internalType":"address"},{"name":"emissionManager","type":"address","internalType":"address"},{"name":"rewardsControllerImplementation","type":"address","internalType":"address"},{"name":"rewardsControllerProxy","type":"address","internalType":"address"},{"name":"configEngine","type":"address","internalType":"address"},{"name":"transparentProxyFactory","type":"address","internalType":"address"},{"name":"staticATokenFactoryImplementation","type":"address","internalType":"address"},{"name":"staticATokenFactoryProxy","type":"address","internalType":"address"},{"name":"staticATokenImplementation","type":"address","internalType":"address"},{"name":"revenueSplitter","type":"address","internalType":"address"},{"name":"dustBin","type":"address","internalType":"address"},{"name":"emptyImplementation","type":"address","internalType":"address"}]}],"stateMutability":"nonpayable"},{"type":"function","name":"CONFIG_ENGINE","inputs":[],"outputs":[{"name":"","type":"address","internalType":"contract IAaveV3ConfigEngine"}],"stateMutability":"view"},{"type":"function","name":"POOL_ADMIN_ROLE_ID","inputs":[],"outputs":[{"name":"","type":"bytes32","internalType":"bytes32"}],"stateMutability":"view"},{"type":"function","name":"USDX_ADDRESS","inputs":[],"outputs":[{"name":"","type":"address","internalType":"address"}],"stateMutability":"view"},{"type":"function","name":"USDX_MOCK_PRICE_FEED","inputs":[],"outputs":[{"name":"","type":"address","internalType":"address"}],"stateMutability":"view"},{"type":"function","name":"WBTC_ADDRESS","inputs":[],"outputs":[{"name":"","type":"address","internalType":"address"}],"stateMutability":"view"},{"type":"function","name":"WBTC_MOCK_PRICE_FEED","inputs":[],"outputs":[{"name":"","type":"address","internalType":"address"}],"stateMutability":"view"},{"type":"function","name":"WETH_ADDRESS","inputs":[],"outputs":[{"name":"","type":"address","internalType":"address"}],"stateMutability":"view"},{"type":"function","name":"WETH_MOCK_PRICE_FEED","inputs":[],"outputs":[{"name":"","type":"address","internalType":"address"}],"stateMutability":"view"},{"type":"function","name":"assetsEModeUpdates","inputs":[],"outputs":[{"name":"","type":"tuple[]","internalType":"struct IAaveV3ConfigEngine.AssetEModeUpdate[]","components":[{"name":"asset","type":"address","internalType":"address"},{"name":"eModeCategory","type":"uint8","internalType":"uint8"},{"name":"borrowable","type":"uint256","internalType":"uint256"},{"name":"collateral","type":"uint256","internalType":"uint256"}]}],"stateMutability":"view"},{"type":"function","name":"borrowsUpdates","inputs":[],"outputs":[{"name":"","type":"tuple[]","internalType":"struct IAaveV3ConfigEngine.BorrowUpdate[]","components":[{"name":"asset","type":"address","internalType":"address"},{"name":"enabledToBorrow","type":"uint256","internalType":"uint256"},{"name":"flashloanable","type":"uint256","internalType":"uint256"},{"name":"borrowableInIsolation","type":"uint256","internalType":"uint256"},{"name":"withSiloedBorrowing","type":"uint256","internalType":"uint256"},{"name":"reserveFactor","type":"uint256","internalType":"uint256"}]}],"stateMutability":"view"},{"type":"function","name":"capsUpdates","inputs":[],"outputs":[{"name":"","type":"tuple[]","internalType":"struct IAaveV3ConfigEngine.CapsUpdate[]","components":[{"name":"asset","type":"address","internalType":"address"},{"name":"supplyCap","type":"uint256","internalType":"uint256"},{"name":"borrowCap","type":"uint256","internalType":"uint256"}]}],"stateMutability":"view"},{"type":"function","name":"collateralsUpdates","inputs":[],"outputs":[{"name":"","type":"tuple[]","internalType":"struct IAaveV3ConfigEngine.CollateralUpdate[]","components":[{"name":"asset","type":"address","internalType":"address"},{"name":"ltv","type":"uint256","internalType":"uint256"},{"name":"liqThreshold","type":"uint256","internalType":"uint256"},{"name":"liqBonus","type":"uint256","internalType":"uint256"},{"name":"debtCeiling","type":"uint256","internalType":"uint256"},{"name":"liqProtocolFee","type":"uint256","internalType":"uint256"}]}],"stateMutability":"view"},{"type":"function","name":"eModeCategoriesUpdates","inputs":[],"outputs":[{"name":"","type":"tuple[]","internalType":"struct IAaveV3ConfigEngine.EModeCategoryUpdate[]","components":[{"name":"eModeCategory","type":"uint8","internalType":"uint8"},{"name":"ltv","type":"uint256","internalType":"uint256"},{"name":"liqThreshold","type":"uint256","internalType":"uint256"},{"name":"liqBonus","type":"uint256","internalType":"uint256"},{"name":"label","type":"string","internalType":"string"}]}],"stateMutability":"view"},{"type":"function","name":"eModeCategoryCreations","inputs":[],"outputs":[{"name":"","type":"tuple[]","internalType":"struct IAaveV3ConfigEngine.EModeCategoryCreation[]","components":[{"name":"ltv","type":"uint256","internalType":"uint256"},{"name":"liqThreshold","type":"uint256","internalType":"uint256"},{"name":"liqBonus","type":"uint256","internalType":"uint256"},{"name":"label","type":"string","internalType":"string"},{"name":"borrowables","type":"address[]","internalType":"address[]"},{"name":"collaterals","type":"address[]","internalType":"address[]"}]}],"stateMutability":"view"},{"type":"function","name":"execute","inputs":[],"outputs":[],"stateMutability":"nonpayable"},{"type":"function","name":"getPoolContext","inputs":[],"outputs":[{"name":"","type":"tuple","internalType":"struct IAaveV3ConfigEngine.PoolContext","components":[{"name":"networkName","type":"string","internalType":"string"},{"name":"networkAbbreviation","type":"string","internalType":"string"}]}],"stateMutability":"pure"},{"type":"function","name":"newListings","inputs":[],"outputs":[{"name":"","type":"tuple[]","internalType":"struct IAaveV3ConfigEngine.Listing[]","components":[{"name":"asset","type":"address","internalType":"address"},{"name":"assetSymbol","type":"string","internalType":"string"},{"name":"priceFeed","type":"address","internalType":"address"},{"name":"rateStrategyParams","type":"tuple","internalType":"struct IAaveV3ConfigEngine.InterestRateInputData","components":[{"name":"optimalUsageRatio","type":"uint256","internalType":"uint256"},{"name":"baseVariableBorrowRate","type":"uint256","internalType":"uint256"},{"name":"variableRateSlope1","type":"uint256","internalType":"uint256"},{"name":"variableRateSlope2","type":"uint256","internalType":"uint256"}]},{"name":"enabledToBorrow","type":"uint256","internalType":"uint256"},{"name":"borrowableInIsolation","type":"uint256","internalType":"uint256"},{"name":"withSiloedBorrowing","type":"uint256","internalType":"uint256"},{"name":"flashloanable","type":"uint256","internalType":"uint256"},{"name":"ltv","type":"uint256","internalType":"uint256"},{"name":"liqThreshold","type":"uint256","internalType":"uint256"},{"name":"liqBonus","type":"uint256","internalType":"uint256"},{"name":"reserveFactor","type":"uint256","internalType":"uint256"},{"name":"supplyCap","type":"uint256","internalType":"uint256"},{"name":"borrowCap","type":"uint256","internalType":"uint256"},{"name":"debtCeiling","type":"uint256","internalType":"uint256"},{"name":"liqProtocolFee","type":"uint256","internalType":"uint256"}]}],"stateMutability":"view"},{"type":"function","name":"newListingsCustom","inputs":[],"outputs":[{"name":"","type":"tuple[]","internalType":"struct IAaveV3ConfigEngine.ListingWithCustomImpl[]","components":[{"name":"base","type":"tuple","internalType":"struct IAaveV3ConfigEngine.Listing","components":[{"name":"asset","type":"address","internalType":"address"},{"name":"assetSymbol","type":"string","internalType":"string"},{"name":"priceFeed","type":"address","internalType":"address"},{"name":"rateStrategyParams","type":"tuple","internalType":"struct IAaveV3ConfigEngine.InterestRateInputData","components":[{"name":"optimalUsageRatio","type":"uint256","internalType":"uint256"},{"name":"baseVariableBorrowRate","type":"uint256","internalType":"uint256"},{"name":"variableRateSlope1","type":"uint256","internalType":"uint256"},{"name":"variableRateSlope2","type":"uint256","internalType":"uint256"}]},{"name":"enabledToBorrow","type":"uint256","internalType":"uint256"},{"name":"borrowableInIsolation","type":"uint256","internalType":"uint256"},{"name":"withSiloedBorrowing","type":"uint256","internalType":"uint256"},{"name":"flashloanable","type":"uint256","internalType":"uint256"},{"name":"ltv","type":"uint256","internalType":"uint256"},{"name":"liqThreshold","type":"uint256","internalType":"uint256"},{"name":"liqBonus","type":"uint256","internalType":"uint256"},{"name":"reserveFactor","type":"uint256","internalType":"uint256"},{"name":"supplyCap","type":"uint256","internalType":"uint256"},{"name":"borrowCap","type":"uint256","internalType":"uint256"},{"name":"debtCeiling","type":"uint256","internalType":"uint256"},{"name":"liqProtocolFee","type":"uint256","internalType":"uint256"}]},{"name":"implementations","type":"tuple","internalType":"struct IAaveV3ConfigEngine.TokenImplementations","components":[{"name":"aToken","type":"address","internalType":"address"},{"name":"vToken","type":"address","internalType":"address"}]}]}],"stateMutability":"view"},{"type":"function","name":"priceFeedsUpdates","inputs":[],"outputs":[{"name":"","type":"tuple[]","internalType":"struct IAaveV3ConfigEngine.PriceFeedUpdate[]","components":[{"name":"asset","type":"address","internalType":"address"},{"name":"priceFeed","type":"address","internalType":"address"}]}],"stateMutability":"view"},{"type":"function","name":"rateStrategiesUpdates","inputs":[],"outputs":[{"name":"","type":"tuple[]","internalType":"struct IAaveV3ConfigEngine.RateStrategyUpdate[]","components":[{"name":"asset","type":"address","internalType":"address"},{"name":"params","type":"tuple","internalType":"struct IAaveV3ConfigEngine.InterestRateInputData","components":[{"name":"optimalUsageRatio","type":"uint256","internalType":"uint256"},{"name":"baseVariableBorrowRate","type":"uint256","internalType":"uint256"},{"name":"variableRateSlope1","type":"uint256","internalType":"uint256"},{"name":"variableRateSlope2","type":"uint256","internalType":"uint256"}]}]}],"stateMutability":"view"},{"type":"error","name":"AddressEmptyCode","inputs":[{"name":"target","type":"address","internalType":"address"}]},{"type":"error","name":"FailedCall","inputs":[]}],"bytecode":{"object":"0x6101e0604052348015610010575f5ffd5b5060405161322138038061322183398101604081905261002f91610236565b6001600160a01b038416608052604051600690849061004d906101c0565b610058929190610516565b604051809103905ff080158015610071573d5f5f3e3d5ffd5b506001600160a01b031660a0526040516305f5e10090610090906101cd565b908152602001604051809103905ff0801580156100af573d5f5f3e3d5ffd5b506001600160a01b031660c05260405160089084906100cd906101c0565b6100d892919061057e565b604051809103905ff0801580156100f1573d5f5f3e3d5ffd5b506001600160a01b031660e052604051650274a48a780090610112906101cd565b908152602001604051809103905ff080158015610131573d5f5f3e3d5ffd5b506001600160a01b03908116610100528216610120526040516429e8d608009061015a906101cd565b908152602001604051809103905ff080158015610179573d5f5f3e3d5ffd5b506001600160a01b039081166101409081526102a08301518216610160526102c083015182166101805282015181166101a052608090910151166101c052506105c4915050565b61165580611abb83390190565b6101118061311083390190565b6001600160a01b03811681146101ee575f5ffd5b50565b80516101fc816101da565b919050565b60405161044081016001600160401b038111828210171561023057634e487b7160e01b5f52604160045260245ffd5b60405290565b5f5f5f5f8486036104a081121561024b575f5ffd5b8551610256816101da565b6020870151909550610267816101da565b6040870151909450610278816101da565b9250610440605f198201121561028c575f5ffd5b50610295610201565b6102a1606087016101f1565b81526102af608087016101f1565b60208201526102c060a087016101f1565b60408201526102d160c087016101f1565b60608201526102e260e087016101f1565b60808201526102f461010087016101f1565b60a082015261030661012087016101f1565b60c082015261031861014087016101f1565b60e082015261032a61016087016101f1565b61010082015261033d61018087016101f1565b6101208201526103506101a087016101f1565b6101408201526103636101c087016101f1565b6101608201526103766101e087016101f1565b61018082015261038961020087016101f1565b6101a082015261039c61022087016101f1565b6101c08201526103af61024087016101f1565b6101e08201526103c261026087016101f1565b6102008201526103d561028087016101f1565b6102208201526103e86102a087016101f1565b6102408201526103fb6102c087016101f1565b61026082015261040e6102e087016101f1565b61028082015261042161030087016101f1565b6102a082015261043461032087016101f1565b6102c082015261044761034087016101f1565b6102e082015261045a61036087016101f1565b61030082015261046d61038087016101f1565b6103208201526104806103a087016101f1565b6103408201526104936103c087016101f1565b6103608201526104a66103e087016101f1565b6103808201526104b961040087016101f1565b6103a08201526104cc61042087016101f1565b6103c08201526104df61044087016101f1565b6103e08201526104f261046087016101f1565b61040082015261050561048087016101f1565b610420820152939692955090935050565b608081525f6105396080830160048152630aaa688b60e31b602082015260400190565b828103602084015261055c8160048152630aaa688b60e31b602082015260400190565b60ff95909516604084015250506001600160a01b039190911660609091015290565b608081525f6105a16080830160048152635742544360e01b602082015260400190565b828103602084015261055c8160048152635742544360e01b602082015260400190565b60805160a05160c05160e05161010051610120516101405161016051610180516101a0516101c0516114346106875f395f50505f610b5601525f81816107040152818161087f01526109fb01525f81816106d50152818161085001526109cc01525f81816102fd015261093501525f818161013001526108e401525f81816101b901526107b901525f818161023e015261076801525f8181610183015261063e01525f818161028301526105ed01525f81816101e001526103d001526114345ff3fe608060405234801561000f575f5ffd5b5060043610610127575f3560e01c8063bdd5915f116100a9578063caf731721161006e578063caf73172146102b4578063d0c38c27146102e9578063f99dfb1c146102f8578063fabe34631461031f578063fbb256f614610334575f5ffd5b8063bdd5915f14610239578063c0a2558014610260578063c3b871ad1461026f578063c92c24601461027e578063ca8e89cc146102a5575f5ffd5b80635e5eef7a116100ef5780635e5eef7a146101db5780636146195414610202578063922870951461020c57806395a93cb11461021b578063b1af0d0d1461022a575f5ffd5b8063040141e51461012b5780631850edd81461016f578063274bdc781461017e5780632b179434146101a5578063399367ea146101b4575b5f5ffd5b6101527f000000000000000000000000000000000000000000000000000000000000000081565b6040516001600160a01b0390911681526020015b60405180910390f35b60606040516101669190610d73565b6101527f000000000000000000000000000000000000000000000000000000000000000081565b60606040516101669190610dc0565b6101527f000000000000000000000000000000000000000000000000000000000000000081565b6101527f000000000000000000000000000000000000000000000000000000000000000081565b61020a610349565b005b60606040516101669190610e02565b60606040516101669190610e68565b60606040516101669190610ec1565b6101527f000000000000000000000000000000000000000000000000000000000000000081565b606060405161016691906110c5565b6060604051610166919061111a565b6101527f000000000000000000000000000000000000000000000000000000000000000081565b606060405161016691906111dc565b6102db7f12ad05bde78c5ab75238ce885307f96ecd482bb402ef831f99e7018a0f169b7b81565b604051908152602001610166565b6060604051610166919061126b565b6101527f000000000000000000000000000000000000000000000000000000000000000081565b610327610572565b604051610166919061135f565b61033c610a4d565b604051610166919061139e565b60605f610354610572565b82519091506060908190819081908190819081908190156103f8576103f6630b393a0960e11b610382610a4d565b8c6040516024016103949291906113b0565b60408051601f198184030181529190526020810180516001600160e01b03166001600160e01b0319909316929092179091526001600160a01b037f00000000000000000000000000000000000000000000000000000000000000001690610aa9565b505b885115610426576104246311577d8d60e01b610412610a4d565b8b6040516024016103949291906113d4565b505b87511561044d5760405161044b906327708a8d60e11b90610394908b906024016111dc565b505b865115610474576040516104729063012146c760e41b90610394908a90602401610e02565b505b85511561049b5760405161049990630ecae8b560e21b9061039490899060240161111a565b505b8351156104c2576040516104c090633c70994b60e21b90610394908790602401610d73565b505b8451156104e9576040516104e79063013b066560e31b90610394908890602401610dc0565b505b8251156105105760405161050e9063b79421eb60e01b9061039490869060240161126b565b505b815115610537576040516105359063927c400360e01b90610394908590602401610ec1565b505b80511561055e5760405161055c906355caa16360e01b90610394908490602401610e68565b505b610566610b1b565b50505050505050505050565b604080516003808252608082019092526060915f9190816020015b610595610c43565b81526020019060019003908161058d5790505090505f604051806080016040528061119481526020015f81526020016101908152602001611770815250905060405180604001604052806040518061020001604052807f00000000000000000000000000000000000000000000000000000000000000006001600160a01b03168152602001604051806040016040528060048152602001630aaa688b60e31b81525081526020017f00000000000000000000000000000000000000000000000000000000000000006001600160a01b03168152602001848152602001600181526020015f81526020015f81526020016001815260200161203a815260200161219881526020016101f481526020016103e881526020015f81526020015f81526020015f81526020016103e8815250815260200160405180604001604052807f00000000000000000000000000000000000000000000000000000000000000006001600160a01b031681526020017f00000000000000000000000000000000000000000000000000000000000000006001600160a01b0316815250815250825f81518110610744576107446113f8565b602002602001018190525060405180604001604052806040518061020001604052807f00000000000000000000000000000000000000000000000000000000000000006001600160a01b03168152602001604051806040016040528060048152602001635742544360e01b81525081526020017f00000000000000000000000000000000000000000000000000000000000000006001600160a01b03168152602001848152602001600181526020015f81526020015f81526020016001815260200161203a815260200161219881526020016101f481526020016103e881526020015f81526020015f81526020015f81526020016103e8815250815260200160405180604001604052807f00000000000000000000000000000000000000000000000000000000000000006001600160a01b031681526020017f00000000000000000000000000000000000000000000000000000000000000006001600160a01b0316815250815250826001815181106108c0576108c06113f8565b602002602001018190525060405180604001604052806040518061020001604052807f00000000000000000000000000000000000000000000000000000000000000006001600160a01b03168152602001604051806040016040528060048152602001630ae8aa8960e31b81525081526020017f00000000000000000000000000000000000000000000000000000000000000006001600160a01b03168152602001848152602001600181526020015f81526020015f81526020016001815260200161203a815260200161219881526020016101f481526020016103e881526020015f81526020015f81526020015f81526020016103e8815250815260200160405180604001604052807f00000000000000000000000000000000000000000000000000000000000000006001600160a01b031681526020017f00000000000000000000000000000000000000000000000000000000000000006001600160a01b031681525081525082600281518110610a3c57610a3c6113f8565b602090810291909101015250919050565b60408051808201909152606080825260208201525060408051608081018252600581830190815264131bd8d85b60da1b60608301528152815180830190925260038252624c6f6360e81b60208381019190915281019190915290565b60605f5f846001600160a01b031684604051610ac5919061140c565b5f60405180830381855af49150503d805f8114610afd576040519150601f19603f3d011682016040523d82523d5f602084013e610b02565b606091505b5091509150610b12858383610bb7565b95945050505050565b604051631b2b455f60e11b81527f12ad05bde78c5ab75238ce885307f96ecd482bb402ef831f99e7018a0f169b7b60048201523060248201527f00000000000000000000000000000000000000000000000000000000000000006001600160a01b0316906336568abe906044015f604051808303815f87803b158015610b9f575f5ffd5b505af1158015610bb1573d5f5f3e3d5ffd5b50505050565b606082610bcc57610bc782610c1a565b610c13565b8151158015610be357506001600160a01b0384163b155b15610c1057604051639996b31560e01b81526001600160a01b038516600482015260240160405180910390fd5b50805b9392505050565b805115610c2a5780518082602001fd5b60405163d6bda27560e01b815260040160405180910390fd5b6040518060400160405280610c56610c8d565b8152602001610c8860405180604001604052805f6001600160a01b031681526020015f6001600160a01b031681525090565b905290565b6040518061020001604052805f6001600160a01b03168152602001606081526020015f6001600160a01b03168152602001610ce560405180608001604052805f81526020015f81526020015f81526020015f81525090565b81526020015f81526020015f81526020015f81526020015f81526020015f81526020015f81526020015f81526020015f81526020015f81526020015f81526020015f81526020015f81525090565b80516001600160a01b031682526020808201519083015260408082015190830152606080820151908301526080808201519083015260a090810151910152565b602080825282518282018190525f918401906040840190835b81811015610db557610d9f838551610d33565b6020939093019260c09290920191600101610d8c565b509095945050505050565b602080825282518282018190525f918401906040840190835b81811015610db557610dec838551610d33565b6020939093019260c09290920191600101610dd9565b602080825282518282018190525f918401906040840190835b81811015610db557835180516001600160a01b0316845260208082015160ff1681860152604080830151908601526060918201519185019190915290930192608090920191600101610e1b565b602080825282518282018190525f918401906040840190835b81811015610db557835180516001600160a01b03168452602080820151818601526040918201519185019190915290930192606090920191600101610e81565b602080825282518282018190525f918401906040840190835b81811015610db557610f0383855180516001600160a01b03908116835260209182015116910152565b6020939093019260409290920191600101610eda565b5f5b83811015610f33578181015183820152602001610f1b565b50505f910152565b5f8151808452610f52816020860160208601610f19565b601f01601f19169290920160200192915050565b80516001600160a01b031682525f60208201516102606020850152610f8f610260850182610f3b565b90506040830151610fab60408601826001600160a01b03169052565b5060608381015180518683015260208101516080870152604081015160a08701529081015160c086015250608083015160e085015260a083015161010085015260c083015161012085015260e08301516101408501526101008301516101608501526101208301516101808501526101408301516101a08501526101608301516101c08501526101808301516101e08501526101a08301516102008501526101c08301516102208501526101e08301516102408501528091505092915050565b5f82825180855260208501945060208160051b830101602085015f5b838110156110b957601f198584030188526110a3838351610f66565b6020988901989093509190910190600101611087565b50909695505050505050565b602081525f610c13602083018461106b565b5f8151808452602084019350602083015f5b828110156111105781516001600160a01b03168652602095860195909101906001016110e9565b5093949350505050565b5f602082016020835280845180835260408501915060408160051b8601019250602086015f5b828110156111d057603f198786030184528151805186526020810151602087015260408101516040870152606081015160c0606088015261118460c0880182610f3b565b90506080820151878203608089015261119d82826110d7565b91505060a0820151915086810360a08801526111b981836110d7565b965050506020938401939190910190600101611140565b50929695505050505050565b5f602082016020835280845180835260408501915060408160051b8601019250602086015f5b828110156111d057603f19878603018452815160ff81511686526020810151602087015260408101516040870152606081015160608701526080810151905060a0608087015261125560a0870182610f3b565b9550506020938401939190910190600101611202565b602080825282518282018190525f918401906040840190835b81811015610db557835180516001600160a01b03168452602090810151906112cf90850182805182526020810151602083015260408101516040830152606081015160608301525050565b506020939093019260a09290920191600101611284565b5f82825180855260208501945060208160051b830101602085015f5b838110156110b957601f1985840301885281518051606085526113286060860182610f66565b60209283015180516001600160a01b0390811688860152908401511660409096019590955250978801979190910190600101611302565b602081525f610c1360208301846112e6565b5f8151604084526113856040850182610f3b565b905060208301518482036020860152610b128282610f3b565b602081525f610c136020830184611371565b604081525f6113c26040830185611371565b8281036020840152610b12818561106b565b604081525f6113e66040830185611371565b8281036020840152610b1281856112e6565b634e487b7160e01b5f52603260045260245ffd5b5f825161141d818460208701610f19565b919091019291505056fea164736f6c634300081b000a608060405234801561000f575f5ffd5b5060405161165538038061165583398101604081905261002e91610349565b8383600361003c8382610467565b5060046100498282610467565b50506005805460ff19166012179055505f6100613390565b60058054610100600160a81b0319166101006001600160a01b03841690810291909117909155604051919250905f905f5160206116355f395f51905f52908290a350835160208086019190912060408051808201825260018152603160f81b9084015280517f8b73c3c69bb8fe3d512ecc4cf759cc79239f7b179b0ffacaa9a75d522b39400f938101939093528201527fc89efdaa54c0f20c7adf612882df0950f5a951637e0307cdcb4c672f298b8bc6606082015246608082018190523060a08301529060c00160408051808303601f1901815291905280516020909101206007556005805460ff851660ff199091161790556001600160a01b038216610167575f5ffd5b6101708261017a565b5050505050610521565b6005546001600160a01b036101009091041633146101df5760405162461bcd60e51b815260206004820181905260248201527f4f776e61626c653a2063616c6c6572206973206e6f7420746865206f776e657260448201526064015b60405180910390fd5b6001600160a01b0381166102445760405162461bcd60e51b815260206004820152602660248201527f4f776e61626c653a206e6577206f776e657220697320746865207a65726f206160448201526564647265737360d01b60648201526084016101d6565b6005546040516001600160a01b0380841692610100900416905f5160206116355f395f51905f52905f90a3600580546001600160a01b0390921661010002610100600160a81b0319909216919091179055565b634e487b7160e01b5f52604160045260245ffd5b5f82601f8301126102ba575f5ffd5b81516001600160401b038111156102d3576102d3610297565b604051601f8201601f19908116603f011681016001600160401b038111828210171561030157610301610297565b604052818152838201602001851015610318575f5ffd5b5f5b828110156103365760208186018101518383018201520161031a565b505f918101602001919091529392505050565b5f5f5f5f6080858703121561035c575f5ffd5b84516001600160401b03811115610371575f5ffd5b61037d878288016102ab565b602087015190955090506001600160401b0381111561039a575f5ffd5b6103a6878288016102ab565b935050604085015160ff811681146103bc575f5ffd5b60608601519092506001600160a01b03811681146103d8575f5ffd5b939692955090935050565b600181811c908216806103f757607f821691505b60208210810361041557634e487b7160e01b5f52602260045260245ffd5b50919050565b601f82111561046257805f5260205f20601f840160051c810160208510156104405750805b601f840160051c820191505b8181101561045f575f815560010161044c565b50505b505050565b81516001600160401b0381111561048057610480610297565b6104948161048e84546103e3565b8461041b565b6020601f8211600181146104c6575f83156104af5750848201515b5f19600385901b1c1916600184901b17845561045f565b5f84815260208120601f198516915b828110156104f557878501518255602094850194600190920191016104d5565b508482101561051257868401515f19600387901b60f8161c191681555b50505050600190811b01905550565b6111078061052e5f395ff3fe608060405234801561000f575f5ffd5b5060043610610132575f3560e01c8063715018a6116100b4578063a0712d6811610079578063a0712d68146102b2578063a457c2d7146102c5578063a9059cbb146102d8578063d505accf146102eb578063dd62ed3e146102fe578063f2fde38b14610336575f5ffd5b8063715018a61461022f57806378160376146102395780637ecebe00146102595780638da5cb5b1461028157806395d89b41146102aa575f5ffd5b8063313ce567116100fa578063313ce567146101c35780633644e515146101d857806339509351146101e157806340c10f19146101f457806370a0823114610207575f5ffd5b806306fdde0314610136578063095ea7b31461015457806318160ddd1461017757806323b872dd1461018957806330adf81f1461019c575b5f5ffd5b61013e610349565b60405161014b9190610e88565b60405180910390f35b610167610162366004610eb7565b6103d9565b604051901515815260200161014b565b6002545b60405190815260200161014b565b610167610197366004610edf565b6103ef565b61017b7f6e71edae12b1b97f4d1f60370fef10105fa2faae0126114a169c64845d6126c981565b60055460405160ff909116815260200161014b565b61017b60075481565b6101676101ef366004610eb7565b610456565b610167610202366004610eb7565b61048b565b61017b610215366004610f19565b6001600160a01b03165f9081526020819052604090205490565b6102376104d0565b005b61013e604051806040016040528060018152602001603160f81b81525081565b61017b610267366004610f19565b6001600160a01b03165f9081526006602052604090205490565b60055461010090046001600160a01b03166040516001600160a01b03909116815260200161014b565b61013e61054f565b6101676102c0366004610f32565b61055e565b6101676102d3366004610eb7565b6105a3565b6101676102e6366004610eb7565b6105f0565b6102376102f9366004610f49565b6105fc565b61017b61030c366004610fb6565b6001600160a01b039182165f90815260016020908152604080832093909416825291909152205490565b610237610344366004610f19565b6107de565b60606003805461035890610fe7565b80601f016020809104026020016040519081016040528092919081815260200182805461038490610fe7565b80156103cf5780601f106103a6576101008083540402835291602001916103cf565b820191905f5260205f20905b8154815290600101906020018083116103b257829003601f168201915b5050505050905090565b5f6103e53384846108d9565b5060015b92915050565b5f6103fb8484846109fd565b61044c8433610447856040518060600160405280602881526020016110ae602891396001600160a01b038a165f9081526001602090815260408083203384529091529020549190610b7d565b6108d9565b5060019392505050565b335f8181526001602090815260408083206001600160a01b038716845290915281205490916103e59185906104479086610baa565b6005545f906001600160a01b036101009091041633146104c65760405162461bcd60e51b81526004016104bd9061101f565b60405180910390fd5b6103e58383610bb9565b6005546001600160a01b036101009091041633146105005760405162461bcd60e51b81526004016104bd9061101f565b6005546040515f9161010090046001600160a01b0316907f8be0079c531659141344cd1fd0a4f28419497f9722a3daafe3b4186f6b6457e0908390a360058054610100600160a81b0319169055565b60606004805461035890610fe7565b6005545f906001600160a01b036101009091041633146105905760405162461bcd60e51b81526004016104bd9061101f565b61059a3383610bb9565b5060015b919050565b5f6103e53384610447856040518060600160405280602581526020016110d660259139335f9081526001602090815260408083206001600160a01b038d1684529091529020549190610b7d565b5f6103e53384846109fd565b6001600160a01b0387166106425760405162461bcd60e51b815260206004820152600d60248201526c24a72b20a624a22fa7aba722a960991b60448201526064016104bd565b834211156106875760405162461bcd60e51b815260206004820152601260248201527124a72b20a624a22fa2ac2824a920aa24a7a760711b60448201526064016104bd565b6001600160a01b038781165f8181526006602090815260408083205460075482517f6e71edae12b1b97f4d1f60370fef10105fa2faae0126114a169c64845d6126c98186015280840196909652958c166060860152608085018b905260a0850181905260c08086018b90528251808703909101815260e086019092528151919092012061190160f01b610100850152610102840194909452610122830193909352906101420160405160208183030381529060405280519060200120905061075181868686610c95565b6001600160a01b0316896001600160a01b0316146107a55760405162461bcd60e51b8152602060048201526011602482015270494e56414c49445f5349474e415455524560781b60448201526064016104bd565b6107b0826001611054565b6001600160a01b038a165f908152600660205260409020556107d38989896108d9565b505050505050505050565b6005546001600160a01b0361010090910416331461080e5760405162461bcd60e51b81526004016104bd9061101f565b6001600160a01b0381166108735760405162461bcd60e51b815260206004820152602660248201527f4f776e61626c653a206e6577206f776e657220697320746865207a65726f206160448201526564647265737360d01b60648201526084016104bd565b6005546040516001600160a01b0380841692610100900416907f8be0079c531659141344cd1fd0a4f28419497f9722a3daafe3b4186f6b6457e0905f90a3600580546001600160a01b0390921661010002610100600160a81b0319909216919091179055565b6001600160a01b03831661093b5760405162461bcd60e51b8152602060048201526024808201527f45524332303a20617070726f76652066726f6d20746865207a65726f206164646044820152637265737360e01b60648201526084016104bd565b6001600160a01b03821661099c5760405162461bcd60e51b815260206004820152602260248201527f45524332303a20617070726f766520746f20746865207a65726f206164647265604482015261737360f01b60648201526084016104bd565b6001600160a01b038381165f8181526001602090815260408083209487168084529482529182902085905590518481527f8c5be1e5ebec7d5bd14f71427d1e84f3dd0314c0f7b2291e5b200ac8c7c3b92591015b60405180910390a3505050565b6001600160a01b038316610a615760405162461bcd60e51b815260206004820152602560248201527f45524332303a207472616e736665722066726f6d20746865207a65726f206164604482015264647265737360d81b60648201526084016104bd565b6001600160a01b038216610ac35760405162461bcd60e51b815260206004820152602360248201527f45524332303a207472616e7366657220746f20746865207a65726f206164647260448201526265737360e81b60648201526084016104bd565b610aff81604051806060016040528060268152602001611088602691396001600160a01b0386165f908152602081905260409020549190610b7d565b6001600160a01b038085165f908152602081905260408082209390935590841681522054610b2d9082610baa565b6001600160a01b038381165f818152602081815260409182902094909455518481529092918616917fddf252ad1be2c89b69c2b068fc378daa952ba7f163c4a11628f55a4df523b3ef91016109f0565b8183038184821115610ba25760405162461bcd60e51b81526004016104bd9190610e88565b509392505050565b808201828110156103e9575f5ffd5b6001600160a01b038216610c0f5760405162461bcd60e51b815260206004820152601f60248201527f45524332303a206d696e7420746f20746865207a65726f20616464726573730060448201526064016104bd565b600254610c1c9082610baa565b6002556001600160a01b0382165f90815260208190526040902054610c419082610baa565b6001600160a01b0383165f81815260208181526040808320949094559251848152919290917fddf252ad1be2c89b69c2b068fc378daa952ba7f163c4a11628f55a4df523b3ef910160405180910390a35050565b5f5f5f5f610ca588888888610cc1565b925092509250610cb58282610d89565b50909695505050505050565b5f80807f7fffffffffffffffffffffffffffffff5d576e7357a4501ddfe92f46681b20a0841115610cfa57505f91506003905082610d7f565b604080515f808252602082018084528a905260ff891692820192909252606081018790526080810186905260019060a0016020604051602081039080840390855afa158015610d4b573d5f5f3e3d5ffd5b5050604051601f1901519150506001600160a01b038116610d7657505f925060019150829050610d7f565b92505f91508190505b9450945094915050565b5f826003811115610d9c57610d9c611073565b03610da5575050565b6001826003811115610db957610db9611073565b03610dd75760405163f645eedf60e01b815260040160405180910390fd5b6002826003811115610deb57610deb611073565b03610e0c5760405163fce698f760e01b8152600481018290526024016104bd565b6003826003811115610e2057610e20611073565b03610e41576040516335e2f38360e21b8152600481018290526024016104bd565b5050565b5f81518084525f5b81811015610e6957602081850181015186830182015201610e4d565b505f602082860101526020601f19601f83011685010191505092915050565b602081525f610e9a6020830184610e45565b9392505050565b80356001600160a01b038116811461059e575f5ffd5b5f5f60408385031215610ec8575f5ffd5b610ed183610ea1565b946020939093013593505050565b5f5f5f60608486031215610ef1575f5ffd5b610efa84610ea1565b9250610f0860208501610ea1565b929592945050506040919091013590565b5f60208284031215610f29575f5ffd5b610e9a82610ea1565b5f60208284031215610f42575f5ffd5b5035919050565b5f5f5f5f5f5f5f60e0888a031215610f5f575f5ffd5b610f6888610ea1565b9650610f7660208901610ea1565b95506040880135945060608801359350608088013560ff81168114610f99575f5ffd5b9699959850939692959460a0840135945060c09093013592915050565b5f5f60408385031215610fc7575f5ffd5b610fd083610ea1565b9150610fde60208401610ea1565b90509250929050565b600181811c90821680610ffb57607f821691505b60208210810361101957634e487b7160e01b5f52602260045260245ffd5b50919050565b6020808252818101527f4f776e61626c653a2063616c6c6572206973206e6f7420746865206f776e6572604082015260600190565b808201808211156103e957634e487b7160e01b5f52601160045260245ffd5b634e487b7160e01b5f52602160045260245ffdfe45524332303a207472616e7366657220616d6f756e7420657863656564732062616c616e636545524332303a207472616e7366657220616d6f756e74206578636565647320616c6c6f77616e636545524332303a2064656372656173656420616c6c6f77616e63652062656c6f77207a65726fa164736f6c634300081b000a8be0079c531659141344cd1fd0a4f28419497f9722a3daafe3b4186f6b6457e06080604052348015600e575f5ffd5b50604051610111380380610111833981016040819052602b916069565b5f81815560405142815282907f0559884fd3a460db3073b7fc896cc77986f16e378210ded43186175bf646fc5f9060200160405180910390a350607f565b5f602082840312156078575f5ffd5b5051919050565b60868061008b5f395ff3fe6080604052348015600e575f5ffd5b50600436106044575f3560e01c8063313ce56714604857806350d25bcd14605c578063b15b37a514606c578063fcab1819146073575b5f5ffd5b604051600881526020015b60405180910390f35b5f545b6040519081526020016053565b605f5f5481565b6001605f56fea164736f6c634300081b000a","linkReferences":{}},"methodIdentifiers":{"CONFIG_ENGINE()":"5e5eef7a","POOL_ADMIN_ROLE_ID()":"caf73172","USDX_ADDRESS()":"c92c2460","USDX_MOCK_PRICE_FEED()":"274bdc78","WBTC_ADDRESS()":"bdd5915f","WBTC_MOCK_PRICE_FEED()":"399367ea","WETH_ADDRESS()":"040141e5","WETH_MOCK_PRICE_FEED()":"f99dfb1c","assetsEModeUpdates()":"92287095","borrowsUpdates()":"1850edd8","capsUpdates()":"95a93cb1","collateralsUpdates()":"2b179434","eModeCategoriesUpdates()":"ca8e89cc","eModeCategoryCreations()":"c3b871ad","execute()":"61461954","getPoolContext()":"fbb256f6","newListings()":"c0a25580","newListingsCustom()":"fabe3463","priceFeedsUpdates()":"b1af0d0d","rateStrategiesUpdates()":"d0c38c27"},"id":417}