{"abi":[{"type":"constructor","inputs":[{"name":"pool","type":"address","internalType":"contract IPool"},{"name":"rewardsController","type":"address","internalType":"address"}],"stateMutability":"nonpayable"},{"type":"function","name":"POOL","inputs":[],"outputs":[{"name":"","type":"address","internalType":"contract IPool"}],"stateMutability":"view"},{"type":"function","name":"REWARDS_CONTROLLER","inputs":[],"outputs":[{"name":"","type":"address","internalType":"contract IAaveIncentivesController"}],"stateMutability":"view"},{"type":"function","name":"allowance","inputs":[{"name":"owner","type":"address","internalType":"address"},{"name":"spender","type":"address","internalType":"address"}],"outputs":[{"name":"","type":"uint256","internalType":"uint256"}],"stateMutability":"view"},{"type":"function","name":"approve","inputs":[{"name":"spender","type":"address","internalType":"address"},{"name":"amount","type":"uint256","internalType":"uint256"}],"outputs":[{"name":"","type":"bool","internalType":"bool"}],"stateMutability":"nonpayable"},{"type":"function","name":"balanceOf","inputs":[{"name":"account","type":"address","internalType":"address"}],"outputs":[{"name":"","type":"uint256","internalType":"uint256"}],"stateMutability":"view"},{"type":"function","name":"decimals","inputs":[],"outputs":[{"name":"","type":"uint8","internalType":"uint8"}],"stateMutability":"view"},{"type":"function","name":"decreaseAllowance","inputs":[{"name":"spender","type":"address","internalType":"address"},{"name":"subtractedValue","type":"uint256","internalType":"uint256"}],"outputs":[{"name":"","type":"bool","internalType":"bool"}],"stateMutability":"nonpayable"},{"type":"function","name":"getIncentivesController","inputs":[],"outputs":[{"name":"","type":"address","internalType":"contract IAaveIncentivesController"}],"stateMutability":"view"},{"type":"function","name":"getPreviousIndex","inputs":[{"name":"user","type":"address","internalType":"address"}],"outputs":[{"name":"","type":"uint256","internalType":"uint256"}],"stateMutability":"view"},{"type":"function","name":"getScaledUserBalanceAndSupply","inputs":[{"name":"user","type":"address","internalType":"address"}],"outputs":[{"name":"","type":"uint256","internalType":"uint256"},{"name":"","type":"uint256","internalType":"uint256"}],"stateMutability":"view"},{"type":"function","name":"increaseAllowance","inputs":[{"name":"spender","type":"address","internalType":"address"},{"name":"addedValue","type":"uint256","internalType":"uint256"}],"outputs":[{"name":"","type":"bool","internalType":"bool"}],"stateMutability":"nonpayable"},{"type":"function","name":"name","inputs":[],"outputs":[{"name":"","type":"string","internalType":"string"}],"stateMutability":"view"},{"type":"function","name":"scaledBalanceOf","inputs":[{"name":"user","type":"address","internalType":"address"}],"outputs":[{"name":"","type":"uint256","internalType":"uint256"}],"stateMutability":"view"},{"type":"function","name":"scaledTotalSupply","inputs":[],"outputs":[{"name":"","type":"uint256","internalType":"uint256"}],"stateMutability":"view"},{"type":"function","name":"setStorage","inputs":[{"name":"alice","type":"address","internalType":"address"},{"name":"bob","type":"address","internalType":"address"},{"name":"previousIndex","type":"uint256","internalType":"uint256"},{"name":"aliceScaledBalance","type":"uint256","internalType":"uint256"},{"name":"bobScaledBalance","type":"uint256","internalType":"uint256"}],"outputs":[],"stateMutability":"nonpayable"},{"type":"function","name":"symbol","inputs":[],"outputs":[{"name":"","type":"string","internalType":"string"}],"stateMutability":"view"},{"type":"function","name":"totalSupply","inputs":[],"outputs":[{"name":"","type":"uint256","internalType":"uint256"}],"stateMutability":"view"},{"type":"function","name":"transfer","inputs":[{"name":"recipient","type":"address","internalType":"address"},{"name":"amount","type":"uint256","internalType":"uint256"}],"outputs":[{"name":"","type":"bool","internalType":"bool"}],"stateMutability":"nonpayable"},{"type":"function","name":"transferFrom","inputs":[{"name":"sender","type":"address","internalType":"address"},{"name":"recipient","type":"address","internalType":"address"},{"name":"amount","type":"uint256","internalType":"uint256"}],"outputs":[{"name":"","type":"bool","internalType":"bool"}],"stateMutability":"nonpayable"},{"type":"event","name":"Approval","inputs":[{"name":"owner","type":"address","indexed":true,"internalType":"address"},{"name":"spender","type":"address","indexed":true,"internalType":"address"},{"name":"value","type":"uint256","indexed":false,"internalType":"uint256"}],"anonymous":false},{"type":"event","name":"Burn","inputs":[{"name":"from","type":"address","indexed":true,"internalType":"address"},{"name":"target","type":"address","indexed":true,"internalType":"address"},{"name":"value","type":"uint256","indexed":false,"internalType":"uint256"},{"name":"balanceIncrease","type":"uint256","indexed":false,"internalType":"uint256"},{"name":"index","type":"uint256","indexed":false,"internalType":"uint256"}],"anonymous":false},{"type":"event","name":"Mint","inputs":[{"name":"caller","type":"address","indexed":true,"internalType":"address"},{"name":"onBehalfOf","type":"address","indexed":true,"internalType":"address"},{"name":"value","type":"uint256","indexed":false,"internalType":"uint256"},{"name":"balanceIncrease","type":"uint256","indexed":false,"internalType":"uint256"},{"name":"index","type":"uint256","indexed":false,"internalType":"uint256"}],"anonymous":false},{"type":"event","name":"Transfer","inputs":[{"name":"from","type":"address","indexed":true,"internalType":"address"},{"name":"to","type":"address","indexed":true,"internalType":"address"},{"name":"value","type":"uint256","indexed":false,"internalType":"uint256"}],"anonymous":false},{"type":"error","name":"ERC20InsufficientAllowance","inputs":[{"name":"spender","type":"address","internalType":"address"},{"name":"allowance","type":"uint256","internalType":"uint256"},{"name":"needed","type":"uint256","internalType":"uint256"}]},{"type":"error","name":"SafeCastOverflowedUintDowncast","inputs":[{"name":"bits","type":"uint8","internalType":"uint8"},{"name":"value","type":"uint256","internalType":"uint256"}]}],"bytecode":{"object":"0x60e060405234801561000f575f5ffd5b50604051610db1380380610db183398101604081905261002e9161014b565b81604051806040016040528060018152602001604160f81b815250604051806040016040528060018152602001604160f81b81525060068484848484848484848484846001600160a01b0316630542975c6040518163ffffffff1660e01b8152600401602060405180830381865afa1580156100ac573d5f5f3e3d5ffd5b505050506040513d601f19601f820116820180604052508101906100d09190610183565b6001600160a01b031660805260036100e8858261023d565b5060046100f5848261023d565b506005805460ff90931660ff19909316929092179091556001600160a01b0393841660a05290921660c052506102f79c50505050505050505050505050565b6001600160a01b0381168114610148575f5ffd5b50565b5f5f6040838503121561015c575f5ffd5b825161016781610134565b602084015190925061017881610134565b809150509250929050565b5f60208284031215610193575f5ffd5b815161019e81610134565b9392505050565b634e487b7160e01b5f52604160045260245ffd5b600181811c908216806101cd57607f821691505b6020821081036101eb57634e487b7160e01b5f52602260045260245ffd5b50919050565b601f82111561023857805f5260205f20601f840160051c810160208510156102165750805b601f840160051c820191505b81811015610235575f8155600101610222565b50505b505050565b81516001600160401b03811115610256576102566101a5565b61026a8161026484546101b9565b846101f1565b6020601f82116001811461029c575f83156102855750848201515b5f19600385901b1c1916600184901b178455610235565b5f84815260208120601f198516915b828110156102cb57878501518255602094850194600190920191016102ab565b50848210156102e857868401515f19600387901b60f8161c191681555b50505050600190811b01905550565b60805160a05160c051610a7761033a5f395f81816102c201528181610321015281816106f50152818161075201526107f701525f61028601525f5050610a775ff3fe608060405234801561000f575f5ffd5b506004361061011c575f3560e01c806370a08231116100a9578063a9059cbb1161006e578063a9059cbb14610301578063b1bf962d14610314578063cd086d451461031c578063dd62ed3e14610343578063e07539861461037b575f5ffd5b806370a082311461026e5780637535d2461461028157806375d26413146102c057806395d89b41146102e6578063a457c2d7146102ee575f5ffd5b806318160ddd116100ef57806318160ddd1461020e5780631da24f3e1461022057806323b872dd14610233578063313ce56714610246578063395093511461025b575f5ffd5b806306fdde0314610120578063095ea7b31461013e5780630afbcdc9146101615780631749f22914610189575b5f5ffd5b6101286103b3565b6040516101359190610858565b60405180910390f35b61015161014c3660046108be565b610443565b6040519015158152602001610135565b61017461016f3660046108e6565b610459565b60408051928352602083019190915201610135565b61020c610197366004610906565b6001600160a01b039485165f9081526020819052604080822080546001600160801b03968716600160801b0290871681178255969097168083529082208054909516909517845585546001600160781b039384166001600160781b031991821617909655939093528154921691909216179055565b005b6002545b604051908152602001610135565b61021261022e3660046108e6565b610470565b61015161024136600461094f565b61047a565b60055460405160ff9091168152602001610135565b6101516102693660046108be565b6104e2565b61021261027c3660046108e6565b610518565b6102a87f000000000000000000000000000000000000000000000000000000000000000081565b6040516001600160a01b039091168152602001610135565b7f00000000000000000000000000000000000000000000000000000000000000006102a8565b61012861053b565b6101516102fc3660046108be565b61054a565b61015161030f3660046108be565b610580565b6102126105a2565b6102a87f000000000000000000000000000000000000000000000000000000000000000081565b610212610351366004610989565b6001600160a01b039182165f90815260016020908152604080832093909416825291909152205490565b6102126103893660046108e6565b6001600160a01b03165f90815260208190526040902054600160801b90046001600160801b031690565b6060600380546103c2906109ba565b80601f01602080910402602001604051908101604052809291908181526020018280546103ee906109ba565b80156104395780601f1061041057610100808354040283529160200191610439565b820191905f5260205f20905b81548152906001019060200180831161041c57829003601f168201915b5050505050905090565b5f61044f3384846105b1565b5060015b92915050565b5f5f61046483610518565b60025491509150915091565b5f61045382610518565b5f5f61048583610611565b6001600160a01b0386165f908152600160209081526040808320338085529252909120549192506104cc918791906104c7906001600160781b03861690610a06565b6105b1565b6104d785858361064c565b506001949350505050565b335f8181526001602090815260408083206001600160a01b0387168452909152812054909161044f9185906104c7908690610a19565b6001600160a01b03165f908152602081905260409020546001600160781b031690565b6060600480546103c2906109ba565b335f8181526001602090815260408083206001600160a01b0387168452909152812054909161044f9185906104c7908690610a06565b5f5f61058b83610611565b905061059833858361064c565b5060019392505050565b5f6105ac60025490565b905090565b6001600160a01b038381165f8181526001602090815260408083209487168084529482529182902085905590518481527f8c5be1e5ebec7d5bd14f71427d1e84f3dd0314c0f7b2291e5b200ac8c7c3b925910160405180910390a3505050565b5f6001600160781b03821115610648576040516306dfcc6560e41b8152607860048201526024810183905260440160405180910390fd5b5090565b6001600160a01b0383165f908152602081905260409020546001600160781b03166106778282610a2c565b6001600160a01b038581165f9081526020819052604080822080546001600160781b0319166001600160781b0395861617905591861681522054166106bc8382610a4b565b6001600160a01b038581165f90815260208190526040902080546001600160781b0319166001600160781b0393909316929092179091557f00000000000000000000000000000000000000000000000000000000000000001615610851576002546040516318c39f1760e11b81526001600160a01b038781166004830152602482018390526001600160781b03851660448301527f000000000000000000000000000000000000000000000000000000000000000016906331873e2e906064015f604051808303815f87803b158015610793575f5ffd5b505af11580156107a5573d5f5f3e3d5ffd5b50505050846001600160a01b0316866001600160a01b03161461084f576040516318c39f1760e11b81526001600160a01b038681166004830152602482018390526001600160781b03841660448301527f000000000000000000000000000000000000000000000000000000000000000016906331873e2e906064015f604051808303815f87803b158015610838575f5ffd5b505af115801561084a573d5f5f3e3d5ffd5b505050505b505b5050505050565b602081525f82518060208401525f5b818110156108845760208186018101516040868401015201610867565b505f604082850101526040601f19601f83011684010191505092915050565b80356001600160a01b03811681146108b9575f5ffd5b919050565b5f5f604083850312156108cf575f5ffd5b6108d8836108a3565b946020939093013593505050565b5f602082840312156108f6575f5ffd5b6108ff826108a3565b9392505050565b5f5f5f5f5f60a0868803121561091a575f5ffd5b610923866108a3565b9450610931602087016108a3565b94979496505050506040830135926060810135926080909101359150565b5f5f5f60608486031215610961575f5ffd5b61096a846108a3565b9250610978602085016108a3565b929592945050506040919091013590565b5f5f6040838503121561099a575f5ffd5b6109a3836108a3565b91506109b1602084016108a3565b90509250929050565b600181811c908216806109ce57607f821691505b6020821081036109ec57634e487b7160e01b5f52602260045260245ffd5b50919050565b634e487b7160e01b5f52601160045260245ffd5b81810381811115610453576104536109f2565b80820180821115610453576104536109f2565b6001600160781b038281168282160390811115610453576104536109f2565b6001600160781b038181168382160190811115610453576104536109f256fea164736f6c634300081b000a","linkReferences":{}},"methodIdentifiers":{"POOL()":"7535d246","REWARDS_CONTROLLER()":"cd086d45","allowance(address,address)":"dd62ed3e","approve(address,uint256)":"095ea7b3","balanceOf(address)":"70a08231","decimals()":"313ce567","decreaseAllowance(address,uint256)":"a457c2d7","getIncentivesController()":"75d26413","getPreviousIndex(address)":"e0753986","getScaledUserBalanceAndSupply(address)":"0afbcdc9","increaseAllowance(address,uint256)":"39509351","name()":"06fdde03","scaledBalanceOf(address)":"1da24f3e","scaledTotalSupply()":"b1bf962d","setStorage(address,address,uint256,uint256,uint256)":"1749f229","symbol()":"95d89b41","totalSupply()":"18160ddd","transfer(address,uint256)":"a9059cbb","transferFrom(address,address,uint256)":"23b872dd"},"id":204}