{"abi":[{"type":"constructor","inputs":[{"name":"assetAddress","type":"address","internalType":"address"},{"name":"customEngine","type":"address","internalType":"address"}],"stateMutability":"nonpayable"},{"type":"function","name":"ASSET_ADDRESS","inputs":[],"outputs":[{"name":"","type":"address","internalType":"address"}],"stateMutability":"view"},{"type":"function","name":"CONFIG_ENGINE","inputs":[],"outputs":[{"name":"","type":"address","internalType":"contract IAaveV3ConfigEngine"}],"stateMutability":"view"},{"type":"function","name":"assetsEModeUpdates","inputs":[],"outputs":[{"name":"","type":"tuple[]","internalType":"struct IAaveV3ConfigEngine.AssetEModeUpdate[]","components":[{"name":"asset","type":"address","internalType":"address"},{"name":"eModeCategory","type":"uint8","internalType":"uint8"},{"name":"borrowable","type":"uint256","internalType":"uint256"},{"name":"collateral","type":"uint256","internalType":"uint256"}]}],"stateMutability":"view"},{"type":"function","name":"borrowsUpdates","inputs":[],"outputs":[{"name":"","type":"tuple[]","internalType":"struct IAaveV3ConfigEngine.BorrowUpdate[]","components":[{"name":"asset","type":"address","internalType":"address"},{"name":"enabledToBorrow","type":"uint256","internalType":"uint256"},{"name":"flashloanable","type":"uint256","internalType":"uint256"},{"name":"borrowableInIsolation","type":"uint256","internalType":"uint256"},{"name":"withSiloedBorrowing","type":"uint256","internalType":"uint256"},{"name":"reserveFactor","type":"uint256","internalType":"uint256"}]}],"stateMutability":"view"},{"type":"function","name":"capsUpdates","inputs":[],"outputs":[{"name":"","type":"tuple[]","internalType":"struct IAaveV3ConfigEngine.CapsUpdate[]","components":[{"name":"asset","type":"address","internalType":"address"},{"name":"supplyCap","type":"uint256","internalType":"uint256"},{"name":"borrowCap","type":"uint256","internalType":"uint256"}]}],"stateMutability":"view"},{"type":"function","name":"collateralsUpdates","inputs":[],"outputs":[{"name":"","type":"tuple[]","internalType":"struct IAaveV3ConfigEngine.CollateralUpdate[]","components":[{"name":"asset","type":"address","internalType":"address"},{"name":"ltv","type":"uint256","internalType":"uint256"},{"name":"liqThreshold","type":"uint256","internalType":"uint256"},{"name":"liqBonus","type":"uint256","internalType":"uint256"},{"name":"debtCeiling","type":"uint256","internalType":"uint256"},{"name":"liqProtocolFee","type":"uint256","internalType":"uint256"}]}],"stateMutability":"view"},{"type":"function","name":"eModeCategoriesUpdates","inputs":[],"outputs":[{"name":"","type":"tuple[]","internalType":"struct IAaveV3ConfigEngine.EModeCategoryUpdate[]","components":[{"name":"eModeCategory","type":"uint8","internalType":"uint8"},{"name":"ltv","type":"uint256","internalType":"uint256"},{"name":"liqThreshold","type":"uint256","internalType":"uint256"},{"name":"liqBonus","type":"uint256","internalType":"uint256"},{"name":"label","type":"string","internalType":"string"}]}],"stateMutability":"view"},{"type":"function","name":"eModeCategoryCreations","inputs":[],"outputs":[{"name":"","type":"tuple[]","internalType":"struct IAaveV3ConfigEngine.EModeCategoryCreation[]","components":[{"name":"ltv","type":"uint256","internalType":"uint256"},{"name":"liqThreshold","type":"uint256","internalType":"uint256"},{"name":"liqBonus","type":"uint256","internalType":"uint256"},{"name":"label","type":"string","internalType":"string"},{"name":"borrowables","type":"address[]","internalType":"address[]"},{"name":"collaterals","type":"address[]","internalType":"address[]"}]}],"stateMutability":"view"},{"type":"function","name":"execute","inputs":[],"outputs":[],"stateMutability":"nonpayable"},{"type":"function","name":"getPoolContext","inputs":[],"outputs":[{"name":"","type":"tuple","internalType":"struct IAaveV3ConfigEngine.PoolContext","components":[{"name":"networkName","type":"string","internalType":"string"},{"name":"networkAbbreviation","type":"string","internalType":"string"}]}],"stateMutability":"pure"},{"type":"function","name":"newListings","inputs":[],"outputs":[{"name":"","type":"tuple[]","internalType":"struct IAaveV3ConfigEngine.Listing[]","components":[{"name":"asset","type":"address","internalType":"address"},{"name":"assetSymbol","type":"string","internalType":"string"},{"name":"priceFeed","type":"address","internalType":"address"},{"name":"rateStrategyParams","type":"tuple","internalType":"struct IAaveV3ConfigEngine.InterestRateInputData","components":[{"name":"optimalUsageRatio","type":"uint256","internalType":"uint256"},{"name":"baseVariableBorrowRate","type":"uint256","internalType":"uint256"},{"name":"variableRateSlope1","type":"uint256","internalType":"uint256"},{"name":"variableRateSlope2","type":"uint256","internalType":"uint256"}]},{"name":"enabledToBorrow","type":"uint256","internalType":"uint256"},{"name":"borrowableInIsolation","type":"uint256","internalType":"uint256"},{"name":"withSiloedBorrowing","type":"uint256","internalType":"uint256"},{"name":"flashloanable","type":"uint256","internalType":"uint256"},{"name":"ltv","type":"uint256","internalType":"uint256"},{"name":"liqThreshold","type":"uint256","internalType":"uint256"},{"name":"liqBonus","type":"uint256","internalType":"uint256"},{"name":"reserveFactor","type":"uint256","internalType":"uint256"},{"name":"supplyCap","type":"uint256","internalType":"uint256"},{"name":"borrowCap","type":"uint256","internalType":"uint256"},{"name":"debtCeiling","type":"uint256","internalType":"uint256"},{"name":"liqProtocolFee","type":"uint256","internalType":"uint256"}]}],"stateMutability":"view"},{"type":"function","name":"newListingsCustom","inputs":[],"outputs":[{"name":"","type":"tuple[]","internalType":"struct IAaveV3ConfigEngine.ListingWithCustomImpl[]","components":[{"name":"base","type":"tuple","internalType":"struct IAaveV3ConfigEngine.Listing","components":[{"name":"asset","type":"address","internalType":"address"},{"name":"assetSymbol","type":"string","internalType":"string"},{"name":"priceFeed","type":"address","internalType":"address"},{"name":"rateStrategyParams","type":"tuple","internalType":"struct IAaveV3ConfigEngine.InterestRateInputData","components":[{"name":"optimalUsageRatio","type":"uint256","internalType":"uint256"},{"name":"baseVariableBorrowRate","type":"uint256","internalType":"uint256"},{"name":"variableRateSlope1","type":"uint256","internalType":"uint256"},{"name":"variableRateSlope2","type":"uint256","internalType":"uint256"}]},{"name":"enabledToBorrow","type":"uint256","internalType":"uint256"},{"name":"borrowableInIsolation","type":"uint256","internalType":"uint256"},{"name":"withSiloedBorrowing","type":"uint256","internalType":"uint256"},{"name":"flashloanable","type":"uint256","internalType":"uint256"},{"name":"ltv","type":"uint256","internalType":"uint256"},{"name":"liqThreshold","type":"uint256","internalType":"uint256"},{"name":"liqBonus","type":"uint256","internalType":"uint256"},{"name":"reserveFactor","type":"uint256","internalType":"uint256"},{"name":"supplyCap","type":"uint256","internalType":"uint256"},{"name":"borrowCap","type":"uint256","internalType":"uint256"},{"name":"debtCeiling","type":"uint256","internalType":"uint256"},{"name":"liqProtocolFee","type":"uint256","internalType":"uint256"}]},{"name":"implementations","type":"tuple","internalType":"struct IAaveV3ConfigEngine.TokenImplementations","components":[{"name":"aToken","type":"address","internalType":"address"},{"name":"vToken","type":"address","internalType":"address"}]}]}],"stateMutability":"view"},{"type":"function","name":"priceFeedsUpdates","inputs":[],"outputs":[{"name":"","type":"tuple[]","internalType":"struct IAaveV3ConfigEngine.PriceFeedUpdate[]","components":[{"name":"asset","type":"address","internalType":"address"},{"name":"priceFeed","type":"address","internalType":"address"}]}],"stateMutability":"view"},{"type":"function","name":"rateStrategiesUpdates","inputs":[],"outputs":[{"name":"","type":"tuple[]","internalType":"struct IAaveV3ConfigEngine.RateStrategyUpdate[]","components":[{"name":"asset","type":"address","internalType":"address"},{"name":"params","type":"tuple","internalType":"struct IAaveV3ConfigEngine.InterestRateInputData","components":[{"name":"optimalUsageRatio","type":"uint256","internalType":"uint256"},{"name":"baseVariableBorrowRate","type":"uint256","internalType":"uint256"},{"name":"variableRateSlope1","type":"uint256","internalType":"uint256"},{"name":"variableRateSlope2","type":"uint256","internalType":"uint256"}]}]}],"stateMutability":"view"},{"type":"error","name":"AddressEmptyCode","inputs":[{"name":"target","type":"address","internalType":"address"}]},{"type":"error","name":"FailedCall","inputs":[]}],"bytecode":{"object":"0x60c060405234801561000f575f5ffd5b50604051610e90380380610e9083398101604081905261002e91610060565b6001600160a01b039081166080521660a052610091565b80516001600160a01b038116811461005b575f5ffd5b919050565b5f5f60408385031215610071575f5ffd5b61007a83610045565b915061008860208401610045565b90509250929050565b60805160a051610dd06100c05f395f818161010c015261028b01525f818161015a01526103b10152610dd05ff3fe608060405234801561000f575f5ffd5b50600436106100e5575f3560e01c8063b1af0d0d11610088578063ca8e89cc11610063578063ca8e89cc146101d1578063d0c38c27146101e0578063fabe3463146101ef578063fbb256f6146101fe575f5ffd5b8063b1af0d0d146101a4578063c0a25580146101b3578063c3b871ad146101c2575f5ffd5b80635e5eef7a116100c35780635e5eef7a14610155578063614619541461017c578063922870951461018657806395a93cb114610195575f5ffd5b80631850edd8146100e95780631d4be043146101075780632b17943414610146575b5f5ffd5b6100f1610213565b6040516100fe91906106e7565b60405180910390f35b61012e7f000000000000000000000000000000000000000000000000000000000000000081565b6040516001600160a01b0390911681526020016100fe565b60606040516100fe9190610734565b61012e7f000000000000000000000000000000000000000000000000000000000000000081565b61018461032f565b005b60606040516100fe9190610776565b60606040516100fe91906107dc565b60606040516100fe9190610835565b60606040516100fe9190610a39565b60606040516100fe9190610a8e565b60606040516100fe9190610b50565b60606040516100fe9190610bdf565b60606040516100fe9190610cd3565b61020661054b565b6040516100fe9190610d12565b6040805160018082528183019092526060915f9190816020015b6102696040518060c001604052805f6001600160a01b031681526020015f81526020015f81526020015f81526020015f81526020015f81525090565b81526020019060019003908161022d5790505090506040518060c001604052807f00000000000000000000000000000000000000000000000000000000000000006001600160a01b03168152602001602a5f196102c69190610d24565b81526020016102d7602a5f19610d24565b81526020016102e8602a5f19610d24565b81526020016102f9602a5f19610d24565b815260200161030a602a5f19610d24565b815250815f8151811061031f5761031f610d43565b6020908102919091010152919050565b606080808080805f61033f610213565b875190915060609081908190156103d9576103d7630b393a0960e11b61036361054b565b8c604051602401610375929190610d57565b60408051601f198184030181529190526020810180516001600160e01b03166001600160e01b0319909316929092179091526001600160a01b037f000000000000000000000000000000000000000000000000000000000000000016906105a7565b505b885115610407576104056311577d8d60e01b6103f361054b565b8b604051602401610375929190610d84565b505b87511561042e5760405161042c906327708a8d60e11b90610375908b90602401610b50565b505b865115610455576040516104539063012146c760e41b90610375908a90602401610776565b505b85511561047c5760405161047a90630ecae8b560e21b90610375908990602401610a8e565b505b8351156104a3576040516104a190633c70994b60e21b906103759087906024016106e7565b505b8451156104ca576040516104c89063013b066560e31b90610375908890602401610734565b505b8251156104f1576040516104ef9063b79421eb60e01b90610375908690602401610bdf565b505b815115610518576040516105169063927c400360e01b90610375908590602401610835565b505b80511561053f5760405161053d906355caa16360e01b906103759084906024016107dc565b505b50505050505050505050565b60408051808201909152606080825260208201525060408051608081018252600581830190815264131bd8d85b60da1b60608301528152815180830190925260038252624c6f6360e81b60208381019190915281019190915290565b60605f5f846001600160a01b0316846040516105c39190610da8565b5f60405180830381855af49150503d805f81146105fb576040519150601f19603f3d011682016040523d82523d5f602084013e610600565b606091505b509150915061061085838361061b565b925050505b92915050565b6060826106305761062b8261067e565b610677565b815115801561064757506001600160a01b0384163b155b1561067457604051639996b31560e01b81526001600160a01b038516600482015260240160405180910390fd5b50805b9392505050565b80511561068e5780518082602001fd5b60405163d6bda27560e01b815260040160405180910390fd5b80516001600160a01b031682526020808201519083015260408082015190830152606080820151908301526080808201519083015260a090810151910152565b602080825282518282018190525f918401906040840190835b81811015610729576107138385516106a7565b6020939093019260c09290920191600101610700565b509095945050505050565b602080825282518282018190525f918401906040840190835b81811015610729576107608385516106a7565b6020939093019260c0929092019160010161074d565b602080825282518282018190525f918401906040840190835b8181101561072957835180516001600160a01b0316845260208082015160ff168186015260408083015190860152606091820151918501919091529093019260809092019160010161078f565b602080825282518282018190525f918401906040840190835b8181101561072957835180516001600160a01b031684526020808201518186015260409182015191850191909152909301926060909201916001016107f5565b602080825282518282018190525f918401906040840190835b818110156107295761087783855180516001600160a01b03908116835260209182015116910152565b602093909301926040929092019160010161084e565b5f5b838110156108a757818101518382015260200161088f565b50505f910152565b5f81518084526108c681602086016020860161088d565b601f01601f19169290920160200192915050565b80516001600160a01b031682525f602082015161026060208501526109036102608501826108af565b9050604083015161091f60408601826001600160a01b03169052565b5060608381015180518683015260208101516080870152604081015160a08701529081015160c086015250608083015160e085015260a083015161010085015260c083015161012085015260e08301516101408501526101008301516101608501526101208301516101808501526101408301516101a08501526101608301516101c08501526101808301516101e08501526101a08301516102008501526101c08301516102208501526101e08301516102408501528091505092915050565b5f82825180855260208501945060208160051b830101602085015f5b83811015610a2d57601f19858403018852610a178383516108da565b60209889019890935091909101906001016109fb565b50909695505050505050565b602081525f61067760208301846109df565b5f8151808452602084019350602083015f5b82811015610a845781516001600160a01b0316865260209586019590910190600101610a5d565b5093949350505050565b5f602082016020835280845180835260408501915060408160051b8601019250602086015f5b82811015610b4457603f198786030184528151805186526020810151602087015260408101516040870152606081015160c06060880152610af860c08801826108af565b905060808201518782036080890152610b118282610a4b565b91505060a0820151915086810360a0880152610b2d8183610a4b565b965050506020938401939190910190600101610ab4565b50929695505050505050565b5f602082016020835280845180835260408501915060408160051b8601019250602086015f5b82811015610b4457603f19878603018452815160ff81511686526020810151602087015260408101516040870152606081015160608701526080810151905060a06080870152610bc960a08701826108af565b9550506020938401939190910190600101610b76565b602080825282518282018190525f918401906040840190835b8181101561072957835180516001600160a01b0316845260209081015190610c4390850182805182526020810151602083015260408101516040830152606081015160608301525050565b506020939093019260a09290920191600101610bf8565b5f82825180855260208501945060208160051b830101602085015f5b83811015610a2d57601f198584030188528151805160608552610c9c60608601826108da565b60209283015180516001600160a01b0390811688860152908401511660409096019590955250978801979190910190600101610c76565b602081525f6106776020830184610c5a565b5f815160408452610cf960408501826108af565b90506020830151848203602086015261061082826108af565b602081525f6106776020830184610ce5565b8181038181111561061557634e487b7160e01b5f52601160045260245ffd5b634e487b7160e01b5f52603260045260245ffd5b604081525f610d696040830185610ce5565b8281036020840152610d7b81856109df565b95945050505050565b604081525f610d966040830185610ce5565b8281036020840152610d7b8185610c5a565b5f8251610db981846020870161088d565b919091019291505056fea164736f6c634300081b000a","linkReferences":{}},"methodIdentifiers":{"ASSET_ADDRESS()":"1d4be043","CONFIG_ENGINE()":"5e5eef7a","assetsEModeUpdates()":"92287095","borrowsUpdates()":"1850edd8","capsUpdates()":"95a93cb1","collateralsUpdates()":"2b179434","eModeCategoriesUpdates()":"ca8e89cc","eModeCategoryCreations()":"c3b871ad","execute()":"61461954","getPoolContext()":"fbb256f6","newListings()":"c0a25580","newListingsCustom()":"fabe3463","priceFeedsUpdates()":"b1af0d0d","rateStrategiesUpdates()":"d0c38c27"},"id":340}