{"abi":[{"type":"constructor","inputs":[{"name":"weth","type":"address","internalType":"address"},{"name":"owner","type":"address","internalType":"address"},{"name":"pool","type":"address","internalType":"contract IPool"}],"stateMutability":"nonpayable"},{"type":"fallback","stateMutability":"payable"},{"type":"receive","stateMutability":"payable"},{"type":"function","name":"POOL","inputs":[],"outputs":[{"name":"","type":"address","internalType":"contract IPool"}],"stateMutability":"view"},{"type":"function","name":"WETH","inputs":[],"outputs":[{"name":"","type":"address","internalType":"contract IWETH"}],"stateMutability":"view"},{"type":"function","name":"borrowETH","inputs":[{"name":"","type":"address","internalType":"address"},{"name":"amount","type":"uint256","internalType":"uint256"},{"name":"referralCode","type":"uint16","internalType":"uint16"}],"outputs":[],"stateMutability":"nonpayable"},{"type":"function","name":"depositETH","inputs":[{"name":"","type":"address","internalType":"address"},{"name":"onBehalfOf","type":"address","internalType":"address"},{"name":"referralCode","type":"uint16","internalType":"uint16"}],"outputs":[],"stateMutability":"payable"},{"type":"function","name":"emergencyEtherTransfer","inputs":[{"name":"to","type":"address","internalType":"address"},{"name":"amount","type":"uint256","internalType":"uint256"}],"outputs":[],"stateMutability":"nonpayable"},{"type":"function","name":"emergencyTokenTransfer","inputs":[{"name":"token","type":"address","internalType":"address"},{"name":"to","type":"address","internalType":"address"},{"name":"amount","type":"uint256","internalType":"uint256"}],"outputs":[],"stateMutability":"nonpayable"},{"type":"function","name":"getWETHAddress","inputs":[],"outputs":[{"name":"","type":"address","internalType":"address"}],"stateMutability":"view"},{"type":"function","name":"owner","inputs":[],"outputs":[{"name":"","type":"address","internalType":"address"}],"stateMutability":"view"},{"type":"function","name":"renounceOwnership","inputs":[],"outputs":[],"stateMutability":"nonpayable"},{"type":"function","name":"repayETH","inputs":[{"name":"","type":"address","internalType":"address"},{"name":"amount","type":"uint256","internalType":"uint256"},{"name":"onBehalfOf","type":"address","internalType":"address"}],"outputs":[],"stateMutability":"payable"},{"type":"function","name":"transferOwnership","inputs":[{"name":"newOwner","type":"address","internalType":"address"}],"outputs":[],"stateMutability":"nonpayable"},{"type":"function","name":"withdrawETH","inputs":[{"name":"","type":"address","internalType":"address"},{"name":"amount","type":"uint256","internalType":"uint256"},{"name":"to","type":"address","internalType":"address"}],"outputs":[],"stateMutability":"nonpayable"},{"type":"function","name":"withdrawETHWithPermit","inputs":[{"name":"","type":"address","internalType":"address"},{"name":"amount","type":"uint256","internalType":"uint256"},{"name":"to","type":"address","internalType":"address"},{"name":"deadline","type":"uint256","internalType":"uint256"},{"name":"permitV","type":"uint8","internalType":"uint8"},{"name":"permitR","type":"bytes32","internalType":"bytes32"},{"name":"permitS","type":"bytes32","internalType":"bytes32"}],"outputs":[],"stateMutability":"nonpayable"},{"type":"event","name":"OwnershipTransferred","inputs":[{"name":"previousOwner","type":"address","indexed":true,"internalType":"address"},{"name":"newOwner","type":"address","indexed":true,"internalType":"address"}],"anonymous":false}],"bytecode":{"object":"0x60c060405234801561000f575f5ffd5b5060405161186c38038061186c83398101604081905261002e91610210565b5f80546001600160a01b031916339081178255604051909182915f51602061184c5f395f51905f52908290a3506001600160a01b03808416608052811660a052610077826100f0565b60405163095ea7b360e01b81526001600160a01b0382811660048301525f19602483015284169063095ea7b3906044016020604051808303815f875af11580156100c3573d5f5f3e3d5ffd5b505050506040513d601f19601f820116820180604052508101906100e7919061025a565b50505050610280565b5f546001600160a01b0316331461014e5760405162461bcd60e51b815260206004820181905260248201527f4f776e61626c653a2063616c6c6572206973206e6f7420746865206f776e657260448201526064015b60405180910390fd5b6001600160a01b0381166101b35760405162461bcd60e51b815260206004820152602660248201527f4f776e61626c653a206e6577206f776e657220697320746865207a65726f206160448201526564647265737360d01b6064820152608401610145565b5f80546040516001600160a01b03808516939216915f51602061184c5f395f51905f5291a35f80546001600160a01b0319166001600160a01b0392909216919091179055565b6001600160a01b038116811461020d575f5ffd5b50565b5f5f5f60608486031215610222575f5ffd5b835161022d816101f9565b602085015190935061023e816101f9565b604085015190925061024f816101f9565b809150509250925092565b5f6020828403121561026a575f5ffd5b81518015158114610279575f5ffd5b9392505050565b60805160a05161150b6103415f395f81816101b60152818161040601528181610518015281816106bd0152818161083201528181610a3701528181610b0801528181610d280152610e7c01525f818160d50152818161025f0152818161028f01528181610344015281816103c6015281816104ee015281816106880152818161073e0152818161080801528181610976015281816109f001528181610ade01528181610cf301528181610da901528181610e2d0152610ee7015261150b5ff3fe6080604052600436106100c5575f3560e01c8063ad5c46481161007e578063d4c40b6c11610058578063d4c40b6c146102c6578063e74f7b85146102e5578063eed88b8d14610304578063f2fde38b146103235761013f565b8063ad5c46481461024e578063affa881714610281578063bcc3c255146102b35761013f565b8063474cf53d1461017e578063715018a6146101915780637535d246146101a557806380500d20146101f45780638da5cb5b14610213578063a3d5b2551461022f5761013f565b3661013f57336001600160a01b037f0000000000000000000000000000000000000000000000000000000000000000161461013d5760405162461bcd60e51b8152602060048201526013602482015272149958d95a5d99481b9bdd08185b1b1bddd959606a1b60448201526064015b60405180910390fd5b005b60405162461bcd60e51b815260206004820152601460248201527311985b1b189858dac81b9bdd08185b1b1bddd95960621b6044820152606401610134565b61013d61018c366004611277565b610342565b34801561019c575f5ffd5b5061013d610466565b3480156101b0575f5ffd5b506101d87f000000000000000000000000000000000000000000000000000000000000000081565b6040516001600160a01b03909116815260200160405180910390f35b3480156101ff575f5ffd5b5061013d61020e3660046112bb565b6104d7565b34801561021e575f5ffd5b505f546001600160a01b03166101d8565b34801561023a575f5ffd5b5061013d6102493660046112fa565b6107af565b348015610259575f5ffd5b506101d87f000000000000000000000000000000000000000000000000000000000000000081565b34801561028c575f5ffd5b507f00000000000000000000000000000000000000000000000000000000000000006101d8565b61013d6102c13660046112bb565b6107f1565b3480156102d1575f5ffd5b5061013d6102e0366004611338565b610ac7565b3480156102f0575f5ffd5b5061013d6102ff3660046113a9565b610e1e565b34801561030f575f5ffd5b5061013d61031e3660046113db565b610f52565b34801561032e575f5ffd5b5061013d61033d366004611405565b610f89565b7f00000000000000000000000000000000000000000000000000000000000000006001600160a01b031663d0e30db0346040518263ffffffff1660e01b81526004015f604051808303818588803b15801561039b575f5ffd5b505af11580156103ad573d5f5f3e3d5ffd5b505060405163e8eda9df60e01b81526001600160a01b037f000000000000000000000000000000000000000000000000000000000000000081166004830152346024830152868116604483015261ffff861660648301527f000000000000000000000000000000000000000000000000000000000000000016935063e8eda9df925060840190505f604051808303815f87803b15801561044b575f5ffd5b505af115801561045d573d5f5f3e3d5ffd5b50505050505050565b5f546001600160a01b0316331461048f5760405162461bcd60e51b815260040161013490611427565b5f80546040516001600160a01b03909116907f8be0079c531659141344cd1fd0a4f28419497f9722a3daafe3b4186f6b6457e0908390a35f80546001600160a01b0319169055565b60405163cff027d960e01b81526001600160a01b037f0000000000000000000000000000000000000000000000000000000000000000811660048301525f917f00000000000000000000000000000000000000000000000000000000000000009091169063cff027d990602401602060405180830381865afa15801561055f573d5f5f3e3d5ffd5b505050506040513d601f19601f82011682018060405250810190610583919061145c565b6040516370a0823160e01b81523360048201529091505f906001600160a01b038316906370a0823190602401602060405180830381865afa1580156105ca573d5f5f3e3d5ffd5b505050506040513d601f19601f820116820180604052508101906105ee9190611477565b905083600181016105fc5750805b6040516323b872dd60e01b8152336004820152306024820152604481018290526001600160a01b038416906323b872dd906064016020604051808303815f875af115801561064c573d5f5f3e3d5ffd5b505050506040513d601f19601f82011682018060405250810190610670919061148e565b50604051631a4ca37b60e21b81526001600160a01b037f000000000000000000000000000000000000000000000000000000000000000081166004830152602482018390523060448301527f000000000000000000000000000000000000000000000000000000000000000016906369328dec906064016020604051808303815f875af1158015610703573d5f5f3e3d5ffd5b505050506040513d601f19601f820116820180604052508101906107279190611477565b50604051632e1a7d4d60e01b8152600481018290527f00000000000000000000000000000000000000000000000000000000000000006001600160a01b031690632e1a7d4d906024015f604051808303815f87803b158015610787575f5ffd5b505af1158015610799573d5f5f3e3d5ffd5b505050506107a78482611070565b505050505050565b5f546001600160a01b031633146107d85760405162461bcd60e51b815260040161013490611427565b6107ec6001600160a01b038416838361111f565b505050565b6040516301b2848560e51b81526001600160a01b037f0000000000000000000000000000000000000000000000000000000000000000811660048301525f917f00000000000000000000000000000000000000000000000000000000000000009091169063365090a090602401602060405180830381865afa158015610879573d5f5f3e3d5ffd5b505050506040513d601f19601f8201168201806040525081019061089d919061145c565b6040516370a0823160e01b81526001600160a01b03848116600483015291909116906370a0823190602401602060405180830381865afa1580156108e3573d5f5f3e3d5ffd5b505050506040513d601f19601f820116820180604052508101906109079190611477565b9050808310156109145750815b803410156109745760405162461bcd60e51b815260206004820152602760248201527f6d73672e76616c7565206973206c657373207468616e2072657061796d656e7460448201526608185b5bdd5b9d60ca1b6064820152608401610134565b7f00000000000000000000000000000000000000000000000000000000000000006001600160a01b031663d0e30db0826040518263ffffffff1660e01b81526004015f604051808303818588803b1580156109cd575f5ffd5b505af11580156109df573d5f5f3e3d5ffd5b505060405163573ade8160e01b81527f00000000000000000000000000000000000000000000000000000000000000006001600160a01b039081166004830152602482018690526002604483015286811660648301527f000000000000000000000000000000000000000000000000000000000000000016935063573ade81925060840190506020604051808303815f875af1158015610a81573d5f5f3e3d5ffd5b505050506040513d601f19601f82011682018060405250810190610aa59190611477565b5080341115610ac157610ac133610abc83346114ad565b611070565b50505050565b60405163cff027d960e01b81526001600160a01b037f0000000000000000000000000000000000000000000000000000000000000000811660048301525f917f00000000000000000000000000000000000000000000000000000000000000009091169063cff027d990602401602060405180830381865afa158015610b4f573d5f5f3e3d5ffd5b505050506040513d601f19601f82011682018060405250810190610b73919061145c565b6040516370a0823160e01b81523360048201529091505f906001600160a01b038316906370a0823190602401602060405180830381865afa158015610bba573d5f5f3e3d5ffd5b505050506040513d601f19601f82011682018060405250810190610bde9190611477565b90508760018101610bec5750805b60405163d505accf60e01b8152336004820152306024820152604481018a90526064810188905260ff8716608482015260a4810186905260c481018590526001600160a01b0384169063d505accf9060e4015f604051808303815f87803b158015610c55575f5ffd5b505af1925050508015610c66575060015b506040516323b872dd60e01b8152336004820152306024820152604481018290526001600160a01b038416906323b872dd906064016020604051808303815f875af1158015610cb7573d5f5f3e3d5ffd5b505050506040513d601f19601f82011682018060405250810190610cdb919061148e565b50604051631a4ca37b60e21b81526001600160a01b037f000000000000000000000000000000000000000000000000000000000000000081166004830152602482018390523060448301527f000000000000000000000000000000000000000000000000000000000000000016906369328dec906064016020604051808303815f875af1158015610d6e573d5f5f3e3d5ffd5b505050506040513d601f19601f82011682018060405250810190610d929190611477565b50604051632e1a7d4d60e01b8152600481018290527f00000000000000000000000000000000000000000000000000000000000000006001600160a01b031690632e1a7d4d906024015f604051808303815f87803b158015610df2575f5ffd5b505af1158015610e04573d5f5f3e3d5ffd5b50505050610e128882611070565b50505050505050505050565b60405163a415bcad60e01b81527f00000000000000000000000000000000000000000000000000000000000000006001600160a01b039081166004830152602482018490526002604483015261ffff831660648301523360848301527f0000000000000000000000000000000000000000000000000000000000000000169063a415bcad9060a4015f604051808303815f87803b158015610ebd575f5ffd5b505af1158015610ecf573d5f5f3e3d5ffd5b5050604051632e1a7d4d60e01b8152600481018590527f00000000000000000000000000000000000000000000000000000000000000006001600160a01b03169250632e1a7d4d91506024015f604051808303815f87803b158015610f32575f5ffd5b505af1158015610f44573d5f5f3e3d5ffd5b505050506107ec3383611070565b5f546001600160a01b03163314610f7b5760405162461bcd60e51b815260040161013490611427565b610f858282611070565b5050565b5f546001600160a01b03163314610fb25760405162461bcd60e51b815260040161013490611427565b6001600160a01b0381166110175760405162461bcd60e51b815260206004820152602660248201527f4f776e61626c653a206e6577206f776e657220697320746865207a65726f206160448201526564647265737360d01b6064820152608401610134565b5f80546040516001600160a01b03808516939216917f8be0079c531659141344cd1fd0a4f28419497f9722a3daafe3b4186f6b6457e091a35f80546001600160a01b0319166001600160a01b0392909216919091179055565b604080515f808252602082019092526001600160a01b03841690839060405161109991906114d2565b5f6040518083038185875af1925050503d805f81146110d3576040519150601f19603f3d011682016040523d82523d5f602084013e6110d8565b606091505b50509050806107ec5760405162461bcd60e51b815260206004820152601360248201527211551217d514905394d1915497d19052531151606a1b6044820152606401610134565b60405163a9059cbb60e01b8082526001600160a01b038416600483015260248201839052905f8060448382895af1611159573d5f5f3e3d5ffd5b50611163846111a7565b610ac15760405162461bcd60e51b815260206004820152601560248201527423a83b191d103330b4b632b2103a3930b739b332b960591b6044820152606401610134565b5f6111c9565b62461bcd60e51b5f52602060045280602452508060445260645ffd5b3d80156112085760208114611239576112037f475076323a206d616c666f726d6564207472616e7366657220726573756c7400601f6111ad565b611244565b823b611230576112307311d41d8c8e881b9bdd08184818dbdb9d1c9858dd60621b60146111ad565b60019150611244565b3d5f5f3e5f51151591505b50919050565b6001600160a01b038116811461125e575f5ffd5b50565b803561ffff81168114611272575f5ffd5b919050565b5f5f5f60608486031215611289575f5ffd5b83356112948161124a565b925060208401356112a48161124a565b91506112b260408501611261565b90509250925092565b5f5f5f606084860312156112cd575f5ffd5b83356112d88161124a565b92506020840135915060408401356112ef8161124a565b809150509250925092565b5f5f5f6060848603121561130c575f5ffd5b83356113178161124a565b925060208401356113278161124a565b929592945050506040919091013590565b5f5f5f5f5f5f5f60e0888a03121561134e575f5ffd5b87356113598161124a565b96506020880135955060408801356113708161124a565b945060608801359350608088013560ff8116811461138c575f5ffd5b9699959850939692959460a0840135945060c09093013592915050565b5f5f5f606084860312156113bb575f5ffd5b83356113c68161124a565b9250602084013591506112b260408501611261565b5f5f604083850312156113ec575f5ffd5b82356113f78161124a565b946020939093013593505050565b5f60208284031215611415575f5ffd5b81356114208161124a565b9392505050565b6020808252818101527f4f776e61626c653a2063616c6c6572206973206e6f7420746865206f776e6572604082015260600190565b5f6020828403121561146c575f5ffd5b81516114208161124a565b5f60208284031215611487575f5ffd5b5051919050565b5f6020828403121561149e575f5ffd5b81518015158114611420575f5ffd5b818103818111156114cc57634e487b7160e01b5f52601160045260245ffd5b92915050565b5f82515f5b818110156114f157602081860181015185830152016114d7565b505f92019182525091905056fea164736f6c634300081b000a8be0079c531659141344cd1fd0a4f28419497f9722a3daafe3b4186f6b6457e0","linkReferences":{}},"methodIdentifiers":{"POOL()":"7535d246","WETH()":"ad5c4648","borrowETH(address,uint256,uint16)":"e74f7b85","depositETH(address,address,uint16)":"474cf53d","emergencyEtherTransfer(address,uint256)":"eed88b8d","emergencyTokenTransfer(address,address,uint256)":"a3d5b255","getWETHAddress()":"affa8817","owner()":"8da5cb5b","renounceOwnership()":"715018a6","repayETH(address,uint256,address)":"bcc3c255","transferOwnership(address)":"f2fde38b","withdrawETH(address,uint256,address)":"80500d20","withdrawETHWithPermit(address,uint256,address,uint256,uint8,bytes32,bytes32)":"d4c40b6c"},"id":142}