{"abi":[{"type":"constructor","inputs":[{"name":"owner","type":"address","internalType":"address"}],"stateMutability":"nonpayable"},{"type":"function","name":"getAddressesProviderAddressById","inputs":[{"name":"id","type":"uint256","internalType":"uint256"}],"outputs":[{"name":"","type":"address","internalType":"address"}],"stateMutability":"view"},{"type":"function","name":"getAddressesProviderIdByAddress","inputs":[{"name":"addressesProvider","type":"address","internalType":"address"}],"outputs":[{"name":"","type":"uint256","internalType":"uint256"}],"stateMutability":"view"},{"type":"function","name":"getAddressesProvidersList","inputs":[],"outputs":[{"name":"","type":"address[]","internalType":"address[]"}],"stateMutability":"view"},{"type":"function","name":"owner","inputs":[],"outputs":[{"name":"","type":"address","internalType":"address"}],"stateMutability":"view"},{"type":"function","name":"registerAddressesProvider","inputs":[{"name":"provider","type":"address","internalType":"address"},{"name":"id","type":"uint256","internalType":"uint256"}],"outputs":[],"stateMutability":"nonpayable"},{"type":"function","name":"renounceOwnership","inputs":[],"outputs":[],"stateMutability":"nonpayable"},{"type":"function","name":"transferOwnership","inputs":[{"name":"newOwner","type":"address","internalType":"address"}],"outputs":[],"stateMutability":"nonpayable"},{"type":"function","name":"unregisterAddressesProvider","inputs":[{"name":"provider","type":"address","internalType":"address"}],"outputs":[],"stateMutability":"nonpayable"},{"type":"event","name":"AddressesProviderRegistered","inputs":[{"name":"addressesProvider","type":"address","indexed":true,"internalType":"address"},{"name":"id","type":"uint256","indexed":true,"internalType":"uint256"}],"anonymous":false},{"type":"event","name":"AddressesProviderUnregistered","inputs":[{"name":"addressesProvider","type":"address","indexed":true,"internalType":"address"},{"name":"id","type":"uint256","indexed":true,"internalType":"uint256"}],"anonymous":false},{"type":"event","name":"OwnershipTransferred","inputs":[{"name":"previousOwner","type":"address","indexed":true,"internalType":"address"},{"name":"newOwner","type":"address","indexed":true,"internalType":"address"}],"anonymous":false},{"type":"error","name":"AddressesProviderAlreadyAdded","inputs":[]},{"type":"error","name":"AddressesProviderNotRegistered","inputs":[]},{"type":"error","name":"InvalidAddressesProviderId","inputs":[]}],"bytecode":{"object":"0x608060405234801561000f575f5ffd5b5060405161096738038061096783398101604081905261002e91610173565b5f80546001600160a01b031916339081178255604051909182915f5160206109475f395f51905f52908290a3506100648161006a565b506101a0565b5f546001600160a01b031633146100c85760405162461bcd60e51b815260206004820181905260248201527f4f776e61626c653a2063616c6c6572206973206e6f7420746865206f776e657260448201526064015b60405180910390fd5b6001600160a01b03811661012d5760405162461bcd60e51b815260206004820152602660248201527f4f776e61626c653a206e6577206f776e657220697320746865207a65726f206160448201526564647265737360d01b60648201526084016100bf565b5f80546040516001600160a01b03808516939216915f5160206109475f395f51905f5291a35f80546001600160a01b0319166001600160a01b0392909216919091179055565b5f60208284031215610183575f5ffd5b81516001600160a01b0381168114610199575f5ffd5b9392505050565b61079a806101ad5f395ff3fe608060405234801561000f575f5ffd5b5060043610610085575f3560e01c80638da5cb5b116100585780638da5cb5b14610104578063d0267be714610114578063d258191e1461014a578063f2fde38b1461015d575f5ffd5b80630de2670714610089578063365ccbbf1461009e57806357dc0566146100bc578063715018a6146100fc575b5f5ffd5b61009c610097366004610661565b610170565b005b6100a6610257565b6040516100b39190610681565b60405180910390f35b6100e46100ca3660046106cc565b5f908152600260205260409020546001600160a01b031690565b6040516001600160a01b0390911681526020016100b3565b61009c6102b7565b5f546001600160a01b03166100e4565b61013c610122366004610661565b6001600160a01b03165f9081526001602052604090205490565b6040519081526020016100b3565b61009c6101583660046106e3565b610328565b61009c61016b366004610661565b610474565b5f546001600160a01b031633146101a25760405162461bcd60e51b81526004016101999061070b565b60405180910390fd5b6001600160a01b0381165f9081526001602052604081205490036101d9576040516307498ebd60e41b815260040160405180910390fd5b6001600160a01b0381165f81815260016020818152604080842080548086526002845291852080546001600160a01b0319169055948452919052915561021e8261055b565b60405181906001600160a01b038416907f254723080701bde71d562cad0e967cef23d86bb27ee842c190a2596820f3b241905f90a35050565b606060038054806020026020016040519081016040528092919081815260200182805480156102ad57602002820191905f5260205f20905b81546001600160a01b0316815260019091019060200180831161028f575b5050505050905090565b5f546001600160a01b031633146102e05760405162461bcd60e51b81526004016101999061070b565b5f80546040516001600160a01b03909116907f8be0079c531659141344cd1fd0a4f28419497f9722a3daafe3b4186f6b6457e0908390a35f80546001600160a01b0319169055565b5f546001600160a01b031633146103515760405162461bcd60e51b81526004016101999061070b565b801580159061037457505f818152600260205260409020546001600160a01b0316155b6103915760405163f771765760e01b815260040160405180910390fd5b6001600160a01b0382165f90815260016020526040902054156103c757604051630cf17b4960e11b815260040160405180910390fd5b6001600160a01b0382165f8181526001602081815260408084208690558584526002825280842080546001600160a01b0319908116871790915560038054878752600490945282862084905593830184559284527fc2575a0e9e593c00f959f8c92f12db2869c3395a3b0502d05e2516446f71f85b90910180549092168417909155518392917fc2e7cc813550ef0e7126cc0571281850ce5df2e9c400acf3589c38e4627f85f191a35050565b5f546001600160a01b0316331461049d5760405162461bcd60e51b81526004016101999061070b565b6001600160a01b0381166105025760405162461bcd60e51b815260206004820152602660248201527f4f776e61626c653a206e6577206f776e657220697320746865207a65726f206160448201526564647265737360d01b6064820152608401610199565b5f80546040516001600160a01b03808516939216917f8be0079c531659141344cd1fd0a4f28419497f9722a3daafe3b4186f6b6457e091a35f80546001600160a01b0319166001600160a01b0392909216919091179055565b6001600160a01b0381165f90815260046020526040812080549082905560035490919061058a90600190610740565b905080821015610610575f600382815481106105a8576105a8610765565b5f91825260209091200154600380546001600160a01b0390921692508291859081106105d6576105d6610765565b5f91825260208083209190910180546001600160a01b0319166001600160a01b039485161790559290911681526004909152604090208290555b600380548061062157610621610779565b5f8281526020902081015f1990810180546001600160a01b0319169055019055505050565b80356001600160a01b038116811461065c575f5ffd5b919050565b5f60208284031215610671575f5ffd5b61067a82610646565b9392505050565b602080825282518282018190525f918401906040840190835b818110156106c15783516001600160a01b031683526020938401939092019160010161069a565b509095945050505050565b5f602082840312156106dc575f5ffd5b5035919050565b5f5f604083850312156106f4575f5ffd5b6106fd83610646565b946020939093013593505050565b6020808252818101527f4f776e61626c653a2063616c6c6572206973206e6f7420746865206f776e6572604082015260600190565b8181038181111561075f57634e487b7160e01b5f52601160045260245ffd5b92915050565b634e487b7160e01b5f52603260045260245ffd5b634e487b7160e01b5f52603160045260245ffdfea164736f6c634300081b000a8be0079c531659141344cd1fd0a4f28419497f9722a3daafe3b4186f6b6457e0","linkReferences":{}},"methodIdentifiers":{"getAddressesProviderAddressById(uint256)":"57dc0566","getAddressesProviderIdByAddress(address)":"d0267be7","getAddressesProvidersList()":"365ccbbf","owner()":"8da5cb5b","registerAddressesProvider(address,uint256)":"d258191e","renounceOwnership()":"715018a6","transferOwnership(address)":"f2fde38b","unregisterAddressesProvider(address)":"0de26707"},"id":224}