{"abi":[{"type":"constructor","inputs":[{"name":"admin","type":"address","internalType":"address"}],"stateMutability":"nonpayable"},{"type":"fallback","stateMutability":"payable"},{"type":"receive","stateMutability":"payable"},{"type":"function","name":"admin","inputs":[],"outputs":[{"name":"","type":"address","internalType":"address"}],"stateMutability":"nonpayable"},{"type":"function","name":"implementation","inputs":[],"outputs":[{"name":"","type":"address","internalType":"address"}],"stateMutability":"nonpayable"},{"type":"function","name":"initialize","inputs":[{"name":"_logic","type":"address","internalType":"address"},{"name":"_data","type":"bytes","internalType":"bytes"}],"outputs":[],"stateMutability":"payable"},{"type":"function","name":"upgradeTo","inputs":[{"name":"newImplementation","type":"address","internalType":"address"}],"outputs":[],"stateMutability":"nonpayable"},{"type":"function","name":"upgradeToAndCall","inputs":[{"name":"newImplementation","type":"address","internalType":"address"},{"name":"data","type":"bytes","internalType":"bytes"}],"outputs":[],"stateMutability":"payable"},{"type":"event","name":"Upgraded","inputs":[{"name":"implementation","type":"address","indexed":true,"internalType":"address"}],"anonymous":false}],"bytecode":{"object":"0x60a060405234801561000f575f5ffd5b506040516107ee3803806107ee83398101604081905261002e9161003f565b6001600160a01b031660805261006c565b5f6020828403121561004f575f5ffd5b81516001600160a01b0381168114610065575f5ffd5b9392505050565b6080516107476100a75f395f818161011e01528181610162015281816102140152818161034801528181610371015261048c01526107475ff3fe60806040526004361061004d575f3560e01c80633659cfe6146100645780634f1ef286146100835780635c60da1b14610096578063d1f57894146100c6578063f851a440146100d95761005c565b3661005c5761005a6100ed565b005b61005a6100ed565b34801561006f575f5ffd5b5061005a61007e366004610530565b610114565b61005a610091366004610550565b610158565b3480156100a1575f5ffd5b506100aa610209565b6040516001600160a01b03909116815260200160405180910390f35b61005a6100d43660046105e2565b610258565b3480156100e4575f5ffd5b506100aa61033d565b6100f5610393565b61011261010d5f51602061071b5f395f51905f525490565b61039b565b565b6001600160a01b037f00000000000000000000000000000000000000000000000000000000000000001633036101505761014d816103b9565b50565b61014d6100ed565b6001600160a01b037f00000000000000000000000000000000000000000000000000000000000000001633036101fc57610191836103b9565b5f836001600160a01b031683836040516101ac9291906106a6565b5f60405180830381855af49150503d805f81146101e4576040519150601f19603f3d011682016040523d82523d5f602084013e6101e9565b606091505b50509050806101f6575f5ffd5b50505050565b6102046100ed565b505050565b5f6001600160a01b037f000000000000000000000000000000000000000000000000000000000000000016330361024d57505f51602061071b5f395f51905f525490565b6102556100ed565b90565b5f61026e5f51602061071b5f395f51905f525490565b6001600160a01b031614610280575f5ffd5b6102ab60017f360894a13ba1a3210667c828492db98dca3e2076cc3735a920a3ca505d382bbd6106b5565b5f51602061071b5f395f51905f52146102c6576102c66106da565b6102cf826103f8565b805115610339575f826001600160a01b0316826040516102ef91906106ee565b5f60405180830381855af49150503d805f8114610327576040519150601f19603f3d011682016040523d82523d5f602084013e61032c565b606091505b5050905080610204575f5ffd5b5050565b5f6001600160a01b037f000000000000000000000000000000000000000000000000000000000000000016330361024d57507f000000000000000000000000000000000000000000000000000000000000000090565b610112610482565b365f5f375f5f365f845af43d5f5f3e8080156103b5573d5ff35b3d5ffd5b6103c2816103f8565b6040516001600160a01b038216907fbc7cd75a20ee27fd9adebab32041f755214dbc6bffa90cc0225b39da2e5c2d3b905f90a250565b803b6104715760405162461bcd60e51b815260206004820152603b60248201527f43616e6e6f742073657420612070726f787920696d706c656d656e746174696f60448201527f6e20746f2061206e6f6e2d636f6e74726163742061646472657373000000000060648201526084015b60405180910390fd5b5f51602061071b5f395f51905f5255565b6001600160a01b037f00000000000000000000000000000000000000000000000000000000000000001633036101125760405162461bcd60e51b815260206004820152603260248201527f43616e6e6f742063616c6c2066616c6c6261636b2066756e6374696f6e20667260448201527137b6903a343290383937bc3c9030b236b4b760711b6064820152608401610468565b80356001600160a01b038116811461052b575f5ffd5b919050565b5f60208284031215610540575f5ffd5b61054982610515565b9392505050565b5f5f5f60408486031215610562575f5ffd5b61056b84610515565b9250602084013567ffffffffffffffff811115610586575f5ffd5b8401601f81018613610596575f5ffd5b803567ffffffffffffffff8111156105ac575f5ffd5b8660208284010111156105bd575f5ffd5b939660209190910195509293505050565b634e487b7160e01b5f52604160045260245ffd5b5f5f604083850312156105f3575f5ffd5b6105fc83610515565b9150602083013567ffffffffffffffff811115610617575f5ffd5b8301601f81018513610627575f5ffd5b803567ffffffffffffffff811115610641576106416105ce565b604051601f8201601f19908116603f0116810167ffffffffffffffff81118282101715610670576106706105ce565b604052818152828201602001871015610687575f5ffd5b816020840160208301375f602083830101528093505050509250929050565b818382375f9101908152919050565b818103818111156106d457634e487b7160e01b5f52601160045260245ffd5b92915050565b634e487b7160e01b5f52600160045260245ffd5b5f82515f5b8181101561070d57602081860181015185830152016106f3565b505f92019182525091905056fe360894a13ba1a3210667c828492db98dca3e2076cc3735a920a3ca505d382bbca164736f6c634300081b000a","linkReferences":{}},"methodIdentifiers":{"admin()":"f851a440","implementation()":"5c60da1b","initialize(address,bytes)":"d1f57894","upgradeTo(address)":"3659cfe6","upgradeToAndCall(address,bytes)":"4f1ef286"},"id":185}