{"abi":[{"type":"constructor","inputs":[{"name":"incentivesController","type":"address","internalType":"address"},{"name":"rewardsAdmin","type":"address","internalType":"address"},{"name":"rewardsVault","type":"address","internalType":"address"}],"stateMutability":"nonpayable"},{"type":"function","name":"emergencyWithdrawal","inputs":[{"name":"token","type":"address","internalType":"address"},{"name":"to","type":"address","internalType":"address"},{"name":"amount","type":"uint256","internalType":"uint256"}],"outputs":[],"stateMutability":"nonpayable"},{"type":"function","name":"getIncentivesController","inputs":[],"outputs":[{"name":"","type":"address","internalType":"address"}],"stateMutability":"view"},{"type":"function","name":"getRewardsAdmin","inputs":[],"outputs":[{"name":"","type":"address","internalType":"address"}],"stateMutability":"view"},{"type":"function","name":"getRewardsVault","inputs":[],"outputs":[{"name":"","type":"address","internalType":"address"}],"stateMutability":"view"},{"type":"function","name":"performTransfer","inputs":[{"name":"to","type":"address","internalType":"address"},{"name":"reward","type":"address","internalType":"address"},{"name":"amount","type":"uint256","internalType":"uint256"}],"outputs":[{"name":"","type":"bool","internalType":"bool"}],"stateMutability":"nonpayable"},{"type":"event","name":"EmergencyWithdrawal","inputs":[{"name":"caller","type":"address","indexed":true,"internalType":"address"},{"name":"token","type":"address","indexed":true,"internalType":"address"},{"name":"to","type":"address","indexed":true,"internalType":"address"},{"name":"amount","type":"uint256","indexed":false,"internalType":"uint256"}],"anonymous":false},{"type":"error","name":"CallerNotIncentivesController","inputs":[]},{"type":"error","name":"OnlyRewardsAdmin","inputs":[]}],"bytecode":{"object":"0x60e060405234801561000f575f5ffd5b5060405161057638038061057683398101604081905261002e91610066565b6001600160a01b0392831660805290821660a0521660c0526100a6565b80516001600160a01b0381168114610061575f5ffd5b919050565b5f5f5f60608486031215610078575f5ffd5b6100818461004b565b925061008f6020850161004b565b915061009d6040850161004b565b90509250925092565b60805160a05160c0516104946100e25f395f818160f8015261017501525f818160d201526101b001525f81816083015261011f01526104945ff3fe608060405234801561000f575f5ffd5b5060043610610055575f3560e01c806316beb9821461005957806375d26413146100815780638d8e5da7146100bb578063c6255443146100d0578063e23ddec5146100f6575b5f5ffd5b61006c61006736600461044e565b61011c565b60405190151581526020015b60405180910390f35b7f00000000000000000000000000000000000000000000000000000000000000005b6040516001600160a01b039091168152602001610078565b6100ce6100c936600461044e565b6101a5565b005b7f00000000000000000000000000000000000000000000000000000000000000006100a3565b7f00000000000000000000000000000000000000000000000000000000000000006100a3565b5f7f00000000000000000000000000000000000000000000000000000000000000006001600160a01b03163314610166576040516302cc45a360e21b815260040160405180910390fd5b61019b6001600160a01b0384167f0000000000000000000000000000000000000000000000000000000000000000868561025e565b5060019392505050565b336001600160a01b037f000000000000000000000000000000000000000000000000000000000000000016146101ee57604051633049820160e11b815260040160405180910390fd5b6102026001600160a01b0384168383610302565b816001600160a01b0316836001600160a01b0316336001600160a01b03167f7dc4ea712e6400e67a5abca1a983e5c420c386c19936dc120cd860b50b8e25798460405161025191815260200190565b60405180910390a4505050565b6040516323b872dd60e01b8082526001600160a01b0385811660048401528416602483015260448201839052905f80606483828a5af16102a0573d5f5f3e3d5ffd5b506102aa85610390565b6102fb5760405162461bcd60e51b815260206004820152601960248201527f475076323a206661696c6564207472616e7366657246726f6d0000000000000060448201526064015b60405180910390fd5b5050505050565b60405163a9059cbb60e01b8082526001600160a01b038416600483015260248201839052905f8060448382895af161033c573d5f5f3e3d5ffd5b5061034684610390565b61038a5760405162461bcd60e51b815260206004820152601560248201527423a83b191d103330b4b632b2103a3930b739b332b960591b60448201526064016102f2565b50505050565b5f6103b2565b62461bcd60e51b5f52602060045280602452508060445260645ffd5b3d80156103f15760208114610422576103ec7f475076323a206d616c666f726d6564207472616e7366657220726573756c7400601f610396565b61042d565b823b610419576104197311d41d8c8e881b9bdd08184818dbdb9d1c9858dd60621b6014610396565b6001915061042d565b3d5f5f3e5f51151591505b50919050565b80356001600160a01b0381168114610449575f5ffd5b919050565b5f5f5f60608486031215610460575f5ffd5b61046984610433565b925061047760208501610433565b915060408401359050925092509256fea164736f6c634300081b000a","linkReferences":{}},"methodIdentifiers":{"emergencyWithdrawal(address,address,uint256)":"8d8e5da7","getIncentivesController()":"75d26413","getRewardsAdmin()":"c6255443","getRewardsVault()":"e23ddec5","performTransfer(address,address,uint256)":"16beb982"},"id":260}