{"abi":[{"type":"constructor","inputs":[{"name":"incentivesController","type":"address","internalType":"address"},{"name":"rewardsAdmin","type":"address","internalType":"address"},{"name":"stakeToken","type":"address","internalType":"contract IStakedToken"}],"stateMutability":"nonpayable"},{"type":"function","name":"dropApproval","inputs":[],"outputs":[],"stateMutability":"nonpayable"},{"type":"function","name":"emergencyWithdrawal","inputs":[{"name":"token","type":"address","internalType":"address"},{"name":"to","type":"address","internalType":"address"},{"name":"amount","type":"uint256","internalType":"uint256"}],"outputs":[],"stateMutability":"nonpayable"},{"type":"function","name":"getIncentivesController","inputs":[],"outputs":[{"name":"","type":"address","internalType":"address"}],"stateMutability":"view"},{"type":"function","name":"getRewardsAdmin","inputs":[],"outputs":[{"name":"","type":"address","internalType":"address"}],"stateMutability":"view"},{"type":"function","name":"getStakeContract","inputs":[],"outputs":[{"name":"","type":"address","internalType":"address"}],"stateMutability":"view"},{"type":"function","name":"getUnderlyingToken","inputs":[],"outputs":[{"name":"","type":"address","internalType":"address"}],"stateMutability":"view"},{"type":"function","name":"performTransfer","inputs":[{"name":"to","type":"address","internalType":"address"},{"name":"reward","type":"address","internalType":"address"},{"name":"amount","type":"uint256","internalType":"uint256"}],"outputs":[{"name":"","type":"bool","internalType":"bool"}],"stateMutability":"nonpayable"},{"type":"function","name":"renewApproval","inputs":[],"outputs":[],"stateMutability":"nonpayable"},{"type":"event","name":"EmergencyWithdrawal","inputs":[{"name":"caller","type":"address","indexed":true,"internalType":"address"},{"name":"token","type":"address","indexed":true,"internalType":"address"},{"name":"to","type":"address","indexed":true,"internalType":"address"},{"name":"amount","type":"uint256","indexed":false,"internalType":"uint256"}],"anonymous":false},{"type":"error","name":"CallerNotIncentivesController","inputs":[]},{"type":"error","name":"OnlyRewardsAdmin","inputs":[]}],"bytecode":{"object":"0x610100604052348015610010575f5ffd5b50604051610a7a380380610a7a83398101604081905261002f916101b5565b6001600160a01b0380841660805280831660a052811660c08190526040805163312f6b8360e01b8152905163312f6b83916004808201926020929091908290030181865afa158015610083573d5f5f3e3d5ffd5b505050506040513d601f19601f820116820180604052508101906100a791906101ff565b6001600160a01b0390811660e081905260c05160405163095ea7b360e01b8152921660048301525f60248301529063095ea7b3906044016020604051808303815f875af11580156100fa573d5f5f3e3d5ffd5b505050506040513d601f19601f8201168201806040525081019061011e9190610221565b5060e05160c05160405163095ea7b360e01b81526001600160a01b0391821660048201525f19602482015291169063095ea7b3906044016020604051808303815f875af1158015610171573d5f5f3e3d5ffd5b505050506040513d601f19601f820116820180604052508101906101959190610221565b50505050610240565b6001600160a01b03811681146101b2575f5ffd5b50565b5f5f5f606084860312156101c7575f5ffd5b83516101d28161019e565b60208501519093506101e38161019e565b60408501519092506101f48161019e565b809150509250925092565b5f6020828403121561020f575f5ffd5b815161021a8161019e565b9392505050565b5f60208284031215610231575f5ffd5b8151801515811461021a575f5ffd5b60805160a05160c05160e0516107b46102c65f395f818161015e015281816103670152818161051c01526105cd01525f8181610138015281816101ce0152818161027801528181610339015281816104ee015261059e01525f8181610112015281816102e4015281816103e0015261049901525f818160bd015261018501526107b45ff3fe608060405234801561000f575f5ffd5b5060043610610085575f3560e01c8063a340625111610058578063a340625114610108578063c625544314610110578063dfd29d9e14610136578063ee719bc81461015c575f5ffd5b806316beb982146100895780633a342acc146100b157806375d26413146100bb5780638d8e5da7146100f5575b5f5ffd5b61009c610097366004610748565b610182565b60405190151581526020015b60405180910390f35b6100b96102d9565b005b7f00000000000000000000000000000000000000000000000000000000000000005b6040516001600160a01b0390911681526020016100a8565b6100b9610103366004610748565b6103d5565b6100b961048e565b7f00000000000000000000000000000000000000000000000000000000000000006100dd565b7f00000000000000000000000000000000000000000000000000000000000000006100dd565b7f00000000000000000000000000000000000000000000000000000000000000006100dd565b5f7f00000000000000000000000000000000000000000000000000000000000000006001600160a01b031633146101cc576040516302cc45a360e21b815260040160405180910390fd5b7f00000000000000000000000000000000000000000000000000000000000000006001600160a01b0316836001600160a01b0316146102525760405162461bcd60e51b815260206004820152601f60248201527f5245574152445f544f4b454e5f4e4f545f5354414b455f434f4e54524143540060448201526064015b60405180910390fd5b6040516356e4bb9760e11b81526001600160a01b038581166004830152602482018490527f0000000000000000000000000000000000000000000000000000000000000000169063adc9772e906044015f604051808303815f87803b1580156102b9575f5ffd5b505af11580156102cb573d5f5f3e3d5ffd5b506001979650505050505050565b336001600160a01b037f0000000000000000000000000000000000000000000000000000000000000000161461032257604051633049820160e11b815260040160405180910390fd5b60405163095ea7b360e01b81526001600160a01b037f0000000000000000000000000000000000000000000000000000000000000000811660048301525f60248301527f0000000000000000000000000000000000000000000000000000000000000000169063095ea7b3906044015b6020604051808303815f875af11580156103ae573d5f5f3e3d5ffd5b505050506040513d601f19601f820116820180604052508101906103d29190610781565b50565b336001600160a01b037f0000000000000000000000000000000000000000000000000000000000000000161461041e57604051633049820160e11b815260040160405180910390fd5b6104326001600160a01b03841683836105fc565b816001600160a01b0316836001600160a01b0316336001600160a01b03167f7dc4ea712e6400e67a5abca1a983e5c420c386c19936dc120cd860b50b8e25798460405161048191815260200190565b60405180910390a4505050565b336001600160a01b037f000000000000000000000000000000000000000000000000000000000000000016146104d757604051633049820160e11b815260040160405180910390fd5b60405163095ea7b360e01b81526001600160a01b037f0000000000000000000000000000000000000000000000000000000000000000811660048301525f60248301527f0000000000000000000000000000000000000000000000000000000000000000169063095ea7b3906044016020604051808303815f875af1158015610562573d5f5f3e3d5ffd5b505050506040513d601f19601f820116820180604052508101906105869190610781565b5060405163095ea7b360e01b81526001600160a01b037f0000000000000000000000000000000000000000000000000000000000000000811660048301525f1960248301527f0000000000000000000000000000000000000000000000000000000000000000169063095ea7b390604401610392565b60405163a9059cbb60e01b8082526001600160a01b038416600483015260248201839052905f8060448382895af1610636573d5f5f3e3d5ffd5b506106408461068a565b6106845760405162461bcd60e51b815260206004820152601560248201527423a83b191d103330b4b632b2103a3930b739b332b960591b6044820152606401610249565b50505050565b5f6106ac565b62461bcd60e51b5f52602060045280602452508060445260645ffd5b3d80156106eb576020811461071c576106e67f475076323a206d616c666f726d6564207472616e7366657220726573756c7400601f610690565b610727565b823b610713576107137311d41d8c8e881b9bdd08184818dbdb9d1c9858dd60621b6014610690565b60019150610727565b3d5f5f3e5f51151591505b50919050565b80356001600160a01b0381168114610743575f5ffd5b919050565b5f5f5f6060848603121561075a575f5ffd5b6107638461072d565b92506107716020850161072d565b9150604084013590509250925092565b5f60208284031215610791575f5ffd5b815180151581146107a0575f5ffd5b939250505056fea164736f6c634300081b000a","linkReferences":{}},"methodIdentifiers":{"dropApproval()":"3a342acc","emergencyWithdrawal(address,address,uint256)":"8d8e5da7","getIncentivesController()":"75d26413","getRewardsAdmin()":"c6255443","getStakeContract()":"dfd29d9e","getUnderlyingToken()":"ee719bc8","performTransfer(address,address,uint256)":"16beb982","renewApproval()":"a3406251"},"id":261}