{"abi":[{"type":"constructor","inputs":[{"name":"provider","type":"address","internalType":"address"}],"stateMutability":"nonpayable"},{"type":"function","name":"ADDRESSES_PROVIDER","inputs":[],"outputs":[{"name":"","type":"address","internalType":"contract IPoolAddressesProvider"}],"stateMutability":"view"},{"type":"function","name":"MAX_BORROW_RATE","inputs":[],"outputs":[{"name":"","type":"uint256","internalType":"uint256"}],"stateMutability":"view"},{"type":"function","name":"MAX_OPTIMAL_POINT","inputs":[],"outputs":[{"name":"","type":"uint256","internalType":"uint256"}],"stateMutability":"view"},{"type":"function","name":"MIN_OPTIMAL_POINT","inputs":[],"outputs":[{"name":"","type":"uint256","internalType":"uint256"}],"stateMutability":"view"},{"type":"function","name":"calculateInterestRates","inputs":[{"name":"params","type":"tuple","internalType":"struct DataTypes.CalculateInterestRatesParams","components":[{"name":"unbacked","type":"uint256","internalType":"uint256"},{"name":"liquidityAdded","type":"uint256","internalType":"uint256"},{"name":"liquidityTaken","type":"uint256","internalType":"uint256"},{"name":"totalDebt","type":"uint256","internalType":"uint256"},{"name":"reserveFactor","type":"uint256","internalType":"uint256"},{"name":"reserve","type":"address","internalType":"address"},{"name":"usingVirtualBalance","type":"bool","internalType":"bool"},{"name":"virtualUnderlyingBalance","type":"uint256","internalType":"uint256"}]}],"outputs":[{"name":"","type":"uint256","internalType":"uint256"},{"name":"","type":"uint256","internalType":"uint256"}],"stateMutability":"view"},{"type":"function","name":"getBaseVariableBorrowRate","inputs":[{"name":"reserve","type":"address","internalType":"address"}],"outputs":[{"name":"","type":"uint256","internalType":"uint256"}],"stateMutability":"view"},{"type":"function","name":"getInterestRateData","inputs":[{"name":"reserve","type":"address","internalType":"address"}],"outputs":[{"name":"","type":"tuple","internalType":"struct IDefaultInterestRateStrategyV2.InterestRateDataRay","components":[{"name":"optimalUsageRatio","type":"uint256","internalType":"uint256"},{"name":"baseVariableBorrowRate","type":"uint256","internalType":"uint256"},{"name":"variableRateSlope1","type":"uint256","internalType":"uint256"},{"name":"variableRateSlope2","type":"uint256","internalType":"uint256"}]}],"stateMutability":"view"},{"type":"function","name":"getInterestRateDataBps","inputs":[{"name":"reserve","type":"address","internalType":"address"}],"outputs":[{"name":"","type":"tuple","internalType":"struct IDefaultInterestRateStrategyV2.InterestRateData","components":[{"name":"optimalUsageRatio","type":"uint16","internalType":"uint16"},{"name":"baseVariableBorrowRate","type":"uint32","internalType":"uint32"},{"name":"variableRateSlope1","type":"uint32","internalType":"uint32"},{"name":"variableRateSlope2","type":"uint32","internalType":"uint32"}]}],"stateMutability":"view"},{"type":"function","name":"getMaxVariableBorrowRate","inputs":[{"name":"reserve","type":"address","internalType":"address"}],"outputs":[{"name":"","type":"uint256","internalType":"uint256"}],"stateMutability":"view"},{"type":"function","name":"getOptimalUsageRatio","inputs":[{"name":"reserve","type":"address","internalType":"address"}],"outputs":[{"name":"","type":"uint256","internalType":"uint256"}],"stateMutability":"view"},{"type":"function","name":"getVariableRateSlope1","inputs":[{"name":"reserve","type":"address","internalType":"address"}],"outputs":[{"name":"","type":"uint256","internalType":"uint256"}],"stateMutability":"view"},{"type":"function","name":"getVariableRateSlope2","inputs":[{"name":"reserve","type":"address","internalType":"address"}],"outputs":[{"name":"","type":"uint256","internalType":"uint256"}],"stateMutability":"view"},{"type":"function","name":"setInterestRateParams","inputs":[{"name":"reserve","type":"address","internalType":"address"},{"name":"rateData","type":"bytes","internalType":"bytes"}],"outputs":[],"stateMutability":"nonpayable"},{"type":"function","name":"setInterestRateParams","inputs":[{"name":"reserve","type":"address","internalType":"address"},{"name":"rateData","type":"tuple","internalType":"struct IDefaultInterestRateStrategyV2.InterestRateData","components":[{"name":"optimalUsageRatio","type":"uint16","internalType":"uint16"},{"name":"baseVariableBorrowRate","type":"uint32","internalType":"uint32"},{"name":"variableRateSlope1","type":"uint32","internalType":"uint32"},{"name":"variableRateSlope2","type":"uint32","internalType":"uint32"}]}],"outputs":[],"stateMutability":"nonpayable"},{"type":"event","name":"RateDataUpdate","inputs":[{"name":"reserve","type":"address","indexed":true,"internalType":"address"},{"name":"optimalUsageRatio","type":"uint256","indexed":false,"internalType":"uint256"},{"name":"baseVariableBorrowRate","type":"uint256","indexed":false,"internalType":"uint256"},{"name":"variableRateSlope1","type":"uint256","indexed":false,"internalType":"uint256"},{"name":"variableRateSlope2","type":"uint256","indexed":false,"internalType":"uint256"}],"anonymous":false},{"type":"error","name":"CallerNotPoolConfigurator","inputs":[]},{"type":"error","name":"InvalidAddressesProvider","inputs":[]},{"type":"error","name":"InvalidMaxRate","inputs":[]},{"type":"error","name":"InvalidOptimalUsageRatio","inputs":[]},{"type":"error","name":"Slope2MustBeGteSlope1","inputs":[]},{"type":"error","name":"ZeroAddressNotValid","inputs":[]}],"bytecode":{"object":"0x60a060405234801561000f575f5ffd5b50604051610eaf380380610eaf83398101604081905261002e91610066565b6001600160a01b03811661005557604051633b175b8760e01b815260040160405180910390fd5b6001600160a01b0316608052610093565b5f60208284031215610076575f5ffd5b81516001600160a01b038116811461008c575f5ffd5b9392505050565b608051610df76100b85f395f818160ee0152818161047201526107d40152610df75ff3fe608060405234801561000f575f5ffd5b50600436106100e5575f3560e01c8063a8d9e56f11610088578063c79ce42e11610063578063c79ce42e1461021d578063cca22ea1146102fa578063f7e0fe671461030d578063fd81bb1214610315575f5ffd5b8063a8d9e56f146101cd578063aa33f063146101e2578063b90db31b146101f5575f5ffd5b80636a00178e116100c35780636a00178e146101945780637a0c5ebf146101a75780637a24bd7e146101b15780638f4b0d5d146101ba575f5ffd5b80630542975c146100e9578063131e889c1461012d5780635b651bae14610173575b5f5ffd5b6101107f000000000000000000000000000000000000000000000000000000000000000081565b6040516001600160a01b0390911681526020015b60405180910390f35b61014061013b366004610bbf565b610328565b60405161012491908151815260208083015190820152604080830151908201526060918201519181019190915260800190565b610186610181366004610bbf565b6103ba565b604051908152602001610124565b6101866101a2366004610bbf565b6103e8565b610186620186a081565b6101866126ac81565b6101866101c8366004610bbf565b610442565b6101e06101db366004610be1565b610470565b005b6101866101f0366004610bbf565b61053b565b610208610203366004610c61565b610560565b60408051928352602083019190915201610124565b6102ad61022b366004610bbf565b604080516080810182525f808252602082018190529181018290526060810191909152506001600160a01b03165f90815260208181526040918290208251608081018452905461ffff8116825263ffffffff620100008204811693830193909352600160301b8104831693820193909352600160501b90920416606082015290565b60405161012491905f60808201905061ffff835116825263ffffffff602084015116602083015263ffffffff604084015116604083015263ffffffff606084015116606083015292915050565b610186610308366004610bbf565b6107a5565b610186606481565b6101e0610323366004610c7b565b6107d2565b61034f60405180608001604052805f81526020015f81526020015f81526020015f81525090565b6001600160a01b0382165f90815260208181526040918290208251608081018452905461ffff8116825263ffffffff620100008204811693830193909352600160301b8104831693820193909352600160501b9092041660608201526103b49061089a565b92915050565b6001600160a01b0381165f908152602081905260408120546103b490600160301b900463ffffffff1661092c565b6001600160a01b0381165f908152602081905260408120546103b49063ffffffff600160501b820481169161042d91600160301b820481169162010000900416610ccd565b6104379190610ccd565b63ffffffff1661092c565b6001600160a01b0381165f908152602081905260408120546103b490600160501b900463ffffffff1661092c565b7f00000000000000000000000000000000000000000000000000000000000000006001600160a01b031663631adfca6040518163ffffffff1660e01b8152600401602060405180830381865afa1580156104cc573d5f5f3e3d5ffd5b505050506040513d601f19601f820116820180604052508101906104f09190610ce9565b6001600160a01b0316336001600160a01b031614610521576040516344ff885f60e01b815260040160405180910390fd5b6105368361053183850185610d1c565b610941565b505050565b6001600160a01b0381165f908152602081905260408120546103b49061ffff1661092c565b5f80806105dd818061057860c0880160a08901610bbf565b6001600160a01b0316815260208082019290925260409081015f208151608081018352905461ffff8116825263ffffffff620100008204811694830194909452600160301b8104841692820192909252600160501b909104909116606082015261089a565b90506106126040518060c001604052805f81526020015f81526020015f81526020015f81526020015f81526020015f81525090565b5f6040820152602080830151908201526060850135156106a4576040850135610643602087013560e0880135610dad565b61064d9190610dc0565b80825261065f90606087013590610dad565b60a0820181905261067590606087013590610b05565b606082015260a081015161069a9061068f90873590610dad565b606087013590610b05565b60808201526106b3565b602001515f9590945092505050565b8151606082015111156107315781515f906106f5906106de906b033b2e3c9fd0803ce8000000610dc0565b845160608501516106ef9190610dc0565b90610b05565b60608401519091506107079082610b42565b83604001516107169190610dad565b826020018181516107279190610dad565b9052506107619050565b81516060820151604084015161074c92916106ef9190610b42565b8160200181815161075d9190610dad565b9052505b61078d6107746080870135612710610dc0565b6080830151602084015161078791610b42565b90610b84565b60408201819052602090910151909590945092505050565b6001600160a01b0381165f908152602081905260408120546103b49062010000900463ffffffff1661092c565b7f00000000000000000000000000000000000000000000000000000000000000006001600160a01b031663631adfca6040518163ffffffff1660e01b8152600401602060405180830381865afa15801561082e573d5f5f3e3d5ffd5b505050506040513d601f19601f820116820180604052508101906108529190610ce9565b6001600160a01b0316336001600160a01b031614610883576040516344ff885f60e01b815260040160405180910390fd5b6108968261053136849003840184610d1c565b5050565b6108c160405180608001604052805f81526020015f81526020015f81526020015f81525090565b60405180608001604052806108dc845f015161ffff1661092c565b81526020016108f4846020015163ffffffff1661092c565b815260200161090c846040015163ffffffff1661092c565b8152602001610924846060015163ffffffff1661092c565b905292915050565b5f6103b48269152d02c7e14af6800000610dd3565b6001600160a01b03821661096857604051633bf95ba760e01b815260040160405180910390fd5b6126ac815f015161ffff161115801561098957506064815f015161ffff1610155b6109a6576040516335a8aee760e01b815260040160405180910390fd5b806060015163ffffffff16816040015163ffffffff1611156109db57604051631a6782a560e31b815260040160405180910390fd5b620186a0816060015163ffffffff16826040015163ffffffff16836020015163ffffffff16610a0a9190610dad565b610a149190610dad565b1115610a33576040516303b9a7db60e61b815260040160405180910390fd5b6001600160a01b0382165f81815260208181526040918290208451815486840151878601516060808a015161ffff90951665ffffffffffff1990941684176201000063ffffffff948516908102919091176dffffffffffffffff0000000000001916600160301b93851693840263ffffffff60501b191617600160501b9490961693840295909517909555865192835294820192909252938401929092528201527f5d123bea2036a4052274206f59d99350b9741e17da56ffae335d809b25ee09429060800160405180910390a25050565b5f81156b033b2e3c9fd0803ce800000060028404190484111715610b27575f5ffd5b506b033b2e3c9fd0803ce80000009190910260028204010490565b5f81156b019d971e4fe8401e740000001983900484111517610b62575f5ffd5b506b033b2e3c9fd0803ce800000091026b019d971e4fe8401e74000000010490565b5f81156113881983900484111517610b9a575f5ffd5b506127109102611388010490565b6001600160a01b0381168114610bbc575f5ffd5b50565b5f60208284031215610bcf575f5ffd5b8135610bda81610ba8565b9392505050565b5f5f5f60408486031215610bf3575f5ffd5b8335610bfe81610ba8565b9250602084013567ffffffffffffffff811115610c19575f5ffd5b8401601f81018613610c29575f5ffd5b803567ffffffffffffffff811115610c3f575f5ffd5b866020828401011115610c50575f5ffd5b939660209190910195509293505050565b5f610100828403128015610c73575f5ffd5b509092915050565b5f5f82840360a0811215610c8d575f5ffd5b8335610c9881610ba8565b92506080601f1982011215610cab575f5ffd5b506020830190509250929050565b634e487b7160e01b5f52601160045260245ffd5b63ffffffff81811683821601908111156103b4576103b4610cb9565b5f60208284031215610cf9575f5ffd5b8151610bda81610ba8565b803563ffffffff81168114610d17575f5ffd5b919050565b5f6080828403128015610d2d575f5ffd5b506040516080810167ffffffffffffffff81118282101715610d5d57634e487b7160e01b5f52604160045260245ffd5b604052823561ffff81168114610d71575f5ffd5b8152610d7f60208401610d04565b6020820152610d9060408401610d04565b6040820152610da160608401610d04565b60608201529392505050565b808201808211156103b4576103b4610cb9565b818103818111156103b4576103b4610cb9565b80820281158282048414176103b4576103b4610cb956fea164736f6c634300081b000a","linkReferences":{}},"methodIdentifiers":{"ADDRESSES_PROVIDER()":"0542975c","MAX_BORROW_RATE()":"7a0c5ebf","MAX_OPTIMAL_POINT()":"7a24bd7e","MIN_OPTIMAL_POINT()":"f7e0fe67","calculateInterestRates((uint256,uint256,uint256,uint256,uint256,address,bool,uint256))":"b90db31b","getBaseVariableBorrowRate(address)":"cca22ea1","getInterestRateData(address)":"131e889c","getInterestRateDataBps(address)":"c79ce42e","getMaxVariableBorrowRate(address)":"6a00178e","getOptimalUsageRatio(address)":"aa33f063","getVariableRateSlope1(address)":"5b651bae","getVariableRateSlope2(address)":"8f4b0d5d","setInterestRateParams(address,(uint16,uint32,uint32,uint32))":"fd81bb12","setInterestRateParams(address,bytes)":"a8d9e56f"},"id":181}