{"abi":[{"type":"constructor","inputs":[{"name":"provider","type":"address","internalType":"contract IPoolAddressesProvider"}],"stateMutability":"nonpayable"},{"type":"function","name":"ADDRESSES_PROVIDER","inputs":[],"outputs":[{"name":"","type":"address","internalType":"contract IPoolAddressesProvider"}],"stateMutability":"view"},{"type":"function","name":"POOL","inputs":[],"outputs":[{"name":"","type":"address","internalType":"contract IPool"}],"stateMutability":"view"},{"type":"function","name":"executeOperation","inputs":[{"name":"asset","type":"address","internalType":"address"},{"name":"amount","type":"uint256","internalType":"uint256"},{"name":"premium","type":"uint256","internalType":"uint256"},{"name":"","type":"address","internalType":"address"},{"name":"","type":"bytes","internalType":"bytes"}],"outputs":[{"name":"","type":"bool","internalType":"bool"}],"stateMutability":"nonpayable"}],"bytecode":{"object":"0x60c060405234801561000f575f5ffd5b5060405161040d38038061040d83398101604081905261002e916100d4565b80806001600160a01b03166080816001600160a01b031681525050806001600160a01b031663026b1d5f6040518163ffffffff1660e01b8152600401602060405180830381865afa158015610085573d5f5f3e3d5ffd5b505050506040513d601f19601f820116820180604052508101906100a991906100d4565b6001600160a01b031660a052506100f69050565b6001600160a01b03811681146100d1575f5ffd5b50565b5f602082840312156100e4575f5ffd5b81516100ef816100bd565b9392505050565b60805160a0516102f261011b5f395f818160af015260e301525f604801526102f25ff3fe608060405234801561000f575f5ffd5b506004361061003f575f3560e01c80630542975c146100435780631b11d0ff146100875780637535d246146100aa575b5f5ffd5b61006a7f000000000000000000000000000000000000000000000000000000000000000081565b6040516001600160a01b0390911681526020015b60405180910390f35b61009a6100953660046101b4565b6100d1565b604051901515815260200161007e565b61006a7f000000000000000000000000000000000000000000000000000000000000000081565b5f6001600160a01b03861663095ea7b37f000000000000000000000000000000000000000000000000000000000000000061010c878961029a565b6040516001600160e01b031960e085901b1681526001600160a01b03909216600483015260248201526044016020604051808303815f875af1158015610154573d5f5f3e3d5ffd5b505050506040513d601f19601f8201168201806040525081019061017891906102bf565b5060019695505050505050565b80356001600160a01b038116811461019b575f5ffd5b919050565b634e487b7160e01b5f52604160045260245ffd5b5f5f5f5f5f60a086880312156101c8575f5ffd5b6101d186610185565b945060208601359350604086013592506101ed60608701610185565b9150608086013567ffffffffffffffff811115610208575f5ffd5b8601601f81018813610218575f5ffd5b803567ffffffffffffffff811115610232576102326101a0565b604051601f8201601f19908116603f0116810167ffffffffffffffff81118282101715610261576102616101a0565b6040528181528282016020018a1015610278575f5ffd5b816020840160208301375f602083830101528093505050509295509295909350565b808201808211156102b957634e487b7160e01b5f52601160045260245ffd5b92915050565b5f602082840312156102cf575f5ffd5b815180151581146102de575f5ffd5b939250505056fea164736f6c634300081b000a","linkReferences":{}},"methodIdentifiers":{"ADDRESSES_PROVIDER()":"0542975c","POOL()":"7535d246","executeOperation(address,uint256,uint256,address,bytes)":"1b11d0ff"},"id":184}