{"abi":[{"type":"constructor","inputs":[{"name":"provider","type":"address","internalType":"contract IPoolAddressesProvider"}],"stateMutability":"nonpayable"},{"type":"function","name":"ADDRESSES_PROVIDER","inputs":[],"outputs":[{"name":"","type":"address","internalType":"contract IPoolAddressesProvider"}],"stateMutability":"view"},{"type":"function","name":"POOL","inputs":[],"outputs":[{"name":"","type":"address","internalType":"contract IPool"}],"stateMutability":"view"},{"type":"function","name":"executeOperation","inputs":[{"name":"asset","type":"address","internalType":"address"},{"name":"amount","type":"uint256","internalType":"uint256"},{"name":"premium","type":"uint256","internalType":"uint256"},{"name":"","type":"address","internalType":"address"},{"name":"","type":"bytes","internalType":"bytes"}],"outputs":[{"name":"","type":"bool","internalType":"bool"}],"stateMutability":"nonpayable"},{"type":"function","name":"executeOperation","inputs":[{"name":"assets","type":"address[]","internalType":"address[]"},{"name":"amounts","type":"uint256[]","internalType":"uint256[]"},{"name":"premiums","type":"uint256[]","internalType":"uint256[]"},{"name":"","type":"address","internalType":"address"},{"name":"","type":"bytes","internalType":"bytes"}],"outputs":[{"name":"","type":"bool","internalType":"bool"}],"stateMutability":"nonpayable"}],"bytecode":{"object":"0x60c060405234801561000f575f5ffd5b5060405161096038038061096083398101604081905261002e916100d4565b80806001600160a01b03166080816001600160a01b031681525050806001600160a01b031663026b1d5f6040518163ffffffff1660e01b8152600401602060405180830381865afa158015610085573d5f5f3e3d5ffd5b505050506040513d601f19601f820116820180604052508101906100a991906100d4565b6001600160a01b031660a052506100f69050565b6001600160a01b03811681146100d1575f5ffd5b50565b5f602082840312156100e4575f5ffd5b81516100ef816100bd565b9392505050565b60805160a05161084b6101155f395f60ba01525f6053015261084b5ff3fe608060405234801561000f575f5ffd5b506004361061004a575f3560e01c80630542975c1461004e5780631b11d0ff146100925780637535d246146100b5578063920f5c84146100dc575b5f5ffd5b6100757f000000000000000000000000000000000000000000000000000000000000000081565b6040516001600160a01b0390911681526020015b60405180910390f35b6100a56100a0366004610542565b6100ef565b6040519015158152602001610089565b6100757f000000000000000000000000000000000000000000000000000000000000000081565b6100a56100ea366004610687565b61028e565b5f6001600160a01b03871663095ea7b3338761010c8a600261078f565b61011691906107ac565b6040516001600160e01b031960e085901b1681526001600160a01b03909216600483015260248201526044016020604051808303815f875af115801561015e573d5f5f3e3d5ffd5b505050506040513d601f19601f8201168201806040525081019061018291906107bf565b506040516337d83fcb60e11b81526001600160a01b03881660048201525f903390636fb07f9690602401602060405180830381865afa1580156101c7573d5f5f3e3d5ffd5b505050506040513d601f19601f820116820180604052508101906101eb91906107e5565b6001600160801b031690503363a415bcad89600a61020a85600961078f565b610214919061080b565b6040516001600160e01b031960e085901b1681526001600160a01b0390921660048301526024820152600260448201525f606482015230608482015260a4015f604051808303815f87803b15801561026a575f5ffd5b505af115801561027c573d5f5f3e3d5ffd5b5060019b9a5050505050505050505050565b5f805b87518110156104d4578781815181106102ac576102ac61082a565b60200260200101516001600160a01b031663095ea7b3338884815181106102d5576102d561082a565b60200260200101518a85815181106102ef576102ef61082a565b60200260200101516002610303919061078f565b61030d91906107ac565b6040516001600160e01b031960e085901b1681526001600160a01b03909216600483015260248201526044016020604051808303815f875af1158015610355573d5f5f3e3d5ffd5b505050506040513d601f19601f8201168201806040525081019061037991906107bf565b505f336001600160a01b0316636fb07f968a848151811061039c5761039c61082a565b60200260200101516040518263ffffffff1660e01b81526004016103cf91906001600160a01b0391909116815260200190565b602060405180830381865afa1580156103ea573d5f5f3e3d5ffd5b505050506040513d601f19601f8201168201806040525081019061040e91906107e5565b6001600160801b03169050336001600160a01b031663a415bcad8a848151811061043a5761043a61082a565b6020026020010151600a846009610451919061078f565b61045b919061080b565b6040516001600160e01b031960e085901b1681526001600160a01b0390921660048301526024820152600260448201525f606482015230608482015260a4015f604051808303815f87803b1580156104b1575f5ffd5b505af11580156104c3573d5f5f3e3d5ffd5b505060019093019250610291915050565b506001979650505050505050565b80356001600160a01b03811681146104f8575f5ffd5b919050565b5f5f83601f84011261050d575f5ffd5b50813567ffffffffffffffff811115610524575f5ffd5b60208301915083602082850101111561053b575f5ffd5b9250929050565b5f5f5f5f5f5f60a08789031215610557575f5ffd5b610560876104e2565b9550602087013594506040870135935061057c606088016104e2565b9250608087013567ffffffffffffffff811115610597575f5ffd5b6105a389828a016104fd565b979a9699509497509295939492505050565b634e487b7160e01b5f52604160045260245ffd5b604051601f8201601f1916810167ffffffffffffffff811182821017156105f2576105f26105b5565b604052919050565b5f67ffffffffffffffff821115610613576106136105b5565b5060051b60200190565b5f82601f83011261062c575f5ffd5b813561063f61063a826105fa565b6105c9565b8082825260208201915060208360051b860101925085831115610660575f5ffd5b602085015b8381101561067d578035835260209283019201610665565b5095945050505050565b5f5f5f5f5f5f60a0878903121561069c575f5ffd5b863567ffffffffffffffff8111156106b2575f5ffd5b8701601f810189136106c2575f5ffd5b80356106d061063a826105fa565b8082825260208201915060208360051b85010192508b8311156106f1575f5ffd5b6020840193505b8284101561071a57610709846104e2565b8252602093840193909101906106f8565b9850505050602087013567ffffffffffffffff811115610738575f5ffd5b61074489828a0161061d565b955050604087013567ffffffffffffffff811115610760575f5ffd5b61076c89828a0161061d565b94505061057c606088016104e2565b634e487b7160e01b5f52601160045260245ffd5b80820281158282048414176107a6576107a661077b565b92915050565b808201808211156107a6576107a661077b565b5f602082840312156107cf575f5ffd5b815180151581146107de575f5ffd5b9392505050565b5f602082840312156107f5575f5ffd5b81516001600160801b03811681146107de575f5ffd5b5f8261082557634e487b7160e01b5f52601260045260245ffd5b500490565b634e487b7160e01b5f52603260045260245ffdfea164736f6c634300081b000a","linkReferences":{}},"methodIdentifiers":{"ADDRESSES_PROVIDER()":"0542975c","POOL()":"7535d246","executeOperation(address,uint256,uint256,address,bytes)":"1b11d0ff","executeOperation(address[],uint256[],uint256[],address,bytes)":"920f5c84"},"id":420}