{"abi":[{"type":"function","name":"create","inputs":[{"name":"logic","type":"address","internalType":"address"},{"name":"initialOwner","type":"address","internalType":"address"},{"name":"data","type":"bytes","internalType":"bytes"}],"outputs":[{"name":"","type":"address","internalType":"address"}],"stateMutability":"nonpayable"},{"type":"function","name":"createDeterministic","inputs":[{"name":"logic","type":"address","internalType":"address"},{"name":"initialOwner","type":"address","internalType":"address"},{"name":"data","type":"bytes","internalType":"bytes"},{"name":"salt","type":"bytes32","internalType":"bytes32"}],"outputs":[{"name":"","type":"address","internalType":"address"}],"stateMutability":"nonpayable"},{"type":"function","name":"createDeterministicProxyAdmin","inputs":[{"name":"initialOwner","type":"address","internalType":"address"},{"name":"salt","type":"bytes32","internalType":"bytes32"}],"outputs":[{"name":"","type":"address","internalType":"address"}],"stateMutability":"nonpayable"},{"type":"function","name":"createProxyAdmin","inputs":[{"name":"initialOwner","type":"address","internalType":"address"}],"outputs":[{"name":"","type":"address","internalType":"address"}],"stateMutability":"nonpayable"},{"type":"function","name":"getProxyAdmin","inputs":[{"name":"proxy","type":"address","internalType":"address"}],"outputs":[{"name":"","type":"address","internalType":"address"}],"stateMutability":"view"},{"type":"function","name":"predictCreateDeterministic","inputs":[{"name":"logic","type":"address","internalType":"address"},{"name":"initialOwner","type":"address","internalType":"address"},{"name":"data","type":"bytes","internalType":"bytes"},{"name":"salt","type":"bytes32","internalType":"bytes32"}],"outputs":[{"name":"","type":"address","internalType":"address"}],"stateMutability":"view"},{"type":"function","name":"predictCreateDeterministicProxyAdmin","inputs":[{"name":"salt","type":"bytes32","internalType":"bytes32"},{"name":"initialOwner","type":"address","internalType":"address"}],"outputs":[{"name":"","type":"address","internalType":"address"}],"stateMutability":"view"},{"type":"event","name":"ProxyAdminCreated","inputs":[{"name":"proxyAdmin","type":"address","indexed":false,"internalType":"address"},{"name":"initialOwner","type":"address","indexed":true,"internalType":"address"}],"anonymous":false},{"type":"event","name":"ProxyAdminDeterministicCreated","inputs":[{"name":"proxyAdmin","type":"address","indexed":false,"internalType":"address"},{"name":"initialOwner","type":"address","indexed":true,"internalType":"address"},{"name":"salt","type":"bytes32","indexed":true,"internalType":"bytes32"}],"anonymous":false},{"type":"event","name":"ProxyCreated","inputs":[{"name":"proxy","type":"address","indexed":false,"internalType":"address"},{"name":"logic","type":"address","indexed":true,"internalType":"address"},{"name":"initialOwner","type":"address","indexed":true,"internalType":"address"}],"anonymous":false},{"type":"event","name":"ProxyDeterministicCreated","inputs":[{"name":"proxy","type":"address","indexed":false,"internalType":"address"},{"name":"logic","type":"address","indexed":true,"internalType":"address"},{"name":"initialOwner","type":"address","indexed":true,"internalType":"address"},{"name":"salt","type":"bytes32","indexed":true,"internalType":"bytes32"}],"anonymous":false}],"bytecode":{"object":"0x6080604052348015600e575f5ffd5b50611a0b8061001c5f395ff3fe608060405234801561000f575f5ffd5b506004361061007a575f3560e01c8063aafdc6c111610058578063aafdc6c1146100d3578063bd720da5146100e6578063e5b528a9146100f9578063f3b7dead1461010c575f5ffd5b80630876c7ae1461007e57806365bb962d146100ad57806368b7bdc6146100c0575b5f5ffd5b61009161008c366004610562565b610137565b6040516001600160a01b03909116815260200160405180910390f35b6100916100bb3660046105d1565b61018e565b6100916100ce366004610635565b610227565b6100916100e13660046105d1565b6102b1565b6100916100f436600461065d565b6102fa565b6100916101073660046106ba565b61038c565b61009161011a3660046106ba565b6001600160a01b039081165f908152602081905260409020541690565b5f61018730846040518060200161014d9061052d565b601f1982820381018352601f9091011660408181526001600160a01b0388166020830152015b60405160208183030381529060405261040f565b9392505050565b5f5f82878787876040516101a19061053a565b6101ae94939291906106d3565b8190604051809103905ff59050801580156101cb573d5f5f3e3d5ffd5b5090506101d7816104aa565b6040516001600160a01b0382811682528491818916918a16907f587ecb51cbffdeacfa1cd2be2076cad8b630d9b65a63aa35225084b7d7cdc7479060200160405180910390a49695505050505050565b5f5f82846040516102379061052d565b6001600160a01b0390911681526020018190604051809103905ff5905080158015610264573d5f5f3e3d5ffd5b506040516001600160a01b03808316825291925084918616907f097067dd255480abe64ec245387b608009702fdfe274da85be0691b65c304db19060200160405180910390a39392505050565b5f6102f03083604051806020016102c79061053a565b601f1982820381018352601f909101166040819052610173908b908b908b908b906020016106d3565b9695505050505050565b5f5f8585858560405161030c9061053a565b61031994939291906106d3565b604051809103905ff080158015610332573d5f5f3e3d5ffd5b50905061033e816104aa565b6040516001600160a01b03828116825280871691908816907f5983cdcaa370320b76fe01a3a32a0430e6a13b9f47a55e806afb13b5aef95a129060200160405180910390a395945050505050565b5f5f8260405161039b9061052d565b6001600160a01b039091168152602001604051809103905ff0801580156103c4573d5f5f3e3d5ffd5b506040516001600160a01b038083168252919250908416907f1678f83de823bff594b58fe782eee37392a0120621d6d669610175c98e3020b09060200160405180910390a292915050565b5f5f60ff60f81b8686868660405160200161042b929190610748565b6040516020818303038152906040528051906020012060405160200161048894939291906001600160f81b031994909416845260609290921b6bffffffffffffffffffffffff191660018401526015830152603582015260550190565b60408051808303601f1901815291905280516020909101209695505050505050565b60408051606b60f91b602080830191909152602560fa1b6021830152606084901b6bffffffffffffffffffffffff19166022830152600160f81b603683015282516017818403018152603790920190925280519101206001600160a01b039182165f90815260208190526040902080546001600160a01b03191691909216179055565b6104d28061076583390190565b610dc880610c3783390190565b80356001600160a01b038116811461055d575f5ffd5b919050565b5f5f60408385031215610573575f5ffd5b8235915061058360208401610547565b90509250929050565b5f5f83601f84011261059c575f5ffd5b50813567ffffffffffffffff8111156105b3575f5ffd5b6020830191508360208285010111156105ca575f5ffd5b9250929050565b5f5f5f5f5f608086880312156105e5575f5ffd5b6105ee86610547565b94506105fc60208701610547565b9350604086013567ffffffffffffffff811115610617575f5ffd5b6106238882890161058c565b96999598509660600135949350505050565b5f5f60408385031215610646575f5ffd5b61064f83610547565b946020939093013593505050565b5f5f5f5f60608587031215610670575f5ffd5b61067985610547565b935061068760208601610547565b9250604085013567ffffffffffffffff8111156106a2575f5ffd5b6106ae8782880161058c565b95989497509550505050565b5f602082840312156106ca575f5ffd5b61018782610547565b6001600160a01b038581168252841660208201526060604082018190528101829052818360808301375f818301608090810191909152601f909201601f191601019392505050565b5f81515f5b8181101561073a5760208185018101518683015201610720565b505f93019283525090919050565b5f61075c610756838661071b565b8461071b565b94935050505056fe6080604052348015600e575f5ffd5b506040516104d23803806104d2833981016040819052602b9160b4565b806001600160a01b038116605857604051631e4fbdf760e01b81525f600482015260240160405180910390fd5b605f816065565b505060df565b5f80546001600160a01b038381166001600160a01b0319831681178455604051919092169283917f8be0079c531659141344cd1fd0a4f28419497f9722a3daafe3b4186f6b6457e09190a35050565b5f6020828403121560c3575f5ffd5b81516001600160a01b038116811460d8575f5ffd5b9392505050565b6103e6806100ec5f395ff3fe608060405260043610610049575f3560e01c8063715018a61461004d5780638da5cb5b146100635780639623609d1461008e578063ad3cb1cc146100a1578063f2fde38b146100de575b5f5ffd5b348015610058575f5ffd5b506100616100fd565b005b34801561006e575f5ffd5b505f546040516001600160a01b0390911681526020015b60405180910390f35b61006161009c366004610260565b610110565b3480156100ac575f5ffd5b506100d1604051806040016040528060058152602001640352e302e360dc1b81525081565b604051610085919061037a565b3480156100e9575f5ffd5b506100616100f8366004610393565b61017b565b6101056101bd565b61010e5f6101e9565b565b6101186101bd565b60405163278f794360e11b81526001600160a01b03841690634f1ef28690349061014890869086906004016103ae565b5f604051808303818588803b15801561015f575f5ffd5b505af1158015610171573d5f5f3e3d5ffd5b5050505050505050565b6101836101bd565b6001600160a01b0381166101b157604051631e4fbdf760e01b81525f60048201526024015b60405180910390fd5b6101ba816101e9565b50565b5f546001600160a01b0316331461010e5760405163118cdaa760e01b81523360048201526024016101a8565b5f80546001600160a01b038381166001600160a01b0319831681178455604051919092169283917f8be0079c531659141344cd1fd0a4f28419497f9722a3daafe3b4186f6b6457e09190a35050565b6001600160a01b03811681146101ba575f5ffd5b634e487b7160e01b5f52604160045260245ffd5b5f5f5f60608486031215610272575f5ffd5b833561027d81610238565b9250602084013561028d81610238565b9150604084013567ffffffffffffffff8111156102a8575f5ffd5b8401601f810186136102b8575f5ffd5b803567ffffffffffffffff8111156102d2576102d261024c565b604051601f8201601f19908116603f0116810167ffffffffffffffff811182821017156103015761030161024c565b604052818152828201602001881015610318575f5ffd5b816020840160208301375f602083830101528093505050509250925092565b5f81518084525f5b8181101561035b5760208185018101518683018201520161033f565b505f602082860101526020601f19601f83011685010191505092915050565b602081525f61038c6020830184610337565b9392505050565b5f602082840312156103a3575f5ffd5b813561038c81610238565b6001600160a01b03831681526040602082018190525f906103d190830184610337565b94935050505056fea164736f6c634300081b000a60a0604052604051610dc8380380610dc88339810160408190526100229161038c565b828161002e828261008c565b50508160405161003d9061032e565b6001600160a01b039091168152602001604051809103905ff080158015610066573d5f5f3e3d5ffd5b506001600160a01b031660805261008461007f60805190565b6100ea565b505050610477565b61009582610157565b6040516001600160a01b038316907fbc7cd75a20ee27fd9adebab32041f755214dbc6bffa90cc0225b39da2e5c2d3b905f90a28051156100de576100d982826101d5565b505050565b6100e6610248565b5050565b7f7e644d79422f17c01e4894b5f4f588d331ebfa28653d42ae832dc59e38c9798f6101295f516020610da85f395f51905f52546001600160a01b031690565b604080516001600160a01b03928316815291841660208301520160405180910390a161015481610269565b50565b806001600160a01b03163b5f0361019157604051634c9c8ce360e01b81526001600160a01b03821660048201526024015b60405180910390fd5b807f360894a13ba1a3210667c828492db98dca3e2076cc3735a920a3ca505d382bbc5b80546001600160a01b0319166001600160a01b039290921691909117905550565b60605f5f846001600160a01b0316846040516101f1919061045c565b5f60405180830381855af49150503d805f8114610229576040519150601f19603f3d011682016040523d82523d5f602084013e61022e565b606091505b50909250905061023f8583836102a6565b95945050505050565b34156102675760405163b398979f60e01b815260040160405180910390fd5b565b6001600160a01b03811661029257604051633173bdd160e11b81525f6004820152602401610188565b805f516020610da85f395f51905f526101b4565b6060826102bb576102b682610305565b6102fe565b81511580156102d257506001600160a01b0384163b155b156102fb57604051639996b31560e01b81526001600160a01b0385166004820152602401610188565b50805b9392505050565b8051156103155780518082602001fd5b60405163d6bda27560e01b815260040160405180910390fd5b6104d2806108d683390190565b80516001600160a01b0381168114610351575f5ffd5b919050565b634e487b7160e01b5f52604160045260245ffd5b5f5b8381101561038457818101518382015260200161036c565b50505f910152565b5f5f5f6060848603121561039e575f5ffd5b6103a78461033b565b92506103b56020850161033b565b60408501519092506001600160401b038111156103d0575f5ffd5b8401601f810186136103e0575f5ffd5b80516001600160401b038111156103f9576103f9610356565b604051601f8201601f19908116603f011681016001600160401b038111828210171561042757610427610356565b60405281815282820160200188101561043e575f5ffd5b61044f82602083016020860161036a565b8093505050509250925092565b5f825161046d81846020870161036a565b9190910192915050565b60805161044861048e5f395f601001526104485ff3fe608060405261000c61000e565b005b7f00000000000000000000000000000000000000000000000000000000000000006001600160a01b0316330361007a575f356001600160e01b03191663278f794360e11b14610070576040516334ad5dbb60e21b815260040160405180910390fd5b610078610082565b565b6100786100b0565b5f806100913660048184610303565b81019061009e919061033e565b915091506100ac82826100c0565b5050565b6100786100bb61011a565b610151565b6100c98261016f565b6040516001600160a01b038316907fbc7cd75a20ee27fd9adebab32041f755214dbc6bffa90cc0225b39da2e5c2d3b905f90a28051156101125761010d82826101ea565b505050565b6100ac61025c565b5f61014c7f360894a13ba1a3210667c828492db98dca3e2076cc3735a920a3ca505d382bbc546001600160a01b031690565b905090565b365f5f375f5f365f845af43d5f5f3e80801561016b573d5ff35b3d5ffd5b806001600160a01b03163b5f036101a957604051634c9c8ce360e01b81526001600160a01b03821660048201526024015b60405180910390fd5b7f360894a13ba1a3210667c828492db98dca3e2076cc3735a920a3ca505d382bbc80546001600160a01b0319166001600160a01b0392909216919091179055565b60605f5f846001600160a01b031684604051610206919061040f565b5f60405180830381855af49150503d805f811461023e576040519150601f19603f3d011682016040523d82523d5f602084013e610243565b606091505b509150915061025385838361027b565b95945050505050565b34156100785760405163b398979f60e01b815260040160405180910390fd5b6060826102905761028b826102da565b6102d3565b81511580156102a757506001600160a01b0384163b155b156102d057604051639996b31560e01b81526001600160a01b03851660048201526024016101a0565b50805b9392505050565b8051156102ea5780518082602001fd5b60405163d6bda27560e01b815260040160405180910390fd5b5f5f85851115610311575f5ffd5b8386111561031d575f5ffd5b5050820193919092039150565b634e487b7160e01b5f52604160045260245ffd5b5f5f6040838503121561034f575f5ffd5b82356001600160a01b0381168114610365575f5ffd5b9150602083013567ffffffffffffffff811115610380575f5ffd5b8301601f81018513610390575f5ffd5b803567ffffffffffffffff8111156103aa576103aa61032a565b604051601f8201601f19908116603f0116810167ffffffffffffffff811182821017156103d9576103d961032a565b6040528181528282016020018710156103f0575f5ffd5b816020840160208301375f602083830101528093505050509250929050565b5f82515f5b8181101561042e5760208186018101518583015201610414565b505f92019182525091905056fea164736f6c634300081b000a6080604052348015600e575f5ffd5b506040516104d23803806104d2833981016040819052602b9160b4565b806001600160a01b038116605857604051631e4fbdf760e01b81525f600482015260240160405180910390fd5b605f816065565b505060df565b5f80546001600160a01b038381166001600160a01b0319831681178455604051919092169283917f8be0079c531659141344cd1fd0a4f28419497f9722a3daafe3b4186f6b6457e09190a35050565b5f6020828403121560c3575f5ffd5b81516001600160a01b038116811460d8575f5ffd5b9392505050565b6103e6806100ec5f395ff3fe608060405260043610610049575f3560e01c8063715018a61461004d5780638da5cb5b146100635780639623609d1461008e578063ad3cb1cc146100a1578063f2fde38b146100de575b5f5ffd5b348015610058575f5ffd5b506100616100fd565b005b34801561006e575f5ffd5b505f546040516001600160a01b0390911681526020015b60405180910390f35b61006161009c366004610260565b610110565b3480156100ac575f5ffd5b506100d1604051806040016040528060058152602001640352e302e360dc1b81525081565b604051610085919061037a565b3480156100e9575f5ffd5b506100616100f8366004610393565b61017b565b6101056101bd565b61010e5f6101e9565b565b6101186101bd565b60405163278f794360e11b81526001600160a01b03841690634f1ef28690349061014890869086906004016103ae565b5f604051808303818588803b15801561015f575f5ffd5b505af1158015610171573d5f5f3e3d5ffd5b5050505050505050565b6101836101bd565b6001600160a01b0381166101b157604051631e4fbdf760e01b81525f60048201526024015b60405180910390fd5b6101ba816101e9565b50565b5f546001600160a01b0316331461010e5760405163118cdaa760e01b81523360048201526024016101a8565b5f80546001600160a01b038381166001600160a01b0319831681178455604051919092169283917f8be0079c531659141344cd1fd0a4f28419497f9722a3daafe3b4186f6b6457e09190a35050565b6001600160a01b03811681146101ba575f5ffd5b634e487b7160e01b5f52604160045260245ffd5b5f5f5f60608486031215610272575f5ffd5b833561027d81610238565b9250602084013561028d81610238565b9150604084013567ffffffffffffffff8111156102a8575f5ffd5b8401601f810186136102b8575f5ffd5b803567ffffffffffffffff8111156102d2576102d261024c565b604051601f8201601f19908116603f0116810167ffffffffffffffff811182821017156103015761030161024c565b604052818152828201602001881015610318575f5ffd5b816020840160208301375f602083830101528093505050509250925092565b5f81518084525f5b8181101561035b5760208185018101518683018201520161033f565b505f602082860101526020601f19601f83011685010191505092915050565b602081525f61038c6020830184610337565b9392505050565b5f602082840312156103a3575f5ffd5b813561038c81610238565b6001600160a01b03831681526040602082018190525f906103d190830184610337565b94935050505056fea164736f6c634300081b000ab53127684a568b3173ae13b9f8a6016e243e63b6e8ee1178d6a717850b5d6103a164736f6c634300081b000a","linkReferences":{}},"methodIdentifiers":{"create(address,address,bytes)":"bd720da5","createDeterministic(address,address,bytes,bytes32)":"65bb962d","createDeterministicProxyAdmin(address,bytes32)":"68b7bdc6","createProxyAdmin(address)":"e5b528a9","getProxyAdmin(address)":"f3b7dead","predictCreateDeterministic(address,address,bytes,bytes32)":"aafdc6c1","predictCreateDeterministicProxyAdmin(bytes32,address)":"0876c7ae"},"id":69}