{"abi":[{"type":"function","name":"configuration","inputs":[],"outputs":[{"name":"data","type":"uint256","internalType":"uint256"}],"stateMutability":"view"},{"type":"function","name":"getBorrowCap","inputs":[],"outputs":[{"name":"","type":"uint256","internalType":"uint256"}],"stateMutability":"view"},{"type":"function","name":"getBorrowingEnabled","inputs":[],"outputs":[{"name":"","type":"bool","internalType":"bool"}],"stateMutability":"view"},{"type":"function","name":"getCaps","inputs":[],"outputs":[{"name":"","type":"uint256","internalType":"uint256"},{"name":"","type":"uint256","internalType":"uint256"}],"stateMutability":"view"},{"type":"function","name":"getDecimals","inputs":[],"outputs":[{"name":"","type":"uint256","internalType":"uint256"}],"stateMutability":"view"},{"type":"function","name":"getFlags","inputs":[],"outputs":[{"name":"","type":"bool","internalType":"bool"},{"name":"","type":"bool","internalType":"bool"},{"name":"","type":"bool","internalType":"bool"},{"name":"","type":"bool","internalType":"bool"}],"stateMutability":"view"},{"type":"function","name":"getFlashLoanEnabled","inputs":[],"outputs":[{"name":"","type":"bool","internalType":"bool"}],"stateMutability":"view"},{"type":"function","name":"getFrozen","inputs":[],"outputs":[{"name":"","type":"bool","internalType":"bool"}],"stateMutability":"view"},{"type":"function","name":"getLiquidationBonus","inputs":[],"outputs":[{"name":"","type":"uint256","internalType":"uint256"}],"stateMutability":"view"},{"type":"function","name":"getLiquidationProtocolFee","inputs":[],"outputs":[{"name":"","type":"uint256","internalType":"uint256"}],"stateMutability":"view"},{"type":"function","name":"getLiquidationThreshold","inputs":[],"outputs":[{"name":"","type":"uint256","internalType":"uint256"}],"stateMutability":"view"},{"type":"function","name":"getLtv","inputs":[],"outputs":[{"name":"","type":"uint256","internalType":"uint256"}],"stateMutability":"view"},{"type":"function","name":"getParams","inputs":[],"outputs":[{"name":"","type":"uint256","internalType":"uint256"},{"name":"","type":"uint256","internalType":"uint256"},{"name":"","type":"uint256","internalType":"uint256"},{"name":"","type":"uint256","internalType":"uint256"},{"name":"","type":"uint256","internalType":"uint256"}],"stateMutability":"view"},{"type":"function","name":"getReserveFactor","inputs":[],"outputs":[{"name":"","type":"uint256","internalType":"uint256"}],"stateMutability":"view"},{"type":"function","name":"getSupplyCap","inputs":[],"outputs":[{"name":"","type":"uint256","internalType":"uint256"}],"stateMutability":"view"},{"type":"function","name":"setBorrowCap","inputs":[{"name":"borrowCap","type":"uint256","internalType":"uint256"}],"outputs":[],"stateMutability":"nonpayable"},{"type":"function","name":"setBorrowingEnabled","inputs":[{"name":"enabled","type":"bool","internalType":"bool"}],"outputs":[],"stateMutability":"nonpayable"},{"type":"function","name":"setDecimals","inputs":[{"name":"decimals","type":"uint256","internalType":"uint256"}],"outputs":[],"stateMutability":"nonpayable"},{"type":"function","name":"setFlashLoanEnabled","inputs":[{"name":"enabled","type":"bool","internalType":"bool"}],"outputs":[],"stateMutability":"nonpayable"},{"type":"function","name":"setFrozen","inputs":[{"name":"frozen","type":"bool","internalType":"bool"}],"outputs":[],"stateMutability":"nonpayable"},{"type":"function","name":"setLiquidationBonus","inputs":[{"name":"bonus","type":"uint256","internalType":"uint256"}],"outputs":[],"stateMutability":"nonpayable"},{"type":"function","name":"setLiquidationProtocolFee","inputs":[{"name":"liquidationProtocolFee","type":"uint256","internalType":"uint256"}],"outputs":[],"stateMutability":"nonpayable"},{"type":"function","name":"setLiquidationThreshold","inputs":[{"name":"threshold","type":"uint256","internalType":"uint256"}],"outputs":[],"stateMutability":"nonpayable"},{"type":"function","name":"setLtv","inputs":[{"name":"ltv","type":"uint256","internalType":"uint256"}],"outputs":[],"stateMutability":"nonpayable"},{"type":"function","name":"setReserveFactor","inputs":[{"name":"reserveFactor","type":"uint256","internalType":"uint256"}],"outputs":[],"stateMutability":"nonpayable"},{"type":"function","name":"setSupplyCap","inputs":[{"name":"supplyCap","type":"uint256","internalType":"uint256"}],"outputs":[],"stateMutability":"nonpayable"},{"type":"error","name":"InvalidBorrowCap","inputs":[]},{"type":"error","name":"InvalidDecimals","inputs":[]},{"type":"error","name":"InvalidLiquidationBonus","inputs":[]},{"type":"error","name":"InvalidLiquidationProtocolFee","inputs":[]},{"type":"error","name":"InvalidLiquidationThreshold","inputs":[]},{"type":"error","name":"InvalidLtv","inputs":[]},{"type":"error","name":"InvalidReserveFactor","inputs":[]},{"type":"error","name":"InvalidSupplyCap","inputs":[]}],"bytecode":{"object":"0x6080604052348015600e575f5ffd5b5061085e8061001c5f395ff3fe608060405234801561000f575f5ffd5b5060043610610187575f3560e01c80638145bd2e116100d9578063aede7b7611610093578063d0b0c8161161006e578063d0b0c81614610448578063d1c11f181461045b578063f0141d841461047d578063f1514a1a14610499575f5ffd5b8063aede7b76146103f8578063b6a3f59a14610418578063c37bdcec1461042b575f5ffd5b80638145bd2e1461035a5780638c8885c8146103745780639d706d3114610387578063a37e52e3146103bf578063a55102f7146103d2578063a6200635146103e5575f5ffd5b80635f558e5311610144578063717186d11161011f578063717186d1146102ec5780637495b353146102ff57806379750bc4146103295780637e932d3214610347575f5ffd5b80635f558e531461026d5780636c70bee9146102885780636cc7149d14610291575f5ffd5b80631c4469831461018b57806320361814146101a057806328842d4f146101cf5780634ae9b8bc146101e257806359aa9e72146101ff5780635e615a6b1461021c575b5f5ffd5b61019e610199366004610814565b6104ac565b005b60408051602081019091525f549081905260741c640fffffffff165b6040519081526020015b60405180910390f35b61019e6101dd366004610814565b6104cb565b60408051602081019091525f549081905260101c61ffff166101bc565b6040805160208082019092525f5490819052901c61ffff166101bc565b60408051602080820183525f5491829052825161ffff8084168252601084901c8116828401529183901c821681850152603083901c60ff1660608201529190921c909116608082015260a0016101c6565b604080516020810182525f5490819052901c61ffff166101bc565b5f546101bc9081565b60408051602080820183525f54918290528251670100000000000000831615158152600160391b83161515918101919091526001603a1b821615159281019290925267100000000000000016151560608201526080016101c6565b61019e6102fa366004610814565b6104e4565b60408051602081019091525f5490819052600160391b1615155b60405190151581526020016101c6565b60408051602081019091525f54908190526001603a1b161515610319565b61019e61035536600461082b565b6104fd565b60408051602081019091525f549081905261ffff166101bc565b61019e610382366004610814565b610516565b60408051602081019091525f5490819052640fffffffff605082901c81169160741c16604080519283526020830191909152016101c6565b61019e6103cd366004610814565b61052f565b61019e6103e036600461082b565b610548565b61019e6103f3366004610814565b610561565b60408051602081019091525f549081905260501c640fffffffff166101bc565b61019e610426366004610814565b61057a565b60408051602081019091525f549081905260981c61ffff166101bc565b61019e610456366004610814565b610593565b60408051602081019091525f5490819052678000000000000000161515610319565b60408051602081019091525f549081905260301c60ff166101bc565b61019e6104a736600461082b565b6105ac565b60408051602081019091525f5481526104c581836105c5565b515f5550565b60408051602081019091525f5481526104c58183610602565b60408051602081019091525f5481526104c5818361063b565b60408051602081019091525f5481526104c58183610679565b60408051602081019091525f5481526104c581836106a6565b60408051602081019091525f5481526104c581836106df565b60408051602081019091525f5481526104c5818361070e565b60408051602081019091525f5481526104c5818361073b565b60408051602081019091525f5481526104c58183610773565b60408051602081019091525f5481526104c581836107b1565b60408051602081019091525f5481526104c581836107e7565b61ffff8111156105e857604051631b9bc96960e11b815260040160405180910390fd5b815169ffff0000000000000000191660409190911b179052565b61ffff81111561062557604051631506630760e21b815260040160405180910390fd5b815165ffff00000000191660209190911b179052565b640fffffffff811115610661576040516353f4dadb60e11b815260040160405180910390fd5b8151640fffffffff60501b191660509190911b179052565b603981610686575f610689565b60015b8351670200000000000000191660ff9190911690911b1790915250565b60ff8111156106c857604051630692acc560e51b815260040160405180910390fd5b815166ff000000000000191660309190911b179052565b61ffff8111156107025760405163324b20e160e11b815260040160405180910390fd5b815161ffff1916179052565b603f8161071b575f61071e565b60015b8351678000000000000000191660ff9190911690911b1790915250565b61ffff81111561075e5760405163239eacb960e01b815260040160405180910390fd5b815161ffff60981b191660989190911b179052565b640fffffffff8111156107995760405163606bb6c960e11b815260040160405180910390fd5b8151640fffffffff60741b191660749190911b179052565b61ffff8111156107d35760405162f9474b60e61b815260040160405180910390fd5b815163ffff0000191660109190911b179052565b603a816107f4575f6107f7565b60015b8351670400000000000000191660ff9190911690911b1790915250565b5f60208284031215610824575f5ffd5b5035919050565b5f6020828403121561083b575f5ffd5b8135801515811461084a575f5ffd5b939250505056fea164736f6c634300081b000a","linkReferences":{}},"methodIdentifiers":{"configuration()":"6c70bee9","getBorrowCap()":"aede7b76","getBorrowingEnabled()":"79750bc4","getCaps()":"9d706d31","getDecimals()":"f0141d84","getFlags()":"6cc7149d","getFlashLoanEnabled()":"d1c11f18","getFrozen()":"7495b353","getLiquidationBonus()":"59aa9e72","getLiquidationProtocolFee()":"c37bdcec","getLiquidationThreshold()":"4ae9b8bc","getLtv()":"8145bd2e","getParams()":"5e615a6b","getReserveFactor()":"5f558e53","getSupplyCap()":"20361814","setBorrowCap(uint256)":"717186d1","setBorrowingEnabled(bool)":"f1514a1a","setDecimals(uint256)":"8c8885c8","setFlashLoanEnabled(bool)":"a55102f7","setFrozen(bool)":"7e932d32","setLiquidationBonus(uint256)":"28842d4f","setLiquidationProtocolFee(uint256)":"a6200635","setLiquidationThreshold(uint256)":"d0b0c816","setLtv(uint256)":"a37e52e3","setReserveFactor(uint256)":"1c446983","setSupplyCap(uint256)":"b6a3f59a"},"id":202}