{"abi":[{"type":"constructor","inputs":[{"name":"pool","type":"address","internalType":"contract IPool"},{"name":"rewardsController","type":"address","internalType":"contract IRewardsController"}],"stateMutability":"nonpayable"},{"type":"function","name":"DOMAIN_SEPARATOR","inputs":[],"outputs":[{"name":"","type":"bytes32","internalType":"bytes32"}],"stateMutability":"view"},{"type":"function","name":"INCENTIVES_CONTROLLER","inputs":[],"outputs":[{"name":"","type":"address","internalType":"contract IRewardsController"}],"stateMutability":"view"},{"type":"function","name":"POOL","inputs":[],"outputs":[{"name":"","type":"address","internalType":"contract IPool"}],"stateMutability":"view"},{"type":"function","name":"POOL_ADDRESSES_PROVIDER","inputs":[],"outputs":[{"name":"","type":"address","internalType":"contract IPoolAddressesProvider"}],"stateMutability":"view"},{"type":"function","name":"RAY","inputs":[],"outputs":[{"name":"","type":"uint256","internalType":"uint256"}],"stateMutability":"view"},{"type":"function","name":"aToken","inputs":[],"outputs":[{"name":"","type":"address","internalType":"address"}],"stateMutability":"view"},{"type":"function","name":"allowance","inputs":[{"name":"owner","type":"address","internalType":"address"},{"name":"spender","type":"address","internalType":"address"}],"outputs":[{"name":"","type":"uint256","internalType":"uint256"}],"stateMutability":"view"},{"type":"function","name":"approve","inputs":[{"name":"spender","type":"address","internalType":"address"},{"name":"value","type":"uint256","internalType":"uint256"}],"outputs":[{"name":"","type":"bool","internalType":"bool"}],"stateMutability":"nonpayable"},{"type":"function","name":"asset","inputs":[],"outputs":[{"name":"","type":"address","internalType":"address"}],"stateMutability":"view"},{"type":"function","name":"balanceOf","inputs":[{"name":"account","type":"address","internalType":"address"}],"outputs":[{"name":"","type":"uint256","internalType":"uint256"}],"stateMutability":"view"},{"type":"function","name":"canPause","inputs":[{"name":"actor","type":"address","internalType":"address"}],"outputs":[{"name":"","type":"bool","internalType":"bool"}],"stateMutability":"view"},{"type":"function","name":"claimRewards","inputs":[{"name":"receiver","type":"address","internalType":"address"},{"name":"rewards","type":"address[]","internalType":"address[]"}],"outputs":[],"stateMutability":"nonpayable"},{"type":"function","name":"claimRewardsOnBehalf","inputs":[{"name":"onBehalfOf","type":"address","internalType":"address"},{"name":"receiver","type":"address","internalType":"address"},{"name":"rewards","type":"address[]","internalType":"address[]"}],"outputs":[],"stateMutability":"nonpayable"},{"type":"function","name":"claimRewardsToSelf","inputs":[{"name":"rewards","type":"address[]","internalType":"address[]"}],"outputs":[],"stateMutability":"nonpayable"},{"type":"function","name":"collectAndUpdateRewards","inputs":[{"name":"reward","type":"address","internalType":"address"}],"outputs":[{"name":"","type":"uint256","internalType":"uint256"}],"stateMutability":"nonpayable"},{"type":"function","name":"convertToAssets","inputs":[{"name":"shares","type":"uint256","internalType":"uint256"}],"outputs":[{"name":"","type":"uint256","internalType":"uint256"}],"stateMutability":"view"},{"type":"function","name":"convertToShares","inputs":[{"name":"assets","type":"uint256","internalType":"uint256"}],"outputs":[{"name":"","type":"uint256","internalType":"uint256"}],"stateMutability":"view"},{"type":"function","name":"decimals","inputs":[],"outputs":[{"name":"","type":"uint8","internalType":"uint8"}],"stateMutability":"view"},{"type":"function","name":"deposit","inputs":[{"name":"assets","type":"uint256","internalType":"uint256"},{"name":"receiver","type":"address","internalType":"address"}],"outputs":[{"name":"","type":"uint256","internalType":"uint256"}],"stateMutability":"nonpayable"},{"type":"function","name":"depositATokens","inputs":[{"name":"assets","type":"uint256","internalType":"uint256"},{"name":"receiver","type":"address","internalType":"address"}],"outputs":[{"name":"","type":"uint256","internalType":"uint256"}],"stateMutability":"nonpayable"},{"type":"function","name":"depositWithPermit","inputs":[{"name":"assets","type":"uint256","internalType":"uint256"},{"name":"receiver","type":"address","internalType":"address"},{"name":"deadline","type":"uint256","internalType":"uint256"},{"name":"sig","type":"tuple","internalType":"struct IERC4626StataToken.SignatureParams","components":[{"name":"v","type":"uint8","internalType":"uint8"},{"name":"r","type":"bytes32","internalType":"bytes32"},{"name":"s","type":"bytes32","internalType":"bytes32"}]},{"name":"depositToAave","type":"bool","internalType":"bool"}],"outputs":[{"name":"","type":"uint256","internalType":"uint256"}],"stateMutability":"nonpayable"},{"type":"function","name":"eip712Domain","inputs":[],"outputs":[{"name":"fields","type":"bytes1","internalType":"bytes1"},{"name":"name","type":"string","internalType":"string"},{"name":"version","type":"string","internalType":"string"},{"name":"chainId","type":"uint256","internalType":"uint256"},{"name":"verifyingContract","type":"address","internalType":"address"},{"name":"salt","type":"bytes32","internalType":"bytes32"},{"name":"extensions","type":"uint256[]","internalType":"uint256[]"}],"stateMutability":"view"},{"type":"function","name":"emergencyEtherTransfer","inputs":[{"name":"to","type":"address","internalType":"address"},{"name":"amount","type":"uint256","internalType":"uint256"}],"outputs":[],"stateMutability":"nonpayable"},{"type":"function","name":"emergencyTokenTransfer","inputs":[{"name":"erc20Token","type":"address","internalType":"address"},{"name":"to","type":"address","internalType":"address"},{"name":"amount","type":"uint256","internalType":"uint256"}],"outputs":[],"stateMutability":"nonpayable"},{"type":"function","name":"getClaimableRewards","inputs":[{"name":"user","type":"address","internalType":"address"},{"name":"reward","type":"address","internalType":"address"}],"outputs":[{"name":"","type":"uint256","internalType":"uint256"}],"stateMutability":"view"},{"type":"function","name":"getCurrentRewardsIndex","inputs":[{"name":"reward","type":"address","internalType":"address"}],"outputs":[{"name":"","type":"uint256","internalType":"uint256"}],"stateMutability":"view"},{"type":"function","name":"getReferenceAsset","inputs":[],"outputs":[{"name":"","type":"address","internalType":"address"}],"stateMutability":"view"},{"type":"function","name":"getTotalClaimableRewards","inputs":[{"name":"reward","type":"address","internalType":"address"}],"outputs":[{"name":"","type":"uint256","internalType":"uint256"}],"stateMutability":"view"},{"type":"function","name":"getUnclaimedRewards","inputs":[{"name":"user","type":"address","internalType":"address"},{"name":"reward","type":"address","internalType":"address"}],"outputs":[{"name":"","type":"uint256","internalType":"uint256"}],"stateMutability":"view"},{"type":"function","name":"initialize","inputs":[{"name":"aToken","type":"address","internalType":"address"},{"name":"staticATokenName","type":"string","internalType":"string"},{"name":"staticATokenSymbol","type":"string","internalType":"string"}],"outputs":[],"stateMutability":"nonpayable"},{"type":"function","name":"isRegisteredRewardToken","inputs":[{"name":"reward","type":"address","internalType":"address"}],"outputs":[{"name":"","type":"bool","internalType":"bool"}],"stateMutability":"view"},{"type":"function","name":"latestAnswer","inputs":[],"outputs":[{"name":"","type":"int256","internalType":"int256"}],"stateMutability":"view"},{"type":"function","name":"maxDeposit","inputs":[{"name":"","type":"address","internalType":"address"}],"outputs":[{"name":"","type":"uint256","internalType":"uint256"}],"stateMutability":"view"},{"type":"function","name":"maxMint","inputs":[{"name":"","type":"address","internalType":"address"}],"outputs":[{"name":"","type":"uint256","internalType":"uint256"}],"stateMutability":"view"},{"type":"function","name":"maxRedeem","inputs":[{"name":"owner","type":"address","internalType":"address"}],"outputs":[{"name":"","type":"uint256","internalType":"uint256"}],"stateMutability":"view"},{"type":"function","name":"maxRescue","inputs":[{"name":"asset","type":"address","internalType":"address"}],"outputs":[{"name":"","type":"uint256","internalType":"uint256"}],"stateMutability":"view"},{"type":"function","name":"maxWithdraw","inputs":[{"name":"owner","type":"address","internalType":"address"}],"outputs":[{"name":"","type":"uint256","internalType":"uint256"}],"stateMutability":"view"},{"type":"function","name":"mint","inputs":[{"name":"shares","type":"uint256","internalType":"uint256"},{"name":"receiver","type":"address","internalType":"address"}],"outputs":[{"name":"","type":"uint256","internalType":"uint256"}],"stateMutability":"nonpayable"},{"type":"function","name":"name","inputs":[],"outputs":[{"name":"","type":"string","internalType":"string"}],"stateMutability":"view"},{"type":"function","name":"nonces","inputs":[{"name":"owner","type":"address","internalType":"address"}],"outputs":[{"name":"","type":"uint256","internalType":"uint256"}],"stateMutability":"view"},{"type":"function","name":"paused","inputs":[],"outputs":[{"name":"","type":"bool","internalType":"bool"}],"stateMutability":"view"},{"type":"function","name":"permit","inputs":[{"name":"owner","type":"address","internalType":"address"},{"name":"spender","type":"address","internalType":"address"},{"name":"value","type":"uint256","internalType":"uint256"},{"name":"deadline","type":"uint256","internalType":"uint256"},{"name":"v","type":"uint8","internalType":"uint8"},{"name":"r","type":"bytes32","internalType":"bytes32"},{"name":"s","type":"bytes32","internalType":"bytes32"}],"outputs":[],"stateMutability":"nonpayable"},{"type":"function","name":"previewDeposit","inputs":[{"name":"assets","type":"uint256","internalType":"uint256"}],"outputs":[{"name":"","type":"uint256","internalType":"uint256"}],"stateMutability":"view"},{"type":"function","name":"previewMint","inputs":[{"name":"shares","type":"uint256","internalType":"uint256"}],"outputs":[{"name":"","type":"uint256","internalType":"uint256"}],"stateMutability":"view"},{"type":"function","name":"previewRedeem","inputs":[{"name":"shares","type":"uint256","internalType":"uint256"}],"outputs":[{"name":"","type":"uint256","internalType":"uint256"}],"stateMutability":"view"},{"type":"function","name":"previewWithdraw","inputs":[{"name":"assets","type":"uint256","internalType":"uint256"}],"outputs":[{"name":"","type":"uint256","internalType":"uint256"}],"stateMutability":"view"},{"type":"function","name":"redeem","inputs":[{"name":"shares","type":"uint256","internalType":"uint256"},{"name":"receiver","type":"address","internalType":"address"},{"name":"owner","type":"address","internalType":"address"}],"outputs":[{"name":"","type":"uint256","internalType":"uint256"}],"stateMutability":"nonpayable"},{"type":"function","name":"redeemATokens","inputs":[{"name":"shares","type":"uint256","internalType":"uint256"},{"name":"receiver","type":"address","internalType":"address"},{"name":"owner","type":"address","internalType":"address"}],"outputs":[{"name":"","type":"uint256","internalType":"uint256"}],"stateMutability":"nonpayable"},{"type":"function","name":"refreshRewardTokens","inputs":[],"outputs":[],"stateMutability":"nonpayable"},{"type":"function","name":"rewardTokens","inputs":[],"outputs":[{"name":"","type":"address[]","internalType":"address[]"}],"stateMutability":"view"},{"type":"function","name":"setPaused","inputs":[{"name":"paused","type":"bool","internalType":"bool"}],"outputs":[],"stateMutability":"nonpayable"},{"type":"function","name":"symbol","inputs":[],"outputs":[{"name":"","type":"string","internalType":"string"}],"stateMutability":"view"},{"type":"function","name":"totalAssets","inputs":[],"outputs":[{"name":"","type":"uint256","internalType":"uint256"}],"stateMutability":"view"},{"type":"function","name":"totalSupply","inputs":[],"outputs":[{"name":"","type":"uint256","internalType":"uint256"}],"stateMutability":"view"},{"type":"function","name":"transfer","inputs":[{"name":"to","type":"address","internalType":"address"},{"name":"value","type":"uint256","internalType":"uint256"}],"outputs":[{"name":"","type":"bool","internalType":"bool"}],"stateMutability":"nonpayable"},{"type":"function","name":"transferFrom","inputs":[{"name":"from","type":"address","internalType":"address"},{"name":"to","type":"address","internalType":"address"},{"name":"value","type":"uint256","internalType":"uint256"}],"outputs":[{"name":"","type":"bool","internalType":"bool"}],"stateMutability":"nonpayable"},{"type":"function","name":"whoCanRescue","inputs":[],"outputs":[{"name":"","type":"address","internalType":"address"}],"stateMutability":"view"},{"type":"function","name":"withdraw","inputs":[{"name":"assets","type":"uint256","internalType":"uint256"},{"name":"receiver","type":"address","internalType":"address"},{"name":"owner","type":"address","internalType":"address"}],"outputs":[{"name":"","type":"uint256","internalType":"uint256"}],"stateMutability":"nonpayable"},{"type":"event","name":"Approval","inputs":[{"name":"owner","type":"address","indexed":true,"internalType":"address"},{"name":"spender","type":"address","indexed":true,"internalType":"address"},{"name":"value","type":"uint256","indexed":false,"internalType":"uint256"}],"anonymous":false},{"type":"event","name":"Deposit","inputs":[{"name":"sender","type":"address","indexed":true,"internalType":"address"},{"name":"owner","type":"address","indexed":true,"internalType":"address"},{"name":"assets","type":"uint256","indexed":false,"internalType":"uint256"},{"name":"shares","type":"uint256","indexed":false,"internalType":"uint256"}],"anonymous":false},{"type":"event","name":"EIP712DomainChanged","inputs":[],"anonymous":false},{"type":"event","name":"ERC20Rescued","inputs":[{"name":"caller","type":"address","indexed":true,"internalType":"address"},{"name":"token","type":"address","indexed":true,"internalType":"address"},{"name":"to","type":"address","indexed":true,"internalType":"address"},{"name":"amount","type":"uint256","indexed":false,"internalType":"uint256"}],"anonymous":false},{"type":"event","name":"Initialized","inputs":[{"name":"version","type":"uint64","indexed":false,"internalType":"uint64"}],"anonymous":false},{"type":"event","name":"NativeTokensRescued","inputs":[{"name":"caller","type":"address","indexed":true,"internalType":"address"},{"name":"to","type":"address","indexed":true,"internalType":"address"},{"name":"amount","type":"uint256","indexed":false,"internalType":"uint256"}],"anonymous":false},{"type":"event","name":"Paused","inputs":[{"name":"account","type":"address","indexed":false,"internalType":"address"}],"anonymous":false},{"type":"event","name":"RewardTokenRegistered","inputs":[{"name":"reward","type":"address","indexed":true,"internalType":"address"},{"name":"startIndex","type":"uint256","indexed":false,"internalType":"uint256"}],"anonymous":false},{"type":"event","name":"Transfer","inputs":[{"name":"from","type":"address","indexed":true,"internalType":"address"},{"name":"to","type":"address","indexed":true,"internalType":"address"},{"name":"value","type":"uint256","indexed":false,"internalType":"uint256"}],"anonymous":false},{"type":"event","name":"Unpaused","inputs":[{"name":"account","type":"address","indexed":false,"internalType":"address"}],"anonymous":false},{"type":"event","name":"Withdraw","inputs":[{"name":"sender","type":"address","indexed":true,"internalType":"address"},{"name":"receiver","type":"address","indexed":true,"internalType":"address"},{"name":"owner","type":"address","indexed":true,"internalType":"address"},{"name":"assets","type":"uint256","indexed":false,"internalType":"uint256"},{"name":"shares","type":"uint256","indexed":false,"internalType":"uint256"}],"anonymous":false},{"type":"error","name":"ECDSAInvalidSignature","inputs":[]},{"type":"error","name":"ECDSAInvalidSignatureLength","inputs":[{"name":"length","type":"uint256","internalType":"uint256"}]},{"type":"error","name":"ECDSAInvalidSignatureS","inputs":[{"name":"s","type":"bytes32","internalType":"bytes32"}]},{"type":"error","name":"ERC20InsufficientAllowance","inputs":[{"name":"spender","type":"address","internalType":"address"},{"name":"allowance","type":"uint256","internalType":"uint256"},{"name":"needed","type":"uint256","internalType":"uint256"}]},{"type":"error","name":"ERC20InsufficientBalance","inputs":[{"name":"sender","type":"address","internalType":"address"},{"name":"balance","type":"uint256","internalType":"uint256"},{"name":"needed","type":"uint256","internalType":"uint256"}]},{"type":"error","name":"ERC20InvalidApprover","inputs":[{"name":"approver","type":"address","internalType":"address"}]},{"type":"error","name":"ERC20InvalidReceiver","inputs":[{"name":"receiver","type":"address","internalType":"address"}]},{"type":"error","name":"ERC20InvalidSender","inputs":[{"name":"sender","type":"address","internalType":"address"}]},{"type":"error","name":"ERC20InvalidSpender","inputs":[{"name":"spender","type":"address","internalType":"address"}]},{"type":"error","name":"ERC2612ExpiredSignature","inputs":[{"name":"deadline","type":"uint256","internalType":"uint256"}]},{"type":"error","name":"ERC2612InvalidSigner","inputs":[{"name":"signer","type":"address","internalType":"address"},{"name":"owner","type":"address","internalType":"address"}]},{"type":"error","name":"ERC4626ExceededMaxDeposit","inputs":[{"name":"receiver","type":"address","internalType":"address"},{"name":"assets","type":"uint256","internalType":"uint256"},{"name":"max","type":"uint256","internalType":"uint256"}]},{"type":"error","name":"ERC4626ExceededMaxMint","inputs":[{"name":"receiver","type":"address","internalType":"address"},{"name":"shares","type":"uint256","internalType":"uint256"},{"name":"max","type":"uint256","internalType":"uint256"}]},{"type":"error","name":"ERC4626ExceededMaxRedeem","inputs":[{"name":"owner","type":"address","internalType":"address"},{"name":"shares","type":"uint256","internalType":"uint256"},{"name":"max","type":"uint256","internalType":"uint256"}]},{"type":"error","name":"ERC4626ExceededMaxWithdraw","inputs":[{"name":"owner","type":"address","internalType":"address"},{"name":"assets","type":"uint256","internalType":"uint256"},{"name":"max","type":"uint256","internalType":"uint256"}]},{"type":"error","name":"EnforcedPause","inputs":[]},{"type":"error","name":"EthTransferFailed","inputs":[]},{"type":"error","name":"ExpectedPause","inputs":[]},{"type":"error","name":"InvalidAccountNonce","inputs":[{"name":"account","type":"address","internalType":"address"},{"name":"currentNonce","type":"uint256","internalType":"uint256"}]},{"type":"error","name":"InvalidClaimer","inputs":[{"name":"claimer","type":"address","internalType":"address"}]},{"type":"error","name":"InvalidInitialization","inputs":[]},{"type":"error","name":"NotInitializing","inputs":[]},{"type":"error","name":"OnlyPauseGuardian","inputs":[{"name":"caller","type":"address","internalType":"address"}]},{"type":"error","name":"OnlyRescueGuardian","inputs":[]},{"type":"error","name":"PoolAddressMismatch","inputs":[{"name":"pool","type":"address","internalType":"address"}]},{"type":"error","name":"RewardNotInitialized","inputs":[{"name":"reward","type":"address","internalType":"address"}]},{"type":"error","name":"SafeCastOverflowedUintDowncast","inputs":[{"name":"bits","type":"uint8","internalType":"uint8"},{"name":"value","type":"uint256","internalType":"uint256"}]},{"type":"error","name":"SafeERC20FailedOperation","inputs":[{"name":"token","type":"address","internalType":"address"}]},{"type":"error","name":"StaticATokenInvalidZeroShares","inputs":[]},{"type":"error","name":"ZeroIncentivesControllerIsForbidden","inputs":[]}],"bytecode":{"object":"0x60e060405234801561000f575f5ffd5b50604051614c9b380380614c9b83398101604081905261002e916101ab565b81816001600160a01b0381166100575760405163065619db60e41b815260040160405180910390fd5b6001600160a01b03908116608052811660a081905260408051630150a5d760e21b81529051630542975c916004808201926020929091908290030181865afa1580156100a5573d5f5f3e3d5ffd5b505050506040513d601f19601f820116820180604052508101906100c991906101e3565b6001600160a01b031660c052506100de6100e5565b5050610205565b7ff0c57e16840df040f15088dc2f81fe391c3923bec73e23a9662efc9c229c6a00805468010000000000000000900460ff16156101355760405163f92ee8a960e01b815260040160405180910390fd5b80546001600160401b03908116146101945780546001600160401b0319166001600160401b0390811782556040519081527fc7f505b2f371ae2175ee4913f4499e1f2633a7b5936321eed1cdaeb6115181d29060200160405180910390a15b50565b6001600160a01b0381168114610194575f5ffd5b5f5f604083850312156101bc575f5ffd5b82516101c781610197565b60208401519092506101d881610197565b809150509250929050565b5f602082840312156101f3575f5ffd5b81516101fe81610197565b9392505050565b60805160a05160c0516149f56102a65f395f81816104bb01528181610cfa0152818161106d01526114c901525f81816105a501528181610b1301528181611b3901528181611c080152818161202e0152818161247a0152818161274901528181613291015261337f01525f818161041201528181610a2001528181610ea80152818161168401528181611d7b01528181611ebe01526131f601526149f55ff3fe608060405234801561000f575f5ffd5b506004361061037d575f3560e01c806384b0196e116101d4578063c2b18aa011610109578063d905777e116100a9578063ee0fc6d311610079578063ee0fc6d314610805578063eed88b8d14610818578063ef8b30f71461075a578063f56f4f0f1461082b575f5ffd5b8063d905777e146107b9578063dd62ed3e146107cc578063de9cee98146107df578063e25ec349146107f2575f5ffd5b8063cabc777e116100e4578063cabc777e1461076d578063ce96cb7714610780578063d505accf14610793578063d7408715146107a6575f5ffd5b8063c2b18aa014610732578063c63d75b614610747578063c6e6f5921461075a575f5ffd5b8063a3d5b25511610174578063b3d7f6b91161014f578063b3d7f6b9146106e6578063b460af94146106f9578063ba0876521461070c578063bcd178481461071f575f5ffd5b8063a3d5b255146106b8578063a4757b0f146106cb578063a9059cbb146106d3575f5ffd5b806390657147116101af578063906571471461068257806394bf804d1461069557806395d89b41146106a8578063a0c1f15e146106b0575f5ffd5b806384b0196e146105ed57806386894b29146106085780638daaf5aa1461066f575f5ffd5b80633644e515116102b557806360d8fdd81161025557806370a082311161022557806370a082311461058d5780637535d246146105a057806375b24ebe146105c75780637ecebe00146105da575f5ffd5b806360d8fdd81461054c57806368b836a71461055f5780636e553f65146105675780636fe0b5a51461057a575f5ffd5b80634cdad506116102905780634cdad506146103b157806350d25bcd1461051a578063552033c4146105225780635c975abb14610535575f5ffd5b80633644e515146104f757806338d52e0f146104ff578063402d267d14610507575f5ffd5b806316c38b3c1161032057806323b872dd116102fb57806323b872dd1461049b5780632f813b0d146104ae578063311cd5a4146104b6578063313ce567146104dd575f5ffd5b806316c38b3c1461044c57806318160ddd146104615780632026ffa314610488575f5ffd5b8063090edf9a1161035b578063090edf9a146103c4578063095ea7b3146103d75780630a28a477146103fa57806310d0ab221461040d575f5ffd5b806301e1d1141461038157806306fdde031461039c57806307a2d13a146103b1575b5f5ffd5b61038961083e565b6040519081526020015b60405180910390f35b6103a4610875565b6040516103939190613c89565b6103896103bf366004613c9b565b61091a565b6103896103d2366004613cc6565b61092b565b6103ea6103e5366004613d05565b610950565b6040519015158152602001610393565b610389610408366004613c9b565b610967565b6104347f000000000000000000000000000000000000000000000000000000000000000081565b6040516001600160a01b039091168152602001610393565b61045f61045a366004613d3c565b610973565b005b7f52c63247e1f47db19d5ce0460030c497f067ca4cebf71ba98eeadabe20bace0254610389565b61045f610496366004613e59565b6109b9565b6103ea6104a9366004613ea5565b6109c8565b61045f6109eb565b6104347f000000000000000000000000000000000000000000000000000000000000000081565b6104e5610ac9565b60405160ff9091168152602001610393565b610389610ad2565b610434610adb565b610389610515366004613ee3565b610b0f565b610389610cf6565b6103896b033b2e3c9fd0803ce800000081565b5f5160206149c95f395f51905f525460ff166103ea565b61038961055a366004613ee3565b610e1c565b610434610f95565b610389610575366004613efe565b610faa565b6103ea610588366004613ee3565b610ffe565b61038961059b366004613ee3565b61103a565b6104347f000000000000000000000000000000000000000000000000000000000000000081565b6103ea6105d5366004613ee3565b61106a565b6103896105e8366004613ee3565b611155565b6105f561115f565b6040516103939796959493929190613f2c565b610389610616366004613fc2565b6001600160a01b039182165f9081527f4fad66563f105be0bff96185c9058c4934b504d3ba15ca31e86294f0b01fd20360209081526040808320939094168252919091522054600160801b90046001600160801b031690565b61045f61067d366004613fee565b611208565b61045f610690366004614063565b611213565b6103896106a3366004613efe565b6113e3565b6103a461142f565b61043461146d565b61045f6106c6366004613ea5565b611482565b6104346114c6565b6103ea6106e1366004613d05565b611547565b6103896106f4366004613c9b565b611554565b610389610707366004613cc6565b611560565b61038961071a366004613cc6565b6115ad565b61038961072d366004613ee3565b6115fa565b61073a611702565b6040516103939190614126565b610389610755366004613ee3565b611770565b610389610768366004613c9b565b611793565b61038961077b366004614148565b61179e565b61038961078e366004613ee3565b6118fa565b61045f6107a13660046141ef565b611907565b6103896107b4366004613ee3565b611a50565b6103896107c7366004613ee3565b611b35565b6103896107da366004613fc2565b611ce0565b6103896107ed366004613ee3565b611d29565b610389610800366004613efe565b611de4565b61045f610813366004614259565b611e8a565b61045f610826366004613d05565b611f77565b610389610839366004613fc2565b611fba565b5f61087061086a7f52c63247e1f47db19d5ce0460030c497f067ca4cebf71ba98eeadabe20bace025490565b5f611fd7565b905090565b60605f5f5160206149695f395f51905f525b9050806003018054610898906142b6565b80601f01602080910402602001604051908101604052809291908181526020018280546108c4906142b6565b801561090f5780601f106108e65761010080835404028352916020019161090f565b820191905f5260205f20905b8154815290600101906020018083116108f257829003601f168201915b505050505091505090565b5f610925825f611fd7565b92915050565b5f5f6109368561091a565b905061094633858584895f611ff8565b90505b9392505050565b5f3361095d81858561216d565b5060019392505050565b5f61092582600161217a565b61097c3361106a565b6109a05760405163078fe6e960e31b81523360048201526024015b60405180910390fd5b80156109b1576109ae61219c565b50565b6109ae6121fe565b6109c4338383612243565b5050565b5f336109d5858285612256565b6109e08585856122a0565b506001949350505050565b5f5f5160206149a95f395f51905f528054604051636657732f60e01b81526001600160a01b0391821660048201529192505f917f000000000000000000000000000000000000000000000000000000000000000090911690636657732f906024015f60405180830381865afa158015610a66573d5f5f3e3d5ffd5b505050506040513d5f823e601f3d908101601f19168201604052610a8d91908101906142f9565b90505f5b8151811015610ac457610abc828281518110610aaf57610aaf614388565b60200260200101516122fd565b600101610a91565b505050565b5f610870612432565b5f61087061246e565b5f807f0773e532dfede91f04b12a73d3d2acd361424f41f76b4fb79f090161e36b4e005b546001600160a01b031692915050565b5f5f7f00000000000000000000000000000000000000000000000000000000000000006001600160a01b03166335ea6a75610b48610adb565b6040516001600160e01b031960e084901b1681526001600160a01b0390911660048201526024016101e060405180830381865afa158015610b8b573d5f5f3e3d5ffd5b505050506040513d601f19601f82011682018060405250810190610baf9190614416565b805151909150600160381b161580610bce57508051516001603c1b1615155b80610be457508051516702000000000000001615155b15610bf157505f92915050565b8051515f9060301c60ff16610c0790600a614637565b82515160741c640fffffffff16610c1e9190614642565b9050805f03610c3157505f199392505050565b5f610cd2610c3d612477565b6b033b2e3c9fd0803ce800000060018661018001516001600160801b03168761010001516001600160a01b031663b1bf962d6040518163ffffffff1660e01b8152600401602060405180830381865afa158015610c9c573d5f5f3e3d5ffd5b505050506040513d601f19601f82011682018060405250810190610cc09190614659565b610cca9190614670565b929190612515565b905081811015610ceb57610ce68183614683565b610ced565b5f5b95945050505050565b5f5f7f00000000000000000000000000000000000000000000000000000000000000006001600160a01b031663fca513a86040518163ffffffff1660e01b8152600401602060405180830381865afa158015610d54573d5f5f3e3d5ffd5b505050506040513d601f19601f82011682018060405250810190610d789190614696565b6001600160a01b031663b3596f07610d8e610adb565b6040516001600160e01b031960e084901b1681526001600160a01b039091166004820152602401602060405180830381865afa158015610dd0573d5f5f3e3d5ffd5b505050506040513d601f19601f82011682018060405250810190610df49190614659565b9050610e16610e01612477565b82906b033b2e3c9fd0803ce80000005f612515565b91505090565b5f6001600160a01b038216610e3257505f919050565b6040805160018082528183019092525f5160206149a95f395f51905f52915f9190602080830190803683375050835482519293506001600160a01b0316918391505f90610e8157610e81614388565b6001600160a01b0392831660209182029290920101526040516370674ab960e01b81525f917f000000000000000000000000000000000000000000000000000000000000000016906370674ab990610ee190859030908a906004016146b1565b602060405180830381865afa158015610efc573d5f5f3e3d5ffd5b505050506040513d601f19601f82011682018060405250810190610f209190614659565b6040516370a0823160e01b815230600482015290915081906001600160a01b038716906370a0823190602401602060405180830381865afa158015610f67573d5f5f3e3d5ffd5b505050506040513d601f19601f82011682018060405250810190610f8b9190614659565b610ced9190614670565b5f805f5160206149a95f395f51905f52610aff565b5f5f610fb583610b0f565b905080841115610fde57828482604051633c8097d960e11b8152600401610997939291906146e3565b5f610fe885611793565b9050610ff63385878461254d565b949350505050565b6001600160a01b03165f9081527f4fad66563f105be0bff96185c9058c4934b504d3ba15ca31e86294f0b01fd202602052604090205460ff1690565b5f805f5160206149695f395f51905f525b6001600160a01b039093165f9081526020939093525050604090205490565b5f7f00000000000000000000000000000000000000000000000000000000000000006001600160a01b031663707cd7166040518163ffffffff1660e01b8152600401602060405180830381865afa1580156110c7573d5f5f3e3d5ffd5b505050506040513d601f19601f820116820180604052508101906110eb9190614696565b604051631280795b60e11b81526001600160a01b0384811660048301529190911690632500f2b690602401602060405180830381865afa158015611131573d5f5f3e3d5ffd5b505050506040513d601f19601f820116820180604052508101906109259190614704565b5f6109258261255b565b5f60608082808083815f5160206149895f395f51905f52805490915015801561118a57506001810154155b6111ce5760405162461bcd60e51b81526020600482015260156024820152741152540dcc4c8e88155b9a5b9a5d1a585b1a5e9959605a1b6044820152606401610997565b6111d6612565565b6111de6125a3565b604080515f80825260208201909252600f60f81b9c939b5091995046985030975095509350915050565b6109ae333383612243565b7ff0c57e16840df040f15088dc2f81fe391c3923bec73e23a9662efc9c229c6a008054600160401b810460ff1615906001600160401b03165f811580156112575750825b90505f826001600160401b031660011480156112725750303b155b905081158015611280575080155b1561129e5760405163f92ee8a960e01b815260040160405180910390fd5b845467ffffffffffffffff1916600117855583156112c857845460ff60401b1916600160401b1785555b61133989898080601f0160208091040260200160405190810160405280939291908181526020018383808284375f9201919091525050604080516020601f8d018190048102820181019092528b815292508b91508a90819084018382808284375f920191909152506125b992505050565b61137789898080601f0160208091040260200160405190810160405280939291908181526020018383808284375f920191909152506125cb92505050565b6113808a6125f6565b6113898a612607565b611391612624565b83156113d757845460ff60401b19168555604051600181527fc7f505b2f371ae2175ee4913f4499e1f2633a7b5936321eed1cdaeb6115181d29060200160405180910390a15b50505050505050505050565b5f5f6113ee83611770565b9050808411156114175782848260405163284ff66760e01b8152600401610997939291906146e3565b5f61142185611554565b9050610ff63385838861254d565b7f52c63247e1f47db19d5ce0460030c497f067ca4cebf71ba98eeadabe20bace0480546060915f5160206149695f395f51905f5291610898906142b6565b5f805f5160206149495f395f51905f52610aff565b61148a6114c6565b6001600160a01b0316336001600160a01b0316146114bb57604051633a02626960e01b815260040160405180910390fd5b610ac4838383612636565b5f7f00000000000000000000000000000000000000000000000000000000000000006001600160a01b0316630e67178c6040518163ffffffff1660e01b8152600401602060405180830381865afa158015611523573d5f5f3e3d5ffd5b505050506040513d601f19601f820116820180604052508101906108709190614696565b5f3361095d8185856122a0565b5f610925826001611fd7565b5f5f61156b836118fa565b90508085111561159457828582604051633fa733bb60e21b8152600401610997939291906146e3565b5f61159e86610967565b9050610ced33868689856126c4565b5f5f6115b883611b35565b9050808511156115e157828582604051632e52afbb60e21b8152600401610997939291906146e3565b5f6115eb8661091a565b9050610ced338686848a6126c4565b5f6001600160a01b03821661161057505f919050565b6040805160018082528183019092525f5160206149a95f395f51905f52915f9190602080830190803683375050835482519293506001600160a01b0316918391505f9061165f5761165f614388565b6001600160a01b0392831660209182029290920101526040516308d8c03760e21b81527f00000000000000000000000000000000000000000000000000000000000000009091169063236300dc906116c29084905f199030908a9060040161471f565b6020604051808303815f875af11580156116de573d5f5f3e3d5ffd5b505050506040513d601f19601f82011682018060405250810190610ff69190614659565b60605f5f5160206149a95f395f51905f526001810180546040805160208084028201810190925282815293945083018282801561090f57602002820191905f5260205f20905b81546001600160a01b0316815260019091019060200180831161174857505050505091505090565b5f5f61177b5f610b0f565b90505f19810361178e57505f1992915050565b610949815b5f610925825f61217a565b5f5f826117b2576117ad61146d565b6117ba565b6117ba610adb565b90506001600160a01b03811663d505accf33865160208801516040808a0151905160e086901b6001600160e01b03191681526001600160a01b039094166004850152306024850152604484018d9052606484018b905260ff909216608484015260a483015260c482015260e4015f604051808303815f87803b15801561183e575f5ffd5b505af192505050801561184f575060015b505f6001600160a01b0382166370a08231336040516001600160e01b031960e084901b1681526001600160a01b039091166004820152602401602060405180830381865afa1580156118a3573d5f5f3e3d5ffd5b505050506040513d601f19601f820116820180604052508101906118c79190614659565b9050808811156118d5578097505b5f6118df89611793565b90506118ee33898b84896126da565b98975050505050505050565b5f6109256103bf83611b35565b8342111561192b5760405163313c898160e11b815260048101859052602401610997565b5f7f6e71edae12b1b97f4d1f60370fef10105fa2faae0126114a169c64845d6126c98888886119958c6001600160a01b03165f9081527f5ab42ced628888259c08ac98db1eb0cf702fc1501344311d8b100cd1bfe4bb006020526040902080546001810190915590565b6040805160208101969096526001600160a01b0394851690860152929091166060840152608083015260a082015260c0810186905260e0016040516020818303038152906040528051906020012090505f6119ef82612834565b90505f6119fe82878787612860565b9050896001600160a01b0316816001600160a01b031614611a45576040516325c0072360e11b81526001600160a01b0380831660048301528b166024820152604401610997565b6113d78a8a8a61216d565b5f5f611a5a61146d565b9050806001600160a01b0316836001600160a01b031603611b2c575f611aa8611aa17f52c63247e1f47db19d5ce0460030c497f067ca4cebf71ba98eeadabe20bace025490565b6001611fd7565b6040516370a0823160e01b81523060048201529091505f906001600160a01b038416906370a0823190602401602060405180830381865afa158015611aef573d5f5f3e3d5ffd5b505050506040513d601f19601f82011682018060405250810190611b139190614659565b9050818111611b22575f610ced565b610ced8282614683565b505f1992915050565b5f5f7f00000000000000000000000000000000000000000000000000000000000000006001600160a01b031663c44b11f7611b6e610adb565b6040516001600160e01b031960e084901b1681526001600160a01b039091166004820152602401602060405180830381865afa158015611bb0573d5f5f3e3d5ffd5b505050506040513d601f19601f82011682018060405250810190611bd49190614757565b9050611be68151600160381b16151590565b1580611bf8575080516001603c1b1615155b15611c0557505f92915050565b5f7f00000000000000000000000000000000000000000000000000000000000000006001600160a01b0316636fb07f96611c3d610adb565b6040516001600160e01b031960e084901b1681526001600160a01b039091166004820152602401602060405180830381865afa158015611c7f573d5f5f3e3d5ffd5b505050506040513d601f19601f82011682018060405250810190611ca39190614771565b90505f611cb8826001600160801b0316611793565b90505f611cc48661103a565b905080821015611cd45781611cd6565b805b9695505050505050565b6001600160a01b039182165f9081527f52c63247e1f47db19d5ce0460030c497f067ca4cebf71ba98eeadabe20bace016020908152604080832093909416825291909152205490565b5f6001600160a01b038216611d3f57505f919050565b5f5160206149a95f395f51905f5280546040805163886fe70b60e01b81526001600160a01b039283166004820152858316602482015281515f937f0000000000000000000000000000000000000000000000000000000000000000169263886fe70b92604480820193918290030181865afa158015611dc0573d5f5f3e3d5ffd5b505050506040513d601f19601f82011682018060405250810190610ced919061478a565b5f5f611dee61146d565b6001600160a01b03166370a08231336040516001600160e01b031960e084901b1681526001600160a01b039091166004820152602401602060405180830381865afa158015611e3f573d5f5f3e3d5ffd5b505050506040513d601f19601f82011682018060405250810190611e639190614659565b905080841115611e71578093505b5f611e7b85611793565b9050610ff6338587845f6126da565b336001600160a01b0384168114801590611f3d5750604051631d36517b60e21b81526001600160a01b0385811660048301527f000000000000000000000000000000000000000000000000000000000000000016906374d945ec90602401602060405180830381865afa158015611f03573d5f5f3e3d5ffd5b505050506040513d601f19601f82011682018060405250810190611f279190614696565b6001600160a01b0316816001600160a01b031614155b15611f665760405163f0ae475760e01b81526001600160a01b0382166004820152602401610997565b611f71848484612243565b50505050565b611f7f6114c6565b6001600160a01b0316336001600160a01b031614611fb057604051633a02626960e01b815260040160405180910390fd5b6109c4828261288c565b5f6109498383611fc98661103a565b611fd286611d29565b61295b565b5f610949611fe3612477565b84906b033b2e3c9fd0803ce800000085612515565b836001600160a01b0316866001600160a01b03161461201c5761201c848784612256565b6120268483612a8b565b80156120df577f00000000000000000000000000000000000000000000000000000000000000006001600160a01b03166369328dec612063610adb565b6040516001600160e01b031960e084901b1681526001600160a01b0391821660048201526024810187905290881660448201526064016020604051808303815f875af11580156120b5573d5f5f3e3d5ffd5b505050506040513d601f19601f820116820180604052508101906120d99190614659565b50612105565b5f5160206149495f395f51905f528054612103906001600160a01b03168786612abf565b505b836001600160a01b0316856001600160a01b0316876001600160a01b03167ffbde797d201c681b91056529119e0b02407c7bb96a4a2c75c01fc9667232c8db868660405161215d929190918252602082015260400190565b60405180910390a4505050505050565b610ac48383836001612b1e565b5f6109496b033b2e3c9fd0803ce8000000612193612477565b85919085612515565b6121a4612bf2565b5f5160206149c95f395f51905f52805460ff191660011781557f62e78cea01bee320cd4e420270b5ea74000d11b0c9f74754ebdbfc544b05a258335b6040516001600160a01b03909116815260200160405180910390a150565b612206612c22565b5f5160206149c95f395f51905f52805460ff191681557f5db9ee0a495bf2e6ff9c91a7834c1ba4fdd244a5e8aa4e537bd38aeae4b073aa336121e0565b61224b612bf2565b610ac4838383612c51565b5f6122618484611ce0565b90505f198114611f71578181101561229257828183604051637dc7a0d960e11b8152600401610997939291906146e3565b611f7184848484035f612b1e565b6001600160a01b0383166122c957604051634b637e8f60e11b81525f6004820152602401610997565b6001600160a01b0382166122f25760405163ec442f0560e01b81525f6004820152602401610997565b610ac4838383612f02565b61230681610ffe565b1561230e5750565b5f61231882611d29565b7f4fad66563f105be0bff96185c9058c4934b504d3ba15ca31e86294f0b01fd2018054600180820183555f929092527f609955113d5a7cf5dbc30472c0ddb57fd349f65c38cbacc4356dc0436fda85e60180546001600160a01b0319166001600160a01b038616179055604080518082019091529081529091505f5160206149a95f395f51905f5290602081016123ae84612f15565b6001600160f81b039081169091526001600160a01b0385165f818152600285016020908152604091829020855195909101519093166101000293151560ff169390931790915590517fa8f4dd7e60441ca288d902a295362002a0255a46560b24825821b36716d6fe5b906124259085815260200190565b60405180910390a2505050565b5f807f0773e532dfede91f04b12a73d3d2acd361424f41f76b4fb79f090161e36b4e0090505f8154610e169190600160a01b900460ff166147ac565b5f610870612f4c565b5f7f00000000000000000000000000000000000000000000000000000000000000006001600160a01b031663d15e00536124af610adb565b6040516001600160e01b031960e084901b1681526001600160a01b039091166004820152602401602060405180830381865afa1580156124f1573d5f5f3e3d5ffd5b505050506040513d601f19601f820116820180604052508101906108709190614659565b5f61254261252283612fbf565b801561253d57505f8480612538576125386147c5565b868809115b151590565b610f8b868686612feb565b611f718484848460016126da565b5f610925826130a1565b7fa16a46d94261c7517cc8ff89f61c0ce93598e3c849801011dee649a6a557d10280546060915f5160206149895f395f51905f5291610898906142b6565b60605f5f5160206149895f395f51905f52610887565b6125c16130c9565b6109c48282613112565b6125d36130c9565b6109ae81604051806040016040528060018152602001603160f81b815250613162565b6125fe6130c9565b6109ae816131c1565b61260f6130c9565b5f61261982613223565b90506109c4816133af565b61262c6130c9565b612634613432565b565b5f61264084611a50565b905081811161264f5780612651565b815b91506126676001600160a01b0385168484612abf565b826001600160a01b0316846001600160a01b0316336001600160a01b03167fc7af665d489507e14ae25ac7ab0030fc7f570869610bdd32117ea56b60ae5c61856040516126b691815260200190565b60405180910390a450505050565b6126d385858585856001611ff8565b5050505050565b815f036126fa5760405163322fb14760e11b815260040160405180910390fd5b80156127a6575f612709610adb565b905061271781873087613452565b60405163e8eda9df60e01b81526001600160a01b038281166004830152602482018690523060448301525f60648301527f0000000000000000000000000000000000000000000000000000000000000000169063e8eda9df906084015f604051808303815f87803b15801561278a575f5ffd5b505af115801561279c573d5f5f3e3d5ffd5b50505050506127cd565b5f5160206149495f395f51905f5280546127cb906001600160a01b0316873087613452565b505b6127d7848361348b565b836001600160a01b0316856001600160a01b03167fdcbc1c05240f31ff3ad067ef1ee35ce4997762752e3a095284754544f4c709d78585604051612825929190918252602082015260400190565b60405180910390a35050505050565b5f61092561284061246e565b8360405161190160f01b8152600281019290925260228201526042902090565b5f5f5f5f612870888888886134bf565b9250925092506128808282613587565b50909695505050505050565b604080515f808252602082019092526001600160a01b0384169083906040516128b591906147d9565b5f6040518083038185875af1925050503d805f81146128ef576040519150601f19603f3d011682016040523d82523d5f602084013e6128f4565b606091505b505090508061291657604051630db2c7f160e31b815260040160405180910390fd5b6040518281526001600160a01b0384169033907fb7c602059992183c7b767c08204223afc99f1895fd175adf9ece23ce9f5bb8b79060200160405180910390a3505050565b6001600160a01b0383165f9081527f4fad66563f105be0bff96185c9058c4934b504d3ba15ca31e86294f0b01fd2026020908152604080832081518083019092525460ff811615158083526101009091046001600160f81b0316928201929092525f5160206149a95f395f51905f52916129f357604051632926c75960e21b81526001600160a01b0387166004820152602401610997565b6001600160a01b038088165f9081526003840160209081526040808320938a168352928152908290208251808401909352546001600160801b03808216808552600160801b9092041691830191909152612a7390879015612a5e5782516001600160801b0316612a64565b83602001515b6001600160f81b03168761363f565b81602001516001600160801b03166118ee9190614670565b6001600160a01b038216612ab457604051634b637e8f60e11b81525f6004820152602401610997565b6109c4825f83612f02565b6040516001600160a01b03838116602483015260448201839052610ac491859182169063a9059cbb906064015b604051602081830303815290604052915060e01b6020820180516001600160e01b03838183161783525050505061367f565b5f5160206149695f395f51905f526001600160a01b038516612b555760405163e602df0560e01b81525f6004820152602401610997565b6001600160a01b038416612b7e57604051634a1406b160e11b81525f6004820152602401610997565b6001600160a01b038086165f908152600183016020908152604080832093881683529290522083905581156126d357836001600160a01b0316856001600160a01b03167f8c5be1e5ebec7d5bd14f71427d1e84f3dd0314c0f7b2291e5b200ac8c7c3b9258560405161282591815260200190565b5f5160206149c95f395f51905f525460ff16156126345760405163d93c066560e01b815260040160405180910390fd5b5f5160206149c95f395f51905f525460ff1661263457604051638dfc202b60e01b815260040160405180910390fd5b5f5b8151811015611f71575f6001600160a01b0316828281518110612c7857612c78614388565b60200260200101516001600160a01b03160315612efa575f612cb2838381518110612ca557612ca5614388565b6020026020010151611d29565b90505f612cbe8661103a565b90505f612ce687868681518110612cd757612cd7614388565b6020026020010151848661295b565b90505f858581518110612cfb57612cfb614388565b60209081029190910101516040516370a0823160e01b81523060048201526001600160a01b03909116906370a0823190602401602060405180830381865afa158015612d49573d5f5f3e3d5ffd5b505050506040513d601f19601f82011682018060405250810190612d6d9190614659565b90505f81831115612da757612d9a878781518110612d8d57612d8d614388565b60200260200101516115fa565b612da49083614670565b91505b81831115612dbf57612db98284614683565b90508192505b8215612ef4575f5160206149a95f395f51905f52612ddc826136eb565b6001600160a01b038b165f90815260038301602052604081208a519091908b908b908110612e0c57612e0c614388565b6020908102919091018101516001600160a01b031682528101919091526040015f2080546001600160801b03928316600160801b029216919091179055612e52866136eb565b6001600160a01b038b165f90815260038301602052604081208a519091908b908b908110612e8257612e82614388565b60200260200101516001600160a01b03166001600160a01b031681526020019081526020015f205f015f6101000a8154816001600160801b0302191690836001600160801b03160217905550612ef2888881518110612ee357612ee3614388565b60200260200101518a86612abf565b505b50505050505b600101612c53565b612f0a612bf2565b610ac483838361371e565b5f6001600160f81b03821115612f48576040516306dfcc6560e41b815260f8600482015260248101839052604401610997565b5090565b5f7f8b73c3c69bb8fe3d512ecc4cf759cc79239f7b179b0ffacaa9a75d522b39400f612f766137da565b612f7e613842565b60408051602081019490945283019190915260608201524660808201523060a082015260c00160405160208183030381529060405280519060200120905090565b5f6002826003811115612fd457612fd46147f4565b612fde9190614808565b60ff166001149050919050565b5f838302815f1985870982811083820303915050805f0361301f57838281613015576130156147c5565b0492505050610949565b808411613036576130366003851502601118613884565b5f848688095f868103871696879004966002600389028118808a02820302808a02820302808a02820302808a02820302808a02820302808a02909103029181900381900460010186841190950394909402919094039290920491909117919091029150509392505050565b5f807f5ab42ced628888259c08ac98db1eb0cf702fc1501344311d8b100cd1bfe4bb0061104b565b7ff0c57e16840df040f15088dc2f81fe391c3923bec73e23a9662efc9c229c6a0054600160401b900460ff1661263457604051631afcd79f60e31b815260040160405180910390fd5b61311a6130c9565b5f5160206149695f395f51905f527f52c63247e1f47db19d5ce0460030c497f067ca4cebf71ba98eeadabe20bace03613153848261486d565b5060048101611f71838261486d565b61316a6130c9565b5f5160206149895f395f51905f527fa16a46d94261c7517cc8ff89f61c0ce93598e3c849801011dee649a6a557d1026131a3848261486d565b50600381016131b2838261486d565b505f8082556001909101555050565b6131c96130c9565b5f5160206149a95f395f51905f5280546001600160a01b0319166001600160a01b038381169190911782557f000000000000000000000000000000000000000000000000000000000000000016156109c4576109c46109eb565b5f61322c6130c9565b5f826001600160a01b0316637535d2466040518163ffffffff1660e01b8152600401602060405180830381865afa158015613269573d5f5f3e3d5ffd5b505050506040513d601f19601f8201168201806040525081019061328d9190614696565b90507f00000000000000000000000000000000000000000000000000000000000000006001600160a01b0316816001600160a01b0316146132ec5760405163d0103ae560e01b81526001600160a01b0382166004820152602401610997565b5f836001600160a01b031663b16a19de6040518163ffffffff1660e01b8152600401602060405180830381865afa158015613329573d5f5f3e3d5ffd5b505050506040513d601f19601f8201168201806040525081019061334d9190614696565b90505f5f5160206149495f395f51905f5280546001600160a01b0319166001600160a01b03871617815590506133a5827f00000000000000000000000000000000000000000000000000000000000000005f19613895565b509150505b919050565b6133b76130c9565b7f0773e532dfede91f04b12a73d3d2acd361424f41f76b4fb79f090161e36b4e005f806133e384613924565b91509150816133f35760126133f5565b805b83546001600160a81b031916600160a01b60ff92909216919091026001600160a01b031916176001600160a01b0394909416939093179091555050565b61343a6130c9565b5f5160206149c95f395f51905f52805460ff19169055565b6040516001600160a01b038481166024830152838116604483015260648201839052611f719186918216906323b872dd90608401612aec565b6001600160a01b0382166134b45760405163ec442f0560e01b81525f6004820152602401610997565b6109c45f8383612f02565b5f80807f7fffffffffffffffffffffffffffffff5d576e7357a4501ddfe92f46681b20a08411156134f857505f9150600390508261357d565b604080515f808252602082018084528a905260ff891692820192909252606081018790526080810186905260019060a0016020604051602081039080840390855afa158015613549573d5f5f3e3d5ffd5b5050604051601f1901519150506001600160a01b03811661357457505f92506001915082905061357d565b92505f91508190505b9450945094915050565b5f82600381111561359a5761359a6147f4565b036135a3575050565b60018260038111156135b7576135b76147f4565b036135d55760405163f645eedf60e01b815260040160405180910390fd5b60028260038111156135e9576135e96147f4565b0361360a5760405163fce698f760e01b815260048101829052602401610997565b600382600381111561361e5761361e6147f4565b036109c4576040516335e2f38360e21b815260048101829052602401610997565b5f835f0361364e57505f610949565b613656610ac9565b61366190600a614927565b61366b8484614683565b6136759086614642565b6109469190614935565b5f5f60205f8451602086015f885af18061369e576040513d5f823e3d81fd5b50505f513d915081156136b55780600114156136c2565b6001600160a01b0384163b155b15611f7157604051635274afe760e01b81526001600160a01b0385166004820152602401610997565b5f6001600160801b03821115612f48576040516306dfcc6560e41b81526080600482015260248101839052604401610997565b5f5160206149a95f395f51905f525f5b60018201548110156137ce575f82600101828154811061375057613750614388565b5f9182526020822001546001600160a01b0316915061376e82611d29565b90506001600160a01b0387161561378a5761378a8782846139fa565b6001600160a01b038616158015906137b45750856001600160a01b0316876001600160a01b031614155b156137c4576137c48682846139fa565b505060010161372e565b50611f71848484613ad1565b5f5f5160206149895f395f51905f52816137f2612565565b80519091501561380a57805160209091012092915050565b81548015613819579392505050565b7fc5d2460186f7233c927e7db2dcc703c0e500b653ca82273b7bfad8045d85a470935050505090565b5f5f5160206149895f395f51905f528161385a6125a3565b80519091501561387257805160209091012092915050565b60018201548015613819579392505050565b634e487b715f52806020526024601cfd5b604080516001600160a01b038416602482015260448082018490528251808303909101815260649091019091526020810180516001600160e01b031663095ea7b360e01b1790526138e68482613bf7565b611f71576040516001600160a01b0384811660248301525f604483015261391a91869182169063095ea7b390606401612aec565b611f71848261367f565b60408051600481526024810182526020810180516001600160e01b031663313ce56760e01b17905290515f918291829182916001600160a01b0387169161396a916147d9565b5f60405180830381855afa9150503d805f81146139a2576040519150601f19603f3d011682016040523d82523d5f602084013e6139a7565b606091505b50915091508180156139bb57506020815110155b156139ee575f818060200190518101906139d59190614659565b905060ff81116139ec576001969095509350505050565b505b505f9485945092505050565b5f5160206149a95f395f51905f525f613a128561103a565b90508015613a7057613a2e613a298685848861295b565b6136eb565b6001600160a01b038087165f908152600385016020908152604080832093881683529290522080546001600160801b03928316600160801b0292169190911790555b613a79846136eb565b6001600160a01b039586165f9081526003939093016020908152604080852095909716845293909352509290922080546fffffffffffffffffffffffffffffffff19166001600160801b039093169290921790915550565b5f5160206149695f395f51905f526001600160a01b038416613b0b5781816002015f828254613b009190614670565b90915550613b689050565b6001600160a01b0384165f9081526020829052604090205482811015613b4a5784818460405163391434e360e21b8152600401610997939291906146e3565b6001600160a01b0385165f9081526020839052604090209083900390555b6001600160a01b038316613b86576002810180548390039055613ba4565b6001600160a01b0383165f9081526020829052604090208054830190555b826001600160a01b0316846001600160a01b03167fddf252ad1be2c89b69c2b068fc378daa952ba7f163c4a11628f55a4df523b3ef84604051613be991815260200190565b60405180910390a350505050565b5f5f5f5f60205f8651602088015f8a5af192503d91505f519050828015611cd657508115613c285780600114611cd6565b50505050506001600160a01b03163b151590565b5f5b83811015613c56578181015183820152602001613c3e565b50505f910152565b5f8151808452613c75816020860160208601613c3c565b601f01601f19169290920160200192915050565b602081525f6109496020830184613c5e565b5f60208284031215613cab575f5ffd5b5035919050565b6001600160a01b03811681146109ae575f5ffd5b5f5f5f60608486031215613cd8575f5ffd5b833592506020840135613cea81613cb2565b91506040840135613cfa81613cb2565b809150509250925092565b5f5f60408385031215613d16575f5ffd5b8235613d2181613cb2565b946020939093013593505050565b80151581146109ae575f5ffd5b5f60208284031215613d4c575f5ffd5b813561094981613d2f565b634e487b7160e01b5f52604160045260245ffd5b6040516101e081016001600160401b0381118282101715613d8e57613d8e613d57565b60405290565b604051601f8201601f191681016001600160401b0381118282101715613dbc57613dbc613d57565b604052919050565b5f6001600160401b03821115613ddc57613ddc613d57565b5060051b60200190565b5f82601f830112613df5575f5ffd5b8135613e08613e0382613dc4565b613d94565b8082825260208201915060208360051b860101925085831115613e29575f5ffd5b602085015b83811015613e4f578035613e4181613cb2565b835260209283019201613e2e565b5095945050505050565b5f5f60408385031215613e6a575f5ffd5b8235613e7581613cb2565b915060208301356001600160401b03811115613e8f575f5ffd5b613e9b85828601613de6565b9150509250929050565b5f5f5f60608486031215613eb7575f5ffd5b8335613ec281613cb2565b92506020840135613ed281613cb2565b929592945050506040919091013590565b5f60208284031215613ef3575f5ffd5b813561094981613cb2565b5f5f60408385031215613f0f575f5ffd5b823591506020830135613f2181613cb2565b809150509250929050565b60ff60f81b8816815260e060208201525f613f4a60e0830189613c5e565b8281036040840152613f5c8189613c5e565b606084018890526001600160a01b038716608085015260a0840186905283810360c0850152845180825260208087019350909101905f5b81811015613fb1578351835260209384019390920191600101613f93565b50909b9a5050505050505050505050565b5f5f60408385031215613fd3575f5ffd5b8235613fde81613cb2565b91506020830135613f2181613cb2565b5f60208284031215613ffe575f5ffd5b81356001600160401b03811115614013575f5ffd5b610ff684828501613de6565b5f5f83601f84011261402f575f5ffd5b5081356001600160401b03811115614045575f5ffd5b60208301915083602082850101111561405c575f5ffd5b9250929050565b5f5f5f5f5f60608688031215614077575f5ffd5b853561408281613cb2565b945060208601356001600160401b0381111561409c575f5ffd5b6140a88882890161401f565b90955093505060408601356001600160401b038111156140c6575f5ffd5b6140d28882890161401f565b969995985093965092949392505050565b5f8151808452602084019350602083015f5b8281101561411c5781516001600160a01b03168652602095860195909101906001016140f5565b5093949350505050565b602081525f61094960208301846140e3565b803560ff811681146133aa575f5ffd5b5f5f5f5f5f85870360e081121561415d575f5ffd5b86359550602087013561416f81613cb2565b9450604087013593506060605f1982011215614189575f5ffd5b50604051606081016001600160401b03811182821017156141ac576141ac613d57565b6040526141bb60608801614138565b81526080870135602082015260a08701356040820152915060c08601356141e181613d2f565b809150509295509295909350565b5f5f5f5f5f5f5f60e0888a031215614205575f5ffd5b873561421081613cb2565b9650602088013561422081613cb2565b9550604088013594506060880135935061423c60808901614138565b9699959850939692959460a0840135945060c09093013592915050565b5f5f5f6060848603121561426b575f5ffd5b833561427681613cb2565b9250602084013561428681613cb2565b915060408401356001600160401b038111156142a0575f5ffd5b6142ac86828701613de6565b9150509250925092565b600181811c908216806142ca57607f821691505b6020821081036142e857634e487b7160e01b5f52602260045260245ffd5b50919050565b80516133aa81613cb2565b5f60208284031215614309575f5ffd5b81516001600160401b0381111561431e575f5ffd5b8201601f8101841361432e575f5ffd5b805161433c613e0382613dc4565b8082825260208201915060208360051b85010192508683111561435d575f5ffd5b6020840193505b82841015611cd657835161437781613cb2565b825260209384019390910190614364565b634e487b7160e01b5f52603260045260245ffd5b5f602082840312156143ac575f5ffd5b604051602081016001600160401b03811182821017156143ce576143ce613d57565b6040529151825250919050565b80516001600160801b03811681146133aa575f5ffd5b805164ffffffffff811681146133aa575f5ffd5b805161ffff811681146133aa575f5ffd5b5f6101e0828403128015614428575f5ffd5b50614431613d6b565b61443b848461439c565b8152614449602084016143db565b602082015261445a604084016143db565b604082015261446b606084016143db565b606082015261447c608084016143db565b608082015261448d60a084016143db565b60a082015261449e60c084016143f1565b60c08201526144af60e08401614405565b60e08201526144c161010084016142ee565b6101008201526144d461012084016142ee565b6101208201526144e761014084016142ee565b6101408201526144fa61016084016142ee565b61016082015261450d61018084016143db565b6101808201526145206101a084016143db565b6101a08201526145336101c084016143db565b6101c08201529392505050565b634e487b7160e01b5f52601160045260245ffd5b6001815b600184111561458f5780850481111561457357614573614540565b600184161561458157908102905b60019390931c928002614558565b935093915050565b5f826145a557506001610925565b816145b157505f610925565b81600181146145c757600281146145d1576145ed565b6001915050610925565b60ff8411156145e2576145e2614540565b50506001821b610925565b5060208310610133831016604e8410600b8410161715614610575081810a610925565b61461c5f198484614554565b805f190482111561462f5761462f614540565b029392505050565b5f6109498383614597565b808202811582820484141761092557610925614540565b5f60208284031215614669575f5ffd5b5051919050565b8082018082111561092557610925614540565b8181038181111561092557610925614540565b5f602082840312156146a6575f5ffd5b815161094981613cb2565b606081525f6146c360608301866140e3565b6001600160a01b0394851660208401529290931660409091015292915050565b6001600160a01b039390931683526020830191909152604082015260600190565b5f60208284031215614714575f5ffd5b815161094981613d2f565b608081525f61473160808301876140e3565b6020830195909552506001600160a01b0392831660408201529116606090910152919050565b5f60208284031215614767575f5ffd5b610949838361439c565b5f60208284031215614781575f5ffd5b610949826143db565b5f5f6040838503121561479b575f5ffd5b505080516020909101519092909150565b60ff818116838216019081111561092557610925614540565b634e487b7160e01b5f52601260045260245ffd5b5f82516147ea818460208701613c3c565b9190910192915050565b634e487b7160e01b5f52602160045260245ffd5b5f60ff83168061481a5761481a6147c5565b8060ff84160691505092915050565b601f821115610ac457805f5260205f20601f840160051c8101602085101561484e5750805b601f840160051c820191505b818110156126d3575f815560010161485a565b81516001600160401b0381111561488657614886613d57565b61489a8161489484546142b6565b84614829565b6020601f8211600181146148cc575f83156148b55750848201515b5f19600385901b1c1916600184901b1784556126d3565b5f84815260208120601f198516915b828110156148fb57878501518255602094850194600190920191016148db565b508482101561491857868401515f19600387901b60f8161c191681555b50505050600190811b01905550565b5f61094960ff841683614597565b5f82614943576149436147c5565b50049056fe55029d3f54709e547ed74b2fc842d93107ab1490ab7555dd9dd0bf645110190052c63247e1f47db19d5ce0460030c497f067ca4cebf71ba98eeadabe20bace00a16a46d94261c7517cc8ff89f61c0ce93598e3c849801011dee649a6a557d1004fad66563f105be0bff96185c9058c4934b504d3ba15ca31e86294f0b01fd200cd5ed15c6e187e77e9aee88184c21f4f2182ab5827cb3b7e07fbedcd63f03300a164736f6c634300081b000a","linkReferences":{}},"methodIdentifiers":{"DOMAIN_SEPARATOR()":"3644e515","INCENTIVES_CONTROLLER()":"10d0ab22","POOL()":"7535d246","POOL_ADDRESSES_PROVIDER()":"311cd5a4","RAY()":"552033c4","aToken()":"a0c1f15e","allowance(address,address)":"dd62ed3e","approve(address,uint256)":"095ea7b3","asset()":"38d52e0f","balanceOf(address)":"70a08231","canPause(address)":"75b24ebe","claimRewards(address,address[])":"2026ffa3","claimRewardsOnBehalf(address,address,address[])":"ee0fc6d3","claimRewardsToSelf(address[])":"8daaf5aa","collectAndUpdateRewards(address)":"bcd17848","convertToAssets(uint256)":"07a2d13a","convertToShares(uint256)":"c6e6f592","decimals()":"313ce567","deposit(uint256,address)":"6e553f65","depositATokens(uint256,address)":"e25ec349","depositWithPermit(uint256,address,uint256,(uint8,bytes32,bytes32),bool)":"cabc777e","eip712Domain()":"84b0196e","emergencyEtherTransfer(address,uint256)":"eed88b8d","emergencyTokenTransfer(address,address,uint256)":"a3d5b255","getClaimableRewards(address,address)":"f56f4f0f","getCurrentRewardsIndex(address)":"de9cee98","getReferenceAsset()":"68b836a7","getTotalClaimableRewards(address)":"60d8fdd8","getUnclaimedRewards(address,address)":"86894b29","initialize(address,string,string)":"90657147","isRegisteredRewardToken(address)":"6fe0b5a5","latestAnswer()":"50d25bcd","maxDeposit(address)":"402d267d","maxMint(address)":"c63d75b6","maxRedeem(address)":"d905777e","maxRescue(address)":"d7408715","maxWithdraw(address)":"ce96cb77","mint(uint256,address)":"94bf804d","name()":"06fdde03","nonces(address)":"7ecebe00","paused()":"5c975abb","permit(address,address,uint256,uint256,uint8,bytes32,bytes32)":"d505accf","previewDeposit(uint256)":"ef8b30f7","previewMint(uint256)":"b3d7f6b9","previewRedeem(uint256)":"4cdad506","previewWithdraw(uint256)":"0a28a477","redeem(uint256,address,address)":"ba087652","redeemATokens(uint256,address,address)":"090edf9a","refreshRewardTokens()":"2f813b0d","rewardTokens()":"c2b18aa0","setPaused(bool)":"16c38b3c","symbol()":"95d89b41","totalAssets()":"01e1d114","totalSupply()":"18160ddd","transfer(address,uint256)":"a9059cbb","transferFrom(address,address,uint256)":"23b872dd","whoCanRescue()":"a4757b0f","withdraw(uint256,address,address)":"b460af94"},"id":106}