{"abi":[{"type":"constructor","inputs":[{"name":"addressesProvider","type":"address","internalType":"contract IPoolAddressesProvider"},{"name":"augustusRegistry","type":"address","internalType":"contract IParaSwapAugustusRegistry"},{"name":"owner","type":"address","internalType":"address"}],"stateMutability":"nonpayable"},{"type":"function","name":"ADDRESSES_PROVIDER","inputs":[],"outputs":[{"name":"","type":"address","internalType":"contract IPoolAddressesProvider"}],"stateMutability":"view"},{"type":"function","name":"AUGUSTUS_REGISTRY","inputs":[],"outputs":[{"name":"","type":"address","internalType":"contract IParaSwapAugustusRegistry"}],"stateMutability":"view"},{"type":"function","name":"MAX_SLIPPAGE_PERCENT","inputs":[],"outputs":[{"name":"","type":"uint256","internalType":"uint256"}],"stateMutability":"view"},{"type":"function","name":"ORACLE","inputs":[],"outputs":[{"name":"","type":"address","internalType":"contract IPriceOracleGetter"}],"stateMutability":"view"},{"type":"function","name":"POOL","inputs":[],"outputs":[{"name":"","type":"address","internalType":"contract IPool"}],"stateMutability":"view"},{"type":"function","name":"executeOperation","inputs":[{"name":"","type":"address","internalType":"address"},{"name":"","type":"uint256","internalType":"uint256"},{"name":"","type":"uint256","internalType":"uint256"},{"name":"","type":"address","internalType":"address"},{"name":"","type":"bytes","internalType":"bytes"}],"outputs":[{"name":"","type":"bool","internalType":"bool"}],"stateMutability":"nonpayable"},{"type":"function","name":"owner","inputs":[],"outputs":[{"name":"","type":"address","internalType":"address"}],"stateMutability":"view"},{"type":"function","name":"renounceOwnership","inputs":[],"outputs":[],"stateMutability":"nonpayable"},{"type":"function","name":"rescueTokens","inputs":[{"name":"token","type":"address","internalType":"contract IERC20"}],"outputs":[],"stateMutability":"nonpayable"},{"type":"function","name":"transferOwnership","inputs":[{"name":"newOwner","type":"address","internalType":"address"}],"outputs":[],"stateMutability":"nonpayable"},{"type":"function","name":"withdrawAndSwap","inputs":[{"name":"assetToSwapFrom","type":"address","internalType":"contract IERC20Detailed"},{"name":"assetToSwapTo","type":"address","internalType":"contract IERC20Detailed"},{"name":"amountToSwap","type":"uint256","internalType":"uint256"},{"name":"minAmountToReceive","type":"uint256","internalType":"uint256"},{"name":"swapAllBalanceOffset","type":"uint256","internalType":"uint256"},{"name":"swapCalldata","type":"bytes","internalType":"bytes"},{"name":"augustus","type":"address","internalType":"address"},{"name":"permitParams","type":"tuple","internalType":"struct BaseParaSwapAdapter.PermitSignature","components":[{"name":"amount","type":"uint256","internalType":"uint256"},{"name":"deadline","type":"uint256","internalType":"uint256"},{"name":"v","type":"uint8","internalType":"uint8"},{"name":"r","type":"bytes32","internalType":"bytes32"},{"name":"s","type":"bytes32","internalType":"bytes32"}]}],"outputs":[],"stateMutability":"nonpayable"},{"type":"event","name":"Bought","inputs":[{"name":"fromAsset","type":"address","indexed":true,"internalType":"address"},{"name":"toAsset","type":"address","indexed":true,"internalType":"address"},{"name":"amountSold","type":"uint256","indexed":false,"internalType":"uint256"},{"name":"receivedAmount","type":"uint256","indexed":false,"internalType":"uint256"}],"anonymous":false},{"type":"event","name":"OwnershipTransferred","inputs":[{"name":"previousOwner","type":"address","indexed":true,"internalType":"address"},{"name":"newOwner","type":"address","indexed":true,"internalType":"address"}],"anonymous":false},{"type":"event","name":"Swapped","inputs":[{"name":"fromAsset","type":"address","indexed":true,"internalType":"address"},{"name":"toAsset","type":"address","indexed":true,"internalType":"address"},{"name":"fromAmount","type":"uint256","indexed":false,"internalType":"uint256"},{"name":"receivedAmount","type":"uint256","indexed":false,"internalType":"uint256"}],"anonymous":false}],"bytecode":{"object":"0x610100604052348015610010575f5ffd5b50604051611e0a380380611e0a83398101604081905261002f91610300565b82828180806001600160a01b03166080816001600160a01b031681525050806001600160a01b031663026b1d5f6040518163ffffffff1660e01b8152600401602060405180830381865afa158015610089573d5f5f3e3d5ffd5b505050506040513d601f19601f820116820180604052508101906100ad919061034a565b6001600160a01b031660a052505f80546001600160a01b031916339081178255604051909182915f516020611dea5f395f51905f52908290a350806001600160a01b031663fca513a86040518163ffffffff1660e01b8152600401602060405180830381865afa158015610123573d5f5f3e3d5ffd5b505050506040513d601f19601f82011682018060405250810190610147919061034a565b6001600160a01b0390811660c05260405163fb04e17b60e01b81525f6004820152908316915063fb04e17b90602401602060405180830381865afa158015610191573d5f5f3e3d5ffd5b505050506040513d601f19601f820116820180604052508101906101b5919061036c565b156101be575f5ffd5b6001600160a01b031660e05250600180556101d8816101e0565b50505061038b565b5f546001600160a01b0316331461023e5760405162461bcd60e51b815260206004820181905260248201527f4f776e61626c653a2063616c6c6572206973206e6f7420746865206f776e657260448201526064015b60405180910390fd5b6001600160a01b0381166102a35760405162461bcd60e51b815260206004820152602660248201527f4f776e61626c653a206e6577206f776e657220697320746865207a65726f206160448201526564647265737360d01b6064820152608401610235565b5f80546040516001600160a01b03808516939216915f516020611dea5f395f51905f5291a35f80546001600160a01b0319166001600160a01b0392909216919091179055565b6001600160a01b03811681146102fd575f5ffd5b50565b5f5f5f60608486031215610312575f5ffd5b835161031d816102e9565b602085015190935061032e816102e9565b604085015190925061033f816102e9565b809150509250925092565b5f6020828403121561035a575f5ffd5b8151610365816102e9565b9392505050565b5f6020828403121561037c575f5ffd5b81518015158114610365575f5ffd5b60805160a05160c05160e051611a116103d95f395f8181610168015261092801525f8181610141015261114701525f81816101aa015281816103b7015261084701525f60c30152611a115ff3fe608060405234801561000f575f5ffd5b50600436106100a5575f3560e01c80633a8298671161006e5780633a829867146101635780635fd73e071461018a578063715018a61461019d5780637535d246146101a55780638da5cb5b146101cc578063f2fde38b146101dc575f5ffd5b8062ae3bf8146100a95780630542975c146100be5780631b11d0ff1461010257806332e4b2861461012557806338013f021461013c575b5f5ffd5b6100bc6100b736600461158a565b6101ef565b005b6100e57f000000000000000000000000000000000000000000000000000000000000000081565b6040516001600160a01b0390911681526020015b60405180910390f35b6101156101103660046115ea565b6102af565b60405190151581526020016100f9565b61012e610bb881565b6040519081526020016100f9565b6100e57f000000000000000000000000000000000000000000000000000000000000000081565b6100e57f000000000000000000000000000000000000000000000000000000000000000081565b6100bc610198366004611661565b61033f565b6100bc61057c565b6100e57f000000000000000000000000000000000000000000000000000000000000000081565b5f546001600160a01b03166100e5565b6100bc6101ea36600461158a565b6105ed565b5f546001600160a01b031633146102215760405162461bcd60e51b81526004016102189061170d565b60405180910390fd5b6102ac6102355f546001600160a01b031690565b6040516370a0823160e01b81523060048201526001600160a01b038416906370a0823190602401602060405180830381865afa158015610277573d5f5f3e3d5ffd5b505050506040513d601f19601f8201168201806040525081019061029b9190611742565b6001600160a01b03841691906106d4565b50565b5f6002600154036103025760405162461bcd60e51b815260206004820152601f60248201527f5265656e7472616e637947756172643a207265656e7472616e742063616c6c006044820152606401610218565b600260015560405162461bcd60e51b815260206004820152600d60248201526c1393d517d4d5541413d4951151609a1b6044820152606401610218565b6002600154036103915760405162461bcd60e51b815260206004820152601f60248201527f5265656e7472616e637947756172643a207265656e7472616e742063616c6c006044820152606401610218565b600260015560405163cff027d960e01b81526001600160a01b038a811660048301525f917f00000000000000000000000000000000000000000000000000000000000000009091169063cff027d990602401602060405180830381865afa1580156103fe573d5f5f3e3d5ffd5b505050506040513d601f19601f820116820180604052508101906104229190611759565b905085156104e7576040516370a0823160e01b81523360048201525f906001600160a01b038316906370a0823190602401602060405180830381865afa15801561046e573d5f5f3e3d5ffd5b505050506040513d601f19601f820116820180604052508101906104929190611742565b9050888111156104e45760405162461bcd60e51b815260206004820152601b60248201527f494e53554646494349454e545f414d4f554e545f544f5f5357415000000000006044820152606401610218565b97505b6105028a82338b6104fd36889003880188611792565b610762565b5f6105558787878080601f0160208091040260200160405190810160405280939291908181526020018383808284375f81840152601f19601f82011690508083019250505050505050868e8e8e8e610907565b905061056b6001600160a01b038b163383610ec5565b505060018055505050505050505050565b5f546001600160a01b031633146105a55760405162461bcd60e51b81526004016102189061170d565b5f80546040516001600160a01b03909116907f8be0079c531659141344cd1fd0a4f28419497f9722a3daafe3b4186f6b6457e0908390a35f80546001600160a01b0319169055565b5f546001600160a01b031633146106165760405162461bcd60e51b81526004016102189061170d565b6001600160a01b03811661067b5760405162461bcd60e51b815260206004820152602660248201527f4f776e61626c653a206e6577206f776e657220697320746865207a65726f206160448201526564647265737360d01b6064820152608401610218565b5f80546040516001600160a01b03808516939216917f8be0079c531659141344cd1fd0a4f28419497f9722a3daafe3b4186f6b6457e091a35f80546001600160a01b0319166001600160a01b0392909216919091179055565b60405163a9059cbb60e01b8082526001600160a01b038416600483015260248201839052905f8060448382895af161070e573d5f5f3e3d5ffd5b5061071884610f2d565b61075c5760405162461bcd60e51b815260206004820152601560248201527423a83b191d103330b4b632b2103a3930b739b332b960591b6044820152606401610218565b50505050565b602081015115610804578051602082015160408084015160608501516080860151925163d505accf60e01b81526001600160a01b0389811660048301523060248301526044820196909652606481019490945260ff909116608484015260a483015260c48201529085169063d505accf9060e4015f604051808303815f87803b1580156107ed575f5ffd5b505af11580156107ff573d5f5f3e3d5ffd5b505050505b6108196001600160a01b038516843085610fd0565b604051631a4ca37b60e21b81526001600160a01b0386811660048301526024820184905230604483015283917f0000000000000000000000000000000000000000000000000000000000000000909116906369328dec906064016020604051808303815f875af115801561088f573d5f5f3e3d5ffd5b505050506040513d601f19601f820116820180604052508101906108b39190611742565b146109005760405162461bcd60e51b815260206004820152601b60248201527f554e45585045435445445f414d4f554e545f57495448445241574e00000000006044820152606401610218565b5050505050565b60405163fb04e17b60e01b81526001600160a01b0386811660048301525f917f00000000000000000000000000000000000000000000000000000000000000009091169063fb04e17b90602401602060405180830381865afa15801561096f573d5f5f3e3d5ffd5b505050506040513d601f19601f820116820180604052508101906109939190611813565b6109d25760405162461bcd60e51b815260206004820152601060248201526f494e56414c49445f415547555354555360801b6044820152606401610218565b5f6109dc86611068565b60ff1690505f6109eb86611068565b60ff1690505f6109fa88611126565b90505f610a0688611126565b90505f610a5d610a1a610bb8612710611846565b610a57610a32610a2b89600a61193c565b86906111b2565b610a51610a4a610a438a600a61193c565b89906111b2565b8d906111b2565b906111da565b906111ec565b905086811115610aaf5760405162461bcd60e51b815260206004820152601f60248201527f4d494e5f414d4f554e545f455843454544535f4d41585f534c495050414745006044820152606401610218565b50506040516370a0823160e01b81523060048201525f93506001600160a01b03891692506370a082319150602401602060405180830381865afa158015610af8573d5f5f3e3d5ffd5b505050506040513d601f19601f82011682018060405250810190610b1c9190611742565b905083811015610b6e5760405162461bcd60e51b815260206004820181905260248201527f494e53554646494349454e545f42414c414e43455f4245464f52455f535741506044820152606401610218565b6040516370a0823160e01b81523060048201525f906001600160a01b038716906370a0823190602401602060405180830381865afa158015610bb2573d5f5f3e3d5ffd5b505050506040513d601f19601f82011682018060405250810190610bd69190611742565b9050610bec6001600160a01b0388168987611210565b8915610c645760048a10158015610c0f57508851610c0b906020611323565b8a11155b610c5b5760405162461bcd60e51b815260206004820152601f60248201527f46524f4d5f414d4f554e545f4f46465345545f4f55545f4f465f52414e4745006044820152606401610218565b8460208b018a01525b5f886001600160a01b03168a604051610c7d9190611969565b5f604051808303815f865af19150503d805f8114610cb6576040519150601f19603f3d011682016040523d82523d5f602084013e610cbb565b606091505b5050905080610ccc573d5f5f3e3d5ffd5b610ce06001600160a01b0389168a5f611210565b610cea8684611846565b6040516370a0823160e01b81523060048201526001600160a01b038a16906370a0823190602401602060405180830381865afa158015610d2c573d5f5f3e3d5ffd5b505050506040513d601f19601f82011682018060405250810190610d509190611742565b14610d9d5760405162461bcd60e51b815260206004820152601860248201527f57524f4e475f42414c414e43455f41465445525f5357415000000000000000006044820152606401610218565b6040516370a0823160e01b8152306004820152610e0f9083906001600160a01b038a16906370a0823190602401602060405180830381865afa158015610de5573d5f5f3e3d5ffd5b505050506040513d601f19601f82011682018060405250810190610e099190611742565b90611323565b935084841015610e615760405162461bcd60e51b815260206004820152601c60248201527f494e53554646494349454e545f414d4f554e545f5245434549564544000000006044820152606401610218565b866001600160a01b0316886001600160a01b03167fa078c4190abe07940190effc1846be0ccf03ad6007bc9e93f9697d0b460befbb8887604051610eaf929190918252602082015260400190565b60405180910390a3505050979650505050505050565b6040516001600160a01b038316602482015260448101829052610f2890849063a9059cbb60e01b906064015b60408051601f198184030181529190526020810180516001600160e01b03166001600160e01b031990931692909217909152611332565b505050565b5f610f4f565b62461bcd60e51b5f52602060045280602452508060445260645ffd5b3d8015610f8e5760208114610fbf57610f897f475076323a206d616c666f726d6564207472616e7366657220726573756c7400601f610f33565b610fca565b823b610fb657610fb67311d41d8c8e881b9bdd08184818dbdb9d1c9858dd60621b6014610f33565b60019150610fca565b3d5f5f3e5f51151591505b50919050565b6040516323b872dd60e01b8082526001600160a01b0385811660048401528416602483015260448201839052905f80606483828a5af1611012573d5f5f3e3d5ffd5b5061101c85610f2d565b6109005760405162461bcd60e51b815260206004820152601960248201527f475076323a206661696c6564207472616e7366657246726f6d000000000000006044820152606401610218565b5f5f826001600160a01b031663313ce5676040518163ffffffff1660e01b8152600401602060405180830381865afa1580156110a6573d5f5f3e3d5ffd5b505050506040513d601f19601f820116820180604052508101906110ca9190611984565b9050604d8160ff1611156111205760405162461bcd60e51b815260206004820152601a60248201527f544f4f5f4d414e595f444543494d414c535f4f4e5f544f4b454e0000000000006044820152606401610218565b92915050565b60405163b3596f0760e01b81526001600160a01b0382811660048301525f917f00000000000000000000000000000000000000000000000000000000000000009091169063b3596f0790602401602060405180830381865afa15801561118e573d5f5f3e3d5ffd5b505050506040513d601f19601f820116820180604052508101906111209190611742565b5f8215806111d2575050818102818382816111cf576111cf61199f565b04145b611120575f5ffd5b5f6111e582846119b3565b9392505050565b5f81156113881983900484111517611202575f5ffd5b506127109102611388010490565b8015806112885750604051636eb1769f60e11b81523060048201526001600160a01b03838116602483015284169063dd62ed3e90604401602060405180830381865afa158015611262573d5f5f3e3d5ffd5b505050506040513d601f19601f820116820180604052508101906112869190611742565b155b6112f35760405162461bcd60e51b815260206004820152603660248201527f5361666545524332303a20617070726f76652066726f6d206e6f6e2d7a65726f60448201527520746f206e6f6e2d7a65726f20616c6c6f77616e636560501b6064820152608401610218565b6040516001600160a01b038316602482015260448101829052610f2890849063095ea7b360e01b90606401610ef1565b80820382811115611120575f5ffd5b5f611386826040518060400160405280602081526020017f5361666545524332303a206c6f772d6c6576656c2063616c6c206661696c6564815250856001600160a01b03166114039092919063ffffffff16565b805190915015610f2857808060200190518101906113a49190611813565b610f285760405162461bcd60e51b815260206004820152602a60248201527f5361666545524332303a204552433230206f7065726174696f6e20646964206e6044820152691bdd081cdd58d8d9595960b21b6064820152608401610218565b606061141184845f85611419565b949350505050565b60608247101561147a5760405162461bcd60e51b815260206004820152602660248201527f416464726573733a20696e73756666696369656e742062616c616e636520666f6044820152651c8818d85b1b60d21b6064820152608401610218565b843b6114c85760405162461bcd60e51b815260206004820152601d60248201527f416464726573733a2063616c6c20746f206e6f6e2d636f6e74726163740000006044820152606401610218565b5f5f866001600160a01b031685876040516114e39190611969565b5f6040518083038185875af1925050503d805f811461151d576040519150601f19603f3d011682016040523d82523d5f602084013e611522565b606091505b509150915061153282828661153d565b979650505050505050565b6060831561154c5750816111e5565b82511561155c5782518084602001fd5b8160405162461bcd60e51b815260040161021891906119d2565b6001600160a01b03811681146102ac575f5ffd5b5f6020828403121561159a575f5ffd5b81356111e581611576565b5f5f83601f8401126115b5575f5ffd5b50813567ffffffffffffffff8111156115cc575f5ffd5b6020830191508360208285010111156115e3575f5ffd5b9250929050565b5f5f5f5f5f5f60a087890312156115ff575f5ffd5b863561160a81611576565b95506020870135945060408701359350606087013561162881611576565b9250608087013567ffffffffffffffff811115611643575f5ffd5b61164f89828a016115a5565b979a9699509497509295939492505050565b5f5f5f5f5f5f5f5f5f898b0361018081121561167b575f5ffd5b8a3561168681611576565b995060208b013561169681611576565b985060408b0135975060608b0135965060808b0135955060a08b013567ffffffffffffffff8111156116c6575f5ffd5b6116d28d828e016115a5565b90965094505060c08b01356116e681611576565b925060a060df19820112156116f9575f5ffd5b5060e08a0190509295985092959850929598565b6020808252818101527f4f776e61626c653a2063616c6c6572206973206e6f7420746865206f776e6572604082015260600190565b5f60208284031215611752575f5ffd5b5051919050565b5f60208284031215611769575f5ffd5b81516111e581611576565b60ff811681146102ac575f5ffd5b803561178d81611774565b919050565b5f60a08284031280156117a3575f5ffd5b5060405160a0810167ffffffffffffffff811182821017156117d357634e487b7160e01b5f52604160045260245ffd5b604090815283358252602080850135908301526117f1908401611782565b6040820152606083810135908201526080928301359281019290925250919050565b5f60208284031215611823575f5ffd5b815180151581146111e5575f5ffd5b634e487b7160e01b5f52601160045260245ffd5b8181038181111561112057611120611832565b6001815b60018411156118945780850481111561187857611878611832565b600184161561188657908102905b60019390931c92800261185d565b935093915050565b5f826118aa57506001611120565b816118b657505f611120565b81600181146118cc57600281146118d6576118f2565b6001915050611120565b60ff8411156118e7576118e7611832565b50506001821b611120565b5060208310610133831016604e8410600b8410161715611915575081810a611120565b6119215f198484611859565b805f190482111561193457611934611832565b029392505050565b5f6111e5838361189c565b5f5b83811015611961578181015183820152602001611949565b50505f910152565b5f825161197a818460208701611947565b9190910192915050565b5f60208284031215611994575f5ffd5b81516111e581611774565b634e487b7160e01b5f52601260045260245ffd5b5f826119cd57634e487b7160e01b5f52601260045260245ffd5b500490565b602081525f82518060208401526119f0816040850160208701611947565b601f01601f1916919091016040019291505056fea164736f6c634300081b000a8be0079c531659141344cd1fd0a4f28419497f9722a3daafe3b4186f6b6457e0","linkReferences":{}},"methodIdentifiers":{"ADDRESSES_PROVIDER()":"0542975c","AUGUSTUS_REGISTRY()":"3a829867","MAX_SLIPPAGE_PERCENT()":"32e4b286","ORACLE()":"38013f02","POOL()":"7535d246","executeOperation(address,uint256,uint256,address,bytes)":"1b11d0ff","owner()":"8da5cb5b","renounceOwnership()":"715018a6","rescueTokens(address)":"00ae3bf8","transferOwnership(address)":"f2fde38b","withdrawAndSwap(address,address,uint256,uint256,uint256,bytes,address,(uint256,uint256,uint8,bytes32,bytes32))":"5fd73e07"},"id":101}