{"abi":[{"type":"constructor","inputs":[{"name":"pool","type":"address","internalType":"contract IPool"},{"name":"initialOwner","type":"address","internalType":"address"},{"name":"transparentProxyFactory","type":"address","internalType":"contract ITransparentProxyFactory"},{"name":"stataTokenImpl","type":"address","internalType":"address"}],"stateMutability":"nonpayable"},{"type":"function","name":"INITIAL_OWNER","inputs":[],"outputs":[{"name":"","type":"address","internalType":"address"}],"stateMutability":"view"},{"type":"function","name":"POOL","inputs":[],"outputs":[{"name":"","type":"address","internalType":"contract IPool"}],"stateMutability":"view"},{"type":"function","name":"STATA_TOKEN_IMPL","inputs":[],"outputs":[{"name":"","type":"address","internalType":"address"}],"stateMutability":"view"},{"type":"function","name":"TRANSPARENT_PROXY_FACTORY","inputs":[],"outputs":[{"name":"","type":"address","internalType":"contract ITransparentProxyFactory"}],"stateMutability":"view"},{"type":"function","name":"createStataTokens","inputs":[{"name":"underlyings","type":"address[]","internalType":"address[]"}],"outputs":[{"name":"","type":"address[]","internalType":"address[]"}],"stateMutability":"nonpayable"},{"type":"function","name":"getStataToken","inputs":[{"name":"underlying","type":"address","internalType":"address"}],"outputs":[{"name":"","type":"address","internalType":"address"}],"stateMutability":"view"},{"type":"function","name":"getStataTokens","inputs":[],"outputs":[{"name":"","type":"address[]","internalType":"address[]"}],"stateMutability":"view"},{"type":"function","name":"initialize","inputs":[],"outputs":[],"stateMutability":"nonpayable"},{"type":"event","name":"Initialized","inputs":[{"name":"version","type":"uint64","indexed":false,"internalType":"uint64"}],"anonymous":false},{"type":"event","name":"StataTokenCreated","inputs":[{"name":"stataToken","type":"address","indexed":true,"internalType":"address"},{"name":"underlying","type":"address","indexed":true,"internalType":"address"}],"anonymous":false},{"type":"error","name":"InvalidInitialization","inputs":[]},{"type":"error","name":"NotInitializing","inputs":[]},{"type":"error","name":"NotListedUnderlying","inputs":[{"name":"underlying","type":"address","internalType":"address"}]}],"bytecode":{"object":"0x610100604052348015610010575f5ffd5b50604051610d75380380610d7583398101604081905261002f9161011f565b610037610059565b6001600160a01b0393841660805291831660a052821660c0521660e05261017b565b7ff0c57e16840df040f15088dc2f81fe391c3923bec73e23a9662efc9c229c6a00805468010000000000000000900460ff16156100a95760405163f92ee8a960e01b815260040160405180910390fd5b80546001600160401b03908116146101085780546001600160401b0319166001600160401b0390811782556040519081527fc7f505b2f371ae2175ee4913f4499e1f2633a7b5936321eed1cdaeb6115181d29060200160405180910390a15b50565b6001600160a01b0381168114610108575f5ffd5b5f5f5f5f60808587031215610132575f5ffd5b845161013d8161010b565b602086015190945061014e8161010b565b604086015190935061015f8161010b565b60608601519092506101708161010b565b939692955090935050565b60805160a05160c05160e051610bad6101c85f395f818161017d015261043801525f8181608e015261040901525f818161012b015261045901525f818160e701526102990152610bad5ff3fe608060405234801561000f575f5ffd5b5060043610610085575f3560e01c80638129fc1c116100585780638129fc1c1461011c578063a36250d814610126578063d30a7c061461014d578063d603559614610178575f5ffd5b8063478f91431461008957806352908017146100cd5780637535d246146100e25780637b5af1c214610109575b5f5ffd5b6100b07f000000000000000000000000000000000000000000000000000000000000000081565b6040516001600160a01b0390911681526020015b60405180910390f35b6100d561019f565b6040516100c49190610844565b6100b07f000000000000000000000000000000000000000000000000000000000000000081565b6100d56101173660046108eb565b6101ff565b610124610740565b005b6100b07f000000000000000000000000000000000000000000000000000000000000000081565b6100b061015b36600461099f565b6001600160a01b039081165f908152602081905260409020541690565b6100b07f000000000000000000000000000000000000000000000000000000000000000081565b606060018054806020026020016040519081016040528092919081815260200182805480156101f557602002820191905f5260205f20905b81546001600160a01b031681526001909101906020018083116101d7575b5050505050905090565b60605f825167ffffffffffffffff81111561021c5761021c61088f565b604051908082528060200260200182016040528015610245578160200160208202803683370190505b5090505f5b8351811015610739575f5f5f868481518110610268576102686109c1565b6020908102919091018101516001600160a01b039081168352908201929092526040015f2054169050806106fc575f7f00000000000000000000000000000000000000000000000000000000000000006001600160a01b031663cff027d98785815181106102d8576102d86109c1565b60200260200101516040518263ffffffff1660e01b815260040161030b91906001600160a01b0391909116815260200190565b602060405180830381865afa158015610326573d5f5f3e3d5ffd5b505050506040513d601f19601f8201168201806040525081019061034a91906109d5565b90506001600160a01b03811661038257604051637757bdf760e11b81526001600160a01b038216600482015260240160405180910390fd5b5f816001600160a01b03166395d89b416040518163ffffffff1660e01b81526004015f60405180830381865afa1580156103be573d5f5f3e3d5ffd5b505050506040513d5f823e601f3d908101601f191682016040526103e59190810190610a12565b6040516020016103f59190610aa3565b60405160208183030381529060405290505f7f00000000000000000000000000000000000000000000000000000000000000006001600160a01b03166365bb962d7f00000000000000000000000000000000000000000000000000000000000000007f0000000000000000000000000000000000000000000000000000000000000000639065714760e01b87886001600160a01b03166306fdde036040518163ffffffff1660e01b81526004015f60405180830381865afa1580156104bc573d5f5f3e3d5ffd5b505050506040513d5f823e601f3d908101601f191682016040526104e39190810190610a12565b6040516020016104f39190610acb565b60408051601f198184030181529082905261051392918a90602401610b25565b604051602081830303815290604052906001600160e01b0319166020820180516001600160e01b0383818316178352505050508c8a81518110610558576105586109c1565b60200260200101516001600160a01b03165f1b6040518563ffffffff1660e01b815260040161058a9493929190610b64565b6020604051808303815f875af11580156105a6573d5f5f3e3d5ffd5b505050506040513d601f19601f820116820180604052508101906105ca91906109d5565b9050805f5f8a88815181106105e1576105e16109c1565b60200260200101516001600160a01b03166001600160a01b031681526020019081526020015f205f6101000a8154816001600160a01b0302191690836001600160a01b031602179055508086868151811061063e5761063e6109c1565b6001600160a01b0392831660209182029290920101526001805480820182555f919091527fb10e2d527612073b26eecdfd717e6a320cf44b4afac2b0732d9fcbe2b7fa0cf60180546001600160a01b03191691831691909117905587518890869081106106ad576106ad6109c1565b60200260200101516001600160a01b0316816001600160a01b03167f0ec83a356b7b07b8821a1ba5b1ab1de63115803b74028994ea88aaa096ab5c4360405160405180910390a3505050610730565b8083838151811061070f5761070f6109c1565b60200260200101906001600160a01b031690816001600160a01b0316815250505b5060010161024a565b5092915050565b7ff0c57e16840df040f15088dc2f81fe391c3923bec73e23a9662efc9c229c6a008054600160401b810460ff16159067ffffffffffffffff165f811580156107855750825b90505f8267ffffffffffffffff1660011480156107a15750303b155b9050811580156107af575080155b156107cd5760405163f92ee8a960e01b815260040160405180910390fd5b845467ffffffffffffffff1916600117855583156107f757845460ff60401b1916600160401b1785555b831561083d57845460ff60401b19168555604051600181527fc7f505b2f371ae2175ee4913f4499e1f2633a7b5936321eed1cdaeb6115181d29060200160405180910390a15b5050505050565b602080825282518282018190525f918401906040840190835b818110156108845783516001600160a01b031683526020938401939092019160010161085d565b509095945050505050565b634e487b7160e01b5f52604160045260245ffd5b604051601f8201601f1916810167ffffffffffffffff811182821017156108cc576108cc61088f565b604052919050565b6001600160a01b03811681146108e8575f5ffd5b50565b5f602082840312156108fb575f5ffd5b813567ffffffffffffffff811115610911575f5ffd5b8201601f81018413610921575f5ffd5b803567ffffffffffffffff81111561093b5761093b61088f565b8060051b61094b602082016108a3565b91825260208184018101929081019087841115610966575f5ffd5b6020850194505b838510156109945784359250610982836108d4565b8282526020948501949091019061096d565b979650505050505050565b5f602082840312156109af575f5ffd5b81356109ba816108d4565b9392505050565b634e487b7160e01b5f52603260045260245ffd5b5f602082840312156109e5575f5ffd5b81516109ba816108d4565b5f5b83811015610a0a5781810151838201526020016109f2565b50505f910152565b5f60208284031215610a22575f5ffd5b815167ffffffffffffffff811115610a38575f5ffd5b8201601f81018413610a48575f5ffd5b805167ffffffffffffffff811115610a6257610a6261088f565b610a75601f8201601f19166020016108a3565b818152856020838501011115610a89575f5ffd5b610a9a8260208301602086016109f0565b95945050505050565b607760f81b81525f8251610abe8160018501602087016109f0565b9190910160010192915050565b6702bb930b83832b2160c51b81525f8251610aed8160088501602087016109f0565b9190910160080192915050565b5f8151808452610b118160208601602086016109f0565b601f01601f19169290920160200192915050565b6001600160a01b03841681526060602082018190525f90610b4890830185610afa565b8281036040840152610b5a8185610afa565b9695505050505050565b6001600160a01b038581168252841660208201526080604082018190525f90610b8f90830185610afa565b90508260608301529594505050505056fea164736f6c634300081b000a","linkReferences":{}},"methodIdentifiers":{"INITIAL_OWNER()":"a36250d8","POOL()":"7535d246","STATA_TOKEN_IMPL()":"d6035596","TRANSPARENT_PROXY_FACTORY()":"478f9143","createStataTokens(address[])":"7b5af1c2","getStataToken(address)":"d30a7c06","getStataTokens()":"52908017","initialize()":"8129fc1c"},"id":105}