{"abi":[{"type":"constructor","inputs":[{"name":"provider","type":"address","internalType":"address"}],"stateMutability":"nonpayable"},{"type":"function","name":"ADDRESSES_PROVIDER","inputs":[],"outputs":[{"name":"","type":"address","internalType":"contract IPoolAddressesProvider"}],"stateMutability":"view"},{"type":"function","name":"MAX_BORROW_RATE","inputs":[],"outputs":[{"name":"","type":"uint256","internalType":"uint256"}],"stateMutability":"view"},{"type":"function","name":"MAX_OPTIMAL_POINT","inputs":[],"outputs":[{"name":"","type":"uint256","internalType":"uint256"}],"stateMutability":"view"},{"type":"function","name":"MIN_OPTIMAL_POINT","inputs":[],"outputs":[{"name":"","type":"uint256","internalType":"uint256"}],"stateMutability":"view"},{"type":"function","name":"calculateInterestRates","inputs":[{"name":"","type":"tuple","internalType":"struct DataTypes.CalculateInterestRatesParams","components":[{"name":"unbacked","type":"uint256","internalType":"uint256"},{"name":"liquidityAdded","type":"uint256","internalType":"uint256"},{"name":"liquidityTaken","type":"uint256","internalType":"uint256"},{"name":"totalDebt","type":"uint256","internalType":"uint256"},{"name":"reserveFactor","type":"uint256","internalType":"uint256"},{"name":"reserve","type":"address","internalType":"address"},{"name":"usingVirtualBalance","type":"bool","internalType":"bool"},{"name":"virtualUnderlyingBalance","type":"uint256","internalType":"uint256"}]}],"outputs":[{"name":"liquidityRate","type":"uint256","internalType":"uint256"},{"name":"variableBorrowRate","type":"uint256","internalType":"uint256"}],"stateMutability":"view"},{"type":"function","name":"getBaseVariableBorrowRate","inputs":[{"name":"reserve","type":"address","internalType":"address"}],"outputs":[{"name":"","type":"uint256","internalType":"uint256"}],"stateMutability":"view"},{"type":"function","name":"getInterestRateData","inputs":[{"name":"reserve","type":"address","internalType":"address"}],"outputs":[{"name":"","type":"tuple","internalType":"struct IDefaultInterestRateStrategyV2.InterestRateDataRay","components":[{"name":"optimalUsageRatio","type":"uint256","internalType":"uint256"},{"name":"baseVariableBorrowRate","type":"uint256","internalType":"uint256"},{"name":"variableRateSlope1","type":"uint256","internalType":"uint256"},{"name":"variableRateSlope2","type":"uint256","internalType":"uint256"}]}],"stateMutability":"view"},{"type":"function","name":"getInterestRateDataBps","inputs":[{"name":"reserve","type":"address","internalType":"address"}],"outputs":[{"name":"","type":"tuple","internalType":"struct IDefaultInterestRateStrategyV2.InterestRateData","components":[{"name":"optimalUsageRatio","type":"uint16","internalType":"uint16"},{"name":"baseVariableBorrowRate","type":"uint32","internalType":"uint32"},{"name":"variableRateSlope1","type":"uint32","internalType":"uint32"},{"name":"variableRateSlope2","type":"uint32","internalType":"uint32"}]}],"stateMutability":"view"},{"type":"function","name":"getMaxVariableBorrowRate","inputs":[{"name":"reserve","type":"address","internalType":"address"}],"outputs":[{"name":"","type":"uint256","internalType":"uint256"}],"stateMutability":"view"},{"type":"function","name":"getOptimalUsageRatio","inputs":[{"name":"reserve","type":"address","internalType":"address"}],"outputs":[{"name":"","type":"uint256","internalType":"uint256"}],"stateMutability":"view"},{"type":"function","name":"getVariableRateSlope1","inputs":[{"name":"reserve","type":"address","internalType":"address"}],"outputs":[{"name":"","type":"uint256","internalType":"uint256"}],"stateMutability":"view"},{"type":"function","name":"getVariableRateSlope2","inputs":[{"name":"reserve","type":"address","internalType":"address"}],"outputs":[{"name":"","type":"uint256","internalType":"uint256"}],"stateMutability":"view"},{"type":"function","name":"setInterestRateParams","inputs":[{"name":"reserve","type":"address","internalType":"address"},{"name":"rateData","type":"bytes","internalType":"bytes"}],"outputs":[],"stateMutability":"nonpayable"},{"type":"function","name":"setInterestRateParams","inputs":[{"name":"reserve","type":"address","internalType":"address"},{"name":"rateData","type":"tuple","internalType":"struct IDefaultInterestRateStrategyV2.InterestRateData","components":[{"name":"optimalUsageRatio","type":"uint16","internalType":"uint16"},{"name":"baseVariableBorrowRate","type":"uint32","internalType":"uint32"},{"name":"variableRateSlope1","type":"uint32","internalType":"uint32"},{"name":"variableRateSlope2","type":"uint32","internalType":"uint32"}]}],"outputs":[],"stateMutability":"nonpayable"},{"type":"function","name":"setLiquidityRate","inputs":[{"name":"liquidityRate","type":"uint256","internalType":"uint256"}],"outputs":[],"stateMutability":"nonpayable"},{"type":"function","name":"setVariableBorrowRate","inputs":[{"name":"variableBorrowRate","type":"uint256","internalType":"uint256"}],"outputs":[],"stateMutability":"nonpayable"},{"type":"event","name":"RateDataUpdate","inputs":[{"name":"reserve","type":"address","indexed":true,"internalType":"address"},{"name":"optimalUsageRatio","type":"uint256","indexed":false,"internalType":"uint256"},{"name":"baseVariableBorrowRate","type":"uint256","indexed":false,"internalType":"uint256"},{"name":"variableRateSlope1","type":"uint256","indexed":false,"internalType":"uint256"},{"name":"variableRateSlope2","type":"uint256","indexed":false,"internalType":"uint256"}],"anonymous":false},{"type":"error","name":"CallerNotPoolConfigurator","inputs":[]},{"type":"error","name":"InvalidAddressesProvider","inputs":[]},{"type":"error","name":"InvalidMaxRate","inputs":[]},{"type":"error","name":"InvalidOptimalUsageRatio","inputs":[]},{"type":"error","name":"Slope2MustBeGteSlope1","inputs":[]},{"type":"error","name":"ZeroAddressNotValid","inputs":[]}],"bytecode":{"object":"0x60a060405234801561000f575f5ffd5b50604051610cb9380380610cb983398101604081905261002e91610068565b806001600160a01b03811661005657604051633b175b8760e01b815260040160405180910390fd5b6001600160a01b031660805250610095565b5f60208284031215610078575f5ffd5b81516001600160a01b038116811461008e575f5ffd5b9392505050565b608051610bfe6100bb5f395f8181610104015281816104b401526105d10152610bfe5ff3fe608060405234801561000f575f5ffd5b50600436106100fb575f3560e01c8063a8d9e56f11610093578063c79ce42e11610063578063c79ce42e1461025f578063cca22ea11461033c578063f7e0fe671461034f578063fd81bb1214610357575f5ffd5b8063a8d9e56f146101f8578063aa16fe341461020b578063aa33f0631461021e578063b90db31b14610231575f5ffd5b80636a00178e116100ce5780636a00178e146101bf5780637a0c5ebf146101d25780637a24bd7e146101dc5780638f4b0d5d146101e5575f5ffd5b80630542975c146100ff578063131e889c146101435780633a244adf146101895780635b651bae1461019e575b5f5ffd5b6101267f000000000000000000000000000000000000000000000000000000000000000081565b6040516001600160a01b0390911681526020015b60405180910390f35b610156610151366004610919565b61036a565b60405161013a91908151815260208083015190820152604080830151908201526060918201519181019190915260800190565b61019c61019736600461093b565b600155565b005b6101b16101ac366004610919565b6103fc565b60405190815260200161013a565b6101b16101cd366004610919565b61042a565b6101b1620186a081565b6101b16126ac81565b6101b16101f3366004610919565b610484565b61019c610206366004610952565b6104b2565b61019c61021936600461093b565b600255565b6101b161022c366004610919565b61057d565b61024a61023f366004610a1c565b506001546002549091565b6040805192835260208301919091520161013a565b6102ef61026d366004610919565b604080516080810182525f808252602082018190529181018290526060810191909152506001600160a01b03165f90815260208181526040918290208251608081018452905461ffff8116825263ffffffff620100008204811693830193909352600160301b8104831693820193909352600160501b90920416606082015290565b60405161013a91905f60808201905061ffff835116825263ffffffff602084015116602083015263ffffffff604084015116604083015263ffffffff606084015116606083015292915050565b6101b161034a366004610919565b6105a2565b6101b1606481565b61019c610365366004610a9a565b6105cf565b61039160405180608001604052805f81526020015f81526020015f81526020015f81525090565b6001600160a01b0382165f90815260208181526040918290208251608081018452905461ffff8116825263ffffffff620100008204811693830193909352600160301b8104831693820193909352600160501b9092041660608201526103f690610697565b92915050565b6001600160a01b0381165f908152602081905260408120546103f690600160301b900463ffffffff16610729565b6001600160a01b0381165f908152602081905260408120546103f69063ffffffff600160501b820481169161046f91600160301b820481169162010000900416610aec565b6104799190610aec565b63ffffffff16610729565b6001600160a01b0381165f908152602081905260408120546103f690600160501b900463ffffffff16610729565b7f00000000000000000000000000000000000000000000000000000000000000006001600160a01b031663631adfca6040518163ffffffff1660e01b8152600401602060405180830381865afa15801561050e573d5f5f3e3d5ffd5b505050506040513d601f19601f820116820180604052508101906105329190610b08565b6001600160a01b0316336001600160a01b031614610563576040516344ff885f60e01b815260040160405180910390fd5b6105788361057383850185610b36565b61073e565b505050565b6001600160a01b0381165f908152602081905260408120546103f69061ffff16610729565b6001600160a01b0381165f908152602081905260408120546103f69062010000900463ffffffff16610729565b7f00000000000000000000000000000000000000000000000000000000000000006001600160a01b031663631adfca6040518163ffffffff1660e01b8152600401602060405180830381865afa15801561062b573d5f5f3e3d5ffd5b505050506040513d601f19601f8201168201806040525081019061064f9190610b08565b6001600160a01b0316336001600160a01b031614610680576040516344ff885f60e01b815260040160405180910390fd5b6106938261057336849003840184610b36565b5050565b6106be60405180608001604052805f81526020015f81526020015f81526020015f81525090565b60405180608001604052806106d9845f015161ffff16610729565b81526020016106f1846020015163ffffffff16610729565b8152602001610709846040015163ffffffff16610729565b8152602001610721846060015163ffffffff16610729565b905292915050565b5f6103f68269152d02c7e14af6800000610bc7565b6001600160a01b03821661076557604051633bf95ba760e01b815260040160405180910390fd5b6126ac815f015161ffff161115801561078657506064815f015161ffff1610155b6107a3576040516335a8aee760e01b815260040160405180910390fd5b806060015163ffffffff16816040015163ffffffff1611156107d857604051631a6782a560e31b815260040160405180910390fd5b620186a0816060015163ffffffff16826040015163ffffffff16836020015163ffffffff166108079190610bde565b6108119190610bde565b1115610830576040516303b9a7db60e61b815260040160405180910390fd5b6001600160a01b0382165f81815260208181526040918290208451815486840151878601516060808a015161ffff90951665ffffffffffff1990941684176201000063ffffffff948516908102919091176dffffffffffffffff0000000000001916600160301b93851693840263ffffffff60501b191617600160501b9490961693840295909517909555865192835294820192909252938401929092528201527f5d123bea2036a4052274206f59d99350b9741e17da56ffae335d809b25ee09429060800160405180910390a25050565b6001600160a01b0381168114610916575f5ffd5b50565b5f60208284031215610929575f5ffd5b813561093481610902565b9392505050565b5f6020828403121561094b575f5ffd5b5035919050565b5f5f5f60408486031215610964575f5ffd5b833561096f81610902565b9250602084013567ffffffffffffffff81111561098a575f5ffd5b8401601f8101861361099a575f5ffd5b803567ffffffffffffffff8111156109b0575f5ffd5b8660208284010111156109c1575f5ffd5b939660209190910195509293505050565b604051610100810167ffffffffffffffff81118282101715610a0257634e487b7160e01b5f52604160045260245ffd5b60405290565b80358015158114610a17575f5ffd5b919050565b5f610100828403128015610a2e575f5ffd5b50610a376109d2565b823581526020808401359082015260408084013590820152606080840135908201526080808401359082015260a0830135610a7181610902565b60a0820152610a8260c08401610a08565b60c082015260e0928301359281019290925250919050565b5f5f82840360a0811215610aac575f5ffd5b8335610ab781610902565b92506080601f1982011215610aca575f5ffd5b506020830190509250929050565b634e487b7160e01b5f52601160045260245ffd5b63ffffffff81811683821601908111156103f6576103f6610ad8565b5f60208284031215610b18575f5ffd5b815161093481610902565b803563ffffffff81168114610a17575f5ffd5b5f6080828403128015610b47575f5ffd5b506040516080810167ffffffffffffffff81118282101715610b7757634e487b7160e01b5f52604160045260245ffd5b604052823561ffff81168114610b8b575f5ffd5b8152610b9960208401610b23565b6020820152610baa60408401610b23565b6040820152610bbb60608401610b23565b60608201529392505050565b80820281158282048414176103f6576103f6610ad8565b808201808211156103f6576103f6610ad856fea164736f6c634300081b000a","linkReferences":{}},"methodIdentifiers":{"ADDRESSES_PROVIDER()":"0542975c","MAX_BORROW_RATE()":"7a0c5ebf","MAX_OPTIMAL_POINT()":"7a24bd7e","MIN_OPTIMAL_POINT()":"f7e0fe67","calculateInterestRates((uint256,uint256,uint256,uint256,uint256,address,bool,uint256))":"b90db31b","getBaseVariableBorrowRate(address)":"cca22ea1","getInterestRateData(address)":"131e889c","getInterestRateDataBps(address)":"c79ce42e","getMaxVariableBorrowRate(address)":"6a00178e","getOptimalUsageRatio(address)":"aa33f063","getVariableRateSlope1(address)":"5b651bae","getVariableRateSlope2(address)":"8f4b0d5d","setInterestRateParams(address,(uint16,uint32,uint32,uint32))":"fd81bb12","setInterestRateParams(address,bytes)":"a8d9e56f","setLiquidityRate(uint256)":"3a244adf","setVariableBorrowRate(uint256)":"aa16fe34"},"id":199}