{"abi":[{"type":"constructor","inputs":[{"name":"provider","type":"address","internalType":"contract IPoolAddressesProvider"},{"name":"aToken","type":"address","internalType":"address"}],"stateMutability":"nonpayable"},{"type":"function","name":"ADDRESSES_PROVIDER","inputs":[],"outputs":[{"name":"","type":"address","internalType":"contract IPoolAddressesProvider"}],"stateMutability":"view"},{"type":"function","name":"ATOKEN","inputs":[],"outputs":[{"name":"","type":"address","internalType":"address"}],"stateMutability":"view"},{"type":"function","name":"POOL","inputs":[],"outputs":[{"name":"","type":"address","internalType":"contract IPool"}],"stateMutability":"view"},{"type":"function","name":"executeOperation","inputs":[{"name":"asset","type":"address","internalType":"address"},{"name":"amount","type":"uint256","internalType":"uint256"},{"name":"","type":"uint256","internalType":"uint256"},{"name":"","type":"address","internalType":"address"},{"name":"","type":"bytes","internalType":"bytes"}],"outputs":[{"name":"","type":"bool","internalType":"bool"}],"stateMutability":"nonpayable"},{"type":"function","name":"executeOperation","inputs":[{"name":"assets","type":"address[]","internalType":"address[]"},{"name":"amounts","type":"uint256[]","internalType":"uint256[]"},{"name":"","type":"uint256[]","internalType":"uint256[]"},{"name":"","type":"address","internalType":"address"},{"name":"","type":"bytes","internalType":"bytes"}],"outputs":[{"name":"","type":"bool","internalType":"bool"}],"stateMutability":"nonpayable"}],"bytecode":{"object":"0x60e060405234801561000f575f5ffd5b50604051610ac4380380610ac483398101604081905261002e916100dd565b81806001600160a01b03166080816001600160a01b031681525050806001600160a01b031663026b1d5f6040518163ffffffff1660e01b8152600401602060405180830381865afa158015610085573d5f5f3e3d5ffd5b505050506040513d601f19601f820116820180604052508101906100a99190610115565b6001600160a01b0390811660a0529190911660c052506101379050565b6001600160a01b03811681146100da575f5ffd5b50565b5f5f604083850312156100ee575f5ffd5b82516100f9816100c6565b602084015190925061010a816100c6565b809150509250929050565b5f60208284031215610125575f5ffd5b8151610130816100c6565b9392505050565b60805160a05160c05161094a61017a5f395f818160c5015281816101f401526104a701525f818160ec0152818161029a015261055401525f605e015261094a5ff3fe608060405234801561000f575f5ffd5b5060043610610055575f3560e01c80630542975c146100595780631b11d0ff1461009d57806351c0e061146100c05780637535d246146100e7578063920f5c841461010e575b5f5ffd5b6100807f000000000000000000000000000000000000000000000000000000000000000081565b6040516001600160a01b0390911681526020015b60405180910390f35b6100b06100ab3660046106ff565b610121565b6040519015158152602001610094565b6100807f000000000000000000000000000000000000000000000000000000000000000081565b6100807f000000000000000000000000000000000000000000000000000000000000000081565b6100b061011c3660046107f9565b610385565b6040516370a0823160e01b81523060048201525f906001600160a01b038716906370a0823190602401602060405180830381865afa158015610165573d5f5f3e3d5ffd5b505050506040513d601f19601f8201168201806040525081019061018991906108ec565b8511156101dd5760405162461bcd60e51b815260206004820181905260248201527f496e76616c69642062616c616e636520666f722074686520636f6e747261637460448201526064015b60405180910390fd5b60405163a9059cbb60e01b81526001600160a01b037f0000000000000000000000000000000000000000000000000000000000000000811660048301526024820187905287169063a9059cbb906044016020604051808303815f875af1158015610249573d5f5f3e3d5ffd5b505050506040513d601f19601f8201168201806040525081019061026d9190610903565b50604051631a4ca37b60e21b81526001600160a01b038781166004830152602482018790523060448301527f000000000000000000000000000000000000000000000000000000000000000016906369328dec906064016020604051808303815f875af11580156102e0573d5f5f3e3d5ffd5b505050506040513d601f19601f8201168201806040525081019061030491906108ec565b5060405162461bcd60e51b815260206004820152604960248201527f4d6f636b466c6173684c6f616e5472616e7366657252656365697665723a204660448201527f6c6173684c6f616e53696d706c6520646964206e6f742072657665727420617460648201526820776974686472617760b81b608482015260a4016101d4565b5f805b8651811015610304578681815181106103a3576103a3610929565b60209081029190910101516040516370a0823160e01b81523060048201526001600160a01b03909116906370a0823190602401602060405180830381865afa1580156103f1573d5f5f3e3d5ffd5b505050506040513d601f19601f8201168201806040525081019061041591906108ec565b86828151811061042757610427610929565b6020026020010151111561047d5760405162461bcd60e51b815260206004820181905260248201527f496e76616c69642062616c616e636520666f722074686520636f6e747261637460448201526064016101d4565b86818151811061048f5761048f610929565b60200260200101516001600160a01b031663a9059cbb7f00000000000000000000000000000000000000000000000000000000000000008884815181106104d8576104d8610929565b60200260200101516040518363ffffffff1660e01b81526004016105119291906001600160a01b03929092168252602082015260400190565b6020604051808303815f875af115801561052d573d5f5f3e3d5ffd5b505050506040513d601f19601f820116820180604052508101906105519190610903565b507f00000000000000000000000000000000000000000000000000000000000000006001600160a01b03166369328dec88838151811061059357610593610929565b60200260200101518884815181106105ad576105ad610929565b60209081029190910101516040516001600160e01b031960e085901b1681526001600160a01b03909216600483015260248201523060448201526064016020604051808303815f875af1158015610606573d5f5f3e3d5ffd5b505050506040513d601f19601f8201168201806040525081019061062a91906108ec565b50600101610388565b80356001600160a01b0381168114610649575f5ffd5b919050565b634e487b7160e01b5f52604160045260245ffd5b604051601f8201601f1916810167ffffffffffffffff8111828210171561068b5761068b61064e565b604052919050565b5f82601f8301126106a2575f5ffd5b813567ffffffffffffffff8111156106bc576106bc61064e565b6106cf601f8201601f1916602001610662565b8181528460208386010111156106e3575f5ffd5b816020850160208301375f918101602001919091529392505050565b5f5f5f5f5f60a08688031215610713575f5ffd5b61071c86610633565b9450602086013593506040860135925061073860608701610633565b9150608086013567ffffffffffffffff811115610753575f5ffd5b61075f88828901610693565b9150509295509295909350565b5f67ffffffffffffffff8211156107855761078561064e565b5060051b60200190565b5f82601f83011261079e575f5ffd5b81356107b16107ac8261076c565b610662565b8082825260208201915060208360051b8601019250858311156107d2575f5ffd5b602085015b838110156107ef5780358352602092830192016107d7565b5095945050505050565b5f5f5f5f5f60a0868803121561080d575f5ffd5b853567ffffffffffffffff811115610823575f5ffd5b8601601f81018813610833575f5ffd5b80356108416107ac8261076c565b8082825260208201915060208360051b85010192508a831115610862575f5ffd5b6020840193505b8284101561088b5761087a84610633565b825260209384019390910190610869565b9750505050602086013567ffffffffffffffff8111156108a9575f5ffd5b6108b58882890161078f565b945050604086013567ffffffffffffffff8111156108d1575f5ffd5b6108dd8882890161078f565b93505061073860608701610633565b5f602082840312156108fc575f5ffd5b5051919050565b5f60208284031215610913575f5ffd5b81518015158114610922575f5ffd5b9392505050565b634e487b7160e01b5f52603260045260245ffdfea164736f6c634300081b000a","linkReferences":{}},"methodIdentifiers":{"ADDRESSES_PROVIDER()":"0542975c","ATOKEN()":"51c0e061","POOL()":"7535d246","executeOperation(address,uint256,uint256,address,bytes)":"1b11d0ff","executeOperation(address[],uint256[],uint256[],address,bytes)":"920f5c84"},"id":419}