{"abi":[{"type":"constructor","inputs":[{"name":"provider","type":"address","internalType":"contract IPoolAddressesProvider"}],"stateMutability":"nonpayable"},{"type":"function","name":"ADDRESSES_PROVIDER","inputs":[],"outputs":[{"name":"","type":"address","internalType":"contract IPoolAddressesProvider"}],"stateMutability":"view"},{"type":"function","name":"POOL","inputs":[],"outputs":[{"name":"","type":"address","internalType":"contract IPool"}],"stateMutability":"view"},{"type":"function","name":"executeOperation","inputs":[{"name":"asset","type":"address","internalType":"address"},{"name":"amount","type":"uint256","internalType":"uint256"},{"name":"premium","type":"uint256","internalType":"uint256"},{"name":"","type":"address","internalType":"address"},{"name":"","type":"bytes","internalType":"bytes"}],"outputs":[{"name":"","type":"bool","internalType":"bool"}],"stateMutability":"nonpayable"},{"type":"function","name":"getAmountToApprove","inputs":[],"outputs":[{"name":"","type":"uint256","internalType":"uint256"}],"stateMutability":"view"},{"type":"function","name":"setAmountToApprove","inputs":[{"name":"amountToApprove","type":"uint256","internalType":"uint256"}],"outputs":[],"stateMutability":"nonpayable"},{"type":"function","name":"setFailExecutionTransfer","inputs":[{"name":"fail","type":"bool","internalType":"bool"}],"outputs":[],"stateMutability":"nonpayable"},{"type":"function","name":"setSimulateEOA","inputs":[{"name":"flag","type":"bool","internalType":"bool"}],"outputs":[],"stateMutability":"nonpayable"},{"type":"function","name":"simulateEOA","inputs":[],"outputs":[{"name":"","type":"bool","internalType":"bool"}],"stateMutability":"view"},{"type":"event","name":"ExecutedWithFail","inputs":[{"name":"asset","type":"address","indexed":false,"internalType":"address"},{"name":"amount","type":"uint256","indexed":false,"internalType":"uint256"},{"name":"premium","type":"uint256","indexed":false,"internalType":"uint256"}],"anonymous":false},{"type":"event","name":"ExecutedWithSuccess","inputs":[{"name":"asset","type":"address","indexed":false,"internalType":"address"},{"name":"amount","type":"uint256","indexed":false,"internalType":"uint256"},{"name":"premium","type":"uint256","indexed":false,"internalType":"uint256"}],"anonymous":false}],"bytecode":{"object":"0x60c060405234801561000f575f5ffd5b506040516106e93803806106e983398101604081905261002e916100d4565b80806001600160a01b03166080816001600160a01b031681525050806001600160a01b031663026b1d5f6040518163ffffffff1660e01b8152600401602060405180830381865afa158015610085573d5f5f3e3d5ffd5b505050506040513d601f19601f820116820180604052508101906100a991906100d4565b6001600160a01b031660a052506100f69050565b6001600160a01b03811681146100d1575f5ffd5b50565b5f602082840312156100e4575f5ffd5b81516100ef816100bd565b9392505050565b60805160a0516105cc61011d5f395f8181610133015261034601525f608e01526105cc5ff3fe608060405234801561000f575f5ffd5b5060043610610085575f3560e01c80635e76bba3116100585780635e76bba31461011d5780637535d2461461012e578063bf443f8514610155578063e9a6a25b14610168575f5ffd5b80630542975c146100895780631b11d0ff146100cd578063388f70f1146100f05780634444f33114610112575b5f5ffd5b6100b07f000000000000000000000000000000000000000000000000000000000000000081565b6040516001600160a01b0390911681526020015b60405180910390f35b6100e06100db36600461045e565b610189565b60405190151581526020016100c4565b6101106100fe366004610554565b5f805460ff1916911515919091179055565b005b60025460ff166100e0565b6001546040519081526020016100c4565b6100b07f000000000000000000000000000000000000000000000000000000000000000081565b610110610163366004610576565b600155565b610110610176366004610554565b6002805460ff1916911515919091179055565b5f805460ff16156101eb57604080516001600160a01b0388168152602081018790529081018590527f816f6a6bc084e1996be1a831afa1af30763d0501b6b43b9e1922a11f347366d79060600160405180910390a15060025460ff1615610411565b6040516370a0823160e01b815230600482015286906001600160a01b038216906370a0823190602401602060405180830381865afa15801561022f573d5f5f3e3d5ffd5b505050506040513d601f19601f82011682018060405250810190610253919061058d565b8611156102a65760405162461bcd60e51b815260206004820181905260248201527f496e76616c69642062616c616e636520666f722074686520636f6e7472616374604482015260640160405180910390fd5b5f6001545f036102bf576102ba878761041a565b6102c3565b6001545b60405163140e25ad60e31b8152600481018890529091506001600160a01b0383169063a0712d68906024016020604051808303815f875af115801561030a573d5f5f3e3d5ffd5b505050506040513d601f19601f8201168201806040525081019061032e91906105a4565b5060405163095ea7b360e01b81526001600160a01b037f0000000000000000000000000000000000000000000000000000000000000000811660048301526024820183905289169063095ea7b3906044016020604051808303815f875af115801561039b573d5f5f3e3d5ffd5b505050506040513d601f19601f820116820180604052508101906103bf91906105a4565b50604080516001600160a01b038a168152602081018990529081018790527f7d94e9d0c906b8d7b2b52a581b9e9ba728aa6f8cd8532bd87243d193f47401be9060600160405180910390a16001925050505b95945050505050565b80820182811015610429575f5ffd5b92915050565b80356001600160a01b0381168114610445575f5ffd5b919050565b634e487b7160e01b5f52604160045260245ffd5b5f5f5f5f5f60a08688031215610472575f5ffd5b61047b8661042f565b945060208601359350604086013592506104976060870161042f565b9150608086013567ffffffffffffffff8111156104b2575f5ffd5b8601601f810188136104c2575f5ffd5b803567ffffffffffffffff8111156104dc576104dc61044a565b604051601f8201601f19908116603f0116810167ffffffffffffffff8111828210171561050b5761050b61044a565b6040528181528282016020018a1015610522575f5ffd5b816020840160208301375f602083830101528093505050509295509295909350565b8015158114610551575f5ffd5b50565b5f60208284031215610564575f5ffd5b813561056f81610544565b9392505050565b5f60208284031215610586575f5ffd5b5035919050565b5f6020828403121561059d575f5ffd5b5051919050565b5f602082840312156105b4575f5ffd5b815161056f8161054456fea164736f6c634300081b000a","linkReferences":{}},"methodIdentifiers":{"ADDRESSES_PROVIDER()":"0542975c","POOL()":"7535d246","executeOperation(address,uint256,uint256,address,bytes)":"1b11d0ff","getAmountToApprove()":"5e76bba3","setAmountToApprove(uint256)":"bf443f85","setFailExecutionTransfer(bool)":"388f70f1","setSimulateEOA(bool)":"e9a6a25b","simulateEOA()":"4444f331"},"id":196}