{"abi":[{"type":"constructor","inputs":[{"name":"name","type":"string","internalType":"string"},{"name":"symbol","type":"string","internalType":"string"},{"name":"decimals","type":"uint8","internalType":"uint8"}],"stateMutability":"nonpayable"},{"type":"function","name":"DOMAIN_SEPARATOR","inputs":[],"outputs":[{"name":"","type":"bytes32","internalType":"bytes32"}],"stateMutability":"view"},{"type":"function","name":"EIP712_REVISION","inputs":[],"outputs":[{"name":"","type":"bytes","internalType":"bytes"}],"stateMutability":"view"},{"type":"function","name":"PERMIT_TYPEHASH","inputs":[],"outputs":[{"name":"","type":"bytes32","internalType":"bytes32"}],"stateMutability":"view"},{"type":"function","name":"allowance","inputs":[{"name":"owner","type":"address","internalType":"address"},{"name":"spender","type":"address","internalType":"address"}],"outputs":[{"name":"","type":"uint256","internalType":"uint256"}],"stateMutability":"view"},{"type":"function","name":"approve","inputs":[{"name":"spender","type":"address","internalType":"address"},{"name":"amount","type":"uint256","internalType":"uint256"}],"outputs":[{"name":"","type":"bool","internalType":"bool"}],"stateMutability":"nonpayable"},{"type":"function","name":"balanceOf","inputs":[{"name":"account","type":"address","internalType":"address"}],"outputs":[{"name":"","type":"uint256","internalType":"uint256"}],"stateMutability":"view"},{"type":"function","name":"decimals","inputs":[],"outputs":[{"name":"","type":"uint8","internalType":"uint8"}],"stateMutability":"view"},{"type":"function","name":"decreaseAllowance","inputs":[{"name":"spender","type":"address","internalType":"address"},{"name":"subtractedValue","type":"uint256","internalType":"uint256"}],"outputs":[{"name":"","type":"bool","internalType":"bool"}],"stateMutability":"nonpayable"},{"type":"function","name":"increaseAllowance","inputs":[{"name":"spender","type":"address","internalType":"address"},{"name":"addedValue","type":"uint256","internalType":"uint256"}],"outputs":[{"name":"","type":"bool","internalType":"bool"}],"stateMutability":"nonpayable"},{"type":"function","name":"mint","inputs":[{"name":"account","type":"address","internalType":"address"},{"name":"value","type":"uint256","internalType":"uint256"}],"outputs":[{"name":"","type":"bool","internalType":"bool"}],"stateMutability":"nonpayable"},{"type":"function","name":"mint","inputs":[{"name":"value","type":"uint256","internalType":"uint256"}],"outputs":[{"name":"","type":"bool","internalType":"bool"}],"stateMutability":"nonpayable"},{"type":"function","name":"name","inputs":[],"outputs":[{"name":"","type":"string","internalType":"string"}],"stateMutability":"view"},{"type":"function","name":"nonces","inputs":[{"name":"owner","type":"address","internalType":"address"}],"outputs":[{"name":"","type":"uint256","internalType":"uint256"}],"stateMutability":"view"},{"type":"function","name":"permit","inputs":[{"name":"owner","type":"address","internalType":"address"},{"name":"spender","type":"address","internalType":"address"},{"name":"value","type":"uint256","internalType":"uint256"},{"name":"deadline","type":"uint256","internalType":"uint256"},{"name":"v","type":"uint8","internalType":"uint8"},{"name":"r","type":"bytes32","internalType":"bytes32"},{"name":"s","type":"bytes32","internalType":"bytes32"}],"outputs":[],"stateMutability":"nonpayable"},{"type":"function","name":"symbol","inputs":[],"outputs":[{"name":"","type":"string","internalType":"string"}],"stateMutability":"view"},{"type":"function","name":"totalSupply","inputs":[],"outputs":[{"name":"","type":"uint256","internalType":"uint256"}],"stateMutability":"view"},{"type":"function","name":"transfer","inputs":[{"name":"recipient","type":"address","internalType":"address"},{"name":"amount","type":"uint256","internalType":"uint256"}],"outputs":[{"name":"","type":"bool","internalType":"bool"}],"stateMutability":"nonpayable"},{"type":"function","name":"transferFrom","inputs":[{"name":"sender","type":"address","internalType":"address"},{"name":"recipient","type":"address","internalType":"address"},{"name":"amount","type":"uint256","internalType":"uint256"}],"outputs":[{"name":"","type":"bool","internalType":"bool"}],"stateMutability":"nonpayable"},{"type":"event","name":"Approval","inputs":[{"name":"owner","type":"address","indexed":true,"internalType":"address"},{"name":"spender","type":"address","indexed":true,"internalType":"address"},{"name":"value","type":"uint256","indexed":false,"internalType":"uint256"}],"anonymous":false},{"type":"event","name":"Transfer","inputs":[{"name":"from","type":"address","indexed":true,"internalType":"address"},{"name":"to","type":"address","indexed":true,"internalType":"address"},{"name":"value","type":"uint256","indexed":false,"internalType":"uint256"}],"anonymous":false},{"type":"error","name":"ECDSAInvalidSignature","inputs":[]},{"type":"error","name":"ECDSAInvalidSignatureLength","inputs":[{"name":"length","type":"uint256","internalType":"uint256"}]},{"type":"error","name":"ECDSAInvalidSignatureS","inputs":[{"name":"s","type":"bytes32","internalType":"bytes32"}]}],"bytecode":{"object":"0x608060405234801561000f575f5ffd5b5060405161121238038061121283398101604081905261002e916101b9565b8282600361003c83826102ba565b50600461004982826102ba565b505060058054855160209687012060408051808201825260018152603160f81b9089015280517f8b73c3c69bb8fe3d512ecc4cf759cc79239f7b179b0ffacaa9a75d522b39400f818a0152808201929092527fc89efdaa54c0f20c7adf612882df0950f5a951637e0307cdcb4c672f298b8bc660608301524660808301523060a0808401919091528151808403909101815260c09092019052805196019590952060075560ff9290921660ff19909416939093179055506103749050565b634e487b7160e01b5f52604160045260245ffd5b5f82601f83011261012a575f5ffd5b81516001600160401b0381111561014357610143610107565b604051601f8201601f19908116603f011681016001600160401b038111828210171561017157610171610107565b604052818152838201602001851015610188575f5ffd5b5f5b828110156101a65760208186018101518383018201520161018a565b505f918101602001919091529392505050565b5f5f5f606084860312156101cb575f5ffd5b83516001600160401b038111156101e0575f5ffd5b6101ec8682870161011b565b602086015190945090506001600160401b03811115610209575f5ffd5b6102158682870161011b565b925050604084015160ff8116811461022b575f5ffd5b809150509250925092565b600181811c9082168061024a57607f821691505b60208210810361026857634e487b7160e01b5f52602260045260245ffd5b50919050565b601f8211156102b557805f5260205f20601f840160051c810160208510156102935750805b601f840160051c820191505b818110156102b2575f815560010161029f565b50505b505050565b81516001600160401b038111156102d3576102d3610107565b6102e7816102e18454610236565b8461026e565b6020601f821160018114610319575f83156103025750848201515b5f19600385901b1c1916600184901b1784556102b2565b5f84815260208120601f198516915b828110156103485787850151825560209485019460019092019101610328565b508482101561036557868401515f19600387901b60f8161c191681555b50505050600190811b01905550565b610e91806103815f395ff3fe608060405234801561000f575f5ffd5b5060043610610111575f3560e01c806370a082311161009e578063a0712d681161006e578063a0712d681461025e578063a457c2d714610271578063a9059cbb14610284578063d505accf14610297578063dd62ed3e146102ac575f5ffd5b806370a08231146101e6578063781603761461020e5780637ecebe001461022e57806395d89b4114610256575f5ffd5b806330adf81f116100e457806330adf81f1461017b578063313ce567146101a25780633644e515146101b757806339509351146101c057806340c10f19146101d3575f5ffd5b806306fdde0314610115578063095ea7b31461013357806318160ddd1461015657806323b872dd14610168575b5f5ffd5b61011d6102e4565b60405161012a9190610c42565b60405180910390f35b610146610141366004610c76565b610374565b604051901515815260200161012a565b6002545b60405190815260200161012a565b610146610176366004610c9e565b61038a565b61015a7f6e71edae12b1b97f4d1f60370fef10105fa2faae0126114a169c64845d6126c981565b60055460405160ff909116815260200161012a565b61015a60075481565b6101466101ce366004610c76565b6103f1565b6101466101e1366004610c76565b610426565b61015a6101f4366004610cd8565b6001600160a01b03165f9081526020819052604090205490565b61011d604051806040016040528060018152602001603160f81b81525081565b61015a61023c366004610cd8565b6001600160a01b03165f9081526006602052604090205490565b61011d610431565b61014661026c366004610cf1565b610440565b61014661027f366004610c76565b610453565b610146610292366004610c76565b6104a0565b6102aa6102a5366004610d08565b6104ac565b005b61015a6102ba366004610d75565b6001600160a01b039182165f90815260016020908152604080832093909416825291909152205490565b6060600380546102f390610da6565b80601f016020809104026020016040519081016040528092919081815260200182805461031f90610da6565b801561036a5780601f106103415761010080835404028352916020019161036a565b820191905f5260205f20905b81548152906001019060200180831161034d57829003601f168201915b5050505050905090565b5f610380338484610693565b5060015b92915050565b5f6103968484846107b7565b6103e784336103e285604051806060016040528060288152602001610e38602891396001600160a01b038a165f9081526001602090815260408083203384529091529020549190610937565b610693565b5060019392505050565b335f8181526001602090815260408083206001600160a01b038716845290915281205490916103809185906103e29086610964565b5f6103808383610973565b6060600480546102f390610da6565b5f61044b3383610973565b506001919050565b5f61038033846103e285604051806060016040528060258152602001610e6060259139335f9081526001602090815260408083206001600160a01b038d1684529091529020549190610937565b5f6103803384846107b7565b6001600160a01b0387166104f75760405162461bcd60e51b815260206004820152600d60248201526c24a72b20a624a22fa7aba722a960991b60448201526064015b60405180910390fd5b8342111561053c5760405162461bcd60e51b815260206004820152601260248201527124a72b20a624a22fa2ac2824a920aa24a7a760711b60448201526064016104ee565b6001600160a01b038781165f8181526006602090815260408083205460075482517f6e71edae12b1b97f4d1f60370fef10105fa2faae0126114a169c64845d6126c98186015280840196909652958c166060860152608085018b905260a0850181905260c08086018b90528251808703909101815260e086019092528151919092012061190160f01b610100850152610102840194909452610122830193909352906101420160405160208183030381529060405280519060200120905061060681868686610a4f565b6001600160a01b0316896001600160a01b03161461065a5760405162461bcd60e51b8152602060048201526011602482015270494e56414c49445f5349474e415455524560781b60448201526064016104ee565b610665826001610dde565b6001600160a01b038a165f90815260066020526040902055610688898989610693565b505050505050505050565b6001600160a01b0383166106f55760405162461bcd60e51b8152602060048201526024808201527f45524332303a20617070726f76652066726f6d20746865207a65726f206164646044820152637265737360e01b60648201526084016104ee565b6001600160a01b0382166107565760405162461bcd60e51b815260206004820152602260248201527f45524332303a20617070726f766520746f20746865207a65726f206164647265604482015261737360f01b60648201526084016104ee565b6001600160a01b038381165f8181526001602090815260408083209487168084529482529182902085905590518481527f8c5be1e5ebec7d5bd14f71427d1e84f3dd0314c0f7b2291e5b200ac8c7c3b92591015b60405180910390a3505050565b6001600160a01b03831661081b5760405162461bcd60e51b815260206004820152602560248201527f45524332303a207472616e736665722066726f6d20746865207a65726f206164604482015264647265737360d81b60648201526084016104ee565b6001600160a01b03821661087d5760405162461bcd60e51b815260206004820152602360248201527f45524332303a207472616e7366657220746f20746865207a65726f206164647260448201526265737360e81b60648201526084016104ee565b6108b981604051806060016040528060268152602001610e12602691396001600160a01b0386165f908152602081905260409020549190610937565b6001600160a01b038085165f9081526020819052604080822093909355908416815220546108e79082610964565b6001600160a01b038381165f818152602081815260409182902094909455518481529092918616917fddf252ad1be2c89b69c2b068fc378daa952ba7f163c4a11628f55a4df523b3ef91016107aa565b818303818482111561095c5760405162461bcd60e51b81526004016104ee9190610c42565b509392505050565b80820182811015610384575f5ffd5b6001600160a01b0382166109c95760405162461bcd60e51b815260206004820152601f60248201527f45524332303a206d696e7420746f20746865207a65726f20616464726573730060448201526064016104ee565b6002546109d69082610964565b6002556001600160a01b0382165f908152602081905260409020546109fb9082610964565b6001600160a01b0383165f81815260208181526040808320949094559251848152919290917fddf252ad1be2c89b69c2b068fc378daa952ba7f163c4a11628f55a4df523b3ef910160405180910390a35050565b5f5f5f5f610a5f88888888610a7b565b925092509250610a6f8282610b43565b50909695505050505050565b5f80807f7fffffffffffffffffffffffffffffff5d576e7357a4501ddfe92f46681b20a0841115610ab457505f91506003905082610b39565b604080515f808252602082018084528a905260ff891692820192909252606081018790526080810186905260019060a0016020604051602081039080840390855afa158015610b05573d5f5f3e3d5ffd5b5050604051601f1901519150506001600160a01b038116610b3057505f925060019150829050610b39565b92505f91508190505b9450945094915050565b5f826003811115610b5657610b56610dfd565b03610b5f575050565b6001826003811115610b7357610b73610dfd565b03610b915760405163f645eedf60e01b815260040160405180910390fd5b6002826003811115610ba557610ba5610dfd565b03610bc65760405163fce698f760e01b8152600481018290526024016104ee565b6003826003811115610bda57610bda610dfd565b03610bfb576040516335e2f38360e21b8152600481018290526024016104ee565b5050565b5f81518084525f5b81811015610c2357602081850181015186830182015201610c07565b505f602082860101526020601f19601f83011685010191505092915050565b602081525f610c546020830184610bff565b9392505050565b80356001600160a01b0381168114610c71575f5ffd5b919050565b5f5f60408385031215610c87575f5ffd5b610c9083610c5b565b946020939093013593505050565b5f5f5f60608486031215610cb0575f5ffd5b610cb984610c5b565b9250610cc760208501610c5b565b929592945050506040919091013590565b5f60208284031215610ce8575f5ffd5b610c5482610c5b565b5f60208284031215610d01575f5ffd5b5035919050565b5f5f5f5f5f5f5f60e0888a031215610d1e575f5ffd5b610d2788610c5b565b9650610d3560208901610c5b565b95506040880135945060608801359350608088013560ff81168114610d58575f5ffd5b9699959850939692959460a0840135945060c09093013592915050565b5f5f60408385031215610d86575f5ffd5b610d8f83610c5b565b9150610d9d60208401610c5b565b90509250929050565b600181811c90821680610dba57607f821691505b602082108103610dd857634e487b7160e01b5f52602260045260245ffd5b50919050565b8082018082111561038457634e487b7160e01b5f52601160045260245ffd5b634e487b7160e01b5f52602160045260245ffdfe45524332303a207472616e7366657220616d6f756e7420657863656564732062616c616e636545524332303a207472616e7366657220616d6f756e74206578636565647320616c6c6f77616e636545524332303a2064656372656173656420616c6c6f77616e63652062656c6f77207a65726fa164736f6c634300081b000a","linkReferences":{}},"methodIdentifiers":{"DOMAIN_SEPARATOR()":"3644e515","EIP712_REVISION()":"78160376","PERMIT_TYPEHASH()":"30adf81f","allowance(address,address)":"dd62ed3e","approve(address,uint256)":"095ea7b3","balanceOf(address)":"70a08231","decimals()":"313ce567","decreaseAllowance(address,uint256)":"a457c2d7","increaseAllowance(address,uint256)":"39509351","mint(address,uint256)":"40c10f19","mint(uint256)":"a0712d68","name()":"06fdde03","nonces(address)":"7ecebe00","permit(address,address,uint256,uint256,uint8,bytes32,bytes32)":"d505accf","symbol()":"95d89b41","totalSupply()":"18160ddd","transfer(address,uint256)":"a9059cbb","transferFrom(address,address,uint256)":"23b872dd"},"id":201}