{"abi":[{"type":"constructor","inputs":[{"name":"provider","type":"address","internalType":"contract IPoolAddressesProvider"},{"name":"oracle","type":"address","internalType":"contract ISequencerOracle"},{"name":"gracePeriod","type":"uint256","internalType":"uint256"}],"stateMutability":"nonpayable"},{"type":"function","name":"ADDRESSES_PROVIDER","inputs":[],"outputs":[{"name":"","type":"address","internalType":"contract IPoolAddressesProvider"}],"stateMutability":"view"},{"type":"function","name":"getGracePeriod","inputs":[],"outputs":[{"name":"","type":"uint256","internalType":"uint256"}],"stateMutability":"view"},{"type":"function","name":"getSequencerOracle","inputs":[],"outputs":[{"name":"","type":"address","internalType":"address"}],"stateMutability":"view"},{"type":"function","name":"isBorrowAllowed","inputs":[],"outputs":[{"name":"","type":"bool","internalType":"bool"}],"stateMutability":"view"},{"type":"function","name":"isLiquidationAllowed","inputs":[],"outputs":[{"name":"","type":"bool","internalType":"bool"}],"stateMutability":"view"},{"type":"function","name":"setGracePeriod","inputs":[{"name":"newGracePeriod","type":"uint256","internalType":"uint256"}],"outputs":[],"stateMutability":"nonpayable"},{"type":"function","name":"setSequencerOracle","inputs":[{"name":"newSequencerOracle","type":"address","internalType":"address"}],"outputs":[],"stateMutability":"nonpayable"},{"type":"event","name":"GracePeriodUpdated","inputs":[{"name":"newGracePeriod","type":"uint256","indexed":false,"internalType":"uint256"}],"anonymous":false},{"type":"event","name":"SequencerOracleUpdated","inputs":[{"name":"newSequencerOracle","type":"address","indexed":false,"internalType":"address"}],"anonymous":false},{"type":"error","name":"CallerNotPoolAdmin","inputs":[]},{"type":"error","name":"CallerNotRiskOrPoolAdmin","inputs":[]}],"bytecode":{"object":"0x60a060405234801561000f575f5ffd5b506040516106d23803806106d283398101604081905261002e91610073565b6001600160a01b039283166080525f80546001600160a01b03191692909316919091179091556001556100b3565b6001600160a01b0381168114610070575f5ffd5b50565b5f5f5f60608486031215610085575f5ffd5b83516100908161005c565b60208501519093506100a18161005c565b80925050604084015190509250925092565b6080516105fa6100d85f395f8181608301528181610134015261029001526105fa5ff3fe608060405234801561000f575f5ffd5b506004361061007a575f3560e01c80637a5d20ea116100585780637a5d20ea146100d2578063dbd18388146100ea578063f0aef31c146100fb578063f2f6596014610110575f5ffd5b80630542975c1461007e57806312168dc2146100c257806349aa2e81146100d2575b5f5ffd5b6100a57f000000000000000000000000000000000000000000000000000000000000000081565b6040516001600160a01b0390911681526020015b60405180910390f35b5f546001600160a01b03166100a5565b6100da610123565b60405190151581526020016100b9565b6001546040519081526020016100b9565b61010e6101093660046104e9565b610131565b005b61010e61011e36600461050b565b61028d565b5f61012c610435565b905090565b5f7f00000000000000000000000000000000000000000000000000000000000000006001600160a01b031663707cd7166040518163ffffffff1660e01b8152600401602060405180830381865afa15801561018e573d5f5f3e3d5ffd5b505050506040513d601f19601f820116820180604052508101906101b29190610522565b604051637be53ca160e01b81523360048201529091506001600160a01b03821690637be53ca190602401602060405180830381865afa1580156101f7573d5f5f3e3d5ffd5b505050506040513d601f19601f8201168201806040525081019061021b919061053d565b6102385760405163cdd36a9760e01b815260040160405180910390fd5b5f80546001600160a01b0319166001600160a01b0384169081179091556040519081527f95cbf1d8f44ec81ff345ed9cf2fe53b6a6473e072bf046ee412f198c54dba449906020015b60405180910390a15050565b5f7f00000000000000000000000000000000000000000000000000000000000000006001600160a01b031663707cd7166040518163ffffffff1660e01b8152600401602060405180830381865afa1580156102ea573d5f5f3e3d5ffd5b505050506040513d601f19601f8201168201806040525081019061030e9190610522565b60405163674b5e4d60e01b81523360048201529091506001600160a01b0382169063674b5e4d90602401602060405180830381865afa158015610353573d5f5f3e3d5ffd5b505050506040513d601f19601f82011682018060405250810190610377919061053d565b806103e35750604051637be53ca160e01b81523360048201526001600160a01b03821690637be53ca190602401602060405180830381865afa1580156103bf573d5f5f3e3d5ffd5b505050506040513d601f19601f820116820180604052508101906103e3919061053d565b610400576040516366e574d760e01b815260040160405180910390fd5b60018290556040518281527f33d1191f5a3abfe19d468d51bb5ece97489f1277a912a5b5c65992fc279ad3d490602001610281565b5f5f5f5f5f9054906101000a90046001600160a01b03166001600160a01b031663feaf968c6040518163ffffffff1660e01b815260040160a060405180830381865afa158015610487573d5f5f3e3d5ffd5b505050506040513d601f19601f820116820180604052508101906104ab919061057a565b50509250925050815f1480156104cb57506001546104c982426105c8565b115b9250505090565b6001600160a01b03811681146104e6575f5ffd5b50565b5f602082840312156104f9575f5ffd5b8135610504816104d2565b9392505050565b5f6020828403121561051b575f5ffd5b5035919050565b5f60208284031215610532575f5ffd5b8151610504816104d2565b5f6020828403121561054d575f5ffd5b81518015158114610504575f5ffd5b805169ffffffffffffffffffff81168114610575575f5ffd5b919050565b5f5f5f5f5f60a0868803121561058e575f5ffd5b6105978661055c565b602087015160408801516060890151929750909550935091506105bc6080870161055c565b90509295509295909350565b818103818111156105e757634e487b7160e01b5f52601160045260245ffd5b9291505056fea164736f6c634300081b000a","linkReferences":{}},"methodIdentifiers":{"ADDRESSES_PROVIDER()":"0542975c","getGracePeriod()":"dbd18388","getSequencerOracle()":"12168dc2","isBorrowAllowed()":"49aa2e81","isLiquidationAllowed()":"7a5d20ea","setGracePeriod(uint256)":"f2f65960","setSequencerOracle(address)":"f0aef31c"},"id":183}