{"abi":[{"type":"constructor","inputs":[{"name":"owner","type":"address","internalType":"address"},{"name":"roles","type":"tuple","internalType":"struct Roles","components":[{"name":"marketOwner","type":"address","internalType":"address"},{"name":"poolAdmin","type":"address","internalType":"address"},{"name":"emergencyAdmin","type":"address","internalType":"address"}]},{"name":"config","type":"tuple","internalType":"struct MarketConfig","components":[{"name":"networkBaseTokenPriceInUsdProxyAggregator","type":"address","internalType":"address"},{"name":"marketReferenceCurrencyPriceInUsdProxyAggregator","type":"address","internalType":"address"},{"name":"marketId","type":"string","internalType":"string"},{"name":"oracleDecimals","type":"uint8","internalType":"uint8"},{"name":"paraswapAugustusRegistry","type":"address","internalType":"address"},{"name":"l2SequencerUptimeFeed","type":"address","internalType":"address"},{"name":"l2PriceOracleSentinelGracePeriod","type":"uint256","internalType":"uint256"},{"name":"providerId","type":"uint256","internalType":"uint256"},{"name":"salt","type":"bytes32","internalType":"bytes32"},{"name":"wrappedNativeToken","type":"address","internalType":"address"},{"name":"flashLoanPremium","type":"uint128","internalType":"uint128"},{"name":"incentivesProxy","type":"address","internalType":"address"},{"name":"treasury","type":"address","internalType":"address"},{"name":"treasuryPartner","type":"address","internalType":"address"},{"name":"treasurySplitPercent","type":"uint16","internalType":"uint16"}]},{"name":"deployedContracts","type":"tuple","internalType":"struct MarketReport","components":[{"name":"poolAddressesProviderRegistry","type":"address","internalType":"address"},{"name":"poolAddressesProvider","type":"address","internalType":"address"},{"name":"poolProxy","type":"address","internalType":"address"},{"name":"poolImplementation","type":"address","internalType":"address"},{"name":"poolConfiguratorProxy","type":"address","internalType":"address"},{"name":"poolConfiguratorImplementation","type":"address","internalType":"address"},{"name":"protocolDataProvider","type":"address","internalType":"address"},{"name":"aaveOracle","type":"address","internalType":"address"},{"name":"defaultInterestRateStrategy","type":"address","internalType":"address"},{"name":"priceOracleSentinel","type":"address","internalType":"address"},{"name":"aclManager","type":"address","internalType":"address"},{"name":"treasury","type":"address","internalType":"address"},{"name":"treasuryImplementation","type":"address","internalType":"address"},{"name":"wrappedTokenGateway","type":"address","internalType":"address"},{"name":"walletBalanceProvider","type":"address","internalType":"address"},{"name":"uiIncentiveDataProvider","type":"address","internalType":"address"},{"name":"uiPoolDataProvider","type":"address","internalType":"address"},{"name":"paraSwapLiquiditySwapAdapter","type":"address","internalType":"address"},{"name":"paraSwapRepayAdapter","type":"address","internalType":"address"},{"name":"paraSwapWithdrawSwapAdapter","type":"address","internalType":"address"},{"name":"l2Encoder","type":"address","internalType":"address"},{"name":"aToken","type":"address","internalType":"address"},{"name":"variableDebtToken","type":"address","internalType":"address"},{"name":"emissionManager","type":"address","internalType":"address"},{"name":"rewardsControllerImplementation","type":"address","internalType":"address"},{"name":"rewardsControllerProxy","type":"address","internalType":"address"},{"name":"configEngine","type":"address","internalType":"address"},{"name":"transparentProxyFactory","type":"address","internalType":"address"},{"name":"staticATokenFactoryImplementation","type":"address","internalType":"address"},{"name":"staticATokenFactoryProxy","type":"address","internalType":"address"},{"name":"staticATokenImplementation","type":"address","internalType":"address"},{"name":"revenueSplitter","type":"address","internalType":"address"},{"name":"dustBin","type":"address","internalType":"address"},{"name":"emptyImplementation","type":"address","internalType":"address"}]}],"stateMutability":"nonpayable"},{"type":"function","name":"getInitialReport","inputs":[],"outputs":[{"name":"","type":"tuple","internalType":"struct InitialReport","components":[{"name":"poolAddressesProvider","type":"address","internalType":"address"},{"name":"interestRateStrategy","type":"address","internalType":"address"},{"name":"poolAddressesProviderRegistry","type":"address","internalType":"address"}]}],"stateMutability":"view"},{"type":"function","name":"getSetupReport","inputs":[],"outputs":[{"name":"","type":"tuple","internalType":"struct SetupReport","components":[{"name":"poolProxy","type":"address","internalType":"address"},{"name":"poolConfiguratorProxy","type":"address","internalType":"address"},{"name":"rewardsControllerProxy","type":"address","internalType":"address"},{"name":"aclManager","type":"address","internalType":"address"}]}],"stateMutability":"view"},{"type":"function","name":"owner","inputs":[],"outputs":[{"name":"","type":"address","internalType":"address"}],"stateMutability":"view"},{"type":"function","name":"renounceOwnership","inputs":[],"outputs":[],"stateMutability":"nonpayable"},{"type":"function","name":"setMarketReport","inputs":[{"name":"marketReport","type":"tuple","internalType":"struct MarketReport","components":[{"name":"poolAddressesProviderRegistry","type":"address","internalType":"address"},{"name":"poolAddressesProvider","type":"address","internalType":"address"},{"name":"poolProxy","type":"address","internalType":"address"},{"name":"poolImplementation","type":"address","internalType":"address"},{"name":"poolConfiguratorProxy","type":"address","internalType":"address"},{"name":"poolConfiguratorImplementation","type":"address","internalType":"address"},{"name":"protocolDataProvider","type":"address","internalType":"address"},{"name":"aaveOracle","type":"address","internalType":"address"},{"name":"defaultInterestRateStrategy","type":"address","internalType":"address"},{"name":"priceOracleSentinel","type":"address","internalType":"address"},{"name":"aclManager","type":"address","internalType":"address"},{"name":"treasury","type":"address","internalType":"address"},{"name":"treasuryImplementation","type":"address","internalType":"address"},{"name":"wrappedTokenGateway","type":"address","internalType":"address"},{"name":"walletBalanceProvider","type":"address","internalType":"address"},{"name":"uiIncentiveDataProvider","type":"address","internalType":"address"},{"name":"uiPoolDataProvider","type":"address","internalType":"address"},{"name":"paraSwapLiquiditySwapAdapter","type":"address","internalType":"address"},{"name":"paraSwapRepayAdapter","type":"address","internalType":"address"},{"name":"paraSwapWithdrawSwapAdapter","type":"address","internalType":"address"},{"name":"l2Encoder","type":"address","internalType":"address"},{"name":"aToken","type":"address","internalType":"address"},{"name":"variableDebtToken","type":"address","internalType":"address"},{"name":"emissionManager","type":"address","internalType":"address"},{"name":"rewardsControllerImplementation","type":"address","internalType":"address"},{"name":"rewardsControllerProxy","type":"address","internalType":"address"},{"name":"configEngine","type":"address","internalType":"address"},{"name":"transparentProxyFactory","type":"address","internalType":"address"},{"name":"staticATokenFactoryImplementation","type":"address","internalType":"address"},{"name":"staticATokenFactoryProxy","type":"address","internalType":"address"},{"name":"staticATokenImplementation","type":"address","internalType":"address"},{"name":"revenueSplitter","type":"address","internalType":"address"},{"name":"dustBin","type":"address","internalType":"address"},{"name":"emptyImplementation","type":"address","internalType":"address"}]}],"outputs":[],"stateMutability":"nonpayable"},{"type":"function","name":"setProtocolDataProvider","inputs":[{"name":"protocolDataProvider","type":"address","internalType":"address"}],"outputs":[],"stateMutability":"nonpayable"},{"type":"function","name":"setupAaveV3Market","inputs":[{"name":"roles","type":"tuple","internalType":"struct Roles","components":[{"name":"marketOwner","type":"address","internalType":"address"},{"name":"poolAdmin","type":"address","internalType":"address"},{"name":"emergencyAdmin","type":"address","internalType":"address"}]},{"name":"config","type":"tuple","internalType":"struct MarketConfig","components":[{"name":"networkBaseTokenPriceInUsdProxyAggregator","type":"address","internalType":"address"},{"name":"marketReferenceCurrencyPriceInUsdProxyAggregator","type":"address","internalType":"address"},{"name":"marketId","type":"string","internalType":"string"},{"name":"oracleDecimals","type":"uint8","internalType":"uint8"},{"name":"paraswapAugustusRegistry","type":"address","internalType":"address"},{"name":"l2SequencerUptimeFeed","type":"address","internalType":"address"},{"name":"l2PriceOracleSentinelGracePeriod","type":"uint256","internalType":"uint256"},{"name":"providerId","type":"uint256","internalType":"uint256"},{"name":"salt","type":"bytes32","internalType":"bytes32"},{"name":"wrappedNativeToken","type":"address","internalType":"address"},{"name":"flashLoanPremium","type":"uint128","internalType":"uint128"},{"name":"incentivesProxy","type":"address","internalType":"address"},{"name":"treasury","type":"address","internalType":"address"},{"name":"treasuryPartner","type":"address","internalType":"address"},{"name":"treasurySplitPercent","type":"uint16","internalType":"uint16"}]},{"name":"poolImplementation","type":"address","internalType":"address"},{"name":"poolConfiguratorImplementation","type":"address","internalType":"address"},{"name":"aaveOracle","type":"address","internalType":"address"},{"name":"rewardsControllerImplementation","type":"address","internalType":"address"},{"name":"priceOracleSentinel","type":"address","internalType":"address"}],"outputs":[{"name":"","type":"tuple","internalType":"struct SetupReport","components":[{"name":"poolProxy","type":"address","internalType":"address"},{"name":"poolConfiguratorProxy","type":"address","internalType":"address"},{"name":"rewardsControllerProxy","type":"address","internalType":"address"},{"name":"aclManager","type":"address","internalType":"address"}]}],"stateMutability":"nonpayable"},{"type":"function","name":"transferMarketOwnership","inputs":[{"name":"roles","type":"tuple","internalType":"struct Roles","components":[{"name":"marketOwner","type":"address","internalType":"address"},{"name":"poolAdmin","type":"address","internalType":"address"},{"name":"emergencyAdmin","type":"address","internalType":"address"}]}],"outputs":[],"stateMutability":"nonpayable"},{"type":"function","name":"transferOwnership","inputs":[{"name":"newOwner","type":"address","internalType":"address"}],"outputs":[],"stateMutability":"nonpayable"},{"type":"event","name":"Deployment","inputs":[{"name":"report","type":"tuple","indexed":false,"internalType":"struct MarketReport","components":[{"name":"poolAddressesProviderRegistry","type":"address","internalType":"address"},{"name":"poolAddressesProvider","type":"address","internalType":"address"},{"name":"poolProxy","type":"address","internalType":"address"},{"name":"poolImplementation","type":"address","internalType":"address"},{"name":"poolConfiguratorProxy","type":"address","internalType":"address"},{"name":"poolConfiguratorImplementation","type":"address","internalType":"address"},{"name":"protocolDataProvider","type":"address","internalType":"address"},{"name":"aaveOracle","type":"address","internalType":"address"},{"name":"defaultInterestRateStrategy","type":"address","internalType":"address"},{"name":"priceOracleSentinel","type":"address","internalType":"address"},{"name":"aclManager","type":"address","internalType":"address"},{"name":"treasury","type":"address","internalType":"address"},{"name":"treasuryImplementation","type":"address","internalType":"address"},{"name":"wrappedTokenGateway","type":"address","internalType":"address"},{"name":"walletBalanceProvider","type":"address","internalType":"address"},{"name":"uiIncentiveDataProvider","type":"address","internalType":"address"},{"name":"uiPoolDataProvider","type":"address","internalType":"address"},{"name":"paraSwapLiquiditySwapAdapter","type":"address","internalType":"address"},{"name":"paraSwapRepayAdapter","type":"address","internalType":"address"},{"name":"paraSwapWithdrawSwapAdapter","type":"address","internalType":"address"},{"name":"l2Encoder","type":"address","internalType":"address"},{"name":"aToken","type":"address","internalType":"address"},{"name":"variableDebtToken","type":"address","internalType":"address"},{"name":"emissionManager","type":"address","internalType":"address"},{"name":"rewardsControllerImplementation","type":"address","internalType":"address"},{"name":"rewardsControllerProxy","type":"address","internalType":"address"},{"name":"configEngine","type":"address","internalType":"address"},{"name":"transparentProxyFactory","type":"address","internalType":"address"},{"name":"staticATokenFactoryImplementation","type":"address","internalType":"address"},{"name":"staticATokenFactoryProxy","type":"address","internalType":"address"},{"name":"staticATokenImplementation","type":"address","internalType":"address"},{"name":"revenueSplitter","type":"address","internalType":"address"},{"name":"dustBin","type":"address","internalType":"address"},{"name":"emptyImplementation","type":"address","internalType":"address"}]}],"anonymous":false},{"type":"event","name":"OwnershipTransferred","inputs":[{"name":"previousOwner","type":"address","indexed":true,"internalType":"address"},{"name":"newOwner","type":"address","indexed":true,"internalType":"address"}],"anonymous":false},{"type":"error","name":"MarketOwnerMustBeSet","inputs":[]},{"type":"error","name":"RewardsControllerImplementationMustBeSet","inputs":[]}],"bytecode":{"object":"0x608060405234801561000f575f5ffd5b50604051616f35380380616f3583398101604081905261002e91610802565b602280546001600160a01b0319163390811790915560405181905f905f516020616f155f395f51905f52908290a350610066846100d1565b80518351604084015160e0850151610080939291906101dd565b8051602380546001600160a01b03199081166001600160a01b0393841617909155602083015160248054831691841691909117905560409092015160258054909316911617905550610a0a92505050565b6022546001600160a01b031633146101305760405162461bcd60e51b815260206004820181905260248201527f4f776e61626c653a2063616c6c6572206973206e6f7420746865206f776e657260448201526064015b60405180910390fd5b6001600160a01b0381166101955760405162461bcd60e51b815260206004820152602660248201527f4f776e61626c653a206e6577206f776e657220697320746865207a65726f206160448201526564647265737360d01b6064820152608401610127565b6022546040516001600160a01b038084169216905f516020616f155f395f51905f52905f90a3602280546001600160a01b0319166001600160a01b0392909216919091179055565b604080516060810182525f8082526020820181905291810191909152604080516060810182525f80825260208201819052918101919091528330604051610223906103ce565b61022e9291906109c7565b604051809103905ff080158015610247573d5f5f3e3d5ffd5b506001600160a01b0316808252604051610260906103db565b6001600160a01b039091168152602001604051809103905ff080158015610289573d5f5f3e3d5ffd5b506001600160a01b0316602082015280516102a89086908890866102bf565b6001600160a01b0316604082015295945050505050565b5f806001600160a01b0385166103c257306040516102dc906103e8565b6001600160a01b039091168152602001604051809103905ff080158015610305573d5f5f3e3d5ffd5b5060405163692c0c8f60e11b81526001600160a01b038681166004830152602482018690529192509082169063d258191e906044015f604051808303815f87803b158015610351575f5ffd5b505af1158015610363573d5f5f3e3d5ffd5b505060405163f2fde38b60e01b81526001600160a01b0389811660048301528416925063f2fde38b91506024015f604051808303815f87803b1580156103a7575f5ffd5b505af11580156103b9573d5f5f3e3d5ffd5b505050506103c5565b50835b95945050505050565b61203b806136c483390190565b610eaf806156ff83390190565b610967806165ae83390190565b80516001600160a01b038116811461040b575f5ffd5b919050565b634e487b7160e01b5f52604160045260245ffd5b60405161044081016001600160401b038111828210171561044757610447610410565b60405290565b604051606081016001600160401b038111828210171561044757610447610410565b6040516101e081016001600160401b038111828210171561044757610447610410565b5f5b838110156104ac578181015183820152602001610494565b50505f910152565b5f82601f8301126104c3575f5ffd5b81516001600160401b038111156104dc576104dc610410565b604051601f8201601f19908116603f011681016001600160401b038111828210171561050a5761050a610410565b604052818152838201602001851015610521575f5ffd5b610532826020830160208701610492565b949350505050565b805160ff8116811461040b575f5ffd5b80516001600160801b038116811461040b575f5ffd5b805161ffff8116811461040b575f5ffd5b5f6104408284031215610582575f5ffd5b61058a610424565b9050610595826103f5565b81526105a3602083016103f5565b60208201526105b4604083016103f5565b60408201526105c5606083016103f5565b60608201526105d6608083016103f5565b60808201526105e760a083016103f5565b60a08201526105f860c083016103f5565b60c082015261060960e083016103f5565b60e082015261061b61010083016103f5565b61010082015261062e61012083016103f5565b61012082015261064161014083016103f5565b61014082015261065461016083016103f5565b61016082015261066761018083016103f5565b61018082015261067a6101a083016103f5565b6101a082015261068d6101c083016103f5565b6101c08201526106a06101e083016103f5565b6101e08201526106b361020083016103f5565b6102008201526106c661022083016103f5565b6102208201526106d961024083016103f5565b6102408201526106ec61026083016103f5565b6102608201526106ff61028083016103f5565b6102808201526107126102a083016103f5565b6102a08201526107256102c083016103f5565b6102c08201526107386102e083016103f5565b6102e082015261074b61030083016103f5565b61030082015261075e61032083016103f5565b61032082015261077161034083016103f5565b61034082015261078461036083016103f5565b61036082015261079761038083016103f5565b6103808201526107aa6103a083016103f5565b6103a08201526107bd6103c083016103f5565b6103c08201526107d06103e083016103f5565b6103e08201526107e361040083016103f5565b6104008201526107f661042083016103f5565b61042082015292915050565b5f5f5f5f8486036104e0811215610817575f5ffd5b610820866103f5565b94506060601f1982011215610833575f5ffd5b5061083c61044d565b610848602087016103f5565b8152610856604087016103f5565b6020820152610867606087016103f5565b604082015260808601519093506001600160401b03811115610887575f5ffd5b85016101e08188031215610899575f5ffd5b6108a161046f565b6108aa826103f5565b81526108b8602083016103f5565b602082015260408201516001600160401b038111156108d5575f5ffd5b6108e1898285016104b4565b6040830152506108f36060830161053a565b6060820152610904608083016103f5565b608082015261091560a083016103f5565b60a082015260c0828101519082015260e08083015190820152610100808301519082015261094661012083016103f5565b610120820152610959610140830161054a565b61014082015261096c61016083016103f5565b61016082015261097f61018083016103f5565b6101808201526109926101a083016103f5565b6101a08201526109a56101c08301610560565b6101c082015292506109bc90508660a08701610571565b905092959194509250565b604081525f83518060408401526109e5816060850160208801610492565b6001600160a01b0393909316602083015250601f91909101601f191601606001919050565b612cad80610a175f395ff3fe608060405234801561000f575f5ffd5b5060043610610090575f3560e01c80638da5cb5b116100635780638da5cb5b1461014d578063d6b1fdf314610168578063df0b826214610210578063e4501d2914610223578063f2fde38b14610236575f5ffd5b806333a07cae146100945780636c4eae98146100a9578063715018a6146100bc5780638584704c146100c4575b5f5ffd5b6100a76100a23660046116fa565b610249565b005b6100a76100b7366004611a00565b610546565b6100a76105ad565b610116604080516060810182525f808252602082018190529181019190915250604080516060810182526023546001600160a01b03908116825260245481166020830152602554169181019190915290565b6040805182516001600160a01b03908116825260208085015182169083015292820151909216908201526060015b60405180910390f35b6022546040516001600160a01b039091168152602001610144565b6101cd604080516080810182525f80825260208201819052918101829052606081019190915250604080516080810182526026546001600160a01b03908116825260275481166020830152602854811692820192909252602954909116606082015290565b604051610144919081516001600160a01b039081168252602080840151821690830152604080840151821690830152606092830151169181019190915260800190565b6101cd61021e366004611ae3565b610620565b6100a7610231366004611c9b565b610730565b6100a7610244366004611c9b565b610793565b6022546001600160a01b0316331461027c5760405162461bcd60e51b815260040161027390611cb6565b60405180910390fd5b80515f80546001600160a01b03199081166001600160a01b039384161790915560208084015160018054841691851691909117905560408401516002805484169185169190911790556060840151600380548416918516919091179055608084015160048054841691851691909117905560a084015160058054841691851691909117905560c084015160068054841691851691909117905560e0840151600780548416918516919091179055610100840151600880548416918516919091179055610120840151600980548416918516919091179055610140840151600a80548416918516919091179055610160840151600b80548416918516919091179055610180840151600c805484169185169190911790556101a0840151600d805484169185169190911790556101c0840151600e805484169185169190911790556101e0840151600f805484169185169190911790556102008401516010805484169185169190911790556102208401516011805484169185169190911790556102408401516012805484169185169190911790556102608401516013805484169185169190911790556102808401516014805484169185169190911790556102a08401516015805484169185169190911790556102c08401516016805484169185169190911790556102e0840151601780548416918516919091179055610300840151601880548416918516919091179055610320840151601980548416918516919091179055610340840151601a80548416918516919091179055610360840151601b80548416918516919091179055610380840151601c805484169185169190911790556103a0840151601d805484169185169190911790556103c0840151601e805484169185169190911790556103e0840151601f805484169185169190911790556104008401518154831690841617905561042090920151602180549093169116179055565b6022546001600160a01b031633146105705760405162461bcd60e51b815260040161027390611cb6565b604080516060810182526023546001600160a01b0390811682526024548116602083015260255416918101919091526105aa90829061087d565b50565b6022546001600160a01b031633146105d75760405162461bcd60e51b815260040161027390611cb6565b6022546040515f916001600160a01b0316907f8be0079c531659141344cd1fd0a4f28419497f9722a3daafe3b4186f6b6457e0908390a3602280546001600160a01b0319169055565b604080516080810182525f8082526020820181905291810182905260608101919091526022546001600160a01b0316331461066d5760405162461bcd60e51b815260040161027390611cb6565b604080516060810182526023546001600160a01b0390811682526024548116602083015260255416918101919091526106ae90899089908989898989610a2a565b8051602680546001600160a01b03199081166001600160a01b03938416908117909255602080850151602780548416918616918217905560408087015160288054861691881691821790556060978801516029805490961697169687179094558051608081018252948552918401528201529182015298975050505050505050565b6022546001600160a01b0316331461075a5760405162461bcd60e51b815260040161027390611cb6565b604080516060810182526023546001600160a01b0390811682526024548116602083015260255416918101919091526105aa9082610b16565b6022546001600160a01b031633146107bd5760405162461bcd60e51b815260040161027390611cb6565b6001600160a01b0381166108225760405162461bcd60e51b815260206004820152602660248201527f4f776e61626c653a206e6577206f776e657220697320746865207a65726f206160448201526564647265737360d01b6064820152608401610273565b6022546040516001600160a01b038084169216907f8be0079c531659141344cd1fd0a4f28419497f9722a3daafe3b4186f6b6457e0905f90a3602280546001600160a01b0319166001600160a01b0392909216919091179055565b5f815f01516001600160a01b0316638da5cb5b6040518163ffffffff1660e01b8152600401602060405180830381865afa1580156108bd573d5f5f3e3d5ffd5b505050506040513d601f19601f820116820180604052508101906108e19190611ceb565b90505f82604001516001600160a01b0316638da5cb5b6040518163ffffffff1660e01b8152600401602060405180830381865afa158015610924573d5f5f3e3d5ffd5b505050506040513d601f19601f820116820180604052508101906109489190611ceb565b9050306001600160a01b038316036109b5578251845160405163f2fde38b60e01b81526001600160a01b03918216600482015291169063f2fde38b906024015f604051808303815f87803b15801561099e575f5ffd5b505af11580156109b0573d5f5f3e3d5ffd5b505050505b306001600160a01b03821603610a24576040838101518551915163f2fde38b60e01b81526001600160a01b03928316600482015291169063f2fde38b906024015b5f604051808303815f87803b158015610a0d575f5ffd5b505af1158015610a1f573d5f5f3e3d5ffd5b505050505b50505050565b604080516080810182525f808252602082018190529181018290526060810191909152610a5689610b73565b5f610ae16040518061010001604052808a8152602001896001600160a01b03168152602001886001600160a01b031681526020018c602001516001600160a01b03168152602001876001600160a01b031681526020018b61016001516001600160a01b03168152602001866001600160a01b03168152602001856001600160a01b0316815250610b9b565b9050610afb8a895f015183602001518c6101400151611177565b6001600160a01b031660608201529998505050505050505050565b815160405163e44e9ed160e01b81526001600160a01b03838116600483015282169063e44e9ed1906024015f604051808303815f87803b158015610b58575f5ffd5b505af1158015610b6a573d5f5f3e3d5ffd5b50505050505050565b80516001600160a01b03166105aa57604051635c4c758960e11b815260040160405180910390fd5b604080516080810182525f808252602082018190529181018290526060810191909152604080516080810182525f808252602082018190529181018290526060810191909152825151608084015160405163530e784f60e01b81526001600160a01b0391821660048201529082169063530e784f906024015f604051808303815f87803b158015610c2a575f5ffd5b505af1158015610c3c573d5f5f3e3d5ffd5b5050505060208401516040516350ab220360e11b81526001600160a01b0391821660048201529082169063a1564406906024015f604051808303815f87803b158015610c86575f5ffd5b505af1158015610c98573d5f5f3e3d5ffd5b50505050604084810151905163e4ca28b760e01b81526001600160a01b0391821660048201529082169063e4ca28b7906024015f604051808303815f87803b158015610ce2575f5ffd5b505af1158015610cf4573d5f5f3e3d5ffd5b50505050806001600160a01b031663026b1d5f6040518163ffffffff1660e01b8152600401602060405180830381865afa158015610d34573d5f5f3e3d5ffd5b505050506040513d601f19601f82011682018060405250810190610d589190611ceb565b6001600160a01b0390811683526040805163318d6fe560e11b815290519183169163631adfca916004808201926020929091908290030181865afa158015610da2573d5f5f3e3d5ffd5b505050506040513d601f19601f82011682018060405250810190610dc69190611ceb565b6001600160a01b03908116602084015260e08501511615610e3e5760e0840151604051631d25133b60e21b81526001600160a01b039182166004820152908216906374944cec906024015f604051808303815f87803b158015610e27575f5ffd5b505af1158015610e39573d5f5f3e3d5ffd5b505050505b60a08401517f703c2c8634bed68d98c029c18f310e7f7ec0e5d6342c590190b3cb8b3ba54532906001600160a01b03166110955760c08501516001600160a01b0316610e9d576040516358d7777360e11b815260040160405180910390fd5b60c085015160405163177314a360e21b8152600481018390526001600160a01b03918216602482015290831690635dcc528c906044015f604051808303815f87803b158015610eea575f5ffd5b505af1158015610efc573d5f5f3e3d5ffd5b50506040516321f8a72160e01b8152600481018490526001600160a01b03851692506321f8a7219150602401602060405180830381865afa158015610f43573d5f5f3e3d5ffd5b505050506040513d601f19601f82011682018060405250810190610f679190611ceb565b6001600160a01b03166040808501829052805163cbcbb50760e01b815290515f929163cbcbb5079160048083019260209291908290030181865afa158015610fb1573d5f5f3e3d5ffd5b505050506040513d601f19601f82011682018060405250810190610fd59190611ceb565b604085810151905163bee36bb360e01b81526001600160a01b03918216600482015291925082169063bee36bb3906024015f604051808303815f87803b15801561101d575f5ffd5b505af115801561102f573d5f5f3e3d5ffd5b50505050606086015160405163f2fde38b60e01b81526001600160a01b0391821660048201529082169063f2fde38b906024015f604051808303815f87803b158015611079575f5ffd5b505af115801561108b573d5f5f3e3d5ffd5b505050505061116e565b60a085015160405163ca446dd960e01b8152600481018390526001600160a01b0391821660248201529083169063ca446dd9906044015f604051808303815f87803b1580156110e2575f5ffd5b505af11580156110f4573d5f5f3e3d5ffd5b50506040516321f8a72160e01b8152600481018490526001600160a01b03851692506321f8a7219150602401602060405180830381865afa15801561113b573d5f5f3e3d5ffd5b505050506040513d601f19601f8201168201806040525081019061115f9190611ceb565b6001600160a01b031660408401525b50909392505050565b604051631db613ff60e21b81523060048201525f9084906001600160a01b038216906376d84ffc906024015f604051808303815f87803b1580156111b9575f5ffd5b505af11580156111cb573d5f5f3e3d5ffd5b505050505f856040516111dd90611667565b6001600160a01b039091168152602001604051809103905ff080158015611206573d5f5f3e3d5ffd5b506020880151604051631db613ff60e21b81526001600160a01b0391821660048201529192508291908416906376d84ffc906024015f604051808303815f87803b158015611252575f5ffd5b505af1158015611264573d5f5f3e3d5ffd5b505060405163ed301ca960e01b81526001600160a01b0385811660048301528616925063ed301ca991506024015f604051808303815f87803b1580156112a8575f5ffd5b505af11580156112ba573d5f5f3e3d5ffd5b505050506112c982878761151c565b60208801516040516322650caf60e01b81526001600160a01b039182166004820152908316906322650caf906024015f604051808303815f87803b15801561130f575f5ffd5b505af1158015611321573d5f5f3e3d5ffd5b50505050604088810151905163179efb0960e01b81526001600160a01b0391821660048201529083169063179efb09906024015f604051808303815f87803b15801561136b575f5ffd5b505af115801561137d573d5f5f3e3d5ffd5b50505050816001600160a01b0316632f2ff15d836001600160a01b031663a217fddf6040518163ffffffff1660e01b8152600401602060405180830381865afa1580156113cc573d5f5f3e3d5ffd5b505050506040513d601f19601f820116820180604052508101906113f09190611d06565b60208b01516040516001600160e01b031960e085901b16815260048101929092526001600160a01b031660248201526044015f604051808303815f87803b158015611439575f5ffd5b505af115801561144b573d5f5f3e3d5ffd5b50505050816001600160a01b031663d547741f836001600160a01b031663a217fddf6040518163ffffffff1660e01b8152600401602060405180830381865afa15801561149a573d5f5f3e3d5ffd5b505050506040513d601f19601f820116820180604052508101906114be9190611d06565b6040516001600160e01b031960e084901b16815260048101919091523060248201526044015f604051808303815f87803b1580156114fa575f5ffd5b505af115801561150c573d5f5f3e3d5ffd5b50929a9950505050505050505050565b6040516322650caf60e01b815230600482015282906001600160a01b038516906322650caf906024015f604051808303815f87803b15801561155c575f5ffd5b505af115801561156e573d5f5f3e3d5ffd5b5050604051629c1d5f60e81b81526001600160801b03851660048201526001600160a01b0384169250639c1d5f0091506024015f604051808303815f87803b1580156115b8575f5ffd5b505af11580156115ca573d5f5f3e3d5ffd5b50505050836001600160a01b031663d547741f856001600160a01b031663b8f6dba76040518163ffffffff1660e01b8152600401602060405180830381865afa158015611619573d5f5f3e3d5ffd5b505050506040513d601f19601f8201168201806040525081019061163d9190611d06565b6040516001600160e01b031960e084901b16815260048101919091523060248201526044016109f6565b610f8380611d1e83390190565b634e487b7160e01b5f52604160045260245ffd5b604051610440810167ffffffffffffffff811182821017156116ac576116ac611674565b60405290565b6040516101e0810167ffffffffffffffff811182821017156116ac576116ac611674565b6001600160a01b03811681146105aa575f5ffd5b80356116f5816116d6565b919050565b5f61044082840312801561170c575f5ffd5b50611715611688565b61171e836116ea565b815261172c602084016116ea565b602082015261173d604084016116ea565b604082015261174e606084016116ea565b606082015261175f608084016116ea565b608082015261177060a084016116ea565b60a082015261178160c084016116ea565b60c082015261179260e084016116ea565b60e08201526117a461010084016116ea565b6101008201526117b761012084016116ea565b6101208201526117ca61014084016116ea565b6101408201526117dd61016084016116ea565b6101608201526117f061018084016116ea565b6101808201526118036101a084016116ea565b6101a08201526118166101c084016116ea565b6101c08201526118296101e084016116ea565b6101e082015261183c61020084016116ea565b61020082015261184f61022084016116ea565b61022082015261186261024084016116ea565b61024082015261187561026084016116ea565b61026082015261188861028084016116ea565b61028082015261189b6102a084016116ea565b6102a08201526118ae6102c084016116ea565b6102c08201526118c16102e084016116ea565b6102e08201526118d461030084016116ea565b6103008201526118e761032084016116ea565b6103208201526118fa61034084016116ea565b61034082015261190d61036084016116ea565b61036082015261192061038084016116ea565b6103808201526119336103a084016116ea565b6103a08201526119466103c084016116ea565b6103c08201526119596103e084016116ea565b6103e082015261196c61040084016116ea565b61040082015261197f61042084016116ea565b6104208201529392505050565b5f6060828403121561199c575f5ffd5b6040516060810167ffffffffffffffff811182821017156119bf576119bf611674565b60405290508082356119d0816116d6565b815260208301356119e0816116d6565b602082015260408301356119f3816116d6565b6040919091015292915050565b5f60608284031215611a10575f5ffd5b611a1a838361198c565b9392505050565b5f82601f830112611a30575f5ffd5b813567ffffffffffffffff811115611a4a57611a4a611674565b604051601f8201601f19908116603f0116810167ffffffffffffffff81118282101715611a7957611a79611674565b604052818152838201602001851015611a90575f5ffd5b816020850160208301375f918101602001919091529392505050565b803560ff811681146116f5575f5ffd5b80356001600160801b03811681146116f5575f5ffd5b803561ffff811681146116f5575f5ffd5b5f5f5f5f5f5f5f610120888a031215611afa575f5ffd5b611b04898961198c565b9650606088013567ffffffffffffffff811115611b1f575f5ffd5b88016101e0818b031215611b31575f5ffd5b611b396116b2565b611b42826116ea565b8152611b50602083016116ea565b6020820152604082013567ffffffffffffffff811115611b6e575f5ffd5b611b7a8c828501611a21565b604083015250611b8c60608301611aac565b6060820152611b9d608083016116ea565b6080820152611bae60a083016116ea565b60a082015260c0828101359082015260e080830135908201526101008083013590820152611bdf61012083016116ea565b610120820152611bf26101408301611abc565b610140820152611c0561016083016116ea565b610160820152611c1861018083016116ea565b610180820152611c2b6101a083016116ea565b6101a0820152611c3e6101c08301611ad2565b6101c08201529650611c549050608089016116ea565b9450611c6260a089016116ea565b9350611c7060c089016116ea565b9250611c7e60e089016116ea565b9150611c8d61010089016116ea565b905092959891949750929550565b5f60208284031215611cab575f5ffd5b8135611a1a816116d6565b6020808252818101527f4f776e61626c653a2063616c6c6572206973206e6f7420746865206f776e6572604082015260600190565b5f60208284031215611cfb575f5ffd5b8151611a1a816116d6565b5f60208284031215611d16575f5ffd5b505191905056fe60a060405234801561000f575f5ffd5b50604051610f83380380610f8383398101604081905261002e916101a4565b806001600160a01b03166080816001600160a01b0316815250505f816001600160a01b0316630e67178c6040518163ffffffff1660e01b8152600401602060405180830381865afa158015610085573d5f5f3e3d5ffd5b505050506040513d601f19601f820116820180604052508101906100a991906101a4565b90506001600160a01b0381166100d257604051635dadfdd760e11b815260040160405180910390fd5b6100dc5f826100e3565b50506101c6565b6100ed82826100f1565b5050565b5f828152602081815260408083206001600160a01b038516845290915290205460ff166100ed575f828152602081815260408083206001600160a01b03851684529091529020805460ff191660011790556101493390565b6001600160a01b0316816001600160a01b0316837f2f8788117e7eff1d82e926ec794901d17c78024a50270940304540a733656f0d60405160405180910390a45050565b6001600160a01b03811681146101a1575f5ffd5b50565b5f602082840312156101b4575f5ffd5b81516101bf8161018d565b9392505050565b608051610da56101de5f395f6102380152610da55ff3fe608060405234801561000f575f5ffd5b50600436106101f2575f3560e01c8063674b5e4d116101145780639a2b96f7116100a9578063b5bfddea11610079578063b5bfddea14610462578063b8f6dba714610476578063d547741f1461048a578063f83695cb1461049d578063fa50f297146104b0575f5ffd5b80639a2b96f7146104225780639ac9d80b14610435578063a217fddf14610448578063a21bce151461044f575f5ffd5b80637a9a93f4116100e45780637a9a93f4146103d65780637be53ca1146103e957806391d14854146103fc5780639712fdf81461040f575f5ffd5b8063674b5e4d146103885780636e76fc8f1461039b578063726600ce146103af57806378bb0a43146103c2575f5ffd5b80632500f2b61161018a5780633c5a08e51161015a5780633c5a08e51461033a5780634f16b4251461034d5780635577b7a9146103615780635b9a94e414610375575f5ffd5b80632500f2b6146102ee578063253cf980146103015780632f2ff15d1461031457806336568abe14610327575f5ffd5b8063179efb09116101c5578063179efb09146102855780631e4e00911461029857806322650caf146102ab578063248a9ca3146102be575f5ffd5b806301ffc9a7146101f657806304df017d1461021e5780630542975c1461023357806313ee32e014610272575b5f5ffd5b610209610204366004610ad9565b6104c3565b60405190151581526020015b60405180910390f35b61023161022c366004610b1b565b6104f9565b005b61025a7f000000000000000000000000000000000000000000000000000000000000000081565b6040516001600160a01b039091168152602001610215565b610209610280366004610b1b565b610513565b610231610293366004610b1b565b61052b565b6102316102a6366004610b34565b610542565b6102316102b9366004610b1b565b61055c565b6102e06102cc366004610b54565b5f9081526020819052604090206001015490565b604051908152602001610215565b6102096102fc366004610b1b565b610573565b61023161030f366004610b1b565b61058b565b610231610322366004610b6b565b6105a2565b610231610335366004610b6b565b6105c7565b610231610348366004610b1b565b61064a565b6102e05f516020610cf95f395f51905f5281565b6102e05f516020610d795f395f51905f5281565b610231610383366004610b1b565b610661565b610209610396366004610b1b565b610678565b6102e05f516020610d595f395f51905f5281565b6102096103bd366004610b1b565b610690565b6102e05f516020610d195f395f51905f5281565b6102316103e4366004610b1b565b6106a8565b6102096103f7366004610b1b565b6106bf565b61020961040a366004610b6b565b6106d3565b61023161041d366004610b1b565b6106fb565b610231610430366004610b1b565b610712565b610231610443366004610b1b565b610729565b6102e05f81565b61023161045d366004610b1b565b610740565b6102e05f516020610d395f395f51905f5281565b6102e05f516020610cd95f395f51905f5281565b610231610498366004610b6b565b610753565b6102316104ab366004610b1b565b610778565b6102096104be366004610b1b565b61078f565b5f6001600160e01b03198216637965db0b60e01b14806104f357506301ffc9a760e01b6001600160e01b03198316145b92915050565b6105105f516020610d395f395f51905f5282610753565b50565b5f6104f35f516020610d195f395f51905f52836106d3565b6105105f516020610d595f395f51905f52826105a2565b5f61054d81336107a7565b610557838361080b565b505050565b6105105f516020610cd95f395f51905f52826105a2565b5f6104f35f516020610d595f395f51905f52836106d3565b6105105f516020610d795f395f51905f5282610753565b5f828152602081905260409020600101546105bd81336107a7565b6105578383610855565b6001600160a01b038116331461063c5760405162461bcd60e51b815260206004820152602f60248201527f416363657373436f6e74726f6c3a2063616e206f6e6c792072656e6f756e636560448201526e103937b632b9903337b91039b2b63360891b60648201526084015b60405180910390fd5b61064682826108d8565b5050565b6105105f516020610cf95f395f51905f5282610753565b6105105f516020610cf95f395f51905f52826105a2565b5f6104f35f516020610cf95f395f51905f52836106d3565b5f6104f35f516020610d395f395f51905f52836106d3565b6105105f516020610d595f395f51905f5282610753565b5f6104f35f516020610cd95f395f51905f52835b5f918252602082815260408084206001600160a01b0393909316845291905290205460ff1690565b6105105f516020610d395f395f51905f52826105a2565b6105105f516020610d195f395f51905f52826105a2565b6105105f516020610d795f395f51905f52826105a2565b6105105f516020610d195f395f51905f52825b5f8281526020819052604090206001015461076e81336107a7565b61055783836108d8565b6105105f516020610cd95f395f51905f5282610753565b5f6104f35f516020610d795f395f51905f52836106d3565b6107b182826106d3565b610646576107c9816001600160a01b0316601461093c565b6107d483602061093c565b6040516020016107e5929190610bb7565b60408051601f198184030181529082905262461bcd60e51b825261063391600401610c2b565b5f82815260208190526040808220600101805490849055905190918391839186917fbd79b86ffe0ab8e8776151514217cd7cacd52c909f66475c3af44e129f0b00ff9190a4505050565b61085f82826106d3565b610646575f828152602081815260408083206001600160a01b03851684529091529020805460ff191660011790556108943390565b6001600160a01b0316816001600160a01b0316837f2f8788117e7eff1d82e926ec794901d17c78024a50270940304540a733656f0d60405160405180910390a45050565b6108e282826106d3565b15610646575f828152602081815260408083206001600160a01b0385168085529252808320805460ff1916905551339285917ff6391f5c32d9c69d2a47ea670b442974b53935d1edc7fd64eb21e047a839171b9190a45050565b60605f61094a836002610c71565b610955906002610c88565b67ffffffffffffffff81111561096d5761096d610c9b565b6040519080825280601f01601f191660200182016040528015610997576020820181803683370190505b509050600360fc1b815f815181106109b1576109b1610caf565b60200101906001600160f81b03191690815f1a905350600f60fb1b816001815181106109df576109df610caf565b60200101906001600160f81b03191690815f1a9053505f610a01846002610c71565b610a0c906001610c88565b90505b6001811115610a83576f181899199a1a9b1b9c1cb0b131b232b360811b85600f1660108110610a4057610a40610caf565b1a60f81b828281518110610a5657610a56610caf565b60200101906001600160f81b03191690815f1a90535060049490941c93610a7c81610cc3565b9050610a0f565b508315610ad25760405162461bcd60e51b815260206004820181905260248201527f537472696e67733a20686578206c656e67746820696e73756666696369656e746044820152606401610633565b9392505050565b5f60208284031215610ae9575f5ffd5b81356001600160e01b031981168114610ad2575f5ffd5b80356001600160a01b0381168114610b16575f5ffd5b919050565b5f60208284031215610b2b575f5ffd5b610ad282610b00565b5f5f60408385031215610b45575f5ffd5b50508035926020909101359150565b5f60208284031215610b64575f5ffd5b5035919050565b5f5f60408385031215610b7c575f5ffd5b82359150610b8c60208401610b00565b90509250929050565b5f5b83811015610baf578181015183820152602001610b97565b50505f910152565b7f416363657373436f6e74726f6c3a206163636f756e742000000000000000000081525f8351610bee816017850160208801610b95565b7001034b99036b4b9b9b4b733903937b6329607d1b6017918401918201528351610c1f816028840160208801610b95565b01602801949350505050565b602081525f8251806020840152610c49816040850160208701610b95565b601f01601f19169190910160400192915050565b634e487b7160e01b5f52601160045260245ffd5b80820281158282048414176104f3576104f3610c5d565b808201808211156104f3576104f3610c5d565b634e487b7160e01b5f52604160045260245ffd5b634e487b7160e01b5f52603260045260245ffd5b5f81610cd157610cd1610c5d565b505f19019056fe12ad05bde78c5ab75238ce885307f96ecd482bb402ef831f99e7018a0f169b7b8aa855a911518ecfbe5bc3088c8f3dda7badf130faaf8ace33fdc33828e1816719c860a63258efbd0ecb7d55c626237bf5c2044c26c073390b74f0c13c85743308fb31c3e81624356c3314088aa971b73bcc82d22bc3e3b184b4593077ae32785c91514091af31f62f596a314af7d5be40146b2f2355969392f055e12e0982fb939b8dfb57ecef2aea54a93a15e86768b9d4089f1ba61c245e6ec980695f4ca4a164736f6c634300081b000aa164736f6c634300081b000a608060405234801561000f575f5ffd5b5060405161203b38038061203b83398101604081905261002e916102c1565b5f80546001600160a01b031916339081178255604051909182915f51602061201b5f395f51905f52908290a35061006482610074565b61006d81610167565b50506104d9565b5f6001805461008290610380565b80601f01602080910402602001604051908101604052809291908181526020018280546100ae90610380565b80156100f95780601f106100d0576101008083540402835291602001916100f9565b820191905f5260205f20905b8154815290600101906020018083116100dc57829003601f168201915b50505050509050816001908161010f9190610404565b508160405161011e91906104be565b60405180910390208160405161013491906104be565b604051908190038120907fe685c8cdecc6030c45030fd54778812cb84ed8e4467c38294403d68ba7860823905f90a35050565b5f546001600160a01b031633146101c55760405162461bcd60e51b815260206004820181905260248201527f4f776e61626c653a2063616c6c6572206973206e6f7420746865206f776e657260448201526064015b60405180910390fd5b6001600160a01b03811661022a5760405162461bcd60e51b815260206004820152602660248201527f4f776e61626c653a206e6577206f776e657220697320746865207a65726f206160448201526564647265737360d01b60648201526084016101bc565b5f80546040516001600160a01b03808516939216915f51602061201b5f395f51905f5291a35f80546001600160a01b0319166001600160a01b0392909216919091179055565b634e487b7160e01b5f52604160045260245ffd5b5f5b8381101561029e578181015183820152602001610286565b50505f910152565b80516001600160a01b03811681146102bc575f5ffd5b919050565b5f5f604083850312156102d2575f5ffd5b82516001600160401b038111156102e7575f5ffd5b8301601f810185136102f7575f5ffd5b80516001600160401b0381111561031057610310610270565b604051601f8201601f19908116603f011681016001600160401b038111828210171561033e5761033e610270565b604052818152828201602001871015610355575f5ffd5b610366826020830160208601610284565b9350610377915050602084016102a6565b90509250929050565b600181811c9082168061039457607f821691505b6020821081036103b257634e487b7160e01b5f52602260045260245ffd5b50919050565b601f8211156103ff57805f5260205f20601f840160051c810160208510156103dd5750805b601f840160051c820191505b818110156103fc575f81556001016103e9565b50505b505050565b81516001600160401b0381111561041d5761041d610270565b6104318161042b8454610380565b846103b8565b6020601f821160018114610463575f831561044c5750848201515b5f19600385901b1c1916600184901b1784556103fc565b5f84815260208120601f198516915b828110156104925787850151825560209485019460019092019101610472565b50848210156104af57868401515f19600387901b60f8161c191681555b50505050600190811b01905550565b5f82516104cf818460208701610284565b9190910192915050565b611b35806104e65f395ff3fe608060405234801561000f575f5ffd5b506004361061013d575f3560e01c806376d84ffc116100b4578063e4ca28b711610079578063e4ca28b71461039b578063e860accb146103ae578063ed301ca9146103f6578063f2fde38b14610409578063f67b18471461041c578063fca513a81461042f575f5ffd5b806376d84ffc1461033f5780638da5cb5b14610352578063a156440614610362578063ca446dd914610375578063e44e9ed114610388575f5ffd5b80635dcc528c116101055780635dcc528c1461022f5780635eb88d3d14610242578063631adfca14610292578063707cd716146102de578063715018a61461032457806374944cec1461032c575f5ffd5b8063026b1d5f146101415780630e67178c1461019957806321f8a721146101dd578063530e784f14610205578063568ef4701461021a575b5f5ffd5b631413d3d360e21b5f5260026020527f4fe005067814bb4b024d9515847377d15011b64593c006223b4a722952d2c05a546001600160a01b03165b6040516001600160a01b0390911681526020015b60405180910390f35b6820a1a62fa0a226a4a760b91b5f5260026020527ffab167ad2009dcb80ee379700bb4bd029d97c1181ed9d961625632c8a6f051c6546001600160a01b031661017c565b61017c6101eb366004610fd5565b5f908152600260205260409020546001600160a01b031690565b610218610213366004611000565b610476565b005b61022261052f565b604051610190919061106f565b61021861023d366004611081565b6105bf565b7414149250d157d3d49050d31157d4d1539512539153605a1b5f5260026020527f0d2c1bcee56447b4f46248272f34207a580a5c40f666a31f4e2fbb470ea53ab8546001600160a01b031661017c565b702827a7a62fa1a7a72324a3aaa920aa27a960791b5f5260026020527f90c127ef1c12c03f5781afeca3079527ea5333738078bba6fea26825bf9bf2c5546001600160a01b031661017c565b6a20a1a62fa6a0a720a3a2a960a91b5f5260026020527f9edef266ef35fd0c6e131df0f31a330f3dd4c4d19dd31ed615c21d005c68116b546001600160a01b031661017c565b610218610662565b61021861033a366004611000565b6106d3565b61021861034d366004611000565b61078c565b5f546001600160a01b031661017c565b610218610370366004611000565b610839565b610218610383366004611081565b6108ca565b610218610396366004611000565b610950565b6102186103a9366004611000565b610a01565b6c2220aa20afa82927ab24a222a960991b5f5260026020527fcd7944601aaa5cd7ccdae1bebec659e98c6aac8f12486b30e59db0d39698051f546001600160a01b031661017c565b610218610404366004611000565b610aac565b610218610417366004611000565b610b5b565b61021861042a3660046110c3565b610c42565b6b50524943455f4f5241434c4560a01b5f5260026020527f740f710666bd7a12af42df98311e541e47f7fd33d382d11602457a6d540cbd63546001600160a01b031661017c565b5f546001600160a01b031633146104a85760405162461bcd60e51b815260040161049f90611176565b60405180910390fd5b6b50524943455f4f5241434c4560a01b5f90815260026020527f740f710666bd7a12af42df98311e541e47f7fd33d382d11602457a6d540cbd6380546001600160a01b038481166001600160a01b03198316811790935560405191169283917f56b5f80d8cac1479698aa7d01605fd6111e90b15fc4d2b377417f46034876cbd9190a35050565b60606001805461053e906111ab565b80601f016020809104026020016040519081016040528092919081815260200182805461056a906111ab565b80156105b55780601f1061058c576101008083540402835291602001916105b5565b820191905f5260205f20905b81548152906001019060200180831161059857829003601f168201915b5050505050905090565b5f546001600160a01b031633146105e85760405162461bcd60e51b815260040161049f90611176565b5f828152600260205260408120546001600160a01b03169061060984610c77565b90506106158484610d0e565b6040516001600160a01b038281168252808516919084169086907f3bbd45b5429b385e3fb37ad5cd1cd1435a3c8ec32196c7937597365a3fd3e99c9060200160405180910390a450505050565b5f546001600160a01b0316331461068b5760405162461bcd60e51b815260040161049f90611176565b5f80546040516001600160a01b03909116907f8be0079c531659141344cd1fd0a4f28419497f9722a3daafe3b4186f6b6457e0908390a35f80546001600160a01b0319169055565b5f546001600160a01b031633146106fc5760405162461bcd60e51b815260040161049f90611176565b7414149250d157d3d49050d31157d4d1539512539153605a1b5f90815260026020527f0d2c1bcee56447b4f46248272f34207a580a5c40f666a31f4e2fbb470ea53ab880546001600160a01b038481166001600160a01b03198316811790935560405191169283917f5326514eeca90494a14bedabcff812a0e683029ee85d1e23824d44fd14cd6ae79190a35050565b5f546001600160a01b031633146107b55760405162461bcd60e51b815260040161049f90611176565b6820a1a62fa0a226a4a760b91b5f90815260026020527ffab167ad2009dcb80ee379700bb4bd029d97c1181ed9d961625632c8a6f051c680546001600160a01b038481166001600160a01b03198316811790935560405191169283917fe9cf53972264dc95304fd424458745019ddfca0e37ae8f703d74772c41ad115b9190a35050565b5f546001600160a01b031633146108625760405162461bcd60e51b815260040161049f90611176565b5f610873631413d3d360e21b610c77565b9050610886631413d3d360e21b83610d0e565b816001600160a01b0316816001600160a01b03167f90affc163f1a2dfedcd36aa02ed992eeeba8100a4014f0b4cdc20ea265a6662760405160405180910390a35050565b5f546001600160a01b031633146108f35760405162461bcd60e51b815260040161049f90611176565b5f8281526002602052604080822080546001600160a01b031981166001600160a01b038681169182179093559251911692839186917f9ef0e8c8e52743bb38b83b17d9429141d494b8041ca6d616a6c77cebae9cd8b791a4505050565b5f546001600160a01b031633146109795760405162461bcd60e51b815260040161049f90611176565b6c2220aa20afa82927ab24a222a960991b5f90815260026020527fcd7944601aaa5cd7ccdae1bebec659e98c6aac8f12486b30e59db0d39698051f80546001600160a01b038481166001600160a01b03198316811790935560405191169283917fc853974cfbf81487a14a23565917bee63f527853bcb5fa54f2ae1cdf8a38356d9190a35050565b5f546001600160a01b03163314610a2a5760405162461bcd60e51b815260040161049f90611176565b5f610a48702827a7a62fa1a7a72324a3aaa920aa27a960791b610c77565b9050610a68702827a7a62fa1a7a72324a3aaa920aa27a960791b83610d0e565b816001600160a01b0316816001600160a01b03167f8932892569eba59c8382a089d9b732d1f49272878775235761a2a6b0309cd46560405160405180910390a35050565b5f546001600160a01b03163314610ad55760405162461bcd60e51b815260040161049f90611176565b6a20a1a62fa6a0a720a3a2a960a91b5f90815260026020527f9edef266ef35fd0c6e131df0f31a330f3dd4c4d19dd31ed615c21d005c68116b80546001600160a01b038481166001600160a01b03198316811790935560405191169283917fb30efa04327bb8a537d61cc1e5c48095345ad18ef7cc04e6bacf7dfb6caaf5079190a35050565b5f546001600160a01b03163314610b845760405162461bcd60e51b815260040161049f90611176565b6001600160a01b038116610be95760405162461bcd60e51b815260206004820152602660248201527f4f776e61626c653a206e6577206f776e657220697320746865207a65726f206160448201526564647265737360d01b606482015260840161049f565b5f80546040516001600160a01b03808516939216917f8be0079c531659141344cd1fd0a4f28419497f9722a3daafe3b4186f6b6457e091a35f80546001600160a01b0319166001600160a01b0392909216919091179055565b5f546001600160a01b03163314610c6b5760405162461bcd60e51b815260040161049f90611176565b610c7481610ed5565b50565b5f818152600260205260408120546001600160a01b031680610c9b57505f92915050565b5f819050806001600160a01b0316635c60da1b6040518163ffffffff1660e01b81526004016020604051808303815f875af1158015610cdc573d5f5f3e3d5ffd5b505050506040513d601f19601f82011682018060405250810190610d0091906111dd565b949350505050565b50919050565b5f828152600260205260408082205490513060248201526001600160a01b039091169190819060440160408051601f198184030181529190526020810180516001600160e01b031663189acdbd60e31b17905290506001600160a01b038316610e6f5730604051610d7e90610fc8565b6001600160a01b039091168152602001604051809103905ff080158015610da7573d5f5f3e3d5ffd5b505f868152600260205260409081902080546001600160a01b0319166001600160a01b038416908117909155905163347d5e2560e21b81529194508493509063d1f5789490610dfc90879085906004016111f8565b5f604051808303815f87803b158015610e13575f5ffd5b505af1158015610e25573d5f5f3e3d5ffd5b50505050836001600160a01b0316836001600160a01b0316867f4a465a9bd819d9662563c1e11ae958f8109e437e7f4bf1c6ef0b9a7b3f35d47860405160405180910390a4610ece565b60405163278f794360e11b81528392506001600160a01b03831690634f1ef28690610ea090879085906004016111f8565b5f604051808303815f87803b158015610eb7575f5ffd5b505af1158015610ec9573d5f5f3e3d5ffd5b505050505b5050505050565b5f60018054610ee3906111ab565b80601f0160208091040260200160405190810160405280929190818152602001828054610f0f906111ab565b8015610f5a5780601f10610f3157610100808354040283529160200191610f5a565b820191905f5260205f20905b815481529060010190602001808311610f3d57829003601f168201915b505050505090508160019081610f709190611264565b5081604051610f7f919061131f565b604051809103902081604051610f95919061131f565b604051908190038120907fe685c8cdecc6030c45030fd54778812cb84ed8e4467c38294403d68ba7860823905f90a35050565b6107ee8061133b83390190565b5f60208284031215610fe5575f5ffd5b5035919050565b6001600160a01b0381168114610c74575f5ffd5b5f60208284031215611010575f5ffd5b813561101b81610fec565b9392505050565b5f5b8381101561103c578181015183820152602001611024565b50505f910152565b5f815180845261105b816020860160208601611022565b601f01601f19169290920160200192915050565b602081525f61101b6020830184611044565b5f5f60408385031215611092575f5ffd5b8235915060208301356110a481610fec565b809150509250929050565b634e487b7160e01b5f52604160045260245ffd5b5f602082840312156110d3575f5ffd5b813567ffffffffffffffff8111156110e9575f5ffd5b8201601f810184136110f9575f5ffd5b803567ffffffffffffffff811115611113576111136110af565b604051601f8201601f19908116603f0116810167ffffffffffffffff81118282101715611142576111426110af565b604052818152828201602001861015611159575f5ffd5b816020840160208301375f91810160200191909152949350505050565b6020808252818101527f4f776e61626c653a2063616c6c6572206973206e6f7420746865206f776e6572604082015260600190565b600181811c908216806111bf57607f821691505b602082108103610d0857634e487b7160e01b5f52602260045260245ffd5b5f602082840312156111ed575f5ffd5b815161101b81610fec565b6001600160a01b03831681526040602082018190525f90610d0090830184611044565b601f82111561125f57805f5260205f20601f840160051c810160208510156112405750805b601f840160051c820191505b81811015610ece575f815560010161124c565b505050565b815167ffffffffffffffff81111561127e5761127e6110af565b6112928161128c84546111ab565b8461121b565b6020601f8211600181146112c4575f83156112ad5750848201515b5f19600385901b1c1916600184901b178455610ece565b5f84815260208120601f198516915b828110156112f357878501518255602094850194600190920191016112d3565b508482101561131057868401515f19600387901b60f8161c191681555b50505050600190811b01905550565b5f8251611330818460208701611022565b919091019291505056fe60a060405234801561000f575f5ffd5b506040516107ee3803806107ee83398101604081905261002e9161003f565b6001600160a01b031660805261006c565b5f6020828403121561004f575f5ffd5b81516001600160a01b0381168114610065575f5ffd5b9392505050565b6080516107476100a75f395f818161011e01528181610162015281816102140152818161034801528181610371015261048c01526107475ff3fe60806040526004361061004d575f3560e01c80633659cfe6146100645780634f1ef286146100835780635c60da1b14610096578063d1f57894146100c6578063f851a440146100d95761005c565b3661005c5761005a6100ed565b005b61005a6100ed565b34801561006f575f5ffd5b5061005a61007e366004610530565b610114565b61005a610091366004610550565b610158565b3480156100a1575f5ffd5b506100aa610209565b6040516001600160a01b03909116815260200160405180910390f35b61005a6100d43660046105e2565b610258565b3480156100e4575f5ffd5b506100aa61033d565b6100f5610393565b61011261010d5f51602061071b5f395f51905f525490565b61039b565b565b6001600160a01b037f00000000000000000000000000000000000000000000000000000000000000001633036101505761014d816103b9565b50565b61014d6100ed565b6001600160a01b037f00000000000000000000000000000000000000000000000000000000000000001633036101fc57610191836103b9565b5f836001600160a01b031683836040516101ac9291906106a6565b5f60405180830381855af49150503d805f81146101e4576040519150601f19603f3d011682016040523d82523d5f602084013e6101e9565b606091505b50509050806101f6575f5ffd5b50505050565b6102046100ed565b505050565b5f6001600160a01b037f000000000000000000000000000000000000000000000000000000000000000016330361024d57505f51602061071b5f395f51905f525490565b6102556100ed565b90565b5f61026e5f51602061071b5f395f51905f525490565b6001600160a01b031614610280575f5ffd5b6102ab60017f360894a13ba1a3210667c828492db98dca3e2076cc3735a920a3ca505d382bbd6106b5565b5f51602061071b5f395f51905f52146102c6576102c66106da565b6102cf826103f8565b805115610339575f826001600160a01b0316826040516102ef91906106ee565b5f60405180830381855af49150503d805f8114610327576040519150601f19603f3d011682016040523d82523d5f602084013e61032c565b606091505b5050905080610204575f5ffd5b5050565b5f6001600160a01b037f000000000000000000000000000000000000000000000000000000000000000016330361024d57507f000000000000000000000000000000000000000000000000000000000000000090565b610112610482565b365f5f375f5f365f845af43d5f5f3e8080156103b5573d5ff35b3d5ffd5b6103c2816103f8565b6040516001600160a01b038216907fbc7cd75a20ee27fd9adebab32041f755214dbc6bffa90cc0225b39da2e5c2d3b905f90a250565b803b6104715760405162461bcd60e51b815260206004820152603b60248201527f43616e6e6f742073657420612070726f787920696d706c656d656e746174696f60448201527f6e20746f2061206e6f6e2d636f6e74726163742061646472657373000000000060648201526084015b60405180910390fd5b5f51602061071b5f395f51905f5255565b6001600160a01b037f00000000000000000000000000000000000000000000000000000000000000001633036101125760405162461bcd60e51b815260206004820152603260248201527f43616e6e6f742063616c6c2066616c6c6261636b2066756e6374696f6e20667260448201527137b6903a343290383937bc3c9030b236b4b760711b6064820152608401610468565b80356001600160a01b038116811461052b575f5ffd5b919050565b5f60208284031215610540575f5ffd5b61054982610515565b9392505050565b5f5f5f60408486031215610562575f5ffd5b61056b84610515565b9250602084013567ffffffffffffffff811115610586575f5ffd5b8401601f81018613610596575f5ffd5b803567ffffffffffffffff8111156105ac575f5ffd5b8660208284010111156105bd575f5ffd5b939660209190910195509293505050565b634e487b7160e01b5f52604160045260245ffd5b5f5f604083850312156105f3575f5ffd5b6105fc83610515565b9150602083013567ffffffffffffffff811115610617575f5ffd5b8301601f81018513610627575f5ffd5b803567ffffffffffffffff811115610641576106416105ce565b604051601f8201601f19908116603f0116810167ffffffffffffffff81118282101715610670576106706105ce565b604052818152828201602001871015610687575f5ffd5b816020840160208301375f602083830101528093505050509250929050565b818382375f9101908152919050565b818103818111156106d457634e487b7160e01b5f52601160045260245ffd5b92915050565b634e487b7160e01b5f52600160045260245ffd5b5f82515f5b8181101561070d57602081860181015185830152016106f3565b505f92019182525091905056fe360894a13ba1a3210667c828492db98dca3e2076cc3735a920a3ca505d382bbca164736f6c634300081b000aa164736f6c634300081b000a8be0079c531659141344cd1fd0a4f28419497f9722a3daafe3b4186f6b6457e060a060405234801561000f575f5ffd5b50604051610eaf380380610eaf83398101604081905261002e91610066565b6001600160a01b03811661005557604051633b175b8760e01b815260040160405180910390fd5b6001600160a01b0316608052610093565b5f60208284031215610076575f5ffd5b81516001600160a01b038116811461008c575f5ffd5b9392505050565b608051610df76100b85f395f818160ee0152818161047201526107d40152610df75ff3fe608060405234801561000f575f5ffd5b50600436106100e5575f3560e01c8063a8d9e56f11610088578063c79ce42e11610063578063c79ce42e1461021d578063cca22ea1146102fa578063f7e0fe671461030d578063fd81bb1214610315575f5ffd5b8063a8d9e56f146101cd578063aa33f063146101e2578063b90db31b146101f5575f5ffd5b80636a00178e116100c35780636a00178e146101945780637a0c5ebf146101a75780637a24bd7e146101b15780638f4b0d5d146101ba575f5ffd5b80630542975c146100e9578063131e889c1461012d5780635b651bae14610173575b5f5ffd5b6101107f000000000000000000000000000000000000000000000000000000000000000081565b6040516001600160a01b0390911681526020015b60405180910390f35b61014061013b366004610bbf565b610328565b60405161012491908151815260208083015190820152604080830151908201526060918201519181019190915260800190565b610186610181366004610bbf565b6103ba565b604051908152602001610124565b6101866101a2366004610bbf565b6103e8565b610186620186a081565b6101866126ac81565b6101866101c8366004610bbf565b610442565b6101e06101db366004610be1565b610470565b005b6101866101f0366004610bbf565b61053b565b610208610203366004610c61565b610560565b60408051928352602083019190915201610124565b6102ad61022b366004610bbf565b604080516080810182525f808252602082018190529181018290526060810191909152506001600160a01b03165f90815260208181526040918290208251608081018452905461ffff8116825263ffffffff620100008204811693830193909352600160301b8104831693820193909352600160501b90920416606082015290565b60405161012491905f60808201905061ffff835116825263ffffffff602084015116602083015263ffffffff604084015116604083015263ffffffff606084015116606083015292915050565b610186610308366004610bbf565b6107a5565b610186606481565b6101e0610323366004610c7b565b6107d2565b61034f60405180608001604052805f81526020015f81526020015f81526020015f81525090565b6001600160a01b0382165f90815260208181526040918290208251608081018452905461ffff8116825263ffffffff620100008204811693830193909352600160301b8104831693820193909352600160501b9092041660608201526103b49061089a565b92915050565b6001600160a01b0381165f908152602081905260408120546103b490600160301b900463ffffffff1661092c565b6001600160a01b0381165f908152602081905260408120546103b49063ffffffff600160501b820481169161042d91600160301b820481169162010000900416610ccd565b6104379190610ccd565b63ffffffff1661092c565b6001600160a01b0381165f908152602081905260408120546103b490600160501b900463ffffffff1661092c565b7f00000000000000000000000000000000000000000000000000000000000000006001600160a01b031663631adfca6040518163ffffffff1660e01b8152600401602060405180830381865afa1580156104cc573d5f5f3e3d5ffd5b505050506040513d601f19601f820116820180604052508101906104f09190610ce9565b6001600160a01b0316336001600160a01b031614610521576040516344ff885f60e01b815260040160405180910390fd5b6105368361053183850185610d1c565b610941565b505050565b6001600160a01b0381165f908152602081905260408120546103b49061ffff1661092c565b5f80806105dd818061057860c0880160a08901610bbf565b6001600160a01b0316815260208082019290925260409081015f208151608081018352905461ffff8116825263ffffffff620100008204811694830194909452600160301b8104841692820192909252600160501b909104909116606082015261089a565b90506106126040518060c001604052805f81526020015f81526020015f81526020015f81526020015f81526020015f81525090565b5f6040820152602080830151908201526060850135156106a4576040850135610643602087013560e0880135610dad565b61064d9190610dc0565b80825261065f90606087013590610dad565b60a0820181905261067590606087013590610b05565b606082015260a081015161069a9061068f90873590610dad565b606087013590610b05565b60808201526106b3565b602001515f9590945092505050565b8151606082015111156107315781515f906106f5906106de906b033b2e3c9fd0803ce8000000610dc0565b845160608501516106ef9190610dc0565b90610b05565b60608401519091506107079082610b42565b83604001516107169190610dad565b826020018181516107279190610dad565b9052506107619050565b81516060820151604084015161074c92916106ef9190610b42565b8160200181815161075d9190610dad565b9052505b61078d6107746080870135612710610dc0565b6080830151602084015161078791610b42565b90610b84565b60408201819052602090910151909590945092505050565b6001600160a01b0381165f908152602081905260408120546103b49062010000900463ffffffff1661092c565b7f00000000000000000000000000000000000000000000000000000000000000006001600160a01b031663631adfca6040518163ffffffff1660e01b8152600401602060405180830381865afa15801561082e573d5f5f3e3d5ffd5b505050506040513d601f19601f820116820180604052508101906108529190610ce9565b6001600160a01b0316336001600160a01b031614610883576040516344ff885f60e01b815260040160405180910390fd5b6108968261053136849003840184610d1c565b5050565b6108c160405180608001604052805f81526020015f81526020015f81526020015f81525090565b60405180608001604052806108dc845f015161ffff1661092c565b81526020016108f4846020015163ffffffff1661092c565b815260200161090c846040015163ffffffff1661092c565b8152602001610924846060015163ffffffff1661092c565b905292915050565b5f6103b48269152d02c7e14af6800000610dd3565b6001600160a01b03821661096857604051633bf95ba760e01b815260040160405180910390fd5b6126ac815f015161ffff161115801561098957506064815f015161ffff1610155b6109a6576040516335a8aee760e01b815260040160405180910390fd5b806060015163ffffffff16816040015163ffffffff1611156109db57604051631a6782a560e31b815260040160405180910390fd5b620186a0816060015163ffffffff16826040015163ffffffff16836020015163ffffffff16610a0a9190610dad565b610a149190610dad565b1115610a33576040516303b9a7db60e61b815260040160405180910390fd5b6001600160a01b0382165f81815260208181526040918290208451815486840151878601516060808a015161ffff90951665ffffffffffff1990941684176201000063ffffffff948516908102919091176dffffffffffffffff0000000000001916600160301b93851693840263ffffffff60501b191617600160501b9490961693840295909517909555865192835294820192909252938401929092528201527f5d123bea2036a4052274206f59d99350b9741e17da56ffae335d809b25ee09429060800160405180910390a25050565b5f81156b033b2e3c9fd0803ce800000060028404190484111715610b27575f5ffd5b506b033b2e3c9fd0803ce80000009190910260028204010490565b5f81156b019d971e4fe8401e740000001983900484111517610b62575f5ffd5b506b033b2e3c9fd0803ce800000091026b019d971e4fe8401e74000000010490565b5f81156113881983900484111517610b9a575f5ffd5b506127109102611388010490565b6001600160a01b0381168114610bbc575f5ffd5b50565b5f60208284031215610bcf575f5ffd5b8135610bda81610ba8565b9392505050565b5f5f5f60408486031215610bf3575f5ffd5b8335610bfe81610ba8565b9250602084013567ffffffffffffffff811115610c19575f5ffd5b8401601f81018613610c29575f5ffd5b803567ffffffffffffffff811115610c3f575f5ffd5b866020828401011115610c50575f5ffd5b939660209190910195509293505050565b5f610100828403128015610c73575f5ffd5b509092915050565b5f5f82840360a0811215610c8d575f5ffd5b8335610c9881610ba8565b92506080601f1982011215610cab575f5ffd5b506020830190509250929050565b634e487b7160e01b5f52601160045260245ffd5b63ffffffff81811683821601908111156103b4576103b4610cb9565b5f60208284031215610cf9575f5ffd5b8151610bda81610ba8565b803563ffffffff81168114610d17575f5ffd5b919050565b5f6080828403128015610d2d575f5ffd5b506040516080810167ffffffffffffffff81118282101715610d5d57634e487b7160e01b5f52604160045260245ffd5b604052823561ffff81168114610d71575f5ffd5b8152610d7f60208401610d04565b6020820152610d9060408401610d04565b6040820152610da160608401610d04565b60608201529392505050565b808201808211156103b4576103b4610cb9565b818103818111156103b4576103b4610cb9565b80820281158282048414176103b4576103b4610cb956fea164736f6c634300081b000a608060405234801561000f575f5ffd5b5060405161096738038061096783398101604081905261002e91610173565b5f80546001600160a01b031916339081178255604051909182915f5160206109475f395f51905f52908290a3506100648161006a565b506101a0565b5f546001600160a01b031633146100c85760405162461bcd60e51b815260206004820181905260248201527f4f776e61626c653a2063616c6c6572206973206e6f7420746865206f776e657260448201526064015b60405180910390fd5b6001600160a01b03811661012d5760405162461bcd60e51b815260206004820152602660248201527f4f776e61626c653a206e6577206f776e657220697320746865207a65726f206160448201526564647265737360d01b60648201526084016100bf565b5f80546040516001600160a01b03808516939216915f5160206109475f395f51905f5291a35f80546001600160a01b0319166001600160a01b0392909216919091179055565b5f60208284031215610183575f5ffd5b81516001600160a01b0381168114610199575f5ffd5b9392505050565b61079a806101ad5f395ff3fe608060405234801561000f575f5ffd5b5060043610610085575f3560e01c80638da5cb5b116100585780638da5cb5b14610104578063d0267be714610114578063d258191e1461014a578063f2fde38b1461015d575f5ffd5b80630de2670714610089578063365ccbbf1461009e57806357dc0566146100bc578063715018a6146100fc575b5f5ffd5b61009c610097366004610661565b610170565b005b6100a6610257565b6040516100b39190610681565b60405180910390f35b6100e46100ca3660046106cc565b5f908152600260205260409020546001600160a01b031690565b6040516001600160a01b0390911681526020016100b3565b61009c6102b7565b5f546001600160a01b03166100e4565b61013c610122366004610661565b6001600160a01b03165f9081526001602052604090205490565b6040519081526020016100b3565b61009c6101583660046106e3565b610328565b61009c61016b366004610661565b610474565b5f546001600160a01b031633146101a25760405162461bcd60e51b81526004016101999061070b565b60405180910390fd5b6001600160a01b0381165f9081526001602052604081205490036101d9576040516307498ebd60e41b815260040160405180910390fd5b6001600160a01b0381165f81815260016020818152604080842080548086526002845291852080546001600160a01b0319169055948452919052915561021e8261055b565b60405181906001600160a01b038416907f254723080701bde71d562cad0e967cef23d86bb27ee842c190a2596820f3b241905f90a35050565b606060038054806020026020016040519081016040528092919081815260200182805480156102ad57602002820191905f5260205f20905b81546001600160a01b0316815260019091019060200180831161028f575b5050505050905090565b5f546001600160a01b031633146102e05760405162461bcd60e51b81526004016101999061070b565b5f80546040516001600160a01b03909116907f8be0079c531659141344cd1fd0a4f28419497f9722a3daafe3b4186f6b6457e0908390a35f80546001600160a01b0319169055565b5f546001600160a01b031633146103515760405162461bcd60e51b81526004016101999061070b565b801580159061037457505f818152600260205260409020546001600160a01b0316155b6103915760405163f771765760e01b815260040160405180910390fd5b6001600160a01b0382165f90815260016020526040902054156103c757604051630cf17b4960e11b815260040160405180910390fd5b6001600160a01b0382165f8181526001602081815260408084208690558584526002825280842080546001600160a01b0319908116871790915560038054878752600490945282862084905593830184559284527fc2575a0e9e593c00f959f8c92f12db2869c3395a3b0502d05e2516446f71f85b90910180549092168417909155518392917fc2e7cc813550ef0e7126cc0571281850ce5df2e9c400acf3589c38e4627f85f191a35050565b5f546001600160a01b0316331461049d5760405162461bcd60e51b81526004016101999061070b565b6001600160a01b0381166105025760405162461bcd60e51b815260206004820152602660248201527f4f776e61626c653a206e6577206f776e657220697320746865207a65726f206160448201526564647265737360d01b6064820152608401610199565b5f80546040516001600160a01b03808516939216917f8be0079c531659141344cd1fd0a4f28419497f9722a3daafe3b4186f6b6457e091a35f80546001600160a01b0319166001600160a01b0392909216919091179055565b6001600160a01b0381165f90815260046020526040812080549082905560035490919061058a90600190610740565b905080821015610610575f600382815481106105a8576105a8610765565b5f91825260209091200154600380546001600160a01b0390921692508291859081106105d6576105d6610765565b5f91825260208083209190910180546001600160a01b0319166001600160a01b039485161790559290911681526004909152604090208290555b600380548061062157610621610779565b5f8281526020902081015f1990810180546001600160a01b0319169055019055505050565b80356001600160a01b038116811461065c575f5ffd5b919050565b5f60208284031215610671575f5ffd5b61067a82610646565b9392505050565b602080825282518282018190525f918401906040840190835b818110156106c15783516001600160a01b031683526020938401939092019160010161069a565b509095945050505050565b5f602082840312156106dc575f5ffd5b5035919050565b5f5f604083850312156106f4575f5ffd5b6106fd83610646565b946020939093013593505050565b6020808252818101527f4f776e61626c653a2063616c6c6572206973206e6f7420746865206f776e6572604082015260600190565b8181038181111561075f57634e487b7160e01b5f52601160045260245ffd5b92915050565b634e487b7160e01b5f52603260045260245ffd5b634e487b7160e01b5f52603160045260245ffdfea164736f6c634300081b000a8be0079c531659141344cd1fd0a4f28419497f9722a3daafe3b4186f6b6457e08be0079c531659141344cd1fd0a4f28419497f9722a3daafe3b4186f6b6457e0","linkReferences":{}},"methodIdentifiers":{"getInitialReport()":"8584704c","getSetupReport()":"d6b1fdf3","owner()":"8da5cb5b","renounceOwnership()":"715018a6","setMarketReport((address,address,address,address,address,address,address,address,address,address,address,address,address,address,address,address,address,address,address,address,address,address,address,address,address,address,address,address,address,address,address,address,address,address))":"33a07cae","setProtocolDataProvider(address)":"e4501d29","setupAaveV3Market((address,address,address),(address,address,string,uint8,address,address,uint256,uint256,bytes32,address,uint128,address,address,address,uint16),address,address,address,address,address)":"df0b8262","transferMarketOwnership((address,address,address))":"6c4eae98","transferOwnership(address)":"f2fde38b"},"id":320}