{"abi":[{"type":"constructor","inputs":[{"name":"emissionManager","type":"address","internalType":"address"}],"stateMutability":"nonpayable"},{"type":"function","name":"EMISSION_MANAGER","inputs":[],"outputs":[{"name":"","type":"address","internalType":"address"}],"stateMutability":"view"},{"type":"function","name":"REVISION","inputs":[],"outputs":[{"name":"","type":"uint256","internalType":"uint256"}],"stateMutability":"view"},{"type":"function","name":"claimAllRewards","inputs":[{"name":"assets","type":"address[]","internalType":"address[]"},{"name":"to","type":"address","internalType":"address"}],"outputs":[{"name":"rewardsList","type":"address[]","internalType":"address[]"},{"name":"claimedAmounts","type":"uint256[]","internalType":"uint256[]"}],"stateMutability":"nonpayable"},{"type":"function","name":"claimAllRewardsOnBehalf","inputs":[{"name":"assets","type":"address[]","internalType":"address[]"},{"name":"user","type":"address","internalType":"address"},{"name":"to","type":"address","internalType":"address"}],"outputs":[{"name":"rewardsList","type":"address[]","internalType":"address[]"},{"name":"claimedAmounts","type":"uint256[]","internalType":"uint256[]"}],"stateMutability":"nonpayable"},{"type":"function","name":"claimAllRewardsToSelf","inputs":[{"name":"assets","type":"address[]","internalType":"address[]"}],"outputs":[{"name":"rewardsList","type":"address[]","internalType":"address[]"},{"name":"claimedAmounts","type":"uint256[]","internalType":"uint256[]"}],"stateMutability":"nonpayable"},{"type":"function","name":"claimRewards","inputs":[{"name":"assets","type":"address[]","internalType":"address[]"},{"name":"amount","type":"uint256","internalType":"uint256"},{"name":"to","type":"address","internalType":"address"},{"name":"reward","type":"address","internalType":"address"}],"outputs":[{"name":"","type":"uint256","internalType":"uint256"}],"stateMutability":"nonpayable"},{"type":"function","name":"claimRewardsOnBehalf","inputs":[{"name":"assets","type":"address[]","internalType":"address[]"},{"name":"amount","type":"uint256","internalType":"uint256"},{"name":"user","type":"address","internalType":"address"},{"name":"to","type":"address","internalType":"address"},{"name":"reward","type":"address","internalType":"address"}],"outputs":[{"name":"","type":"uint256","internalType":"uint256"}],"stateMutability":"nonpayable"},{"type":"function","name":"claimRewardsToSelf","inputs":[{"name":"assets","type":"address[]","internalType":"address[]"},{"name":"amount","type":"uint256","internalType":"uint256"},{"name":"reward","type":"address","internalType":"address"}],"outputs":[{"name":"","type":"uint256","internalType":"uint256"}],"stateMutability":"nonpayable"},{"type":"function","name":"configureAssets","inputs":[{"name":"config","type":"tuple[]","internalType":"struct RewardsDataTypes.RewardsConfigInput[]","components":[{"name":"emissionPerSecond","type":"uint88","internalType":"uint88"},{"name":"totalSupply","type":"uint256","internalType":"uint256"},{"name":"distributionEnd","type":"uint32","internalType":"uint32"},{"name":"asset","type":"address","internalType":"address"},{"name":"reward","type":"address","internalType":"address"},{"name":"transferStrategy","type":"address","internalType":"contract ITransferStrategyBase"},{"name":"rewardOracle","type":"address","internalType":"contract AggregatorInterface"}]}],"outputs":[],"stateMutability":"nonpayable"},{"type":"function","name":"getAllUserRewards","inputs":[{"name":"assets","type":"address[]","internalType":"address[]"},{"name":"user","type":"address","internalType":"address"}],"outputs":[{"name":"rewardsList","type":"address[]","internalType":"address[]"},{"name":"unclaimedAmounts","type":"uint256[]","internalType":"uint256[]"}],"stateMutability":"view"},{"type":"function","name":"getAssetDecimals","inputs":[{"name":"asset","type":"address","internalType":"address"}],"outputs":[{"name":"","type":"uint8","internalType":"uint8"}],"stateMutability":"view"},{"type":"function","name":"getAssetIndex","inputs":[{"name":"asset","type":"address","internalType":"address"},{"name":"reward","type":"address","internalType":"address"}],"outputs":[{"name":"","type":"uint256","internalType":"uint256"},{"name":"","type":"uint256","internalType":"uint256"}],"stateMutability":"view"},{"type":"function","name":"getClaimer","inputs":[{"name":"user","type":"address","internalType":"address"}],"outputs":[{"name":"","type":"address","internalType":"address"}],"stateMutability":"view"},{"type":"function","name":"getDistributionEnd","inputs":[{"name":"asset","type":"address","internalType":"address"},{"name":"reward","type":"address","internalType":"address"}],"outputs":[{"name":"","type":"uint256","internalType":"uint256"}],"stateMutability":"view"},{"type":"function","name":"getEmissionManager","inputs":[],"outputs":[{"name":"","type":"address","internalType":"address"}],"stateMutability":"view"},{"type":"function","name":"getRewardOracle","inputs":[{"name":"reward","type":"address","internalType":"address"}],"outputs":[{"name":"","type":"address","internalType":"address"}],"stateMutability":"view"},{"type":"function","name":"getRewardsByAsset","inputs":[{"name":"asset","type":"address","internalType":"address"}],"outputs":[{"name":"","type":"address[]","internalType":"address[]"}],"stateMutability":"view"},{"type":"function","name":"getRewardsData","inputs":[{"name":"asset","type":"address","internalType":"address"},{"name":"reward","type":"address","internalType":"address"}],"outputs":[{"name":"","type":"uint256","internalType":"uint256"},{"name":"","type":"uint256","internalType":"uint256"},{"name":"","type":"uint256","internalType":"uint256"},{"name":"","type":"uint256","internalType":"uint256"}],"stateMutability":"view"},{"type":"function","name":"getRewardsList","inputs":[],"outputs":[{"name":"","type":"address[]","internalType":"address[]"}],"stateMutability":"view"},{"type":"function","name":"getTransferStrategy","inputs":[{"name":"reward","type":"address","internalType":"address"}],"outputs":[{"name":"","type":"address","internalType":"address"}],"stateMutability":"view"},{"type":"function","name":"getUserAccruedRewards","inputs":[{"name":"user","type":"address","internalType":"address"},{"name":"reward","type":"address","internalType":"address"}],"outputs":[{"name":"","type":"uint256","internalType":"uint256"}],"stateMutability":"view"},{"type":"function","name":"getUserAssetIndex","inputs":[{"name":"user","type":"address","internalType":"address"},{"name":"asset","type":"address","internalType":"address"},{"name":"reward","type":"address","internalType":"address"}],"outputs":[{"name":"","type":"uint256","internalType":"uint256"}],"stateMutability":"view"},{"type":"function","name":"getUserRewards","inputs":[{"name":"assets","type":"address[]","internalType":"address[]"},{"name":"user","type":"address","internalType":"address"},{"name":"reward","type":"address","internalType":"address"}],"outputs":[{"name":"","type":"uint256","internalType":"uint256"}],"stateMutability":"view"},{"type":"function","name":"handleAction","inputs":[{"name":"user","type":"address","internalType":"address"},{"name":"totalSupply","type":"uint256","internalType":"uint256"},{"name":"userBalance","type":"uint256","internalType":"uint256"}],"outputs":[],"stateMutability":"nonpayable"},{"type":"function","name":"initialize","inputs":[{"name":"","type":"address","internalType":"address"}],"outputs":[],"stateMutability":"nonpayable"},{"type":"function","name":"setClaimer","inputs":[{"name":"user","type":"address","internalType":"address"},{"name":"caller","type":"address","internalType":"address"}],"outputs":[],"stateMutability":"nonpayable"},{"type":"function","name":"setDistributionEnd","inputs":[{"name":"asset","type":"address","internalType":"address"},{"name":"reward","type":"address","internalType":"address"},{"name":"newDistributionEnd","type":"uint32","internalType":"uint32"}],"outputs":[],"stateMutability":"nonpayable"},{"type":"function","name":"setEmissionPerSecond","inputs":[{"name":"asset","type":"address","internalType":"address"},{"name":"rewards","type":"address[]","internalType":"address[]"},{"name":"newEmissionsPerSecond","type":"uint88[]","internalType":"uint88[]"}],"outputs":[],"stateMutability":"nonpayable"},{"type":"function","name":"setRewardOracle","inputs":[{"name":"reward","type":"address","internalType":"address"},{"name":"rewardOracle","type":"address","internalType":"contract AggregatorInterface"}],"outputs":[],"stateMutability":"nonpayable"},{"type":"function","name":"setTransferStrategy","inputs":[{"name":"reward","type":"address","internalType":"address"},{"name":"transferStrategy","type":"address","internalType":"contract ITransferStrategyBase"}],"outputs":[],"stateMutability":"nonpayable"},{"type":"event","name":"Accrued","inputs":[{"name":"asset","type":"address","indexed":true,"internalType":"address"},{"name":"reward","type":"address","indexed":true,"internalType":"address"},{"name":"user","type":"address","indexed":true,"internalType":"address"},{"name":"assetIndex","type":"uint256","indexed":false,"internalType":"uint256"},{"name":"userIndex","type":"uint256","indexed":false,"internalType":"uint256"},{"name":"rewardsAccrued","type":"uint256","indexed":false,"internalType":"uint256"}],"anonymous":false},{"type":"event","name":"AssetConfigUpdated","inputs":[{"name":"asset","type":"address","indexed":true,"internalType":"address"},{"name":"reward","type":"address","indexed":true,"internalType":"address"},{"name":"oldEmission","type":"uint256","indexed":false,"internalType":"uint256"},{"name":"newEmission","type":"uint256","indexed":false,"internalType":"uint256"},{"name":"oldDistributionEnd","type":"uint256","indexed":false,"internalType":"uint256"},{"name":"newDistributionEnd","type":"uint256","indexed":false,"internalType":"uint256"},{"name":"assetIndex","type":"uint256","indexed":false,"internalType":"uint256"}],"anonymous":false},{"type":"event","name":"ClaimerSet","inputs":[{"name":"user","type":"address","indexed":true,"internalType":"address"},{"name":"claimer","type":"address","indexed":true,"internalType":"address"}],"anonymous":false},{"type":"event","name":"RewardOracleUpdated","inputs":[{"name":"reward","type":"address","indexed":true,"internalType":"address"},{"name":"rewardOracle","type":"address","indexed":true,"internalType":"address"}],"anonymous":false},{"type":"event","name":"RewardsClaimed","inputs":[{"name":"user","type":"address","indexed":true,"internalType":"address"},{"name":"reward","type":"address","indexed":true,"internalType":"address"},{"name":"to","type":"address","indexed":true,"internalType":"address"},{"name":"claimer","type":"address","indexed":false,"internalType":"address"},{"name":"amount","type":"uint256","indexed":false,"internalType":"uint256"}],"anonymous":false},{"type":"event","name":"TransferStrategyInstalled","inputs":[{"name":"reward","type":"address","indexed":true,"internalType":"address"},{"name":"transferStrategy","type":"address","indexed":true,"internalType":"address"}],"anonymous":false},{"type":"error","name":"SafeCastOverflowedUintDowncast","inputs":[{"name":"bits","type":"uint8","internalType":"uint8"},{"name":"value","type":"uint256","internalType":"uint256"}]}],"bytecode":{"object":"0x60a06040525f600555348015610013575f5ffd5b5060405161374b38038061374b83398101604081905261003291610048565b6001600160a01b03166080526001600555610075565b5f60208284031215610058575f5ffd5b81516001600160a01b038116811461006e575f5ffd5b9392505050565b60805161368d6100be5f395f818161044f0152818161054c015281816109e501528181610c2e015281816110b3015281816111c20152818161121401526112b2015261368d5ff3fe608060405234801561000f575f5ffd5b50600436106101d1575f3560e01c806392074b08116100fe578063bf90f63a1161009e578063dde43cba1161006e578063dde43cba1461056e578063e15ac62314610576578063f5cf673b14610589578063f996868b1461059c575f5ffd5b8063bf90f63a1461050e578063c4d66de814610521578063c5a7b53814610534578063cbcbb50714610547575f5ffd5b80639ff55db9116100d95780639ff55db9146104cd578063b022418c146104e0578063b45ac1a9146104f3578063bb492bf5146104fb575f5ffd5b806392074b081461044d578063955c2ad7146104735780639efd6f7214610486575f5ffd5b80635453ba101161017457806370674ab91161014457806370674ab91461035b57806374d945ec1461036e5780637eff4ba814610399578063886fe70b14610425575f5ffd5b80635453ba10146102ea57806357b89883146102fd5780635f130b24146103105780636657732f1461033b575f5ffd5b806331873e2e116101af57806331873e2e1461025157806333028b99146102665780634c0369c314610279578063533f542a1461029a575f5ffd5b80631b839c77146101d5578063236300dc146101fb5780632a17bf601461020e575b5f5ffd5b6101e86101e3366004612d86565b6105af565b6040519081526020015b60405180910390f35b6101e8610209366004612dfd565b6105e8565b61023961021c366004612e6b565b6001600160a01b039081165f908152603b60205260409020541690565b6040516001600160a01b0390911681526020016101f2565b61026461025f366004612e8d565b610631565b005b6101e8610274366004612ebf565b610642565b61028c610287366004612f3e565b610736565b6040516101f2929190612fd3565b6101e86102a836600461302b565b6001600160a01b038083165f90815260016020818152604080842086861685528252808420948816845293909101905220546001600160681b03169392505050565b6102646102f8366004612d86565b6109da565b6101e861030b366004613068565b610a30565b61023961031e366004612e6b565b6001600160a01b039081165f908152603a60205260409020541690565b61034e610349366004612e6b565b610a49565b6040516101f291906130c2565b6101e86103693660046130d4565b610b42565b61023961037c366004612e6b565b6001600160a01b039081165f908152603960205260409020541690565b6104056103a7366004612d86565b6001600160a01b039182165f9081526001602090815260408083209390941682529190915220546001600160681b038116916001600160581b03600160681b8304169163ffffffff600160c01b8204811692600160e01b9092041690565b6040805194855260208501939093529183015260608201526080016101f2565b610438610433366004612d86565b610b58565b604080519283526020830191909152016101f2565b7f0000000000000000000000000000000000000000000000000000000000000000610239565b6102646104813660046131c6565b610c23565b6104bb610494366004612e6b565b6001600160a01b03165f90815260016020526040902060020154600160801b900460ff1690565b60405160ff90911681526020016101f2565b61028c6104db3660046130d4565b610db2565b6101e86104ee366004612d86565b610ea9565b61034e610f34565b61028c610509366004612f3e565b610f94565b61028c61051c3660046132f0565b610fd6565b61026461052f366004612e6b565b610ff1565b61026461054236600461332e565b6110a8565b6102397f000000000000000000000000000000000000000000000000000000000000000081565b6101e8600181565b610264610584366004612d86565b6111b7565b610264610597366004612d86565b611209565b6102646105aa366004613372565b6112a7565b6001600160a01b038281165f90815260016020908152604080832093851683529290522054600160e01b900463ffffffff165b92915050565b5f6001600160a01b0383166106185760405162461bcd60e51b815260040161060f906133f2565b60405180910390fd5b610627868686333388886115c6565b9695505050505050565b61063d338483856117c3565b505050565b6001600160a01b038084165f908152603960205260408120549091339186911682146106a75760405162461bcd60e51b815260206004820152601460248201527310d3105253515497d5539055551213d49256915160621b604482015260640161060f565b6001600160a01b0386166106f45760405162461bcd60e51b8152602060048201526014602482015273494e56414c49445f555345525f4144445245535360601b604482015260640161060f565b6001600160a01b03851661071a5760405162461bcd60e51b815260040161060f906133f2565b610729898989338a8a8a6115c6565b9998505050505050505050565b6060805f61074586868661190e565b6003549091506001600160401b038111156107625761076261312c565b60405190808252806020026020018201604052801561078b578160200160208202803683370190505b50925082516001600160401b038111156107a7576107a761312c565b6040519080825280602002602001820160405280156107d0578160200160208202803683370190505b5091505f5b81518110156109cf575f5b84518110156109c657600381815481106107fc576107fc61341e565b905f5260205f20015f9054906101000a90046001600160a01b03168582815181106108295761082961341e565b60200260200101906001600160a01b031690816001600160a01b03168152505060015f84848151811061085e5761085e61341e565b60200260200101515f01516001600160a01b03166001600160a01b031681526020019081526020015f205f015f86838151811061089d5761089d61341e565b60200260200101516001600160a01b03166001600160a01b031681526020019081526020015f206001015f876001600160a01b03166001600160a01b031681526020019081526020015f205f01600d9054906101000a90046001600160801b03166001600160801b03168482815181106109195761091961341e565b6020026020010181815161092d9190613446565b90525082518390839081106109445761094461341e565b6020026020010151602001515f03156109be576109948686838151811061096d5761096d61341e565b60200260200101518585815181106109875761098761341e565b6020026020010151611abb565b8482815181106109a6576109a661341e565b602002602001018181516109ba9190613446565b9052505b6001016107e0565b506001016107d5565b50505b935093915050565b336001600160a01b037f00000000000000000000000000000000000000000000000000000000000000001614610a225760405162461bcd60e51b815260040161060f90613459565b610a2c8282611b59565b5050565b5f610a40858585333333886115c6565b95945050505050565b6001600160a01b0381165f908152600160205260408120600201546060916001600160801b0390911690816001600160401b03811115610a8b57610a8b61312c565b604051908082528060200260200182016040528015610ab4578160200160208202803683370190505b5090505f5b826001600160801b0316816001600160801b03161015610b3a576001600160a01b038086165f9081526001602081815260408084206001600160801b03871680865293019091529091205484519216918491908110610b1a57610b1a61341e565b6001600160a01b0390921660209283029190910190910152600101610ab9565b509392505050565b5f610a408383610b5388888861190e565b611c5d565b6001600160a01b038083165f8181526001602090815260408083209486168352938152838220845163b1bf962d60e01b81529451929485949193610c169385939263b1bf962d92600480830193928290030181865afa158015610bbd573d5f5f3e3d5ffd5b505050506040513d601f19601f82011682018060405250810190610be19190613488565b6001600160a01b0388165f90815260016020526040902060020154610c1190600160801b900460ff16600a61357a565b611dab565b92509250505b9250929050565b336001600160a01b037f00000000000000000000000000000000000000000000000000000000000000001614610c6b5760405162461bcd60e51b815260040161060f90613459565b5f5b8151811015610da557818181518110610c8857610c8861341e565b6020026020010151606001516001600160a01b031663b1bf962d6040518163ffffffff1660e01b8152600401602060405180830381865afa158015610ccf573d5f5f3e3d5ffd5b505050506040513d601f19601f82011682018060405250810190610cf39190613488565b828281518110610d0557610d0561341e565b60200260200101516020018181525050610d59828281518110610d2a57610d2a61341e565b602002602001015160800151838381518110610d4857610d4861341e565b602002602001015160a00151611e71565b610d9d828281518110610d6e57610d6e61341e565b602002602001015160800151838381518110610d8c57610d8c61341e565b602002602001015160c00151611b59565b600101610c6d565b50610daf81611f70565b50565b6001600160a01b038083165f90815260396020526040902054606091829133918691168214610e1a5760405162461bcd60e51b815260206004820152601460248201527310d3105253515497d5539055551213d49256915160621b604482015260640161060f565b6001600160a01b038616610e675760405162461bcd60e51b8152602060048201526014602482015273494e56414c49445f555345525f4144445245535360601b604482015260640161060f565b6001600160a01b038516610e8d5760405162461bcd60e51b815260040161060f906133f2565b610e9a88883389896125fc565b93509350505094509492505050565b5f80805b600454811015610b3a5760015f60048381548110610ecd57610ecd61341e565b5f918252602080832091909101546001600160a01b03908116845283820194909452604092830182208885168352815282822093891682526001909301909252902054610f2a90600160681b90046001600160801b031683613446565b9150600101610ead565b60606003805480602002602001604051908101604052809291908181526020018280548015610f8a57602002820191905f5260205f20905b81546001600160a01b03168152600190910190602001808311610f6c575b5050505050905090565b6060806001600160a01b038316610fbd5760405162461bcd60e51b815260040161060f906133f2565b610fca85853333876125fc565b91509150935093915050565b606080610fe684843333336125fc565b915091509250929050565b60065460019060ff16806110045750303b155b80611010575060055481115b6110735760405162461bcd60e51b815260206004820152602e60248201527f436f6e747261637420696e7374616e63652068617320616c726561647920626560448201526d195b881a5b9a5d1a585b1a5e995960921b606482015260840161060f565b60065460ff16158015611093576006805460ff1916600117905560058290555b801561063d576006805460ff19169055505050565b336001600160a01b037f000000000000000000000000000000000000000000000000000000000000000016146110f05760405162461bcd60e51b815260040161060f90613459565b6001600160a01b038381165f8181526001602090815260408083209487168084529482529182902080546001600160e01b038116600160e01b63ffffffff898116828102938417958690558751600160681b9096046001600160581b0316808752968601969096529083041694830185905260608301939093526001600160681b039081169216919091176080820152909291907fac1777479f07f3e7c34da8402139d54027a6a260caaae168bdee825ca5580dc59060a00160405180910390a350505050565b336001600160a01b037f000000000000000000000000000000000000000000000000000000000000000016146111ff5760405162461bcd60e51b815260040161060f90613459565b610a2c8282611e71565b336001600160a01b037f000000000000000000000000000000000000000000000000000000000000000016146112515760405162461bcd60e51b815260040161060f90613459565b6001600160a01b038281165f8181526039602052604080822080546001600160a01b0319169486169485179055517f4925eafc82d0c4d67889898eeed64b18488ab19811e61620f387026dec126a289190a35050565b336001600160a01b037f000000000000000000000000000000000000000000000000000000000000000016146112ef5760405162461bcd60e51b815260040161060f90613459565b82811461132e5760405162461bcd60e51b815260206004820152600d60248201526c1253959053125117d253941555609a1b604482015260640161060f565b5f5b838110156115be576001600160a01b0386165f9081526001602052604081209081818888868181106113645761136461341e565b90506020020160208101906113799190612e6b565b6001600160a01b0316815260208101919091526040015f206002830154909150600160801b900460ff1680158015906113bf57508154600160c01b900463ffffffff1615155b61140b5760405162461bcd60e51b815260206004820152601b60248201527f444953545249425554494f4e5f444f45535f4e4f545f45584953540000000000604482015260640161060f565b5f611480838b6001600160a01b031663b1bf962d6040518163ffffffff1660e01b8152600401602060405180830381865afa15801561144c573d5f5f3e3d5ffd5b505050506040513d601f19601f820116820180604052508101906114709190613488565b61147b85600a613588565b6129be565b508354909150600160681b90046001600160581b03168787878181106114a8576114a861341e565b90506020020160208101906114bd9190613593565b84546001600160581b0391909116600160681b026affffffffffffffffffffff60681b199091161784558989878181106114f9576114f961341e565b905060200201602081019061150e9190612e6b565b6001600160a01b03168b6001600160a01b03167fac1777479f07f3e7c34da8402139d54027a6a260caaae168bdee825ca5580dc5838b8b8b8181106115555761155561341e565b905060200201602081019061156a9190613593565b8854604080519384526001600160581b039092166020840152600160e01b900463ffffffff1690820181905260608201526080810186905260a00160405180910390a3505060019093019250611330915050565b505050505050565b5f855f036115d557505f6117b8565b5f6115ea856115e58b8b8961190e565b612aa8565b5f5b8881101561174a575f8a8a838181106116075761160761341e565b905060200201602081019061161c9190612e6b565b6001600160a01b038181165f9081526001602081815260408084208b861685528252808420948d168452939091019052205490915061166b90600160681b90046001600160801b031684613446565b92508883116116bb576001600160a01b038082165f9081526001602081815260408084208a861685528252808420948c168452939091019052208054600160681b600160e81b0319169055611741565b5f6116c68a856135ac565b90506116d281856135ac565b93506116dd81612b1d565b6001600160a01b039283165f9081526001602081815260408084208b881685528252808420968d1684529590910190529290922080546001600160801b0393909316600160681b02600160681b600160e81b0319909316929092179091555061174a565b506001016115ec565b50805f0361175b575f9150506117b8565b611766848483612b54565b604080516001600160a01b038881168252602082018490528087169286821692918916917fc052130bc4ef84580db505783484b067ea8b71b3bca78a7e12db7aea8658f004910160405180910390a490505b979650505050505050565b6001600160a01b0384165f9081526001602052604081206002015460ff600160801b820416600a0a916001600160801b0390911690819003611806575050611908565b5f5b81816001600160801b03161015611904576001600160a01b038088165f9081526001602081815260408084206001600160801b038716855292830182528084205490941680845291905291812090806118628389896129be565b915091505f5f611875858d8d878d612c2d565b9150915082806118825750805b156118f2578b6001600160a01b0316866001600160a01b03168e6001600160a01b03167f3303facd24627943a92e9dc87cfbb34b15c49b726eec3ad3487c16be9ab8efe88788876040516118e9939291909283526020830191909152604082015260600190565b60405180910390a45b50506001909401935061180892505050565b5050505b50505050565b6060826001600160401b038111156119285761192861312c565b60405190808252806020026020018201604052801561198357816020015b61197060405180606001604052805f6001600160a01b031681526020015f81526020015f81525090565b8152602001906001900390816119465790505b5090505f5b83811015610b3a578484828181106119a2576119a261341e565b90506020020160208101906119b79190612e6b565b8282815181106119c9576119c961341e565b60209081029190910101516001600160a01b0390911690528484828181106119f3576119f361341e565b9050602002016020810190611a089190612e6b565b604051630afbcdc960e01b81526001600160a01b0385811660048301529190911690630afbcdc9906024016040805180830381865afa158015611a4d573d5f5f3e3d5ffd5b505050506040513d601f19601f82011682018060405250810190611a7191906135bf565b838381518110611a8357611a8361341e565b6020026020010151602001848481518110611aa057611aa061341e565b60209081029190910101516040019190915252600101611988565b80516001600160a01b039081165f90815260016020818152604080842087861685528252808420865190951684529190528120600201549091908290611b0c90600160801b900460ff16600a61357a565b90505f611b1e83866040015184611dab565b6020808801516001600160a01b038b165f908152600188019092526040909120549193506117b892509083906001600160681b031685612d1f565b5f816001600160a01b03166350d25bcd6040518163ffffffff1660e01b8152600401602060405180830381865afa158015611b96573d5f5f3e3d5ffd5b505050506040513d601f19601f82011682018060405250810190611bba9190613488565b13611c075760405162461bcd60e51b815260206004820152601860248201527f4f5241434c455f4d5553545f52455455524e5f50524943450000000000000000604482015260640161060f565b6001600160a01b038281165f818152603b602052604080822080546001600160a01b0319169486169485179055517f1a1cd5483e52e60b9ff7f3b9d1db3bbd9e9d21c6324ad3a8c79dba9b75e62f4d9190a35050565b5f805b8251811015610b3a57828181518110611c7b57611c7b61341e565b6020026020010151602001515f03611d065760015f848381518110611ca257611ca261341e565b602090810291909101810151516001600160a01b0390811683528282019390935260409182015f90812088851682528252828120938916815260019093019052902054611cff90600160681b90046001600160801b031683613446565b9150611da3565b60015f848381518110611d1b57611d1b61341e565b602090810291909101810151516001600160a01b0390811683528282019390935260409182015f908120888516825282528281209389168152600190930190529020548351600160681b9091046001600160801b031690611d8c90879087908790869081106109875761098761341e565b611d969190613446565b611da09083613446565b91505b600101611c60565b82545f9081906001600160681b0381169063ffffffff600160e01b82048116916001600160581b03600160681b82041691600160c01b90910416811580611df0575087155b80611dfa57504281145b80611e055750828110155b15611e1957838495509550505050506109d2565b5f834211611e275742611e29565b835b90505f611e3683836135ac565b90505f89611e4483876135e1565b611e4e91906135e1565b8b9004905086611e5e8183613446565b9850985050505050505050935093915050565b6001600160a01b038116611ec75760405162461bcd60e51b815260206004820152601860248201527f53545241544547595f43414e5f4e4f545f42455f5a45524f0000000000000000604482015260640161060f565b6001813b151514611f1a5760405162461bcd60e51b815260206004820152601960248201527f53545241544547595f4d5553545f42455f434f4e545241435400000000000000604482015260640161060f565b6001600160a01b038281165f818152603a602052604080822080546001600160a01b0319169486169485179055517f8ca1d928f1d72493a6b78c4f74aabde976bc37ffe2570f2a1ce5a8abd3dde0aa9190a35050565b5f5b8151811015610a2c5760015f838381518110611f9057611f9061341e565b6020026020010151606001516001600160a01b03166001600160a01b031681526020019081526020015f2060020160109054906101000a900460ff1660ff165f03612028576004828281518110611fe957611fe961341e565b6020908102919091018101516060015182546001810184555f938452919092200180546001600160a01b0319166001600160a01b039092169190911790555b5f82828151811061203b5761203b61341e565b6020026020010151606001516001600160a01b031663313ce5676040518163ffffffff1660e01b8152600401602060405180830381865afa158015612082573d5f5f3e3d5ffd5b505050506040513d601f19601f820116820180604052508101906120a691906135f8565b60015f8585815181106120bb576120bb61341e565b6020026020010151606001516001600160a01b03166001600160a01b031681526020019081526020015f2060020160106101000a81548160ff021916908360ff160217905560ff1690505f60015f85858151811061211b5761211b61341e565b6020026020010151606001516001600160a01b03166001600160a01b031681526020019081526020015f205f015f85858151811061215b5761215b61341e565b6020026020010151608001516001600160a01b03166001600160a01b031681526020019081526020015f209050805f0160189054906101000a900463ffffffff1663ffffffff165f0361231d578383815181106121ba576121ba61341e565b60200260200101516080015160015f8686815181106121db576121db61341e565b6020026020010151606001516001600160a01b03166001600160a01b031681526020019081526020015f206001015f60015f88888151811061221f5761221f61341e565b6020026020010151606001516001600160a01b03166001600160a01b031681526020019081526020015f206002015f9054906101000a90046001600160801b03166001600160801b03166001600160801b031681526020019081526020015f205f6101000a8154816001600160a01b0302191690836001600160a01b0316021790555060015f8585815181106122b7576122b761341e565b602090810291909101810151606001516001600160a01b031682528101919091526040015f90812060020180546001600160801b0316916122f783613618565b91906101000a8154816001600160801b0302191690836001600160801b03160217905550505b60025f8585815181106123325761233261341e565b602090810291909101810151608001516001600160a01b031682528101919091526040015f9081205460ff161515900361241157600160025f86868151811061237d5761237d61341e565b6020026020010151608001516001600160a01b03166001600160a01b031681526020019081526020015f205f6101000a81548160ff02191690831515021790555060038484815181106123d2576123d261341e565b6020908102919091018101516080015182546001810184555f938452919092200180546001600160a01b0319166001600160a01b039092169190911790555b5f612441828686815181106124285761242861341e565b60200260200101516020015185600a61147b9190613588565b5082548651919250600160681b81046001600160581b031691600160e01b90910463ffffffff169087908790811061247b5761247b61341e565b60209081029190910101515184546001600160581b03909116600160681b026affffffffffffffffffffff60681b1990911617845586518790879081106124c4576124c461341e565b602090810291909101015160400151845463ffffffff909116600160e01b026001600160e01b0390911617845586518790879081106125055761250561341e565b6020026020010151608001516001600160a01b031687878151811061252c5761252c61341e565b6020026020010151606001516001600160a01b03167fac1777479f07f3e7c34da8402139d54027a6a260caaae168bdee825ca5580dc5848a8a815181106125755761257561341e565b60200260200101515f0151858c8c815181106125935761259361341e565b602002602001015160400151896040516125e39594939291906001600160581b03958616815293909416602084015263ffffffff9182166040840152166060820152608081019190915260a00190565b60405180910390a3505060019093019250611f72915050565b6003546060908190806001600160401b0381111561261c5761261c61312c565b604051908082528060200260200182016040528015612645578160200160208202803683370190505b509250806001600160401b038111156126605761266061312c565b604051908082528060200260200182016040528015612689578160200160208202803683370190505b50915061269b856115e58a8a8961190e565b5f5b878110156128c5575f8989838181106126b8576126b861341e565b90506020020160208101906126cd9190612e6b565b90505f5b838110156128bb575f6001600160a01b03168682815181106126f5576126f561341e565b60200260200101516001600160a01b03160361276c576003818154811061271e5761271e61341e565b905f5260205f20015f9054906101000a90046001600160a01b031686828151811061274b5761274b61341e565b60200260200101906001600160a01b031690816001600160a01b0316815250505b6001600160a01b0382165f908152600160205260408120875182908990859081106127995761279961341e565b6020908102919091018101516001600160a01b0390811683528282019390935260409182015f908120938d16815260019093019052902054600160681b90046001600160801b0316905080156128b257808683815181106127fc576127fc61341e565b602002602001018181516128109190613446565b9052506001600160a01b0383165f908152600160205260408120885182908a90869081106128405761284061341e565b60200260200101516001600160a01b03166001600160a01b031681526020019081526020015f206001015f8b6001600160a01b03166001600160a01b031681526020019081526020015f205f01600d6101000a8154816001600160801b0302191690836001600160801b031602179055505b506001016126d1565b505060010161269d565b505f5b818110156129b25761290d858583815181106128e6576128e661341e565b60200260200101518584815181106129005761290061341e565b6020026020010151612b54565b846001600160a01b03168482815181106129295761292961341e565b60200260200101516001600160a01b0316876001600160a01b03167fc052130bc4ef84580db505783484b067ea8b71b3bca78a7e12db7aea8658f0048a8786815181106129785761297861341e565b60200260200101516040516129a29291906001600160a01b03929092168252602082015260400190565b60405180910390a46001016128c8565b50509550959350505050565b5f5f5f5f6129cd878787611dab565b915091505f828214612a71576001600160681b03821115612a215760405162461bcd60e51b815260206004820152600e60248201526d494e4445585f4f564552464c4f5760901b604482015260640161060f565b5086546cffffffffffffffffffffffffff19166001600160681b0382161787556001612a4c42612d42565b885463ffffffff91909116600160c01b0263ffffffff60c01b19909116178855612a9b565b612a7a42612d42565b885463ffffffff91909116600160c01b0263ffffffff60c01b199091161788555b9097909650945050505050565b5f5b815181101561063d57612b15828281518110612ac857612ac861341e565b60200260200101515f015184848481518110612ae657612ae661341e565b602002602001015160200151858581518110612b0457612b0461341e565b6020026020010151604001516117c3565b600101612aaa565b5f6001600160801b03821115612b50576040516306dfcc6560e41b8152608060048201526024810183905260440161060f565b5090565b6001600160a01b038281165f818152603a6020526040808220549051630b5f5cc160e11b81528785166004820152602481019390935260448301859052909216919082906316beb982906064016020604051808303815f875af1158015612bbd573d5f5f3e3d5ffd5b505050506040513d601f19601f82011682018060405250810190612be19190613642565b9050600181151514612c265760405162461bcd60e51b815260206004820152600e60248201526d2a2920a729a322a92fa2a92927a960911b604482015260640161060f565b5050505050565b6001600160a01b0384165f90815260018601602052604081205481906001600160681b031681858214801590612d10576001600160a01b0389165f90815260018b016020526040902080546cffffffffffffffffffffffffff19166001600160681b0389161790558715612d1057612ca788888589612d1f565b9150612cb282612b1d565b6001600160a01b038a165f90815260018c01602052604090208054600d90612ceb908490600160681b90046001600160801b0316613661565b92506101000a8154816001600160801b0302191690836001600160801b031602179055505b90999098509650505050505050565b5f80612d2b84866135ac565b612d3590876135e1565b9290920495945050505050565b5f63ffffffff821115612b50576040516306dfcc6560e41b8152602060048201526024810183905260440161060f565b6001600160a01b0381168114610daf575f5ffd5b5f5f60408385031215612d97575f5ffd5b8235612da281612d72565b91506020830135612db281612d72565b809150509250929050565b5f5f83601f840112612dcd575f5ffd5b5081356001600160401b03811115612de3575f5ffd5b6020830191508360208260051b8501011115610c1c575f5ffd5b5f5f5f5f5f60808688031215612e11575f5ffd5b85356001600160401b03811115612e26575f5ffd5b612e3288828901612dbd565b909650945050602086013592506040860135612e4d81612d72565b91506060860135612e5d81612d72565b809150509295509295909350565b5f60208284031215612e7b575f5ffd5b8135612e8681612d72565b9392505050565b5f5f5f60608486031215612e9f575f5ffd5b8335612eaa81612d72565b95602085013595506040909401359392505050565b5f5f5f5f5f5f60a08789031215612ed4575f5ffd5b86356001600160401b03811115612ee9575f5ffd5b612ef589828a01612dbd565b909750955050602087013593506040870135612f1081612d72565b92506060870135612f2081612d72565b91506080870135612f3081612d72565b809150509295509295509295565b5f5f5f60408486031215612f50575f5ffd5b83356001600160401b03811115612f65575f5ffd5b612f7186828701612dbd565b9094509250506020840135612f8581612d72565b809150509250925092565b5f8151808452602084019350602083015f5b82811015612fc95781516001600160a01b0316865260209586019590910190600101612fa2565b5093949350505050565b604081525f612fe56040830185612f90565b82810360208401528084518083526020830191506020860192505f5b8181101561301f578351835260209384019390920191600101613001565b50909695505050505050565b5f5f5f6060848603121561303d575f5ffd5b833561304881612d72565b9250602084013561305881612d72565b91506040840135612f8581612d72565b5f5f5f5f6060858703121561307b575f5ffd5b84356001600160401b03811115613090575f5ffd5b61309c87828801612dbd565b9095509350506020850135915060408501356130b781612d72565b939692955090935050565b602081525f612e866020830184612f90565b5f5f5f5f606085870312156130e7575f5ffd5b84356001600160401b038111156130fc575f5ffd5b61310887828801612dbd565b909550935050602085013561311c81612d72565b915060408501356130b781612d72565b634e487b7160e01b5f52604160045260245ffd5b60405160e081016001600160401b03811182821017156131625761316261312c565b60405290565b604051601f8201601f191681016001600160401b03811182821017156131905761319061312c565b604052919050565b80356001600160581b03811681146131ae575f5ffd5b919050565b803563ffffffff811681146131ae575f5ffd5b5f602082840312156131d6575f5ffd5b81356001600160401b038111156131eb575f5ffd5b8201601f810184136131fb575f5ffd5b80356001600160401b038111156132145761321461312c565b61322360208260051b01613168565b80828252602082019150602060e08402850101925086831115613244575f5ffd5b6020840193505b828410156106275760e08488031215613262575f5ffd5b61326a613140565b61327385613198565b81526020858101359082015261328b604086016131b3565b6040820152606085013561329e81612d72565b606082015260808501356132b181612d72565b608082015260a08501356132c481612d72565b60a082015260c08501356132d781612d72565b60c0820152825260e0939093019260209091019061324b565b5f5f60208385031215613301575f5ffd5b82356001600160401b03811115613316575f5ffd5b61332285828601612dbd565b90969095509350505050565b5f5f5f60608486031215613340575f5ffd5b833561334b81612d72565b9250602084013561335b81612d72565b9150613369604085016131b3565b90509250925092565b5f5f5f5f5f60608688031215613386575f5ffd5b853561339181612d72565b945060208601356001600160401b038111156133ab575f5ffd5b6133b788828901612dbd565b90955093505060408601356001600160401b038111156133d5575f5ffd5b6133e188828901612dbd565b969995985093965092949392505050565b602080825260129082015271494e56414c49445f544f5f4144445245535360701b604082015260600190565b634e487b7160e01b5f52603260045260245ffd5b634e487b7160e01b5f52601160045260245ffd5b808201808211156105e2576105e2613432565b60208082526015908201527427a7262cafa2a6a4a9a9a4a7a72fa6a0a720a3a2a960591b604082015260600190565b5f60208284031215613498575f5ffd5b5051919050565b6001815b60018411156109d2578085048111156134be576134be613432565b60018416156134cc57908102905b60019390931c9280026134a3565b5f826134e8575060016105e2565b816134f457505f6105e2565b816001811461350a576002811461351457613530565b60019150506105e2565b60ff84111561352557613525613432565b50506001821b6105e2565b5060208310610133831016604e8410600b8410161715613553575081810a6105e2565b61355f5f19848461349f565b805f190482111561357257613572613432565b029392505050565b5f612e8660ff8416836134da565b5f612e8683836134da565b5f602082840312156135a3575f5ffd5b612e8682613198565b818103818111156105e2576105e2613432565b5f5f604083850312156135d0575f5ffd5b505080516020909101519092909150565b80820281158282048414176105e2576105e2613432565b5f60208284031215613608575f5ffd5b815160ff81168114612e86575f5ffd5b5f6001600160801b0382166001600160801b03810361363957613639613432565b60010192915050565b5f60208284031215613652575f5ffd5b81518015158114612e86575f5ffd5b6001600160801b0381811683821601908111156105e2576105e261343256fea164736f6c634300081b000a","linkReferences":{}},"methodIdentifiers":{"EMISSION_MANAGER()":"cbcbb507","REVISION()":"dde43cba","claimAllRewards(address[],address)":"bb492bf5","claimAllRewardsOnBehalf(address[],address,address)":"9ff55db9","claimAllRewardsToSelf(address[])":"bf90f63a","claimRewards(address[],uint256,address,address)":"236300dc","claimRewardsOnBehalf(address[],uint256,address,address,address)":"33028b99","claimRewardsToSelf(address[],uint256,address)":"57b89883","configureAssets((uint88,uint256,uint32,address,address,address,address)[])":"955c2ad7","getAllUserRewards(address[],address)":"4c0369c3","getAssetDecimals(address)":"9efd6f72","getAssetIndex(address,address)":"886fe70b","getClaimer(address)":"74d945ec","getDistributionEnd(address,address)":"1b839c77","getEmissionManager()":"92074b08","getRewardOracle(address)":"2a17bf60","getRewardsByAsset(address)":"6657732f","getRewardsData(address,address)":"7eff4ba8","getRewardsList()":"b45ac1a9","getTransferStrategy(address)":"5f130b24","getUserAccruedRewards(address,address)":"b022418c","getUserAssetIndex(address,address,address)":"533f542a","getUserRewards(address[],address,address)":"70674ab9","handleAction(address,uint256,uint256)":"31873e2e","initialize(address)":"c4d66de8","setClaimer(address,address)":"f5cf673b","setDistributionEnd(address,address,uint32)":"c5a7b538","setEmissionPerSecond(address,address[],uint88[])":"f996868b","setRewardOracle(address,address)":"5453ba10","setTransferStrategy(address,address)":"e15ac623"},"id":263}