{"abi":[{"type":"constructor","inputs":[],"stateMutability":"nonpayable"},{"type":"function","name":"getLibrariesReport","inputs":[],"outputs":[{"name":"","type":"tuple","internalType":"struct LibrariesReport","components":[{"name":"borrowLogic","type":"address","internalType":"address"},{"name":"configuratorLogic","type":"address","internalType":"address"},{"name":"eModeLogic","type":"address","internalType":"address"},{"name":"flashLoanLogic","type":"address","internalType":"address"},{"name":"liquidationLogic","type":"address","internalType":"address"},{"name":"poolLogic","type":"address","internalType":"address"},{"name":"supplyLogic","type":"address","internalType":"address"}]}],"stateMutability":"view"}],"bytecode":{"object":"0x608060405234801561000f575f5ffd5b506100186100b3565b80515f80546001600160a01b03199081166001600160a01b0393841617909155602083015160018054831691841691909117905560408301516002805483169184169190911790556060830151600380548316918416919091179055608083015160048054831691841691909117905560a083015160058054831691841691909117905560c0909201516006805490931691161790556104bd565b6040805160e0810182525f80825260208201819052918101829052606081018290526080810182905260a0810182905260c08101919091526040517f689217c1373873bb79a9fac7d9ef8e087de78e5547e2ef7976137de6e359e04c9061013a90829061012260208201610407565b601f1982820381018352601f90910116604052610193565b6001600160a01b0316825260405161015a90829061012260208201610414565b6001600160a01b031660208084019190915260405161018191839190610122908201610421565b6001600160a01b031660408301525090565b5f73914d7fec6aac8cd542e72bca78b30650d45643d73b151581036101ff5760405162461bcd60e51b815260206004820152601760248201527f4d495353494e475f435245415445325f464143544f525900000000000000000060448201526064015b60405180910390fd5b5f61020a848461033f565b90506001600160a01b0381163b15610223579050610339565b5f848460405160200161023792919061045b565b6040516020818303038152906040529050606073914d7fec6aac8cd542e72bca78b30650d45643d76001600160a01b0316826040516102769190610474565b5f604051808303815f865af19150503d805f81146102af576040519150601f19603f3d011682016040523d82523d5f602084013e6102b4565b606091505b5091505f90506102c38261047f565b60601c90506001600160a01b038416811461032e5760405162461bcd60e51b815260206004820152602560248201527f6661696c7572652061742063726561746532206164647265737320646572697660448201526430ba34b7b760d91b60648201526084016101f6565b935061033992505050565b92915050565b5f61037683836040516020016103559190610474565b6040516020818303038152906040528051906020012061037d60201b60201c565b9392505050565b6040517fff0000000000000000000000000000000000000000000000000000000000000060208201527f914d7fec6aac8cd542e72bca78b30650d45643d7000000000000000000000000602182015260358101839052605581018290525f90610376906075016040516020818303038152906040528051906020012061040460201b60201c565b90565b612bdb8061060b83390190565b6115bd806131e683390190565b610c8f806147a383390190565b5f81515f5b8181101561044d5760208185018101518683015201610433565b505f93019283525090919050565b8281525f61046c602083018461042e565b949350505050565b5f610376828461042e565b805160208201516001600160601b03198116919060148210156104b6576001600160601b0319601483900360031b81901b82161692505b5050919050565b610141806104ca5f395ff3fe608060405234801561000f575f5ffd5b5060043610610029575f3560e01c8063c3d5cff51461002d575b5f5ffd5b6100c46040805160e0810182525f80825260208201819052918101829052606081018290526080810182905260a0810182905260c0810191909152506040805160e0810182525f546001600160a01b039081168252600154811660208301526002548116928201929092526003548216606082015260045482166080820152600554821660a082015260065490911660c082015290565b60405161012b919081516001600160a01b03908116825260208084015182169083015260408084015182169083015260608084015182169083015260808084015182169083015260a08084015182169083015260c092830151169181019190915260e00190565b60405180910390f3fea164736f6c634300081b000a612ba7610034600b8282823980515f1a607314602857634e487b7160e01b5f525f60045260245ffd5b305f52607381538281f3fe730000000000000000000000000000000000000000301460806040526004361061003f575f3560e01c80631e6473f91461004357806338ca4d8a14610064575b5f5ffd5b81801561004e575f5ffd5b5061006261005d3660046126ed565b610095565b005b81801561006f575f5ffd5b5061008361007e366004612800565b6103e7565b60405190815260200160405180910390f35b80516001600160a01b03165f908152602086905260408120906100b7826108aa565b90506100c382826109cd565b5f6100df8260a001518560800151610a3290919063ffffffff16565b90506101928888886040518061012001604052808781526020018a6040518060200160405290815f820154815250508152602001895f01516001600160a01b0316815260200189604001516001600160a01b031681526020018681526020018960a001516002811115610154576101546128ed565b81526020018961010001516001600160a01b0316815260200189610120015160ff1681526020018961014001516001600160a01b0316815250610a46565b6101608201516020850151604080870151608088015160a08701519251639ceeaca760e01b81526001600160a01b03948516600482015291841660248301526044820152606481018590526084810191909152911690639ceeaca79060a4016020604051808303815f875af115801561020d573d5f5f3e3d5ffd5b505050506040513d601f19601f820116820180604052508101906102319190612901565b602083810191909152600384015460408051928301905286548252600160a81b900461ffff16906102629082610eea565b610276576102768661ffff83166001610f1b565b610287898988868960800151610f61565b6102b583865f01515f8860e0015161029f575f6102a5565b88608001515b60608a015189949392919061104e565b8460e001511561032e5761014083015160208601516080870151604051634efecaa560e01b81526001600160a01b0392831660048201526024810191909152911690634efecaa5906044015f604051808303815f87803b158015610317575f5ffd5b505af1158015610329573d5f5f3e3d5ffd5b505050505b60408051602081018252875481529086015161012087015161010088015161035b938d938d938d93611301565b8460c0015161ffff1685604001516001600160a01b0316865f01516001600160a01b03167fb3d084820fb1a9decffb176436bd02558d15fac9b0ddfed8c465bc7359d7dce08860200151896080015160028a60020160109054906101000a90046001600160801b03166040516103d49493929190612918565b60405180910390a4505050505050505050565b80516001600160a01b03165f90815260208690526040812081610409826108aa565b905061041582826109cd565b61016081015160a0850151604051630ed1279f60e11b81526001600160a01b0391821660048201525f929190911690631da24f3e90602401602060405180830381865afa158015610468573d5f5f3e3d5ffd5b505050506040513d601f19601f8201168201806040525081019061048c9190612901565b90505f6104a68360a00151836113d090919063ffffffff16565b90506104c6866020015184886060015189608001518a60a00151876113db565b606086015160c087015180156104e057505f198760600151145b1561056e5760608401516101408501516020890151604051630ed1279f60e11b81526001600160a01b03918216600482015261056b93929190911690631da24f3e906024015b602060405180830381865afa158015610541573d5f5f3e3d5ffd5b505050506040513d601f19601f820116820180604052508101906105659190612901565b906114e1565b90505b818111156105795750805b5f8461016001516001600160a01b031663f5298aca8960a001516105aa8860a00151866114ec90919063ffffffff16565b60a08901516040516001600160e01b031960e086901b1681526001600160a01b0390931660048401526024830191909152604482015260640160408051808303815f875af11580156105fe573d5f5f3e3d5ffd5b505050506040513d601f19601f820116820180604052508101906106229190612969565b6020870152885160c08a0151919250610655918791906106425784610644565b5f5b60408c01518a939291905f9061104e565b8015610677576003860154610677908a90600160a81b900461ffff165f610f1b565b6106848c8c8b88866114f7565b8760c0015115610807575f8561014001516001600160a01b031663b18d6afd8a60200151886101400151866106c68b6060015189610a3290919063ffffffff16565b60608c01516040516001600160e01b031960e088901b1681526001600160a01b03958616600482015294909316602485015260448401919091526064830152608482015260a4016020604051808303815f875af1158015610729573d5f5f3e3d5ffd5b505050506040513d601f19601f8201168201806040525081019061074d9190612995565b600388015460408051602081019091528c5481529192506107799190600160a81b900461ffff16611535565b156108015780156107a9576003870154895160208b01516107a9928d92600160a81b90910461ffff16915f611568565b60408051602081019091528a54908190525f516020612b7b5f395f51905f521615610801576107fe8d8d8d8d6040518060200160405290815f820154815250508d602001518e61010001518f60e00151611621565b50505b5061082a565b6020880151610140860151895161082a926001600160a01b0390911691856116a7565b87602001516001600160a01b03168860a001516001600160a01b0316895f01516001600160a01b03167fa534c8dbe71f871f9f3530e97a74601fea17b426cae02e1c5aee42c96c784051858c60c001516040516108939291909182521515602082015260400190565b60405180910390a4509a9950505050505050505050565b6108b26125b1565b6108ba6125b1565b6040805160208101825284548152610120830181905251901c61ffff1661010082015260018301546001600160801b0380821660608401819052604080850191909152600286015480831660a086018190526080860152600160801b93849004831660c086015283900490911660e08401526004808601546001600160a01b03908116610140860152600687015416610160850181905260038701549390930464ffffffffff16610180850152815163b1bf962d60e01b8152915163b1bf962d9280830192602092918290030181865afa15801561099a573d5f5f3e3d5ffd5b505050506040513d601f19601f820116820180604052508101906109be9190612901565b60208201819052815292915050565b4264ffffffffff1681610180015164ffffffffff16036109eb575050565b6109f58282611744565b6109ff828261181b565b6003909101805464ffffffffff4216600160801b810264ffffffffff60801b199092169190911790915561018090910152565b5f610a3d83836118d3565b90505b92915050565b80608001515f03610a6a5760405163162908e360e11b815260040160405180910390fd5b610ae1604051806101c001604052805f81526020015f81526020015f81526020015f81526020015f81526020015f81526020015f81526020015f81526020015f6001600160a01b031681526020015f151581526020015f151581526020015f151581526020015f151581526020015f151581525090565b815160a001516080830151610af5916113d0565b8152815161012090810151516001603c1b811615156101608401526704000000000000008116151561018084015267020000000000000081161515610140840152600160381b161515908201819052610b61576040516324335bc960e21b815260040160405180910390fd5b80610160015115610b85576040516334dfd7c760e21b815260040160405180910390fd5b80610140015115610ba957604051636d30581560e01b815260040160405180910390fd5b806101800151610bcc57604051635358774560e01b815260040160405180910390fd5b805f0151825f015161014001516001600160a01b03166318160ddd6040518163ffffffff1660e01b8152600401602060405180830381865afa158015610c14573d5f5f3e3d5ffd5b505050506040513d601f19601f82011682018060405250810190610c389190612901565b1015610c575760405163162908e360e11b815260040160405180910390fd5b6101008201516001600160a01b03161580610cd257508161010001516001600160a01b03166349aa2e816040518163ffffffff1660e01b8152600401602060405180830381865afa158015610cae573d5f5f3e3d5ffd5b505050506040513d601f19601f82011682018060405250810190610cd29190612995565b610cef57604051639103700960e01b815260040160405180910390fd5b60028260a001516002811115610d0757610d076128ed565b14610d2557604051630be2d3c760e11b815260040160405180910390fd5b815161012001515160301c60ff166080820152815161012001515160501c640fffffffff1660a082018190526080820151600a0a60e083015215610db557815160a081015160808401519151610d8492610d7e916129c4565b906113d0565b6060820181905260e082015160a0830151021015610db557604051633bd3544b60e11b815260040160405180910390fd5b60e082015160ff1615610e315760e082015160ff165f9081526020848152604080832060020154818601516001600160a01b031684529188905290912060030154610e14916001600160801b031690600160a81b900461ffff16611915565b610e3157604051632bedaddd60e11b815260040160405180910390fd5b6020820151515f516020612b7b5f395f51905f521615610ee3576020820151610e5b90868661194e565b6001600160a01b03166101008301521580156101a0830152610eb75781604001516001600160a01b03168161010001516001600160a01b031614610eb25760405163613fcd5f60e11b815260040160405180910390fd5b610ee3565b81516101200151516001603e1b1615610ee35760405163613fcd5f60e11b815260040160405180910390fd5b5050505050565b5f60808210610f0c576040516385e98beb60e01b815260040160405180910390fd5b509051600191821b1c16151590565b60808210610f3c576040516385e98beb60e01b815260040160405180910390fd5b600182811b1b8115610f5357835481178455610f5b565b835481191684555b50505050565b6040805160208101909152835481525f9081908190610f819089896119d2565b9250925092508215611044576101208501515167200000000000000016610fbb576040516330d1eeb960e01b815260040160405180910390fd5b5f610fc68686611a78565b6001600160a01b0384165f90815260208b90526040902060090154610ff491906001600160801b03166129d7565b905081816001600160801b03161115611020576040516371239a6160e11b815260040160405180910390fd5b6001600160a01b0383165f90815260208a905260409020611042908483611aad565b505b5050505050505050565b5f61106a8660a0015187602001516113d090919063ffffffff16565b60408051610100808201835260038b01546001600160801b0390811683526020830189905282840188905260608301859052908a015160808301526001600160a01b0389811660a0840152600160c084015260088c0154600160801b900490911660e0830152915163b90db31b60e01b81529293505f92839286169163b90db31b916111539190600401815181526020808301519082015260408083015190820152606080830151908201526080808301519082015260a0808301516001600160a01b03169082015260c08083015115159082015260e091820151918101919091526101000190565b6040805180830381865afa15801561116d573d5f5f3e3d5ffd5b505050506040513d601f19601f8201168201806040525081019061119191906129f6565b9150915061119e82611b10565b60018a0180546001600160801b03928316600160801b0292169190911790556111c681611b10565b60028a0180546001600160801b03928316600160801b029216919091179055851561123d576111f486611b10565b60088a018054601090611218908490600160801b90046001600160801b03166129d7565b92506101000a8154816001600160801b0302191690836001600160801b031602179055505b84156112955761124c85611b10565b60088a018054601090611270908490600160801b90046001600160801b0316612a18565b92506101000a8154816001600160801b0302191690836001600160801b031602179055505b60608881015160a0808b0151604080518781525f602082015280820187905294850193909352608084015290516001600160a01b038a16927f804c9b842b2748a22bb64b345453a3de7ca54a6ca45ce00d415894979e22897a92908290030190a2505050505050505050565b5f5f5f5f6113468b8b8b60405180608001604052808d81526020018c6001600160a01b031681526020018a6001600160a01b031681526020018b60ff16815250611b47565b50945050935093509350815f0361137057604051635b263df760e01b815260040160405180910390fd5b670de0b6b3a764000081101561139957604051636679996d60e01b815260040160405180910390fd5b6113a38383611ff1565b8410156113c35760405163911ceb8160e01b815260040160405180910390fd5b5050505050505050505050565b5f610a3d8383612034565b835f036113fb5760405163162908e360e11b815260040160405180910390fd5b600283600281111561140f5761140f6128ed565b1461142d57604051630be2d3c760e11b815260040160405180910390fd5b5f198414158061144e5750816001600160a01b0316866001600160a01b0316145b61146b5760405163cd3779c360e01b815260040160405180910390fd5b61012085015151600160381b81161515906001603c1b161515816114a2576040516324335bc960e21b815260040160405180910390fd5b80156114c1576040516334dfd7c760e21b815260040160405180910390fd5b825f036110445760405163783c47d960e11b815260040160405180910390fd5b5f610a3d8383612062565b5f610a3d8383612088565b6040805160208101909152835481525f9081906115159088886119d2565b5091509150811561152c5761152c878585846120c2565b50505050505050565b5f60808210611557576040516385e98beb60e01b815260040160405180910390fd5b509051600191821b82011c16151590565b60808410611589576040516385e98beb60e01b815260040160405180910390fd5b600184811b81011b81156115d9578554811786556040516001600160a01b0380851691908616907e058a56ea94653cdf4f152d227ace22d4c00ad99e2a43f58cb7d9e3feb295f2905f90a3611619565b855481191686556040516001600160a01b0380851691908616907f44c58d81365b66dd4b1a7f36c25aa97b8c71c361ee4937adc1a00000227db5dd905f90a35b505050505050565b5f5f5f5f6116668b8b8b60405180608001604052808d81526020018c6001600160a01b031681526020018a6001600160a01b031681526020018b60ff16815250611b47565b9550955050505050670de0b6b3a764000082101561169757604051636679996d60e01b815260040160405180910390fd5b909a909950975050505050505050565b6040516323b872dd60e01b8082526001600160a01b0385811660048401528416602483015260448201839052905f80606483828a5af16116e9573d5f5f3e3d5ffd5b506116f385612142565b610ee35760405162461bcd60e51b815260206004820152601960248201527f475076323a206661696c6564207472616e7366657246726f6d0000000000000060448201526064015b60405180910390fd5b60c0810151156117af575f6117628260c001518361018001516121e5565b905061177b82604001518261222890919063ffffffff16565b6060830181905261178b90611b10565b6001840180546001600160801b0319166001600160801b0392909216919091179055505b805115611817575f6117ca8260e00151836101800151612269565b90506117e382608001518261222890919063ffffffff16565b60a083018190526117f390611b10565b6002840180546001600160801b0319166001600160801b0392909216919091179055505b5050565b8061010001515f0361182b575050565b5f61184b82608001518360a001516118439190612a37565b835190612062565b90505f6118668361010001518361227590919063ffffffff16565b90508015610f5b5761188d6118888460600151836114ec90919063ffffffff16565b611b10565b6008850180545f906118a99084906001600160801b03166129d7565b92506101000a8154816001600160801b0302191690836001600160801b0316021790555050505050565b5f8115744f3a68dbc8f03f243baf513267aa9a3ee524f8e028841117156118f8575f5ffd5b50676765c793fa10079d601b1b9190910281810491900615150190565b5f60808210611937576040516385e98beb60e01b815260040160405180910390fd5b506001600160801b0391909116901c600116151590565b5f5f61195985612299565b156119c4575f611976865f516020612b7b5f395f51905f526122cc565b5f81815260208681526040808320546001600160a01b03168084528983529281902081519283019091525490819052919250906001603e1b16156119c1576001935091506119ca9050565b50505b505f9050805b935093915050565b5f5f5f6119de866122f9565b15611a66575f611a0e877faaaaaaaaaaaaaaaaaaaaaaaaaaaaaaaaaaaaaaaaaaaaaaaaaaaaaaaaaaaaaaaa6122cc565b5f81815260208781526040808320546001600160a01b03168084528a8352818420825193840190925290549182905292935060d41c64ffffffffff1690508015611a6257600195509093509150611a6f9050565b5050505b505f9150819050805b93509350939050565b610120820151515f90610a3d9060029060301c60ff16611a989190612a37565b611aa390600a612b25565b6118889084612b44565b6009830180546001600160801b0319166001600160801b0383169081179091556040519081526001600160a01b038316907faef84d3b40895fd58c561f3998000f0583abb992a52fbdc99ace8e8de4d676a59060200160405180910390a2505050565b5f6001600160801b03821115611b43576040516306dfcc6560e41b8152608060048201526024810183905260440161173b565b5090565b5f5f5f5f5f5f611b59875f0151511590565b15611b7557505f94508493508392508291505f19905081611fe4565b611c076040518061024001604052805f81526020015f81526020015f81526020015f81526020015f81526020015f81526020015f81526020015f81526020015f81526020015f81526020015f81526020015f81526020015f81526020015f81526020015f6001600160801b031681526020015f6001600160a01b031681526020015f151581526020015f151581525090565b606088015160ff1615611c7b5760608801805160ff9081165f90815260208c815260408083205461ffff9081166101808801528551851684528e835281842054620100009004166101a087015293519092168152908b90522054660100000000000090046001600160801b03166101c08201525b8751515f805b8215611f07575050600281811c9160018082161491908116148080611ca35750815b15611ef75760c08401515f90815260208e905260409020546001600160a01b03166101e0850181905215611ef7576101e08401516001600160a01b03165f90815260208f815260409182902082518083018452815490819052909261ffff80831693601084901c8216939081901c82169260ff603083901c169291905050506060890181905260a0890192909252506080870191909152600a0a602086015260408c8101516101e0870151915163b3596f0760e01b81526001600160a01b03928316600482015291169063b3596f0790602401602060405180830381865afa158015611d91573d5f5f3e3d5ffd5b505050506040513d601f19601f82011682018060405250810190611db59190612901565b855260a085015115801590611dc75750815b15611ec257611de38c6020015182875f01518860200151612334565b6040860181905261010086018051611dfc9083906129c4565b90525060608c015160ff1615801590611e235750611e23856101c001518660c00151611915565b1515610220860152608085015115611e7957846102200151611e49578460800151611e50565b8461018001515b8560400151611e5f9190612b63565b8561014001818151611e7191906129c4565b905250611e82565b60016102008601525b846102200151611e96578460a00151611e9d565b846101a001515b8560400151611eac9190612b63565b8561016001818151611ebe91906129c4565b9052505b8215611ef557611edf8c6020015182875f0151886020015161239f565b8561012001818151611ef191906129c4565b9052505b505b60c0840180516001019052611c81565b61012084015115611f4157612710611f3285610120015186610160015161243290919063ffffffff16565b611f3c9190612b44565b611f44565b5f195b60e08501526101008401515f03611f5b575f611f76565b83610100015184610140015181611f7457611f74612b30565b045b6101408501526101008401515f03611f8e575f611fa9565b83610100015184610160015181611fa757611fa7612b30565b045b610160850181905261010085015161012086015161014087015160e088015161020090980151929d50909b5099509097509395509293505050505b9499939850945094509450565b5f81157e068db8bac710cb295e9e1b089a027525460aa64c2f837b4a2339c0ebedfa4384111715612020575f5ffd5b506127109190910281810491900615150190565b5f815f1904831115821517612047575f5ffd5b50676765c793fa10079d601b1b910281810491900615150190565b5f815f1904831115821517612075575f5ffd5b50676765c793fa10079d601b1b91020490565b5f8115744f3a68dbc8f03f243baf513267aa9a3ee524f8e028841117156120ad575f5ffd5b50676765c793fa10079d601b1b919091020490565b6001600160a01b0381165f908152602085905260408120600901546001600160801b0316906120f18585611a78565b90505f816001600160801b0316836001600160801b031611612113575f61211d565b61211d8284612a18565b6001600160a01b0385165f90815260208990526040902090915061152c908583611aad565b5f612164565b62461bcd60e51b5f52602060045280602452508060445260645ffd5b3d80156121a357602081146121d45761219e7f475076323a206d616c666f726d6564207472616e7366657220726573756c7400601f612148565b6121df565b823b6121cb576121cb7311d41d8c8e881b9bdd08184818dbdb9d1c9858dd60621b6014612148565b600191506121df565b3d5f5f3e5f51151591505b50919050565b5f806121f864ffffffffff841642612a37565b6122029085612b63565b6301e133809004905061222081676765c793fa10079d601b1b6129c4565b949350505050565b5f81156b019d971e4fe8401e740000001983900484111517612248575f5ffd5b50676765c793fa10079d601b1b91026b019d971e4fe8401e74000000010490565b5f610a3d838342612467565b5f8115611388198390048411151761228b575f5ffd5b506127109102611388010490565b80515f905f516020612b7b5f395f51905f521680158015906122c557506122c1600182612a37565b8116155b9392505050565b81515f9082165f198101198116825b60029190911c9081156122f0576001016122db565b95945050505050565b80515f907faaaaaaaaaaaaaaaaaaaaaaaaaaaaaaaaaaaaaaaaaaaaaaaaaaaaaaaaaaaaaaaa1680158015906122c557506122c1600182612a37565b5f5f83612379612343876124d4565b600488810154604051630ed1279f60e11b81526001600160a01b038c811693820193909352911690631da24f3e90602401610526565b6123839190612b63565b905082818161239457612394612b30565b049695505050505050565b5f5f61241b6123ad86612530565b6006870154604051630ed1279f60e11b81526001600160a01b038a8116600483015290911690631da24f3e90602401602060405180830381865afa1580156123f7573d5f5f3e3d5ffd5b505050506040513d601f19601f82011682018060405250810190610d7e9190612901565b9050612428818585612586565b9695505050505050565b5f8115670de0b6b3a764000060028404190484111715612450575f5ffd5b50670de0b6b3a76400009190910260028204010490565b5f8061247a64ffffffffff851684612a37565b9050805f0361249757676765c793fa10079d601b1b9150506122c5565b6301e13380818602046124bc6124b08260068104612228565b82906002820401612228565b01676765c793fa10079d601b1b019150509392505050565b60038101545f90600160801b900464ffffffffff16428103612502575050600101546001600160801b031690565b60018301546122c5906001600160801b038082169161252a91600160801b90910416846121e5565b90612228565b60038101545f90600160801b900464ffffffffff1642810361255e575050600201546001600160801b031690565b60028301546122c5906001600160801b038082169161252a91600160801b9091041684612269565b5f81612590575f5ffd5b825f19048411158315176125a2575f5ffd5b50910281810491900615150190565b604051806101a001604052805f81526020015f81526020015f81526020015f81526020015f81526020015f81526020015f81526020015f81526020015f815260200161260860405180602001604052805f81525090565b81525f602082018190526040820181905260609091015290565b604051610160810167ffffffffffffffff8111828210171561265257634e487b7160e01b5f52604160045260245ffd5b60405290565b604051610120810167ffffffffffffffff8111828210171561265257634e487b7160e01b5f52604160045260245ffd5b80356001600160a01b038116811461269e575f5ffd5b919050565b80356003811061269e575f5ffd5b803561ffff8116811461269e575f5ffd5b80151581146126cf575f5ffd5b50565b803561269e816126c2565b803560ff8116811461269e575f5ffd5b5f5f5f5f5f8587036101e0811215612703575f5ffd5b86359550602087013594506040870135935060608701359250610160607f198201121561272e575f5ffd5b50612737612622565b61274360808801612688565b815261275160a08801612688565b602082015261276260c08801612688565b604082015261277360e08801612688565b6060820152610100870135608082015261279061012088016126a3565b60a08201526127a261014088016126b1565b60c08201526127b461016088016126d2565b60e08201526127c66101808801612688565b6101008201526127d96101a088016126dd565b6101208201526127ec6101c08801612688565b610140820152809150509295509295909350565b5f5f5f5f5f8587036101a0811215612816575f5ffd5b86359550602087013594506040870135935060608701359250610120607f1982011215612841575f5ffd5b5061284a612658565b61285660808801612688565b815261286460a08801612688565b602082015261287560c08801612688565b604082015260e0870135606082015261289161010088016126a3565b60808201526128a36101208801612688565b60a08201526128b561014088016126d2565b60c08201526128c76101608801612688565b60e08201526128d961018088016126dd565b610100820152809150509295509295909350565b634e487b7160e01b5f52602160045260245ffd5b5f60208284031215612911575f5ffd5b5051919050565b6001600160a01b038516815260208101849052608081016003841061294b57634e487b7160e01b5f52602160045260245ffd5b8360408301526001600160801b038316606083015295945050505050565b5f5f6040838503121561297a575f5ffd5b8251612985816126c2565b6020939093015192949293505050565b5f602082840312156129a5575f5ffd5b81516122c5816126c2565b634e487b7160e01b5f52601160045260245ffd5b80820180821115610a4057610a406129b0565b6001600160801b038181168382160190811115610a4057610a406129b0565b5f5f60408385031215612a07575f5ffd5b505080516020909101519092909150565b6001600160801b038281168282160390811115610a4057610a406129b0565b81810381811115610a4057610a406129b0565b6001815b60018411156119ca57808504811115612a6957612a696129b0565b6001841615612a7757908102905b60019390931c928002612a4e565b5f82612a9357506001610a40565b81612a9f57505f610a40565b8160018114612ab55760028114612abf57612adb565b6001915050610a40565b60ff841115612ad057612ad06129b0565b50506001821b610a40565b5060208310610133831016604e8410600b8410161715612afe575081810a610a40565b612b0a5f198484612a4a565b805f1904821115612b1d57612b1d6129b0565b029392505050565b5f610a3d8383612a85565b634e487b7160e01b5f52601260045260245ffd5b5f82612b5e57634e487b7160e01b5f52601260045260245ffd5b500490565b8082028115828204841417610a4057610a406129b056fe5555555555555555555555555555555555555555555555555555555555555555a164736f6c634300081b000a611589610034600b8282823980515f1a607314602857634e487b7160e01b5f525f60045260245ffd5b305f52607381538281f3fe730000000000000000000000000000000000000000301460806040526004361061004a575f3560e01c8063b0f093551461004e578063b13c96a81461006f578063df59b8b21461008e575b5f5ffd5b818015610059575f5ffd5b5061006d610068366004610aa9565b6100ad565b005b81801561007a575f5ffd5b5061006d610089366004610aa9565b6102d0565b818015610099575f5ffd5b5061006d6100a8366004610af6565b61047d565b5f6001600160a01b03831663365090a06100ca6020850185610b4a565b6040516001600160e01b031960e084901b1681526001600160a01b039091166004820152602401602060405180830381865afa15801561010c573d5f5f3e3d5ffd5b505050506040513d601f19601f820116820180604052508101906101309190610b6c565b90505f6101c26001600160a01b03851663c44b11f76101526020870187610b4a565b6040516001600160e01b031960e084901b1681526001600160a01b039091166004820152602401602060405180830381865afa158015610194573d5f5f3e3d5ffd5b505050506040513d601f19601f820116820180604052508101906101b89190610b87565b5160301c60ff1690565b90505f637fdd585f60e01b856101db6020870187610b4a565b846101e96020890189610bd5565b6101f660408b018b610bd5565b61020360808d018d610bd5565b60405160240161021b99989796959493929190610c47565b60408051601f198184030181529190526020810180516001600160e01b03166001600160e01b0319909316929092179091529050610269836102636080870160608801610b4a565b836108ad565b6102796080850160608601610b4a565b6001600160a01b039081169084166102946020870187610b4a565b6001600160a01b03167f9439658a562a5c46b1173589df89cf001483d685bad28aedaff4a88656292d8160405160405180910390a45050505050565b5f6001600160a01b03831663cff027d96102ed6020850185610b4a565b6040516001600160e01b031960e084901b1681526001600160a01b039091166004820152602401602060405180830381865afa15801561032f573d5f5f3e3d5ffd5b505050506040513d601f19601f820116820180604052508101906103539190610b6c565b90505f6103756001600160a01b03851663c44b11f76101526020870187610b4a565b90505f637fdd585f60e01b8561038e6020870187610b4a565b8461039c6020890189610bd5565b6103a960408b018b610bd5565b6103b660808d018d610bd5565b6040516024016103ce99989796959493929190610c47565b60408051601f198184030181529190526020810180516001600160e01b03166001600160e01b0319909316929092179091529050610416836102636080870160608801610b4a565b6104266080850160608601610b4a565b6001600160a01b039081169084166104416020870187610b4a565b6001600160a01b03167fa76f65411ec66a7fb6bc467432eb14767900449ae4469fa295e4441fe5e1cb7360405160405180910390a45050505050565b5f61048e6060830160408401610b4a565b6001600160a01b031663313ce5676040518163ffffffff1660e01b8152600401602060405180830381865afa1580156104c9573d5f5f3e3d5ffd5b505050506040513d601f19601f820116820180604052508101906104ed9190610cb2565b905060058160ff161161051357604051630692acc560e51b815260040160405180910390fd5b5f6105b46105246020850185610b4a565b637fdd585f60e01b8661053d6060880160408901610b4a565b8661054b60608a018a610bd5565b61055860808c018c610bd5565b61056560e08e018e610bd5565b60405160240161057d99989796959493929190610cd2565b60408051601f198184030181529190526020810180516001600160e01b03166001600160e01b031990931692909217909152610910565b90505f61060b6105ca6040860160208701610b4a565b637fdd585f60e01b876105e36060890160408a01610b4a565b876105f160a08b018b610bd5565b6105fe60c08d018d610bd5565b61056560e08f018f610bd5565b90506001600160a01b03851663932f12c861062c6060870160408801610b4a565b6040516001600160e01b031960e084901b1681526001600160a01b039182166004820152818616602482015290841660448201526064015f604051808303815f87803b15801561067a575f5ffd5b505af115801561068c573d5f5f3e3d5ffd5b505060408051602081019091525f815291506106ad90508160ff86166109af565b6106b88160016109e8565b6106c2815f610a15565b6106cc815f610a42565b6106e58180516001600f60fc1b0316600160fc1b179052565b6001600160a01b03861663f51e435b6107046060880160408901610b4a565b6040516001600160e01b031960e084901b1681526001600160a01b039091166004820152835160248201526044015f604051808303815f87803b158015610749575f5ffd5b505af115801561075b573d5f5f3e3d5ffd5b505050505f866001600160a01b0316631b8feb0e6040518163ffffffff1660e01b8152600401602060405180830381865afa15801561079c573d5f5f3e3d5ffd5b505050506040513d601f19601f820116820180604052508101906107c09190610b6c565b90506001600160a01b03811663a8d9e56f6107e16060890160408a01610b4a565b6107ef6101008a018a610bd5565b6040518463ffffffff1660e01b815260040161080d93929190610d07565b5f604051808303815f87803b158015610824575f5ffd5b505af1158015610836573d5f5f3e3d5ffd5b5050506001600160a01b03851690506108556060880160408901610b4a565b604080515f81526001600160a01b03878116602083015285811682840152915192909116917f3a0ca721fc364424566385a1aa271ed508cc2c0949c2272575fb3013a163a45f9181900360600190a350505050505050565b60405163278f794360e11b815283906001600160a01b03821690634f1ef286906108dd9086908690600401610d34565b5f604051808303815f87803b1580156108f4575f5ffd5b505af1158015610906573d5f5f3e3d5ffd5b5050505050505050565b5f5f3060405161091f90610a6f565b6001600160a01b039091168152602001604051809103905ff080158015610948573d5f5f3e3d5ffd5b5060405163347d5e2560e21b81529091506001600160a01b0382169063d1f578949061097a9087908790600401610d34565b5f604051808303815f87803b158015610991575f5ffd5b505af11580156109a3573d5f5f3e3d5ffd5b50929695505050505050565b60ff8111156109d157604051630692acc560e51b815260040160405180910390fd5b815166ff000000000000191660309190911b179052565b6038816109f5575f6109f8565b60015b8351670100000000000000191660ff9190911690911b1790915250565b603c81610a22575f610a25565b60015b8351671000000000000000191660ff9190911690911b1790915250565b603981610a4f575f610a52565b60015b8351670200000000000000191660ff9190911690911b1790915250565b6107ee80610d8f83390190565b6001600160a01b0381168114610a90575f5ffd5b50565b5f60a08284031215610aa3575f5ffd5b50919050565b5f5f60408385031215610aba575f5ffd5b8235610ac581610a7c565b9150602083013567ffffffffffffffff811115610ae0575f5ffd5b610aec85828601610a93565b9150509250929050565b5f5f60408385031215610b07575f5ffd5b8235610b1281610a7c565b9150602083013567ffffffffffffffff811115610b2d575f5ffd5b83016101208186031215610b3f575f5ffd5b809150509250929050565b5f60208284031215610b5a575f5ffd5b8135610b6581610a7c565b9392505050565b5f60208284031215610b7c575f5ffd5b8151610b6581610a7c565b5f6020828403128015610b98575f5ffd5b506040516020810167ffffffffffffffff81118282101715610bc857634e487b7160e01b5f52604160045260245ffd5b6040529151825250919050565b5f5f8335601e19843603018112610bea575f5ffd5b83018035915067ffffffffffffffff821115610c04575f5ffd5b602001915036819003821315610c18575f5ffd5b9250929050565b81835281816020850137505f828201602090810191909152601f909101601f19169091010190565b6001600160a01b038a81168252891660208201526040810188905260c0606082018190525f90610c7a908301888a610c1f565b8281036080840152610c8d818789610c1f565b905082810360a0840152610ca2818587610c1f565b9c9b505050505050505050505050565b5f60208284031215610cc2575f5ffd5b815160ff81168114610b65575f5ffd5b6001600160a01b038a811682528916602082015260ff8816604082015260c0606082018190525f90610c7a908301888a610c1f565b6001600160a01b03841681526040602082018190525f90610d2b9083018486610c1f565b95945050505050565b60018060a01b0383168152604060208201525f82518060408401525f5b81811015610d6e5760208186018101516060868401015201610d51565b505f606082850101526060601f19601f830116840101915050939250505056fe60a060405234801561000f575f5ffd5b506040516107ee3803806107ee83398101604081905261002e9161003f565b6001600160a01b031660805261006c565b5f6020828403121561004f575f5ffd5b81516001600160a01b0381168114610065575f5ffd5b9392505050565b6080516107476100a75f395f818161011e01528181610162015281816102140152818161034801528181610371015261048c01526107475ff3fe60806040526004361061004d575f3560e01c80633659cfe6146100645780634f1ef286146100835780635c60da1b14610096578063d1f57894146100c6578063f851a440146100d95761005c565b3661005c5761005a6100ed565b005b61005a6100ed565b34801561006f575f5ffd5b5061005a61007e366004610530565b610114565b61005a610091366004610550565b610158565b3480156100a1575f5ffd5b506100aa610209565b6040516001600160a01b03909116815260200160405180910390f35b61005a6100d43660046105e2565b610258565b3480156100e4575f5ffd5b506100aa61033d565b6100f5610393565b61011261010d5f51602061071b5f395f51905f525490565b61039b565b565b6001600160a01b037f00000000000000000000000000000000000000000000000000000000000000001633036101505761014d816103b9565b50565b61014d6100ed565b6001600160a01b037f00000000000000000000000000000000000000000000000000000000000000001633036101fc57610191836103b9565b5f836001600160a01b031683836040516101ac9291906106a6565b5f60405180830381855af49150503d805f81146101e4576040519150601f19603f3d011682016040523d82523d5f602084013e6101e9565b606091505b50509050806101f6575f5ffd5b50505050565b6102046100ed565b505050565b5f6001600160a01b037f000000000000000000000000000000000000000000000000000000000000000016330361024d57505f51602061071b5f395f51905f525490565b6102556100ed565b90565b5f61026e5f51602061071b5f395f51905f525490565b6001600160a01b031614610280575f5ffd5b6102ab60017f360894a13ba1a3210667c828492db98dca3e2076cc3735a920a3ca505d382bbd6106b5565b5f51602061071b5f395f51905f52146102c6576102c66106da565b6102cf826103f8565b805115610339575f826001600160a01b0316826040516102ef91906106ee565b5f60405180830381855af49150503d805f8114610327576040519150601f19603f3d011682016040523d82523d5f602084013e61032c565b606091505b5050905080610204575f5ffd5b5050565b5f6001600160a01b037f000000000000000000000000000000000000000000000000000000000000000016330361024d57507f000000000000000000000000000000000000000000000000000000000000000090565b610112610482565b365f5f375f5f365f845af43d5f5f3e8080156103b5573d5ff35b3d5ffd5b6103c2816103f8565b6040516001600160a01b038216907fbc7cd75a20ee27fd9adebab32041f755214dbc6bffa90cc0225b39da2e5c2d3b905f90a250565b803b6104715760405162461bcd60e51b815260206004820152603b60248201527f43616e6e6f742073657420612070726f787920696d706c656d656e746174696f60448201527f6e20746f2061206e6f6e2d636f6e74726163742061646472657373000000000060648201526084015b60405180910390fd5b5f51602061071b5f395f51905f5255565b6001600160a01b037f00000000000000000000000000000000000000000000000000000000000000001633036101125760405162461bcd60e51b815260206004820152603260248201527f43616e6e6f742063616c6c2066616c6c6261636b2066756e6374696f6e20667260448201527137b6903a343290383937bc3c9030b236b4b760711b6064820152608401610468565b80356001600160a01b038116811461052b575f5ffd5b919050565b5f60208284031215610540575f5ffd5b61054982610515565b9392505050565b5f5f5f60408486031215610562575f5ffd5b61056b84610515565b9250602084013567ffffffffffffffff811115610586575f5ffd5b8401601f81018613610596575f5ffd5b803567ffffffffffffffff8111156105ac575f5ffd5b8660208284010111156105bd575f5ffd5b939660209190910195509293505050565b634e487b7160e01b5f52604160045260245ffd5b5f5f604083850312156105f3575f5ffd5b6105fc83610515565b9150602083013567ffffffffffffffff811115610617575f5ffd5b8301601f81018513610627575f5ffd5b803567ffffffffffffffff811115610641576106416105ce565b604051601f8201601f19908116603f0116810167ffffffffffffffff81118282101715610670576106706105ce565b604052818152828201602001871015610687575f5ffd5b816020840160208301375f602083830101528093505050509250929050565b818382375f9101908152919050565b818103818111156106d457634e487b7160e01b5f52601160045260245ffd5b92915050565b634e487b7160e01b5f52600160045260245ffd5b5f82515f5b8181101561070d57602081860181015185830152016106f3565b505f92019182525091905056fe360894a13ba1a3210667c828492db98dca3e2076cc3735a920a3ca505d382bbca164736f6c634300081b000aa164736f6c634300081b000a610c5b610034600b8282823980515f1a607314602857634e487b7160e01b5f525f60045260245ffd5b305f52607381538281f3fe7300000000000000000000000000000000000000003014608060405260043610610034575f3560e01c80631eb87a9c14610038575b5f5ffd5b818015610043575f5ffd5b50610057610052366004610b3b565b610059565b005b6001600160a01b0383165f9081526020869052604090205460ff828116911614610120576040805160208101909152845481526100989087908361012a565b6001600160a01b0383165f9081526020868152604091829020805460ff191660ff85161790558151908101909152845481526100dc908990899089908786886101eb565b505060405160ff821681526001600160a01b038416907fd728da875fc88944cbf17638bcbe4af0eedaef63becd1d1c57cc097eb4608d849060200160405180910390a25b5050505050505050565b60ff81165f8181526020859052604090209015806101525750805462010000900461ffff1615155b61016f576040516360ec443960e11b815260040160405180910390fd5b825161017b5750505050565b60ff8216156101e557600281015483515f9182916001600160801b03909116905b801561012057600180821614925060021c82156101da576101bd8285610271565b6101da57604051632bedaddd60e11b815260040160405180910390fd5b83600101935061019c565b50505050565b5f5f5f5f6102308b8b8b60405180608001604052808d81526020018c6001600160a01b031681526020018a6001600160a01b031681526020018b60ff168152506102ac565b9550955050505050670de0b6b3a764000082101561026157604051636679996d60e01b815260040160405180910390fd5b909a909950975050505050505050565b5f60808210610293576040516385e98beb60e01b815260040160405180910390fd5b5060016001600160801b038316821c1615155b92915050565b5f5f5f5f5f5f6102be875f0151511590565b156102da57505f94508493508392508291505f19905081610749565b61036c6040518061024001604052805f81526020015f81526020015f81526020015f81526020015f81526020015f81526020015f81526020015f81526020015f81526020015f81526020015f81526020015f81526020015f81526020015f81526020015f6001600160801b031681526020015f6001600160a01b031681526020015f151581526020015f151581525090565b606088015160ff16156103e05760608801805160ff9081165f90815260208c815260408083205461ffff9081166101808801528551851684528e835281842054620100009004166101a087015293519092168152908b90522054660100000000000090046001600160801b03166101c08201525b8751515f805b821561066c575050600281811c91600180821614919081161480806104085750815b1561065c5760c08401515f90815260208e905260409020546001600160a01b03166101e085018190521561065c576101e08401516001600160a01b03165f90815260208f815260409182902082518083018452815490819052909261ffff80831693601084901c8216939081901c82169260ff603083901c169291905050506060890181905260a0890192909252506080870191909152600a0a602086015260408c8101516101e0870151915163b3596f0760e01b81526001600160a01b03928316600482015291169063b3596f0790602401602060405180830381865afa1580156104f6573d5f5f3e3d5ffd5b505050506040513d601f19601f8201168201806040525081019061051a9190610bb3565b855260a08501511580159061052c5750815b15610627576105488c6020015182875f01518860200151610756565b6040860181905261010086018051610561908390610bde565b90525060608c015160ff16158015906105885750610588856101c001518660c00151610271565b15156102208601526080850151156105de578461022001516105ae5784608001516105b5565b8461018001515b85604001516105c49190610bf1565b85610140018181516105d69190610bde565b9052506105e7565b60016102008601525b8461022001516105fb578460a00151610602565b846101a001515b85604001516106119190610bf1565b85610160018181516106239190610bde565b9052505b821561065a576106448c6020015182875f01518860200151610801565b85610120018181516106569190610bde565b9052505b505b60c08401805160010190526103e6565b610120840151156106a65761271061069785610120015186610160015161089a90919063ffffffff16565b6106a19190610c1c565b6106a9565b5f195b60e08501526101008401515f036106c0575f6106db565b836101000151846101400151816106d9576106d9610c08565b045b6101408501526101008401515f036106f3575f61070e565b8361010001518461016001518161070c5761070c610c08565b045b610160850181905261010085015161012086015161014087015160e088015161020090980151929d50909b5099509097509395509293505050505b9499939850945094509450565b5f5f836107db610765876108cf565b600488810154604051630ed1279f60e11b81526001600160a01b038c811693820193909352911690631da24f3e90602401602060405180830381865afa1580156107b1573d5f5f3e3d5ffd5b505050506040513d601f19601f820116820180604052508101906107d59190610bb3565b90610932565b6107e59190610bf1565b90508281816107f6576107f6610c08565b049695505050505050565b5f5f61088361080f8661093d565b6006870154604051630ed1279f60e11b81526001600160a01b038a8116600483015290911690631da24f3e90602401602060405180830381865afa158015610859573d5f5f3e3d5ffd5b505050506040513d601f19601f8201168201806040525081019061087d9190610bb3565b90610993565b905061089081858561099e565b9695505050505050565b5f8115670de0b6b3a7640000600284041904841117156108b8575f5ffd5b50670de0b6b3a76400009190910260028204010490565b60038101545f90600160801b900464ffffffffff164281036108fd575050600101546001600160801b031690565b600183015461092b906001600160801b038082169161092591600160801b90910416846109c9565b90610a0d565b9392505050565b5f61092b8383610a4f565b60038101545f90600160801b900464ffffffffff1642810361096b575050600201546001600160801b031690565b600283015461092b906001600160801b038082169161092591600160801b9091041684610a76565b5f61092b8383610a82565b5f816109a8575f5ffd5b825f19048411158315176109ba575f5ffd5b50910281810491900615150190565b5f806109dc64ffffffffff841642610c3b565b6109e69085610bf1565b6301e1338090049050610a05816b033b2e3c9fd0803ce8000000610bde565b949350505050565b5f81156b019d971e4fe8401e740000001983900484111517610a2d575f5ffd5b506b033b2e3c9fd0803ce800000091026b019d971e4fe8401e74000000010490565b5f815f1904831115821517610a62575f5ffd5b506b033b2e3c9fd0803ce800000091020490565b5f61092b838342610ab1565b5f815f1904831115821517610a95575f5ffd5b506b033b2e3c9fd0803ce8000000910281810491900615150190565b5f80610ac464ffffffffff851684610c3b565b9050805f03610ae2576b033b2e3c9fd0803ce800000091505061092b565b6301e1338081860204610b07610afb8260068104610a0d565b82906002820401610a0d565b016b033b2e3c9fd0803ce8000000019150509392505050565b80356001600160a01b0381168114610b36575f5ffd5b919050565b5f5f5f5f5f5f5f5f610100898b031215610b53575f5ffd5b8835975060208901359650604089013595506060890135945060808901359350610b7f60a08a01610b20565b9250610b8d60c08a01610b20565b915060e089013560ff81168114610ba2575f5ffd5b809150509295985092959890939650565b5f60208284031215610bc3575f5ffd5b5051919050565b634e487b7160e01b5f52601160045260245ffd5b808201808211156102a6576102a6610bca565b80820281158282048414176102a6576102a6610bca565b634e487b7160e01b5f52601260045260245ffd5b5f82610c3657634e487b7160e01b5f52601260045260245ffd5b500490565b818103818111156102a6576102a6610bca56fea164736f6c634300081b000a","linkReferences":{}},"methodIdentifiers":{"getLibrariesReport()":"c3d5cff5"},"id":322}