{"abi":[{"type":"constructor","inputs":[{"name":"pool","type":"address","internalType":"contract IPool"},{"name":"rewardsController","type":"address","internalType":"address"},{"name":"treasury","type":"address","internalType":"address"}],"stateMutability":"nonpayable"},{"type":"function","name":"ATOKEN_REVISION","inputs":[],"outputs":[{"name":"","type":"uint256","internalType":"uint256"}],"stateMutability":"view"},{"type":"function","name":"DOMAIN_SEPARATOR","inputs":[],"outputs":[{"name":"","type":"bytes32","internalType":"bytes32"}],"stateMutability":"view"},{"type":"function","name":"EIP712_REVISION","inputs":[],"outputs":[{"name":"","type":"bytes","internalType":"bytes"}],"stateMutability":"view"},{"type":"function","name":"PERMIT_TYPEHASH","inputs":[],"outputs":[{"name":"","type":"bytes32","internalType":"bytes32"}],"stateMutability":"view"},{"type":"function","name":"POOL","inputs":[],"outputs":[{"name":"","type":"address","internalType":"contract IPool"}],"stateMutability":"view"},{"type":"function","name":"RESERVE_TREASURY_ADDRESS","inputs":[],"outputs":[{"name":"","type":"address","internalType":"address"}],"stateMutability":"view"},{"type":"function","name":"REWARDS_CONTROLLER","inputs":[],"outputs":[{"name":"","type":"address","internalType":"contract IAaveIncentivesController"}],"stateMutability":"view"},{"type":"function","name":"TREASURY","inputs":[],"outputs":[{"name":"","type":"address","internalType":"address"}],"stateMutability":"view"},{"type":"function","name":"UNDERLYING_ASSET_ADDRESS","inputs":[],"outputs":[{"name":"","type":"address","internalType":"address"}],"stateMutability":"view"},{"type":"function","name":"allowance","inputs":[{"name":"owner","type":"address","internalType":"address"},{"name":"spender","type":"address","internalType":"address"}],"outputs":[{"name":"","type":"uint256","internalType":"uint256"}],"stateMutability":"view"},{"type":"function","name":"approve","inputs":[{"name":"spender","type":"address","internalType":"address"},{"name":"amount","type":"uint256","internalType":"uint256"}],"outputs":[{"name":"","type":"bool","internalType":"bool"}],"stateMutability":"nonpayable"},{"type":"function","name":"balanceOf","inputs":[{"name":"user","type":"address","internalType":"address"}],"outputs":[{"name":"","type":"uint256","internalType":"uint256"}],"stateMutability":"view"},{"type":"function","name":"burn","inputs":[{"name":"from","type":"address","internalType":"address"},{"name":"receiverOfUnderlying","type":"address","internalType":"address"},{"name":"amount","type":"uint256","internalType":"uint256"},{"name":"scaledAmount","type":"uint256","internalType":"uint256"},{"name":"index","type":"uint256","internalType":"uint256"}],"outputs":[{"name":"","type":"bool","internalType":"bool"}],"stateMutability":"nonpayable"},{"type":"function","name":"decimals","inputs":[],"outputs":[{"name":"","type":"uint8","internalType":"uint8"}],"stateMutability":"view"},{"type":"function","name":"decreaseAllowance","inputs":[{"name":"spender","type":"address","internalType":"address"},{"name":"subtractedValue","type":"uint256","internalType":"uint256"}],"outputs":[{"name":"","type":"bool","internalType":"bool"}],"stateMutability":"nonpayable"},{"type":"function","name":"getIncentivesController","inputs":[],"outputs":[{"name":"","type":"address","internalType":"contract IAaveIncentivesController"}],"stateMutability":"view"},{"type":"function","name":"getPreviousIndex","inputs":[{"name":"user","type":"address","internalType":"address"}],"outputs":[{"name":"","type":"uint256","internalType":"uint256"}],"stateMutability":"view"},{"type":"function","name":"getScaledUserBalanceAndSupply","inputs":[{"name":"user","type":"address","internalType":"address"}],"outputs":[{"name":"","type":"uint256","internalType":"uint256"},{"name":"","type":"uint256","internalType":"uint256"}],"stateMutability":"view"},{"type":"function","name":"increaseAllowance","inputs":[{"name":"spender","type":"address","internalType":"address"},{"name":"addedValue","type":"uint256","internalType":"uint256"}],"outputs":[{"name":"","type":"bool","internalType":"bool"}],"stateMutability":"nonpayable"},{"type":"function","name":"initialize","inputs":[{"name":"initializingPool","type":"address","internalType":"contract IPool"},{"name":"underlyingAsset","type":"address","internalType":"address"},{"name":"aTokenDecimals","type":"uint8","internalType":"uint8"},{"name":"aTokenName","type":"string","internalType":"string"},{"name":"aTokenSymbol","type":"string","internalType":"string"},{"name":"params","type":"bytes","internalType":"bytes"}],"outputs":[],"stateMutability":"nonpayable"},{"type":"function","name":"mint","inputs":[{"name":"caller","type":"address","internalType":"address"},{"name":"onBehalfOf","type":"address","internalType":"address"},{"name":"scaledAmount","type":"uint256","internalType":"uint256"},{"name":"index","type":"uint256","internalType":"uint256"}],"outputs":[{"name":"","type":"bool","internalType":"bool"}],"stateMutability":"nonpayable"},{"type":"function","name":"mintToTreasury","inputs":[{"name":"scaledAmount","type":"uint256","internalType":"uint256"},{"name":"index","type":"uint256","internalType":"uint256"}],"outputs":[],"stateMutability":"nonpayable"},{"type":"function","name":"name","inputs":[],"outputs":[{"name":"","type":"string","internalType":"string"}],"stateMutability":"view"},{"type":"function","name":"nonces","inputs":[{"name":"owner","type":"address","internalType":"address"}],"outputs":[{"name":"","type":"uint256","internalType":"uint256"}],"stateMutability":"view"},{"type":"function","name":"permit","inputs":[{"name":"owner","type":"address","internalType":"address"},{"name":"spender","type":"address","internalType":"address"},{"name":"value","type":"uint256","internalType":"uint256"},{"name":"deadline","type":"uint256","internalType":"uint256"},{"name":"v","type":"uint8","internalType":"uint8"},{"name":"r","type":"bytes32","internalType":"bytes32"},{"name":"s","type":"bytes32","internalType":"bytes32"}],"outputs":[],"stateMutability":"nonpayable"},{"type":"function","name":"rescueTokens","inputs":[{"name":"token","type":"address","internalType":"address"},{"name":"to","type":"address","internalType":"address"},{"name":"amount","type":"uint256","internalType":"uint256"}],"outputs":[],"stateMutability":"nonpayable"},{"type":"function","name":"scaledBalanceOf","inputs":[{"name":"user","type":"address","internalType":"address"}],"outputs":[{"name":"","type":"uint256","internalType":"uint256"}],"stateMutability":"view"},{"type":"function","name":"scaledTotalSupply","inputs":[],"outputs":[{"name":"","type":"uint256","internalType":"uint256"}],"stateMutability":"view"},{"type":"function","name":"setStorage","inputs":[{"name":"alice","type":"address","internalType":"address"},{"name":"bob","type":"address","internalType":"address"},{"name":"previousIndex","type":"uint256","internalType":"uint256"},{"name":"aliceScaledBalance","type":"uint256","internalType":"uint256"},{"name":"bobScaledBalance","type":"uint256","internalType":"uint256"}],"outputs":[],"stateMutability":"nonpayable"},{"type":"function","name":"symbol","inputs":[],"outputs":[{"name":"","type":"string","internalType":"string"}],"stateMutability":"view"},{"type":"function","name":"totalSupply","inputs":[],"outputs":[{"name":"","type":"uint256","internalType":"uint256"}],"stateMutability":"view"},{"type":"function","name":"transfer","inputs":[{"name":"recipient","type":"address","internalType":"address"},{"name":"amount","type":"uint256","internalType":"uint256"}],"outputs":[{"name":"","type":"bool","internalType":"bool"}],"stateMutability":"nonpayable"},{"type":"function","name":"transferFrom","inputs":[{"name":"sender","type":"address","internalType":"address"},{"name":"recipient","type":"address","internalType":"address"},{"name":"amount","type":"uint256","internalType":"uint256"}],"outputs":[{"name":"","type":"bool","internalType":"bool"}],"stateMutability":"nonpayable"},{"type":"function","name":"transferOnLiquidation","inputs":[{"name":"from","type":"address","internalType":"address"},{"name":"to","type":"address","internalType":"address"},{"name":"amount","type":"uint256","internalType":"uint256"},{"name":"scaledAmount","type":"uint256","internalType":"uint256"},{"name":"index","type":"uint256","internalType":"uint256"}],"outputs":[],"stateMutability":"nonpayable"},{"type":"function","name":"transferUnderlyingTo","inputs":[{"name":"target","type":"address","internalType":"address"},{"name":"amount","type":"uint256","internalType":"uint256"}],"outputs":[],"stateMutability":"nonpayable"},{"type":"function","name":"transferWithIndex","inputs":[{"name":"sender","type":"address","internalType":"address"},{"name":"recipient","type":"address","internalType":"address"},{"name":"amount","type":"uint256","internalType":"uint256"},{"name":"newIndex","type":"uint256","internalType":"uint256"}],"outputs":[],"stateMutability":"nonpayable"},{"type":"event","name":"Approval","inputs":[{"name":"owner","type":"address","indexed":true,"internalType":"address"},{"name":"spender","type":"address","indexed":true,"internalType":"address"},{"name":"value","type":"uint256","indexed":false,"internalType":"uint256"}],"anonymous":false},{"type":"event","name":"BalanceTransfer","inputs":[{"name":"from","type":"address","indexed":true,"internalType":"address"},{"name":"to","type":"address","indexed":true,"internalType":"address"},{"name":"value","type":"uint256","indexed":false,"internalType":"uint256"},{"name":"index","type":"uint256","indexed":false,"internalType":"uint256"}],"anonymous":false},{"type":"event","name":"Burn","inputs":[{"name":"from","type":"address","indexed":true,"internalType":"address"},{"name":"target","type":"address","indexed":true,"internalType":"address"},{"name":"value","type":"uint256","indexed":false,"internalType":"uint256"},{"name":"balanceIncrease","type":"uint256","indexed":false,"internalType":"uint256"},{"name":"index","type":"uint256","indexed":false,"internalType":"uint256"}],"anonymous":false},{"type":"event","name":"Initialized","inputs":[{"name":"underlyingAsset","type":"address","indexed":true,"internalType":"address"},{"name":"pool","type":"address","indexed":true,"internalType":"address"},{"name":"treasury","type":"address","indexed":false,"internalType":"address"},{"name":"incentivesController","type":"address","indexed":false,"internalType":"address"},{"name":"aTokenDecimals","type":"uint8","indexed":false,"internalType":"uint8"},{"name":"aTokenName","type":"string","indexed":false,"internalType":"string"},{"name":"aTokenSymbol","type":"string","indexed":false,"internalType":"string"},{"name":"params","type":"bytes","indexed":false,"internalType":"bytes"}],"anonymous":false},{"type":"event","name":"Mint","inputs":[{"name":"caller","type":"address","indexed":true,"internalType":"address"},{"name":"onBehalfOf","type":"address","indexed":true,"internalType":"address"},{"name":"value","type":"uint256","indexed":false,"internalType":"uint256"},{"name":"balanceIncrease","type":"uint256","indexed":false,"internalType":"uint256"},{"name":"index","type":"uint256","indexed":false,"internalType":"uint256"}],"anonymous":false},{"type":"event","name":"Transfer","inputs":[{"name":"from","type":"address","indexed":true,"internalType":"address"},{"name":"to","type":"address","indexed":true,"internalType":"address"},{"name":"value","type":"uint256","indexed":false,"internalType":"uint256"}],"anonymous":false},{"type":"error","name":"CallerMustBePool","inputs":[]},{"type":"error","name":"CallerNotPoolAdmin","inputs":[]},{"type":"error","name":"ECDSAInvalidSignature","inputs":[]},{"type":"error","name":"ECDSAInvalidSignatureLength","inputs":[{"name":"length","type":"uint256","internalType":"uint256"}]},{"type":"error","name":"ECDSAInvalidSignatureS","inputs":[{"name":"s","type":"bytes32","internalType":"bytes32"}]},{"type":"error","name":"ERC20InsufficientAllowance","inputs":[{"name":"spender","type":"address","internalType":"address"},{"name":"allowance","type":"uint256","internalType":"uint256"},{"name":"needed","type":"uint256","internalType":"uint256"}]},{"type":"error","name":"InvalidBurnAmount","inputs":[]},{"type":"error","name":"InvalidExpiration","inputs":[]},{"type":"error","name":"InvalidMintAmount","inputs":[]},{"type":"error","name":"InvalidSignature","inputs":[]},{"type":"error","name":"PoolAddressesDoNotMatch","inputs":[]},{"type":"error","name":"SafeCastOverflowedUintDowncast","inputs":[{"name":"bits","type":"uint8","internalType":"uint8"},{"name":"value","type":"uint256","internalType":"uint256"}]},{"type":"error","name":"UnderlyingCannotBeRescued","inputs":[]},{"type":"error","name":"ZeroAddressNotValid","inputs":[]}],"bytecode":{"object":"0x6101206040525f5f55348015610013575f5ffd5b50604051612e1e380380612e1e833981016040819052610032916101c3565b828282828282826040518060400160405280600b81526020016a105513d2d15397d253541360aa1b8152506040518060400160405280600b81526020016a105513d2d15397d253541360aa1b8152505f858484848484848484848461009b61019a60201b60201c565b5f81905550846001600160a01b0316630542975c6040518163ffffffff1660e01b8152600401602060405180830381865afa1580156100dc573d5f5f3e3d5ffd5b505050506040513d601f19601f82011682018060405250810190610100919061020d565b6001600160a01b0316608052603761011885826102c7565b50603861012584826102c7565b506039805460ff191660ff93909316929092179091556001600160a01b0393841660a052831660c05250504660e0528b16995061017f9850505050505050505057604051633bf95ba760e01b815260040160405180910390fd5b6001600160a01b031661010052506103a69650505050505050565b5f6101a760046001610381565b905090565b6001600160a01b03811681146101c0575f5ffd5b50565b5f5f5f606084860312156101d5575f5ffd5b83516101e0816101ac565b60208501519093506101f1816101ac565b6040850151909250610202816101ac565b809150509250925092565b5f6020828403121561021d575f5ffd5b8151610228816101ac565b9392505050565b634e487b7160e01b5f52604160045260245ffd5b600181811c9082168061025757607f821691505b60208210810361027557634e487b7160e01b5f52602260045260245ffd5b50919050565b601f8211156102c257805f5260205f20601f840160051c810160208510156102a05750805b601f840160051c820191505b818110156102bf575f81556001016102ac565b50505b505050565b81516001600160401b038111156102e0576102e061022f565b6102f4816102ee8454610243565b8461027b565b6020601f821160018114610326575f831561030f5750848201515b5f19600385901b1c1916600184901b1784556102bf565b5f84815260208120601f198516915b828110156103555787850151825560209485019460019092019101610335565b508482101561037257868401515f19600387901b60f8161c191681555b50505050600190811b01905550565b808201808211156103a057634e487b7160e01b5f52601160045260245ffd5b92915050565b60805160a05160c05160e0516101005161299a6104845f395f818161034e0152818161050101528181610abb0152610d1001525f61178501525f81816104540152818161056901528181610d3101528181611e2401528181611e6301528181611ef90152818161208701526120c301525f818161043001528181610706015281816107b0015281816108820152818161092b015281816109d201528181610a4901528181610a9a01528181610bb501528181610cbb01528181610dfd01528181610e9401528181611362015261145f01525f610ef5015261299a5ff3fe608060405234801561000f575f5ffd5b5060043610610213575f3560e01c806375d264131161011f578063b16a19de116100a9578063cd086d4511610079578063cd086d4514610564578063cea9d26f1461058b578063d505accf1461059e578063dd62ed3e146105b1578063e0753986146105e9575f5ffd5b8063b16a19de14610525578063b18d6afd14610536578063b1bf962d14610549578063b3f1c93d14610551575f5ffd5b80637fdd585f116100ef5780637fdd585f146104be57806395d89b41146104d1578063a457c2d7146104d9578063a9059cbb146104ec578063ae167335146104ff575f5ffd5b806375d264131461045257806378160376146104785780637df5bd3b146104985780637ecebe00146104ab575f5ffd5b806330adf81f116101a0578063395093511161017057806339509351146103df5780634efecaa5146103f2578063559b8e161461040557806370a08231146104185780637535d2461461042b575f5ffd5b806330adf81f14610388578063313ce567146103af578063353b7b9a146103c45780633644e515146103d7575f5ffd5b80631749f229116101e65780631749f2291461029657806318160ddd1461031b5780631da24f3e1461032357806323b872dd146103365780632d2c556514610349575f5ffd5b806306fdde0314610217578063095ea7b3146102355780630afbcdc9146102585780630bd7ad3b14610280575b5f5ffd5b61021f610621565b60405161022c9190612340565b60405180910390f35b610248610243366004612369565b6106b1565b604051901515815260200161022c565b61026b610266366004612393565b6106c7565b6040805192835260208301919091520161022c565b610288600481565b60405190815260200161022c565b6103196102a43660046123ae565b6001600160a01b039485165f9081526034602052604080822080546001600160801b03968716600160801b0290871681178255969097168083529082208054909516909517845585546001600160781b039384166001600160781b031991821617909655939093528154921691909216179055565b005b6102886106de565b610288610331366004612393565b610780565b6102486103443660046123fb565b61078a565b6103707f000000000000000000000000000000000000000000000000000000000000000081565b6040516001600160a01b03909116815260200161022c565b6102887f6e71edae12b1b97f4d1f60370fef10105fa2faae0126114a169c64845d6126c981565b60395460405160ff909116815260200161022c565b6103196103d23660046123ae565b61087f565b6102886108e4565b6102486103ed366004612369565b6108ed565b610319610400366004612369565b610928565b610319610413366004612439565b61098c565b610288610426366004612393565b6109aa565b6103707f000000000000000000000000000000000000000000000000000000000000000081565b7f0000000000000000000000000000000000000000000000000000000000000000610370565b61021f604051806040016040528060018152602001603160f81b81525081565b6103196104a636600461247c565b610a46565b6102886104b9366004612393565b610ae9565b6103196104cc3660046124f6565b610b06565b61021f610d92565b6102486104e7366004612369565b610da1565b6102486104fa366004612369565b610dd7565b7f0000000000000000000000000000000000000000000000000000000000000000610370565b603d546001600160a01b0316610370565b6102486105443660046123ae565b610df9565b610288610e86565b61024861055f366004612439565b610e90565b6103707f000000000000000000000000000000000000000000000000000000000000000081565b6103196105993660046123fb565b610ef2565b6103196105ac3660046125cb565b61104b565b6102886105bf366004612635565b6001600160a01b039182165f90815260356020908152604080832093909416825291909152205490565b6102886105f7366004612393565b6001600160a01b03165f90815260346020526040902054600160801b90046001600160801b031690565b6060603780546106309061266c565b80601f016020809104026020016040519081016040528092919081815260200182805461065c9061266c565b80156106a75780601f1061067e576101008083540402835291602001916106a7565b820191905f5260205f20905b81548152906001019060200180831161068a57829003601f168201915b5050505050905090565b5f6106bd3384846111db565b5060015b92915050565b5f5f6106d28361123b565b60365491509150915091565b603d5460405163d15e005360e01b81526001600160a01b0391821660048201525f9161077b917f00000000000000000000000000000000000000000000000000000000000000009091169063d15e005390602401602060405180830381865afa15801561074d573d5f5f3e3d5ffd5b505050506040513d601f19601f82011682018060405250810190610771919061269e565b6036545b9061125e565b905090565b5f6106c18261123b565b603d5460405163d15e005360e01b81526001600160a01b0391821660048201525f9182917f00000000000000000000000000000000000000000000000000000000000000009091169063d15e005390602401602060405180830381865afa1580156107f7573d5f5f3e3d5ffd5b505050506040513d601f19601f8201168201806040525081019061081b919061269e565b90505f6108278661123b565b90506108608633866108478661083d8382611270565b61077590886126c9565b610851868861125e565b61085b91906126c9565b61127b565b610873868661086e87611304565b61133b565b50600195945050505050565b337f00000000000000000000000000000000000000000000000000000000000000006001600160a01b0316146108c857604051632a59ce7160e11b815260040160405180910390fd5b6108dd8585856108d786611304565b856114c0565b5050505050565b5f61077b611782565b335f8181526035602090815260408083206001600160a01b038716845290915281205490916106bd9185906109239086906126dc565b6111db565b337f00000000000000000000000000000000000000000000000000000000000000006001600160a01b03161461097157604051632a59ce7160e11b815260040160405180910390fd5b603d54610988906001600160a01b031683836117b9565b5050565b6109a48484846108d761099f8287611270565b611304565b50505050565b603d5460405163d15e005360e01b81526001600160a01b0391821660048201525f916106c1917f00000000000000000000000000000000000000000000000000000000000000009091169063d15e005390602401602060405180830381865afa158015610a19573d5f5f3e3d5ffd5b505050506040513d601f19601f82011682018060405250810190610a3d919061269e565b6107758461123b565b337f00000000000000000000000000000000000000000000000000000000000000006001600160a01b031614610a8f57604051632a59ce7160e11b815260040160405180910390fd5b811561098857610ae47f00000000000000000000000000000000000000000000000000000000000000007f0000000000000000000000000000000000000000000000000000000000000000848461125e611841565b505050565b6001600160a01b0381165f908152603a60205260408120546106c1565b5f610b0f6119c1565b60015490915060ff1680610b225750303b155b80610b2d57505f5481115b610b955760405162461bcd60e51b815260206004820152602e60248201527f436f6e747261637420696e7374616e63652068617320616c726561647920626560448201526d195b881a5b9a5d1a585b1a5e995960921b60648201526084015b60405180910390fd5b60015460ff16158015610bb3576001805460ff1916811790555f8290555b7f00000000000000000000000000000000000000000000000000000000000000006001600160a01b03168b6001600160a01b031614610c0557604051634c2b89eb60e01b815260040160405180910390fd5b610c4388888080601f0160208091040260200160405190810160405280939291908181526020018383808284375f920191909152506119ce92505050565b610c8186868080601f0160208091040260200160405190810160405280939291908181526020018383808284375f920191909152506119da92505050565b6039805460ff191660ff8b16179055603d80546001600160a01b0319166001600160a01b038c16179055610cb36119e6565b603b819055507f00000000000000000000000000000000000000000000000000000000000000006001600160a01b03168a6001600160a01b03167fb19e051f8af41150ccccb3fc2c2d8d15f4a4cf434f32a559ba75fe73d6eea20b7f00000000000000000000000000000000000000000000000000000000000000007f00000000000000000000000000000000000000000000000000000000000000008d8d8d8d8d8d8d604051610d6c99989796959493929190612717565b60405180910390a38015610d85576001805460ff191690555b5050505050505050505050565b6060603880546106309061266c565b335f8181526035602090815260408083206001600160a01b038716845290915281205490916106bd9185906109239086906126c9565b5f5f610de283611304565b9050610def33858361133b565b5060019392505050565b5f337f00000000000000000000000000000000000000000000000000000000000000006001600160a01b031614610e4357604051632a59ce7160e11b815260040160405180910390fd5b5f610e538787868661125e611a8e565b90506001600160a01b0386163014610e7c57603d54610e7c906001600160a01b031687876117b9565b9695505050505050565b5f61077b60365490565b5f337f00000000000000000000000000000000000000000000000000000000000000006001600160a01b031614610eda57604051632a59ce7160e11b815260040160405180910390fd5b610ee98585858561125e611841565b95945050505050565b5f7f00000000000000000000000000000000000000000000000000000000000000006001600160a01b031663707cd7166040518163ffffffff1660e01b8152600401602060405180830381865afa158015610f4f573d5f5f3e3d5ffd5b505050506040513d601f19601f82011682018060405250810190610f739190612784565b90506001600160a01b038116637be53ca1336040516001600160e01b031960e084901b1681526001600160a01b039091166004820152602401602060405180830381865afa158015610fc7573d5f5f3e3d5ffd5b505050506040513d601f19601f82011682018060405250810190610feb919061279f565b6110085760405163cdd36a9760e01b815260040160405180910390fd5b603d546001600160a01b03908116908516036110375760405163bf9cb8bb60e01b815260040160405180910390fd5b6109a46001600160a01b03851684846117b9565b6001600160a01b03871661107257604051633bf95ba760e01b815260040160405180910390fd5b8342111561109357604051637d9533a960e11b815260040160405180910390fd5b6001600160a01b0387165f908152603a6020526040812054906110b46108e4565b604080517f6e71edae12b1b97f4d1f60370fef10105fa2faae0126114a169c64845d6126c960208201526001600160a01b03808d1692820192909252908a1660608201526080810189905260a0810184905260c0810188905260e0016040516020818303038152906040528051906020012060405160200161114d92919061190160f01b81526002810192909252602282015260420190565b60405160208183030381529060405280519060200120905061117181868686611cb2565b6001600160a01b0316896001600160a01b0316146111a257604051638baa579f60e01b815260040160405180910390fd5b6111ad8260016126dc565b6001600160a01b038a165f908152603a60205260409020556111d08989896111db565b505050505050505050565b6001600160a01b038381165f8181526035602090815260408083209487168084529482529182902085905590518481527f8c5be1e5ebec7d5bd14f71427d1e84f3dd0314c0f7b2291e5b200ac8c7c3b925910160405180910390a3505050565b6001600160a01b03165f908152603460205260409020546001600160781b031690565b5f6112698383611cde565b9392505050565b5f6112698383611d05565b6001600160a01b038085165f90815260356020908152604080832093871683529290522054828110156112da57604051637dc7a0d960e11b81526001600160a01b03851660048201526024810182905260448101849052606401610b8c565b5f828210156112e957816112eb565b825b90506112fc868661092384866126c9565b505050505050565b5f6001600160781b03821115611337576040516306dfcc6560e41b81526078600482015260248101839052604401610b8c565b5090565b603d5460405163d15e005360e01b81526001600160a01b0391821660048201819052915f917f00000000000000000000000000000000000000000000000000000000000000009091169063d15e005390602401602060405180830381865afa1580156113a9573d5f5f3e3d5ffd5b505050506040513d601f19601f820116820180604052508101906113cd919061269e565b90505f6113d98661123b565b90505f6113e58661123b565b90505f6113fb6001600160781b03871685611270565b905061141b8888886001600160781b031661141585611304565b886114c0565b60405163d5ed393360e01b81526001600160a01b03868116600483015289811660248301528881166044830152606482018390526084820185905260a482018490527f0000000000000000000000000000000000000000000000000000000000000000169063d5ed39339060c4015f604051808303815f87803b1580156114a0575f5ffd5b505af11580156114b2573d5f5f3e3d5ffd5b505050505050505050505050565b5f6114ca8661123b565b6001600160a01b0387165f9081526034602052604081205491925090611501908390600160801b90046001600160801b031661125e565b61150b838561125e565b61151591906126c9565b90505f6115218761123b565b6001600160a01b0388165f9081526034602052604081205491925090611558908390600160801b90046001600160801b031661125e565b611562838761125e565b61156c91906126c9565b905061157785611d48565b6001600160a01b038a165f90815260346020526040902080546001600160801b03928316600160801b0292169190911790556115b285611d48565b6001600160a01b0389165f90815260346020526040902080546001600160801b03928316600160801b0292169190911790556115ef898988611d7b565b821561165d576040518381526001600160a01b038a16905f905f51602061296e5f395f51905f529060200160405180910390a3604080518481526020810185905280820187905290516001600160a01b038b169133915f51602061294e5f395f51905f529181900360600190a35b876001600160a01b0316896001600160a01b03161415801561167e57505f81115b156116eb576040518181526001600160a01b038916905f905f51602061296e5f395f51905f529060200160405180910390a3604080518281526020810183905280820187905290516001600160a01b038a169133915f51602061294e5f395f51905f529181900360600190a35b876001600160a01b0316896001600160a01b03165f51602061296e5f395f51905f528960405161171d91815260200190565b60405180910390a3604080516001600160781b0388168152602081018790526001600160a01b03808b1692908c16917f4beccb90f994c31aced7a23b5611020728a23d8ec5cddd1a3e9d97b96fda8666910160405180910390a3505050505050505050565b5f7f000000000000000000000000000000000000000000000000000000000000000046036117b15750603b5490565b61077b6119e6565b60405163a9059cbb60e01b8082526001600160a01b038416600483015260248201839052905f8060448382895af16117f3573d5f5f3e3d5ffd5b506117fd84611f67565b6109a45760405162461bcd60e51b815260206004820152601560248201527423a83b191d103330b4b632b2103a3930b739b332b960591b6044820152606401610b8c565b5f835f036118625760405163199f5a0360e31b815260040160405180910390fd5b5f61186c8661123b565b90505f61188661187c83886126dc565b868663ffffffff16565b6001600160a01b0388165f90815260346020526040812054919250906118c1908490600160801b90046001600160801b031663ffffffff8816565b90505f816118d385898963ffffffff16565b6118dd91906126c9565b90506118e887611d48565b6001600160a01b038a165f90815260346020526040902080546001600160801b03928316600160801b02921691909117905561192c896119278a611304565b61200a565b5f61193783856126c9565b9050896001600160a01b03165f6001600160a01b03165f51602061296e5f395f51905f528360405161196b91815260200190565b60405180910390a360408051828152602081018490529081018990526001600160a01b03808c1691908d16905f51602061294e5f395f51905f529060600160405180910390a35050911598975050505050505050565b5f61077b600460016126dc565b60376109888282612816565b60386109888282612816565b5f7f8b73c3c69bb8fe3d512ecc4cf759cc79239f7b179b0ffacaa9a75d522b39400f611a1061212f565b805160209182012060408051808201825260018152603160f81b90840152805192830193909352918101919091527fc89efdaa54c0f20c7adf612882df0950f5a951637e0307cdcb4c672f298b8bc660608201524660808201523060a082015260c00160405160208183030381529060405280519060200120905090565b5f835f03611aaf576040516302075cc160e41b815260040160405180910390fd5b5f611ab98761123b565b90505f611ac961187c87846126c9565b6001600160a01b0389165f9081526034602052604081205491925090611b04908490600160801b90046001600160801b031663ffffffff8816565b90505f81611b1685898963ffffffff16565b611b2091906126c9565b9050611b2b87611d48565b6001600160a01b038b165f90815260346020526040902080546001600160801b03928316600160801b029216919091179055611b6f8a611b6a8a611304565b612139565b81831115611bff575f611b8283856126c9565b90508a6001600160a01b03165f6001600160a01b03165f51602061296e5f395f51905f5283604051611bb691815260200190565b60405180910390a360408051828152602081018490529081018990526001600160a01b038c169081905f51602061294e5f395f51905f529060600160405180910390a350611c99565b5f611c0a84846126c9565b90505f6001600160a01b03168b6001600160a01b03165f51602061296e5f395f51905f5283604051611c3e91815260200190565b60405180910390a360408051828152602081018490529081018990526001600160a01b03808c1691908d16907f4cf25bc1d991c17529c25213d3cc0cda295eeaad5f13f361969b12ea48015f909060600160405180910390a3505b611ca388856126c9565b159a9950505050505050505050565b5f5f5f5f611cc28888888861217d565b925092509250611cd28282612245565b50909695505050505050565b5f815f1904831115821517611cf1575f5ffd5b506b033b2e3c9fd0803ce800000091020490565b5f8115744f3a68dbc8f03f243baf513267aa9a3ee524f8e02884111715611d2a575f5ffd5b506b033b2e3c9fd0803ce80000009190910281810491900615150190565b5f6001600160801b03821115611337576040516306dfcc6560e41b81526080600482015260248101839052604401610b8c565b6001600160a01b0383165f908152603460205260409020546001600160781b0316611da682826128d1565b6001600160a01b038581165f9081526034602052604080822080546001600160781b0319166001600160781b039586161790559186168152205416611deb83826128f0565b6001600160a01b038581165f90815260346020526040902080546001600160781b0319166001600160781b0393909316929092179091557f000000000000000000000000000000000000000000000000000000000000000016156108dd576036546040516318c39f1760e11b81526001600160a01b037f000000000000000000000000000000000000000000000000000000000000000016906331873e2e90611e9c9089908590889060040161290f565b5f604051808303815f87803b158015611eb3575f5ffd5b505af1158015611ec5573d5f5f3e3d5ffd5b50505050846001600160a01b0316866001600160a01b0316146112fc576040516318c39f1760e11b81526001600160a01b037f000000000000000000000000000000000000000000000000000000000000000016906331873e2e90611f329088908590879060040161290f565b5f604051808303815f87803b158015611f49575f5ffd5b505af1158015611f5b573d5f5f3e3d5ffd5b50505050505050505050565b5f611f89565b62461bcd60e51b5f52602060045280602452508060445260645ffd5b3d8015611fc85760208114611ff957611fc37f475076323a206d616c666f726d6564207472616e7366657220726573756c7400601f611f6d565b612004565b823b611ff057611ff07311d41d8c8e881b9bdd08184818dbdb9d1c9858dd60621b6014611f6d565b60019150612004565b3d5f5f3e5f51151591505b50919050565b6036546120206001600160781b038316826126dc565b6036556001600160a01b0383165f908152603460205260409020546001600160781b031661204e83826128f0565b6001600160a01b038581165f90815260346020526040902080546001600160781b0319166001600160781b0393909316929092179091557f000000000000000000000000000000000000000000000000000000000000000016156109a4576040516318c39f1760e11b81526001600160a01b037f000000000000000000000000000000000000000000000000000000000000000016906331873e2e906120fc9087908690869060040161290f565b5f604051808303815f87803b158015612113575f5ffd5b505af1158015612125573d5f5f3e3d5ffd5b5050505050505050565b606061077b610621565b60365461214f6001600160781b038316826126c9565b6036556001600160a01b0383165f908152603460205260409020546001600160781b031661204e83826128d1565b5f80807f7fffffffffffffffffffffffffffffff5d576e7357a4501ddfe92f46681b20a08411156121b657505f9150600390508261223b565b604080515f808252602082018084528a905260ff891692820192909252606081018790526080810186905260019060a0016020604051602081039080840390855afa158015612207573d5f5f3e3d5ffd5b5050604051601f1901519150506001600160a01b03811661223257505f92506001915082905061223b565b92505f91508190505b9450945094915050565b5f82600381111561225857612258612939565b03612261575050565b600182600381111561227557612275612939565b036122935760405163f645eedf60e01b815260040160405180910390fd5b60028260038111156122a7576122a7612939565b036122c85760405163fce698f760e01b815260048101829052602401610b8c565b60038260038111156122dc576122dc612939565b03610988576040516335e2f38360e21b815260048101829052602401610b8c565b5f81518084525f5b8181101561232157602081850181015186830182015201612305565b505f602082860101526020601f19601f83011685010191505092915050565b602081525f61126960208301846122fd565b6001600160a01b0381168114612366575f5ffd5b50565b5f5f6040838503121561237a575f5ffd5b823561238581612352565b946020939093013593505050565b5f602082840312156123a3575f5ffd5b813561126981612352565b5f5f5f5f5f60a086880312156123c2575f5ffd5b85356123cd81612352565b945060208601356123dd81612352565b94979496505050506040830135926060810135926080909101359150565b5f5f5f6060848603121561240d575f5ffd5b833561241881612352565b9250602084013561242881612352565b929592945050506040919091013590565b5f5f5f5f6080858703121561244c575f5ffd5b843561245781612352565b9350602085013561246781612352565b93969395505050506040820135916060013590565b5f5f6040838503121561248d575f5ffd5b50508035926020909101359150565b803560ff811681146124ac575f5ffd5b919050565b5f5f83601f8401126124c1575f5ffd5b50813567ffffffffffffffff8111156124d8575f5ffd5b6020830191508360208285010111156124ef575f5ffd5b9250929050565b5f5f5f5f5f5f5f5f5f60c08a8c03121561250e575f5ffd5b893561251981612352565b985060208a013561252981612352565b975061253760408b0161249c565b965060608a013567ffffffffffffffff811115612552575f5ffd5b61255e8c828d016124b1565b90975095505060808a013567ffffffffffffffff81111561257d575f5ffd5b6125898c828d016124b1565b90955093505060a08a013567ffffffffffffffff8111156125a8575f5ffd5b6125b48c828d016124b1565b915080935050809150509295985092959850929598565b5f5f5f5f5f5f5f60e0888a0312156125e1575f5ffd5b87356125ec81612352565b965060208801356125fc81612352565b955060408801359450606088013593506126186080890161249c565b9699959850939692959460a0840135945060c09093013592915050565b5f5f60408385031215612646575f5ffd5b823561265181612352565b9150602083013561266181612352565b809150509250929050565b600181811c9082168061268057607f821691505b60208210810361200457634e487b7160e01b5f52602260045260245ffd5b5f602082840312156126ae575f5ffd5b5051919050565b634e487b7160e01b5f52601160045260245ffd5b818103818111156106c1576106c16126b5565b808201808211156106c1576106c16126b5565b81835281816020850137505f828201602090810191909152601f909101601f19169091010190565b6001600160a01b038a811682528916602082015260ff8816604082015260c0606082018190525f9061274c908301888a6126ef565b828103608084015261275f8187896126ef565b905082810360a08401526127748185876126ef565b9c9b505050505050505050505050565b5f60208284031215612794575f5ffd5b815161126981612352565b5f602082840312156127af575f5ffd5b81518015158114611269575f5ffd5b634e487b7160e01b5f52604160045260245ffd5b601f821115610ae457805f5260205f20601f840160051c810160208510156127f75750805b601f840160051c820191505b818110156108dd575f8155600101612803565b815167ffffffffffffffff811115612830576128306127be565b6128448161283e845461266c565b846127d2565b6020601f821160018114612876575f831561285f5750848201515b5f19600385901b1c1916600184901b1784556108dd565b5f84815260208120601f198516915b828110156128a55787850151825560209485019460019092019101612885565b50848210156128c257868401515f19600387901b60f8161c191681555b50505050600190811b01905550565b6001600160781b0382811682821603908111156106c1576106c16126b5565b6001600160781b0381811683821601908111156106c1576106c16126b5565b6001600160a01b0393909316835260208301919091526001600160781b0316604082015260600190565b634e487b7160e01b5f52602160045260245ffdfe458f5fa412d0f69b08dd84872b0215675cc67bc1d5b6fd93300a1c3878b86196ddf252ad1be2c89b69c2b068fc378daa952ba7f163c4a11628f55a4df523b3efa164736f6c634300081b000a","linkReferences":{}},"methodIdentifiers":{"ATOKEN_REVISION()":"0bd7ad3b","DOMAIN_SEPARATOR()":"3644e515","EIP712_REVISION()":"78160376","PERMIT_TYPEHASH()":"30adf81f","POOL()":"7535d246","RESERVE_TREASURY_ADDRESS()":"ae167335","REWARDS_CONTROLLER()":"cd086d45","TREASURY()":"2d2c5565","UNDERLYING_ASSET_ADDRESS()":"b16a19de","allowance(address,address)":"dd62ed3e","approve(address,uint256)":"095ea7b3","balanceOf(address)":"70a08231","burn(address,address,uint256,uint256,uint256)":"b18d6afd","decimals()":"313ce567","decreaseAllowance(address,uint256)":"a457c2d7","getIncentivesController()":"75d26413","getPreviousIndex(address)":"e0753986","getScaledUserBalanceAndSupply(address)":"0afbcdc9","increaseAllowance(address,uint256)":"39509351","initialize(address,address,uint8,string,string,bytes)":"7fdd585f","mint(address,address,uint256,uint256)":"b3f1c93d","mintToTreasury(uint256,uint256)":"7df5bd3b","name()":"06fdde03","nonces(address)":"7ecebe00","permit(address,address,uint256,uint256,uint8,bytes32,bytes32)":"d505accf","rescueTokens(address,address,uint256)":"cea9d26f","scaledBalanceOf(address)":"1da24f3e","scaledTotalSupply()":"b1bf962d","setStorage(address,address,uint256,uint256,uint256)":"1749f229","symbol()":"95d89b41","totalSupply()":"18160ddd","transfer(address,uint256)":"a9059cbb","transferFrom(address,address,uint256)":"23b872dd","transferOnLiquidation(address,address,uint256,uint256,uint256)":"353b7b9a","transferUnderlyingTo(address,uint256)":"4efecaa5","transferWithIndex(address,address,uint256,uint256)":"559b8e16"},"id":215}