{"abi":[{"type":"constructor","inputs":[{"name":"provider","type":"address","internalType":"contract IPoolAddressesProvider"}],"stateMutability":"nonpayable"},{"type":"function","name":"ADDRESSES_PROVIDER","inputs":[],"outputs":[{"name":"","type":"address","internalType":"contract IPoolAddressesProvider"}],"stateMutability":"view"},{"type":"function","name":"POOL","inputs":[],"outputs":[{"name":"","type":"address","internalType":"contract IPool"}],"stateMutability":"view"},{"type":"function","name":"executeOperation","inputs":[{"name":"assets","type":"address[]","internalType":"address[]"},{"name":"amounts","type":"uint256[]","internalType":"uint256[]"},{"name":"premiums","type":"uint256[]","internalType":"uint256[]"},{"name":"","type":"address","internalType":"address"},{"name":"","type":"bytes","internalType":"bytes"}],"outputs":[{"name":"","type":"bool","internalType":"bool"}],"stateMutability":"nonpayable"},{"type":"function","name":"getAmountToApprove","inputs":[],"outputs":[{"name":"","type":"uint256","internalType":"uint256"}],"stateMutability":"view"},{"type":"function","name":"setAmountToApprove","inputs":[{"name":"amountToApprove","type":"uint256","internalType":"uint256"}],"outputs":[],"stateMutability":"nonpayable"},{"type":"function","name":"setFailExecutionTransfer","inputs":[{"name":"fail","type":"bool","internalType":"bool"}],"outputs":[],"stateMutability":"nonpayable"},{"type":"function","name":"setSimulateEOA","inputs":[{"name":"flag","type":"bool","internalType":"bool"}],"outputs":[],"stateMutability":"nonpayable"},{"type":"function","name":"simulateEOA","inputs":[],"outputs":[{"name":"","type":"bool","internalType":"bool"}],"stateMutability":"view"},{"type":"event","name":"ExecutedWithFail","inputs":[{"name":"_assets","type":"address[]","indexed":false,"internalType":"address[]"},{"name":"_amounts","type":"uint256[]","indexed":false,"internalType":"uint256[]"},{"name":"_premiums","type":"uint256[]","indexed":false,"internalType":"uint256[]"}],"anonymous":false},{"type":"event","name":"ExecutedWithSuccess","inputs":[{"name":"_assets","type":"address[]","indexed":false,"internalType":"address[]"},{"name":"_amounts","type":"uint256[]","indexed":false,"internalType":"uint256[]"},{"name":"_premiums","type":"uint256[]","indexed":false,"internalType":"uint256[]"}],"anonymous":false}],"bytecode":{"object":"0x60c060405234801561000f575f5ffd5b506040516109da3803806109da83398101604081905261002e916100d4565b80806001600160a01b03166080816001600160a01b031681525050806001600160a01b031663026b1d5f6040518163ffffffff1660e01b8152600401602060405180830381865afa158015610085573d5f5f3e3d5ffd5b505050506040513d601f19601f820116820180604052508101906100a991906100d4565b6001600160a01b031660a052506100f69050565b6001600160a01b03811681146100d1575f5ffd5b50565b5f602082840312156100e4575f5ffd5b81516100ef816100bd565b9392505050565b60805160a0516108bd61011d5f395f818161011c01526103ff01525f608e01526108bd5ff3fe608060405234801561000f575f5ffd5b5060043610610085575f3560e01c80637535d246116100585780637535d24614610117578063920f5c841461013e578063bf443f8514610151578063e9a6a25b14610164575f5ffd5b80630542975c14610089578063388f70f1146100cd5780634444f331146100ef5780635e76bba314610106575b5f5ffd5b6100b07f000000000000000000000000000000000000000000000000000000000000000081565b6040516001600160a01b0390911681526020015b60405180910390f35b6100ed6100db3660046104dd565b5f805460ff1916911515919091179055565b005b60025460ff165b60405190151581526020016100c4565b6001546040519081526020016100c4565b6100b07f000000000000000000000000000000000000000000000000000000000000000081565b6100f661014c366004610658565b610185565b6100ed61015f36600461077f565b600155565b6100ed6101723660046104dd565b6002805460ff1916911515919091179055565b5f805460ff16156101d8577f9972b212e52913783072b960dd41527ae8b6e609d017b64039758dda0ce412788686866040516101c3939291906107d0565b60405180910390a15060025460ff16156104c4565b5f5b8651811015610484575f8782815181106101f6576101f6610845565b6020026020010151905087828151811061021257610212610845565b60209081029190910101516040516370a0823160e01b81523060048201526001600160a01b03909116906370a0823190602401602060405180830381865afa158015610260573d5f5f3e3d5ffd5b505050506040513d601f19601f820116820180604052508101906102849190610859565b87838151811061029657610296610845565b602002602001015111156102f05760405162461bcd60e51b815260206004820181905260248201527f496e76616c69642062616c616e636520666f722074686520636f6e7472616374604482015260640160405180910390fd5b5f6001545f0361033d5786838151811061030c5761030c610845565b602002602001015188848151811061032657610326610845565b60200260200101516103389190610870565b610341565b6001545b9050816001600160a01b031663a0712d6888858151811061036457610364610845565b60200260200101516040518263ffffffff1660e01b815260040161038a91815260200190565b6020604051808303815f875af11580156103a6573d5f5f3e3d5ffd5b505050506040513d601f19601f820116820180604052508101906103ca9190610895565b508883815181106103dd576103dd610845565b602090810291909101015160405163095ea7b360e01b81526001600160a01b037f000000000000000000000000000000000000000000000000000000000000000081166004830152602482018490529091169063095ea7b3906044016020604051808303815f875af1158015610455573d5f5f3e3d5ffd5b505050506040513d601f19601f820116820180604052508101906104799190610895565b5050506001016101da565b507fbd6b6bfac59612765a81cc4fdee74ab4859671fa14a562056f9eea438735a78a8686866040516104b8939291906107d0565b60405180910390a15060015b95945050505050565b80151581146104da575f5ffd5b50565b5f602082840312156104ed575f5ffd5b81356104f8816104cd565b9392505050565b634e487b7160e01b5f52604160045260245ffd5b604051601f8201601f1916810167ffffffffffffffff8111828210171561053c5761053c6104ff565b604052919050565b5f67ffffffffffffffff82111561055d5761055d6104ff565b5060051b60200190565b80356001600160a01b038116811461057d575f5ffd5b919050565b5f82601f830112610591575f5ffd5b81356105a461059f82610544565b610513565b8082825260208201915060208360051b8601019250858311156105c5575f5ffd5b602085015b838110156105e25780358352602092830192016105ca565b5095945050505050565b5f82601f8301126105fb575f5ffd5b813567ffffffffffffffff811115610615576106156104ff565b610628601f8201601f1916602001610513565b81815284602083860101111561063c575f5ffd5b816020850160208301375f918101602001919091529392505050565b5f5f5f5f5f60a0868803121561066c575f5ffd5b853567ffffffffffffffff811115610682575f5ffd5b8601601f81018813610692575f5ffd5b80356106a061059f82610544565b8082825260208201915060208360051b85010192508a8311156106c1575f5ffd5b6020840193505b828410156106ea576106d984610567565b8252602093840193909101906106c8565b9750505050602086013567ffffffffffffffff811115610708575f5ffd5b61071488828901610582565b945050604086013567ffffffffffffffff811115610730575f5ffd5b61073c88828901610582565b93505061074b60608701610567565b9150608086013567ffffffffffffffff811115610766575f5ffd5b610772888289016105ec565b9150509295509295909350565b5f6020828403121561078f575f5ffd5b5035919050565b5f8151808452602084019350602083015f5b828110156107c65781518652602095860195909101906001016107a8565b5093949350505050565b606080825284519082018190525f9060208601906080840190835b818110156108125783516001600160a01b03168352602093840193909201916001016107eb565b505083810360208501526108268187610796565b915050828103604084015261083b8185610796565b9695505050505050565b634e487b7160e01b5f52603260045260245ffd5b5f60208284031215610869575f5ffd5b5051919050565b8082018082111561088f57634e487b7160e01b5f52601160045260245ffd5b92915050565b5f602082840312156108a5575f5ffd5b81516104f8816104cd56fea164736f6c634300081b000a","linkReferences":{}},"methodIdentifiers":{"ADDRESSES_PROVIDER()":"0542975c","POOL()":"7535d246","executeOperation(address[],uint256[],uint256[],address,bytes)":"920f5c84","getAmountToApprove()":"5e76bba3","setAmountToApprove(uint256)":"bf443f85","setFailExecutionTransfer(bool)":"388f70f1","setSimulateEOA(bool)":"e9a6a25b","simulateEOA()":"4444f331"},"id":181}