{"abi":[{"type":"constructor","inputs":[{"name":"provider","type":"address","internalType":"contract IPoolAddressesProvider"},{"name":"interestRateStrategy","type":"address","internalType":"contract IReserveInterestRateStrategy"}],"stateMutability":"nonpayable"},{"type":"function","name":"ADDRESSES_PROVIDER","inputs":[],"outputs":[{"name":"","type":"address","internalType":"contract IPoolAddressesProvider"}],"stateMutability":"view"},{"type":"function","name":"FLASHLOAN_PREMIUM_TOTAL","inputs":[],"outputs":[{"name":"","type":"uint128","internalType":"uint128"}],"stateMutability":"view"},{"type":"function","name":"FLASHLOAN_PREMIUM_TO_PROTOCOL","inputs":[],"outputs":[{"name":"","type":"uint128","internalType":"uint128"}],"stateMutability":"view"},{"type":"function","name":"MAX_NUMBER_RESERVES","inputs":[],"outputs":[{"name":"","type":"uint16","internalType":"uint16"}],"stateMutability":"view"},{"type":"function","name":"POOL_REVISION","inputs":[],"outputs":[{"name":"","type":"uint256","internalType":"uint256"}],"stateMutability":"view"},{"type":"function","name":"RESERVE_INTEREST_RATE_STRATEGY","inputs":[],"outputs":[{"name":"","type":"address","internalType":"address"}],"stateMutability":"view"},{"type":"function","name":"UMBRELLA","inputs":[],"outputs":[{"name":"","type":"bytes32","internalType":"bytes32"}],"stateMutability":"view"},{"type":"function","name":"approvePositionManager","inputs":[{"name":"positionManager","type":"address","internalType":"address"},{"name":"approve","type":"bool","internalType":"bool"}],"outputs":[],"stateMutability":"nonpayable"},{"type":"function","name":"borrow","inputs":[{"name":"asset","type":"address","internalType":"address"},{"name":"amount","type":"uint256","internalType":"uint256"},{"name":"interestRateMode","type":"uint256","internalType":"uint256"},{"name":"referralCode","type":"uint16","internalType":"uint16"},{"name":"onBehalfOf","type":"address","internalType":"address"}],"outputs":[],"stateMutability":"nonpayable"},{"type":"function","name":"borrow","inputs":[{"name":"args","type":"bytes32","internalType":"bytes32"}],"outputs":[],"stateMutability":"nonpayable"},{"type":"function","name":"configureEModeCategory","inputs":[{"name":"id","type":"uint8","internalType":"uint8"},{"name":"category","type":"tuple","internalType":"struct DataTypes.EModeCategoryBaseConfiguration","components":[{"name":"ltv","type":"uint16","internalType":"uint16"},{"name":"liquidationThreshold","type":"uint16","internalType":"uint16"},{"name":"liquidationBonus","type":"uint16","internalType":"uint16"},{"name":"label","type":"string","internalType":"string"}]}],"outputs":[],"stateMutability":"nonpayable"},{"type":"function","name":"configureEModeCategoryBorrowableBitmap","inputs":[{"name":"id","type":"uint8","internalType":"uint8"},{"name":"borrowableBitmap","type":"uint128","internalType":"uint128"}],"outputs":[],"stateMutability":"nonpayable"},{"type":"function","name":"configureEModeCategoryCollateralBitmap","inputs":[{"name":"id","type":"uint8","internalType":"uint8"},{"name":"collateralBitmap","type":"uint128","internalType":"uint128"}],"outputs":[],"stateMutability":"nonpayable"},{"type":"function","name":"deposit","inputs":[{"name":"asset","type":"address","internalType":"address"},{"name":"amount","type":"uint256","internalType":"uint256"},{"name":"onBehalfOf","type":"address","internalType":"address"},{"name":"referralCode","type":"uint16","internalType":"uint16"}],"outputs":[],"stateMutability":"nonpayable"},{"type":"function","name":"dropReserve","inputs":[{"name":"asset","type":"address","internalType":"address"}],"outputs":[],"stateMutability":"nonpayable"},{"type":"function","name":"eliminateReserveDeficit","inputs":[{"name":"asset","type":"address","internalType":"address"},{"name":"amount","type":"uint256","internalType":"uint256"}],"outputs":[{"name":"","type":"uint256","internalType":"uint256"}],"stateMutability":"nonpayable"},{"type":"function","name":"finalizeTransfer","inputs":[{"name":"asset","type":"address","internalType":"address"},{"name":"from","type":"address","internalType":"address"},{"name":"to","type":"address","internalType":"address"},{"name":"scaledAmount","type":"uint256","internalType":"uint256"},{"name":"scaledBalanceFromBefore","type":"uint256","internalType":"uint256"},{"name":"scaledBalanceToBefore","type":"uint256","internalType":"uint256"}],"outputs":[],"stateMutability":"nonpayable"},{"type":"function","name":"flashLoan","inputs":[{"name":"receiverAddress","type":"address","internalType":"address"},{"name":"assets","type":"address[]","internalType":"address[]"},{"name":"amounts","type":"uint256[]","internalType":"uint256[]"},{"name":"interestRateModes","type":"uint256[]","internalType":"uint256[]"},{"name":"onBehalfOf","type":"address","internalType":"address"},{"name":"params","type":"bytes","internalType":"bytes"},{"name":"referralCode","type":"uint16","internalType":"uint16"}],"outputs":[],"stateMutability":"nonpayable"},{"type":"function","name":"flashLoanSimple","inputs":[{"name":"receiverAddress","type":"address","internalType":"address"},{"name":"asset","type":"address","internalType":"address"},{"name":"amount","type":"uint256","internalType":"uint256"},{"name":"params","type":"bytes","internalType":"bytes"},{"name":"referralCode","type":"uint16","internalType":"uint16"}],"outputs":[],"stateMutability":"nonpayable"},{"type":"function","name":"getBorrowLogic","inputs":[],"outputs":[{"name":"","type":"address","internalType":"address"}],"stateMutability":"pure"},{"type":"function","name":"getConfiguration","inputs":[{"name":"asset","type":"address","internalType":"address"}],"outputs":[{"name":"","type":"tuple","internalType":"struct DataTypes.ReserveConfigurationMap","components":[{"name":"data","type":"uint256","internalType":"uint256"}]}],"stateMutability":"view"},{"type":"function","name":"getEModeCategoryBorrowableBitmap","inputs":[{"name":"id","type":"uint8","internalType":"uint8"}],"outputs":[{"name":"","type":"uint128","internalType":"uint128"}],"stateMutability":"view"},{"type":"function","name":"getEModeCategoryCollateralBitmap","inputs":[{"name":"id","type":"uint8","internalType":"uint8"}],"outputs":[{"name":"","type":"uint128","internalType":"uint128"}],"stateMutability":"view"},{"type":"function","name":"getEModeCategoryCollateralConfig","inputs":[{"name":"id","type":"uint8","internalType":"uint8"}],"outputs":[{"name":"res","type":"tuple","internalType":"struct DataTypes.CollateralConfig","components":[{"name":"ltv","type":"uint16","internalType":"uint16"},{"name":"liquidationThreshold","type":"uint16","internalType":"uint16"},{"name":"liquidationBonus","type":"uint16","internalType":"uint16"}]}],"stateMutability":"view"},{"type":"function","name":"getEModeCategoryData","inputs":[{"name":"id","type":"uint8","internalType":"uint8"}],"outputs":[{"name":"","type":"tuple","internalType":"struct DataTypes.EModeCategoryLegacy","components":[{"name":"ltv","type":"uint16","internalType":"uint16"},{"name":"liquidationThreshold","type":"uint16","internalType":"uint16"},{"name":"liquidationBonus","type":"uint16","internalType":"uint16"},{"name":"priceSource","type":"address","internalType":"address"},{"name":"label","type":"string","internalType":"string"}]}],"stateMutability":"view"},{"type":"function","name":"getEModeCategoryLabel","inputs":[{"name":"id","type":"uint8","internalType":"uint8"}],"outputs":[{"name":"","type":"string","internalType":"string"}],"stateMutability":"view"},{"type":"function","name":"getEModeLogic","inputs":[],"outputs":[{"name":"","type":"address","internalType":"address"}],"stateMutability":"pure"},{"type":"function","name":"getFlashLoanLogic","inputs":[],"outputs":[{"name":"","type":"address","internalType":"address"}],"stateMutability":"pure"},{"type":"function","name":"getLiquidationGracePeriod","inputs":[{"name":"asset","type":"address","internalType":"address"}],"outputs":[{"name":"","type":"uint40","internalType":"uint40"}],"stateMutability":"view"},{"type":"function","name":"getLiquidationLogic","inputs":[],"outputs":[{"name":"","type":"address","internalType":"address"}],"stateMutability":"pure"},{"type":"function","name":"getPoolLogic","inputs":[],"outputs":[{"name":"","type":"address","internalType":"address"}],"stateMutability":"pure"},{"type":"function","name":"getReserveAToken","inputs":[{"name":"asset","type":"address","internalType":"address"}],"outputs":[{"name":"","type":"address","internalType":"address"}],"stateMutability":"view"},{"type":"function","name":"getReserveAddressById","inputs":[{"name":"id","type":"uint16","internalType":"uint16"}],"outputs":[{"name":"","type":"address","internalType":"address"}],"stateMutability":"view"},{"type":"function","name":"getReserveData","inputs":[{"name":"asset","type":"address","internalType":"address"}],"outputs":[{"name":"res","type":"tuple","internalType":"struct DataTypes.ReserveDataLegacy","components":[{"name":"configuration","type":"tuple","internalType":"struct DataTypes.ReserveConfigurationMap","components":[{"name":"data","type":"uint256","internalType":"uint256"}]},{"name":"liquidityIndex","type":"uint128","internalType":"uint128"},{"name":"currentLiquidityRate","type":"uint128","internalType":"uint128"},{"name":"variableBorrowIndex","type":"uint128","internalType":"uint128"},{"name":"currentVariableBorrowRate","type":"uint128","internalType":"uint128"},{"name":"currentStableBorrowRate","type":"uint128","internalType":"uint128"},{"name":"lastUpdateTimestamp","type":"uint40","internalType":"uint40"},{"name":"id","type":"uint16","internalType":"uint16"},{"name":"aTokenAddress","type":"address","internalType":"address"},{"name":"stableDebtTokenAddress","type":"address","internalType":"address"},{"name":"variableDebtTokenAddress","type":"address","internalType":"address"},{"name":"interestRateStrategyAddress","type":"address","internalType":"address"},{"name":"accruedToTreasury","type":"uint128","internalType":"uint128"},{"name":"unbacked","type":"uint128","internalType":"uint128"},{"name":"isolationModeTotalDebt","type":"uint128","internalType":"uint128"}]}],"stateMutability":"view"},{"type":"function","name":"getReserveDeficit","inputs":[{"name":"asset","type":"address","internalType":"address"}],"outputs":[{"name":"","type":"uint256","internalType":"uint256"}],"stateMutability":"view"},{"type":"function","name":"getReserveNormalizedIncome","inputs":[{"name":"asset","type":"address","internalType":"address"}],"outputs":[{"name":"","type":"uint256","internalType":"uint256"}],"stateMutability":"view"},{"type":"function","name":"getReserveNormalizedVariableDebt","inputs":[{"name":"asset","type":"address","internalType":"address"}],"outputs":[{"name":"","type":"uint256","internalType":"uint256"}],"stateMutability":"view"},{"type":"function","name":"getReserveVariableDebtToken","inputs":[{"name":"asset","type":"address","internalType":"address"}],"outputs":[{"name":"","type":"address","internalType":"address"}],"stateMutability":"view"},{"type":"function","name":"getReservesCount","inputs":[],"outputs":[{"name":"","type":"uint256","internalType":"uint256"}],"stateMutability":"view"},{"type":"function","name":"getReservesList","inputs":[],"outputs":[{"name":"","type":"address[]","internalType":"address[]"}],"stateMutability":"view"},{"type":"function","name":"getSupplyLogic","inputs":[],"outputs":[{"name":"","type":"address","internalType":"address"}],"stateMutability":"pure"},{"type":"function","name":"getUserAccountData","inputs":[{"name":"user","type":"address","internalType":"address"}],"outputs":[{"name":"totalCollateralBase","type":"uint256","internalType":"uint256"},{"name":"totalDebtBase","type":"uint256","internalType":"uint256"},{"name":"availableBorrowsBase","type":"uint256","internalType":"uint256"},{"name":"currentLiquidationThreshold","type":"uint256","internalType":"uint256"},{"name":"ltv","type":"uint256","internalType":"uint256"},{"name":"healthFactor","type":"uint256","internalType":"uint256"}],"stateMutability":"view"},{"type":"function","name":"getUserConfiguration","inputs":[{"name":"user","type":"address","internalType":"address"}],"outputs":[{"name":"","type":"tuple","internalType":"struct DataTypes.UserConfigurationMap","components":[{"name":"data","type":"uint256","internalType":"uint256"}]}],"stateMutability":"view"},{"type":"function","name":"getUserEMode","inputs":[{"name":"user","type":"address","internalType":"address"}],"outputs":[{"name":"","type":"uint256","internalType":"uint256"}],"stateMutability":"view"},{"type":"function","name":"getVirtualUnderlyingBalance","inputs":[{"name":"asset","type":"address","internalType":"address"}],"outputs":[{"name":"","type":"uint128","internalType":"uint128"}],"stateMutability":"view"},{"type":"function","name":"initReserve","inputs":[{"name":"asset","type":"address","internalType":"address"},{"name":"aTokenAddress","type":"address","internalType":"address"},{"name":"variableDebtAddress","type":"address","internalType":"address"}],"outputs":[],"stateMutability":"nonpayable"},{"type":"function","name":"initialize","inputs":[{"name":"provider","type":"address","internalType":"contract IPoolAddressesProvider"}],"outputs":[],"stateMutability":"nonpayable"},{"type":"function","name":"isApprovedPositionManager","inputs":[{"name":"user","type":"address","internalType":"address"},{"name":"positionManager","type":"address","internalType":"address"}],"outputs":[{"name":"","type":"bool","internalType":"bool"}],"stateMutability":"view"},{"type":"function","name":"liquidationCall","inputs":[{"name":"collateralAsset","type":"address","internalType":"address"},{"name":"debtAsset","type":"address","internalType":"address"},{"name":"borrower","type":"address","internalType":"address"},{"name":"debtToCover","type":"uint256","internalType":"uint256"},{"name":"receiveAToken","type":"bool","internalType":"bool"}],"outputs":[],"stateMutability":"nonpayable"},{"type":"function","name":"liquidationCall","inputs":[{"name":"args1","type":"bytes32","internalType":"bytes32"},{"name":"args2","type":"bytes32","internalType":"bytes32"}],"outputs":[],"stateMutability":"nonpayable"},{"type":"function","name":"mintToTreasury","inputs":[{"name":"assets","type":"address[]","internalType":"address[]"}],"outputs":[],"stateMutability":"nonpayable"},{"type":"function","name":"multicall","inputs":[{"name":"data","type":"bytes[]","internalType":"bytes[]"}],"outputs":[{"name":"results","type":"bytes[]","internalType":"bytes[]"}],"stateMutability":"nonpayable"},{"type":"function","name":"renouncePositionManagerRole","inputs":[{"name":"user","type":"address","internalType":"address"}],"outputs":[],"stateMutability":"nonpayable"},{"type":"function","name":"repay","inputs":[{"name":"args","type":"bytes32","internalType":"bytes32"}],"outputs":[{"name":"","type":"uint256","internalType":"uint256"}],"stateMutability":"nonpayable"},{"type":"function","name":"repay","inputs":[{"name":"asset","type":"address","internalType":"address"},{"name":"amount","type":"uint256","internalType":"uint256"},{"name":"interestRateMode","type":"uint256","internalType":"uint256"},{"name":"onBehalfOf","type":"address","internalType":"address"}],"outputs":[{"name":"","type":"uint256","internalType":"uint256"}],"stateMutability":"nonpayable"},{"type":"function","name":"repayWithATokens","inputs":[{"name":"asset","type":"address","internalType":"address"},{"name":"amount","type":"uint256","internalType":"uint256"},{"name":"interestRateMode","type":"uint256","internalType":"uint256"}],"outputs":[{"name":"","type":"uint256","internalType":"uint256"}],"stateMutability":"nonpayable"},{"type":"function","name":"repayWithATokens","inputs":[{"name":"args","type":"bytes32","internalType":"bytes32"}],"outputs":[{"name":"","type":"uint256","internalType":"uint256"}],"stateMutability":"nonpayable"},{"type":"function","name":"repayWithPermit","inputs":[{"name":"args","type":"bytes32","internalType":"bytes32"},{"name":"r","type":"bytes32","internalType":"bytes32"},{"name":"s","type":"bytes32","internalType":"bytes32"}],"outputs":[{"name":"","type":"uint256","internalType":"uint256"}],"stateMutability":"nonpayable"},{"type":"function","name":"repayWithPermit","inputs":[{"name":"asset","type":"address","internalType":"address"},{"name":"amount","type":"uint256","internalType":"uint256"},{"name":"interestRateMode","type":"uint256","internalType":"uint256"},{"name":"onBehalfOf","type":"address","internalType":"address"},{"name":"deadline","type":"uint256","internalType":"uint256"},{"name":"permitV","type":"uint8","internalType":"uint8"},{"name":"permitR","type":"bytes32","internalType":"bytes32"},{"name":"permitS","type":"bytes32","internalType":"bytes32"}],"outputs":[{"name":"","type":"uint256","internalType":"uint256"}],"stateMutability":"nonpayable"},{"type":"function","name":"rescueTokens","inputs":[{"name":"token","type":"address","internalType":"address"},{"name":"to","type":"address","internalType":"address"},{"name":"amount","type":"uint256","internalType":"uint256"}],"outputs":[],"stateMutability":"nonpayable"},{"type":"function","name":"resetIsolationModeTotalDebt","inputs":[{"name":"asset","type":"address","internalType":"address"}],"outputs":[],"stateMutability":"nonpayable"},{"type":"function","name":"setConfiguration","inputs":[{"name":"asset","type":"address","internalType":"address"},{"name":"configuration","type":"tuple","internalType":"struct DataTypes.ReserveConfigurationMap","components":[{"name":"data","type":"uint256","internalType":"uint256"}]}],"outputs":[],"stateMutability":"nonpayable"},{"type":"function","name":"setLiquidationGracePeriod","inputs":[{"name":"asset","type":"address","internalType":"address"},{"name":"until","type":"uint40","internalType":"uint40"}],"outputs":[],"stateMutability":"nonpayable"},{"type":"function","name":"setUserEMode","inputs":[{"name":"categoryId","type":"uint8","internalType":"uint8"}],"outputs":[],"stateMutability":"nonpayable"},{"type":"function","name":"setUserEModeOnBehalfOf","inputs":[{"name":"categoryId","type":"uint8","internalType":"uint8"},{"name":"onBehalfOf","type":"address","internalType":"address"}],"outputs":[],"stateMutability":"nonpayable"},{"type":"function","name":"setUserUseReserveAsCollateral","inputs":[{"name":"args","type":"bytes32","internalType":"bytes32"}],"outputs":[],"stateMutability":"nonpayable"},{"type":"function","name":"setUserUseReserveAsCollateral","inputs":[{"name":"asset","type":"address","internalType":"address"},{"name":"useAsCollateral","type":"bool","internalType":"bool"}],"outputs":[],"stateMutability":"nonpayable"},{"type":"function","name":"setUserUseReserveAsCollateralOnBehalfOf","inputs":[{"name":"asset","type":"address","internalType":"address"},{"name":"useAsCollateral","type":"bool","internalType":"bool"},{"name":"onBehalfOf","type":"address","internalType":"address"}],"outputs":[],"stateMutability":"nonpayable"},{"type":"function","name":"supply","inputs":[{"name":"asset","type":"address","internalType":"address"},{"name":"amount","type":"uint256","internalType":"uint256"},{"name":"onBehalfOf","type":"address","internalType":"address"},{"name":"referralCode","type":"uint16","internalType":"uint16"}],"outputs":[],"stateMutability":"nonpayable"},{"type":"function","name":"supply","inputs":[{"name":"args","type":"bytes32","internalType":"bytes32"}],"outputs":[],"stateMutability":"nonpayable"},{"type":"function","name":"supplyWithPermit","inputs":[{"name":"asset","type":"address","internalType":"address"},{"name":"amount","type":"uint256","internalType":"uint256"},{"name":"onBehalfOf","type":"address","internalType":"address"},{"name":"referralCode","type":"uint16","internalType":"uint16"},{"name":"deadline","type":"uint256","internalType":"uint256"},{"name":"permitV","type":"uint8","internalType":"uint8"},{"name":"permitR","type":"bytes32","internalType":"bytes32"},{"name":"permitS","type":"bytes32","internalType":"bytes32"}],"outputs":[],"stateMutability":"nonpayable"},{"type":"function","name":"supplyWithPermit","inputs":[{"name":"args","type":"bytes32","internalType":"bytes32"},{"name":"r","type":"bytes32","internalType":"bytes32"},{"name":"s","type":"bytes32","internalType":"bytes32"}],"outputs":[],"stateMutability":"nonpayable"},{"type":"function","name":"syncIndexesState","inputs":[{"name":"asset","type":"address","internalType":"address"}],"outputs":[],"stateMutability":"nonpayable"},{"type":"function","name":"syncRatesState","inputs":[{"name":"asset","type":"address","internalType":"address"}],"outputs":[],"stateMutability":"nonpayable"},{"type":"function","name":"updateFlashloanPremium","inputs":[{"name":"flashLoanPremium","type":"uint128","internalType":"uint128"}],"outputs":[],"stateMutability":"nonpayable"},{"type":"function","name":"withdraw","inputs":[{"name":"asset","type":"address","internalType":"address"},{"name":"amount","type":"uint256","internalType":"uint256"},{"name":"to","type":"address","internalType":"address"}],"outputs":[{"name":"","type":"uint256","internalType":"uint256"}],"stateMutability":"nonpayable"},{"type":"function","name":"withdraw","inputs":[{"name":"args","type":"bytes32","internalType":"bytes32"}],"outputs":[{"name":"","type":"uint256","internalType":"uint256"}],"stateMutability":"nonpayable"},{"type":"event","name":"Borrow","inputs":[{"name":"reserve","type":"address","indexed":true,"internalType":"address"},{"name":"user","type":"address","indexed":false,"internalType":"address"},{"name":"onBehalfOf","type":"address","indexed":true,"internalType":"address"},{"name":"amount","type":"uint256","indexed":false,"internalType":"uint256"},{"name":"interestRateMode","type":"uint8","indexed":false,"internalType":"enum DataTypes.InterestRateMode"},{"name":"borrowRate","type":"uint256","indexed":false,"internalType":"uint256"},{"name":"referralCode","type":"uint16","indexed":true,"internalType":"uint16"}],"anonymous":false},{"type":"event","name":"DeficitCovered","inputs":[{"name":"reserve","type":"address","indexed":true,"internalType":"address"},{"name":"caller","type":"address","indexed":false,"internalType":"address"},{"name":"amountCovered","type":"uint256","indexed":false,"internalType":"uint256"}],"anonymous":false},{"type":"event","name":"DeficitCreated","inputs":[{"name":"user","type":"address","indexed":true,"internalType":"address"},{"name":"debtAsset","type":"address","indexed":true,"internalType":"address"},{"name":"amountCreated","type":"uint256","indexed":false,"internalType":"uint256"}],"anonymous":false},{"type":"event","name":"FlashLoan","inputs":[{"name":"target","type":"address","indexed":true,"internalType":"address"},{"name":"initiator","type":"address","indexed":false,"internalType":"address"},{"name":"asset","type":"address","indexed":true,"internalType":"address"},{"name":"amount","type":"uint256","indexed":false,"internalType":"uint256"},{"name":"interestRateMode","type":"uint8","indexed":false,"internalType":"enum DataTypes.InterestRateMode"},{"name":"premium","type":"uint256","indexed":false,"internalType":"uint256"},{"name":"referralCode","type":"uint16","indexed":true,"internalType":"uint16"}],"anonymous":false},{"type":"event","name":"IsolationModeTotalDebtUpdated","inputs":[{"name":"asset","type":"address","indexed":true,"internalType":"address"},{"name":"totalDebt","type":"uint256","indexed":false,"internalType":"uint256"}],"anonymous":false},{"type":"event","name":"LiquidationCall","inputs":[{"name":"collateralAsset","type":"address","indexed":true,"internalType":"address"},{"name":"debtAsset","type":"address","indexed":true,"internalType":"address"},{"name":"user","type":"address","indexed":true,"internalType":"address"},{"name":"debtToCover","type":"uint256","indexed":false,"internalType":"uint256"},{"name":"liquidatedCollateralAmount","type":"uint256","indexed":false,"internalType":"uint256"},{"name":"liquidator","type":"address","indexed":false,"internalType":"address"},{"name":"receiveAToken","type":"bool","indexed":false,"internalType":"bool"}],"anonymous":false},{"type":"event","name":"MintedToTreasury","inputs":[{"name":"reserve","type":"address","indexed":true,"internalType":"address"},{"name":"amountMinted","type":"uint256","indexed":false,"internalType":"uint256"}],"anonymous":false},{"type":"event","name":"PositionManagerApproved","inputs":[{"name":"user","type":"address","indexed":true,"internalType":"address"},{"name":"positionManager","type":"address","indexed":true,"internalType":"address"}],"anonymous":false},{"type":"event","name":"PositionManagerRevoked","inputs":[{"name":"user","type":"address","indexed":true,"internalType":"address"},{"name":"positionManager","type":"address","indexed":true,"internalType":"address"}],"anonymous":false},{"type":"event","name":"Repay","inputs":[{"name":"reserve","type":"address","indexed":true,"internalType":"address"},{"name":"user","type":"address","indexed":true,"internalType":"address"},{"name":"repayer","type":"address","indexed":true,"internalType":"address"},{"name":"amount","type":"uint256","indexed":false,"internalType":"uint256"},{"name":"useATokens","type":"bool","indexed":false,"internalType":"bool"}],"anonymous":false},{"type":"event","name":"ReserveDataUpdated","inputs":[{"name":"reserve","type":"address","indexed":true,"internalType":"address"},{"name":"liquidityRate","type":"uint256","indexed":false,"internalType":"uint256"},{"name":"stableBorrowRate","type":"uint256","indexed":false,"internalType":"uint256"},{"name":"variableBorrowRate","type":"uint256","indexed":false,"internalType":"uint256"},{"name":"liquidityIndex","type":"uint256","indexed":false,"internalType":"uint256"},{"name":"variableBorrowIndex","type":"uint256","indexed":false,"internalType":"uint256"}],"anonymous":false},{"type":"event","name":"ReserveUsedAsCollateralDisabled","inputs":[{"name":"reserve","type":"address","indexed":true,"internalType":"address"},{"name":"user","type":"address","indexed":true,"internalType":"address"}],"anonymous":false},{"type":"event","name":"ReserveUsedAsCollateralEnabled","inputs":[{"name":"reserve","type":"address","indexed":true,"internalType":"address"},{"name":"user","type":"address","indexed":true,"internalType":"address"}],"anonymous":false},{"type":"event","name":"Supply","inputs":[{"name":"reserve","type":"address","indexed":true,"internalType":"address"},{"name":"user","type":"address","indexed":false,"internalType":"address"},{"name":"onBehalfOf","type":"address","indexed":true,"internalType":"address"},{"name":"amount","type":"uint256","indexed":false,"internalType":"uint256"},{"name":"referralCode","type":"uint16","indexed":true,"internalType":"uint16"}],"anonymous":false},{"type":"event","name":"UserEModeSet","inputs":[{"name":"user","type":"address","indexed":true,"internalType":"address"},{"name":"categoryId","type":"uint8","indexed":false,"internalType":"uint8"}],"anonymous":false},{"type":"event","name":"Withdraw","inputs":[{"name":"reserve","type":"address","indexed":true,"internalType":"address"},{"name":"user","type":"address","indexed":true,"internalType":"address"},{"name":"to","type":"address","indexed":true,"internalType":"address"},{"name":"amount","type":"uint256","indexed":false,"internalType":"uint256"}],"anonymous":false},{"type":"error","name":"AddressEmptyCode","inputs":[{"name":"target","type":"address","internalType":"address"}]},{"type":"error","name":"AssetNotListed","inputs":[]},{"type":"error","name":"CallerNotAToken","inputs":[]},{"type":"error","name":"CallerNotPoolAdmin","inputs":[]},{"type":"error","name":"CallerNotPoolConfigurator","inputs":[]},{"type":"error","name":"CallerNotPositionManager","inputs":[]},{"type":"error","name":"CallerNotUmbrella","inputs":[]},{"type":"error","name":"EModeCategoryReserved","inputs":[]},{"type":"error","name":"FailedCall","inputs":[]},{"type":"error","name":"InvalidAddressesProvider","inputs":[]},{"type":"error","name":"ZeroAddressNotValid","inputs":[]}],"bytecode":{"object":"0x60c06040525f5f55348015610012575f5ffd5b50604051615a84380380615a84833981016040819052610031916100b0565b81818181818161003f610087565b5f556001600160a01b03808316608052811661006e57604051633bf95ba760e01b815260040160405180910390fd5b6001600160a01b031660a0525061010d95505050505050565b5f610094600960016100e8565b905090565b6001600160a01b03811681146100ad575f5ffd5b50565b5f5f604083850312156100c1575f5ffd5b82516100cc81610099565b60208401519092506100dd81610099565b809150509250929050565b8082018082111561010757634e487b7160e01b5f52601160045260245ffd5b92915050565b60805160a05161586f6102155f395f81816104fd01528181610ed001528181611021015281816112ee01528181611599015281816116f3015281816119e401528181611cff01528181611e9501528181612561015281816127000152818161284e01528181612b48015261379a01525f818161049901528181610d9901528181610e55015281816111a7015281816113630152818161160d0152818161185001528181611a5801528181611ba301528181611ed90152818161245e01528181612640015281816128be0152818161297a01528181612be2015281816130b5015281816132bc015281816135370152818161380e01528181613c980152613e83015261586f5ff3fe608060405234801561000f575f5ffd5b506004361061044d575f3560e01c8063932f12c811610242578063cea9d26f11610140578063eddf1b79116100bf578063f8119d5111610084578063f8119d5114610c86578063f9c2bd8714610c95578063fd21ecff14610ce0578063fea149a614610cf3578063ff72158a14610d06575f5ffd5b8063eddf1b7914610c08578063ee3e210b14610c33578063f32b9a7314610c46578063f51e435b14610c60578063f7a7384014610c73575f5ffd5b8063d5ed393311610105578063d5ed393314610bbc578063d5eed86814610bcf578063dc7c0bff14610be2578063e43e88a114610bf5578063e8eda9df14610737575f5ffd5b8063cea9d26f14610b39578063cff027d914610b4c578063d15e005314610b7a578063d1946dbc14610b8d578063d335015514610ba2575f5ffd5b8063ab9c4b5d116101cc578063b8caa7c511610191578063b8caa7c514610a5e578063bf92857c14610a71578063c44b11f714610ab1578063c4d66de814610af2578063c952485d14610b05575f5ffd5b8063ab9c4b5d14610951578063ac9650d814610964578063b0771dba14610984578063b1a99e26146109b9578063b286f467146109cc575f5ffd5b80639c1d5f00116102125780639c1d5f00146108f25780639cd1999614610905578063a1d2f3c414610918578063a415bcad1461092b578063ab2b51f61461093e575f5ffd5b8063932f12c8146108a657806394b576de146108b9578063972b35fa146108cc57806398c7da4e146108df575f5ffd5b8063563dd6131161034f5780636c6f6ae1116102d9578063870e77441161029e578063870e77441461081e5780638e19899e14610838578063903a2c711461084b578063911a34131461087957806392380ecb14610893575f5ffd5b80636c6f6ae11461078b5780636fb07f96146107ab57806371459c15146107e657806372218d04146107f85780637b75d7f41461080b575f5ffd5b8063617ba0371161031f578063617ba0371461073757806363c9b8601461074a578063680dd47c1461075d57806369328dec146107705780636a99c03614610783575f5ffd5b8063563dd613146106af578063573ade81146106c25780635a3b74b9146106d55780635c9a8b18146106e8575f5ffd5b80632dad97d4116103db57806342b0b77c116103a057806342b0b77c146105fa5780634417a5831461060d5780634ba068141461065d5780634d013f03146106705780635275179714610683575f5ffd5b80632dad97d41461056c578063348fde0f1461057f57806335ea6a7514610599578063365090a0146105b9578063386497fd146105e7575f5ffd5b8063074b2e4311610421578063074b2e43146104d35780631b8feb0e146104f85780632083e1831461051f57806328530a471461053f5780632be29fa714610552575f5ffd5b8062a718a9146104515780630148170e1461046657806302c205f0146104815780630542975c14610494575b5f5ffd5b61046461045f366004614257565b610d19565b005b61046e600981565b6040519081526020015b60405180910390f35b61046461048f3660046142dc565b610f4e565b6104bb7f000000000000000000000000000000000000000000000000000000000000000081565b6040516001600160a01b039091168152602001610478565b603a546001600160801b03165b6040516001600160801b039091168152602001610478565b6104bb7f000000000000000000000000000000000000000000000000000000000000000081565b61053261052d366004614356565b6110c0565b60405161047891906143bc565b61046461054d366004614356565b611166565b73__$83e702f37eeb79ca6ea8c03d9bc14d29cb$__6104bb565b61046e61057a3660046143ce565b611278565b73__$1aecd72e546835de8d2664e100f70770e0$__6104bb565b6105ac6105a7366004614400565b611474565b604051610478919061441b565b6104bb6105c7366004614400565b6001600160a01b039081165f908152603460205260409020600601541690565b61046e6105f5366004614400565b61168b565b6104646106083660046145e9565b6116b1565b61064e61061b366004614400565b60408051602080820183525f918290526001600160a01b0393909316815260358352819020815192830190915254815290565b60405190518152602001610478565b61046461066b366004614665565b6117fe565b61046461067e36600461469a565b611923565b6104bb6106913660046146b1565b61ffff165f908152603660205260409020546001600160a01b031690565b61046e6106bd36600461469a565b611943565b61046e6106d03660046146ca565b61196e565b6104646106e3366004614711565b611b62565b6107216106f6366004614400565b6001600160a01b03165f90815260346020526040902060030154600160b81b900464ffffffffff1690565b60405164ffffffffff9091168152602001610478565b61046461074536600461473d565b611c8d565b610464610758366004614400565b611d9a565b61046461076b36600461478b565b611df0565b61046e61077e3660046147b4565b611e20565b6127106104e0565b61079e610799366004614356565b611fa1565b60405161047891906147f3565b6104e06107b9366004614400565b6001600160a01b03165f90815260346020526040902060080154600160801b90046001600160801b031690565b61046e67554d4252454c4c4160c01b81565b603b54600160401b900461ffff1661046e565b610464610819366004614849565b6120b1565b73__$91b47d451814c731a99462488968bab857$__6104bb565b61046e61084636600461469a565b6121c2565b6104e0610859366004614356565b60ff165f908152603760205260409020600201546001600160801b031690565b73__$6d137c64be18f5cad883104c2a9fa60a79$__6104bb565b6104646108a13660046148a4565b6121e8565b6104646108b43660046148d5565b61225e565b61046e6108c736600461478b565b6123ce565b6104646108da366004614912565b61240c565b6104646108ed366004614400565b612521565b61046461090036600461493f565b6125ac565b610464610913366004614998565b6125d6565b61046e6109263660046149d6565b612612565b610464610939366004614a00565b6127ca565b61046461094c366004614400565b612a11565b61046461095f366004614a4b565b612a6a565b610977610972366004614998565b612d93565b6040516104789190614b46565b6104e0610992366004614356565b60ff165f90815260376020526040902054660100000000000090046001600160801b031690565b6104646109c7366004614ba9565b612e78565b610a316109da366004614356565b604080516060810182525f808252602080830182815283850183815260ff9690961680845260378084529584205461ffff808216875262010000820481169093529352939052640100000000900490911690915290565b60408051825161ffff90811682526020808501518216908301529282015190921690820152606001610478565b610464610a6c366004614711565b612f58565b610a84610a7f366004614400565b613037565b604080519687526020870195909552938501929092526060840152608083015260a082015260c001610478565b61064e610abf366004614400565b60408051602080820183525f918290526001600160a01b0393909316815260348352819020815192830190915254815290565b610464610b00366004614400565b61320d565b61046e610b13366004614400565b6001600160a01b03165f908152603460205260409020600301546001600160801b031690565b610464610b47366004614bde565b613321565b6104bb610b5a366004614400565b6001600160a01b039081165f908152603460205260409020600401541690565b61046e610b88366004614400565b613378565b610b95613398565b6040516104789190614c1c565b73__$5c81c34ced5c181849a1f58b32d6fe0e6c$__6104bb565b610464610bca366004614c67565b61348c565b610464610bdd36600461469a565b613636565b61046e610bf036600461469a565b613695565b610464610c03366004614400565b6136b5565b61046e610c16366004614400565b6001600160a01b03165f9081526038602052604090205460ff1690565b61046e610c41366004614cc8565b613704565b73__$3e9faf92b4e65bc494281f12b43a229306$__6104bb565b610464610c6e366004614d09565b613951565b610464610c8136600461469a565b613a28565b60405160808152602001610478565b610cd0610ca3366004614d47565b6001600160a01b039182165f908152603c6020908152604080832093909416825291909152205460ff1690565b6040519015158152602001610478565b610464610cee366004614d63565b613a4e565b610464610d01366004614400565b613a76565b610464610d143660046148a4565b613afc565b73__$6d137c64be18f5cad883104c2a9fa60a79$__6383c1087d6034603660356037604051806101400160405280610d4e3390565b6001600160a01b031681526020018981526020018c6001600160a01b031681526020018b6001600160a01b031681526020018a6001600160a01b0316815260200188151581526020017f00000000000000000000000000000000000000000000000000000000000000006001600160a01b031663fca513a86040518163ffffffff1660e01b8152600401602060405180830381865afa158015610df3573d5f5f3e3d5ffd5b505050506040513d601f19601f82011682018060405250810190610e179190614d83565b6001600160a01b0390811682528b81165f908152603860209081526040918290205460ff16818501528151635eb88d3d60e01b8152825192909401937f000000000000000000000000000000000000000000000000000000000000000090931692635eb88d3d92600480830193928290030181865afa158015610e9c573d5f5f3e3d5ffd5b505050506040513d601f19601f82011682018060405250810190610ec09190614d83565b6001600160a01b031681526020017f00000000000000000000000000000000000000000000000000000000000000006001600160a01b03168152506040518663ffffffff1660e01b8152600401610f1b959493929190614d9e565b5f6040518083038186803b158015610f31575f5ffd5b505af4158015610f43573d5f5f3e3d5ffd5b505050505050505050565b60405163d505accf60e01b81526001600160a01b0389169063d505accf90610f8690339030908c908a908a908a908a90600401614e83565b5f604051808303815f87803b158015610f9d575f5ffd5b505af1925050508015610fae575060015b5073__$91b47d451814c731a99462488968bab857$__631913f1616034603660355f8b6001600160a01b03166001600160a01b031681526020019081526020015f206040518060c001604052806110023390565b6001600160a01b031681526020018e6001600160a01b031681526020017f00000000000000000000000000000000000000000000000000000000000000006001600160a01b031681526020018d81526020018c6001600160a01b031681526020018b61ffff168152506040518563ffffffff1660e01b815260040161108a9493929190614ec4565b5f6040518083038186803b1580156110a0575f5ffd5b505af41580156110b2573d5f5f3e3d5ffd5b505050505050505050505050565b60ff81165f9081526037602052604090206001018054606091906110e390614f35565b80601f016020809104026020016040519081016040528092919081815260200182805461110f90614f35565b801561115a5780601f106111315761010080835404028352916020019161115a565b820191905f5260205f20905b81548152906001019060200180831161113d57829003601f168201915b50505050509050919050565b73__$3e9faf92b4e65bc494281f12b43a229306$__631eb87a9c603460366037603860355f336001600160a01b0316815260208101919091526040015f20337f00000000000000000000000000000000000000000000000000000000000000006001600160a01b031663fca513a86040518163ffffffff1660e01b8152600401602060405180830381865afa158015611201573d5f5f3e3d5ffd5b505050506040513d601f19601f820116820180604052508101906112259190614d83565b896040518963ffffffff1660e01b8152600401611249989796959493929190614f67565b5f6040518083038186803b15801561125f575f5ffd5b505af4158015611271573d5f5f3e3d5ffd5b5050505050565b5f73__$83e702f37eeb79ca6ea8c03d9bc14d29cb$__6338ca4d8a603460366037603586336001600160a01b03166001600160a01b031681526020019081526020015f206040518061012001604052808b6001600160a01b031681526020016112de3390565b6001600160a01b031681526020017f00000000000000000000000000000000000000000000000000000000000000006001600160a01b031681526020018a815260200189600281111561133357611333614fac565b600281111561134457611344614fac565b8152602001336001600160a01b031681526020016001151581526020017f00000000000000000000000000000000000000000000000000000000000000006001600160a01b031663fca513a86040518163ffffffff1660e01b8152600401602060405180830381865afa1580156113bd573d5f5f3e3d5ffd5b505050506040513d601f19601f820116820180604052508101906113e19190614d83565b6001600160a01b03168152335f908152603860209081526040918290205460ff169201919091525160e087901b6001600160e01b031916815261142b959493929190600401614fe0565b602060405180830381865af4158015611446573d5f5f3e3d5ffd5b505050506040513d601f19601f8201168201806040525081019061146a919061508b565b90505b9392505050565b60408051610200810182525f6101e08201818152825260208201819052918101829052606081018290526080810182905260a0810182905260c0810182905260e08101829052610100810182905261012081018290526101408101829052610160810182905261018081018290526101a081018290526101c08101919091526001600160a01b038281165f9081526034602090815260408083208151808401835281548152865260018101546001600160801b0380821694880194909452600160801b908190048416878401526002820154808516606089015281900484166080880152600382015490810464ffffffffff1660c0880152600160a81b900461ffff1660e08701526004808201548616610100880152600682015486166101408801527f00000000000000000000000000000000000000000000000000000000000000008616610160880152600882015484166101808801526101a087019490945260098101549092166101c0860152516321f8a72160e01b81526f1353d0d2d7d4d51050931157d111509560821b92810192909252917f000000000000000000000000000000000000000000000000000000000000000016906321f8a72190602401602060405180830381865afa158015611652573d5f5f3e3d5ffd5b505050506040513d601f19601f820116820180604052508101906116769190614d83565b6001600160a01b031661012083015250919050565b6001600160a01b0381165f9081526034602052604081206116ab90613b5c565b92915050565b5f6040518061010001604052806116c53390565b6001600160a01b03168152602001886001600160a01b03168152602001876001600160a01b031681526020017f00000000000000000000000000000000000000000000000000000000000000006001600160a01b0316815260200186815260200185858080601f0160208091040260200160405190810160405280939291908181526020018383808284375f92018290525093855250505061ffff8516602080840191909152603a546001600160801b03166040938401526001600160a01b038a16825260349052819020905163a1fe0e8d60e01b815291925073__$1aecd72e546835de8d2664e100f70770e0$__9163a1fe0e8d916117c99185906004016150a2565b5f6040518083038186803b1580156117df575f5ffd5b505af41580156117f1573d5f5f3e3d5ffd5b5050505050505050505050565b8061180881613bbe565b73__$3e9faf92b4e65bc494281f12b43a229306$__631eb87a9c603460366037603860355f896001600160a01b03166001600160a01b031681526020019081526020015f20887f00000000000000000000000000000000000000000000000000000000000000006001600160a01b031663fca513a86040518163ffffffff1660e01b8152600401602060405180830381865afa1580156118aa573d5f5f3e3d5ffd5b505050506040513d601f19601f820116820180604052508101906118ce9190614d83565b8b6040518963ffffffff1660e01b81526004016118f2989796959493929190614f67565b5f6040518083038186803b158015611908575f5ffd5b505af415801561191a573d5f5f3e3d5ffd5b50505050505050565b5f5f611930603684613c04565b9150915061193e8282611b62565b505050565b5f5f5f5f611952603686613c30565b9250925092506119658383836106d03390565b95945050505050565b5f73__$83e702f37eeb79ca6ea8c03d9bc14d29cb$__6338ca4d8a60346036603760355f886001600160a01b03166001600160a01b031681526020019081526020015f206040518061012001604052808c6001600160a01b031681526020016119d43390565b6001600160a01b031681526020017f00000000000000000000000000000000000000000000000000000000000000006001600160a01b031681526020018b81526020018a6002811115611a2957611a29614fac565b6002811115611a3a57611a3a614fac565b8152602001896001600160a01b031681526020015f151581526020017f00000000000000000000000000000000000000000000000000000000000000006001600160a01b031663fca513a86040518163ffffffff1660e01b8152600401602060405180830381865afa158015611ab2573d5f5f3e3d5ffd5b505050506040513d601f19601f82011682018060405250810190611ad69190614d83565b6001600160a01b0390811682528a165f908152603860209081526040918290205460ff16920191909152516001600160e01b031960e088901b168152611b23959493929190600401614fe0565b602060405180830381865af4158015611b3e573d5f5f3e3d5ffd5b505050506040513d601f19601f82011682018060405250810190611965919061508b565b73__$91b47d451814c731a99462488968bab857$__63d230964160346036603760355f336001600160a01b0316815260208101919091526040015f203388887f00000000000000000000000000000000000000000000000000000000000000006001600160a01b031663fca513a86040518163ffffffff1660e01b8152600401602060405180830381865afa158015611bfd573d5f5f3e3d5ffd5b505050506040513d601f19601f82011682018060405250810190611c219190614d83565b335f908152603860205260409081902054905160e08b901b6001600160e01b0319168152611c5d99989796959493929160ff169060040161514e565b5f6040518083038186803b158015611c73575f5ffd5b505af4158015611c85573d5f5f3e3d5ffd5b505050505050565b73__$91b47d451814c731a99462488968bab857$__631913f1616034603660355f876001600160a01b03166001600160a01b031681526020019081526020015f206040518060c00160405280611ce03390565b6001600160a01b031681526020018a6001600160a01b031681526020017f00000000000000000000000000000000000000000000000000000000000000006001600160a01b03168152602001898152602001886001600160a01b031681526020018761ffff168152506040518563ffffffff1660e01b8152600401611d689493929190614ec4565b5f6040518083038186803b158015611d7e575f5ffd5b505af4158015611d90573d5f5f3e3d5ffd5b5050505050505050565b611da2613c8c565b604051639cf5702360e01b815260346004820152603660248201526001600160a01b038216604482015273__$5c81c34ced5c181849a1f58b32d6fe0e6c$__90639cf5702390606401611249565b5f5f5f5f5f611e00603689613d3f565b94509450945094509450611d908585611e163390565b8686868d8d610f4e565b5f73__$91b47d451814c731a99462488968bab857$__63186dea44603460366037603586336001600160a01b03166001600160a01b031681526020019081526020015f206040518060e00160405280611e763390565b6001600160a01b031681526020018b6001600160a01b031681526020017f00000000000000000000000000000000000000000000000000000000000000006001600160a01b031681526020018a8152602001896001600160a01b031681526020017f00000000000000000000000000000000000000000000000000000000000000006001600160a01b031663fca513a86040518163ffffffff1660e01b8152600401602060405180830381865afa158015611f33573d5f5f3e3d5ffd5b505050506040513d601f19601f82011682018060405250810190611f579190614d83565b6001600160a01b03168152335f908152603860209081526040918290205460ff169201919091525160e087901b6001600160e01b031916815261142b95949392919060040161519e565b6040805160a080820183525f80835260208084018290528385018290526060808501839052608080860182905260ff881684526037835286842087519586018852805461ffff8082168852620100008204811695880195909552640100000000900490931696850196909652830191909152600181018054939491939183019161202a90614f35565b80601f016020809104026020016040519081016040528092919081815260200182805461205690614f35565b80156120a15780601f10612078576101008083540402835291602001916120a1565b820191905f5260205f20905b81548152906001019060200180831161208457829003601f168201915b5050505050815250915050919050565b6120b9613c8c565b8160ff165f036120dc57604051639284211360e01b815260040160405180910390fd5b6120e960208201826146b1565b60ff83165f90815260376020908152604091829020805461ffff191661ffff9490941693909317909255612122919083019083016146b1565b60ff83165f9081526037602052604090819020805461ffff93909316620100000263ffff0000199093169290921790915561216390606083019083016146b1565b60ff83165f908152603760205260409020805461ffff929092166401000000000265ffff00000000199092169190911790556121a26060820182615227565b60ff84165f9081526037602052604090206001019161193e9190836152c1565b5f5f5f6121d0603685613d7c565b915091506121e0828261077e3390565b949350505050565b6121f0613c8c565b8160ff165f0361221357604051639284211360e01b815260040160405180910390fd5b60ff9091165f90815260376020526040902080546001600160801b0390921666010000000000000275ffffffffffffffffffffffffffffffff00000000000019909216919091179055565b612266613c8c565b73__$5c81c34ced5c181849a1f58b32d6fe0e6c$__6369fc1bdf603460366040518060a00160405280886001600160a01b03168152602001876001600160a01b03168152602001866001600160a01b03168152602001603b60089054906101000a900461ffff1661ffff1681526020016122de608090565b61ffff908116909152604080516001600160e01b031960e088901b1681526004810195909552602485019390935281516001600160a01b0390811660448601526020830151811660648601529282015190921660848401526060810151821660a4840152608001511660c482015260e401602060405180830381865af415801561236a573d5f5f3e3d5ffd5b505050506040513d601f19601f8201168201806040525081019061238e919061537a565b1561193e57603b8054600160401b900461ffff169060086123ae836153a9565b91906101000a81548161ffff021916908361ffff16021790555050505050565b5f5f5f5f5f5f6123df60368a613dcb565b945094509450945094506123ff8585856123f63390565b86868e8e613704565b9998505050505050505050565b8061241681613bbe565b73__$91b47d451814c731a99462488968bab857$__63d230964160346036603760355f886001600160a01b03166001600160a01b031681526020019081526020015f20878a8a7f00000000000000000000000000000000000000000000000000000000000000006001600160a01b031663fca513a86040518163ffffffff1660e01b8152600401602060405180830381865afa1580156124b8573d5f5f3e3d5ffd5b505050506040513d601f19601f820116820180604052508101906124dc9190614d83565b6001600160a01b038c165f90815260386020526040908190205490516001600160e01b031960e08c901b168152611d6899989796959493929160ff169060040161514e565b612529613c8c565b6001600160a01b038181165f818152603460205260409081902090516320d4602f60e11b8152600481019190915260248101919091527f0000000000000000000000000000000000000000000000000000000000000000909116604482015273__$5c81c34ced5c181849a1f58b32d6fe0e6c$__906341a8c05e90606401611249565b6125b4613c8c565b603a80546001600160801b0319166001600160801b0392909216919091179055565b604051631230b2a360e21b815273__$5c81c34ced5c181849a1f58b32d6fe0e6c$__906348c2ca8c90611c5d90603490869086906004016153c9565b5f336040516321f8a72160e01b815267554d4252454c4c4160c01b60048201526001600160a01b03918216917f000000000000000000000000000000000000000000000000000000000000000016906321f8a72190602401602060405180830381865afa158015612685573d5f5f3e3d5ffd5b505050506040513d601f19601f820116820180604052508101906126a99190614d83565b6001600160a01b0316146126d05760405163c45a7cdd60e01b815260040160405180910390fd5b335f8181526035602090815260409182902082516080810184529384526001600160a01b038781168584019081527f00000000000000000000000000000000000000000000000000000000000000008216868601908152606087018981528651631fa7982360e21b815260346004820152602481019590955296518316604485015290518216606484015251166084820152925160a4840152905173__$6d137c64be18f5cad883104c2a9fa60a79$__92637e9e608c9260c48083019391928290030181865af41580156127a6573d5f5f3e3d5ffd5b505050506040513d601f19601f8201168201806040525081019061146d919061508b565b73__$83e702f37eeb79ca6ea8c03d9bc14d29cb$__631e6473f960346036603760355f876001600160a01b03166001600160a01b031681526020019081526020015f206040518061016001604052808c6001600160a01b0316815260200161282f3390565b6001600160a01b03168152602001886001600160a01b031681526020017f00000000000000000000000000000000000000000000000000000000000000006001600160a01b031681526020018b81526020018a600281111561289357612893614fac565b60028111156128a4576128a4614fac565b81526020018961ffff1681526020016001151581526020017f00000000000000000000000000000000000000000000000000000000000000006001600160a01b031663fca513a86040518163ffffffff1660e01b8152600401602060405180830381865afa158015612918573d5f5f3e3d5ffd5b505050506040513d601f19601f8201168201806040525081019061293c9190614d83565b6001600160a01b0390811682528981165f908152603860209081526040918290205460ff16818501528151635eb88d3d60e01b8152825192909401937f000000000000000000000000000000000000000000000000000000000000000090931692635eb88d3d92600480830193928290030181865afa1580156129c1573d5f5f3e3d5ffd5b505050506040513d601f19601f820116820180604052508101906129e59190614d83565b6001600160a01b03168152506040518663ffffffff1660e01b8152600401610f1b959493929190615412565b612a19613c8c565b6001600160a01b0381165f9081526034602052604090819020905163d493415360e01b8152600481019190915273__$5c81c34ced5c181849a1f58b32d6fe0e6c$__9063d493415390602401611249565b5f604051806101c00160405280612a7e3390565b6001600160a01b031681526020018d6001600160a01b031681526020018c8c808060200260200160405190810160405280939291908181526020018383602002808284375f920191909152505050908252506040805160208c810282810182019093528c82529283019290918d918d9182918501908490808284375f920191909152505050908252506040805160208a810282810182019093528a82529283019290918b918b9182918501908490808284375f920191909152505050908252506001600160a01b037f000000000000000000000000000000000000000000000000000000000000000081166020808401919091529088166040808401919091528051601f88018390048302810183019091528681526060909201919087908790819084018382808284375f92018290525093855250505061ffff8516602080840191909152603a546001600160801b03166040808501919091526001600160a01b037f0000000000000000000000000000000000000000000000000000000000000000811660608601819052306080870152908b16845260388352928190205460ff1660a0850152805163383e6b8b60e11b8152905160c09094019363707cd716926004808401939192918290030181865afa158015612c60573d5f5f3e3d5ffd5b505050506040513d601f19601f82011682018060405250810190612c849190614d83565b6001600160a01b031663fa50f297336040516001600160e01b031960e084901b1681526001600160a01b039091166004820152602401602060405180830381865afa158015612cd5573d5f5f3e3d5ffd5b505050506040513d601f19601f82011682018060405250810190612cf9919061537a565b151590526001600160a01b0386165f9081526035602052604090819020905163173931f560e11b815291925073__$1aecd72e546835de8d2664e100f70770e0$__91632e7263ea91612d5991603491603691603791908890600401615568565b5f6040518083038186803b158015612d6f575f5ffd5b505af4158015612d81573d5f5f3e3d5ffd5b50505050505050505050505050505050565b604080515f815260208101909152606090826001600160401b03811115612dbc57612dbc615269565b604051908082528060200260200182016040528015612def57816020015b6060815260200190600190039081612dda5790505b5091505f5b83811015612e7057612e4b30868684818110612e1257612e126156e6565b9050602002810190612e249190615227565b85604051602001612e37939291906156fa565b604051602081830303815290604052613e06565b838281518110612e5d57612e5d6156e6565b6020908102919091010152600101612df4565b505092915050565b612e80613c8c565b6001600160a01b0382165f90815260346020526040902060030154600160a81b900461ffff16151580612ee757505f805260366020527f4cb2b152c1b54ce671907a93c300fd5aa72383a9d4ec19a81e3333632ae92e00546001600160a01b038381169116145b612f045760405163b77e1e0f60e01b815260040160405180910390fd5b604051636ae4381360e01b8152603460048201526001600160a01b038316602482015264ffffffffff8216604482015273__$5c81c34ced5c181849a1f58b32d6fe0e6c$__90636ae4381390606401611c5d565b335f908152603c602090815260408083206001600160a01b038616845290915290205481151560ff909116151503612f8e575050565b335f908152603c602090815260408083206001600160a01b03861684529091529020805460ff19168215801591909117909155612ffe576040516001600160a01b0383169033907f540e692f36c2fa13e7583c4deeffd91ce6bc04f91e7d84f295d9d858372875fc905f90a35050565b6040516001600160a01b0383169033907f08c92c3870d10c79e9673fecea8f4ff261f8e6b661067d9ca63fd777882bff15905f90a35050565b5f5f5f5f5f5f73__$5c81c34ced5c181849a1f58b32d6fe0e6c$__6326ec273f603460366037604051806080016040528060355f8f6001600160a01b03166001600160a01b031681526020019081526020015f206040518060200160405290815f8201548152505081526020018d6001600160a01b031681526020017f00000000000000000000000000000000000000000000000000000000000000006001600160a01b031663fca513a86040518163ffffffff1660e01b8152600401602060405180830381865afa15801561310f573d5f5f3e3d5ffd5b505050506040513d601f19601f820116820180604052508101906131339190614d83565b6001600160a01b0390811682528e81165f908152603860209081526040918290205460ff90811694820194909452815160e08a901b6001600160e01b0319168152600481019890985260248801969096526044870194909452825151606487015293820151841660848601529181015190921660a48401526060909101511660c482015260e40160c060405180830381865af41580156131d5573d5f5f3e3d5ffd5b505050506040513d601f19601f820116820180604052508101906131f9919061571f565b949c939b5091995097509550909350915050565b5f613216613e6f565b60015490915060ff16806132295750303b155b8061323457505f5481115b61329c5760405162461bcd60e51b815260206004820152602e60248201527f436f6e747261637420696e7374616e63652068617320616c726561647920626560448201526d195b881a5b9a5d1a585b1a5e995960921b60648201526084015b60405180910390fd5b60015460ff161580156132ba576001805460ff1916811790555f8290555b7f00000000000000000000000000000000000000000000000000000000000000006001600160a01b0316836001600160a01b03161461330c57604051633b175b8760e01b815260040160405180910390fd5b801561193e576001805460ff19169055505050565b613329613e81565b6040516343d9915960e11b81526001600160a01b038085166004830152831660248201526044810182905273__$5c81c34ced5c181849a1f58b32d6fe0e6c$__906387b322b2906064016118f2565b6001600160a01b0381165f9081526034602052604081206116ab90613f93565b603b54606090600160401b900461ffff165f80826001600160401b038111156133c3576133c3615269565b6040519080825280602002602001820160405280156133ec578160200160208202803683370190505b5090505f5b83811015613482575f818152603660205260409020546001600160a01b03161561346c575f818152603660205260409020546001600160a01b03168261343785846156d3565b81518110613447576134476156e6565b60200260200101906001600160a01b031690816001600160a01b03168152505061347a565b8261347681615765565b9350505b6001016133f1565b5091038152919050565b6001600160a01b038681165f908152603460205260409020600401541633146134c8576040516393b9ef1f60e01b815260040160405180910390fd5b73__$91b47d451814c731a99462488968bab857$__638a5dadd160346036603760356040518061010001604052808d6001600160a01b031681526020018c6001600160a01b031681526020018b6001600160a01b031681526020018a81526020018981526020018881526020017f00000000000000000000000000000000000000000000000000000000000000006001600160a01b031663fca513a86040518163ffffffff1660e01b8152600401602060405180830381865afa158015613591573d5f5f3e3d5ffd5b505050506040513d601f19601f820116820180604052508101906135b59190614d83565b6001600160a01b0390811682528d165f908152603860209081526040918290205460ff16920191909152516001600160e01b031960e088901b16815261360295949392919060040161577d565b5f6040518083038186803b158015613618575f5ffd5b505af415801561362a573d5f5f3e3d5ffd5b50505050505050505050565b5f5f5f5f61367f60368661ffff8181165f9081526020939093526040909220546001600160a01b0316926001600160801b03601083901c169260ff609084901c169260981c1690565b9350935093509350611271848484846109393390565b5f5f5f5f6136a4603686613c30565b925092509250611965838383611278565b6136bd613c8c565b604051631e3b414560e01b8152603460048201526001600160a01b038216602482015273__$5c81c34ced5c181849a1f58b32d6fe0e6c$__90631e3b414590604401611249565b60405163d505accf60e01b81525f906001600160a01b038a169063d505accf9061373e90339030908d908b908b908b908b90600401614e83565b5f604051808303815f87803b158015613755575f5ffd5b505af1925050508015613766575060015b505f6040518061012001604052808b6001600160a01b0316815260200161378a3390565b6001600160a01b031681526020017f00000000000000000000000000000000000000000000000000000000000000006001600160a01b031681526020018a81526020018960028111156137df576137df614fac565b60028111156137f0576137f0614fac565b8152602001886001600160a01b031681526020015f151581526020017f00000000000000000000000000000000000000000000000000000000000000006001600160a01b031663fca513a86040518163ffffffff1660e01b8152600401602060405180830381865afa158015613868573d5f5f3e3d5ffd5b505050506040513d601f19601f8201168201806040525081019061388c9190614d83565b6001600160a01b03908116825289165f8181526038602090815260408083205460ff169482019490945291815260359091528190209051631c6526c560e11b815291925073__$83e702f37eeb79ca6ea8c03d9bc14d29cb$__916338ca4d8a9161390491603491603691603791908890600401614fe0565b602060405180830381865af415801561391f573d5f5f3e3d5ffd5b505050506040513d601f19601f82011682018060405250810190613943919061508b565b9a9950505050505050505050565b613959613c8c565b6001600160a01b03821661398057604051633bf95ba760e01b815260040160405180910390fd5b6001600160a01b0382165f90815260346020526040902060030154600160a81b900461ffff161515806139e757505f805260366020527f4cb2b152c1b54ce671907a93c300fd5aa72383a9d4ec19a81e3333632ae92e00546001600160a01b038381169116145b613a045760405163b77e1e0f60e01b815260040160405180910390fd5b6001600160a01b0382165f9081526034602052604090208135815581905b50505050565b5f5f5f613a36603685613fe9565b925092509250613a228383613a483390565b84611c8d565b5f5f5f5f5f613a5f60368888614023565b9450945094509450945061191a8585858585610d19565b6001600160a01b0381165f908152603c6020908152604080832033845290915281205460ff1615159003613aa75750565b6001600160a01b0381165f818152603c60209081526040808320338085529252808320805460ff19169055519092917f08c92c3870d10c79e9673fecea8f4ff261f8e6b661067d9ca63fd777882bff1591a350565b613b04613c8c565b8160ff165f03613b2757604051639284211360e01b815260040160405180910390fd5b60ff919091165f90815260376020526040902060020180546001600160801b0319166001600160801b03909216919091179055565b60038101545f90600160801b900464ffffffffff16428103613b8a575050600201546001600160801b031690565b600283015461146d906001600160801b0380821691613bb291600160801b90910416846140a8565b906140b4565b50919050565b6001600160a01b0381165f908152603c6020908152604080832033845290915290205460ff16613c0157604051632af6008960e21b815260040160405180910390fd5b50565b61ffff81165f908152602083905260409020546001600160a01b0316601082901c6001165b9250929050565b5f808061ffff8416601085901c6001600160801b0316609086901c60ff166002600160801b03198201613c62575f1991505b61ffff9092165f908152602088905260409020546001600160a01b03169450925090509250925092565b336001600160a01b03167f00000000000000000000000000000000000000000000000000000000000000006001600160a01b031663631adfca6040518163ffffffff1660e01b8152600401602060405180830381865afa158015613cf2573d5f5f3e3d5ffd5b505050506040513d601f19601f82011682018060405250810190613d169190614d83565b6001600160a01b031614613d3d576040516344ff885f60e01b815260040160405180910390fd5b565b5f8080808060a086901c63ffffffff1660c087901c60ff16828080613d648c8c613fe9565b919e909d50909b509499509297509295505050505050565b5f8061ffff8316601084901c6001600160801b03166002600160801b03198101613da457505f195b61ffff919091165f9081526020959095526040909420546001600160a01b03169492505050565b5f5f5f5f5f5f5f5f5f5f613ddf8c8c613c30565b919e909d50909b609881901c63ffffffff169b5060b81c60ff169950975050505050505050565b60605f5f846001600160a01b031684604051613e22919061581d565b5f60405180830381855af49150503d805f8114613e5a576040519150601f19603f3d011682016040523d82523d5f602084013e613e5f565b606091505b50915091506119658583836140f6565b5f613e7c60096001615838565b905090565b7f00000000000000000000000000000000000000000000000000000000000000006001600160a01b031663707cd7166040518163ffffffff1660e01b8152600401602060405180830381865afa158015613edd573d5f5f3e3d5ffd5b505050506040513d601f19601f82011682018060405250810190613f019190614d83565b6001600160a01b0316637be53ca1336040516001600160e01b031960e084901b1681526001600160a01b039091166004820152602401602060405180830381865afa158015613f52573d5f5f3e3d5ffd5b505050506040513d601f19601f82011682018060405250810190613f76919061537a565b613d3d5760405163cdd36a9760e01b815260040160405180910390fd5b60038101545f90600160801b900464ffffffffff16428103613fc1575050600101546001600160801b031690565b600183015461146d906001600160801b0380821691613bb291600160801b9091041684614152565b61ffff8181165f908152602084905260409020546001600160a01b031690601083901c6001600160801b031690609084901c169250925092565b5f8080808061ffff87811690601089901c16602089901c6001600160a01b03166001600160801b03891660808a901c6001166002600160801b03198201614069575f1991505b61ffff9485165f90815260209d909d526040808e2054949095168d5293909b20546001600160a01b039283169c92169a90995097509095509350505050565b5f61146d83834261418e565b5f81156b019d971e4fe8401e7400000019839004841115176140d4575f5ffd5b506b033b2e3c9fd0803ce800000091026b019d971e4fe8401e74000000010490565b60608261410b57614106826141fd565b61146d565b815115801561412257506001600160a01b0384163b155b1561414b57604051639996b31560e01b81526001600160a01b0385166004820152602401613293565b508061146d565b5f8061416564ffffffffff8416426156d3565b61416f908561584b565b6301e13380900490506121e0816b033b2e3c9fd0803ce8000000615838565b5f806141a164ffffffffff8516846156d3565b9050805f036141bf576b033b2e3c9fd0803ce800000091505061146d565b6301e13380818602046141e46141d882600681046140b4565b829060028204016140b4565b016b033b2e3c9fd0803ce8000000019150509392505050565b80511561420d5780518082602001fd5b60405163d6bda27560e01b815260040160405180910390fd5b6001600160a01b0381168114613c01575f5ffd5b803561424581614226565b919050565b8015158114613c01575f5ffd5b5f5f5f5f5f60a0868803121561426b575f5ffd5b853561427681614226565b9450602086013561428681614226565b9350604086013561429681614226565b92506060860135915060808601356142ad8161424a565b809150509295509295909350565b803561ffff81168114614245575f5ffd5b803560ff81168114614245575f5ffd5b5f5f5f5f5f5f5f5f610100898b0312156142f4575f5ffd5b88356142ff81614226565b975060208901359650604089013561431681614226565b955061432460608a016142bb565b94506080890135935061433960a08a016142cc565b979a969950949793969295929450505060c08201359160e0013590565b5f60208284031215614366575f5ffd5b61146d826142cc565b5f5b83811015614389578181015183820152602001614371565b50505f910152565b5f81518084526143a881602086016020860161436f565b601f01601f19169290920160200192915050565b602081525f61146d6020830184614391565b5f5f5f606084860312156143e0575f5ffd5b83356143eb81614226565b95602085013595506040909401359392505050565b5f60208284031215614410575f5ffd5b813561146d81614226565b81515181526101e08101602083015161443f60208401826001600160801b03169052565b50604083015161445a60408401826001600160801b03169052565b50606083015161447560608401826001600160801b03169052565b50608083015161449060808401826001600160801b03169052565b5060a08301516144ab60a08401826001600160801b03169052565b5060c08301516144c460c084018264ffffffffff169052565b5060e08301516144da60e084018261ffff169052565b506101008301516144f76101008401826001600160a01b03169052565b506101208301516145146101208401826001600160a01b03169052565b506101408301516145316101408401826001600160a01b03169052565b5061016083015161454e6101608401826001600160a01b03169052565b5061018083015161456b6101808401826001600160801b03169052565b506101a08301516145886101a08401826001600160801b03169052565b506101c08301516145a56101c08401826001600160801b03169052565b5092915050565b5f5f83601f8401126145bc575f5ffd5b5081356001600160401b038111156145d2575f5ffd5b602083019150836020828501011115613c29575f5ffd5b5f5f5f5f5f5f60a087890312156145fe575f5ffd5b863561460981614226565b9550602087013561461981614226565b94506040870135935060608701356001600160401b0381111561463a575f5ffd5b61464689828a016145ac565b90945092506146599050608088016142bb565b90509295509295509295565b5f5f60408385031215614676575f5ffd5b61467f836142cc565b9150602083013561468f81614226565b809150509250929050565b5f602082840312156146aa575f5ffd5b5035919050565b5f602082840312156146c1575f5ffd5b61146d826142bb565b5f5f5f5f608085870312156146dd575f5ffd5b84356146e881614226565b93506020850135925060408501359150606085013561470681614226565b939692955090935050565b5f5f60408385031215614722575f5ffd5b823561472d81614226565b9150602083013561468f8161424a565b5f5f5f5f60808587031215614750575f5ffd5b843561475b81614226565b935060208501359250604085013561477281614226565b9150614780606086016142bb565b905092959194509250565b5f5f5f6060848603121561479d575f5ffd5b505081359360208301359350604090920135919050565b5f5f5f606084860312156147c6575f5ffd5b83356147d181614226565b92506020840135915060408401356147e881614226565b809150509250925092565b6020815261ffff825116602082015261ffff602083015116604082015261ffff604083015116606082015260018060a01b0360608301511660808201525f608083015160a0808401526121e060c0840182614391565b5f5f6040838503121561485a575f5ffd5b614863836142cc565b915060208301356001600160401b0381111561487d575f5ffd5b83016080818603121561468f575f5ffd5b80356001600160801b0381168114614245575f5ffd5b5f5f604083850312156148b5575f5ffd5b6148be836142cc565b91506148cc6020840161488e565b90509250929050565b5f5f5f606084860312156148e7575f5ffd5b83356148f281614226565b9250602084013561490281614226565b915060408401356147e881614226565b5f5f5f60608486031215614924575f5ffd5b833561492f81614226565b925060208401356149028161424a565b5f6020828403121561494f575f5ffd5b61146d8261488e565b5f5f83601f840112614968575f5ffd5b5081356001600160401b0381111561497e575f5ffd5b6020830191508360208260051b8501011115613c29575f5ffd5b5f5f602083850312156149a9575f5ffd5b82356001600160401b038111156149be575f5ffd5b6149ca85828601614958565b90969095509350505050565b5f5f604083850312156149e7575f5ffd5b82356149f281614226565b946020939093013593505050565b5f5f5f5f5f60a08688031215614a14575f5ffd5b8535614a1f81614226565b94506020860135935060408601359250614a3b606087016142bb565b915060808601356142ad81614226565b5f5f5f5f5f5f5f5f5f5f5f60e08c8e031215614a65575f5ffd5b614a6e8c61423a565b9a5060208c01356001600160401b03811115614a88575f5ffd5b614a948e828f01614958565b909b5099505060408c01356001600160401b03811115614ab2575f5ffd5b614abe8e828f01614958565b90995097505060608c01356001600160401b03811115614adc575f5ffd5b614ae88e828f01614958565b9097509550614afb905060808d0161423a565b935060a08c01356001600160401b03811115614b15575f5ffd5b614b218e828f016145ac565b9094509250614b34905060c08d016142bb565b90509295989b509295989b9093969950565b5f602082016020835280845180835260408501915060408160051b8601019250602086015f5b82811015614b9d57603f19878603018452614b88858351614391565b94506020938401939190910190600101614b6c565b50929695505050505050565b5f5f60408385031215614bba575f5ffd5b8235614bc581614226565b9150602083013564ffffffffff8116811461468f575f5ffd5b5f5f5f60608486031215614bf0575f5ffd5b8335614bfb81614226565b92506020840135614c0b81614226565b929592945050506040919091013590565b602080825282518282018190525f918401906040840190835b81811015614c5c5783516001600160a01b0316835260209384019390920191600101614c35565b509095945050505050565b5f5f5f5f5f5f60c08789031215614c7c575f5ffd5b8635614c8781614226565b95506020870135614c9781614226565b94506040870135614ca781614226565b959894975094956060810135955060808101359460a0909101359350915050565b5f5f5f5f5f5f5f5f610100898b031215614ce0575f5ffd5b8835614ceb81614226565b97506020890135965060408901359550606089013561432481614226565b5f5f8284036040811215614d1b575f5ffd5b8335614d2681614226565b92506020601f1982011215614d39575f5ffd5b506020830190509250929050565b5f5f60408385031215614d58575f5ffd5b823561467f81614226565b5f5f60408385031215614d74575f5ffd5b50508035926020909101359150565b5f60208284031215614d93575f5ffd5b815161146d81614226565b85815260208101859052604081018490526060810183905281516001600160a01b031660808201526101c08101602083015160a083015260408301516001600160a01b03811660c08401525060608301516001600160a01b03811660e08401525060808301516001600160a01b0381166101008401525060a08301518015156101208401525060c08301516001600160a01b0381166101408401525060e083015160ff8116610160840152506101008301516001600160a01b038116610180840152506101208301516001600160a01b0381166101a08401525b509695505050505050565b6001600160a01b0397881681529590961660208601526040850193909352606084019190915260ff16608083015260a082015260c081019190915260e00190565b93845260208085019390935260408085019290925280516001600160a01b0390811660608087019190915293820151811660808087019190915292820151811660a0808701919091529382015160c08601529181015190911660e0840152015161ffff166101008201526101200190565b600181811c90821680614f4957607f821691505b602082108103613bb857634e487b7160e01b5f52602260045260245ffd5b97885260208801969096526040870194909452606086019290925260808501526001600160a01b0390811660a08501521660c083015260ff1660e08201526101000190565b634e487b7160e01b5f52602160045260245ffd5b60038110614fdc57634e487b7160e01b5f52602160045260245ffd5b9052565b858152602080820186905260408083018690526060830185905283516001600160a01b03908116608085015291840151821660a084015283015190811660c08301526101a082019050606083015160e08301526080830151615046610100840182614fc0565b5060a08301516001600160a01b0390811661012084015260c0840151151561014084015260e08401511661016083015261010083015160ff8116610180840152614e78565b5f6020828403121561509b575f5ffd5b5051919050565b8281526040602080830182905283516001600160a01b0390811683850152908401511660608301528201515f906150e460808401826001600160a01b03169052565b5060608301516001600160a01b03811660a084015250608083015160c083015260a083015161010060e084015261511f610140840182614391565b905060c084015161513761010085018261ffff169052565b5060e0840151610120840152809150509392505050565b9889526020890197909752604088019590955260608701939093526001600160a01b039182166080870152811660a086015290151560c08501521660e083015260ff166101008201526101200190565b85815260208082018690526040808301869052606080840186905284516001600160a01b0390811660808087019190915293860151811660a08087019190915292860151811660c0808701919091529186015160e08601529285015183166101008501529084015190911661012083015282015160ff8116610140830152610160820190614e78565b5f5f8335601e1984360301811261523c575f5ffd5b8301803591506001600160401b03821115615255575f5ffd5b602001915036819003821315613c29575f5ffd5b634e487b7160e01b5f52604160045260245ffd5b601f82111561193e57805f5260205f20601f840160051c810160208510156152a25750805b601f840160051c820191505b81811015611271575f81556001016152ae565b6001600160401b038311156152d8576152d8615269565b6152ec836152e68354614f35565b8361527d565b5f601f84116001811461531d575f85156153065750838201355b5f19600387901b1c1916600186901b178355611271565b5f83815260208120601f198716915b8281101561534c578685013582556020948501946001909201910161532c565b5086821015615368575f1960f88860031b161c19848701351681555b505060018560011b0183555050505050565b5f6020828403121561538a575f5ffd5b815161146d8161424a565b634e487b7160e01b5f52601160045260245ffd5b5f61ffff821661ffff81036153c0576153c0615395565b60010192915050565b83815260406020820181905281018290525f8360608301825b85811015614e785782356153f581614226565b6001600160a01b03168252602092830192909101906001016153e2565b85815260208101859052604081018490526060810183905281516001600160a01b031660808201526101e0810160208301516001600160a01b03811660a08401525060408301516001600160a01b03811660c08401525060608301516001600160a01b03811660e084015250608083015161010083015260a083015161549c610120840182614fc0565b5060c083015161ffff166101408381019190915260e084015115156101608401526101008401516001600160a01b0390811661018085015261012085015160ff166101a0850152908401519081166101c0840152614e78565b5f8151808452602084019350602083015f5b8281101561552e5781516001600160a01b0316865260209586019590910190600101615507565b5093949350505050565b5f8151808452602084019350602083015f5b8281101561552e57815186526020958601959091019060010161554a565b85815284602082015283604082015282606082015260a0608082015261559a60a0820183516001600160a01b03169052565b5f60208301516155b560c08401826001600160a01b03169052565b5060408301516101c060e08401526155d16102608401826154f5565b90506060840151609f19848303016101008501526155ef8282615538565b9150506080840151609f198483030161012085015261560e8282615538565b91505060a084015161562c6101408501826001600160a01b03169052565b5060c08401516001600160a01b031661016084015260e0840151838203609f190161018085015261565d8282614391565b9150506101008401516156776101a085018261ffff169052565b506101208401516101c08401526101408401516001600160a01b039081166101e08501526101608501511661020084015261018084015160ff166102208401526101a09093015115156102409092019190915250949350505050565b818103818111156116ab576116ab615395565b634e487b7160e01b5f52603260045260245ffd5b828482375f8382015f8152835161571581836020880161436f565b0195945050505050565b5f5f5f5f5f5f60c08789031215615734575f5ffd5b50508451602086015160408701516060880151608089015160a090990151939a929950909790965094509092509050565b5f6001820161577657615776615395565b5060010190565b5f6101808201905086825285602083015284604083015283606083015260018060a01b03835116608083015260018060a01b0360208401511660a083015260018060a01b0360408401511660c0830152606083015160e0830152608083015161010083015260a083015161012083015260c08301516158086101408401826001600160a01b03169052565b5060e083015160ff8116610160840152614e78565b5f825161582e81846020870161436f565b9190910192915050565b808201808211156116ab576116ab615395565b80820281158282048414176116ab576116ab61539556fea164736f6c634300081b000a","linkReferences":{"src/contracts/protocol/libraries/logic/BorrowLogic.sol":{"BorrowLogic":[{"start":1897,"length":20},{"start":5264,"length":20},{"start":7046,"length":20},{"start":10721,"length":20},{"start":15079,"length":20}]},"src/contracts/protocol/libraries/logic/EModeLogic.sol":{"EModeLogic":[{"start":3677,"length":20},{"start":4989,"length":20},{"start":6687,"length":20}]},"src/contracts/protocol/libraries/logic/FlashLoanLogic.sol":{"FlashLoanLogic":[{"start":1942,"length":20},{"start":6582,"length":20},{"start":12092,"length":20}]},"src/contracts/protocol/libraries/logic/LiquidationLogic.sol":{"LiquidationLogic":[{"start":2704,"length":20},{"start":3888,"length":20},{"start":10626,"length":20}]},"src/contracts/protocol/libraries/logic/PoolLogic.sol":{"PoolLogic":[{"start":3513,"length":20},{"start":8163,"length":20},{"start":9341,"length":20},{"start":10143,"length":20},{"start":10234,"length":20},{"start":11357,"length":20},{"start":12619,"length":20},{"start":12884,"length":20},{"start":13675,"length":20},{"start":14583,"length":20}]},"src/contracts/protocol/libraries/logic/SupplyLogic.sol":{"SupplyLogic":[{"start":2613,"length":20},{"start":4550,"length":20},{"start":7545,"length":20},{"start":7844,"length":20},{"start":8248,"length":20},{"start":9773,"length":20},{"start":14047,"length":20}]}}},"methodIdentifiers":{"ADDRESSES_PROVIDER()":"0542975c","FLASHLOAN_PREMIUM_TOTAL()":"074b2e43","FLASHLOAN_PREMIUM_TO_PROTOCOL()":"6a99c036","MAX_NUMBER_RESERVES()":"f8119d51","POOL_REVISION()":"0148170e","RESERVE_INTEREST_RATE_STRATEGY()":"1b8feb0e","UMBRELLA()":"71459c15","approvePositionManager(address,bool)":"b8caa7c5","borrow(address,uint256,uint256,uint16,address)":"a415bcad","borrow(bytes32)":"d5eed868","configureEModeCategory(uint8,(uint16,uint16,uint16,string))":"7b75d7f4","configureEModeCategoryBorrowableBitmap(uint8,uint128)":"ff72158a","configureEModeCategoryCollateralBitmap(uint8,uint128)":"92380ecb","deposit(address,uint256,address,uint16)":"e8eda9df","dropReserve(address)":"63c9b860","eliminateReserveDeficit(address,uint256)":"a1d2f3c4","finalizeTransfer(address,address,address,uint256,uint256,uint256)":"d5ed3933","flashLoan(address,address[],uint256[],uint256[],address,bytes,uint16)":"ab9c4b5d","flashLoanSimple(address,address,uint256,bytes,uint16)":"42b0b77c","getBorrowLogic()":"2be29fa7","getConfiguration(address)":"c44b11f7","getEModeCategoryBorrowableBitmap(uint8)":"903a2c71","getEModeCategoryCollateralBitmap(uint8)":"b0771dba","getEModeCategoryCollateralConfig(uint8)":"b286f467","getEModeCategoryData(uint8)":"6c6f6ae1","getEModeCategoryLabel(uint8)":"2083e183","getEModeLogic()":"f32b9a73","getFlashLoanLogic()":"348fde0f","getLiquidationGracePeriod(address)":"5c9a8b18","getLiquidationLogic()":"911a3413","getPoolLogic()":"d3350155","getReserveAToken(address)":"cff027d9","getReserveAddressById(uint16)":"52751797","getReserveData(address)":"35ea6a75","getReserveDeficit(address)":"c952485d","getReserveNormalizedIncome(address)":"d15e0053","getReserveNormalizedVariableDebt(address)":"386497fd","getReserveVariableDebtToken(address)":"365090a0","getReservesCount()":"72218d04","getReservesList()":"d1946dbc","getSupplyLogic()":"870e7744","getUserAccountData(address)":"bf92857c","getUserConfiguration(address)":"4417a583","getUserEMode(address)":"eddf1b79","getVirtualUnderlyingBalance(address)":"6fb07f96","initReserve(address,address,address)":"932f12c8","initialize(address)":"c4d66de8","isApprovedPositionManager(address,address)":"f9c2bd87","liquidationCall(address,address,address,uint256,bool)":"00a718a9","liquidationCall(bytes32,bytes32)":"fd21ecff","mintToTreasury(address[])":"9cd19996","multicall(bytes[])":"ac9650d8","renouncePositionManagerRole(address)":"fea149a6","repay(address,uint256,uint256,address)":"573ade81","repay(bytes32)":"563dd613","repayWithATokens(address,uint256,uint256)":"2dad97d4","repayWithATokens(bytes32)":"dc7c0bff","repayWithPermit(address,uint256,uint256,address,uint256,uint8,bytes32,bytes32)":"ee3e210b","repayWithPermit(bytes32,bytes32,bytes32)":"94b576de","rescueTokens(address,address,uint256)":"cea9d26f","resetIsolationModeTotalDebt(address)":"e43e88a1","setConfiguration(address,(uint256))":"f51e435b","setLiquidationGracePeriod(address,uint40)":"b1a99e26","setUserEMode(uint8)":"28530a47","setUserEModeOnBehalfOf(uint8,address)":"4ba06814","setUserUseReserveAsCollateral(address,bool)":"5a3b74b9","setUserUseReserveAsCollateral(bytes32)":"4d013f03","setUserUseReserveAsCollateralOnBehalfOf(address,bool,address)":"972b35fa","supply(address,uint256,address,uint16)":"617ba037","supply(bytes32)":"f7a73840","supplyWithPermit(address,uint256,address,uint16,uint256,uint8,bytes32,bytes32)":"02c205f0","supplyWithPermit(bytes32,bytes32,bytes32)":"680dd47c","syncIndexesState(address)":"ab2b51f6","syncRatesState(address)":"98c7da4e","updateFlashloanPremium(uint128)":"9c1d5f00","withdraw(address,uint256,address)":"69328dec","withdraw(bytes32)":"8e19899e"},"id":199}