{"abi":[{"type":"constructor","inputs":[{"name":"admin_","type":"address","internalType":"address"}],"stateMutability":"nonpayable"},{"type":"fallback","stateMutability":"payable"},{"type":"receive","stateMutability":"payable"},{"type":"function","name":"admin","inputs":[],"outputs":[{"name":"","type":"address","internalType":"address"}],"stateMutability":"nonpayable"},{"type":"function","name":"implementation","inputs":[],"outputs":[{"name":"","type":"address","internalType":"address"}],"stateMutability":"nonpayable"},{"type":"function","name":"upgradeTo","inputs":[{"name":"newImplementation","type":"address","internalType":"address"}],"outputs":[],"stateMutability":"nonpayable"},{"type":"function","name":"upgradeToAndCall","inputs":[{"name":"newImplementation","type":"address","internalType":"address"},{"name":"data","type":"bytes","internalType":"bytes"}],"outputs":[],"stateMutability":"payable"},{"type":"event","name":"Upgraded","inputs":[{"name":"implementation","type":"address","indexed":true,"internalType":"address"}],"anonymous":false}],"bytecode":{"object":"0x60a060405234801561000f575f5ffd5b506040516105bf3803806105bf83398101604081905261002e9161003f565b6001600160a01b031660805261006c565b5f6020828403121561004f575f5ffd5b81516001600160a01b0381168114610065575f5ffd5b9392505050565b6080516105186100a75f395f818161011301528181610157015281816102090152818161026b0152818161029401526102c001526105185ff3fe608060405260043610610042575f3560e01c80633659cfe6146100595780634f1ef286146100785780635c60da1b1461008b578063f851a440146100bb57610051565b366100515761004f6100cf565b005b61004f6100cf565b348015610064575f5ffd5b5061004f61007336600461045e565b610109565b61004f61008636600461047e565b61014d565b348015610096575f5ffd5b5061009f6101fe565b6040516001600160a01b03909116815260200160405180910390f35b3480156100c6575f5ffd5b5061009f610260565b6100d76102b6565b6101076101027f360894a13ba1a3210667c828492db98dca3e2076cc3735a920a3ca505d382bbc5490565b61034e565b565b6001600160a01b037f0000000000000000000000000000000000000000000000000000000000000000163303610145576101428161036c565b50565b6101426100cf565b6001600160a01b037f00000000000000000000000000000000000000000000000000000000000000001633036101f1576101868361036c565b5f836001600160a01b031683836040516101a19291906104fc565b5f60405180830381855af49150503d805f81146101d9576040519150601f19603f3d011682016040523d82523d5f602084013e6101de565b606091505b50509050806101eb575f5ffd5b50505050565b6101f96100cf565b505050565b5f6001600160a01b037f000000000000000000000000000000000000000000000000000000000000000016330361025557507f360894a13ba1a3210667c828492db98dca3e2076cc3735a920a3ca505d382bbc5490565b61025d6100cf565b90565b5f6001600160a01b037f000000000000000000000000000000000000000000000000000000000000000016330361025557507f000000000000000000000000000000000000000000000000000000000000000090565b6001600160a01b037f00000000000000000000000000000000000000000000000000000000000000001633036101075760405162461bcd60e51b815260206004820152603260248201527f43616e6e6f742063616c6c2066616c6c6261636b2066756e6374696f6e20667260448201527137b6903a343290383937bc3c9030b236b4b760711b60648201526084015b60405180910390fd5b365f5f375f5f365f845af43d5f5f3e808015610368573d5ff35b3d5ffd5b610375816103ab565b6040516001600160a01b038216907fbc7cd75a20ee27fd9adebab32041f755214dbc6bffa90cc0225b39da2e5c2d3b905f90a250565b803b61041f5760405162461bcd60e51b815260206004820152603b60248201527f43616e6e6f742073657420612070726f787920696d706c656d656e746174696f60448201527f6e20746f2061206e6f6e2d636f6e7472616374206164647265737300000000006064820152608401610345565b7f360894a13ba1a3210667c828492db98dca3e2076cc3735a920a3ca505d382bbc55565b80356001600160a01b0381168114610459575f5ffd5b919050565b5f6020828403121561046e575f5ffd5b61047782610443565b9392505050565b5f5f5f60408486031215610490575f5ffd5b61049984610443565b9250602084013567ffffffffffffffff8111156104b4575f5ffd5b8401601f810186136104c4575f5ffd5b803567ffffffffffffffff8111156104da575f5ffd5b8660208284010111156104eb575f5ffd5b939660209190910195509293505050565b818382375f910190815291905056fea164736f6c634300081b000a","linkReferences":{}},"methodIdentifiers":{"admin()":"f851a440","implementation()":"5c60da1b","upgradeTo(address)":"3659cfe6","upgradeToAndCall(address,bytes)":"4f1ef286"},"id":171}