{"abi":[{"type":"function","name":"getCreate2Address","inputs":[{"name":"contractPath","type":"string","internalType":"string"},{"name":"args","type":"bytes","internalType":"bytes"},{"name":"_salt","type":"bytes32","internalType":"bytes32"}],"outputs":[{"name":"","type":"address","internalType":"address"}],"stateMutability":"view"}],"bytecode":{"object":"0x6080604052348015600e575f5ffd5b506103948061001c5f395ff3fe608060405234801561000f575f5ffd5b5060043610610028575f3560e01c8062d329ea1461002c575b5f5ffd5b61003f61003a3660046101ff565b61005b565b6040516001600160a01b03909116815260200160405180910390f35b604051638d1cc92560e01b81525f908190737109709ecfa91a80626ff3989d68f67f5b1dd12d90638d1cc925906100969088906004016102b5565b5f60405180830381865afa1580156100b0573d5f5f3e3d5ffd5b505050506040513d5f823e601f3d908101601f191682016040526100d791908101906102e7565b846040516020016100e9929190610359565b60408051808303601f1901815282825280516020918201206001600160f81b0319828501523060601b6bffffffffffffffffffffffff19166021850152603584019690965260558084019690965281518084039096018652607590920190528351930192909220949350505050565b634e487b7160e01b5f52604160045260245ffd5b604051601f8201601f1916810167ffffffffffffffff8111828210171561019557610195610158565b604052919050565b5f67ffffffffffffffff8211156101b6576101b6610158565b50601f01601f191660200190565b5f6101d66101d18461019d565b61016c565b90508281528383830111156101e9575f5ffd5b828260208301375f602084830101529392505050565b5f5f5f60608486031215610211575f5ffd5b833567ffffffffffffffff811115610227575f5ffd5b8401601f81018613610237575f5ffd5b610246868235602084016101c4565b935050602084013567ffffffffffffffff811115610262575f5ffd5b8401601f81018613610272575f5ffd5b610281868235602084016101c4565b93969395505050506040919091013590565b5f5b838110156102ad578181015183820152602001610295565b50505f910152565b602081525f82518060208401526102d3816040850160208701610293565b601f01601f19169190910160400192915050565b5f602082840312156102f7575f5ffd5b815167ffffffffffffffff81111561030d575f5ffd5b8201601f8101841361031d575f5ffd5b805161032b6101d18261019d565b81815285602083850101111561033f575f5ffd5b610350826020830160208601610293565b95945050505050565b5f835161036a818460208801610293565b83519083019061037e818360208801610293565b0194935050505056fea164736f6c634300081b000a","linkReferences":{}},"methodIdentifiers":{"getCreate2Address(string,bytes,bytes32)":"00d329ea"},"id":285}