{"abi":[{"type":"constructor","inputs":[{"name":"poolAddressesProvider","type":"address","internalType":"address"},{"name":"interestRateStrategy","type":"address","internalType":"address"}],"stateMutability":"nonpayable"},{"type":"function","name":"getPoolReport","inputs":[],"outputs":[{"name":"","type":"tuple","internalType":"struct PoolReport","components":[{"name":"poolImplementation","type":"address","internalType":"address"},{"name":"poolConfiguratorImplementation","type":"address","internalType":"address"}]}],"stateMutability":"view"},{"type":"error","name":"InterestRateStrategyNotFound","inputs":[]},{"type":"error","name":"L2MustBeDisabled","inputs":[]},{"type":"error","name":"L2MustBeEnabled","inputs":[]},{"type":"error","name":"PoolAdminNotFound","inputs":[]},{"type":"error","name":"ProviderNotFound","inputs":[]},{"type":"error","name":"ProxyAdminNotFound","inputs":[]}],"bytecode":{"object":"0x608060405234801561000f575f5ffd5b5060405161988a38038061988a83398101604081905261002e916101c4565b6100388282610072565b80515f80546001600160a01b03199081166001600160a01b0393841617909155602090920151600180549093169116179055506101f59050565b604080518082019091525f80825260208201526001600160a01b0383166100ac5760405163b1cd090360e01b815260040160405180910390fd5b6001600160a01b0382166100d35760405163159fd27160e11b815260040160405180910390fd5b604080518082019091525f80825260208201526100f08484610118565b6001600160a01b03168152610103610161565b6001600160a01b031660208201529392505050565b5f5f83836040516101289061018f565b6001600160a01b03928316815291166020820152604001604051809103905ff080158015610158573d5f5f3e3d5ffd5b50949350505050565b5f5f60405161016f9061019c565b604051809103905ff080158015610188573d5f5f3e3d5ffd5b5092915050565b6155148061028a83390190565b6140ec8061579e83390190565b80516001600160a01b03811681146101bf575f5ffd5b919050565b5f5f604083850312156101d5575f5ffd5b6101de836101a9565b91506101ec602084016101a9565b90509250929050565b6089806102015f395ff3fe6080604052348015600e575f5ffd5b50600436106026575f3560e01c8063aec5b39b14602a575b5f5ffd5b6040805180820182525f80825260209182018190528251808401845290546001600160a01b03908116808352600154821692840192835284519081529151169181019190915281519081900390910190f3fea164736f6c634300081b000a60c06040525f5f55348015610012575f5ffd5b5060405161551438038061551483398101604081905261003191610090565b818160095f556001600160a01b03808316608052811661006457604051633bf95ba760e01b815260040160405180910390fd5b6001600160a01b031660a052506100c8915050565b6001600160a01b038116811461008d575f5ffd5b50565b5f5f604083850312156100a1575f5ffd5b82516100ac81610079565b60208401519092506100bd81610079565b809150509250929050565b60805160a0516153446101d05f395f818161049a01528181610dc201528181610f13015281816111e00152818161148b015281816115e50152818161188b01528181611baf01528181611d1501528181612382015281816125210152818161266f01528181612969015261353301525f818161043601528181610c8b01528181610d470152818161109901528181611255015281816114ff01528181611742015281816118ff01528181611a5301528181611d590152818161227f01528181612461015281816126df0152818161279b01528181612a0301528181612ed6015281816130d40152818161334f015281816135a7015281816139560152613a6801526153445ff3fe608060405234801561000f575f5ffd5b50600436106103ea575f3560e01c8063932f12c81161020b578063c952485d1161011f578063e8eda9df116100b4578063f51e435b11610084578063f51e435b14610b78578063f8119d5114610b8b578063f9c2bd8714610b9a578063fea149a614610be5578063ff72158a14610bf8575f5ffd5b8063e8eda9df146106ae578063eddf1b7914610b20578063ee3e210b14610b4b578063f32b9a7314610b5e575f5ffd5b8063d1946dbc116100ef578063d1946dbc14610acb578063d335015514610ae0578063d5ed393314610afa578063e43e88a114610b0d575f5ffd5b8063c952485d14610a43578063cea9d26f14610a77578063cff027d914610a8a578063d15e005314610ab8575f5ffd5b8063ab9c4b5d116101a0578063b286f46711610170578063b286f4671461090a578063b8caa7c51461099c578063bf92857c146109af578063c44b11f7146109ef578063c4d66de814610a30575f5ffd5b8063ab9c4b5d1461088f578063ac9650d8146108a2578063b0771dba146108c2578063b1a99e26146108f7575f5ffd5b80639cd19996116101db5780639cd1999614610843578063a1d2f3c414610856578063a415bcad14610869578063ab2b51f61461087c575f5ffd5b8063932f12c8146107f7578063972b35fa1461080a57806398c7da4e1461081d5780639c1d5f0014610830575f5ffd5b806352751797116103025780636c6f6ae1116102975780637b75d7f4116102675780637b75d7f41461076f578063870e774414610782578063903a2c711461079c578063911a3413146107ca57806392380ecb146107e4575f5ffd5b80636c6f6ae1146106ef5780636fb07f961461070f57806371459c151461074a57806372218d041461075c575f5ffd5b8063617ba037116102d2578063617ba037146106ae57806363c9b860146106c157806369328dec146106d45780636a99c036146106e7575f5ffd5b8063527517971461060d578063573ade81146106395780635a3b74b91461064c5780635c9a8b181461065f575f5ffd5b80632be29fa711610383578063365090a011610353578063365090a014610556578063386497fd1461058457806342b0b77c146105975780634417a583146105aa5780634ba06814146105fa575f5ffd5b80632be29fa7146104ef5780632dad97d414610509578063348fde0f1461051c57806335ea6a7514610536575f5ffd5b8063074b2e43116103be578063074b2e43146104705780631b8feb0e146104955780632083e183146104bc57806328530a47146104dc575f5ffd5b8062a718a9146103ee5780630148170e1461040357806302c205f01461041e5780630542975c14610431575b5f5ffd5b6104016103fc366004613d85565b610c0b565b005b61040b600981565b6040519081526020015b60405180910390f35b61040161042c366004613e0a565b610e40565b6104587f000000000000000000000000000000000000000000000000000000000000000081565b6040516001600160a01b039091168152602001610415565b603a546001600160801b03165b6040516001600160801b039091168152602001610415565b6104587f000000000000000000000000000000000000000000000000000000000000000081565b6104cf6104ca366004613e84565b610fb2565b6040516104159190613eea565b6104016104ea366004613e84565b611058565b73__$83e702f37eeb79ca6ea8c03d9bc14d29cb$__610458565b61040b610517366004613efc565b61116a565b73__$1aecd72e546835de8d2664e100f70770e0$__610458565b610549610544366004613f2e565b611366565b6040516104159190613f49565b610458610564366004613f2e565b6001600160a01b039081165f908152603460205260409020600601541690565b61040b610592366004613f2e565b61157d565b6104016105a536600461411e565b6115a3565b6105eb6105b8366004613f2e565b60408051602080820183525f918290526001600160a01b0393909316815260358352819020815192830190915254815290565b60405190518152602001610415565b61040161060836600461419a565b6116f0565b61045861061b3660046141cf565b61ffff165f908152603660205260409020546001600160a01b031690565b61040b6106473660046141e8565b611815565b61040161065a36600461422f565b611a12565b61069861066d366004613f2e565b6001600160a01b03165f90815260346020526040902060030154600160b81b900464ffffffffff1690565b60405164ffffffffff9091168152602001610415565b6104016106bc36600461425b565b611b3d565b6104016106cf366004613f2e565b611c4a565b61040b6106e23660046142a9565b611ca0565b61271061047d565b6107026106fd366004613e84565b611e21565b60405161041591906142e8565b61047d61071d366004613f2e565b6001600160a01b03165f90815260346020526040902060080154600160801b90046001600160801b031690565b61040b67554d4252454c4c4160c01b81565b603b54600160401b900461ffff1661040b565b61040161077d36600461433e565b611f31565b73__$91b47d451814c731a99462488968bab857$__610458565b61047d6107aa366004613e84565b60ff165f908152603760205260409020600201546001600160801b031690565b73__$6d137c64be18f5cad883104c2a9fa60a79$__610458565b6104016107f2366004614399565b612047565b6104016108053660046143ca565b6120bd565b610401610818366004614407565b61222d565b61040161082b366004613f2e565b612342565b61040161083e366004614434565b6123cd565b61040161085136600461448d565b6123f7565b61040b6108643660046144cb565b612433565b6104016108773660046144f5565b6125eb565b61040161088a366004613f2e565b612832565b61040161089d366004614540565b61288b565b6108b56108b036600461448d565b612bb4565b604051610415919061463b565b61047d6108d0366004613e84565b60ff165f90815260376020526040902054660100000000000090046001600160801b031690565b61040161090536600461469e565b612c99565b61096f610918366004613e84565b604080516060810182525f808252602080830182815283850183815260ff9690961680845260378084529584205461ffff808216875262010000820481169093529352939052640100000000900490911690915290565b60408051825161ffff90811682526020808501518216908301529282015190921690820152606001610415565b6104016109aa36600461422f565b612d79565b6109c26109bd366004613f2e565b612e58565b604080519687526020870195909552938501929092526060840152608083015260a082015260c001610415565b6105eb6109fd366004613f2e565b60408051602080820183525f918290526001600160a01b0393909316815260348352819020815192830190915254815290565b610401610a3e366004613f2e565b61302e565b61040b610a51366004613f2e565b6001600160a01b03165f908152603460205260409020600301546001600160801b031690565b610401610a853660046146d3565b613139565b610458610a98366004613f2e565b6001600160a01b039081165f908152603460205260409020600401541690565b61040b610ac6366004613f2e565b613190565b610ad36131b0565b6040516104159190614711565b73__$5c81c34ced5c181849a1f58b32d6fe0e6c$__610458565b610401610b0836600461475c565b6132a4565b610401610b1b366004613f2e565b61344e565b61040b610b2e366004613f2e565b6001600160a01b03165f9081526038602052604090205460ff1690565b61040b610b593660046147bd565b61349d565b73__$3e9faf92b4e65bc494281f12b43a229306$__610458565b610401610b863660046147fe565b6136ea565b60405160808152602001610415565b610bd5610ba836600461483c565b6001600160a01b039182165f908152603c6020908152604080832093909416825291909152205460ff1690565b6040519015158152602001610415565b610401610bf3366004613f2e565b6137bc565b610401610c06366004614399565b613842565b73__$6d137c64be18f5cad883104c2a9fa60a79$__6383c1087d6034603660356037604051806101400160405280610c403390565b6001600160a01b031681526020018981526020018c6001600160a01b031681526020018b6001600160a01b031681526020018a6001600160a01b0316815260200188151581526020017f00000000000000000000000000000000000000000000000000000000000000006001600160a01b031663fca513a86040518163ffffffff1660e01b8152600401602060405180830381865afa158015610ce5573d5f5f3e3d5ffd5b505050506040513d601f19601f82011682018060405250810190610d099190614858565b6001600160a01b0390811682528b81165f908152603860209081526040918290205460ff16818501528151635eb88d3d60e01b8152825192909401937f000000000000000000000000000000000000000000000000000000000000000090931692635eb88d3d92600480830193928290030181865afa158015610d8e573d5f5f3e3d5ffd5b505050506040513d601f19601f82011682018060405250810190610db29190614858565b6001600160a01b031681526020017f00000000000000000000000000000000000000000000000000000000000000006001600160a01b03168152506040518663ffffffff1660e01b8152600401610e0d959493929190614873565b5f6040518083038186803b158015610e23575f5ffd5b505af4158015610e35573d5f5f3e3d5ffd5b505050505050505050565b60405163d505accf60e01b81526001600160a01b0389169063d505accf90610e7890339030908c908a908a908a908a90600401614958565b5f604051808303815f87803b158015610e8f575f5ffd5b505af1925050508015610ea0575060015b5073__$91b47d451814c731a99462488968bab857$__631913f1616034603660355f8b6001600160a01b03166001600160a01b031681526020019081526020015f206040518060c00160405280610ef43390565b6001600160a01b031681526020018e6001600160a01b031681526020017f00000000000000000000000000000000000000000000000000000000000000006001600160a01b031681526020018d81526020018c6001600160a01b031681526020018b61ffff168152506040518563ffffffff1660e01b8152600401610f7c9493929190614999565b5f6040518083038186803b158015610f92575f5ffd5b505af4158015610fa4573d5f5f3e3d5ffd5b505050505050505050505050565b60ff81165f908152603760205260409020600101805460609190610fd590614a0a565b80601f016020809104026020016040519081016040528092919081815260200182805461100190614a0a565b801561104c5780601f106110235761010080835404028352916020019161104c565b820191905f5260205f20905b81548152906001019060200180831161102f57829003601f168201915b50505050509050919050565b73__$3e9faf92b4e65bc494281f12b43a229306$__631eb87a9c603460366037603860355f336001600160a01b0316815260208101919091526040015f20337f00000000000000000000000000000000000000000000000000000000000000006001600160a01b031663fca513a86040518163ffffffff1660e01b8152600401602060405180830381865afa1580156110f3573d5f5f3e3d5ffd5b505050506040513d601f19601f820116820180604052508101906111179190614858565b896040518963ffffffff1660e01b815260040161113b989796959493929190614a3c565b5f6040518083038186803b158015611151575f5ffd5b505af4158015611163573d5f5f3e3d5ffd5b5050505050565b5f73__$83e702f37eeb79ca6ea8c03d9bc14d29cb$__6338ca4d8a603460366037603586336001600160a01b03166001600160a01b031681526020019081526020015f206040518061012001604052808b6001600160a01b031681526020016111d03390565b6001600160a01b031681526020017f00000000000000000000000000000000000000000000000000000000000000006001600160a01b031681526020018a815260200189600281111561122557611225614a81565b600281111561123657611236614a81565b8152602001336001600160a01b031681526020016001151581526020017f00000000000000000000000000000000000000000000000000000000000000006001600160a01b031663fca513a86040518163ffffffff1660e01b8152600401602060405180830381865afa1580156112af573d5f5f3e3d5ffd5b505050506040513d601f19601f820116820180604052508101906112d39190614858565b6001600160a01b03168152335f908152603860209081526040918290205460ff169201919091525160e087901b6001600160e01b031916815261131d959493929190600401614ab5565b602060405180830381865af4158015611338573d5f5f3e3d5ffd5b505050506040513d601f19601f8201168201806040525081019061135c9190614b60565b90505b9392505050565b60408051610200810182525f6101e08201818152825260208201819052918101829052606081018290526080810182905260a0810182905260c0810182905260e08101829052610100810182905261012081018290526101408101829052610160810182905261018081018290526101a081018290526101c08101919091526001600160a01b038281165f9081526034602090815260408083208151808401835281548152865260018101546001600160801b0380821694880194909452600160801b908190048416878401526002820154808516606089015281900484166080880152600382015490810464ffffffffff1660c0880152600160a81b900461ffff1660e08701526004808201548616610100880152600682015486166101408801527f00000000000000000000000000000000000000000000000000000000000000008616610160880152600882015484166101808801526101a087019490945260098101549092166101c0860152516321f8a72160e01b81526f1353d0d2d7d4d51050931157d111509560821b92810192909252917f000000000000000000000000000000000000000000000000000000000000000016906321f8a72190602401602060405180830381865afa158015611544573d5f5f3e3d5ffd5b505050506040513d601f19601f820116820180604052508101906115689190614858565b6001600160a01b031661012083015250919050565b6001600160a01b0381165f90815260346020526040812061159d906138a2565b92915050565b5f6040518061010001604052806115b73390565b6001600160a01b03168152602001886001600160a01b03168152602001876001600160a01b031681526020017f00000000000000000000000000000000000000000000000000000000000000006001600160a01b0316815260200186815260200185858080601f0160208091040260200160405190810160405280939291908181526020018383808284375f92018290525093855250505061ffff8516602080840191909152603a546001600160801b03166040938401526001600160a01b038a16825260349052819020905163a1fe0e8d60e01b815291925073__$1aecd72e546835de8d2664e100f70770e0$__9163a1fe0e8d916116bb918590600401614b77565b5f6040518083038186803b1580156116d1575f5ffd5b505af41580156116e3573d5f5f3e3d5ffd5b5050505050505050505050565b806116fa81613904565b73__$3e9faf92b4e65bc494281f12b43a229306$__631eb87a9c603460366037603860355f896001600160a01b03166001600160a01b031681526020019081526020015f20887f00000000000000000000000000000000000000000000000000000000000000006001600160a01b031663fca513a86040518163ffffffff1660e01b8152600401602060405180830381865afa15801561179c573d5f5f3e3d5ffd5b505050506040513d601f19601f820116820180604052508101906117c09190614858565b8b6040518963ffffffff1660e01b81526004016117e4989796959493929190614a3c565b5f6040518083038186803b1580156117fa575f5ffd5b505af415801561180c573d5f5f3e3d5ffd5b50505050505050565b5f73__$83e702f37eeb79ca6ea8c03d9bc14d29cb$__6338ca4d8a60346036603760355f886001600160a01b03166001600160a01b031681526020019081526020015f206040518061012001604052808c6001600160a01b0316815260200161187b3390565b6001600160a01b031681526020017f00000000000000000000000000000000000000000000000000000000000000006001600160a01b031681526020018b81526020018a60028111156118d0576118d0614a81565b60028111156118e1576118e1614a81565b8152602001896001600160a01b031681526020015f151581526020017f00000000000000000000000000000000000000000000000000000000000000006001600160a01b031663fca513a86040518163ffffffff1660e01b8152600401602060405180830381865afa158015611959573d5f5f3e3d5ffd5b505050506040513d601f19601f8201168201806040525081019061197d9190614858565b6001600160a01b0390811682528a165f908152603860209081526040918290205460ff16920191909152516001600160e01b031960e088901b1681526119ca959493929190600401614ab5565b602060405180830381865af41580156119e5573d5f5f3e3d5ffd5b505050506040513d601f19601f82011682018060405250810190611a099190614b60565b95945050505050565b73__$91b47d451814c731a99462488968bab857$__63d230964160346036603760355f336001600160a01b0316815260208101919091526040015f203388887f00000000000000000000000000000000000000000000000000000000000000006001600160a01b031663fca513a86040518163ffffffff1660e01b8152600401602060405180830381865afa158015611aad573d5f5f3e3d5ffd5b505050506040513d601f19601f82011682018060405250810190611ad19190614858565b335f908152603860205260409081902054905160e08b901b6001600160e01b0319168152611b0d99989796959493929160ff1690600401614c23565b5f6040518083038186803b158015611b23575f5ffd5b505af4158015611b35573d5f5f3e3d5ffd5b505050505050565b73__$91b47d451814c731a99462488968bab857$__631913f1616034603660355f876001600160a01b03166001600160a01b031681526020019081526020015f206040518060c00160405280611b903390565b6001600160a01b031681526020018a6001600160a01b031681526020017f00000000000000000000000000000000000000000000000000000000000000006001600160a01b03168152602001898152602001886001600160a01b031681526020018761ffff168152506040518563ffffffff1660e01b8152600401611c189493929190614999565b5f6040518083038186803b158015611c2e575f5ffd5b505af4158015611c40573d5f5f3e3d5ffd5b5050505050505050565b611c5261394a565b604051639cf5702360e01b815260346004820152603660248201526001600160a01b038216604482015273__$5c81c34ced5c181849a1f58b32d6fe0e6c$__90639cf570239060640161113b565b5f73__$91b47d451814c731a99462488968bab857$__63186dea44603460366037603586336001600160a01b03166001600160a01b031681526020019081526020015f206040518060e00160405280611cf63390565b6001600160a01b031681526020018b6001600160a01b031681526020017f00000000000000000000000000000000000000000000000000000000000000006001600160a01b031681526020018a8152602001896001600160a01b031681526020017f00000000000000000000000000000000000000000000000000000000000000006001600160a01b031663fca513a86040518163ffffffff1660e01b8152600401602060405180830381865afa158015611db3573d5f5f3e3d5ffd5b505050506040513d601f19601f82011682018060405250810190611dd79190614858565b6001600160a01b03168152335f908152603860209081526040918290205460ff169201919091525160e087901b6001600160e01b031916815261131d959493929190600401614c73565b6040805160a080820183525f80835260208084018290528385018290526060808501839052608080860182905260ff881684526037835286842087519586018852805461ffff80821688526201000082048116958801959095526401000000009004909316968501969096528301919091526001810180549394919391830191611eaa90614a0a565b80601f0160208091040260200160405190810160405280929190818152602001828054611ed690614a0a565b8015611f215780601f10611ef857610100808354040283529160200191611f21565b820191905f5260205f20905b815481529060010190602001808311611f0457829003601f168201915b5050505050815250915050919050565b611f3961394a565b8160ff165f03611f5c57604051639284211360e01b815260040160405180910390fd5b611f6960208201826141cf565b60ff83165f90815260376020908152604091829020805461ffff191661ffff9490941693909317909255611fa2919083019083016141cf565b60ff83165f9081526037602052604090819020805461ffff93909316620100000263ffff00001990931692909217909155611fe390606083019083016141cf565b60ff83165f908152603760205260409020805461ffff929092166401000000000265ffff00000000199092169190911790556120226060820182614cfc565b60ff84165f90815260376020526040902060010191612042919083614d96565b505050565b61204f61394a565b8160ff165f0361207257604051639284211360e01b815260040160405180910390fd5b60ff9091165f90815260376020526040902080546001600160801b0390921666010000000000000275ffffffffffffffffffffffffffffffff00000000000019909216919091179055565b6120c561394a565b73__$5c81c34ced5c181849a1f58b32d6fe0e6c$__6369fc1bdf603460366040518060a00160405280886001600160a01b03168152602001876001600160a01b03168152602001866001600160a01b03168152602001603b60089054906101000a900461ffff1661ffff16815260200161213d608090565b61ffff908116909152604080516001600160e01b031960e088901b1681526004810195909552602485019390935281516001600160a01b0390811660448601526020830151811660648601529282015190921660848401526060810151821660a4840152608001511660c482015260e401602060405180830381865af41580156121c9573d5f5f3e3d5ffd5b505050506040513d601f19601f820116820180604052508101906121ed9190614e4f565b1561204257603b8054600160401b900461ffff1690600861220d83614e7e565b91906101000a81548161ffff021916908361ffff16021790555050505050565b8061223781613904565b73__$91b47d451814c731a99462488968bab857$__63d230964160346036603760355f886001600160a01b03166001600160a01b031681526020019081526020015f20878a8a7f00000000000000000000000000000000000000000000000000000000000000006001600160a01b031663fca513a86040518163ffffffff1660e01b8152600401602060405180830381865afa1580156122d9573d5f5f3e3d5ffd5b505050506040513d601f19601f820116820180604052508101906122fd9190614858565b6001600160a01b038c165f90815260386020526040908190205490516001600160e01b031960e08c901b168152611c1899989796959493929160ff1690600401614c23565b61234a61394a565b6001600160a01b038181165f818152603460205260409081902090516320d4602f60e11b8152600481019190915260248101919091527f0000000000000000000000000000000000000000000000000000000000000000909116604482015273__$5c81c34ced5c181849a1f58b32d6fe0e6c$__906341a8c05e9060640161113b565b6123d561394a565b603a80546001600160801b0319166001600160801b0392909216919091179055565b604051631230b2a360e21b815273__$5c81c34ced5c181849a1f58b32d6fe0e6c$__906348c2ca8c90611b0d9060349086908690600401614e9e565b5f336040516321f8a72160e01b815267554d4252454c4c4160c01b60048201526001600160a01b03918216917f000000000000000000000000000000000000000000000000000000000000000016906321f8a72190602401602060405180830381865afa1580156124a6573d5f5f3e3d5ffd5b505050506040513d601f19601f820116820180604052508101906124ca9190614858565b6001600160a01b0316146124f15760405163c45a7cdd60e01b815260040160405180910390fd5b335f8181526035602090815260409182902082516080810184529384526001600160a01b038781168584019081527f00000000000000000000000000000000000000000000000000000000000000008216868601908152606087018981528651631fa7982360e21b815260346004820152602481019590955296518316604485015290518216606484015251166084820152925160a4840152905173__$6d137c64be18f5cad883104c2a9fa60a79$__92637e9e608c9260c48083019391928290030181865af41580156125c7573d5f5f3e3d5ffd5b505050506040513d601f19601f8201168201806040525081019061135f9190614b60565b73__$83e702f37eeb79ca6ea8c03d9bc14d29cb$__631e6473f960346036603760355f876001600160a01b03166001600160a01b031681526020019081526020015f206040518061016001604052808c6001600160a01b031681526020016126503390565b6001600160a01b03168152602001886001600160a01b031681526020017f00000000000000000000000000000000000000000000000000000000000000006001600160a01b031681526020018b81526020018a60028111156126b4576126b4614a81565b60028111156126c5576126c5614a81565b81526020018961ffff1681526020016001151581526020017f00000000000000000000000000000000000000000000000000000000000000006001600160a01b031663fca513a86040518163ffffffff1660e01b8152600401602060405180830381865afa158015612739573d5f5f3e3d5ffd5b505050506040513d601f19601f8201168201806040525081019061275d9190614858565b6001600160a01b0390811682528981165f908152603860209081526040918290205460ff16818501528151635eb88d3d60e01b8152825192909401937f000000000000000000000000000000000000000000000000000000000000000090931692635eb88d3d92600480830193928290030181865afa1580156127e2573d5f5f3e3d5ffd5b505050506040513d601f19601f820116820180604052508101906128069190614858565b6001600160a01b03168152506040518663ffffffff1660e01b8152600401610e0d959493929190614ee7565b61283a61394a565b6001600160a01b0381165f9081526034602052604090819020905163d493415360e01b8152600481019190915273__$5c81c34ced5c181849a1f58b32d6fe0e6c$__9063d49341539060240161113b565b5f604051806101c0016040528061289f3390565b6001600160a01b031681526020018d6001600160a01b031681526020018c8c808060200260200160405190810160405280939291908181526020018383602002808284375f920191909152505050908252506040805160208c810282810182019093528c82529283019290918d918d9182918501908490808284375f920191909152505050908252506040805160208a810282810182019093528a82529283019290918b918b9182918501908490808284375f920191909152505050908252506001600160a01b037f000000000000000000000000000000000000000000000000000000000000000081166020808401919091529088166040808401919091528051601f88018390048302810183019091528681526060909201919087908790819084018382808284375f92018290525093855250505061ffff8516602080840191909152603a546001600160801b03166040808501919091526001600160a01b037f0000000000000000000000000000000000000000000000000000000000000000811660608601819052306080870152908b16845260388352928190205460ff1660a0850152805163383e6b8b60e11b8152905160c09094019363707cd716926004808401939192918290030181865afa158015612a81573d5f5f3e3d5ffd5b505050506040513d601f19601f82011682018060405250810190612aa59190614858565b6001600160a01b031663fa50f297336040516001600160e01b031960e084901b1681526001600160a01b039091166004820152602401602060405180830381865afa158015612af6573d5f5f3e3d5ffd5b505050506040513d601f19601f82011682018060405250810190612b1a9190614e4f565b151590526001600160a01b0386165f9081526035602052604090819020905163173931f560e11b815291925073__$1aecd72e546835de8d2664e100f70770e0$__91632e7263ea91612b7a9160349160369160379190889060040161503d565b5f6040518083038186803b158015612b90575f5ffd5b505af4158015612ba2573d5f5f3e3d5ffd5b50505050505050505050505050505050565b604080515f815260208101909152606090826001600160401b03811115612bdd57612bdd614d3e565b604051908082528060200260200182016040528015612c1057816020015b6060815260200190600190039081612bfb5790505b5091505f5b83811015612c9157612c6c30868684818110612c3357612c336151bb565b9050602002810190612c459190614cfc565b85604051602001612c58939291906151cf565b6040516020818303038152906040526139fd565b838281518110612c7e57612c7e6151bb565b6020908102919091010152600101612c15565b505092915050565b612ca161394a565b6001600160a01b0382165f90815260346020526040902060030154600160a81b900461ffff16151580612d0857505f805260366020527f4cb2b152c1b54ce671907a93c300fd5aa72383a9d4ec19a81e3333632ae92e00546001600160a01b038381169116145b612d255760405163b77e1e0f60e01b815260040160405180910390fd5b604051636ae4381360e01b8152603460048201526001600160a01b038316602482015264ffffffffff8216604482015273__$5c81c34ced5c181849a1f58b32d6fe0e6c$__90636ae4381390606401611b0d565b335f908152603c602090815260408083206001600160a01b038616845290915290205481151560ff909116151503612daf575050565b335f908152603c602090815260408083206001600160a01b03861684529091529020805460ff19168215801591909117909155612e1f576040516001600160a01b0383169033907f540e692f36c2fa13e7583c4deeffd91ce6bc04f91e7d84f295d9d858372875fc905f90a35050565b6040516001600160a01b0383169033907f08c92c3870d10c79e9673fecea8f4ff261f8e6b661067d9ca63fd777882bff15905f90a35050565b5f5f5f5f5f5f73__$5c81c34ced5c181849a1f58b32d6fe0e6c$__6326ec273f603460366037604051806080016040528060355f8f6001600160a01b03166001600160a01b031681526020019081526020015f206040518060200160405290815f8201548152505081526020018d6001600160a01b031681526020017f00000000000000000000000000000000000000000000000000000000000000006001600160a01b031663fca513a86040518163ffffffff1660e01b8152600401602060405180830381865afa158015612f30573d5f5f3e3d5ffd5b505050506040513d601f19601f82011682018060405250810190612f549190614858565b6001600160a01b0390811682528e81165f908152603860209081526040918290205460ff90811694820194909452815160e08a901b6001600160e01b0319168152600481019890985260248801969096526044870194909452825151606487015293820151841660848601529181015190921660a48401526060909101511660c482015260e40160c060405180830381865af4158015612ff6573d5f5f3e3d5ffd5b505050506040513d601f19601f8201168201806040525081019061301a91906151f4565b949c939b5091995097509550909350915050565b60015460099060ff16806130415750303b155b8061304c57505f5481115b6130b45760405162461bcd60e51b815260206004820152602e60248201527f436f6e747261637420696e7374616e63652068617320616c726561647920626560448201526d195b881a5b9a5d1a585b1a5e995960921b60648201526084015b60405180910390fd5b60015460ff161580156130d2576001805460ff1916811790555f8290555b7f00000000000000000000000000000000000000000000000000000000000000006001600160a01b0316836001600160a01b03161461312457604051633b175b8760e01b815260040160405180910390fd5b8015612042576001805460ff19169055505050565b613141613a66565b6040516343d9915960e11b81526001600160a01b038085166004830152831660248201526044810182905273__$5c81c34ced5c181849a1f58b32d6fe0e6c$__906387b322b2906064016117e4565b6001600160a01b0381165f90815260346020526040812061159d90613b78565b603b54606090600160401b900461ffff165f80826001600160401b038111156131db576131db614d3e565b604051908082528060200260200182016040528015613204578160200160208202803683370190505b5090505f5b8381101561329a575f818152603660205260409020546001600160a01b031615613284575f818152603660205260409020546001600160a01b03168261324f85846151a8565b8151811061325f5761325f6151bb565b60200260200101906001600160a01b031690816001600160a01b031681525050613292565b8261328e8161523a565b9350505b600101613209565b5091038152919050565b6001600160a01b038681165f908152603460205260409020600401541633146132e0576040516393b9ef1f60e01b815260040160405180910390fd5b73__$91b47d451814c731a99462488968bab857$__638a5dadd160346036603760356040518061010001604052808d6001600160a01b031681526020018c6001600160a01b031681526020018b6001600160a01b031681526020018a81526020018981526020018881526020017f00000000000000000000000000000000000000000000000000000000000000006001600160a01b031663fca513a86040518163ffffffff1660e01b8152600401602060405180830381865afa1580156133a9573d5f5f3e3d5ffd5b505050506040513d601f19601f820116820180604052508101906133cd9190614858565b6001600160a01b0390811682528d165f908152603860209081526040918290205460ff16920191909152516001600160e01b031960e088901b16815261341a959493929190600401615252565b5f6040518083038186803b158015613430575f5ffd5b505af4158015613442573d5f5f3e3d5ffd5b50505050505050505050565b61345661394a565b604051631e3b414560e01b8152603460048201526001600160a01b038216602482015273__$5c81c34ced5c181849a1f58b32d6fe0e6c$__90631e3b41459060440161113b565b60405163d505accf60e01b81525f906001600160a01b038a169063d505accf906134d790339030908d908b908b908b908b90600401614958565b5f604051808303815f87803b1580156134ee575f5ffd5b505af19250505080156134ff575060015b505f6040518061012001604052808b6001600160a01b031681526020016135233390565b6001600160a01b031681526020017f00000000000000000000000000000000000000000000000000000000000000006001600160a01b031681526020018a815260200189600281111561357857613578614a81565b600281111561358957613589614a81565b8152602001886001600160a01b031681526020015f151581526020017f00000000000000000000000000000000000000000000000000000000000000006001600160a01b031663fca513a86040518163ffffffff1660e01b8152600401602060405180830381865afa158015613601573d5f5f3e3d5ffd5b505050506040513d601f19601f820116820180604052508101906136259190614858565b6001600160a01b03908116825289165f8181526038602090815260408083205460ff169482019490945291815260359091528190209051631c6526c560e11b815291925073__$83e702f37eeb79ca6ea8c03d9bc14d29cb$__916338ca4d8a9161369d91603491603691603791908890600401614ab5565b602060405180830381865af41580156136b8573d5f5f3e3d5ffd5b505050506040513d601f19601f820116820180604052508101906136dc9190614b60565b9a9950505050505050505050565b6136f261394a565b6001600160a01b03821661371957604051633bf95ba760e01b815260040160405180910390fd5b6001600160a01b0382165f90815260346020526040902060030154600160a81b900461ffff1615158061378057505f805260366020527f4cb2b152c1b54ce671907a93c300fd5aa72383a9d4ec19a81e3333632ae92e00546001600160a01b038381169116145b61379d5760405163b77e1e0f60e01b815260040160405180910390fd5b6001600160a01b03919091165f90815260346020526040902090359055565b6001600160a01b0381165f908152603c6020908152604080832033845290915281205460ff16151590036137ed5750565b6001600160a01b0381165f818152603c60209081526040808320338085529252808320805460ff19169055519092917f08c92c3870d10c79e9673fecea8f4ff261f8e6b661067d9ca63fd777882bff1591a350565b61384a61394a565b8160ff165f0361386d57604051639284211360e01b815260040160405180910390fd5b60ff919091165f90815260376020526040902060020180546001600160801b0319166001600160801b03909216919091179055565b60038101545f90600160801b900464ffffffffff164281036138d0575050600201546001600160801b031690565b600283015461135f906001600160801b03808216916138f891600160801b9091041684613bce565b90613bda565b50919050565b6001600160a01b0381165f908152603c6020908152604080832033845290915290205460ff1661394757604051632af6008960e21b815260040160405180910390fd5b50565b336001600160a01b03167f00000000000000000000000000000000000000000000000000000000000000006001600160a01b031663631adfca6040518163ffffffff1660e01b8152600401602060405180830381865afa1580156139b0573d5f5f3e3d5ffd5b505050506040513d601f19601f820116820180604052508101906139d49190614858565b6001600160a01b0316146139fb576040516344ff885f60e01b815260040160405180910390fd5b565b60605f5f846001600160a01b031684604051613a1991906152f2565b5f60405180830381855af49150503d805f8114613a51576040519150601f19603f3d011682016040523d82523d5f602084013e613a56565b606091505b5091509150611a09858383613c1c565b7f00000000000000000000000000000000000000000000000000000000000000006001600160a01b031663707cd7166040518163ffffffff1660e01b8152600401602060405180830381865afa158015613ac2573d5f5f3e3d5ffd5b505050506040513d601f19601f82011682018060405250810190613ae69190614858565b6001600160a01b0316637be53ca1336040516001600160e01b031960e084901b1681526001600160a01b039091166004820152602401602060405180830381865afa158015613b37573d5f5f3e3d5ffd5b505050506040513d601f19601f82011682018060405250810190613b5b9190614e4f565b6139fb5760405163cdd36a9760e01b815260040160405180910390fd5b60038101545f90600160801b900464ffffffffff16428103613ba6575050600101546001600160801b031690565b600183015461135f906001600160801b03808216916138f891600160801b9091041684613c78565b5f61135f838342613cbc565b5f81156b019d971e4fe8401e740000001983900484111517613bfa575f5ffd5b506b033b2e3c9fd0803ce800000091026b019d971e4fe8401e74000000010490565b606082613c3157613c2c82613d2b565b61135f565b8151158015613c4857506001600160a01b0384163b155b15613c7157604051639996b31560e01b81526001600160a01b03851660048201526024016130ab565b508061135f565b5f80613c8b64ffffffffff8416426151a8565b613c95908561530d565b6301e1338090049050613cb4816b033b2e3c9fd0803ce8000000615324565b949350505050565b5f80613ccf64ffffffffff8516846151a8565b9050805f03613ced576b033b2e3c9fd0803ce800000091505061135f565b6301e1338081860204613d12613d068260068104613bda565b82906002820401613bda565b016b033b2e3c9fd0803ce8000000019150509392505050565b805115613d3b5780518082602001fd5b60405163d6bda27560e01b815260040160405180910390fd5b6001600160a01b0381168114613947575f5ffd5b8035613d7381613d54565b919050565b8015158114613947575f5ffd5b5f5f5f5f5f60a08688031215613d99575f5ffd5b8535613da481613d54565b94506020860135613db481613d54565b93506040860135613dc481613d54565b9250606086013591506080860135613ddb81613d78565b809150509295509295909350565b803561ffff81168114613d73575f5ffd5b803560ff81168114613d73575f5ffd5b5f5f5f5f5f5f5f5f610100898b031215613e22575f5ffd5b8835613e2d81613d54565b9750602089013596506040890135613e4481613d54565b9550613e5260608a01613de9565b945060808901359350613e6760a08a01613dfa565b979a969950949793969295929450505060c08201359160e0013590565b5f60208284031215613e94575f5ffd5b61135f82613dfa565b5f5b83811015613eb7578181015183820152602001613e9f565b50505f910152565b5f8151808452613ed6816020860160208601613e9d565b601f01601f19169290920160200192915050565b602081525f61135f6020830184613ebf565b5f5f5f60608486031215613f0e575f5ffd5b8335613f1981613d54565b95602085013595506040909401359392505050565b5f60208284031215613f3e575f5ffd5b813561135f81613d54565b81515181526101e081016020830151613f6d60208401826001600160801b03169052565b506040830151613f8860408401826001600160801b03169052565b506060830151613fa360608401826001600160801b03169052565b506080830151613fbe60808401826001600160801b03169052565b5060a0830151613fd960a08401826001600160801b03169052565b5060c0830151613ff260c084018264ffffffffff169052565b5060e083015161400860e084018261ffff169052565b506101008301516140256101008401826001600160a01b03169052565b506101208301516140426101208401826001600160a01b03169052565b5061014083015161405f6101408401826001600160a01b03169052565b5061016083015161407c6101608401826001600160a01b03169052565b506101808301516140996101808401826001600160801b03169052565b506101a08301516140b66101a08401826001600160801b03169052565b506101c08301516140d36101c08401826001600160801b03169052565b5092915050565b5f5f83601f8401126140ea575f5ffd5b5081356001600160401b03811115614100575f5ffd5b602083019150836020828501011115614117575f5ffd5b9250929050565b5f5f5f5f5f5f60a08789031215614133575f5ffd5b863561413e81613d54565b9550602087013561414e81613d54565b94506040870135935060608701356001600160401b0381111561416f575f5ffd5b61417b89828a016140da565b909450925061418e905060808801613de9565b90509295509295509295565b5f5f604083850312156141ab575f5ffd5b6141b483613dfa565b915060208301356141c481613d54565b809150509250929050565b5f602082840312156141df575f5ffd5b61135f82613de9565b5f5f5f5f608085870312156141fb575f5ffd5b843561420681613d54565b93506020850135925060408501359150606085013561422481613d54565b939692955090935050565b5f5f60408385031215614240575f5ffd5b823561424b81613d54565b915060208301356141c481613d78565b5f5f5f5f6080858703121561426e575f5ffd5b843561427981613d54565b935060208501359250604085013561429081613d54565b915061429e60608601613de9565b905092959194509250565b5f5f5f606084860312156142bb575f5ffd5b83356142c681613d54565b92506020840135915060408401356142dd81613d54565b809150509250925092565b6020815261ffff825116602082015261ffff602083015116604082015261ffff604083015116606082015260018060a01b0360608301511660808201525f608083015160a080840152613cb460c0840182613ebf565b5f5f6040838503121561434f575f5ffd5b61435883613dfa565b915060208301356001600160401b03811115614372575f5ffd5b8301608081860312156141c4575f5ffd5b80356001600160801b0381168114613d73575f5ffd5b5f5f604083850312156143aa575f5ffd5b6143b383613dfa565b91506143c160208401614383565b90509250929050565b5f5f5f606084860312156143dc575f5ffd5b83356143e781613d54565b925060208401356143f781613d54565b915060408401356142dd81613d54565b5f5f5f60608486031215614419575f5ffd5b833561442481613d54565b925060208401356143f781613d78565b5f60208284031215614444575f5ffd5b61135f82614383565b5f5f83601f84011261445d575f5ffd5b5081356001600160401b03811115614473575f5ffd5b6020830191508360208260051b8501011115614117575f5ffd5b5f5f6020838503121561449e575f5ffd5b82356001600160401b038111156144b3575f5ffd5b6144bf8582860161444d565b90969095509350505050565b5f5f604083850312156144dc575f5ffd5b82356144e781613d54565b946020939093013593505050565b5f5f5f5f5f60a08688031215614509575f5ffd5b853561451481613d54565b9450602086013593506040860135925061453060608701613de9565b91506080860135613ddb81613d54565b5f5f5f5f5f5f5f5f5f5f5f60e08c8e03121561455a575f5ffd5b6145638c613d68565b9a5060208c01356001600160401b0381111561457d575f5ffd5b6145898e828f0161444d565b909b5099505060408c01356001600160401b038111156145a7575f5ffd5b6145b38e828f0161444d565b90995097505060608c01356001600160401b038111156145d1575f5ffd5b6145dd8e828f0161444d565b90975095506145f0905060808d01613d68565b935060a08c01356001600160401b0381111561460a575f5ffd5b6146168e828f016140da565b9094509250614629905060c08d01613de9565b90509295989b509295989b9093969950565b5f602082016020835280845180835260408501915060408160051b8601019250602086015f5b8281101561469257603f1987860301845261467d858351613ebf565b94506020938401939190910190600101614661565b50929695505050505050565b5f5f604083850312156146af575f5ffd5b82356146ba81613d54565b9150602083013564ffffffffff811681146141c4575f5ffd5b5f5f5f606084860312156146e5575f5ffd5b83356146f081613d54565b9250602084013561470081613d54565b929592945050506040919091013590565b602080825282518282018190525f918401906040840190835b818110156147515783516001600160a01b031683526020938401939092019160010161472a565b509095945050505050565b5f5f5f5f5f5f60c08789031215614771575f5ffd5b863561477c81613d54565b9550602087013561478c81613d54565b9450604087013561479c81613d54565b959894975094956060810135955060808101359460a0909101359350915050565b5f5f5f5f5f5f5f5f610100898b0312156147d5575f5ffd5b88356147e081613d54565b975060208901359650604089013595506060890135613e5281613d54565b5f5f8284036040811215614810575f5ffd5b833561481b81613d54565b92506020601f198201121561482e575f5ffd5b506020830190509250929050565b5f5f6040838503121561484d575f5ffd5b82356141b481613d54565b5f60208284031215614868575f5ffd5b815161135f81613d54565b85815260208101859052604081018490526060810183905281516001600160a01b031660808201526101c08101602083015160a083015260408301516001600160a01b03811660c08401525060608301516001600160a01b03811660e08401525060808301516001600160a01b0381166101008401525060a08301518015156101208401525060c08301516001600160a01b0381166101408401525060e083015160ff8116610160840152506101008301516001600160a01b038116610180840152506101208301516001600160a01b0381166101a08401525b509695505050505050565b6001600160a01b0397881681529590961660208601526040850193909352606084019190915260ff16608083015260a082015260c081019190915260e00190565b93845260208085019390935260408085019290925280516001600160a01b0390811660608087019190915293820151811660808087019190915292820151811660a0808701919091529382015160c08601529181015190911660e0840152015161ffff166101008201526101200190565b600181811c90821680614a1e57607f821691505b6020821081036138fe57634e487b7160e01b5f52602260045260245ffd5b97885260208801969096526040870194909452606086019290925260808501526001600160a01b0390811660a08501521660c083015260ff1660e08201526101000190565b634e487b7160e01b5f52602160045260245ffd5b60038110614ab157634e487b7160e01b5f52602160045260245ffd5b9052565b858152602080820186905260408083018690526060830185905283516001600160a01b03908116608085015291840151821660a084015283015190811660c08301526101a082019050606083015160e08301526080830151614b1b610100840182614a95565b5060a08301516001600160a01b0390811661012084015260c0840151151561014084015260e08401511661016083015261010083015160ff811661018084015261494d565b5f60208284031215614b70575f5ffd5b5051919050565b8281526040602080830182905283516001600160a01b0390811683850152908401511660608301528201515f90614bb960808401826001600160a01b03169052565b5060608301516001600160a01b03811660a084015250608083015160c083015260a083015161010060e0840152614bf4610140840182613ebf565b905060c0840151614c0c61010085018261ffff169052565b5060e0840151610120840152809150509392505050565b9889526020890197909752604088019590955260608701939093526001600160a01b039182166080870152811660a086015290151560c08501521660e083015260ff166101008201526101200190565b85815260208082018690526040808301869052606080840186905284516001600160a01b0390811660808087019190915293860151811660a08087019190915292860151811660c0808701919091529186015160e08601529285015183166101008501529084015190911661012083015282015160ff811661014083015261016082019061494d565b5f5f8335601e19843603018112614d11575f5ffd5b8301803591506001600160401b03821115614d2a575f5ffd5b602001915036819003821315614117575f5ffd5b634e487b7160e01b5f52604160045260245ffd5b601f82111561204257805f5260205f20601f840160051c81016020851015614d775750805b601f840160051c820191505b81811015611163575f8155600101614d83565b6001600160401b03831115614dad57614dad614d3e565b614dc183614dbb8354614a0a565b83614d52565b5f601f841160018114614df2575f8515614ddb5750838201355b5f19600387901b1c1916600186901b178355611163565b5f83815260208120601f198716915b82811015614e215786850135825560209485019460019092019101614e01565b5086821015614e3d575f1960f88860031b161c19848701351681555b505060018560011b0183555050505050565b5f60208284031215614e5f575f5ffd5b815161135f81613d78565b634e487b7160e01b5f52601160045260245ffd5b5f61ffff821661ffff8103614e9557614e95614e6a565b60010192915050565b83815260406020820181905281018290525f8360608301825b8581101561494d578235614eca81613d54565b6001600160a01b0316825260209283019290910190600101614eb7565b85815260208101859052604081018490526060810183905281516001600160a01b031660808201526101e0810160208301516001600160a01b03811660a08401525060408301516001600160a01b03811660c08401525060608301516001600160a01b03811660e084015250608083015161010083015260a0830151614f71610120840182614a95565b5060c083015161ffff166101408381019190915260e084015115156101608401526101008401516001600160a01b0390811661018085015261012085015160ff166101a0850152908401519081166101c084015261494d565b5f8151808452602084019350602083015f5b828110156150035781516001600160a01b0316865260209586019590910190600101614fdc565b5093949350505050565b5f8151808452602084019350602083015f5b8281101561500357815186526020958601959091019060010161501f565b85815284602082015283604082015282606082015260a0608082015261506f60a0820183516001600160a01b03169052565b5f602083015161508a60c08401826001600160a01b03169052565b5060408301516101c060e08401526150a6610260840182614fca565b90506060840151609f19848303016101008501526150c4828261500d565b9150506080840151609f19848303016101208501526150e3828261500d565b91505060a08401516151016101408501826001600160a01b03169052565b5060c08401516001600160a01b031661016084015260e0840151838203609f19016101808501526151328282613ebf565b91505061010084015161514c6101a085018261ffff169052565b506101208401516101c08401526101408401516001600160a01b039081166101e08501526101608501511661020084015261018084015160ff166102208401526101a09093015115156102409092019190915250949350505050565b8181038181111561159d5761159d614e6a565b634e487b7160e01b5f52603260045260245ffd5b828482375f8382015f815283516151ea818360208801613e9d565b0195945050505050565b5f5f5f5f5f5f60c08789031215615209575f5ffd5b50508451602086015160408701516060880151608089015160a090990151939a929950909790965094509092509050565b5f6001820161524b5761524b614e6a565b5060010190565b5f6101808201905086825285602083015284604083015283606083015260018060a01b03835116608083015260018060a01b0360208401511660a083015260018060a01b0360408401511660c0830152606083015160e0830152608083015161010083015260a083015161012083015260c08301516152dd6101408401826001600160a01b03169052565b5060e083015160ff811661016084015261494d565b5f8251615303818460208701613e9d565b9190910192915050565b808202811582820484141761159d5761159d614e6a565b8082018082111561159d5761159d614e6a56fea164736f6c634300081b000a60806040525f5f553480156011575f5ffd5b5060065f556140c9806100235f395ff3fe608060405234801561000f575f5ffd5b50600436106101dc575f3560e01c80637641f3d911610109578063aeb4fcc11161009e578063c4d66de81161006e578063c4d66de814610424578063d14a098314610437578063f213ef0e1461044a578063f65278101461045d575f5ffd5b8063aeb4fcc1146103d8578063b42d793b146103eb578063b736aaeb146103fe578063bfbc47ff14610411575f5ffd5b806396c205b3116100d957806396c205b31461037457806396e957c41461039f5780639c1d5f00146103b2578063a7fa83b7146103c5575f5ffd5b80637641f3d9146103105780637af635a6146103235780637c4e560b14610339578063888a1d5e1461034c575f5ffd5b8063466196491161017f57806363c9b8601161014f57806363c9b860146102c45780636623c804146102d7578063682cf264146102ea5780636aabe21d146102fd575f5ffd5b8063466196491461026757806348d9fba91461028b5780634b4e67531461029e578063571f03e5146102b1575f5ffd5b806323415e46116101ba57806323415e461461021b57806326d2cec21461022e57806334a461ea1461024157806338ae0cc314610254575f5ffd5b8063110ac256146101e057806312bc3f61146101f557806314ef0ac514610208575b5f5ffd5b6101f36101ee366004613588565b610470565b005b6101f36102033660046135e0565b6106ec565b6101f361021636600461362d565b6107d2565b6101f3610229366004613666565b61084d565b6101f361023c366004613681565b6108eb565b6101f361024f3660046136fe565b610a42565b6101f3610262366004613784565b610c22565b61027061384081565b60405164ffffffffff90911681526020015b60405180910390f35b6101f3610299366004613784565b610d4a565b6101f36102ac366004613681565b610d61565b6101f36102bf366004613681565b610f6e565b6101f36102d2366004613666565b61109b565b6101f36102e53660046137b0565b611133565b6101f36102f8366004613784565b6112f9565b6101f361030b36600461381f565b611422565b6101f361031e36600461386f565b6115d8565b61032b600681565b604051908152602001610282565b6101f361034736600461388a565b6115ed565b61032b61035a366004613666565b6001600160a01b03165f9081526036602052604090205490565b6040516001600160a01b0373__$7f4825fe44be376a2f872b8658e2a09d99$__168152602001610282565b6101f36103ad366004613784565b611841565b6101f36103c03660046138d6565b611aaa565b6101f36103d3366004613784565b611bf2565b6101f36103e6366004613681565b611d3b565b6101f36103f93660046138f1565b611eee565b6101f361040c366004613784565b612108565b6101f361041f36600461362d565b612232565b6101f3610432366004613666565b61227e565b6101f3610445366004613681565b6123d2565b6101f3610458366004613784565b6124ff565b6101f361046b366004613588565b61261b565b610478612889565b60355460405163903a2c7160e01b815260ff841660048201525f916001600160a01b03169063903a2c7190602401602060405180830381865afa1580156104c1573d5f5f3e3d5ffd5b505050506040513d601f19601f820116820180604052508101906104e59190613939565b6035546040516335ea6a7560e01b81526001600160a01b0387811660048301529293505f92909116906335ea6a75906024016101e060405180830381865afa158015610533573d5f5f3e3d5ffd5b505050506040513d601f19601f820116820180604052508101906105579190613a21565b90508060e0015161ffff165f1415806105fe5750603554604080516334651b6f60e21b815290516001600160a01b0380891693169163d1946dbc916004808301925f9291908290030181865afa1580156105b3573d5f5f3e3d5ffd5b505050506040513d5f823e601f3d908101601f191682016040526105da9190810190613b4b565b5f815181106105eb576105eb613bfd565b60200260200101516001600160a01b0316145b61061b5760405163b77e1e0f60e01b815260040160405180910390fd5b61062e828260e0015161ffff16856129e6565b60355460405160016246f53b60e11b0319815260ff871660048201526001600160801b03831660248201529193506001600160a01b03169063ff72158a906044015f604051808303815f87803b158015610686575f5ffd5b505af1158015610698573d5f5f3e3d5ffd5b50506040805160ff8816815286151560208201526001600160a01b03891693507f60087ca045be9d8d1301445e67d6248eddba97629c80284fa4910c0e52f103ab9250015b60405180910390a25050505050565b6106f4612a28565b603554604080516334651b6f60e21b815290515f926001600160a01b03169163d1946dbc91600480830192869291908290030181865afa15801561073a573d5f5f3e3d5ffd5b505050506040513d5f823e601f3d908101601f191682016040526107619190810190613b4b565b90505f5b81518110156107cc575f6001600160a01b031682828151811061078a5761078a613bfd565b60200260200101516001600160a01b0316146107c4576107c48282815181106107b5576107b5613bfd565b60200260200101518585611eee565b600101610765565b50505050565b6107da612b85565b60355460405163162792d560e31b815273__$7f4825fe44be376a2f872b8658e2a09d99$__9163b13c96a89161081e916001600160a01b0316908590600401613d20565b5f6040518083038186803b158015610834575f5ffd5b505af4158015610846573d5f5f3e3d5ffd5b5050505050565b610855612a28565b6035546040516358d4cf1360e11b81526001600160a01b0383811660048301525f60248301529091169063b1a99e26906044015f604051808303815f87803b15801561089f575f5ffd5b505af11580156108b1573d5f5f3e3d5ffd5b50506040516001600160a01b03841692507f1df36dc1651d06d990805068d22811a3a9ca4396190787ef59f9102e61868fff91505f90a250565b6108f3612889565b6127108111156109165760405163239eacb960e01b815260040160405180910390fd5b60355460405163c44b11f760e01b81526001600160a01b0384811660048301525f92169063c44b11f790602401602060405180830381865afa15801561095e573d5f5f3e3d5ffd5b505050506040513d601f19601f820116820180604052508101906109829190613d43565b805190915060981c61ffff166109988284612c76565b60355460405163f51e435b60e01b81526001600160a01b039091169063f51e435b906109ca9087908690600401613d5d565b5f604051808303815f87803b1580156109e1575f5ffd5b505af11580156109f3573d5f5f3e3d5ffd5b505060408051848152602081018790526001600160a01b03881693507fb5b0a963825337808b6e3154de8e98027595a5cad4219bb3a9bc55b192f4b3919250015b60405180910390a250505050565b610a4a612889565b8461ffff165f03610a6e5760405163ec1dd8d560e01b815260040160405180910390fd5b8361ffff165f03610a925760405163ec1dd8d560e01b815260040160405180910390fd5b8361ffff168561ffff161115610abb5760405163ec1dd8d560e01b815260040160405180910390fd5b6127108361ffff1611610ae15760405163ec1dd8d560e01b815260040160405180910390fd5b612710610af561ffff868116908616612cae565b1115610b145760405163ec1dd8d560e01b815260040160405180910390fd5b6040805160808101825260608082015261ffff8781168252868116602080840191909152908616828401528251601f850182900482028101820190935283835290919084908490819084018382808284375f920191909152505050506060820152603554604051631edd75fd60e21b81526001600160a01b0390911690637b75d7f490610ba7908a908590600401613d77565b5f604051808303815f87803b158015610bbe575f5ffd5b505af1158015610bd0573d5f5f3e3d5ffd5b505050508660ff167f0acf8b4a3cace10779798a89a206a0ae73a71b63acdd3be2801d39c2ef7ab3cb8787875f8888604051610c1196959493929190613e00565b60405180910390a250505050505050565b610c2a612889565b60355460405163c44b11f760e01b81526001600160a01b0384811660048301525f92169063c44b11f790602401602060405180830381865afa158015610c72573d5f5f3e3d5ffd5b505050506040513d601f19601f82011682018060405250810190610c969190613d43565b9050610ca28183612cd2565b60355460405163f51e435b60e01b81526001600160a01b039091169063f51e435b90610cd49086908590600401613d5d565b5f604051808303815f87803b158015610ceb575f5ffd5b505af1158015610cfd573d5f5f3e3d5ffd5b5050604080516001600160a01b038716815285151560208201527f74adf6aaf58c08bc4f993640385e136522375ea3d1589a10d02adbb906c67d1c935001905060405180910390a1505050565b610d52612a28565b610d5d82825f611eee565b5050565b610d69612889565b612710811115610d8c57604051631b9bc96960e11b815260040160405180910390fd5b603554604051635595a8fb60e11b81526001600160a01b0384811660048301529091169063ab2b51f6906024015f604051808303815f87803b158015610dd0575f5ffd5b505af1158015610de2573d5f5f3e3d5ffd5b505060355460405163c44b11f760e01b81526001600160a01b0386811660048301525f9450909116915063c44b11f790602401602060405180830381865afa158015610e30573d5f5f3e3d5ffd5b505050506040513d601f19601f82011682018060405250810190610e549190613d43565b805190915060401c61ffff16610e6a8284612cff565b60355460405163f51e435b60e01b81526001600160a01b039091169063f51e435b90610e9c9087908690600401613d5d565b5f604051808303815f87803b158015610eb3575f5ffd5b505af1158015610ec5573d5f5f3e3d5ffd5b505060408051848152602081018790526001600160a01b03881693507fb46e2b82b0c2cf3d7d9dece53635e165c53e0eaa7a44f904d61a2b7174826aef92500160405180910390a2603554604051634c63ed2760e11b81526001600160a01b038681166004830152909116906398c7da4e906024015b5f604051808303815f87803b158015610f52575f5ffd5b505af1158015610f64573d5f5f3e3d5ffd5b5050505050505050565b610f76612889565b60355460405163c44b11f760e01b81526001600160a01b0384811660048301525f92169063c44b11f790602401602060405180830381865afa158015610fbe573d5f5f3e3d5ffd5b505050506040513d601f19601f82011682018060405250810190610fe29190613d43565b805190915060741c640fffffffff16610ffb8284612d3c565b60355460405163f51e435b60e01b81526001600160a01b039091169063f51e435b9061102d9087908690600401613d5d565b5f604051808303815f87803b158015611044575f5ffd5b505af1158015611056573d5f5f3e3d5ffd5b505060408051848152602081018790526001600160a01b03881693507f0263602682188540a2d633561c0b4453b7d8566285e99f9f6018b8ef2facef49925001610a34565b6110a3612b85565b60355460405163031e4dc360e51b81526001600160a01b038381166004830152909116906363c9b860906024015f604051808303815f87803b1580156110e7575f5ffd5b505af11580156110f9573d5f5f3e3d5ffd5b50506040516001600160a01b03841692507feeec4c06f7adad215cbdb4d2960896c83c26aedce02dde76d36fa28588d62da491505f90a250565b61113b612d7a565b60355460408051630dc7f58760e11b815290516001600160a01b03909216915f918391631b8feb0e916004808201926020929091908290030181865afa158015611187573d5f5f3e3d5ffd5b505050506040513d601f19601f820116820180604052508101906111ab9190613e4a565b90505f5b838110156108465773__$7f4825fe44be376a2f872b8658e2a09d99$__63df59b8b2848787858181106111e4576111e4613bfd565b90506020028101906111f69190613e65565b6040518363ffffffff1660e01b8152600401611213929190613e84565b5f6040518083038186803b158015611229575f5ffd5b505af415801561123b573d5f5f3e3d5ffd5b50505050816001600160a01b031685858381811061125b5761125b613bfd565b905060200281019061126d9190613e65565b61127e906060810190604001613666565b6001600160a01b03167f1e608c2c753fede2f1f22fca4170277b53ebe5015e488a53414a8921446b7c408787858181106112ba576112ba613bfd565b90506020028101906112cc9190613e65565b6112db90610100810190613fd9565b6040516112e992919061401b565b60405180910390a36001016111af565b611301612889565b60355460405163c44b11f760e01b81526001600160a01b0384811660048301525f92169063c44b11f790602401602060405180830381865afa158015611349573d5f5f3e3d5ffd5b505050506040513d601f19601f8201168201806040525081019061136d9190613d43565b90506113798183612ed6565b60355460405163f51e435b60e01b81526001600160a01b039091169063f51e435b906113ab9086908590600401613d5d565b5f604051808303815f87803b1580156113c2575f5ffd5b505af11580156113d4573d5f5f3e3d5ffd5b50505050826001600160a01b03167f2443ba28e8d1d88d531a3d90b981816a4f3b3c7f1fd4085c6029e81d1b7a570d83604051611415911515815260200190565b60405180910390a2505050565b61142a612889565b603554604051635595a8fb60e11b81526001600160a01b0385811660048301529091169063ab2b51f6906024015f604051808303815f87803b15801561146e575f5ffd5b505af1158015611480573d5f5f3e3d5ffd5b505050505f60355f9054906101000a90046001600160a01b03166001600160a01b0316631b8feb0e6040518163ffffffff1660e01b8152600401602060405180830381865afa1580156114d5573d5f5f3e3d5ffd5b505050506040513d601f19601f820116820180604052508101906114f99190613e4a565b60405163a8d9e56f60e01b81529091506001600160a01b0382169063a8d9e56f9061152c9087908790879060040161402e565b5f604051808303815f87803b158015611543575f5ffd5b505af1158015611555573d5f5f3e3d5ffd5b50505050806001600160a01b0316846001600160a01b03167f1e608c2c753fede2f1f22fca4170277b53ebe5015e488a53414a8921446b7c40858560405161159e92919061401b565b60405180910390a3603554604051634c63ed2760e11b81526001600160a01b038681166004830152909116906398c7da4e90602401610f3b565b6115e0612a28565b6115ea815f6106ec565b50565b6115f5612889565b81831115611616576040516332d6d3ef60e01b815260040160405180910390fd5b60355460405163c44b11f760e01b81526001600160a01b0386811660048301525f92169063c44b11f790602401602060405180830381865afa15801561165e573d5f5f3e3d5ffd5b505050506040513d601f19601f820116820180604052508101906116829190613d43565b905082156116dd5761271082116116ac576040516332d6d3ef60e01b815260040160405180910390fd5b6127106116b98484612cae565b11156116d8576040516332d6d3ef60e01b815260040160405180910390fd5b611705565b81156116fc576040516332d6d3ef60e01b815260040160405180910390fd5b61170585612f03565b836117168251600160391b16151590565b1561177057506001600160a01b0385165f818152603660209081526040808320889055518781529192917f6a3fa1f355f7c7ab43e41cb277d1f8471f2693c63dca91049d5ec127bb588e10910160405180910390a261177a565b61177a828661308a565b61178482856130b9565b61178e82846130ef565b60355460405163f51e435b60e01b81526001600160a01b039091169063f51e435b906117c09089908690600401613d5d565b5f604051808303815f87803b1580156117d7575f5ffd5b505af11580156117e9573d5f5f3e3d5ffd5b505060408051848152602081018890529081018690526001600160a01b03891692507f637febbda9275aea2e85c0ff690444c8d87eb2e8339bbede9715abcc89cb0995915060600160405180910390a2505050505050565b611849613128565b60355460405163c44b11f760e01b81526001600160a01b0384811660048301525f92169063c44b11f790602401602060405180830381865afa158015611891573d5f5f3e3d5ffd5b505050506040513d601f19601f820116820180604052508101906118b59190613d43565b90506118c78151600160391b16151590565b1515821515036118ea57604051634c860b2b60e11b815260040160405180910390fd5b6118f481836132f1565b5f5f831561192f57825161ffff166001600160a01b0386165f90815260366020526040812082905590915061192a90849061308a565b61196c565b6001600160a01b0385165f908152603660205260409020549150611953838361308a565b6001600160a01b0385165f908152603660205260408120555b846001600160a01b03167f6a3fa1f355f7c7ab43e41cb277d1f8471f2693c63dca91049d5ec127bb588e10826040516119a791815260200190565b60405180910390a282516001600160a01b038616907f637febbda9275aea2e85c0ff690444c8d87eb2e8339bbede9715abcc89cb099590849060101c61ffff16865160201c61ffff166040805193845260208401929092529082015260600160405180910390a260355460405163f51e435b60e01b81526001600160a01b039091169063f51e435b90611a409088908790600401613d5d565b5f604051808303815f87803b158015611a57575f5ffd5b505af1158015611a69573d5f5f3e3d5ffd5b50505050846001600160a01b03167f0c4443d258a350d27dc50c378b2ebf165e6469725f786d21b30cab16823f5587856040516106dd911515815260200190565b611ab2612b85565b612710816001600160801b03161115611ade57604051633a168e3960e11b815260040160405180910390fd5b6035546040805163074b2e4360e01b815290515f926001600160a01b03169163074b2e439160048083019260209291908290030181865afa158015611b25573d5f5f3e3d5ffd5b505050506040513d601f19601f82011682018060405250810190611b499190613939565b603554604051629c1d5f60e81b81526001600160801b03851660048201529192506001600160a01b031690639c1d5f00906024015f604051808303815f87803b158015611b94575f5ffd5b505af1158015611ba6573d5f5f3e3d5ffd5b5050604080516001600160801b038086168252861660208201527f71aba182c9d0529b516de7a78bed74d49c207ef7e152f52f7ea5d8730138f643935001905060405180910390a15050565b611bfa612889565b8015611c0957611c098261331e565b60355460405163c44b11f760e01b81526001600160a01b0384811660048301525f92169063c44b11f790602401602060405180830381865afa158015611c51573d5f5f3e3d5ffd5b505050506040513d601f19601f82011682018060405250810190611c759190613d43565b90505f611c8c825167400000000000000016151590565b9050611c988284613414565b60355460405163f51e435b60e01b81526001600160a01b039091169063f51e435b90611cca9087908690600401613d5d565b5f604051808303815f87803b158015611ce1575f5ffd5b505af1158015611cf3573d5f5f3e3d5ffd5b505060408051841515815286151560208201526001600160a01b03881693507f842a280b07e8e502a9101f32a3b768ebaba3655556dd674f0831900861fc674b925001610a34565b611d43612889565b60355460405163c44b11f760e01b81526001600160a01b0384811660048301525f92169063c44b11f790602401602060405180830381865afa158015611d8b573d5f5f3e3d5ffd5b505050506040513d601f19601f82011682018060405250810190611daf9190613d43565b805190915060d481901c64ffffffffff169060101c61ffff1615801590611dd4575080155b15611de257611de284612f03565b611dec8284613441565b60355460405163f51e435b60e01b81526001600160a01b039091169063f51e435b90611e1e9087908690600401613d5d565b5f604051808303815f87803b158015611e35575f5ffd5b505af1158015611e47573d5f5f3e3d5ffd5b50505050825f03611ead5760355460405163e43e88a160e01b81526001600160a01b0386811660048301529091169063e43e88a1906024015f604051808303815f87803b158015611e96575f5ffd5b505af1158015611ea8573d5f5f3e3d5ffd5b505050505b60408051828152602081018590526001600160a01b038616917f6824a6c7fbc10d2979b1f1ccf2dd4ed0436541679a661dedb5c10bd4be8306829101610a34565b611ef6612a28565b81158015611f0a575064ffffffffff811615155b15611ff45761384064ffffffffff82161115611f395760405163d7c43e0f60e01b815260040160405180910390fd5b5f611f44824261405b565b6035546040516358d4cf1360e11b81526001600160a01b03878116600483015264ffffffffff8416602483015292935091169063b1a99e26906044015f604051808303815f87803b158015611f97575f5ffd5b505af1158015611fa9573d5f5f3e3d5ffd5b505060405164ffffffffff841681526001600160a01b03871692507fdf4f96448786bcd6fecc9f1fa25f1fbbbee6a5c9e76d635a615ac57bb5983d10915060200160405180910390a2505b60355460405163c44b11f760e01b81526001600160a01b0385811660048301525f92169063c44b11f790602401602060405180830381865afa15801561203c573d5f5f3e3d5ffd5b505050506040513d601f19601f820116820180604052508101906120609190613d43565b905061206c8184613482565b60355460405163f51e435b60e01b81526001600160a01b039091169063f51e435b9061209e9087908590600401613d5d565b5f604051808303815f87803b1580156120b5575f5ffd5b505af11580156120c7573d5f5f3e3d5ffd5b50505050836001600160a01b03167fe188d542a5f11925d3a3af33703cdd30a43cb3e8066a3cf68b1b57f61a5a94b584604051610a34911515815260200190565b612110612b85565b8061211e5761211e82612f03565b60355460405163c44b11f760e01b81526001600160a01b0384811660048301525f92169063c44b11f790602401602060405180830381865afa158015612166573d5f5f3e3d5ffd5b505050506040513d601f19601f8201168201806040525081019061218a9190613d43565b905061219681836134af565b60355460405163f51e435b60e01b81526001600160a01b039091169063f51e435b906121c89086908590600401613d5d565b5f604051808303815f87803b1580156121df575f5ffd5b505af11580156121f1573d5f5f3e3d5ffd5b50505050826001600160a01b03167fc36c7d11ba01a5869d52aa4a3781939dab851cbc9ee6e7fdcedc7d58898a3f1e83604051611415911515815260200190565b61223a612b85565b60355460405163b0f0935560e01b815273__$7f4825fe44be376a2f872b8658e2a09d99$__9163b0f093559161081e916001600160a01b0316908590600401613d20565b60015460069060ff16806122915750303b155b8061229c57505f5481115b6123035760405162461bcd60e51b815260206004820152602e60248201527f436f6e747261637420696e7374616e63652068617320616c726561647920626560448201526d195b881a5b9a5d1a585b1a5e995960921b606482015260840160405180910390fd5b60015460ff16158015612321576001805460ff1916811790555f8290555b603480546001600160a01b0319166001600160a01b0385169081179091556040805163026b1d5f60e01b8152905163026b1d5f916004808201926020929091908290030181865afa158015612378573d5f5f3e3d5ffd5b505050506040513d601f19601f8201168201806040525081019061239c9190613e4a565b603580546001600160a01b0319166001600160a01b039290921691909117905580156123cd576001805460ff191690555b505050565b6123da612889565b60355460405163c44b11f760e01b81526001600160a01b0384811660048301525f92169063c44b11f790602401602060405180830381865afa158015612422573d5f5f3e3d5ffd5b505050506040513d601f19601f820116820180604052508101906124469190613d43565b805190915060501c640fffffffff1661245f82846134dc565b60355460405163f51e435b60e01b81526001600160a01b039091169063f51e435b906124919087908690600401613d5d565b5f604051808303815f87803b1580156124a8575f5ffd5b505af11580156124ba573d5f5f3e3d5ffd5b505060408051848152602081018790526001600160a01b03881693507fc51aca575985d521c5072ad11549bad77013bb786d57f30f94b40ed8f8dc9bc4925001610a34565b612507612889565b60355460405163c44b11f760e01b81526001600160a01b0384811660048301525f92169063c44b11f790602401602060405180830381865afa15801561254f573d5f5f3e3d5ffd5b505050506040513d601f19601f820116820180604052508101906125739190613d43565b905061257f818361351a565b60355460405163f51e435b60e01b81526001600160a01b039091169063f51e435b906125b19086908590600401613d5d565b5f604051808303815f87803b1580156125c8575f5ffd5b505af11580156125da573d5f5f3e3d5ffd5b50505050826001600160a01b03167fc8ff3cc5b0fddaa3e6ebbbd7438f43393e4ea30e88b80ad016c1bc094655034d83604051611415911515815260200190565b612623612889565b60355460405163583b8edd60e11b815260ff841660048201525f916001600160a01b03169063b0771dba90602401602060405180830381865afa15801561266c573d5f5f3e3d5ffd5b505050506040513d601f19601f820116820180604052508101906126909190613939565b6035546040516335ea6a7560e01b81526001600160a01b0387811660048301529293505f92909116906335ea6a75906024016101e060405180830381865afa1580156126de573d5f5f3e3d5ffd5b505050506040513d601f19601f820116820180604052508101906127029190613a21565b90508060e0015161ffff165f1415806127a95750603554604080516334651b6f60e21b815290516001600160a01b0380891693169163d1946dbc916004808301925f9291908290030181865afa15801561275e573d5f5f3e3d5ffd5b505050506040513d5f823e601f3d908101601f191682016040526127859190810190613b4b565b5f8151811061279657612796613bfd565b60200260200101516001600160a01b0316145b6127c65760405163b77e1e0f60e01b815260040160405180910390fd5b6127d9828260e0015161ffff16856129e6565b6035546040516392380ecb60e01b815260ff871660048201526001600160801b03831660248201529193506001600160a01b0316906392380ecb906044015f604051808303815f87803b15801561282e575f5ffd5b505af1158015612840573d5f5f3e3d5ffd5b50506040805160ff8816815286151560208201526001600160a01b03891693507f79409190108b26fcb0e4570f8e240f627bf18fd01a55f751010224d5bd4860989250016106dd565b6034546040805163383e6b8b60e11b815290515f926001600160a01b03169163707cd7169160048083019260209291908290030181865afa1580156128d0573d5f5f3e3d5ffd5b505050506040513d601f19601f820116820180604052508101906128f49190613e4a565b60405163674b5e4d60e01b81523360048201529091506001600160a01b0382169063674b5e4d90602401602060405180830381865afa158015612939573d5f5f3e3d5ffd5b505050506040513d601f19601f8201168201806040525081019061295d919061408a565b806129c95750604051637be53ca160e01b81523360048201526001600160a01b03821690637be53ca190602401602060405180830381865afa1580156129a5573d5f5f3e3d5ffd5b505050506040513d601f19601f820116820180604052508101906129c9919061408a565b6115ea576040516366e574d760e01b815260040160405180910390fd5b5f60808310612a08576040516385e98beb60e01b815260040160405180910390fd5b6001831b8215612a1b5784179050612a21565b19841690505b9392505050565b6034546040805163383e6b8b60e11b815290515f926001600160a01b03169163707cd7169160048083019260209291908290030181865afa158015612a6f573d5f5f3e3d5ffd5b505050506040513d601f19601f82011682018060405250810190612a939190613e4a565b604051637be53ca160e01b81523360048201529091506001600160a01b03821690637be53ca190602401602060405180830381865afa158015612ad8573d5f5f3e3d5ffd5b505050506040513d601f19601f82011682018060405250810190612afc919061408a565b80612b685750604051631280795b60e11b81523360048201526001600160a01b03821690632500f2b690602401602060405180830381865afa158015612b44573d5f5f3e3d5ffd5b505050506040513d601f19601f82011682018060405250810190612b68919061408a565b6115ea57604051630934f60560e41b815260040160405180910390fd5b6034546040805163383e6b8b60e11b815290515f926001600160a01b03169163707cd7169160048083019260209291908290030181865afa158015612bcc573d5f5f3e3d5ffd5b505050506040513d601f19601f82011682018060405250810190612bf09190613e4a565b604051637be53ca160e01b81523360048201529091506001600160a01b03821690637be53ca190602401602060405180830381865afa158015612c35573d5f5f3e3d5ffd5b505050506040513d601f19601f82011682018060405250810190612c59919061408a565b6115ea5760405163cdd36a9760e01b815260040160405180910390fd5b61ffff811115612c995760405163239eacb960e01b815260040160405180910390fd5b815161ffff60981b191660989190911b179052565b5f81156113881983900484111517612cc4575f5ffd5b506127109102611388010490565b603d81612cdf575f612ce2565b60015b8351672000000000000000191660ff9190911690911b1790915250565b61ffff811115612d2257604051631b9bc96960e11b815260040160405180910390fd5b815169ffff0000000000000000191660409190911b179052565b640fffffffff811115612d625760405163606bb6c960e11b815260040160405180910390fd5b8151640fffffffff60741b191660749190911b179052565b6034546040805163383e6b8b60e11b815290515f926001600160a01b03169163707cd7169160048083019260209291908290030181865afa158015612dc1573d5f5f3e3d5ffd5b505050506040513d601f19601f82011682018060405250810190612de59190613e4a565b604051629f719760e51b81523360048201529091506001600160a01b038216906313ee32e090602401602060405180830381865afa158015612e29573d5f5f3e3d5ffd5b505050506040513d601f19601f82011682018060405250810190612e4d919061408a565b80612eb95750604051637be53ca160e01b81523360048201526001600160a01b03821690637be53ca190602401602060405180830381865afa158015612e95573d5f5f3e3d5ffd5b505050506040513d601f19601f82011682018060405250810190612eb9919061408a565b6115ea57604051630e8e140f60e21b815260040160405180910390fd5b603a81612ee3575f612ee6565b60015b8351670400000000000000191660ff9190911690911b1790915250565b6035546040516335ea6a7560e01b81526001600160a01b0383811660048301525f9216906335ea6a75906024016101e060405180830381865afa158015612f4c573d5f5f3e3d5ffd5b505050506040513d601f19601f82011682018060405250810190612f709190613a21565b90505f60345f9054906101000a90046001600160a01b03166001600160a01b031663e860accb6040518163ffffffff1660e01b8152600401602060405180830381865afa158015612fc3573d5f5f3e3d5ffd5b505050506040513d601f19601f82011682018060405250810190612fe79190613e4a565b6040516351460e2560e01b81526001600160a01b03858116600483015291909116906351460e2590602401602060405180830381865afa15801561302d573d5f5f3e3d5ffd5b505050506040513d601f19601f8201168201806040525081019061305191906140a5565b90508015801561306d57506101808201516001600160801b0316155b6123cd57604051633ccca94760e11b815260040160405180910390fd5b61ffff8111156130ad5760405163324b20e160e11b815260040160405180910390fd5b815161ffff1916179052565b61ffff8111156130db5760405162f9474b60e61b815260040160405180910390fd5b815163ffff0000191660109190911b179052565b61ffff81111561311257604051631506630760e21b815260040160405180910390fd5b815165ffff00000000191660209190911b179052565b6034546040805163383e6b8b60e11b815290515f926001600160a01b03169163707cd7169160048083019260209291908290030181865afa15801561316f573d5f5f3e3d5ffd5b505050506040513d601f19601f820116820180604052508101906131939190613e4a565b60405163674b5e4d60e01b81523360048201529091506001600160a01b0382169063674b5e4d90602401602060405180830381865afa1580156131d8573d5f5f3e3d5ffd5b505050506040513d601f19601f820116820180604052508101906131fc919061408a565b806132685750604051637be53ca160e01b81523360048201526001600160a01b03821690637be53ca190602401602060405180830381865afa158015613244573d5f5f3e3d5ffd5b505050506040513d601f19601f82011682018060405250810190613268919061408a565b806132d45750604051631280795b60e11b81523360048201526001600160a01b03821690632500f2b690602401602060405180830381865afa1580156132b0573d5f5f3e3d5ffd5b505050506040513d601f19601f820116820180604052508101906132d4919061408a565b6115ea5760405163803ddb7b60e01b815260040160405180910390fd5b6039816132fe575f613301565b60015b8351670200000000000000191660ff9190911690911b1790915250565b6034546040805163e860accb60e01b815290515f926001600160a01b03169163e860accb9160048083019260209291908290030181865afa158015613365573d5f5f3e3d5ffd5b505050506040513d601f19601f820116820180604052508101906133899190613e4a565b604051634d44ac4f60e01b81526001600160a01b0384811660048301529190911690634d44ac4f90602401602060405180830381865afa1580156133cf573d5f5f3e3d5ffd5b505050506040513d601f19601f820116820180604052508101906133f391906140a5565b90508015610d5d57604051634f9d999f60e01b815260040160405180910390fd5b603e81613421575f613424565b60015b8351674000000000000000191660ff9190911690911b1790915250565b64ffffffffff81111561346757604051632a67d7f960e01b815260040160405180910390fd5b81516001650f000000000160d41b031660d49190911b179052565b603c8161348f575f613492565b60015b8351671000000000000000191660ff9190911690911b1790915250565b6038816134bc575f6134bf565b60015b8351670100000000000000191660ff9190911690911b1790915250565b640fffffffff811115613502576040516353f4dadb60e11b815260040160405180910390fd5b8151640fffffffff60501b191660509190911b179052565b603f81613527575f61352a565b60015b8351678000000000000000191660ff9190911690911b1790915250565b6001600160a01b03811681146115ea575f5ffd5b803561356681613547565b919050565b803560ff81168114613566575f5ffd5b80151581146115ea575f5ffd5b5f5f5f6060848603121561359a575f5ffd5b83356135a581613547565b92506135b36020850161356b565b915060408401356135c38161357b565b809150509250925092565b64ffffffffff811681146115ea575f5ffd5b5f5f604083850312156135f1575f5ffd5b82356135fc8161357b565b9150602083013561360c816135ce565b809150509250929050565b5f60a08284031215613627575f5ffd5b50919050565b5f6020828403121561363d575f5ffd5b81356001600160401b03811115613652575f5ffd5b61365e84828501613617565b949350505050565b5f60208284031215613676575f5ffd5b8135612a2181613547565b5f5f60408385031215613692575f5ffd5b823561369d81613547565b946020939093013593505050565b61ffff811681146115ea575f5ffd5b5f5f83601f8401126136ca575f5ffd5b5081356001600160401b038111156136e0575f5ffd5b6020830191508360208285010111156136f7575f5ffd5b9250929050565b5f5f5f5f5f5f60a08789031215613713575f5ffd5b61371c8761356b565b9550602087013561372c816136ab565b9450604087013561373c816136ab565b9350606087013561374c816136ab565b925060808701356001600160401b03811115613766575f5ffd5b61377289828a016136ba565b979a9699509497509295939492505050565b5f5f60408385031215613795575f5ffd5b82356137a081613547565b9150602083013561360c8161357b565b5f5f602083850312156137c1575f5ffd5b82356001600160401b038111156137d6575f5ffd5b8301601f810185136137e6575f5ffd5b80356001600160401b038111156137fb575f5ffd5b8560208260051b840101111561380f575f5ffd5b6020919091019590945092505050565b5f5f5f60408486031215613831575f5ffd5b833561383c81613547565b925060208401356001600160401b03811115613856575f5ffd5b613862868287016136ba565b9497909650939450505050565b5f6020828403121561387f575f5ffd5b8135612a218161357b565b5f5f5f5f6080858703121561389d575f5ffd5b84356138a881613547565b966020860135965060408601359560600135945092505050565b6001600160801b03811681146115ea575f5ffd5b5f602082840312156138e6575f5ffd5b8135612a21816138c2565b5f5f5f60608486031215613903575f5ffd5b833561390e81613547565b9250602084013561391e8161357b565b915060408401356135c3816135ce565b8051613566816138c2565b5f60208284031215613949575f5ffd5b8151612a21816138c2565b634e487b7160e01b5f52604160045260245ffd5b6040516101e081016001600160401b038111828210171561398b5761398b613954565b60405290565b604051601f8201601f191681016001600160401b03811182821017156139b9576139b9613954565b604052919050565b5f602082840312156139d1575f5ffd5b604051602081016001600160401b03811182821017156139f3576139f3613954565b6040529151825250919050565b8051613566816135ce565b8051613566816136ab565b805161356681613547565b5f6101e0828403128015613a33575f5ffd5b50613a3c613968565b613a4684846139c1565b8152613a546020840161392e565b6020820152613a656040840161392e565b6040820152613a766060840161392e565b6060820152613a876080840161392e565b6080820152613a9860a0840161392e565b60a0820152613aa960c08401613a00565b60c0820152613aba60e08401613a0b565b60e0820152613acc6101008401613a16565b610100820152613adf6101208401613a16565b610120820152613af26101408401613a16565b610140820152613b056101608401613a16565b610160820152613b18610180840161392e565b610180820152613b2b6101a0840161392e565b6101a0820152613b3e6101c0840161392e565b6101c08201529392505050565b5f60208284031215613b5b575f5ffd5b81516001600160401b03811115613b70575f5ffd5b8201601f81018413613b80575f5ffd5b80516001600160401b03811115613b9957613b99613954565b8060051b613ba960208201613991565b91825260208184018101929081019087841115613bc4575f5ffd5b6020850194505b83851015613bf25784519250613be083613547565b82825260209485019490910190613bcb565b979650505050505050565b634e487b7160e01b5f52603260045260245ffd5b5f5f8335601e19843603018112613c26575f5ffd5b83016020810192503590506001600160401b03811115613c44575f5ffd5b8036038213156136f7575f5ffd5b81835281816020850137505f828201602090810191909152601f909101601f19169091010190565b5f8135613c8681613547565b6001600160a01b03168352613c9e6020830183613c11565b60a06020860152613cb360a086018284613c52565b915050613cc36040840184613c11565b8583036040870152613cd6838284613c52565b925050506060830135613ce881613547565b6001600160a01b03166060850152613d036080840184613c11565b8583036080870152613d16838284613c52565b9695505050505050565b6001600160a01b03831681526040602082018190525f9061365e90830184613c7a565b5f60208284031215613d53575f5ffd5b612a2183836139c1565b6001600160a01b0392909216825251602082015260400190565b60ff831681526040602082015261ffff825116604082015261ffff602083015116606082015261ffff60408301511660808201525f6060830151608060a084015280518060c08501525f5b81811015613ddf57602081840181015160e0878401015201613dc2565b505f60e0828601015260e0601f19601f830116850101925050509392505050565b61ffff87811682528681166020830152851660408201526001600160a01b038416606082015260a0608082018190525f90613e3e9083018486613c52565b98975050505050505050565b5f60208284031215613e5a575f5ffd5b8151612a2181613547565b5f823561011e19833603018112613e7a575f5ffd5b9190910192915050565b6001600160a01b0383168152604060208201819052613eb5908201613ea88461355b565b6001600160a01b03169052565b5f613ec26020840161355b565b6001600160a01b03166060830152613edc6040840161355b565b6001600160a01b03166080830152613ef76060840184613c11565b61012060a0850152613f0e61016085018284613c52565b915050613f1e6080850185613c11565b848303603f190160c0860152613f35838284613c52565b92505050613f4660a0850185613c11565b848303603f190160e0860152613f5d838284613c52565b92505050613f6e60c0850185613c11565b848303603f1901610100860152613f86838284613c52565b92505050613f9760e0850185613c11565b848303603f1901610120860152613faf838284613c52565b92505050613fc1610100850185613c11565b848303603f1901610140860152613bf2838284613c52565b5f5f8335601e19843603018112613fee575f5ffd5b8301803591506001600160401b03821115614007575f5ffd5b6020019150368190038213156136f7575f5ffd5b602081525f61365e602083018486613c52565b6001600160a01b03841681526040602082018190525f906140529083018486613c52565b95945050505050565b64ffffffffff818116838216019081111561408457634e487b7160e01b5f52601160045260245ffd5b92915050565b5f6020828403121561409a575f5ffd5b8151612a218161357b565b5f602082840312156140b5575f5ffd5b505191905056fea164736f6c634300081b000a","linkReferences":{"src/contracts/protocol/libraries/logic/BorrowLogic.sol":{"BorrowLogic":[{"start":2379,"length":20},{"start":5575,"length":20},{"start":7282,"length":20},{"start":10823,"length":20},{"start":15045,"length":20}]},"src/contracts/protocol/libraries/logic/ConfiguratorLogic.sol":{"ConfiguratorLogic":[{"start":23362,"length":20},{"start":24493,"length":20},{"start":27002,"length":20},{"start":31245,"length":20}]},"src/contracts/protocol/libraries/logic/EModeLogic.sol":{"EModeLogic":[{"start":4026,"length":20},{"start":5300,"length":20},{"start":6998,"length":20}]},"src/contracts/protocol/libraries/logic/FlashLoanLogic.sol":{"FlashLoanLogic":[{"start":2424,"length":20},{"start":6893,"length":20},{"start":12194,"length":20}]},"src/contracts/protocol/libraries/logic/LiquidationLogic.sol":{"LiquidationLogic":[{"start":3110,"length":20},{"start":4199,"length":20},{"start":10728,"length":20}]},"src/contracts/protocol/libraries/logic/PoolLogic.sol":{"PoolLogic":[{"start":3900,"length":20},{"start":8408,"length":20},{"start":9505,"length":20},{"start":10245,"length":20},{"start":10336,"length":20},{"start":11459,"length":20},{"start":12721,"length":20},{"start":12986,"length":20},{"start":13768,"length":20},{"start":14549,"length":20}]},"src/contracts/protocol/libraries/logic/SupplyLogic.sol":{"SupplyLogic":[{"start":3038,"length":20},{"start":4861,"length":20},{"start":7790,"length":20},{"start":8089,"length":20},{"start":8445,"length":20},{"start":9875,"length":20},{"start":14140,"length":20}]}}},"methodIdentifiers":{"getPoolReport()":"aec5b39b"},"id":319}