{"abi":[{"type":"constructor","inputs":[{"name":"incentivesController","type":"address","internalType":"address"},{"name":"rewardsAdmin","type":"address","internalType":"address"}],"stateMutability":"nonpayable"},{"type":"function","name":"emergencyWithdrawal","inputs":[{"name":"token","type":"address","internalType":"address"},{"name":"to","type":"address","internalType":"address"},{"name":"amount","type":"uint256","internalType":"uint256"}],"outputs":[],"stateMutability":"nonpayable"},{"type":"function","name":"getIncentivesController","inputs":[],"outputs":[{"name":"","type":"address","internalType":"address"}],"stateMutability":"view"},{"type":"function","name":"getRewardsAdmin","inputs":[],"outputs":[{"name":"","type":"address","internalType":"address"}],"stateMutability":"view"},{"type":"function","name":"performTransfer","inputs":[{"name":"","type":"address","internalType":"address"},{"name":"","type":"address","internalType":"address"},{"name":"","type":"uint256","internalType":"uint256"}],"outputs":[{"name":"","type":"bool","internalType":"bool"}],"stateMutability":"nonpayable"},{"type":"event","name":"EmergencyWithdrawal","inputs":[{"name":"caller","type":"address","indexed":true,"internalType":"address"},{"name":"token","type":"address","indexed":true,"internalType":"address"},{"name":"to","type":"address","indexed":true,"internalType":"address"},{"name":"amount","type":"uint256","indexed":false,"internalType":"uint256"}],"anonymous":false},{"type":"error","name":"CallerNotIncentivesController","inputs":[]},{"type":"error","name":"OnlyRewardsAdmin","inputs":[]}],"bytecode":{"object":"0x60c060405234801561000f575f5ffd5b5060405161044f38038061044f83398101604081905261002e91610060565b6001600160a01b039182166080521660a052610091565b80516001600160a01b038116811461005b575f5ffd5b919050565b5f5f60408385031215610071575f5ffd5b61007a83610045565b915061008860208401610045565b90509250929050565b60805160a0516103926100bd5f395f818160c7015261014e01525f81816078015260ee01526103925ff3fe608060405234801561000f575f5ffd5b506004361061004a575f3560e01c806316beb9821461004e57806375d26413146100765780638d8e5da7146100b0578063c6255443146100c5575b5f5ffd5b61006161005c36600461034c565b6100eb565b60405190151581526020015b60405180910390f35b7f00000000000000000000000000000000000000000000000000000000000000005b6040516001600160a01b03909116815260200161006d565b6100c36100be36600461034c565b610143565b005b7f0000000000000000000000000000000000000000000000000000000000000000610098565b5f7f00000000000000000000000000000000000000000000000000000000000000006001600160a01b03163314610135576040516302cc45a360e21b815260040160405180910390fd5b5060015f9081559392505050565b336001600160a01b037f0000000000000000000000000000000000000000000000000000000000000000161461018c57604051633049820160e11b815260040160405180910390fd5b6101a06001600160a01b03841683836101fc565b816001600160a01b0316836001600160a01b0316336001600160a01b03167f7dc4ea712e6400e67a5abca1a983e5c420c386c19936dc120cd860b50b8e2579846040516101ef91815260200190565b60405180910390a4505050565b60405163a9059cbb60e01b8082526001600160a01b038416600483015260248201839052905f8060448382895af1610236573d5f5f3e3d5ffd5b506102408461028e565b6102885760405162461bcd60e51b815260206004820152601560248201527423a83b191d103330b4b632b2103a3930b739b332b960591b604482015260640160405180910390fd5b50505050565b5f6102b0565b62461bcd60e51b5f52602060045280602452508060445260645ffd5b3d80156102ef5760208114610320576102ea7f475076323a206d616c666f726d6564207472616e7366657220726573756c7400601f610294565b61032b565b823b610317576103177311d41d8c8e881b9bdd08184818dbdb9d1c9858dd60621b6014610294565b6001915061032b565b3d5f5f3e5f51151591505b50919050565b80356001600160a01b0381168114610347575f5ffd5b919050565b5f5f5f6060848603121561035e575f5ffd5b61036784610331565b925061037560208501610331565b915060408401359050925092509256fea164736f6c634300081b000a","linkReferences":{}},"methodIdentifiers":{"emergencyWithdrawal(address,address,uint256)":"8d8e5da7","getIncentivesController()":"75d26413","getRewardsAdmin()":"c6255443","performTransfer(address,address,uint256)":"16beb982"},"id":179}