{"abi":[{"type":"constructor","inputs":[{"name":"pool","type":"address","internalType":"contract IPool"}],"stateMutability":"nonpayable"},{"type":"function","name":"POOL","inputs":[],"outputs":[{"name":"","type":"address","internalType":"contract IPool"}],"stateMutability":"view"},{"type":"function","name":"encodeBorrowParams","inputs":[{"name":"asset","type":"address","internalType":"address"},{"name":"amount","type":"uint256","internalType":"uint256"},{"name":"interestRateMode","type":"uint256","internalType":"uint256"},{"name":"referralCode","type":"uint16","internalType":"uint16"}],"outputs":[{"name":"","type":"bytes32","internalType":"bytes32"}],"stateMutability":"view"},{"type":"function","name":"encodeLiquidationCall","inputs":[{"name":"collateralAsset","type":"address","internalType":"address"},{"name":"debtAsset","type":"address","internalType":"address"},{"name":"user","type":"address","internalType":"address"},{"name":"debtToCover","type":"uint256","internalType":"uint256"},{"name":"receiveAToken","type":"bool","internalType":"bool"}],"outputs":[{"name":"","type":"bytes32","internalType":"bytes32"},{"name":"","type":"bytes32","internalType":"bytes32"}],"stateMutability":"view"},{"type":"function","name":"encodeRepayParams","inputs":[{"name":"asset","type":"address","internalType":"address"},{"name":"amount","type":"uint256","internalType":"uint256"},{"name":"interestRateMode","type":"uint256","internalType":"uint256"}],"outputs":[{"name":"","type":"bytes32","internalType":"bytes32"}],"stateMutability":"view"},{"type":"function","name":"encodeRepayWithATokensParams","inputs":[{"name":"asset","type":"address","internalType":"address"},{"name":"amount","type":"uint256","internalType":"uint256"},{"name":"interestRateMode","type":"uint256","internalType":"uint256"}],"outputs":[{"name":"","type":"bytes32","internalType":"bytes32"}],"stateMutability":"view"},{"type":"function","name":"encodeRepayWithPermitParams","inputs":[{"name":"asset","type":"address","internalType":"address"},{"name":"amount","type":"uint256","internalType":"uint256"},{"name":"interestRateMode","type":"uint256","internalType":"uint256"},{"name":"deadline","type":"uint256","internalType":"uint256"},{"name":"permitV","type":"uint8","internalType":"uint8"},{"name":"permitR","type":"bytes32","internalType":"bytes32"},{"name":"permitS","type":"bytes32","internalType":"bytes32"}],"outputs":[{"name":"","type":"bytes32","internalType":"bytes32"},{"name":"","type":"bytes32","internalType":"bytes32"},{"name":"","type":"bytes32","internalType":"bytes32"}],"stateMutability":"view"},{"type":"function","name":"encodeSetUserUseReserveAsCollateral","inputs":[{"name":"asset","type":"address","internalType":"address"},{"name":"useAsCollateral","type":"bool","internalType":"bool"}],"outputs":[{"name":"","type":"bytes32","internalType":"bytes32"}],"stateMutability":"view"},{"type":"function","name":"encodeSupplyParams","inputs":[{"name":"asset","type":"address","internalType":"address"},{"name":"amount","type":"uint256","internalType":"uint256"},{"name":"referralCode","type":"uint16","internalType":"uint16"}],"outputs":[{"name":"","type":"bytes32","internalType":"bytes32"}],"stateMutability":"view"},{"type":"function","name":"encodeSupplyWithPermitParams","inputs":[{"name":"asset","type":"address","internalType":"address"},{"name":"amount","type":"uint256","internalType":"uint256"},{"name":"referralCode","type":"uint16","internalType":"uint16"},{"name":"deadline","type":"uint256","internalType":"uint256"},{"name":"permitV","type":"uint8","internalType":"uint8"},{"name":"permitR","type":"bytes32","internalType":"bytes32"},{"name":"permitS","type":"bytes32","internalType":"bytes32"}],"outputs":[{"name":"","type":"bytes32","internalType":"bytes32"},{"name":"","type":"bytes32","internalType":"bytes32"},{"name":"","type":"bytes32","internalType":"bytes32"}],"stateMutability":"view"},{"type":"function","name":"encodeWithdrawParams","inputs":[{"name":"asset","type":"address","internalType":"address"},{"name":"amount","type":"uint256","internalType":"uint256"}],"outputs":[{"name":"","type":"bytes32","internalType":"bytes32"}],"stateMutability":"view"},{"type":"error","name":"SafeCastOverflowedUintDowncast","inputs":[{"name":"bits","type":"uint8","internalType":"uint8"},{"name":"value","type":"uint256","internalType":"uint256"}]}],"bytecode":{"object":"0x60a060405234801561000f575f5ffd5b50604051610ec4380380610ec483398101604081905261002e9161003f565b6001600160a01b031660805261006c565b5f6020828403121561004f575f5ffd5b81516001600160a01b0381168114610065575f5ffd5b9392505050565b608051610e016100c35f395f818161010b015281816101ef015281816102bc0152818161038501528181610467015281816104fe015281816105f0015281816106cc0152818161078301526108270152610e015ff3fe608060405234801561000f575f5ffd5b506004361061009b575f3560e01c80638da7fb18116100635780638da7fb181461016d5780639d2ffc1b14610180578063b76398e414610193578063fc0eed85146101a6578063fed63a93146101b9575f5ffd5b80631a64acf21461009f5780635cc7bc10146100c5578063671a7fae146100d85780637535d2461461010657806388d5185214610145575b5f5ffd5b6100b26100ad3660046109c1565b6101cc565b6040519081526020015b60405180910390f35b6100b26100d3366004610a08565b610299565b6100eb6100e6366004610a47565b61035e565b604080519384526020840192909252908201526060016100bc565b61012d7f000000000000000000000000000000000000000000000000000000000000000081565b6040516001600160a01b0390911681526020016100bc565b610158610153366004610ac0565b610442565b604080519283526020830191909152016100bc565b6100b261017b366004610b20565b6105b9565b6100b261018e366004610b20565b6105cd565b6100b26101a1366004610b52565b6106a9565b6100b26101b4366004610b91565b610760565b6100eb6101c7366004610bc4565b610800565b6040516335ea6a7560e01b81526001600160a01b0385811660048301525f9182917f000000000000000000000000000000000000000000000000000000000000000016906335ea6a75906024016101e060405180830381865afa158015610235573d5f5f3e3d5ffd5b505050506040513d601f19601f820116820180604052508101906102599190610cca565b60e08101519091505f61026b87610902565b90505f6102778761093e565b60109290921b60909290921b60989690961b9590950101019695505050505050565b6040516335ea6a7560e01b81526001600160a01b0383811660048301525f9182917f000000000000000000000000000000000000000000000000000000000000000016906335ea6a75906024016101e060405180830381865afa158015610302573d5f5f3e3d5ffd5b505050506040513d601f19601f820116820180604052508101906103269190610cca565b60e08101519091505f5f1985146103455761034085610902565b61034e565b6001600160801b035b60101b9190910195945050505050565b6040516335ea6a7560e01b81526001600160a01b0388811660048301525f918291829182917f000000000000000000000000000000000000000000000000000000000000000016906335ea6a75906024016101e060405180830381865afa1580156103cb573d5f5f3e3d5ffd5b505050506040513d601f19601f820116820180604052508101906103ef9190610cca565b60e08101519091505f6104018c610902565b90505f61040d8b61096b565b90505f8a60c01b8260a01b018d60901b018360101b0184019050808a8a97509750975050505050509750975097945050505050565b6040516335ea6a7560e01b81526001600160a01b0386811660048301525f91829182917f0000000000000000000000000000000000000000000000000000000000000000909116906335ea6a75906024016101e060405180830381865afa1580156104af573d5f5f3e3d5ffd5b505050506040513d601f19601f820116820180604052508101906104d39190610cca565b60e08101516040516335ea6a7560e01b81526001600160a01b038a8116600483015292935090915f917f0000000000000000000000000000000000000000000000000000000000000000909116906335ea6a75906024016101e060405180830381865afa158015610546573d5f5f3e3d5ffd5b505050506040513d601f19601f8201168201806040525081019061056a9190610cca565b60e08101519091505f5f1989146105895761058489610902565b610592565b6001600160801b035b60109290921b9390930160208a901b019550608087901b0193505050509550959350505050565b5f6105c58484846105cd565b949350505050565b6040516335ea6a7560e01b81526001600160a01b0384811660048301525f9182917f000000000000000000000000000000000000000000000000000000000000000016906335ea6a75906024016101e060405180830381865afa158015610636573d5f5f3e3d5ffd5b505050506040513d601f19601f8201168201806040525081019061065a9190610cca565b60e08101519091505f5f1986146106795761067486610902565b610682565b6001600160801b035b90505f61068e8661093e565b60901b60109290921b91909101919091019695505050505050565b6040516335ea6a7560e01b81526001600160a01b0384811660048301525f9182917f000000000000000000000000000000000000000000000000000000000000000016906335ea6a75906024016101e060405180830381865afa158015610712573d5f5f3e3d5ffd5b505050506040513d601f19601f820116820180604052508101906107369190610cca565b60e08101519091505f61074886610902565b60101b609086901b0191909101925050509392505050565b6040516335ea6a7560e01b81526001600160a01b0383811660048301525f9182917f000000000000000000000000000000000000000000000000000000000000000016906335ea6a75906024016101e060405180830381865afa1580156107c9573d5f5f3e3d5ffd5b505050506040513d601f19601f820116820180604052508101906107ed9190610cca565b60e00151601084901b0191505092915050565b6040516335ea6a7560e01b81526001600160a01b0388811660048301525f918291829182917f000000000000000000000000000000000000000000000000000000000000000016906335ea6a75906024016101e060405180830381865afa15801561086d573d5f5f3e3d5ffd5b505050506040513d601f19601f820116820180604052508101906108919190610cca565b60e08101519091505f5f198c146108b0576108ab8c610902565b6108b9565b6001600160801b035b90505f6108c58c61093e565b90505f6108d18c61096b565b60b89b909b1b60989b909b1b9a909a0160909190911b0160109190911b01019b959a50939850939650505050505050565b5f6001600160801b0382111561093a576040516306dfcc6560e41b815260806004820152602481018390526044015b60405180910390fd5b5090565b5f60ff82111561093a576040516306dfcc6560e41b81526008600482015260248101839052604401610931565b5f63ffffffff82111561093a576040516306dfcc6560e41b81526020600482015260248101839052604401610931565b6001600160a01b03811681146109af575f5ffd5b50565b61ffff811681146109af575f5ffd5b5f5f5f5f608085870312156109d4575f5ffd5b84356109df8161099b565b9350602085013592506040850135915060608501356109fd816109b2565b939692955090935050565b5f5f60408385031215610a19575f5ffd5b8235610a248161099b565b946020939093013593505050565b803560ff81168114610a42575f5ffd5b919050565b5f5f5f5f5f5f5f60e0888a031215610a5d575f5ffd5b8735610a688161099b565b9650602088013595506040880135610a7f816109b2565b945060608801359350610a9460808901610a32565b9699959850939692959460a0840135945060c09093013592915050565b80358015158114610a42575f5ffd5b5f5f5f5f5f60a08688031215610ad4575f5ffd5b8535610adf8161099b565b94506020860135610aef8161099b565b93506040860135610aff8161099b565b925060608601359150610b1460808701610ab1565b90509295509295909350565b5f5f5f60608486031215610b32575f5ffd5b8335610b3d8161099b565b95602085013595506040909401359392505050565b5f5f5f60608486031215610b64575f5ffd5b8335610b6f8161099b565b9250602084013591506040840135610b86816109b2565b809150509250925092565b5f5f60408385031215610ba2575f5ffd5b8235610bad8161099b565b9150610bbb60208401610ab1565b90509250929050565b5f5f5f5f5f5f5f60e0888a031215610bda575f5ffd5b8735610be58161099b565b9650602088013595506040880135945060608801359350610a9460808901610a32565b6040516101e0810167ffffffffffffffff81118282101715610c3857634e487b7160e01b5f52604160045260245ffd5b60405290565b5f60208284031215610c4e575f5ffd5b6040516020810167ffffffffffffffff81118282101715610c7d57634e487b7160e01b5f52604160045260245ffd5b6040529151825250919050565b80516001600160801b0381168114610a42575f5ffd5b805164ffffffffff81168114610a42575f5ffd5b8051610a42816109b2565b8051610a428161099b565b5f6101e0828403128015610cdc575f5ffd5b50610ce5610c08565b610cef8484610c3e565b8152610cfd60208401610c8a565b6020820152610d0e60408401610c8a565b6040820152610d1f60608401610c8a565b6060820152610d3060808401610c8a565b6080820152610d4160a08401610c8a565b60a0820152610d5260c08401610ca0565b60c0820152610d6360e08401610cb4565b60e0820152610d756101008401610cbf565b610100820152610d886101208401610cbf565b610120820152610d9b6101408401610cbf565b610140820152610dae6101608401610cbf565b610160820152610dc16101808401610c8a565b610180820152610dd46101a08401610c8a565b6101a0820152610de76101c08401610c8a565b6101c0820152939250505056fea164736f6c634300081b000a","linkReferences":{}},"methodIdentifiers":{"POOL()":"7535d246","encodeBorrowParams(address,uint256,uint256,uint16)":"1a64acf2","encodeLiquidationCall(address,address,address,uint256,bool)":"88d51852","encodeRepayParams(address,uint256,uint256)":"9d2ffc1b","encodeRepayWithATokensParams(address,uint256,uint256)":"8da7fb18","encodeRepayWithPermitParams(address,uint256,uint256,uint256,uint8,bytes32,bytes32)":"fed63a93","encodeSetUserUseReserveAsCollateral(address,bool)":"fc0eed85","encodeSupplyParams(address,uint256,uint16)":"b76398e4","encodeSupplyWithPermitParams(address,uint256,uint16,uint256,uint8,bytes32,bytes32)":"671a7fae","encodeWithdrawParams(address,uint256)":"5cc7bc10"},"id":124}