{"abi":[{"type":"function","name":"getFullReservesIncentiveData","inputs":[{"name":"provider","type":"address","internalType":"contract IPoolAddressesProvider"},{"name":"user","type":"address","internalType":"address"}],"outputs":[{"name":"","type":"tuple[]","internalType":"struct IUiIncentiveDataProviderV3.AggregatedReserveIncentiveData[]","components":[{"name":"underlyingAsset","type":"address","internalType":"address"},{"name":"aIncentiveData","type":"tuple","internalType":"struct IUiIncentiveDataProviderV3.IncentiveData","components":[{"name":"tokenAddress","type":"address","internalType":"address"},{"name":"incentiveControllerAddress","type":"address","internalType":"address"},{"name":"rewardsTokenInformation","type":"tuple[]","internalType":"struct IUiIncentiveDataProviderV3.RewardInfo[]","components":[{"name":"rewardTokenSymbol","type":"string","internalType":"string"},{"name":"rewardTokenAddress","type":"address","internalType":"address"},{"name":"rewardOracleAddress","type":"address","internalType":"address"},{"name":"emissionPerSecond","type":"uint256","internalType":"uint256"},{"name":"incentivesLastUpdateTimestamp","type":"uint256","internalType":"uint256"},{"name":"tokenIncentivesIndex","type":"uint256","internalType":"uint256"},{"name":"emissionEndTimestamp","type":"uint256","internalType":"uint256"},{"name":"rewardPriceFeed","type":"int256","internalType":"int256"},{"name":"rewardTokenDecimals","type":"uint8","internalType":"uint8"},{"name":"precision","type":"uint8","internalType":"uint8"},{"name":"priceFeedDecimals","type":"uint8","internalType":"uint8"}]}]},{"name":"vIncentiveData","type":"tuple","internalType":"struct IUiIncentiveDataProviderV3.IncentiveData","components":[{"name":"tokenAddress","type":"address","internalType":"address"},{"name":"incentiveControllerAddress","type":"address","internalType":"address"},{"name":"rewardsTokenInformation","type":"tuple[]","internalType":"struct IUiIncentiveDataProviderV3.RewardInfo[]","components":[{"name":"rewardTokenSymbol","type":"string","internalType":"string"},{"name":"rewardTokenAddress","type":"address","internalType":"address"},{"name":"rewardOracleAddress","type":"address","internalType":"address"},{"name":"emissionPerSecond","type":"uint256","internalType":"uint256"},{"name":"incentivesLastUpdateTimestamp","type":"uint256","internalType":"uint256"},{"name":"tokenIncentivesIndex","type":"uint256","internalType":"uint256"},{"name":"emissionEndTimestamp","type":"uint256","internalType":"uint256"},{"name":"rewardPriceFeed","type":"int256","internalType":"int256"},{"name":"rewardTokenDecimals","type":"uint8","internalType":"uint8"},{"name":"precision","type":"uint8","internalType":"uint8"},{"name":"priceFeedDecimals","type":"uint8","internalType":"uint8"}]}]}]},{"name":"","type":"tuple[]","internalType":"struct IUiIncentiveDataProviderV3.UserReserveIncentiveData[]","components":[{"name":"underlyingAsset","type":"address","internalType":"address"},{"name":"aTokenIncentivesUserData","type":"tuple","internalType":"struct IUiIncentiveDataProviderV3.UserIncentiveData","components":[{"name":"tokenAddress","type":"address","internalType":"address"},{"name":"incentiveControllerAddress","type":"address","internalType":"address"},{"name":"userRewardsInformation","type":"tuple[]","internalType":"struct IUiIncentiveDataProviderV3.UserRewardInfo[]","components":[{"name":"rewardTokenSymbol","type":"string","internalType":"string"},{"name":"rewardOracleAddress","type":"address","internalType":"address"},{"name":"rewardTokenAddress","type":"address","internalType":"address"},{"name":"userUnclaimedRewards","type":"uint256","internalType":"uint256"},{"name":"tokenIncentivesUserIndex","type":"uint256","internalType":"uint256"},{"name":"rewardPriceFeed","type":"int256","internalType":"int256"},{"name":"priceFeedDecimals","type":"uint8","internalType":"uint8"},{"name":"rewardTokenDecimals","type":"uint8","internalType":"uint8"}]}]},{"name":"vTokenIncentivesUserData","type":"tuple","internalType":"struct IUiIncentiveDataProviderV3.UserIncentiveData","components":[{"name":"tokenAddress","type":"address","internalType":"address"},{"name":"incentiveControllerAddress","type":"address","internalType":"address"},{"name":"userRewardsInformation","type":"tuple[]","internalType":"struct IUiIncentiveDataProviderV3.UserRewardInfo[]","components":[{"name":"rewardTokenSymbol","type":"string","internalType":"string"},{"name":"rewardOracleAddress","type":"address","internalType":"address"},{"name":"rewardTokenAddress","type":"address","internalType":"address"},{"name":"userUnclaimedRewards","type":"uint256","internalType":"uint256"},{"name":"tokenIncentivesUserIndex","type":"uint256","internalType":"uint256"},{"name":"rewardPriceFeed","type":"int256","internalType":"int256"},{"name":"priceFeedDecimals","type":"uint8","internalType":"uint8"},{"name":"rewardTokenDecimals","type":"uint8","internalType":"uint8"}]}]}]}],"stateMutability":"view"},{"type":"function","name":"getReservesIncentivesData","inputs":[{"name":"provider","type":"address","internalType":"contract IPoolAddressesProvider"}],"outputs":[{"name":"","type":"tuple[]","internalType":"struct IUiIncentiveDataProviderV3.AggregatedReserveIncentiveData[]","components":[{"name":"underlyingAsset","type":"address","internalType":"address"},{"name":"aIncentiveData","type":"tuple","internalType":"struct IUiIncentiveDataProviderV3.IncentiveData","components":[{"name":"tokenAddress","type":"address","internalType":"address"},{"name":"incentiveControllerAddress","type":"address","internalType":"address"},{"name":"rewardsTokenInformation","type":"tuple[]","internalType":"struct IUiIncentiveDataProviderV3.RewardInfo[]","components":[{"name":"rewardTokenSymbol","type":"string","internalType":"string"},{"name":"rewardTokenAddress","type":"address","internalType":"address"},{"name":"rewardOracleAddress","type":"address","internalType":"address"},{"name":"emissionPerSecond","type":"uint256","internalType":"uint256"},{"name":"incentivesLastUpdateTimestamp","type":"uint256","internalType":"uint256"},{"name":"tokenIncentivesIndex","type":"uint256","internalType":"uint256"},{"name":"emissionEndTimestamp","type":"uint256","internalType":"uint256"},{"name":"rewardPriceFeed","type":"int256","internalType":"int256"},{"name":"rewardTokenDecimals","type":"uint8","internalType":"uint8"},{"name":"precision","type":"uint8","internalType":"uint8"},{"name":"priceFeedDecimals","type":"uint8","internalType":"uint8"}]}]},{"name":"vIncentiveData","type":"tuple","internalType":"struct IUiIncentiveDataProviderV3.IncentiveData","components":[{"name":"tokenAddress","type":"address","internalType":"address"},{"name":"incentiveControllerAddress","type":"address","internalType":"address"},{"name":"rewardsTokenInformation","type":"tuple[]","internalType":"struct IUiIncentiveDataProviderV3.RewardInfo[]","components":[{"name":"rewardTokenSymbol","type":"string","internalType":"string"},{"name":"rewardTokenAddress","type":"address","internalType":"address"},{"name":"rewardOracleAddress","type":"address","internalType":"address"},{"name":"emissionPerSecond","type":"uint256","internalType":"uint256"},{"name":"incentivesLastUpdateTimestamp","type":"uint256","internalType":"uint256"},{"name":"tokenIncentivesIndex","type":"uint256","internalType":"uint256"},{"name":"emissionEndTimestamp","type":"uint256","internalType":"uint256"},{"name":"rewardPriceFeed","type":"int256","internalType":"int256"},{"name":"rewardTokenDecimals","type":"uint8","internalType":"uint8"},{"name":"precision","type":"uint8","internalType":"uint8"},{"name":"priceFeedDecimals","type":"uint8","internalType":"uint8"}]}]}]}],"stateMutability":"view"},{"type":"function","name":"getUserReservesIncentivesData","inputs":[{"name":"provider","type":"address","internalType":"contract IPoolAddressesProvider"},{"name":"user","type":"address","internalType":"address"}],"outputs":[{"name":"","type":"tuple[]","internalType":"struct IUiIncentiveDataProviderV3.UserReserveIncentiveData[]","components":[{"name":"underlyingAsset","type":"address","internalType":"address"},{"name":"aTokenIncentivesUserData","type":"tuple","internalType":"struct IUiIncentiveDataProviderV3.UserIncentiveData","components":[{"name":"tokenAddress","type":"address","internalType":"address"},{"name":"incentiveControllerAddress","type":"address","internalType":"address"},{"name":"userRewardsInformation","type":"tuple[]","internalType":"struct IUiIncentiveDataProviderV3.UserRewardInfo[]","components":[{"name":"rewardTokenSymbol","type":"string","internalType":"string"},{"name":"rewardOracleAddress","type":"address","internalType":"address"},{"name":"rewardTokenAddress","type":"address","internalType":"address"},{"name":"userUnclaimedRewards","type":"uint256","internalType":"uint256"},{"name":"tokenIncentivesUserIndex","type":"uint256","internalType":"uint256"},{"name":"rewardPriceFeed","type":"int256","internalType":"int256"},{"name":"priceFeedDecimals","type":"uint8","internalType":"uint8"},{"name":"rewardTokenDecimals","type":"uint8","internalType":"uint8"}]}]},{"name":"vTokenIncentivesUserData","type":"tuple","internalType":"struct IUiIncentiveDataProviderV3.UserIncentiveData","components":[{"name":"tokenAddress","type":"address","internalType":"address"},{"name":"incentiveControllerAddress","type":"address","internalType":"address"},{"name":"userRewardsInformation","type":"tuple[]","internalType":"struct IUiIncentiveDataProviderV3.UserRewardInfo[]","components":[{"name":"rewardTokenSymbol","type":"string","internalType":"string"},{"name":"rewardOracleAddress","type":"address","internalType":"address"},{"name":"rewardTokenAddress","type":"address","internalType":"address"},{"name":"userUnclaimedRewards","type":"uint256","internalType":"uint256"},{"name":"tokenIncentivesUserIndex","type":"uint256","internalType":"uint256"},{"name":"rewardPriceFeed","type":"int256","internalType":"int256"},{"name":"priceFeedDecimals","type":"uint8","internalType":"uint8"},{"name":"rewardTokenDecimals","type":"uint8","internalType":"uint8"}]}]}]}],"stateMutability":"view"}],"bytecode":{"object":"0x6080604052348015600e575f5ffd5b5061239e8061001c5f395ff3fe608060405234801561000f575f5ffd5b506004361061003f575f3560e01c80634763753614610043578063799bdcf51461006d578063976fafc51461008d575b5f5ffd5b610056610051366004611b43565b6100ad565b604051610064929190611f2a565b60405180910390f35b61008061007b366004611b43565b6100ce565b6040516100649190611f57565b6100a061009b366004611f69565b6100e1565b6040516100649190611f84565b6060806100b9846100f2565b6100c38585610d4d565b915091509250929050565b60606100da8383610d4d565b9392505050565b60606100ec826100f2565b92915050565b60605f826001600160a01b031663026b1d5f6040518163ffffffff1660e01b8152600401602060405180830381865afa158015610131573d5f5f3e3d5ffd5b505050506040513d601f19601f820116820180604052508101906101559190611fa6565b90505f816001600160a01b031663d1946dbc6040518163ffffffff1660e01b81526004015f60405180830381865afa158015610193573d5f5f3e3d5ffd5b505050506040513d5f823e601f3d908101601f191682016040526101ba919081019061202e565b90505f81516001600160401b038111156101d6576101d6611fc1565b60405190808252806020026020018201604052801561020f57816020015b6101fc611a05565b8152602001906001900390816101f45790505b5090505f5b8251811015610d44575f828281518110610230576102306120e0565b6020026020010151905083828151811061024c5761024c6120e0565b6020026020010151815f01906001600160a01b031690816001600160a01b0316815250505f856001600160a01b03166335ea6a75868581518110610292576102926120e0565b60200260200101516040518263ffffffff1660e01b81526004016102c591906001600160a01b0391909116815260200190565b6101e060405180830381865afa1580156102e1573d5f5f3e3d5ffd5b505050506040513d601f19601f820116820180604052508101906103059190612177565b90505f8161010001516001600160a01b03166375d264136040518163ffffffff1660e01b8152600401602060405180830381865afa158015610349573d5f5f3e3d5ffd5b505050506040513d601f19601f8201168201806040525081019061036d9190611fa6565b905060606001600160a01b038216156107ea57610100830151604051636657732f60e01b81526001600160a01b0391821660048201525f91841690636657732f906024015f60405180830381865afa1580156103cb573d5f5f3e3d5ffd5b505050506040513d5f823e601f3d908101601f191682016040526103f2919081019061202e565b905080516001600160401b0381111561040d5761040d611fc1565b60405190808252806020026020018201604052801561044657816020015b610433611a6b565b81526020019060019003908161042b5790505b5091505f5b81518110156107e75761045c611a6b565b82828151811061046e5761046e6120e0565b6020908102919091018101516001600160a01b03908116918301829052610100880151604051630fdfe97560e31b815290821660048201526024810192909252861690637eff4ba890604401608060405180830381865afa1580156104d5573d5f5f3e3d5ffd5b505050506040513d601f19601f820116820180604052508101906104f991906122a1565b60c08501526080840152606083015260a0820152610100860151604051634f7eb7b960e11b81526001600160a01b03918216600482015290861690639efd6f7290602401602060405180830381865afa158015610558573d5f5f3e3d5ffd5b505050506040513d601f19601f8201168201806040525081019061057c91906122d4565b60ff166101208201526020808201516040805163313ce56760e01b815290516001600160a01b039092169263313ce567926004808401938290030181865afa1580156105ca573d5f5f3e3d5ffd5b505050506040513d601f19601f820116820180604052508101906105ee91906122d4565b81610100019060ff16908160ff168152505080602001516001600160a01b03166395d89b416040518163ffffffff1660e01b81526004015f60405180830381865afa15801561063f573d5f5f3e3d5ffd5b505050506040513d5f823e601f3d908101601f1916820160405261066691908101906122f4565b81526020810151604051630150bdfb60e51b81526001600160a01b03918216600482015290861690632a17bf6090602401602060405180830381865afa1580156106b2573d5f5f3e3d5ffd5b505050506040513d601f19601f820116820180604052508101906106d69190611fa6565b6001600160a01b03166040808301829052805163313ce56760e01b8152905163313ce567916004808201926020929091908290030181865afa15801561071e573d5f5f3e3d5ffd5b505050506040513d601f19601f8201168201806040525081019061074291906122d4565b81610140019060ff16908160ff168152505080604001516001600160a01b03166350d25bcd6040518163ffffffff1660e01b8152600401602060405180830381865afa158015610794573d5f5f3e3d5ffd5b505050506040513d601f19601f820116820180604052508101906107b8919061237a565b60e0820152835181908590849081106107d3576107d36120e0565b60209081029190910101525060010161044b565b50505b60405180606001604052808461010001516001600160a01b03168152602001836001600160a01b031681526020018281525084602001819052505f8361014001516001600160a01b03166375d264136040518163ffffffff1660e01b8152600401602060405180830381865afa158015610866573d5f5f3e3d5ffd5b505050506040513d601f19601f8201168201806040525081019061088a9190611fa6565b905060606001600160a01b03821615610d0757610140850151604051636657732f60e01b81526001600160a01b0391821660048201525f91841690636657732f906024015f60405180830381865afa1580156108e8573d5f5f3e3d5ffd5b505050506040513d5f823e601f3d908101601f1916820160405261090f919081019061202e565b905080516001600160401b0381111561092a5761092a611fc1565b60405190808252806020026020018201604052801561096357816020015b610950611a6b565b8152602001906001900390816109485790505b5091505f5b8151811015610d0457610979611a6b565b82828151811061098b5761098b6120e0565b6020908102919091018101516001600160a01b039081169183018290526101408a0151604051630fdfe97560e31b815290821660048201526024810192909252861690637eff4ba890604401608060405180830381865afa1580156109f2573d5f5f3e3d5ffd5b505050506040513d601f19601f82011682018060405250810190610a1691906122a1565b60c08501526080840152606083015260a0820152610140880151604051634f7eb7b960e11b81526001600160a01b03918216600482015290861690639efd6f7290602401602060405180830381865afa158015610a75573d5f5f3e3d5ffd5b505050506040513d601f19601f82011682018060405250810190610a9991906122d4565b60ff166101208201526020808201516040805163313ce56760e01b815290516001600160a01b039092169263313ce567926004808401938290030181865afa158015610ae7573d5f5f3e3d5ffd5b505050506040513d601f19601f82011682018060405250810190610b0b91906122d4565b81610100019060ff16908160ff168152505080602001516001600160a01b03166395d89b416040518163ffffffff1660e01b81526004015f60405180830381865afa158015610b5c573d5f5f3e3d5ffd5b505050506040513d5f823e601f3d908101601f19168201604052610b8391908101906122f4565b81526020810151604051630150bdfb60e51b81526001600160a01b03918216600482015290861690632a17bf6090602401602060405180830381865afa158015610bcf573d5f5f3e3d5ffd5b505050506040513d601f19601f82011682018060405250810190610bf39190611fa6565b6001600160a01b03166040808301829052805163313ce56760e01b8152905163313ce567916004808201926020929091908290030181865afa158015610c3b573d5f5f3e3d5ffd5b505050506040513d601f19601f82011682018060405250810190610c5f91906122d4565b81610140019060ff16908160ff168152505080604001516001600160a01b03166350d25bcd6040518163ffffffff1660e01b8152600401602060405180830381865afa158015610cb1573d5f5f3e3d5ffd5b505050506040513d601f19601f82011682018060405250810190610cd5919061237a565b60e082015283518190859084908110610cf057610cf06120e0565b602090810291909101015250600101610968565b50505b60408051606081018252610140909601516001600160a01b0390811687529290921660208601528482015293909301919091525050600101610214565b50949350505050565b60605f836001600160a01b031663026b1d5f6040518163ffffffff1660e01b8152600401602060405180830381865afa158015610d8c573d5f5f3e3d5ffd5b505050506040513d601f19601f82011682018060405250810190610db09190611fa6565b90505f816001600160a01b031663d1946dbc6040518163ffffffff1660e01b81526004015f60405180830381865afa158015610dee573d5f5f3e3d5ffd5b505050506040513d5f823e601f3d908101601f19168201604052610e15919081019061202e565b90505f6001600160a01b038516610e2c575f610e2f565b81515b6001600160401b03811115610e4657610e46611fc1565b604051908082528060200260200182016040528015610e7f57816020015b610e6c611a05565b815260200190600190039081610e645790505b5090505f5b82518110156119fb575f846001600160a01b03166335ea6a75858481518110610eaf57610eaf6120e0565b60200260200101516040518263ffffffff1660e01b8152600401610ee291906001600160a01b0391909116815260200190565b6101e060405180830381865afa158015610efe573d5f5f3e3d5ffd5b505050506040513d601f19601f82011682018060405250810190610f229190612177565b9050838281518110610f3657610f366120e0565b6020026020010151838381518110610f5057610f506120e0565b60200260200101515f01906001600160a01b031690816001600160a01b0316815250505f8161010001516001600160a01b03166375d264136040518163ffffffff1660e01b8152600401602060405180830381865afa158015610fb5573d5f5f3e3d5ffd5b505050506040513d601f19601f82011682018060405250810190610fd99190611fa6565b90506001600160a01b0381161561149e57610100820151604051636657732f60e01b81526001600160a01b0391821660048201525f91831690636657732f906024015f60405180830381865afa158015611035573d5f5f3e3d5ffd5b505050506040513d5f823e601f3d908101601f1916820160405261105c919081019061202e565b90505f81516001600160401b0381111561107857611078611fc1565b6040519080825280602002602001820160405280156110b157816020015b61109e611ad6565b8152602001906001900390816110965790505b5090505f5b8251811015611447576110c7611ad6565b8382815181106110d9576110d96120e0565b60209081029190910101516001600160a01b039081166040808401829052610100890151905163299faa1560e11b81528f84166004820152908316602482015260448101919091529086169063533f542a90606401602060405180830381865afa158015611149573d5f5f3e3d5ffd5b505050506040513d601f19601f8201168201806040525081019061116d919061237a565b60808201526040808201519051632c08906360e21b81526001600160a01b038e8116600483015291821660248201529086169063b022418c90604401602060405180830381865afa1580156111c4573d5f5f3e3d5ffd5b505050506040513d601f19601f820116820180604052508101906111e8919061237a565b81606001818152505080604001516001600160a01b031663313ce5676040518163ffffffff1660e01b8152600401602060405180830381865afa158015611231573d5f5f3e3d5ffd5b505050506040513d601f19601f8201168201806040525081019061125591906122d4565b8160e0019060ff16908160ff168152505080604001516001600160a01b03166395d89b416040518163ffffffff1660e01b81526004015f60405180830381865afa1580156112a5573d5f5f3e3d5ffd5b505050506040513d5f823e601f3d908101601f191682016040526112cc91908101906122f4565b81526040808201519051630150bdfb60e51b81526001600160a01b03918216600482015290861690632a17bf6090602401602060405180830381865afa158015611318573d5f5f3e3d5ffd5b505050506040513d601f19601f8201168201806040525081019061133c9190611fa6565b6001600160a01b031660208083018290526040805163313ce56760e01b8152905163313ce567926004808401939192918290030181865afa158015611383573d5f5f3e3d5ffd5b505050506040513d601f19601f820116820180604052508101906113a791906122d4565b60ff1660c0820152602080820151604080516350d25bcd60e01b815290516001600160a01b03909216926350d25bcd926004808401938290030181865afa1580156113f4573d5f5f3e3d5ffd5b505050506040513d601f19601f82011682018060405250810190611418919061237a565b60a082015282518190849084908110611433576114336120e0565b6020908102919091010152506001016110b6565b5060405180606001604052808561010001516001600160a01b03168152602001846001600160a01b031681526020018281525086868151811061148c5761148c6120e0565b60200260200101516020018190525050505b5f8261014001516001600160a01b03166375d264136040518163ffffffff1660e01b8152600401602060405180830381865afa1580156114e0573d5f5f3e3d5ffd5b505050506040513d601f19601f820116820180604052508101906115049190611fa6565b90506001600160a01b038116156119f057610140830151604051636657732f60e01b81526001600160a01b0391821660048201525f91831690636657732f906024015f60405180830381865afa158015611560573d5f5f3e3d5ffd5b505050506040513d5f823e601f3d908101601f19168201604052611587919081019061202e565b90505f81516001600160401b038111156115a3576115a3611fc1565b6040519080825280602002602001820160405280156115dc57816020015b6115c9611ad6565b8152602001906001900390816115c15790505b5090505f5b8251811015611999576115f2611ad6565b838281518110611604576116046120e0565b602002602001015181604001906001600160a01b031690816001600160a01b031681525050846001600160a01b031663533f542a8e89610140015184604001516040518463ffffffff1660e01b8152600401611680939291906001600160a01b0393841681529183166020830152909116604082015260600190565b602060405180830381865afa15801561169b573d5f5f3e3d5ffd5b505050506040513d601f19601f820116820180604052508101906116bf919061237a565b60808201526040808201519051632c08906360e21b81526001600160a01b038f8116600483015291821660248201529086169063b022418c90604401602060405180830381865afa158015611716573d5f5f3e3d5ffd5b505050506040513d601f19601f8201168201806040525081019061173a919061237a565b81606001818152505080604001516001600160a01b031663313ce5676040518163ffffffff1660e01b8152600401602060405180830381865afa158015611783573d5f5f3e3d5ffd5b505050506040513d601f19601f820116820180604052508101906117a791906122d4565b8160e0019060ff16908160ff168152505080604001516001600160a01b03166395d89b416040518163ffffffff1660e01b81526004015f60405180830381865afa1580156117f7573d5f5f3e3d5ffd5b505050506040513d5f823e601f3d908101601f1916820160405261181e91908101906122f4565b81526040808201519051630150bdfb60e51b81526001600160a01b03918216600482015290861690632a17bf6090602401602060405180830381865afa15801561186a573d5f5f3e3d5ffd5b505050506040513d601f19601f8201168201806040525081019061188e9190611fa6565b6001600160a01b031660208083018290526040805163313ce56760e01b8152905163313ce567926004808401939192918290030181865afa1580156118d5573d5f5f3e3d5ffd5b505050506040513d601f19601f820116820180604052508101906118f991906122d4565b60ff1660c0820152602080820151604080516350d25bcd60e01b815290516001600160a01b03909216926350d25bcd926004808401938290030181865afa158015611946573d5f5f3e3d5ffd5b505050506040513d601f19601f8201168201806040525081019061196a919061237a565b60a082015282518190849084908110611985576119856120e0565b6020908102919091010152506001016115e1565b5060405180606001604052808661014001516001600160a01b03168152602001856001600160a01b03168152602001828152508787815181106119de576119de6120e0565b60200260200101516040018190525050505b505050600101610e84565b5095945050505050565b60405180606001604052805f6001600160a01b03168152602001611a4060408051606080820183525f80835260208301529181019190915290565b8152602001611a6660408051606080820183525f80835260208301529181019190915290565b905290565b604051806101600160405280606081526020015f6001600160a01b031681526020015f6001600160a01b031681526020015f81526020015f81526020015f81526020015f81526020015f81526020015f60ff1681526020015f60ff1681526020015f60ff1681525090565b604051806101000160405280606081526020015f6001600160a01b031681526020015f6001600160a01b031681526020015f81526020015f81526020015f81526020015f60ff1681526020015f60ff1681525090565b6001600160a01b0381168114611b40575f5ffd5b50565b5f5f60408385031215611b54575f5ffd5b8235611b5f81611b2c565b91506020830135611b6f81611b2c565b809150509250929050565b5f5b83811015611b94578181015183820152602001611b7c565b50505f910152565b5f8151808452611bb3816020860160208601611b7a565b601f01601f19169290920160200192915050565b5f6060830160018060a01b03835116845260018060a01b03602084015116602085015260408301516060604086015281815180845260808701915060808160051b88010193506020830192505f5b81811015611d0357607f19888603018352835180516101608752611c3d610160880182611b9c565b90506020820151611c5960208901826001600160a01b03169052565b506040820151611c7460408901826001600160a01b03169052565b50606082015160608801526080820151608088015260a082015160a088015260c082015160c088015260e082015160e0880152610100820151611cbd61010089018260ff169052565b50610120820151611cd461012089018260ff169052565b506101408201519150611ced61014088018360ff169052565b9550506020938401939290920191600101611c15565b50929695505050505050565b5f82825180855260208501945060208160051b830101602085015f5b83811015611d9957848303601f19018852815180516001600160a01b03168452602080820151606091860182905290611d6690860182611bc7565b9050604082015191508481036040860152611d818183611bc7565b60209a8b019a90955093909301925050600101611d2b565b50909695505050505050565b5f6060830160018060a01b03835116845260018060a01b03602084015116602085015260408301516060604086015281815180845260808701915060808160051b88010193506020830192505f5b81811015611d0357607f19888603018352835180516101008752611e1b610100880182611b9c565b905060018060a01b03602083015116602088015260018060a01b036040830151166040880152606082015160608801526080820151608088015260a082015160a088015260c0820151611e7360c089018260ff169052565b5060e08201519150611e8a60e088018360ff169052565b9550506020938401939290920191600101611df3565b5f82825180855260208501945060208160051b830101602085015f5b83811015611d9957848303601f19018852815180516001600160a01b03168452602080820151606091860182905290611ef790860182611da5565b9050604082015191508481036040860152611f128183611da5565b60209a8b019a90955093909301925050600101611ebc565b604081525f611f3c6040830185611d0f565b8281036020840152611f4e8185611ea0565b95945050505050565b602081525f6100da6020830184611ea0565b5f60208284031215611f79575f5ffd5b81356100da81611b2c565b602081525f6100da6020830184611d0f565b8051611fa181611b2c565b919050565b5f60208284031215611fb6575f5ffd5b81516100da81611b2c565b634e487b7160e01b5f52604160045260245ffd5b6040516101e081016001600160401b0381118282101715611ff857611ff8611fc1565b60405290565b604051601f8201601f191681016001600160401b038111828210171561202657612026611fc1565b604052919050565b5f6020828403121561203e575f5ffd5b81516001600160401b03811115612053575f5ffd5b8201601f81018413612063575f5ffd5b80516001600160401b0381111561207c5761207c611fc1565b8060051b61208c60208201611ffe565b918252602081840181019290810190878411156120a7575f5ffd5b6020850194505b838510156120d557845192506120c383611b2c565b828252602094850194909101906120ae565b979650505050505050565b634e487b7160e01b5f52603260045260245ffd5b5f60208284031215612104575f5ffd5b604051602081016001600160401b038111828210171561212657612126611fc1565b6040529151825250919050565b80516fffffffffffffffffffffffffffffffff81168114611fa1575f5ffd5b805164ffffffffff81168114611fa1575f5ffd5b805161ffff81168114611fa1575f5ffd5b5f6101e0828403128015612189575f5ffd5b50612192611fd5565b61219c84846120f4565b81526121aa60208401612133565b60208201526121bb60408401612133565b60408201526121cc60608401612133565b60608201526121dd60808401612133565b60808201526121ee60a08401612133565b60a08201526121ff60c08401612152565b60c082015261221060e08401612166565b60e08201526122226101008401611f96565b6101008201526122356101208401611f96565b6101208201526122486101408401611f96565b61014082015261225b6101608401611f96565b61016082015261226e6101808401612133565b6101808201526122816101a08401612133565b6101a08201526122946101c08401612133565b6101c08201529392505050565b5f5f5f5f608085870312156122b4575f5ffd5b505082516020840151604085015160609095015191969095509092509050565b5f602082840312156122e4575f5ffd5b815160ff811681146100da575f5ffd5b5f60208284031215612304575f5ffd5b81516001600160401b03811115612319575f5ffd5b8201601f81018413612329575f5ffd5b80516001600160401b0381111561234257612342611fc1565b612355601f8201601f1916602001611ffe565b818152856020838501011115612369575f5ffd5b611f4e826020830160208601611b7a565b5f6020828403121561238a575f5ffd5b505191905056fea164736f6c634300081b000a","linkReferences":{}},"methodIdentifiers":{"getFullReservesIncentiveData(address,address)":"47637536","getReservesIncentivesData(address)":"976fafc5","getUserReservesIncentivesData(address,address)":"799bdcf5"},"id":126}