{"abi":[{"type":"function","name":"pretty","inputs":[{"name":"n","type":"int256","internalType":"int256"}],"outputs":[{"name":"","type":"string","internalType":"string"}],"stateMutability":"pure"},{"type":"function","name":"pretty","inputs":[{"name":"value","type":"bool","internalType":"bool"}],"outputs":[{"name":"","type":"string","internalType":"string"}],"stateMutability":"pure"},{"type":"function","name":"pretty","inputs":[{"name":"n","type":"uint256","internalType":"uint256"}],"outputs":[{"name":"","type":"string","internalType":"string"}],"stateMutability":"pure"},{"type":"function","name":"pretty","inputs":[{"name":"n","type":"int256","internalType":"int256"},{"name":"decimals","type":"uint8","internalType":"uint8"}],"outputs":[{"name":"","type":"string","internalType":"string"}],"stateMutability":"pure"},{"type":"function","name":"pretty","inputs":[{"name":"n","type":"uint256","internalType":"uint256"},{"name":"decimals","type":"uint8","internalType":"uint8"}],"outputs":[{"name":"","type":"string","internalType":"string"}],"stateMutability":"pure"},{"type":"function","name":"toBitString","inputs":[{"name":"n","type":"uint256","internalType":"uint256"}],"outputs":[{"name":"","type":"string","internalType":"string"}],"stateMutability":"pure"},{"type":"function","name":"toBitString","inputs":[{"name":"n","type":"uint256","internalType":"uint256"},{"name":"decimals","type":"uint8","internalType":"uint8"}],"outputs":[{"name":"","type":"string","internalType":"string"}],"stateMutability":"pure"}],"bytecode":{"object":"0x61099a610034600b8282823980515f1a607314602857634e487b7160e01b5f525f60045260245ffd5b305f52607381538281f3fe7300000000000000000000000000000000000000003014608060405260043610610085575f3560e01c8063b772a46011610063578063b772a460146100d8578063b7b5eb77146100eb578063bc4f6371146100fe578063eec1cc9914610111575f5ffd5b8063140166391461008957806331012082146100b2578063ad8c6457146100c5575b5f5ffd5b61009c610097366004610804565b610124565b6040516100a9919061081b565b60405180910390f35b61009c6100c0366004610804565b610137565b61009c6100d3366004610866565b610145565b61009c6100e6366004610804565b61018f565b61009c6100f9366004610895565b61021c565b61009c61010c366004610895565b610232565b61009c61011f366004610895565b61023e565b606061013182601261024a565b92915050565b6060610131826101006102af565b60608161016f576040518060400160405280600581526020016466616c736560d81b815250610131565b50506040805180820190915260048152637472756560e01b602082015290565b60605f1982146101ef576fffffffffffffffffffffffffffffffff82146101c0576101bb82601261034d565b610131565b604051806040016040528060118152602001700e8f2e0ca50ead2dce8626470525cdac2f607b1b815250610131565b50506040805180820190915260118152700e8f2e0ca50ead2dce8646a6c525cdac2f607b1b602082015290565b606061022b838360ff166102af565b9392505050565b606061022b838361024a565b606061022b838361034d565b60408051602081019091525f80825260609190841290811561028057506040805180820190915260018152602d60f81b60208201525b6102a6816102a184610292578761029b565b61029b886108d3565b8761034d565b610508565b95945050505050565b60408051602081019091525f808252606091905b8361ffff16811015610345576102da600286610901565b5f0361030a57610303604051806040016040528060018152602001600360fc1b81525083610508565b9150610330565b61032d604051806040016040528060018152602001603160f81b81525083610508565b91505b61033b600286610914565b94506001016102c3565b509392505050565b60408051602081019091525f80825260609160ff841615919081905b861561043c5761037a600a88610901565b9150610387600a88610914565b96508261039381610927565b9350506103a86103a283610649565b82610508565b90508380156103bf57506103bd600384610901565b155b80156103ca57508615155b156103f5576103f2604051806040016040528060018152602001605f60f81b81525082610508565b90505b8315801561040557508560ff1683145b1561043757600193505f9250610434604051806040016040528060018152602001605f60f81b81525082610508565b90505b610369565b838015610447575082155b156104725761046f604051806040016040528060018152602001600360fc1b81525082610508565b90505b836104fe575f5f848860ff16101561048a575f610497565b6104978560ff8a1661093f565b90505f91505b808210156104d5576104c8604051806040016040528060018152602001600360fc1b81525084610508565b925081600101915061049d565b6104f960405180604001604052806002815260200161305f60f01b81525084610508565b925050505b9695505050505050565b80518251606091849184915f9161051f9190610952565b67ffffffffffffffff81111561053757610537610965565b6040519080825280601f01601f191660200182016040528015610561576020820181803683370190505b509050805f805b85518210156105d05785828151811061058357610583610979565b01602001516001600160f81b031916838261059d81610927565b9350815181106105af576105af610979565b60200101906001600160f81b03191690815f1a905350600190910190610568565b5f91505b845182101561063c578482815181106105ef576105ef610979565b01602001516001600160f81b031916838261060981610927565b93508151811061061b5761061b610979565b60200101906001600160f81b03191690815f1a9053506001909101906105d4565b5090979650505050505050565b6060815f0361066f5750506040805180820190915260018152600360fc1b602082015290565b816001036106945750506040805180820190915260018152603160f81b602082015290565b816002036106b95750506040805180820190915260018152601960f91b602082015290565b816003036106de5750506040805180820190915260018152603360f81b602082015290565b816004036107035750506040805180820190915260018152600d60fa1b602082015290565b816005036107285750506040805180820190915260018152603560f81b602082015290565b8160060361074d5750506040805180820190915260018152601b60f91b602082015290565b816007036107725750506040805180820190915260018152603760f81b602082015290565b816008036107975750506040805180820190915260018152600760fb1b602082015290565b816009036107bc5750506040805180820190915260018152603960f81b602082015290565b60405162461bcd60e51b815260206004820152601460248201527304e6f7420696e2072616e6765203020746f2031360641b604482015260640160405180910390fd5b919050565b5f60208284031215610814575f5ffd5b5035919050565b602081525f82518060208401525f5b81811015610847576020818601810151604086840101520161082a565b505f604082850101526040601f19601f83011684010191505092915050565b5f60208284031215610876575f5ffd5b8135801515811461022b575f5ffd5b803560ff811681146107ff575f5ffd5b5f5f604083850312156108a6575f5ffd5b823591506108b660208401610885565b90509250929050565b634e487b7160e01b5f52601160045260245ffd5b5f600160ff1b82016108e7576108e76108bf565b505f0390565b634e487b7160e01b5f52601260045260245ffd5b5f8261090f5761090f6108ed565b500690565b5f82610922576109226108ed565b500490565b5f60018201610938576109386108bf565b5060010190565b81810381811115610131576101316108bf565b80820180821115610131576101316108bf565b634e487b7160e01b5f52604160045260245ffd5b634e487b7160e01b5f52603260045260245ffdfea164736f6c634300081b000a","linkReferences":{}},"methodIdentifiers":{"pretty(bool)":"ad8c6457","pretty(int256)":"14016639","pretty(int256,uint8)":"bc4f6371","pretty(uint256)":"b772a460","pretty(uint256,uint8)":"eec1cc99","toBitString(uint256)":"31012082","toBitString(uint256,uint8)":"b7b5eb77"},"id":404}