{"abi":[{"type":"constructor","inputs":[{"name":"poolProxy","type":"address","internalType":"address"},{"name":"poolConfiguratorProxy","type":"address","internalType":"address"},{"name":"defaultInterestRateStrategy","type":"address","internalType":"address"},{"name":"aaveOracle","type":"address","internalType":"address"},{"name":"rewardsController","type":"address","internalType":"address"},{"name":"collector","type":"address","internalType":"address"},{"name":"aTokenImpl","type":"address","internalType":"address"},{"name":"vTokenImpl","type":"address","internalType":"address"}],"stateMutability":"nonpayable"},{"type":"function","name":"getConfigEngineReport","inputs":[],"outputs":[{"name":"","type":"tuple","internalType":"struct ConfigEngineReport","components":[{"name":"configEngine","type":"address","internalType":"address"},{"name":"listingEngine","type":"address","internalType":"address"},{"name":"eModeEngine","type":"address","internalType":"address"},{"name":"borrowEngine","type":"address","internalType":"address"},{"name":"collateralEngine","type":"address","internalType":"address"},{"name":"priceFeedEngine","type":"address","internalType":"address"},{"name":"rateEngine","type":"address","internalType":"address"},{"name":"capsEngine","type":"address","internalType":"address"}]}],"stateMutability":"view"}],"bytecode":{"object":"0x608060405234801561000f575f5ffd5b50604051618a94380380618a9483398101604081905261002e916106f4565b61003e88888888888888886100f6565b80515f80546001600160a01b03199081166001600160a01b0393841617909155602083015160018054831691841691909117905560408301516002805483169184169190911790556060830151600380548316918416919091179055608083015160048054831691841691909117905560a083015160058054831691841691909117905560c083015160068054831691841691909117905560e090920151600780549093169116179055506108159650505050505050565b60408051610100810182525f80825260208201819052918101829052606081018290526080810182905260a0810182905260c0810182905260e08101919091525f6040518060e0016040528061017361763160f01b6040518060200161015b90610671565b601f1982820381018352601f909101166040526103fd565b6001600160a01b0316815260200161019a61763160f01b6040518060200161015b9061067e565b6001600160a01b031681526020016101c161763160f01b6040518060200161015b9061068b565b6001600160a01b031681526020016101e861763160f01b6040518060200161015b90610698565b6001600160a01b0316815260200161020f61763160f01b6040518060200161015b906106a5565b6001600160a01b0316815260200161023661763160f01b6040518060200161015b906106b2565b6001600160a01b0316815260200161025d61763160f01b6040518060200161015b906106bf565b6001600160a01b039081169091526040805160c080820183528e841682528d84166020808401919091528c8516838501528b85166060808501919091528b86166080808601919091528f871660a080870191909152885188168b8501529288015187168a8701528588015187168a8301529087015186168982015286015185168882015285015184168782015284015190921660e08601525191925090859085908390859061030b906106cc565b6001600160a01b0394851681529284166020808501919091528251851660408086019190915281840151861660608087019190915281850151871660808088019190915281860151881660a08089019190915281870151891660c0808a019190915296810151891660e0890152855189166101008901529385015188166101208801529184015187166101408701528301518616610160860152820151851661018085015281015184166101a084015201519091166101c08201526101e001604051809103905ff0801580156103e3573d5f5f3e3d5ffd5b506001600160a01b03168352505098975050505050505050565b5f73914d7fec6aac8cd542e72bca78b30650d45643d73b151581036104695760405162461bcd60e51b815260206004820152601760248201527f4d495353494e475f435245415445325f464143544f525900000000000000000060448201526064015b60405180910390fd5b5f61047484846105a9565b90506001600160a01b0381163b1561048d5790506105a3565b5f84846040516020016104a19291906107b3565b6040516020818303038152906040529050606073914d7fec6aac8cd542e72bca78b30650d45643d76001600160a01b0316826040516104e091906107cc565b5f604051808303815f865af19150503d805f8114610519576040519150601f19603f3d011682016040523d82523d5f602084013e61051e565b606091505b5091505f905061052d826107d7565b60601c90506001600160a01b03841681146105985760405162461bcd60e51b815260206004820152602560248201527f6661696c7572652061742063726561746532206164647265737320646572697660448201526430ba34b7b760d91b6064820152608401610460565b93506105a392505050565b92915050565b5f6105e083836040516020016105bf91906107cc565b604051602081830303815290604052805190602001206105e760201b60201c565b9392505050565b6040517fff0000000000000000000000000000000000000000000000000000000000000060208201527f914d7fec6aac8cd542e72bca78b30650d45643d7000000000000000000000000602182015260358101839052605581018290525f906105e0906075016040516020818303038152906040528051906020012061066e60201b60201c565b90565b611a7f8061098383390190565b6119318061240283390190565b6109f780613d3383390190565b610ac48061472a83390190565b61063c806151ee83390190565b6108e78061582a83390190565b6104b18061611183390190565b6124d2806165c283390190565b80516001600160a01b03811681146106ef575f5ffd5b919050565b5f5f5f5f5f5f5f5f610100898b03121561070c575f5ffd5b610715896106d9565b975061072360208a016106d9565b965061073160408a016106d9565b955061073f60608a016106d9565b945061074d60808a016106d9565b935061075b60a08a016106d9565b925061076960c08a016106d9565b915061077760e08a016106d9565b90509295985092959890939650565b5f81515f5b818110156107a5576020818501810151868301520161078b565b505f93019283525090919050565b8281525f6107c46020830184610786565b949350505050565b5f6105e08284610786565b805160208201516001600160601b031981169190601482101561080e576001600160601b0319601483900360031b81901b82161692505b5050919050565b610161806108225f395ff3fe608060405234801561000f575f5ffd5b5060043610610029575f3560e01c8063fcd8fb881461002d575b5f5ffd5b6100d760408051610100810182525f80825260208201819052918101829052606081018290526080810182905260a0810182905260c0810182905260e08101919091525060408051610100810182525f546001600160a01b039081168252600154811660208301526002548116928201929092526003548216606082015260045482166080820152600554821660a0820152600654821660c082015260075490911660e082015290565b60405161014b919081516001600160a01b03908116825260208084015182169083015260408084015182169083015260608084015182169083015260808084015182169083015260a08084015182169083015260c08084015182169083015260e09283015116918101919091526101000190565b60405180910390f3fea164736f6c634300081b000a611a4b610034600b8282823980515f1a607314602857634e487b7160e01b5f525f60045260245ffd5b305f52607381538281f3fe7300000000000000000000000000000000000000003014608060405260043610610034575f3560e01c8063b668509b14610038575b5f5ffd5b818015610043575f5ffd5b5061005761005236600461134d565b610059565b005b5f8190036100ae5760405162461bcd60e51b815260206004820152601b60248201527f41545f4c454153545f4f4e455f41535345545f5245515549524544000000000060448201526064015b60405180910390fd5b5f6100b9838361028e565b905061012e63f328645d60e01b8683608001516040516024016100dd9291906114ba565b60408051601f198184030181529190526020810180516001600160e01b03166001600160e01b03199093169290921790915261011f60a0870160808801611525565b6001600160a01b031690610db6565b50610154866101436040880160208901611525565b8351602085015160c0860151610e28565b60a08101516040516101b991633c2d400f60e01b91610177918991602401611540565b60408051601f198184030181529190526020810180516001600160e01b03166001600160e01b03199093169290921790915261011f60e0870160c08801611525565b5061021f63a2a31dc660e01b8683604001516040516024016101dc9291906115e9565b60408051601f198184030181529181526020820180516001600160e01b03166001600160e01b0319909416939093179092529061011f9060608801908801611525565b50606081015160405161028591630304504560e21b9161024391899160240161163b565b60408051601f198184030181529190526020810180516001600160e01b03166001600160e01b03199093169290921790915261011f6080870160608801611525565b50505050505050565b6102ce6040518060e00160405280606081526020016060815260200160608152602001606081526020016060815260200160608152602001606081525090565b5f826001600160401b038111156102e7576102e761168d565b604051908082528060200260200182016040528015610310578160200160208202803683370190505b5090505f836001600160401b0381111561032c5761032c61168d565b60405190808252806020026020018201604052801561039957816020015b6103866040518060c001604052805f6001600160a01b031681526020015f81526020015f81526020015f81526020015f81526020015f81525090565b81526020019060019003908161034a5790505b5090505f846001600160401b038111156103b5576103b561168d565b60405190808252806020026020018201604052801561042257816020015b61040f6040518060c001604052805f6001600160a01b031681526020015f81526020015f81526020015f81526020015f81526020015f81525090565b8152602001906001900390816103d35790505b5090505f856001600160401b0381111561043e5761043e61168d565b60405190808252806020026020018201604052801561048257816020015b604080518082019091525f808252602082015281526020019060019003908161045c5790505b5090505f866001600160401b0381111561049e5761049e61168d565b6040519080825280602002602001820160405280156104f957816020015b6104e660405180606001604052805f6001600160a01b031681526020015f81526020015f81525090565b8152602001906001900390816104bc5790505b5090505f876001600160401b038111156105155761051561168d565b60405190808252806020026020018201604052801561054e57816020015b61053b6112c2565b8152602001906001900390816105335790505b5090505f886001600160401b0381111561056a5761056a61168d565b6040519080825280602002602001820160405280156105ba57816020015b604080516080810182525f8082526020808301829052928201819052606082015282525f199092019101816105885790505b5090505f5b89811015610d7b575f8b8b838181106105da576105da6116a1565b90506020028101906105ec91906116b5565b6105f690806116d3565b610604906020810190611525565b6001600160a01b03160361064a5760405162461bcd60e51b815260206004820152600d60248201526c1253959053125117d054d4d155609a1b60448201526064016100a5565b8a8a8281811061065c5761065c6116a1565b905060200281019061066e91906116b5565b61067890806116d3565b610686906020810190611525565b888281518110610698576106986116a1565b60200260200101906001600160a01b031690816001600160a01b03168152505060405180604001604052808c8c848181106106d5576106d56116a1565b90506020028101906106e791906116b5565b6106f190806116d3565b6106ff9060208101906116e8565b8080601f0160208091040260200160405190810160405280939291908181526020018383808284375f920191909152505050908252506020018c8c8481811061074a5761074a6116a1565b905060200281019061075c91906116b5565b60200180360381019061076f919061172a565b815250838281518110610784576107846116a1565b602002602001018190525060405180604001604052808c8c848181106107ac576107ac6116a1565b90506020028101906107be91906116b5565b6107c890806116d3565b6107d6906020810190611525565b6001600160a01b031681526020018c8c848181106107f6576107f66116a1565b905060200281019061080891906116b5565b61081290806116d3565b610823906060810190604001611525565b6001600160a01b0316815250858281518110610841576108416116a1565b60200260200101819052506040518060c001604052808c8c84818110610869576108696116a1565b905060200281019061087b91906116b5565b61088590806116d3565b610893906020810190611525565b6001600160a01b031681526020018c8c848181106108b3576108b36116a1565b90506020028101906108c591906116b5565b6108cf90806116d3565b60e0013581526020018c8c848181106108ea576108ea6116a1565b90506020028101906108fc91906116b5565b61090690806116d3565b610140013581526020018c8c84818110610922576109226116a1565b905060200281019061093491906116b5565b61093e90806116d3565b610100013581526020018c8c8481811061095a5761095a6116a1565b905060200281019061096c91906116b5565b61097690806116d3565b610120013581526020018c8c84818110610992576109926116a1565b90506020028101906109a491906116b5565b6109ae90806116d3565b6101c001358152508782815181106109c8576109c86116a1565b60200260200101819052506040518060c001604052808c8c848181106109f0576109f06116a1565b9050602002810190610a0291906116b5565b610a0c90806116d3565b610a1a906020810190611525565b6001600160a01b031681526020018c8c84818110610a3a57610a3a6116a1565b9050602002810190610a4c91906116b5565b610a5690806116d3565b610160013581526020018c8c84818110610a7257610a726116a1565b9050602002810190610a8491906116b5565b610a8e90806116d3565b610180013581526020018c8c84818110610aaa57610aaa6116a1565b9050602002810190610abc91906116b5565b610ac690806116d3565b6101a0013581526020018c8c84818110610ae257610ae26116a1565b9050602002810190610af491906116b5565b610afe90806116d3565b610220013581526020018c8c84818110610b1a57610b1a6116a1565b9050602002810190610b2c91906116b5565b610b3690806116d3565b6102400135815250868281518110610b5057610b506116a1565b602002602001018190525060405180606001604052808c8c84818110610b7857610b786116a1565b9050602002810190610b8a91906116b5565b610b9490806116d3565b610ba2906020810190611525565b6001600160a01b031681526020018c8c84818110610bc257610bc26116a1565b9050602002810190610bd491906116b5565b610bde90806116d3565b6101e0013581526020018c8c84818110610bfa57610bfa6116a1565b9050602002810190610c0c91906116b5565b610c1690806116d3565b6102000135815250848281518110610c3057610c306116a1565b60200260200101819052506040518060800160405280610c808d8d85818110610c5b57610c5b6116a1565b9050602002810190610c6d91906116b5565b610c7790806116d3565b606001356111d5565b61ffff168152602001610cc38d8d85818110610c9e57610c9e6116a1565b9050602002810190610cb091906116b5565b610cba90806116d3565b60800135611207565b63ffffffff168152602001610d088d8d85818110610ce357610ce36116a1565b9050602002810190610cf591906116b5565b610cff90806116d3565b60a00135611207565b63ffffffff168152602001610d4d8d8d85818110610d2857610d286116a1565b9050602002810190610d3a91906116b5565b610d4490806116d3565b60c00135611207565b63ffffffff16815250828281518110610d6857610d686116a1565b60209081029190910101526001016105bf565b506040805160e0810182529788526020880192909252908601949094526060850192909252608084015260a083015260c08201529392505050565b60605f5f846001600160a01b031684604051610dd291906117b6565b5f60405180830381855af49150503d805f8114610e0a576040519150601f19603f3d011682016040523d82523d5f602084013e610e0f565b606091505b5091509150610e1f858383611237565b95945050505050565b5f83516001600160401b03811115610e4257610e4261168d565b604051908082528060200260200182016040528015610eda57816020015b610ec76040518061012001604052805f6001600160a01b031681526020015f6001600160a01b031681526020015f6001600160a01b031681526020016060815260200160608152602001606081526020016060815260200160608152602001606081525090565b815260200190600190039081610e605790505b5090505f5b845181101561117357604051806101200160405280858381518110610f0657610f066116a1565b6020026020010151602001515f01516001600160a01b03168152602001858381518110610f3557610f356116a1565b602002602001015160200151602001516001600160a01b03168152602001868381518110610f6557610f656116a1565b6020908102919091018101516001600160a01b0316825201610f8789806116e8565b878581518110610f9957610f996116a1565b60200260200101515f0151604051602001610fb6939291906117c7565b6040516020818303038152906040528152602001888060200190610fda91906116e8565b878581518110610fec57610fec6116a1565b60200260200101515f015160405160200161100993929190611807565b60408051601f19818403018152919052815260200161102889806116e8565b87858151811061103a5761103a6116a1565b60200260200101515f015160405160200161105793929190611841565b604051602081830303815290604052815260200188806020019061107b91906116e8565b87858151811061108d5761108d6116a1565b60200260200101515f01516040516020016110aa9392919061188f565b604051602081830303815290604052815260200160405180602001604052805f81525081526020018483815181106110e4576110e46116a1565b602002602001015160405160200161113c91905f60808201905061ffff835116825263ffffffff602084015116602083015263ffffffff604084015116604083015263ffffffff606084015116606083015292915050565b604051602081830303815290604052815250828281518110611160576111606116a1565b6020908102919091010152600101610edf565b50604051631988f20160e21b81526001600160a01b03861690636623c804906111a09084906004016118ff565b5f604051808303815f87803b1580156111b7575f5ffd5b505af11580156111c9573d5f5f3e3d5ffd5b50505050505050505050565b5f61ffff821115611203576040516306dfcc6560e41b815260106004820152602481018390526044016100a5565b5090565b5f63ffffffff821115611203576040516306dfcc6560e41b815260206004820152602481018390526044016100a5565b60608261124c5761124782611296565b61128f565b815115801561126357506001600160a01b0384163b155b1561128c57604051639996b31560e01b81526001600160a01b03851660048201526024016100a5565b50805b9392505050565b8051156112a65780518082602001fd5b60405163d6bda27560e01b815260040160405180910390fd5b50565b60405180604001604052806060815260200161130160405180604001604052805f6001600160a01b031681526020015f6001600160a01b031681525090565b905290565b5f5f83601f840112611316575f5ffd5b5081356001600160401b0381111561132c575f5ffd5b6020830191508360208260051b8501011115611346575f5ffd5b9250929050565b5f5f5f5f5f8587036101e0811215611363575f5ffd5b86356001600160401b03811115611378575f5ffd5b87016040818a031215611389575f5ffd5b955060c0601f198201121561139c575f5ffd5b60208701945060e060df19820112156113b3575f5ffd5b5060e0860192506101c08601356001600160401b038111156113d3575f5ffd5b6113df88828901611306565b969995985093965092949392505050565b6001600160a01b03811681146112bf575f5ffd5b803561140f816113f0565b919050565b803561141f816113f0565b6001600160a01b031682526020810135611438816113f0565b6001600160a01b031660208301526040810135611454816113f0565b6001600160a01b031660408301526060810135611470816113f0565b6001600160a01b03166060830152608081013561148c816113f0565b6001600160a01b031660808301526114a660a08201611404565b6001600160a01b03811660a0840152505050565b5f60e082016114c98386611414565b60e060c084015283519081905260208401906101008401905f5b8181101561151957835180516001600160a01b0390811685526020918201511681850152909301926040909201916001016114e3565b50909695505050505050565b5f60208284031215611535575f5ffd5b813561128f816113f0565b5f60e0820161154f8386611414565b60e060c084015283519081905260208401906101008401905f5b8181101561151957835180516001600160a01b03168452602080820151818601526040918201519185019190915290930192606090920191600101611569565b80516001600160a01b031682526020808201519083015260408082015190830152606080820151908301526080808201519083015260a090810151910152565b5f60e082016115f88386611414565b60e060c084015283519081905260208401906101008401905f5b81811015611519576116258385516115a9565b6020939093019260c09290920191600101611612565b5f60e0820161164a8386611414565b60e060c084015283519081905260208401906101008401905f5b81811015611519576116778385516115a9565b6020939093019260c09290920191600101611664565b634e487b7160e01b5f52604160045260245ffd5b634e487b7160e01b5f52603260045260245ffd5b5f8235605e198336030181126116c9575f5ffd5b9190910192915050565b5f823561025e198336030181126116c9575f5ffd5b5f5f8335601e198436030181126116fd575f5ffd5b8301803591506001600160401b03821115611716575f5ffd5b602001915036819003821315611346575f5ffd5b5f604082840312801561173b575f5ffd5b50604080519081016001600160401b038111828210171561176a57634e487b7160e01b5f52604160045260245ffd5b6040528235611778816113f0565b81526020830135611788816113f0565b60208201529392505050565b5f5b838110156117ae578181015183820152602001611796565b50505f910152565b5f82516116c9818460208701611794565b64020b0bb32960dd1b8152828460058301375f838201600160fd1b600582015283516117fa816006840160208801611794565b0160060195945050505050565b606160f81b8152828460018301375f838201600181015f81528451611830818360208901611794565b919091016001019695505050505050565b64020b0bb32960dd1b8152828460058301375f8382016e0102b30b934b0b13632902232b13a1608d1b60058201528351611882816014840160208801611794565b0160140195945050505050565b6b1d985c9a58589b195119589d60a21b81528284600c8301375f838201600c81015f815284516118c3818360208901611794565b91909101600c019695505050505050565b5f81518084526118eb816020860160208601611794565b601f01601f19169290920160200192915050565b5f602082016020835280845180835260408501915060408160051b8601019250602086015f5b82811015611a3257868503603f19018452815180516001600160a01b03168652602081015161195f60208801826001600160a01b03169052565b50604081015161197a60408801826001600160a01b03169052565b50606081015161012060608801526119966101208801826118d4565b9050608082015187820360808901526119af82826118d4565b91505060a082015187820360a08901526119c982826118d4565b91505060c082015187820360c08901526119e382826118d4565b91505060e082015187820360e08901526119fd82826118d4565b9150506101008201519150868103610100880152611a1b81836118d4565b965050506020938401939190910190600101611925565b5092969550505050505056fea164736f6c634300081b000a6118fd610034600b8282823980515f1a607314602857634e487b7160e01b5f525f60045260245ffd5b305f52607381538281f3fe730000000000000000000000000000000000000000301460806040526004361061004a575f3560e01c8063930b9fc91461004e57806396667b5e1461006f578063ff3d15251461008e575b5f5ffd5b818015610059575f5ffd5b5061006d610068366004611221565b6100ad565b005b81801561007a575f5ffd5b5061006d61008936600461138a565b61012c565b818015610099575f5ffd5b5061006d6100a8366004611525565b6101a2565b80515f036101025760405162461bcd60e51b815260206004820152601c60248201527f41545f4c454153545f4f4e455f5550444154455f52455155495245440000000060448201526064015b60405180910390fd5b610128610115604084016020850161168c565b610122602085018561168c565b8361055e565b5050565b80515f0361017c5760405162461bcd60e51b815260206004820152601c60248201527f41545f4c454153545f4f4e455f5550444154455f52455155495245440000000060448201526064016100f9565b61012861018f604084016020850161168c565b61019c602085018561168c565b8361082a565b5f5b815181101561055957604051806040016040528060138152602001724b4545505f43555252454e545f535452494e4760681b8152506040516020016101e991906116fb565b604051602081830303815290604052805190602001208282815181106102115761021161170d565b60200260200101516060015160405160200161022d91906116fb565b60405160208183030381529060405280519060200120036102805760405162461bcd60e51b815260206004820152600d60248201526c1253959053125117d310509153609a1b60448201526064016100f9565b5f610296610291602086018661168c565b610f9c565b90506102a8604085016020860161168c565b6001600160a01b03166334a461ea826102dc8686815181106102cc576102cc61170d565b60200260200101515f0151611056565b6103028787815181106102f1576102f161170d565b602002602001015160200151611056565b6103358888815181106103175761031761170d565b6020026020010151604001516127106103309190611735565b611056565b8888815181106103475761034761170d565b6020026020010151606001516040518663ffffffff1660e01b815260040161037395949392919061174e565b5f604051808303815f87803b15801561038a575f5ffd5b505af115801561039c573d5f5f3e3d5ffd5b505050505f5b8383815181106103b4576103b461170d565b602002602001015160a0015151811015610477576103d8604086016020870161168c565b6001600160a01b031663f65278108585815181106103f8576103f861170d565b602002602001015160a0015183815181106104155761041561170d565b60200260200101518460016040518463ffffffff1660e01b815260040161043e93929190611792565b5f604051808303815f87803b158015610455575f5ffd5b505af1158015610467573d5f5f3e3d5ffd5b5050600190920191506103a29050565b505f5b83838151811061048c5761048c61170d565b6020026020010151608001515181101561054f576104b0604086016020870161168c565b6001600160a01b031663110ac2568585815181106104d0576104d061170d565b60200260200101516080015183815181106104ed576104ed61170d565b60200260200101518460016040518463ffffffff1660e01b815260040161051693929190611792565b5f604051808303815f87803b15801561052d575f5ffd5b505af115801561053f573d5f5f3e3d5ffd5b50506001909201915061047a9050565b50506001016101a4565b505050565b5f5b8151811015610824575f836001600160a01b031663b286f46784848151811061058b5761058b61170d565b6020026020010151602001516040518263ffffffff1660e01b81526004016105bc919060ff91909116815260200190565b606060405180830381865afa1580156105d7573d5f5f3e3d5ffd5b505050506040513d601f19601f820116820180604052508101906105fb91906117c9565b9050806020015161ffff165f036106455760405162461bcd60e51b815260206004820152600e60248201526d494e56414c49445f55504441544560901b60448201526064016100f9565b610651602a5f19611834565b8383815181106106635761066361170d565b6020026020010151606001511461073057846001600160a01b031663f65278108484815181106106955761069561170d565b60200260200101515f01518585815181106106b2576106b261170d565b6020026020010151602001516106e48787815181106106d3576106d361170d565b602002602001015160600151611088565b6040518463ffffffff1660e01b815260040161070293929190611792565b5f604051808303815f87803b158015610719575f5ffd5b505af115801561072b573d5f5f3e3d5ffd5b505050505b61073c602a5f19611834565b83838151811061074e5761074e61170d565b6020026020010151604001511461081b57846001600160a01b031663110ac2568484815181106107805761078061170d565b60200260200101515f015185858151811061079d5761079d61170d565b6020026020010151602001516107cf8787815181106107be576107be61170d565b602002602001015160400151611088565b6040518463ffffffff1660e01b81526004016107ed93929190611792565b5f604051808303815f87803b158015610804575f5ffd5b505af1158015610816573d5f5f3e3d5ffd5b505050505b50600101610560565b50505050565b5f5b8151811015610824575f610842602a5f19611834565b8383815181106108545761085461170d565b60200260200101516020015114806108935750610873602a5f19611834565b8383815181106108855761088561170d565b602002602001015160400151145b806108c557506108a5602a5f19611834565b8383815181106108b7576108b761170d565b602002602001015160600151145b806109635750604051806040016040528060138152602001724b4545505f43555252454e545f535452494e4760681b81525060405160200161090791906116fb565b6040516020818303038152906040528051906020012083838151811061092f5761092f61170d565b60200260200101516080015160405160200161094b91906116fb565b60405160208183030381529060405280519060200120145b90505f610972602a5f19611834565b8484815181106109845761098461170d565b6020026020010151602001511415806109c557506109a4602a5f19611834565b8484815181106109b6576109b661170d565b60200260200101516040015114155b806109f857506109d7602a5f19611834565b8484815181106109e9576109e961170d565b60200260200101516060015114155b80610a975750604051806040016040528060138152602001724b4545505f43555252454e545f535452494e4760681b815250604051602001610a3a91906116fb565b60405160208183030381529060405280519060200120848481518110610a6257610a6261170d565b602002602001015160800151604051602001610a7e91906116fb565b6040516020818303038152906040528051906020012014155b90505f856001600160a01b031663b286f467868681518110610abb57610abb61170d565b6020908102919091010151516040516001600160e01b031960e084901b16815260ff9091166004820152602401606060405180830381865afa158015610b03573d5f5f3e3d5ffd5b505050506040513d601f19601f82011682018060405250810190610b2791906117c9565b9050806020015161ffff165f03610b715760405162461bcd60e51b815260206004820152600e60248201526d494e56414c49445f55504441544560901b60448201526064016100f9565b818015610b7b5750825b15610de957610b8c602a5f19611834565b858581518110610b9e57610b9e61170d565b60200260200101516020015103610bda57805f015161ffff16858581518110610bc957610bc961170d565b602002602001015160200181815250505b610be6602a5f19611834565b858581518110610bf857610bf861170d565b60200260200101516040015103610c3557806020015161ffff16858581518110610c2457610c2461170d565b602002602001015160400181815250505b610c41602a5f19611834565b858581518110610c5357610c5361170d565b60200260200101516060015103610c9d576127108160400151610c769190611847565b61ffff16858581518110610c8c57610c8c61170d565b602002602001015160600181815250505b604051806040016040528060138152602001724b4545505f43555252454e545f535452494e4760681b815250604051602001610cd991906116fb565b60405160208183030381529060405280519060200120858581518110610d0157610d0161170d565b602002602001015160800151604051602001610d1d91906116fb565b6040516020818303038152906040528051906020012003610de957856001600160a01b0316632083e183868681518110610d5957610d5961170d565b6020908102919091010151516040516001600160e01b031960e084901b16815260ff90911660048201526024015f60405180830381865afa158015610da0573d5f5f3e3d5ffd5b505050506040513d5f823e601f3d908101601f19168201604052610dc79190810190611861565b858581518110610dd957610dd961170d565b6020026020010151608001819052505b8115610f9157612710610e4c868681518110610e0757610e0761170d565b602002602001015160600151612710610e209190611735565b878781518110610e3257610e3261170d565b6020026020010151604001516110e990919063ffffffff16565b1115610e905760405162461bcd60e51b8152602060048201526013602482015272494e56414c49445f4c545f4c425f524154494f60681b60448201526064016100f9565b866001600160a01b03166334a461ea868681518110610eb157610eb161170d565b60200260200101515f0151610ed18888815181106102f1576102f161170d565b610ef7898981518110610ee657610ee661170d565b602002602001015160400151611056565b610f258a8a81518110610f0c57610f0c61170d565b6020026020010151606001516127106103309190611735565b8a8a81518110610f3757610f3761170d565b6020026020010151608001516040518663ffffffff1660e01b8152600401610f6395949392919061174e565b5f604051808303815f87803b158015610f7a575f5ffd5b505af1158015610f8c573d5f5f3e3d5ffd5b505050505b50505060010161082c565b5f60015b6101008160ff16101561103c5760405163b286f46760e01b815260ff821660048201526001600160a01b0384169063b286f46790602401606060405180830381865afa158015610ff2573d5f5f3e3d5ffd5b505050506040513d601f19601f8201168201806040525081019061101691906117c9565b6020015161ffff165f0361102a5792915050565b80611034816118d2565b915050610fa0565b506040516363ef5a4160e11b815260040160405180910390fd5b5f61ffff821115611084576040516306dfcc6560e41b815260106004820152602481018390526044016100f9565b5090565b5f8115806110965750816001145b6110e25760405162461bcd60e51b815260206004820152601a60248201527f494e56414c49445f434f4e56455253494f4e5f544f5f424f4f4c00000000000060448201526064016100f9565b5060011490565b5f811561138819839004841115176110ff575f5ffd5b506127109102611388010490565b5f60c0828403121561111d575f5ffd5b50919050565b634e487b7160e01b5f52604160045260245ffd5b604051608081016001600160401b038111828210171561115957611159611123565b60405290565b60405160a081016001600160401b038111828210171561115957611159611123565b60405160c081016001600160401b038111828210171561115957611159611123565b604051601f8201601f191681016001600160401b03811182821017156111cb576111cb611123565b604052919050565b5f6001600160401b038211156111eb576111eb611123565b5060051b60200190565b6001600160a01b0381168114611209575f5ffd5b50565b803560ff8116811461121c575f5ffd5b919050565b5f5f60e08385031215611232575f5ffd5b61123c848461110d565b915060c08301356001600160401b03811115611256575f5ffd5b8301601f81018513611266575f5ffd5b8035611279611274826111d3565b6111a3565b8082825260208201915060208360071b85010192508783111561129a575f5ffd5b6020840193505b8284101561130957608084890312156112b8575f5ffd5b6112c0611137565b84356112cb816111f5565b81526112d96020860161120c565b602082810191909152604086810135908301526060808701359083015290835260809094019391909101906112a1565b809450505050509250929050565b5f6001600160401b0382111561132f5761132f611123565b50601f01601f191660200190565b5f82601f83011261134c575f5ffd5b813561135a61127482611317565b81815284602083860101111561136e575f5ffd5b816020850160208301375f918101602001919091529392505050565b5f5f60e0838503121561139b575f5ffd5b6113a5848461110d565b915060c08301356001600160401b038111156113bf575f5ffd5b8301601f810185136113cf575f5ffd5b80356113dd611274826111d3565b8082825260208201915060208360051b8501019250878311156113fe575f5ffd5b602084015b838110156114a85780356001600160401b03811115611420575f5ffd5b850160a0818b03601f19011215611435575f5ffd5b61143d61115f565b6114496020830161120c565b815260408281013560208301526060808401359183019190915260808301359082015260a08201356001600160401b03811115611484575f5ffd5b6114938c60208386010161133d565b60808301525084525060209283019201611403565b50809450505050509250929050565b5f82601f8301126114c6575f5ffd5b81356114d4611274826111d3565b8082825260208201915060208360051b8601019250858311156114f5575f5ffd5b602085015b8381101561151b57803561150d816111f5565b8352602092830192016114fa565b5095945050505050565b5f5f60e08385031215611536575f5ffd5b611540848461110d565b915060c08301356001600160401b0381111561155a575f5ffd5b8301601f8101851361156a575f5ffd5b8035611578611274826111d3565b8082825260208201915060208360051b850101925087831115611599575f5ffd5b602084015b838110156114a85780356001600160401b038111156115bb575f5ffd5b850160c0818b03601f190112156115d0575f5ffd5b6115d8611181565b60208281013582526040808401359183019190915260608301359082015260808201356001600160401b0381111561160e575f5ffd5b61161d8c60208386010161133d565b60608301525060a08201356001600160401b0381111561163b575f5ffd5b61164a8c6020838601016114b7565b60808301525060c08201356001600160401b03811115611668575f5ffd5b6116778c6020838601016114b7565b60a0830152508452506020928301920161159e565b5f6020828403121561169c575f5ffd5b81356116a7816111f5565b9392505050565b5f5b838110156116c85781810151838201526020016116b0565b50505f910152565b5f81518084526116e78160208601602086016116ae565b601f01601f19169290920160200192915050565b602081525f6116a760208301846116d0565b634e487b7160e01b5f52603260045260245ffd5b634e487b7160e01b5f52601160045260245ffd5b8082018082111561174857611748611721565b92915050565b60ff8616815261ffff8516602082015261ffff8416604082015261ffff8316606082015260a060808201525f61178760a08301846116d0565b979650505050505050565b6001600160a01b0393909316835260ff9190911660208301521515604082015260600190565b805161ffff8116811461121c575f5ffd5b5f60608284031280156117da575f5ffd5b50604051606081016001600160401b03811182821017156117fd576117fd611123565b604052611809836117b8565b8152611817602084016117b8565b6020820152611828604084016117b8565b60408201529392505050565b8181038181111561174857611748611721565b61ffff828116828216039081111561174857611748611721565b5f60208284031215611871575f5ffd5b81516001600160401b03811115611886575f5ffd5b8201601f81018413611896575f5ffd5b80516118a461127482611317565b8181528560208385010111156118b8575f5ffd5b6118c98260208301602086016116ae565b95945050505050565b5f60ff821660ff81036118e7576118e7611721565b6001019291505056fea164736f6c634300081b000a6109c3610034600b8282823980515f1a607314602857634e487b7160e01b5f525f60045260245ffd5b305f52607381538281f3fe7300000000000000000000000000000000000000003014608060405260043610610034575f3560e01c8063a2a31dc614610038575b5f5ffd5b818015610043575f5ffd5b50610057610052366004610803565b610059565b005b80515f036100ae5760405162461bcd60e51b815260206004820152601c60248201527f41545f4c454153545f4f4e455f5550444154455f52455155495245440000000060448201526064015b60405180910390fd5b6100d46100c1604084016020850161091f565b6100ce602085018561091f565b836100d8565b5050565b5f5b8151811015610702576100ef602a5f19610941565b82828151811061010157610101610960565b602002602001015160200151146101c457836001600160a01b031663682cf26483838151811061013357610133610960565b60200260200101515f015161016485858151811061015357610153610960565b602002602001015160200151610708565b6040516001600160e01b031960e085901b1681526001600160a01b039092166004830152151560248201526044015f604051808303815f87803b1580156101a9575f5ffd5b505af11580156101bb573d5f5f3e3d5ffd5b505050506102c9565b5f610297846001600160a01b031663c44b11f78585815181106101e9576101e9610960565b6020908102919091010151516040516001600160e01b031960e084901b1681526001600160a01b039091166004820152602401602060405180830381865afa158015610237573d5f5f3e3d5ffd5b505050506040513d601f19601f8201168201806040525081019061025b9190610974565b51670100000000000000811615159167020000000000000082161515916704000000000000008116151591671000000000000000909116151590565b50925050506102a581610769565b8383815181106102b7576102b7610960565b60200260200101516020018181525050505b6102d5602a5f19610941565b8282815181106102e7576102e7610960565b602002602001015160600151146103a657836001600160a01b03166338ae0cc383838151811061031957610319610960565b60200260200101515f015161034a85858151811061033957610339610960565b602002602001015160600151610708565b6040516001600160e01b031960e085901b1681526001600160a01b039092166004830152151560248201526044015f604051808303815f87803b15801561038f575f5ffd5b505af11580156103a1573d5f5f3e3d5ffd5b505050505b6103b2602a5f19610941565b8282815181106103c4576103c4610960565b6020026020010151608001511461048357836001600160a01b031663a7fa83b78383815181106103f6576103f6610960565b60200260200101515f015161042785858151811061041657610416610960565b602002602001015160800151610708565b6040516001600160e01b031960e085901b1681526001600160a01b039092166004830152151560248201526044015f604051808303815f87803b15801561046c575f5ffd5b505af115801561047e573d5f5f3e3d5ffd5b505050505b5f82828151811061049657610496610960565b602002602001015160a001511180156104ce57506127108282815181106104bf576104bf610960565b602002602001015160a0015111155b8061050057506104e0602a5f19610941565b8282815181106104f2576104f2610960565b602002602001015160a00151145b6105455760405162461bcd60e51b815260206004820152601660248201527524a72b20a624a22fa922a9a2a92b22afa320a1aa27a960511b60448201526064016100a5565b610551602a5f19610941565b82828151811061056357610563610960565b602002602001015160a001511461061d57836001600160a01b0316634b4e675383838151811061059557610595610960565b60200260200101515f01518484815181106105b2576105b2610960565b602002602001015160a001516040518363ffffffff1660e01b81526004016105ef9291906001600160a01b03929092168252602082015260400190565b5f604051808303815f87803b158015610606575f5ffd5b505af1158015610618573d5f5f3e3d5ffd5b505050505b610629602a5f19610941565b82828151811061063b5761063b610960565b602002602001015160400151146106fa57836001600160a01b031663f213ef0e83838151811061066d5761066d610960565b60200260200101515f015161069e85858151811061068d5761068d610960565b602002602001015160400151610708565b6040516001600160e01b031960e085901b1681526001600160a01b039092166004830152151560248201526044015f604051808303815f87803b1580156106e3575f5ffd5b505af11580156106f5573d5f5f3e3d5ffd5b505050505b6001016100da565b50505050565b5f8115806107165750816001145b6107625760405162461bcd60e51b815260206004820152601a60248201527f494e56414c49445f434f4e56455253494f4e5f544f5f424f4f4c00000000000060448201526064016100a5565b5060011490565b5f81610775575f610778565b60015b92915050565b634e487b7160e01b5f52604160045260245ffd5b60405160c0810167ffffffffffffffff811182821017156107b5576107b561077e565b60405290565b604051601f8201601f1916810167ffffffffffffffff811182821017156107e4576107e461077e565b604052919050565b6001600160a01b0381168114610800575f5ffd5b50565b5f5f82840360e0811215610815575f5ffd5b60c0811215610822575f5ffd5b5082915060c083013567ffffffffffffffff81111561083f575f5ffd5b8301601f8101851361084f575f5ffd5b803567ffffffffffffffff8111156108695761086961077e565b61087860208260051b016107bb565b80828252602082019150602060c08402850101925087831115610899575f5ffd5b6020840193505b828410156109115760c084890312156108b7575f5ffd5b6108bf610792565b84356108ca816107ec565b81526020858101358183015260408087013590830152606080870135908301526080808701359083015260a0808701359083015290835260c09094019391909101906108a0565b809450505050509250929050565b5f6020828403121561092f575f5ffd5b813561093a816107ec565b9392505050565b8181038181111561077857634e487b7160e01b5f52601160045260245ffd5b634e487b7160e01b5f52603260045260245ffd5b5f6020828403128015610985575f5ffd5b506040516020810167ffffffffffffffff811182821017156109a9576109a961077e565b604052915182525091905056fea164736f6c634300081b000a610a90610034600b8282823980515f1a607314602857634e487b7160e01b5f525f60045260245ffd5b305f52607381538281f3fe7300000000000000000000000000000000000000003014608060405260043610610034575f3560e01c80630c11411414610038575b5f5ffd5b818015610043575f5ffd5b50610057610052366004610898565b610059565b005b80515f036100ae5760405162461bcd60e51b815260206004820152601c60248201527f41545f4c454153545f4f4e455f5550444154455f52455155495245440000000060448201526064015b60405180910390fd5b6100d46100c160408401602085016109b4565b6100ce60208501856109b4565b836100d8565b5050565b5f5b81518110156107e9578181815181106100f5576100f56109d6565b6020026020010151604001515f146107e1575f610114602a5f196109fe565b838381518110610126576101266109d6565b6020026020010151602001511415806101675750610146602a5f196109fe565b838381518110610158576101586109d6565b60200260200101516040015114155b8061019a5750610179602a5f196109fe565b83838151811061018b5761018b6109d6565b60200260200101516060015114155b90505f6101a9602a5f196109fe565b8484815181106101bb576101bb6109d6565b60200260200101516020015114806101fa57506101da602a5f196109fe565b8484815181106101ec576101ec6109d6565b602002602001015160400151145b8061022c575061020c602a5f196109fe565b84848151811061021e5761021e6109d6565b602002602001015160600151145b90508180156102385750805b15610418575f856001600160a01b031663c44b11f786868151811061025f5761025f6109d6565b6020908102919091010151516040516001600160e01b031960e084901b1681526001600160a01b039091166004820152602401602060405180830381865afa1580156102ad573d5f5f3e3d5ffd5b505050506040513d601f19601f820116820180604052508101906102d19190610a17565b90505f5f5f610305845161ffff80821692601083901c821692602081901c831692603082901c60ff169260409290921c1690565b5050925092509250602a5f1961031b91906109fe565b88888151811061032d5761032d6109d6565b602002602001015160200151036103625782888881518110610351576103516109d6565b602002602001015160200181815250505b61036e602a5f196109fe565b888881518110610380576103806109d6565b602002602001015160400151036103b557818888815181106103a4576103a46109d6565b602002602001015160400181815250505b6103c1602a5f196109fe565b8888815181106103d3576103d36109d6565b60200260200101516060015103610413576103f0612710826109fe565b888881518110610402576104026109d6565b602002602001015160600181815250505b505050505b81156105b95761271061047b858581518110610436576104366109d6565b60200260200101516060015161271061044f9190610a59565b868681518110610461576104616109d6565b6020026020010151604001516107ef90919063ffffffff16565b11156104bf5760405162461bcd60e51b8152602060048201526013602482015272494e56414c49445f4c545f4c425f524154494f60681b60448201526064016100a5565b856001600160a01b0316637c4e560b8585815181106104e0576104e06109d6565b60200260200101515f01518686815181106104fd576104fd6109d6565b60200260200101516020015187878151811061051b5761051b6109d6565b602002602001015160400151888881518110610539576105396109d6565b6020026020010151606001516127106105529190610a59565b6040516001600160e01b031960e087901b1681526001600160a01b0390941660048501526024840192909252604483015260648201526084015f604051808303815f87803b1580156105a2575f5ffd5b505af11580156105b4573d5f5f3e3d5ffd5b505050505b6105c5602a5f196109fe565b8484815181106105d7576105d76109d6565b602002602001015160a00151146106ff576127108484815181106105fd576105fd6109d6565b602002602001015160a00151106106565760405162461bcd60e51b815260206004820152601860248201527f494e56414c49445f4c49515f50524f544f434f4c5f464545000000000000000060448201526064016100a5565b856001600160a01b03166326d2cec2858581518110610677576106776109d6565b60200260200101515f0151868681518110610694576106946109d6565b602002602001015160a001516040518363ffffffff1660e01b81526004016106d19291906001600160a01b03929092168252602082015260400190565b5f604051808303815f87803b1580156106e8575f5ffd5b505af11580156106fa573d5f5f3e3d5ffd5b505050505b61070b602a5f196109fe565b84848151811061071d5761071d6109d6565b602002602001015160800151146107de57856001600160a01b031663aeb4fcc185858151811061074f5761074f6109d6565b60200260200101515f015186868151811061076c5761076c6109d6565b60200260200101516080015160646107849190610a6c565b6040516001600160e01b031960e085901b1681526001600160a01b03909216600483015260248201526044015f604051808303815f87803b1580156107c7575f5ffd5b505af11580156107d9573d5f5f3e3d5ffd5b505050505b50505b6001016100da565b50505050565b5f81156113881983900484111517610805575f5ffd5b506127109102611388010490565b634e487b7160e01b5f52604160045260245ffd5b60405160c0810167ffffffffffffffff8111828210171561084a5761084a610813565b60405290565b604051601f8201601f1916810167ffffffffffffffff8111828210171561087957610879610813565b604052919050565b6001600160a01b0381168114610895575f5ffd5b50565b5f5f82840360e08112156108aa575f5ffd5b60c08112156108b7575f5ffd5b5082915060c083013567ffffffffffffffff8111156108d4575f5ffd5b8301601f810185136108e4575f5ffd5b803567ffffffffffffffff8111156108fe576108fe610813565b61090d60208260051b01610850565b80828252602082019150602060c0840285010192508783111561092e575f5ffd5b6020840193505b828410156109a65760c0848903121561094c575f5ffd5b610954610827565b843561095f81610881565b81526020858101358183015260408087013590830152606080870135908301526080808701359083015260a0808701359083015290835260c0909401939190910190610935565b809450505050509250929050565b5f602082840312156109c4575f5ffd5b81356109cf81610881565b9392505050565b634e487b7160e01b5f52603260045260245ffd5b634e487b7160e01b5f52601160045260245ffd5b81810381811115610a1157610a116109ea565b92915050565b5f6020828403128015610a28575f5ffd5b506040516020810167ffffffffffffffff81118282101715610a4c57610a4c610813565b6040529151825250919050565b80820180821115610a1157610a116109ea565b8082028115828204841417610a1157610a116109ea56fea164736f6c634300081b000a610608610034600b8282823980515f1a607314602857634e487b7160e01b5f525f60045260245ffd5b305f52607381538281f3fe7300000000000000000000000000000000000000003014608060405260043610610034575f3560e01c8063f328645d14610038575b5f5ffd5b818015610043575f5ffd5b5061005761005236600461043d565b610059565b005b80515f036100ae5760405162461bcd60e51b815260206004820152601c60248201527f41545f4c454153545f4f4e455f5550444154455f52455155495245440000000060448201526064015b60405180910390fd5b6100c76100c1606084016040850161053e565b826100cb565b5050565b5f815167ffffffffffffffff8111156100e6576100e66103b8565b60405190808252806020026020018201604052801561010f578160200160208202803683370190505b5090505f825167ffffffffffffffff81111561012d5761012d6103b8565b604051908082528060200260200182016040528015610156578160200160208202803683370190505b5090505f5b8351811015610356575f6001600160a01b031684828151811061018057610180610560565b6020026020010151602001516001600160a01b0316036101e25760405162461bcd60e51b815260206004820152601a60248201527f50524943455f464545445f414c574159535f524551554952454400000000000060448201526064016100a5565b5f8482815181106101f5576101f5610560565b6020026020010151602001516001600160a01b03166350d25bcd6040518163ffffffff1660e01b8152600401602060405180830381865afa15801561023c573d5f5f3e3d5ffd5b505050506040513d601f19601f820116820180604052508101906102609190610574565b136102b75760405162461bcd60e51b815260206004820152602160248201527f464545445f53484f554c445f52455455524e5f504f5349544956455f505249436044820152604560f81b60648201526084016100a5565b8381815181106102c9576102c9610560565b60200260200101515f01518382815181106102e6576102e6610560565b60200260200101906001600160a01b031690816001600160a01b03168152505083818151811061031857610318610560565b60200260200101516020015182828151811061033657610336610560565b6001600160a01b039092166020928302919091019091015260010161015b565b50604051630abfd53160e41b81526001600160a01b0385169063abfd53109061038590859085906004016105ce565b5f604051808303815f87803b15801561039c575f5ffd5b505af11580156103ae573d5f5f3e3d5ffd5b5050505050505050565b634e487b7160e01b5f52604160045260245ffd5b6040805190810167ffffffffffffffff811182821017156103ef576103ef6103b8565b60405290565b604051601f8201601f1916810167ffffffffffffffff8111828210171561041e5761041e6103b8565b604052919050565b6001600160a01b038116811461043a575f5ffd5b50565b5f5f82840360e081121561044f575f5ffd5b60c081121561045c575f5ffd5b5082915060c083013567ffffffffffffffff811115610479575f5ffd5b8301601f81018513610489575f5ffd5b803567ffffffffffffffff8111156104a3576104a36103b8565b6104b260208260051b016103f5565b8082825260208201915060208360061b8501019250878311156104d3575f5ffd5b6020840193505b8284101561053057604084890312156104f1575f5ffd5b6104f96103cc565b843561050481610426565b8152602085013561051481610426565b80602083015250808352506020820191506040840193506104da565b809450505050509250929050565b5f6020828403121561054e575f5ffd5b813561055981610426565b9392505050565b634e487b7160e01b5f52603260045260245ffd5b5f60208284031215610584575f5ffd5b5051919050565b5f8151808452602084019350602083015f5b828110156105c45781516001600160a01b031686526020958601959091019060010161059d565b5093949350505050565b604081525f6105e0604083018561058b565b82810360208401526105f2818561058b565b9594505050505056fea164736f6c634300081b000a6108b3610034600b8282823980515f1a607314602857634e487b7160e01b5f525f60045260245ffd5b305f52607381538281f3fe7300000000000000000000000000000000000000003014608060405260043610610034575f3560e01c806305c19f9214610038575b5f5ffd5b818015610043575f5ffd5b5061005761005236600461063e565b610059565b005b80515f036100ae5760405162461bcd60e51b815260206004820152601c60248201527f41545f4c454153545f4f4e455f5550444154455f52455155495245440000000060448201526064015b60405180910390fd5b5f5f6100b9836100ee565b90925090506100e86100d160c0860160a08701610772565b6100e16040870160208801610772565b8484610256565b50505050565b6060805f835167ffffffffffffffff81111561010c5761010c610596565b604051908082528060200260200182016040528015610135578160200160208202803683370190505b5090505f845167ffffffffffffffff81111561015357610153610596565b6040519080825280602002602001820160405280156101ab57816020015b61019860405180608001604052805f81526020015f81526020015f81526020015f81525090565b8152602001906001900390816101715790505b5090505f5b855181101561024b578581815181106101cb576101cb610794565b60200260200101515f01518382815181106101e8576101e8610794565b60200260200101906001600160a01b031690816001600160a01b03168152505085818151811061021a5761021a610794565b60200260200101516020015182828151811061023857610238610794565b60209081029190910101526001016101b0565b509094909350915050565b5f5b815181101561052d575f83828151811061027457610274610794565b602002602001015190505f83838151811061029157610291610794565b602002602001015190505f602a5f196102aa91906107a8565b825114806102c657506102bf602a5f196107a8565b8260200151145b806102df57506102d8602a5f196107a8565b8260400151145b806102f857506102f1602a5f196107a8565b8260600151145b90508015610400576040516363ce721760e11b81526001600160a01b0384811660048301525f91908a169063c79ce42e90602401608060405180830381865afa158015610347573d5f5f3e3d5ffd5b505050506040513d601f19601f8201168201806040525081019061036b91906107e5565b9050610379602a5f196107a8565b8360400151036103945760408082015163ffffffff16908401525b6103a0602a5f196107a8565b8360600151036103bb5760608082015163ffffffff16908401525b6103c7602a5f196107a8565b8351036103d757805161ffff1683525b6103e3602a5f196107a8565b8360200151036103fe5760208082015163ffffffff16908401525b505b866001600160a01b0316636aabe21d846040518060800160405280610427875f0151610534565b61ffff16815260200161043d8760200151610566565b63ffffffff1681526020016104558760400151610566565b63ffffffff16815260200161046d8760600151610566565b63ffffffff1690526040516104c591906020015f60808201905061ffff835116825263ffffffff602084015116602083015263ffffffff604084015116604083015263ffffffff606084015116606083015292915050565b6040516020818303038152906040526040518363ffffffff1660e01b81526004016104f192919061084c565b5f604051808303815f87803b158015610508575f5ffd5b505af115801561051a573d5f5f3e3d5ffd5b5050600190950194506102589350505050565b5050505050565b5f61ffff821115610562576040516306dfcc6560e41b815260106004820152602481018390526044016100a5565b5090565b5f63ffffffff821115610562576040516306dfcc6560e41b815260206004820152602481018390526044016100a5565b634e487b7160e01b5f52604160045260245ffd5b6040805190810167ffffffffffffffff811182821017156105cd576105cd610596565b60405290565b6040516080810167ffffffffffffffff811182821017156105cd576105cd610596565b604051601f8201601f1916810167ffffffffffffffff8111828210171561061f5761061f610596565b604052919050565b6001600160a01b038116811461063b575f5ffd5b50565b5f5f82840360e0811215610650575f5ffd5b60c081121561065d575f5ffd5b5082915060c083013567ffffffffffffffff81111561067a575f5ffd5b8301601f8101851361068a575f5ffd5b803567ffffffffffffffff8111156106a4576106a4610596565b6106b360208260051b016105f6565b80828252602082019150602060a084028501019250878311156106d4575f5ffd5b6020840193505b828410156107645783880360a08112156106f3575f5ffd5b6106fb6105aa565b853561070681610627565b81526080601f1983011215610719575f5ffd5b6107216105d3565b6020878101358252604080890135828401526060808a0135918401919091526080890135908301528281019190915290845260a0909501949290920191506106db565b809450505050509250929050565b5f60208284031215610782575f5ffd5b813561078d81610627565b9392505050565b634e487b7160e01b5f52603260045260245ffd5b818103818111156107c757634e487b7160e01b5f52601160045260245ffd5b92915050565b805163ffffffff811681146107e0575f5ffd5b919050565b5f60808284031280156107f6575f5ffd5b506107ff6105d3565b825161ffff81168114610810575f5ffd5b815261081e602084016107cd565b602082015261082f604084016107cd565b6040820152610840606084016107cd565b60608201529392505050565b60018060a01b0383168152604060208201525f82518060408401525f5b818110156108865760208186018101516060868401015201610869565b505f606082850101526060601f19601f830116840101915050939250505056fea164736f6c634300081b000a61047d610034600b8282823980515f1a607314602857634e487b7160e01b5f525f60045260245ffd5b305f52607381538281f3fe7300000000000000000000000000000000000000003014608060405260043610610034575f3560e01c80633c2d400f14610038575b5f5ffd5b818015610043575f5ffd5b50610057610052366004610317565b610059565b005b80515f036100ad5760405162461bcd60e51b815260206004820152601c60248201527f41545f4c454153545f4f4e455f5550444154455f524551554952454400000000604482015260640160405180910390fd5b6100c66100c06040840160208501610415565b826100ca565b5050565b5f5b815181101561028d576100e1602a5f19610437565b8282815181106100f3576100f361045c565b602002602001015160200151146101ad57826001600160a01b031663571f03e58383815181106101255761012561045c565b60200260200101515f01518484815181106101425761014261045c565b6020026020010151602001516040518363ffffffff1660e01b815260040161017f9291906001600160a01b03929092168252602082015260400190565b5f604051808303815f87803b158015610196575f5ffd5b505af11580156101a8573d5f5f3e3d5ffd5b505050505b6101b9602a5f19610437565b8282815181106101cb576101cb61045c565b6020026020010151604001511461028557826001600160a01b031663d14a09838383815181106101fd576101fd61045c565b60200260200101515f015184848151811061021a5761021a61045c565b6020026020010151604001516040518363ffffffff1660e01b81526004016102579291906001600160a01b03929092168252602082015260400190565b5f604051808303815f87803b15801561026e575f5ffd5b505af1158015610280573d5f5f3e3d5ffd5b505050505b6001016100cc565b505050565b634e487b7160e01b5f52604160045260245ffd5b6040516060810167ffffffffffffffff811182821017156102c9576102c9610292565b60405290565b604051601f8201601f1916810167ffffffffffffffff811182821017156102f8576102f8610292565b604052919050565b6001600160a01b0381168114610314575f5ffd5b50565b5f5f82840360e0811215610329575f5ffd5b60c0811215610336575f5ffd5b5082915060c083013567ffffffffffffffff811115610353575f5ffd5b8301601f81018513610363575f5ffd5b803567ffffffffffffffff81111561037d5761037d610292565b61038c60208260051b016102cf565b808282526020820191506020606084028501019250878311156103ad575f5ffd5b6020840193505b8284101561040757606084890312156103cb575f5ffd5b6103d36102a6565b84356103de81610300565b8152602085810135818301526040808701359083015290835260609094019391909101906103b4565b809450505050509250929050565b5f60208284031215610425575f5ffd5b813561043081610300565b9392505050565b8181038181111561045657634e487b7160e01b5f52601160045260245ffd5b92915050565b634e487b7160e01b5f52603260045260245ffdfea164736f6c634300081b000a610260604052348015610010575f5ffd5b506040516124d23803806124d283398101604081905261002f916103e7565b81516001600160a01b031615801590610054575060208201516001600160a01b031615155b801561006c575060408201516001600160a01b031615155b8015610084575060608201516001600160a01b031615155b801561009c575060808201516001600160a01b031615155b80156100b4575060a08201516001600160a01b031615155b6101055760405162461bcd60e51b815260206004820152601d60248201527f4f4e4c595f4e4f4e5a45524f5f454e47494e455f434f4e5354414e545300000060448201526064015b60405180910390fd5b6001600160a01b0384161580159061012557506001600160a01b03831615155b6101715760405162461bcd60e51b815260206004820152601860248201527f4f4e4c595f4e4f4e5a45524f5f544f4b454e5f494d504c53000000000000000060448201526064016100fc565b60408101516001600160a01b031615801590610199575060c08101516001600160a01b031615155b80156101ae575080516001600160a01b031615155b80156101c6575060808101516001600160a01b031615155b80156101de575060a08101516001600160a01b031615155b61022a5760405162461bcd60e51b815260206004820152601d60248201527f4f4e4c595f4e4f4e5a45524f5f454e47494e455f4c494252415249455300000060448201526064016100fc565b6001600160a01b0393841660e05291831661010052805183166080908152602080830151851660a0908152604080850151871660c090815260608087015189166101205285870151891661014052958301518816610160529086015187166101805285015186166101a0529284015185166101c05283015184166101e0528251841661020052820151831661022052015116610240526104be565b6001600160a01b03811681146102d9575f5ffd5b50565b80516102e7816102c5565b919050565b60405160e081016001600160401b038111828210171561031a57634e487b7160e01b5f52604160045260245ffd5b60405290565b60405160c081016001600160401b038111828210171561031a57634e487b7160e01b5f52604160045260245ffd5b5f60e0828403121561035e575f5ffd5b6103666102ec565b90508151610373816102c5565b81526020820151610383816102c5565b60208201526040820151610396816102c5565b604082015260608201516103a9816102c5565b60608201526103ba608083016102dc565b60808201526103cb60a083016102dc565b60a08201526103dc60c083016102dc565b60c082015292915050565b5f5f5f5f8486036101e08112156103fc575f5ffd5b8551610407816102c5565b6020870151909550610418816102c5565b935060c0603f198201121561042b575f5ffd5b50610434610320565b6040860151610442816102c5565b81526060860151610452816102c5565b60208201526080860151610465816102c5565b604082015260a0860151610478816102c5565b606082015260c086015161048b816102c5565b608082015260e086015161049e816102c5565b60a082015291506104b386610100870161034e565b905092959194509250565b60805160a05160c05160e05161010051610120516101405161016051610180516101a0516101c0516101e051610200516102205161024051611ed96105f95f395f81816104130152818161066b0152610b2001525f81816104740152818161063c0152610a9701525f81816101ce01528181610580015261071a01525f818161022e015281816105af01526107a301525f81816102dd015281816104f9015261060d01525f81816101760152818161069a0152610a0e01525f818161043a015281816105de0152610ba901525f81816103510152610cf801525f81816102b60152610cc901525f81816103c50152610c9a01525f818161025501526108f601525f81816103ec01526108c701525f818161027c0152610c6b01525f818161032a0152610c3c01525f81816103780152610c0d0152611ed95ff3fe608060405234801561000f575f5ffd5b506004361061016d575f3560e01c80634ee1151a116100d9578063b79421eb11610093578063e36b91ab1161006e578063e36b91ab1461040e578063f1288cbb14610435578063f1c2652c1461045c578063fafeb5741461046f575f5ffd5b8063b79421eb146103ad578063cd086d45146103c0578063d99ec884146103e7575f5ffd5b80634ee1151a146102ff57806355caa1631461031257806358725084146103255780636714ddd51461034c5780637535d24614610373578063927c40031461039a575f5ffd5b8063241554091161012a57806324155409146102295780633368555c1461025057806338013f02146102775780633b2ba2d41461029e5780633cbadf78146102b15780633d5030a3146102d8575f5ffd5b80630804799f1461017157806309d83328146101b45780630a4aa3fa146101c957806311577d8d146101f057806312146c70146102035780631672741214610216575b5f5ffd5b6101987f000000000000000000000000000000000000000000000000000000000000000081565b6040516001600160a01b03909116815260200160405180910390f35b6101c76101c2366004610f59565b610496565b005b6101987f000000000000000000000000000000000000000000000000000000000000000081565b6101c76101fe366004611236565b610524565b6101c76102113660046113a9565b610740565b6101c7610224366004611458565b6107c9565b6101987f000000000000000000000000000000000000000000000000000000000000000081565b6101987f000000000000000000000000000000000000000000000000000000000000000081565b6101987f000000000000000000000000000000000000000000000000000000000000000081565b6101c76102ac3660046114bf565b61095a565b6101987f000000000000000000000000000000000000000000000000000000000000000081565b6101987f000000000000000000000000000000000000000000000000000000000000000081565b6101c761030d3660046114bf565b610984565b6101c76103203660046114f1565b6109ab565b6101987f000000000000000000000000000000000000000000000000000000000000000081565b6101987f000000000000000000000000000000000000000000000000000000000000000081565b6101987f000000000000000000000000000000000000000000000000000000000000000081565b6101c76103a8366004611550565b610a34565b6101c76103bb3660046115af565b610abd565b6101987f000000000000000000000000000000000000000000000000000000000000000081565b6101987f000000000000000000000000000000000000000000000000000000000000000081565b6101987f000000000000000000000000000000000000000000000000000000000000000081565b6101987f000000000000000000000000000000000000000000000000000000000000000081565b6101c761046a366004610f59565b610b46565b6101987f000000000000000000000000000000000000000000000000000000000000000081565b61051f630304504560e21b6104a9610bcf565b84846040516024016104bd939291906116a0565b60408051601f198184030181529190526020810180516001600160e01b03166001600160e01b0319909316929092179091526001600160a01b037f00000000000000000000000000000000000000000000000000000000000000001690610d28565b505050565b61051f63b668509b60e01b83610538610bcf565b6106ca6040805160e0810182525f80825260208201819052918101829052606081018290526080810182905260a0810182905260c08101919091526040518060e001604052807f00000000000000000000000000000000000000000000000000000000000000006001600160a01b031681526020017f00000000000000000000000000000000000000000000000000000000000000006001600160a01b031681526020017f00000000000000000000000000000000000000000000000000000000000000006001600160a01b031681526020017f00000000000000000000000000000000000000000000000000000000000000006001600160a01b031681526020017f00000000000000000000000000000000000000000000000000000000000000006001600160a01b031681526020017f00000000000000000000000000000000000000000000000000000000000000006001600160a01b031681526020017f00000000000000000000000000000000000000000000000000000000000000006001600160a01b0316815250905090565b856040516024016106de949392919061192b565b60408051601f198184030181529190526020810180516001600160e01b03166001600160e01b0319909316929092179091526001600160a01b037f00000000000000000000000000000000000000000000000000000000000000001690610d28565b61051f63930b9fc960e01b610753610bcf565b848460405160240161076793929190611a2f565b60408051601f198184030181529190526020810180516001600160e01b03166001600160e01b0319909316929092179091526001600160a01b037f00000000000000000000000000000000000000000000000000000000000000001690610d28565b5f81900361081e5760405162461bcd60e51b815260206004820152601b60248201527f41545f4c454153545f4f4e455f41535345545f5245515549524544000000000060448201526064015b60405180910390fd5b5f816001600160401b0381111561083757610837610fad565b60405190808252806020026020018201604052801561087057816020015b61085d610e22565b8152602001906001900390816108555790505b5090505f5b8281101561094957604051806040016040528085858481811061089a5761089a611aa6565b90506020028101906108ac9190611aba565b6108b590611ad9565b815260200160405180604001604052807f00000000000000000000000000000000000000000000000000000000000000006001600160a01b031681526020017f00000000000000000000000000000000000000000000000000000000000000006001600160a01b031681525081525082828151811061093657610936611aa6565b6020908102919091010152600101610875565b506109548482610524565b50505050565b61051f600162c2eadb60e01b0319610970610bcf565b848460405160240161076793929190611b74565b61051f634b333daf60e11b610997610bcf565b848460405160240161076793929190611c74565b61051f633c2d400f60e01b6109be610bcf565b84846040516024016109d293929190611d32565b60408051601f198184030181529190526020810180516001600160e01b03166001600160e01b0319909316929092179091526001600160a01b037f00000000000000000000000000000000000000000000000000000000000000001690610d28565b61051f63f328645d60e01b610a47610bcf565b8484604051602401610a5b93929190611d95565b60408051601f198184030181529190526020810180516001600160e01b03166001600160e01b0319909316929092179091526001600160a01b037f00000000000000000000000000000000000000000000000000000000000000001690610d28565b61051f6302e0cfc960e11b610ad0610bcf565b8484604051602401610ae493929190611dfe565b60408051601f198184030181529190526020810180516001600160e01b03166001600160e01b0319909316929092179091526001600160a01b037f00000000000000000000000000000000000000000000000000000000000000001690610d28565b61051f6351518ee360e11b610b59610bcf565b8484604051602401610b6d93929190611e75565b60408051601f198184030181529190526020810180516001600160e01b03166001600160e01b0319909316929092179091526001600160a01b037f00000000000000000000000000000000000000000000000000000000000000001690610d28565b6040805160c0810182525f80825260208201819052918101829052606081018290526080810182905260a08101919091526040518060c001604052807f00000000000000000000000000000000000000000000000000000000000000006001600160a01b031681526020017f00000000000000000000000000000000000000000000000000000000000000006001600160a01b031681526020017f00000000000000000000000000000000000000000000000000000000000000006001600160a01b031681526020017f00000000000000000000000000000000000000000000000000000000000000006001600160a01b031681526020017f00000000000000000000000000000000000000000000000000000000000000006001600160a01b031681526020017f00000000000000000000000000000000000000000000000000000000000000006001600160a01b0316815250905090565b60605f5f846001600160a01b031684604051610d449190611ebb565b5f60405180830381855af49150503d805f8114610d7c576040519150601f19603f3d011682016040523d82523d5f602084013e610d81565b606091505b5091509150610d91858383610d9a565b95945050505050565b606082610daf57610daa82610df9565b610df2565b8151158015610dc657506001600160a01b0384163b155b15610def57604051639996b31560e01b81526001600160a01b0385166004820152602401610815565b50805b9392505050565b805115610e095780518082602001fd5b60405163d6bda27560e01b815260040160405180910390fd5b6040518060400160405280610e35610e6c565b8152602001610e6760405180604001604052805f6001600160a01b031681526020015f6001600160a01b031681525090565b905290565b6040518061020001604052805f6001600160a01b03168152602001606081526020015f6001600160a01b03168152602001610ec460405180608001604052805f81526020015f81526020015f81526020015f81525090565b81526020015f81526020015f81526020015f81526020015f81526020015f81526020015f81526020015f81526020015f81526020015f81526020015f81526020015f81526020015f81525090565b5f5f83601f840112610f22575f5ffd5b5081356001600160401b03811115610f38575f5ffd5b60208301915083602060c083028501011115610f52575f5ffd5b9250929050565b5f5f60208385031215610f6a575f5ffd5b82356001600160401b03811115610f7f575f5ffd5b610f8b85828601610f12565b90969095509350505050565b5f60408284031215610fa7575f5ffd5b50919050565b634e487b7160e01b5f52604160045260245ffd5b60405161020081016001600160401b0381118282101715610fe457610fe4610fad565b60405290565b604080519081016001600160401b0381118282101715610fe457610fe4610fad565b604051601f8201601f191681016001600160401b038111828210171561103457611034610fad565b604052919050565b80356001600160a01b0381168114611052575f5ffd5b919050565b5f82601f830112611066575f5ffd5b81356001600160401b0381111561107f5761107f610fad565b611092601f8201601f191660200161100c565b8181528460208386010111156110a6575f5ffd5b816020850160208301375f918101602001919091529392505050565b5f608082840312156110d2575f5ffd5b604051608081016001600160401b03811182821017156110f4576110f4610fad565b6040908152833582526020808501359083015283810135908201526060928301359281019290925250919050565b5f6102608284031215611133575f5ffd5b61113b610fc1565b90506111468261103c565b815260208201356001600160401b03811115611160575f5ffd5b61116c84828501611057565b60208301525061117e6040830161103c565b604082015261119083606084016110c2565b606082015260e08281013560808301526101008084013560a08401526101208085013560c08501526101408086013593850193909352610160808601359285019290925261018080860135918501919091526101a080860135938501939093526101c080860135928501929092526101e0808601359185019190915261020085013592840192909252610220840135908301526102409092013591810191909152919050565b5f5f60408385031215611247575f5ffd5b82356001600160401b0381111561125c575f5ffd5b61126885828601610f97565b92505060208301356001600160401b03811115611283575f5ffd5b8301601f81018513611293575f5ffd5b80356001600160401b038111156112ac576112ac610fad565b8060051b6112bc6020820161100c565b918252602081840181019290810190888411156112d7575f5ffd5b6020850192505b8383101561139a5782356001600160401b038111156112fb575f5ffd5b8501808a03601f19016060811215611311575f5ffd5b611319610fea565b60208301356001600160401b03811115611331575f5ffd5b6113408d602083870101611122565b8252506040601f1983011215611354575f5ffd5b61135c610fea565b915061136a6040840161103c565b82526113786060840161103c565b60208301528160208201528085525050506020820191506020830192506112de565b80955050505050509250929050565b5f5f602083850312156113ba575f5ffd5b82356001600160401b038111156113cf575f5ffd5b8301601f810185136113df575f5ffd5b80356001600160401b038111156113f4575f5ffd5b8560208260071b8401011115611408575f5ffd5b6020919091019590945092505050565b5f5f83601f840112611428575f5ffd5b5081356001600160401b0381111561143e575f5ffd5b6020830191508360208260051b8501011115610f52575f5ffd5b5f5f5f6040848603121561146a575f5ffd5b83356001600160401b0381111561147f575f5ffd5b61148b86828701610f97565b93505060208401356001600160401b038111156114a6575f5ffd5b6114b286828701611418565b9497909650939450505050565b5f5f602083850312156114d0575f5ffd5b82356001600160401b038111156114e5575f5ffd5b610f8b85828601611418565b5f5f60208385031215611502575f5ffd5b82356001600160401b03811115611517575f5ffd5b8301601f81018513611527575f5ffd5b80356001600160401b0381111561153c575f5ffd5b856020606083028401011115611408575f5ffd5b5f5f60208385031215611561575f5ffd5b82356001600160401b03811115611576575f5ffd5b8301601f81018513611586575f5ffd5b80356001600160401b0381111561159b575f5ffd5b8560208260061b8401011115611408575f5ffd5b5f5f602083850312156115c0575f5ffd5b82356001600160401b038111156115d5575f5ffd5b8301601f810185136115e5575f5ffd5b80356001600160401b038111156115fa575f5ffd5b85602060a083028401011115611408575f5ffd5b80516001600160a01b03908116835260208083015182169084015260408083015182169084015260608083015182169084015260808083015182169084015260a09182015116910152565b6001600160a01b0361166a8261103c565b1682526020818101359083015260408082013590830152606080820135908301526080808201359083015260a090810135910152565b5f60e082016116af838761160e565b60e060c08401528390528361010083015f5b858110156116e6576116d38284611659565b60c09283019291909101906001016116c1565b509695505050505050565b5f5f8335601e19843603018112611706575f5ffd5b83016020810192503590506001600160401b03811115611724575f5ffd5b803603821315610f52575f5ffd5b81835281816020850137505f828201602090810191909152601f909101601f19169091010190565b5f5b8381101561177457818101518382015260200161175c565b50505f910152565b5f815180845261179381602086016020860161175a565b601f01601f19169290920160200192915050565b5f82825180855260208501945060208160051b830101602085015f5b8381101561191f57848303601f1901885281518051606080865281516001600160a01b031690860152602081015161026060808701526118076102c087018261177c565b9050604082015161182360a08801826001600160a01b03169052565b50606082810151805160c0890152602081015160e089015260408101516101008901529081015161012088015250608082015161014087015260a082015161016087015260c082015161018087015260e08201516101a08701526101008201516101c08701526101208201516101e08701526101408201516102008701526101608201516102208701526101808201516102408701526101a08201516102608701526101c08201516102808701526101e08201516102a087015260208301519250611907602087018480516001600160a01b03908116835260209182015116910152565b60209a8b019a909550939093019250506001016117c3565b50909695505050505050565b6101e081525f61193b86876116f1565b60406101e085015261195261022085018284611732565b91505061196260208801886116f1565b8483036101df190161020086015261197b838284611732565b9250505061198c602084018761160e565b84516001600160a01b0390811660e085015260208601518116610100850152604086015181166101208501526060860151811661014085015260808601511661016084015260a08501516119ec6101808501826001600160a01b03169052565b5060c08501516001600160a01b03166101a08401528281036101c0840152611a1481856117a7565b979650505050505050565b803560ff81168114611052575f5ffd5b5f60e08201611a3e838761160e565b60e060c08401528390528361010083015f5b858110156116e6576001600160a01b03611a698461103c565b16825260ff611a7a60208501611a1f565b166020830152604083810135908301526060808401359083015260809283019290910190600101611a50565b634e487b7160e01b5f52603260045260245ffd5b5f823561025e19833603018112611acf575f5ffd5b9190910192915050565b5f611ae43683611122565b92915050565b5f5f8335601e19843603018112611aff575f5ffd5b83016020810192503590506001600160401b03811115611b1d575f5ffd5b8060051b3603821315610f52575f5ffd5b8183526020830192505f815f5b84811015611b6a576001600160a01b03611b548361103c565b1686526020958601959190910190600101611b3b565b5093949350505050565b5f60e08201611b83838761160e565b60e060c0840152839052610100600584901b83018101908301855f60be1936839003015b87821015611c665786850360ff190184528235818112611bc5575f5ffd5b8901803586526020808201359087015260408082013590870152611bec60608201826116f1565b60c06060890152611c0160c089018284611732565b915050611c116080830183611aea565b88830360808a0152611c24838284611b2e565b92505050611c3560a0830183611aea565b925087820360a0890152611c4a828483611b2e565b9750505050602083019250602084019350600182019150611ba7565b509298975050505050505050565b5f60e08201611c83838761160e565b60e060c0840152839052610100600584901b83018101908301855f609e1936839003015b87821015611c665786850360ff190184528235818112611cc5575f5ffd5b890160ff611cd282611a1f565b168652602081810135908701526040808201359087015260608082013590870152611d0060808201826116f1565b915060a06080880152611d1760a088018383611732565b96505050602083019250602084019350600182019150611ca7565b5f60e08201611d41838761160e565b60e060c08401528390528361010083015f5b858110156116e6576001600160a01b03611d6c8461103c565b168252602083810135908301526040808401359083015260609283019290910190600101611d53565b5f60e08201611da4838761160e565b60e060c08401528390528361010083015f5b858110156116e6576001600160a01b03611dcf8461103c565b1682526001600160a01b03611de66020850161103c565b16602083015260409283019290910190600101611db6565b5f60e08201611e0d838761160e565b60e060c08401528390528361010083015f5b858110156116e6576001600160a01b03611e388461103c565b1682526020838101359083015260408084013590830152606080840135908301526080808401359083015260a09283019290910190600101611e1f565b5f60e08201611e84838761160e565b60e060c08401528390528361010083015f5b858110156116e657611ea88284611659565b60c0928301929190910190600101611e96565b5f8251611acf81846020870161175a56fea164736f6c634300081b000a","linkReferences":{}},"methodIdentifiers":{"getConfigEngineReport()":"fcd8fb88"},"id":313}