{"abi":[{"type":"constructor","inputs":[{"name":"pool","type":"address","internalType":"contract IPool"},{"name":"rewardsController","type":"address","internalType":"address"},{"name":"treasury","type":"address","internalType":"address"}],"stateMutability":"nonpayable"},{"type":"function","name":"ATOKEN_REVISION","inputs":[],"outputs":[{"name":"","type":"uint256","internalType":"uint256"}],"stateMutability":"view"},{"type":"function","name":"DELEGATE_BY_TYPE_TYPEHASH","inputs":[],"outputs":[{"name":"","type":"bytes32","internalType":"bytes32"}],"stateMutability":"view"},{"type":"function","name":"DELEGATE_TYPEHASH","inputs":[],"outputs":[{"name":"","type":"bytes32","internalType":"bytes32"}],"stateMutability":"view"},{"type":"function","name":"DOMAIN_SEPARATOR","inputs":[],"outputs":[{"name":"","type":"bytes32","internalType":"bytes32"}],"stateMutability":"view"},{"type":"function","name":"EIP712_REVISION","inputs":[],"outputs":[{"name":"","type":"bytes","internalType":"bytes"}],"stateMutability":"view"},{"type":"function","name":"PERMIT_TYPEHASH","inputs":[],"outputs":[{"name":"","type":"bytes32","internalType":"bytes32"}],"stateMutability":"view"},{"type":"function","name":"POOL","inputs":[],"outputs":[{"name":"","type":"address","internalType":"contract IPool"}],"stateMutability":"view"},{"type":"function","name":"POWER_SCALE_FACTOR","inputs":[],"outputs":[{"name":"","type":"uint256","internalType":"uint256"}],"stateMutability":"view"},{"type":"function","name":"RESERVE_TREASURY_ADDRESS","inputs":[],"outputs":[{"name":"","type":"address","internalType":"address"}],"stateMutability":"view"},{"type":"function","name":"REWARDS_CONTROLLER","inputs":[],"outputs":[{"name":"","type":"address","internalType":"contract IAaveIncentivesController"}],"stateMutability":"view"},{"type":"function","name":"TREASURY","inputs":[],"outputs":[{"name":"","type":"address","internalType":"address"}],"stateMutability":"view"},{"type":"function","name":"UNDERLYING_ASSET_ADDRESS","inputs":[],"outputs":[{"name":"","type":"address","internalType":"address"}],"stateMutability":"view"},{"type":"function","name":"allowance","inputs":[{"name":"owner","type":"address","internalType":"address"},{"name":"spender","type":"address","internalType":"address"}],"outputs":[{"name":"","type":"uint256","internalType":"uint256"}],"stateMutability":"view"},{"type":"function","name":"approve","inputs":[{"name":"spender","type":"address","internalType":"address"},{"name":"amount","type":"uint256","internalType":"uint256"}],"outputs":[{"name":"","type":"bool","internalType":"bool"}],"stateMutability":"nonpayable"},{"type":"function","name":"balanceOf","inputs":[{"name":"user","type":"address","internalType":"address"}],"outputs":[{"name":"","type":"uint256","internalType":"uint256"}],"stateMutability":"view"},{"type":"function","name":"burn","inputs":[{"name":"from","type":"address","internalType":"address"},{"name":"receiverOfUnderlying","type":"address","internalType":"address"},{"name":"amount","type":"uint256","internalType":"uint256"},{"name":"scaledAmount","type":"uint256","internalType":"uint256"},{"name":"index","type":"uint256","internalType":"uint256"}],"outputs":[{"name":"","type":"bool","internalType":"bool"}],"stateMutability":"nonpayable"},{"type":"function","name":"decimals","inputs":[],"outputs":[{"name":"","type":"uint8","internalType":"uint8"}],"stateMutability":"view"},{"type":"function","name":"decreaseAllowance","inputs":[{"name":"spender","type":"address","internalType":"address"},{"name":"subtractedValue","type":"uint256","internalType":"uint256"}],"outputs":[{"name":"","type":"bool","internalType":"bool"}],"stateMutability":"nonpayable"},{"type":"function","name":"delegate","inputs":[{"name":"delegatee","type":"address","internalType":"address"}],"outputs":[],"stateMutability":"nonpayable"},{"type":"function","name":"delegateByType","inputs":[{"name":"delegatee","type":"address","internalType":"address"},{"name":"delegationType","type":"uint8","internalType":"enum IBaseDelegation.GovernancePowerType"}],"outputs":[],"stateMutability":"nonpayable"},{"type":"function","name":"getDelegateeByType","inputs":[{"name":"delegator","type":"address","internalType":"address"},{"name":"delegationType","type":"uint8","internalType":"enum IBaseDelegation.GovernancePowerType"}],"outputs":[{"name":"","type":"address","internalType":"address"}],"stateMutability":"view"},{"type":"function","name":"getDelegates","inputs":[{"name":"delegator","type":"address","internalType":"address"}],"outputs":[{"name":"","type":"address","internalType":"address"},{"name":"","type":"address","internalType":"address"}],"stateMutability":"view"},{"type":"function","name":"getIncentivesController","inputs":[],"outputs":[{"name":"","type":"address","internalType":"contract IAaveIncentivesController"}],"stateMutability":"view"},{"type":"function","name":"getPowerCurrent","inputs":[{"name":"user","type":"address","internalType":"address"},{"name":"delegationType","type":"uint8","internalType":"enum IBaseDelegation.GovernancePowerType"}],"outputs":[{"name":"","type":"uint256","internalType":"uint256"}],"stateMutability":"view"},{"type":"function","name":"getPowersCurrent","inputs":[{"name":"user","type":"address","internalType":"address"}],"outputs":[{"name":"","type":"uint256","internalType":"uint256"},{"name":"","type":"uint256","internalType":"uint256"}],"stateMutability":"view"},{"type":"function","name":"getPreviousIndex","inputs":[{"name":"user","type":"address","internalType":"address"}],"outputs":[{"name":"","type":"uint256","internalType":"uint256"}],"stateMutability":"view"},{"type":"function","name":"getScaledUserBalanceAndSupply","inputs":[{"name":"user","type":"address","internalType":"address"}],"outputs":[{"name":"","type":"uint256","internalType":"uint256"},{"name":"","type":"uint256","internalType":"uint256"}],"stateMutability":"view"},{"type":"function","name":"increaseAllowance","inputs":[{"name":"spender","type":"address","internalType":"address"},{"name":"addedValue","type":"uint256","internalType":"uint256"}],"outputs":[{"name":"","type":"bool","internalType":"bool"}],"stateMutability":"nonpayable"},{"type":"function","name":"initialize","inputs":[{"name":"initializingPool","type":"address","internalType":"contract IPool"},{"name":"underlyingAsset","type":"address","internalType":"address"},{"name":"aTokenDecimals","type":"uint8","internalType":"uint8"},{"name":"aTokenName","type":"string","internalType":"string"},{"name":"aTokenSymbol","type":"string","internalType":"string"},{"name":"params","type":"bytes","internalType":"bytes"}],"outputs":[],"stateMutability":"nonpayable"},{"type":"function","name":"metaDelegate","inputs":[{"name":"delegator","type":"address","internalType":"address"},{"name":"delegatee","type":"address","internalType":"address"},{"name":"deadline","type":"uint256","internalType":"uint256"},{"name":"v","type":"uint8","internalType":"uint8"},{"name":"r","type":"bytes32","internalType":"bytes32"},{"name":"s","type":"bytes32","internalType":"bytes32"}],"outputs":[],"stateMutability":"nonpayable"},{"type":"function","name":"metaDelegateByType","inputs":[{"name":"delegator","type":"address","internalType":"address"},{"name":"delegatee","type":"address","internalType":"address"},{"name":"delegationType","type":"uint8","internalType":"enum IBaseDelegation.GovernancePowerType"},{"name":"deadline","type":"uint256","internalType":"uint256"},{"name":"v","type":"uint8","internalType":"uint8"},{"name":"r","type":"bytes32","internalType":"bytes32"},{"name":"s","type":"bytes32","internalType":"bytes32"}],"outputs":[],"stateMutability":"nonpayable"},{"type":"function","name":"mint","inputs":[{"name":"caller","type":"address","internalType":"address"},{"name":"onBehalfOf","type":"address","internalType":"address"},{"name":"scaledAmount","type":"uint256","internalType":"uint256"},{"name":"index","type":"uint256","internalType":"uint256"}],"outputs":[{"name":"","type":"bool","internalType":"bool"}],"stateMutability":"nonpayable"},{"type":"function","name":"mintToTreasury","inputs":[{"name":"scaledAmount","type":"uint256","internalType":"uint256"},{"name":"index","type":"uint256","internalType":"uint256"}],"outputs":[],"stateMutability":"nonpayable"},{"type":"function","name":"name","inputs":[],"outputs":[{"name":"","type":"string","internalType":"string"}],"stateMutability":"view"},{"type":"function","name":"nonces","inputs":[{"name":"owner","type":"address","internalType":"address"}],"outputs":[{"name":"","type":"uint256","internalType":"uint256"}],"stateMutability":"view"},{"type":"function","name":"permit","inputs":[{"name":"owner","type":"address","internalType":"address"},{"name":"spender","type":"address","internalType":"address"},{"name":"value","type":"uint256","internalType":"uint256"},{"name":"deadline","type":"uint256","internalType":"uint256"},{"name":"v","type":"uint8","internalType":"uint8"},{"name":"r","type":"bytes32","internalType":"bytes32"},{"name":"s","type":"bytes32","internalType":"bytes32"}],"outputs":[],"stateMutability":"nonpayable"},{"type":"function","name":"rescueTokens","inputs":[{"name":"token","type":"address","internalType":"address"},{"name":"to","type":"address","internalType":"address"},{"name":"amount","type":"uint256","internalType":"uint256"}],"outputs":[],"stateMutability":"nonpayable"},{"type":"function","name":"scaledBalanceOf","inputs":[{"name":"user","type":"address","internalType":"address"}],"outputs":[{"name":"","type":"uint256","internalType":"uint256"}],"stateMutability":"view"},{"type":"function","name":"scaledTotalSupply","inputs":[],"outputs":[{"name":"","type":"uint256","internalType":"uint256"}],"stateMutability":"view"},{"type":"function","name":"symbol","inputs":[],"outputs":[{"name":"","type":"string","internalType":"string"}],"stateMutability":"view"},{"type":"function","name":"totalSupply","inputs":[],"outputs":[{"name":"","type":"uint256","internalType":"uint256"}],"stateMutability":"view"},{"type":"function","name":"transfer","inputs":[{"name":"recipient","type":"address","internalType":"address"},{"name":"amount","type":"uint256","internalType":"uint256"}],"outputs":[{"name":"","type":"bool","internalType":"bool"}],"stateMutability":"nonpayable"},{"type":"function","name":"transferFrom","inputs":[{"name":"sender","type":"address","internalType":"address"},{"name":"recipient","type":"address","internalType":"address"},{"name":"amount","type":"uint256","internalType":"uint256"}],"outputs":[{"name":"","type":"bool","internalType":"bool"}],"stateMutability":"nonpayable"},{"type":"function","name":"transferOnLiquidation","inputs":[{"name":"from","type":"address","internalType":"address"},{"name":"to","type":"address","internalType":"address"},{"name":"amount","type":"uint256","internalType":"uint256"},{"name":"scaledAmount","type":"uint256","internalType":"uint256"},{"name":"index","type":"uint256","internalType":"uint256"}],"outputs":[],"stateMutability":"nonpayable"},{"type":"function","name":"transferUnderlyingTo","inputs":[{"name":"target","type":"address","internalType":"address"},{"name":"amount","type":"uint256","internalType":"uint256"}],"outputs":[],"stateMutability":"nonpayable"},{"type":"event","name":"Approval","inputs":[{"name":"owner","type":"address","indexed":true,"internalType":"address"},{"name":"spender","type":"address","indexed":true,"internalType":"address"},{"name":"value","type":"uint256","indexed":false,"internalType":"uint256"}],"anonymous":false},{"type":"event","name":"BalanceTransfer","inputs":[{"name":"from","type":"address","indexed":true,"internalType":"address"},{"name":"to","type":"address","indexed":true,"internalType":"address"},{"name":"value","type":"uint256","indexed":false,"internalType":"uint256"},{"name":"index","type":"uint256","indexed":false,"internalType":"uint256"}],"anonymous":false},{"type":"event","name":"Burn","inputs":[{"name":"from","type":"address","indexed":true,"internalType":"address"},{"name":"target","type":"address","indexed":true,"internalType":"address"},{"name":"value","type":"uint256","indexed":false,"internalType":"uint256"},{"name":"balanceIncrease","type":"uint256","indexed":false,"internalType":"uint256"},{"name":"index","type":"uint256","indexed":false,"internalType":"uint256"}],"anonymous":false},{"type":"event","name":"DelegateChanged","inputs":[{"name":"delegator","type":"address","indexed":true,"internalType":"address"},{"name":"delegatee","type":"address","indexed":true,"internalType":"address"},{"name":"delegationType","type":"uint8","indexed":false,"internalType":"enum IBaseDelegation.GovernancePowerType"}],"anonymous":false},{"type":"event","name":"Initialized","inputs":[{"name":"underlyingAsset","type":"address","indexed":true,"internalType":"address"},{"name":"pool","type":"address","indexed":true,"internalType":"address"},{"name":"treasury","type":"address","indexed":false,"internalType":"address"},{"name":"incentivesController","type":"address","indexed":false,"internalType":"address"},{"name":"aTokenDecimals","type":"uint8","indexed":false,"internalType":"uint8"},{"name":"aTokenName","type":"string","indexed":false,"internalType":"string"},{"name":"aTokenSymbol","type":"string","indexed":false,"internalType":"string"},{"name":"params","type":"bytes","indexed":false,"internalType":"bytes"}],"anonymous":false},{"type":"event","name":"Mint","inputs":[{"name":"caller","type":"address","indexed":true,"internalType":"address"},{"name":"onBehalfOf","type":"address","indexed":true,"internalType":"address"},{"name":"value","type":"uint256","indexed":false,"internalType":"uint256"},{"name":"balanceIncrease","type":"uint256","indexed":false,"internalType":"uint256"},{"name":"index","type":"uint256","indexed":false,"internalType":"uint256"}],"anonymous":false},{"type":"event","name":"Transfer","inputs":[{"name":"from","type":"address","indexed":true,"internalType":"address"},{"name":"to","type":"address","indexed":true,"internalType":"address"},{"name":"value","type":"uint256","indexed":false,"internalType":"uint256"}],"anonymous":false},{"type":"error","name":"CallerMustBePool","inputs":[]},{"type":"error","name":"CallerNotPoolAdmin","inputs":[]},{"type":"error","name":"ECDSAInvalidSignature","inputs":[]},{"type":"error","name":"ECDSAInvalidSignatureLength","inputs":[{"name":"length","type":"uint256","internalType":"uint256"}]},{"type":"error","name":"ECDSAInvalidSignatureS","inputs":[{"name":"s","type":"bytes32","internalType":"bytes32"}]},{"type":"error","name":"ERC20InsufficientAllowance","inputs":[{"name":"spender","type":"address","internalType":"address"},{"name":"allowance","type":"uint256","internalType":"uint256"},{"name":"needed","type":"uint256","internalType":"uint256"}]},{"type":"error","name":"InvalidBurnAmount","inputs":[]},{"type":"error","name":"InvalidExpiration","inputs":[]},{"type":"error","name":"InvalidMintAmount","inputs":[]},{"type":"error","name":"InvalidSignature","inputs":[]},{"type":"error","name":"PoolAddressesDoNotMatch","inputs":[]},{"type":"error","name":"SafeCastOverflowedUintDowncast","inputs":[{"name":"bits","type":"uint8","internalType":"uint8"},{"name":"value","type":"uint256","internalType":"uint256"}]},{"type":"error","name":"UnderlyingCannotBeRescued","inputs":[]},{"type":"error","name":"ZeroAddressNotValid","inputs":[]}],"bytecode":{"object":"0x6101206040525f5f55348015610013575f5ffd5b50604051613b4e380380613b4e833981016040819052610032916101b6565b828282828282826040518060400160405280600b81526020016a105513d2d15397d253541360aa1b8152506040518060400160405280600b81526020016a105513d2d15397d253541360aa1b8152505f858484848484848484848461009b61019a60201b60201c565b5f81905550846001600160a01b0316630542975c6040518163ffffffff1660e01b8152600401602060405180830381865afa1580156100dc573d5f5f3e3d5ffd5b505050506040513d601f19601f820116820180604052508101906101009190610200565b6001600160a01b0316608052603761011885826102ba565b50603861012584826102ba565b506039805460ff191660ff93909316929092179091556001600160a01b0393841660a052831660c05250504660e0528b16995061017f9850505050505050505057604051633bf95ba760e01b815260040160405180910390fd5b6001600160a01b031661010052506103749650505050505050565b600490565b6001600160a01b03811681146101b3575f5ffd5b50565b5f5f5f606084860312156101c8575f5ffd5b83516101d38161019f565b60208501519093506101e48161019f565b60408501519092506101f58161019f565b809150509250925092565b5f60208284031215610210575f5ffd5b815161021b8161019f565b9392505050565b634e487b7160e01b5f52604160045260245ffd5b600181811c9082168061024a57607f821691505b60208210810361026857634e487b7160e01b5f52602260045260245ffd5b50919050565b601f8211156102b557805f5260205f20601f840160051c810160208510156102935750805b601f840160051c820191505b818110156102b2575f815560010161029f565b50505b505050565b81516001600160401b038111156102d3576102d3610222565b6102e7816102e18454610236565b8461026e565b6020601f821160018114610319575f83156103025750848201515b5f19600385901b1c1916600184901b1784556102b2565b5f84815260208120601f198516915b828110156103485787850151825560209485019460019092019101610328565b508482101561036557868401515f19600387901b60f8161c191681555b50505050600190811b01905550565b60805160a05160c05160e051610100516136fc6104525f395f8181610372015281816105ba01528181610d300152610f7c01525f611a6401525f81816104d30152818161063501528181610f9d01528181612b9f01528181612bde01528181612c7401528181612d920152612dce01525f81816104af01528181610815015281816108bf015281816109aa01528181610a5301528181610c4701528181610cbe01528181610d0f01528181610e2101528181610f270152818161119b015281816112a5015281816118b601526119b301525f61130601526136fc5ff3fe608060405234801561000f575f5ffd5b5060043610610276575f3560e01c80637535d24611610156578063ae167335116100ca578063cd086d4511610084578063cd086d4514610630578063cea9d26f14610657578063d505accf1461066a578063dc937e1c1461067d578063dd62ed3e14610690578063e0753986146106c8575f5ffd5b8063ae167335146105b8578063b16a19de146105de578063b18d6afd146105ef578063b1bf962d14610602578063b2f4201d1461060a578063b3f1c93d1461061d575f5ffd5b80637fdd585f1161011b5780637fdd585f1461053d57806395d89b4114610550578063a095ac1914610558578063a457c2d71461056b578063a9059cbb1461057e578063aa9fbe0214610591575f5ffd5b80637535d246146104aa57806375d26413146104d157806378160376146104f75780637df5bd3b146105175780637ecebe001461052a575f5ffd5b8063313ce567116101ed5780634efecaa5116101b25780634efecaa51461043f578063570a9714146104525780635c19a95c1461045e578063657f0cde146104715780636f50458d1461048457806370a0823114610497575f5ffd5b8063313ce567146103d3578063353b7b9a146103e85780633644e515146103fd578063395093511461040557806341cbf54a14610418575f5ffd5b806318160ddd1161023e57806318160ddd1461032c5780631da24f3e1461033457806323b872dd146103475780632a8b36681461035a5780632d2c55651461036d57806330adf81f146103ac575f5ffd5b806306fdde031461027a578063095ea7b3146102985780630afbcdc9146102bb5780630bd7ad3b146102e3578063169db77d146102f9575b5f5ffd5b610282610700565b60405161028f9190612eb7565b60405180910390f35b6102ab6102a6366004612edd565b610790565b604051901515815260200161028f565b6102ce6102c9366004612f07565b6107a6565b6040805192835260208301919091520161028f565b6102eb600481565b60405190815260200161028f565b61030c610307366004612f07565b6107be565b604080516001600160a01b0393841681529290911660208301520161028f565b6102eb6107ed565b6102eb610342366004612f07565b61088f565b6102ab610355366004612f22565b610899565b6102ce610368366004612f07565b610990565b6103947f000000000000000000000000000000000000000000000000000000000000000081565b6040516001600160a01b03909116815260200161028f565b6102eb7f6e71edae12b1b97f4d1f60370fef10105fa2faae0126114a169c64845d6126c981565b60395460405160ff909116815260200161028f565b6103fb6103f6366004612f60565b6109a7565b005b6102eb610a0c565b6102ab610413366004612edd565b610a15565b6102eb7fd46e8b93b5190df6403875402a5c13897b72d2a576da5d1bfea20a63638d216e81565b6103fb61044d366004612edd565b610a50565b6102eb6402540be40081565b6103fb61046c366004612f07565b610ab4565b6103fb61047f366004612fd0565b610ace565b610394610492366004613041565b610c0b565b6102eb6104a5366004612f07565b610c1f565b6103947f000000000000000000000000000000000000000000000000000000000000000081565b7f0000000000000000000000000000000000000000000000000000000000000000610394565b610282604051806040016040528060018152602001603160f81b81525081565b6103fb610525366004613074565b610cbb565b6102eb610538366004612f07565b610d5e565b6103fb61054b3660046130d9565b610d7b565b610282610ffe565b6103fb6105663660046131ae565b61100d565b6102ab610579366004612edd565b61113f565b6102ab61058c366004612edd565b611175565b6102eb7f6e77642f8f60cdece0498bfeeb2f06ccfef0e8f86d28a1b6255c5e48f1d72a0381565b7f0000000000000000000000000000000000000000000000000000000000000000610394565b603d546001600160a01b0316610394565b6102ab6105fd366004612f60565b611197565b6102eb611224565b6102eb610618366004613041565b61122e565b6102ab61062b36600461320d565b6112a1565b6103947f000000000000000000000000000000000000000000000000000000000000000081565b6103fb610665366004612f22565b611303565b6103fb610678366004613250565b611462565b6103fb61068b366004613041565b6115f2565b6102eb61069e36600461329d565b6001600160a01b039182165f90815260356020908152604080832093909416825291909152205490565b6102eb6106d6366004612f07565b6001600160a01b03165f90815260346020526040902054600160801b90046001600160801b031690565b60606037805461070f906132d4565b80601f016020809104026020016040519081016040528092919081815260200182805461073b906132d4565b80156107865780601f1061075d57610100808354040283529160200191610786565b820191905f5260205f20905b81548152906001019060200180831161076957829003601f168201915b5050505050905090565b5f61079c3384846115fd565b5060015b92915050565b5f5f6107b18361165d565b6036545b91509150915091565b5f5f5f6107ca84611680565b90506107d784825f61170f565b6107e38583600161170f565b9250925050915091565b603d5460405163d15e005360e01b81526001600160a01b0391821660048201525f9161088a917f00000000000000000000000000000000000000000000000000000000000000009091169063d15e005390602401602060405180830381865afa15801561085c573d5f5f3e3d5ffd5b505050506040513d601f19601f820116820180604052508101906108809190613306565b6036545b906117b9565b905090565b5f6107a08261165d565b603d5460405163d15e005360e01b81526001600160a01b0391821660048201525f9182917f00000000000000000000000000000000000000000000000000000000000000009091169063d15e005390602401602060405180830381865afa158015610906573d5f5f3e3d5ffd5b505050506040513d601f19601f8201168201806040525081019061092a9190613306565b90505f6109368661165d565b905061096f8633866109568661094c83826117c4565b6108849088613331565b61096086886117b9565b61096a9190613331565b6117cf565b610982868661097d87611858565b61188f565b6001925050505b9392505050565b5f5f61099c835f61122e565b6107b584600161122e565b337f00000000000000000000000000000000000000000000000000000000000000006001600160a01b0316146109f057604051632a59ce7160e11b815260040160405180910390fd5b610a058585856109ff86611858565b85611a14565b5050505050565b5f61088a611a61565b335f8181526035602090815260408083206001600160a01b0387168452909152812054909161079c918590610a4b908690613344565b6115fd565b337f00000000000000000000000000000000000000000000000000000000000000006001600160a01b031614610a9957604051632a59ce7160e11b815260040160405180910390fd5b603d54610ab0906001600160a01b03168383611a98565b5050565b610abf33825f611b20565b610acb33826001611b20565b50565b6001600160a01b038716610af557604051633bf95ba760e01b815260040160405180910390fd5b83421115610b1657604051637d9533a960e11b815260040160405180910390fd5b5f610bb7610b22611c41565b7f6e77642f8f60cdece0498bfeeb2f06ccfef0e8f86d28a1b6255c5e48f1d72a038a8a8a610b6c8e6001600160a01b03165f908152603a6020526040902080546001810190915590565b8b604051602001610b829695949392919061338b565b6040516020818303038152906040528051906020012060405161190160f01b8152600281019290925260228201526042902090565b9050610bc581858585611c4a565b6001600160a01b0316886001600160a01b031614610bf657604051638baa579f60e01b815260040160405180910390fd5b610c01888888611b20565b5050505050505050565b5f61098983610c1985611680565b8461170f565b603d5460405163d15e005360e01b81526001600160a01b0391821660048201525f916107a0917f00000000000000000000000000000000000000000000000000000000000000009091169063d15e005390602401602060405180830381865afa158015610c8e573d5f5f3e3d5ffd5b505050506040513d601f19601f82011682018060405250810190610cb29190613306565b6108848461165d565b337f00000000000000000000000000000000000000000000000000000000000000006001600160a01b031614610d0457604051632a59ce7160e11b815260040160405180910390fd5b8115610ab057610d597f00000000000000000000000000000000000000000000000000000000000000007f000000000000000000000000000000000000000000000000000000000000000084846117b9611c76565b505050565b6001600160a01b0381165f908152603a60205260408120546107a0565b60015460049060ff1680610d8e5750303b155b80610d9957505f5481115b610e015760405162461bcd60e51b815260206004820152602e60248201527f436f6e747261637420696e7374616e63652068617320616c726561647920626560448201526d195b881a5b9a5d1a585b1a5e995960921b60648201526084015b60405180910390fd5b60015460ff16158015610e1f576001805460ff1916811790555f8290555b7f00000000000000000000000000000000000000000000000000000000000000006001600160a01b03168b6001600160a01b031614610e7157604051634c2b89eb60e01b815260040160405180910390fd5b610eaf88888080601f0160208091040260200160405190810160405280939291908181526020018383808284375f92019190915250611df692505050565b610eed86868080601f0160208091040260200160405190810160405280939291908181526020018383808284375f92019190915250611e0292505050565b6039805460ff191660ff8b16179055603d80546001600160a01b0319166001600160a01b038c16179055610f1f611e0e565b603b819055507f00000000000000000000000000000000000000000000000000000000000000006001600160a01b03168a6001600160a01b03167fb19e051f8af41150ccccb3fc2c2d8d15f4a4cf434f32a559ba75fe73d6eea20b7f00000000000000000000000000000000000000000000000000000000000000007f00000000000000000000000000000000000000000000000000000000000000008d8d8d8d8d8d8d604051610fd8999897969594939291906133f2565b60405180910390a38015610ff1576001805460ff191690555b5050505050505050505050565b60606038805461070f906132d4565b6001600160a01b03861661103457604051633bf95ba760e01b815260040160405180910390fd5b8342111561105557604051637d9533a960e11b815260040160405180910390fd5b5f6110e0611061611c41565b7fd46e8b93b5190df6403875402a5c13897b72d2a576da5d1bfea20a63638d216e89896110aa8c6001600160a01b03165f908152603a6020526040902080546001810190915590565b6040805160208101959095526001600160a01b039384169085015291166060830152608082015260a0810188905260c001610b82565b90506110ee81858585611c4a565b6001600160a01b0316876001600160a01b03161461111f57604051638baa579f60e01b815260040160405180910390fd5b61112a87875f611b20565b61113687876001611b20565b50505050505050565b335f8181526035602090815260408083206001600160a01b0387168452909152812054909161079c918590610a4b908690613331565b5f5f61118083611858565b905061118d33858361188f565b5060019392505050565b5f337f00000000000000000000000000000000000000000000000000000000000000006001600160a01b0316146111e157604051632a59ce7160e11b815260040160405180910390fd5b5f6111f1878786866117b9611eb6565b90506001600160a01b038616301461121a57603d5461121a906001600160a01b03168787611a98565b9695505050505050565b5f61088a60365490565b5f5f61123984611680565b90505f83600181111561124e5761124e613357565b61125990600161345f565b8260400151600381111561126f5761126f613357565b1660ff165f1461127f575f611288565b6112888561165d565b90505f61129583866120da565b905061121a8183613344565b5f337f00000000000000000000000000000000000000000000000000000000000000006001600160a01b0316146112eb57604051632a59ce7160e11b815260040160405180910390fd5b6112fa858585856117b9611c76565b95945050505050565b5f7f00000000000000000000000000000000000000000000000000000000000000006001600160a01b031663707cd7166040518163ffffffff1660e01b8152600401602060405180830381865afa158015611360573d5f5f3e3d5ffd5b505050506040513d601f19601f820116820180604052508101906113849190613478565b90506001600160a01b038116637be53ca1336040516001600160e01b031960e084901b1681526001600160a01b039091166004820152602401602060405180830381865afa1580156113d8573d5f5f3e3d5ffd5b505050506040513d601f19601f820116820180604052508101906113fc9190613493565b6114195760405163cdd36a9760e01b815260040160405180910390fd5b603d546001600160a01b03908116908516036114485760405163bf9cb8bb60e01b815260040160405180910390fd5b61145c6001600160a01b0385168484611a98565b50505050565b6001600160a01b03871661148957604051633bf95ba760e01b815260040160405180910390fd5b834211156114aa57604051637d9533a960e11b815260040160405180910390fd5b6001600160a01b0387165f908152603a6020526040812054906114cb610a0c565b604080517f6e71edae12b1b97f4d1f60370fef10105fa2faae0126114a169c64845d6126c960208201526001600160a01b03808d1692820192909252908a1660608201526080810189905260a0810184905260c0810188905260e0016040516020818303038152906040528051906020012060405160200161156492919061190160f01b81526002810192909252602282015260420190565b60405160208183030381529060405280519060200120905061158881868686611c4a565b6001600160a01b0316896001600160a01b0316146115b957604051638baa579f60e01b815260040160405180910390fd5b6115c4826001613344565b6001600160a01b038a165f908152603a60205260409020556115e78989896115fd565b505050505050505050565b610ab0338383611b20565b6001600160a01b038381165f8181526035602090815260408083209487168084529482529182902085905590518481527f8c5be1e5ebec7d5bd14f71427d1e84f3dd0314c0f7b2291e5b200ac8c7c3b925910160405180910390a3505050565b6001600160a01b03165f908152603460205260409020546001600160781b031690565b6116a0604080516060810182525f80825260208201819052909182015290565b604080516060810182526001600160a01b0384165f8181526020848152848220546001600160481b038082168652600160481b90910416818501529181526034909152829020549091820190600160781b900460ff16600381111561170757611707613357565b905292915050565b5f8082600181111561172357611723613357565b036117725760018360400151600381111561174057611740613357565b1660ff165f03611750575f61176b565b6001600160a01b038085165f908152603e6020526040902054165b9050610989565b60028360400151600381111561178a5761178a613357565b1015611796575f6117b1565b6001600160a01b038085165f908152603f6020526040902054165b949350505050565b5f6109898383612118565b5f610989838361213f565b6001600160a01b038085165f908152603560209081526040808320938716835292905220548281101561182e57604051637dc7a0d960e11b81526001600160a01b03851660048201526024810182905260448101849052606401610df8565b5f8282101561183d578161183f565b825b90506118508686610a4b8486613331565b505050505050565b5f6001600160781b0382111561188b576040516306dfcc6560e41b81526078600482015260248101839052604401610df8565b5090565b603d5460405163d15e005360e01b81526001600160a01b0391821660048201819052915f917f00000000000000000000000000000000000000000000000000000000000000009091169063d15e005390602401602060405180830381865afa1580156118fd573d5f5f3e3d5ffd5b505050506040513d601f19601f820116820180604052508101906119219190613306565b90505f61192d8661165d565b90505f6119398661165d565b90505f61194f6001600160781b038716856117c4565b905061196f8888886001600160781b031661196985611858565b88611a14565b60405163d5ed393360e01b81526001600160a01b03868116600483015289811660248301528881166044830152606482018390526084820185905260a482018490527f0000000000000000000000000000000000000000000000000000000000000000169063d5ed39339060c4015f604051808303815f87803b1580156119f4575f5ffd5b505af1158015611a06573d5f5f3e3d5ffd5b505050505050505050505050565b6001600160a01b038086165f90815260346020526040808220549287168252902054611a5491879187916001600160781b03908116918116908716612182565b610a058585858585612276565b5f7f00000000000000000000000000000000000000000000000000000000000000004603611a905750603b5490565b61088a611e0e565b60405163a9059cbb60e01b8082526001600160a01b038416600483015260248201839052905f8060448382895af1611ad2573d5f5f3e3d5ffd5b50611adc8461252a565b61145c5760405162461bcd60e51b815260206004820152601560248201527423a83b191d103330b4b632b2103a3930b739b332b960591b6044820152606401610df8565b5f836001600160a01b0316836001600160a01b031614611b405782611b42565b5f5b90505f611b4e85611680565b90505f611b5c86838661170f565b9050806001600160a01b0316836001600160a01b031603611b7f57505050505050565b6001600160a01b03818116151590841615155f611b9b8961165d565b90508215611baf57611baf815f868a6125cd565b8115611bc157611bc15f82888a6125cd565b611bcc898888612693565b82151582151514611beb57611beb89611be6878a86612731565b612850565b856001600160a01b0316896001600160a01b03167fe8d51c8e11bd570db1734c8ec775785330e77007feed45c43b608ef33ff914bd89604051611c2e91906134b2565b60405180910390a3505050505050505050565b5f61088a610a0c565b5f5f5f5f611c5a888888886128e9565b925092509250611c6a82826129b1565b50909695505050505050565b5f835f03611c975760405163199f5a0360e31b815260040160405180910390fd5b5f611ca18661165d565b90505f611cbb611cb18388613344565b868663ffffffff16565b6001600160a01b0388165f9081526034602052604081205491925090611cf6908490600160801b90046001600160801b031663ffffffff8816565b90505f81611d0885898963ffffffff16565b611d129190613331565b9050611d1d87612a69565b6001600160a01b038a165f90815260346020526040902080546001600160801b03928316600160801b029216919091179055611d6189611d5c8a611858565b612a9c565b5f611d6c8385613331565b9050896001600160a01b03165f6001600160a01b03165f5160206136d05f395f51905f5283604051611da091815260200190565b60405180910390a360408051828152602081018490529081018990526001600160a01b03808c1691908d16905f5160206136b05f395f51905f529060600160405180910390a35050911598975050505050505050565b6037610ab08282613518565b6038610ab08282613518565b5f7f8b73c3c69bb8fe3d512ecc4cf759cc79239f7b179b0ffacaa9a75d522b39400f611e38612ac4565b805160209182012060408051808201825260018152603160f81b90840152805192830193909352918101919091527fc89efdaa54c0f20c7adf612882df0950f5a951637e0307cdcb4c672f298b8bc660608201524660808201523060a082015260c00160405160208183030381529060405280519060200120905090565b5f835f03611ed7576040516302075cc160e41b815260040160405180910390fd5b5f611ee18761165d565b90505f611ef1611cb18784613331565b6001600160a01b0389165f9081526034602052604081205491925090611f2c908490600160801b90046001600160801b031663ffffffff8816565b90505f81611f3e85898963ffffffff16565b611f489190613331565b9050611f5387612a69565b6001600160a01b038b165f90815260346020526040902080546001600160801b03928316600160801b029216919091179055611f978a611f928a611858565b612ace565b81831115612027575f611faa8385613331565b90508a6001600160a01b03165f6001600160a01b03165f5160206136d05f395f51905f5283604051611fde91815260200190565b60405180910390a360408051828152602081018490529081018990526001600160a01b038c169081905f5160206136b05f395f51905f529060600160405180910390a3506120c1565b5f6120328484613331565b90505f6001600160a01b03168b6001600160a01b03165f5160206136d05f395f51905f528360405161206691815260200190565b60405180910390a360408051828152602081018490529081018990526001600160a01b03808c1691908d16907f4cf25bc1d991c17529c25213d3cc0cda295eeaad5f13f361969b12ea48015f909060600160405180910390a3505b6120cb8885613331565b159a9950505050505050505050565b5f808260018111156120ee576120ee613357565b146120fa578251612100565b82602001515b610989906001600160481b03166402540be4006135d3565b5f815f190483111582151761212b575f5ffd5b506b033b2e3c9fd0803ce800000091020490565b5f8115744f3a68dbc8f03f243baf513267aa9a3ee524f8e02884111715612164575f5ffd5b506b033b2e3c9fd0803ce80000009190910281810491900615150190565b836001600160a01b0316856001600160a01b03160315610a05576001600160a01b03851615612211575f6121b586611680565b90505f6121c28386613331565b90505f826040015160038111156121db576121db613357565b1461220e576121f685826121f08a865f61170f565b5f6125cd565b61220e85826122078a86600161170f565b60016125cd565b50505b6001600160a01b03841615610a05575f61222a85611680565b90505f6122378385613344565b90505f8260400151600381111561225057612250613357565b146111365761226584826121f089865f61170f565b61113684826122078986600161170f565b5f6122808661165d565b6001600160a01b0387165f90815260346020526040812054919250906122b7908390600160801b90046001600160801b03166117b9565b6122c183856117b9565b6122cb9190613331565b90505f6122d78761165d565b6001600160a01b0388165f908152603460205260408120549192509061230e908390600160801b90046001600160801b03166117b9565b61231883876117b9565b6123229190613331565b905061232d85612a69565b6001600160a01b038a165f90815260346020526040902080546001600160801b03928316600160801b02921691909117905561236885612a69565b6001600160a01b0389165f90815260346020526040902080546001600160801b03928316600160801b0292169190911790556123a5898988612af6565b8215612413576040518381526001600160a01b038a16905f905f5160206136d05f395f51905f529060200160405180910390a3604080518481526020810185905280820187905290516001600160a01b038b169133915f5160206136b05f395f51905f529181900360600190a35b876001600160a01b0316896001600160a01b03161415801561243457505f81115b156124a1576040518181526001600160a01b038916905f905f5160206136d05f395f51905f529060200160405180910390a3604080518281526020810183905280820187905290516001600160a01b038a169133915f5160206136b05f395f51905f529181900360600190a35b876001600160a01b0316896001600160a01b03165f5160206136d05f395f51905f52896040516124d391815260200190565b60405180910390a3604080516001600160781b0388168152602081018790526001600160a01b03808b1692908c16917f4beccb90f994c31aced7a23b5611020728a23d8ec5cddd1a3e9d97b96fda86669101611c2e565b5f61254c565b62461bcd60e51b5f52602060045280602452508060445260645ffd5b3d801561258b57602081146125bc576125867f475076323a206d616c666f726d6564207472616e7366657220726573756c7400601f612530565b6125c7565b823b6125b3576125b37311d41d8c8e881b9bdd08184818dbdb9d1c9858dd60621b6014612530565b600191506125c7565b3d5f5f3e5f51151591505b50919050565b6001600160a01b0382161561145c5783831461145c575f6125fb6125f66402540be400876135ea565b612ce2565b90505f6126106125f66402540be400876135ea565b90505f61261c85611680565b90505f84600181111561263157612631613357565b0361266457818382602001516126479190613609565b6126519190613628565b6001600160481b03166020820152612689565b80518290612673908590613609565b61267d9190613628565b6001600160481b031681525b6111368582612850565b5f836001600160a01b0316826001600160a01b0316146126b357816126b5565b5f5b90505f8360018111156126ca576126ca613357565b03612701576001600160a01b038481165f908152603e6020526040902080546001600160a01b03191691831691909117905561145c565b6001600160a01b039384165f908152603f6020526040902080546001600160a01b03191691909416179092555050565b612751604080516060810182525f80825260208201819052909182015290565b81156127d05782600181111561276957612769613357565b61277490600161345f565b8460400151600381111561278a5761278a613357565b1760ff16600381111561279f5761279f613357565b846040019060038111156127b5576127b5613357565b908160038111156127c8576127c8613357565b905250612848565b60038360018111156127e4576127e4613357565b6127ef90600161345f565b188460400151600381111561280657612806613357565b1660ff16600381111561281b5761281b613357565b8460400190600381111561283157612831613357565b9081600381111561284457612844613357565b9052505b509192915050565b6040808201516001600160a01b0384165f908152603460205291909120805460ff60781b1916600160781b83600381111561288d5761288d613357565b021790555080516001600160a01b039092165f908152604060208181529120805491909201516001600160481b03908116600160481b0271ffffffffffffffffffffffffffffffffffff19909216931692909217919091179055565b5f80807f7fffffffffffffffffffffffffffffff5d576e7357a4501ddfe92f46681b20a084111561292257505f915060039050826129a7565b604080515f808252602082018084528a905260ff891692820192909252606081018790526080810186905260019060a0016020604051602081039080840390855afa158015612973573d5f5f3e3d5ffd5b5050604051601f1901519150506001600160a01b03811661299e57505f9250600191508290506129a7565b92505f91508190505b9450945094915050565b5f8260038111156129c4576129c4613357565b036129cd575050565b60018260038111156129e1576129e1613357565b036129ff5760405163f645eedf60e01b815260040160405180910390fd5b6002826003811115612a1357612a13613357565b03612a345760405163fce698f760e01b815260048101829052602401610df8565b6003826003811115612a4857612a48613357565b03610ab0576040516335e2f38360e21b815260048101829052602401610df8565b5f6001600160801b0382111561188b576040516306dfcc6560e41b81526080600482015260248101839052604401610df8565b612aba5f835f612aab8661165d565b856001600160781b0316612182565b610ab08282612d15565b606061088a610700565b612aec825f612adc8561165d565b5f856001600160781b0316612182565b610ab08282612e30565b6001600160a01b0383165f908152603460205260409020546001600160781b0316612b218282613647565b6001600160a01b038581165f9081526034602052604080822080546001600160781b0319166001600160781b039586161790559186168152205416612b668382613666565b6001600160a01b038581165f90815260346020526040902080546001600160781b0319166001600160781b0393909316929092179091557f00000000000000000000000000000000000000000000000000000000000000001615610a05576036546040516318c39f1760e11b81526001600160a01b037f000000000000000000000000000000000000000000000000000000000000000016906331873e2e90612c1790899085908890600401613685565b5f604051808303815f87803b158015612c2e575f5ffd5b505af1158015612c40573d5f5f3e3d5ffd5b50505050846001600160a01b0316866001600160a01b031614611850576040516318c39f1760e11b81526001600160a01b037f000000000000000000000000000000000000000000000000000000000000000016906331873e2e90612cad90889085908790600401613685565b5f604051808303815f87803b158015612cc4575f5ffd5b505af1158015612cd6573d5f5f3e3d5ffd5b50505050505050505050565b5f6001600160481b0382111561188b576040516306dfcc6560e41b81526048600482015260248101839052604401610df8565b603654612d2b6001600160781b03831682613344565b6036556001600160a01b0383165f908152603460205260409020546001600160781b0316612d598382613666565b6001600160a01b038581165f90815260346020526040902080546001600160781b0319166001600160781b0393909316929092179091557f0000000000000000000000000000000000000000000000000000000000000000161561145c576040516318c39f1760e11b81526001600160a01b037f000000000000000000000000000000000000000000000000000000000000000016906331873e2e90612e0790879086908690600401613685565b5f604051808303815f87803b158015612e1e575f5ffd5b505af1158015610c01573d5f5f3e3d5ffd5b603654612e466001600160781b03831682613331565b6036556001600160a01b0383165f908152603460205260409020546001600160781b0316612d598382613647565b5f81518084525f5b81811015612e9857602081850181015186830182015201612e7c565b505f602082860101526020601f19601f83011685010191505092915050565b602081525f6109896020830184612e74565b6001600160a01b0381168114610acb575f5ffd5b5f5f60408385031215612eee575f5ffd5b8235612ef981612ec9565b946020939093013593505050565b5f60208284031215612f17575f5ffd5b813561098981612ec9565b5f5f5f60608486031215612f34575f5ffd5b8335612f3f81612ec9565b92506020840135612f4f81612ec9565b929592945050506040919091013590565b5f5f5f5f5f60a08688031215612f74575f5ffd5b8535612f7f81612ec9565b94506020860135612f8f81612ec9565b94979496505050506040830135926060810135926080909101359150565b803560028110612fbb575f5ffd5b919050565b803560ff81168114612fbb575f5ffd5b5f5f5f5f5f5f5f60e0888a031215612fe6575f5ffd5b8735612ff181612ec9565b9650602088013561300181612ec9565b955061300f60408901612fad565b94506060880135935061302460808901612fc0565b9699959850939692959460a0840135945060c09093013592915050565b5f5f60408385031215613052575f5ffd5b823561305d81612ec9565b915061306b60208401612fad565b90509250929050565b5f5f60408385031215613085575f5ffd5b50508035926020909101359150565b5f5f83601f8401126130a4575f5ffd5b50813567ffffffffffffffff8111156130bb575f5ffd5b6020830191508360208285010111156130d2575f5ffd5b9250929050565b5f5f5f5f5f5f5f5f5f60c08a8c0312156130f1575f5ffd5b89356130fc81612ec9565b985060208a013561310c81612ec9565b975061311a60408b01612fc0565b965060608a013567ffffffffffffffff811115613135575f5ffd5b6131418c828d01613094565b90975095505060808a013567ffffffffffffffff811115613160575f5ffd5b61316c8c828d01613094565b90955093505060a08a013567ffffffffffffffff81111561318b575f5ffd5b6131978c828d01613094565b915080935050809150509295985092959850929598565b5f5f5f5f5f5f60c087890312156131c3575f5ffd5b86356131ce81612ec9565b955060208701356131de81612ec9565b9450604087013593506131f360608801612fc0565b9598949750929560808101359460a0909101359350915050565b5f5f5f5f60808587031215613220575f5ffd5b843561322b81612ec9565b9350602085013561323b81612ec9565b93969395505050506040820135916060013590565b5f5f5f5f5f5f5f60e0888a031215613266575f5ffd5b873561327181612ec9565b9650602088013561328181612ec9565b9550604088013594506060880135935061302460808901612fc0565b5f5f604083850312156132ae575f5ffd5b82356132b981612ec9565b915060208301356132c981612ec9565b809150509250929050565b600181811c908216806132e857607f821691505b6020821081036125c757634e487b7160e01b5f52602260045260245ffd5b5f60208284031215613316575f5ffd5b5051919050565b634e487b7160e01b5f52601160045260245ffd5b818103818111156107a0576107a061331d565b808201808211156107a0576107a061331d565b634e487b7160e01b5f52602160045260245ffd5b6002811061338757634e487b7160e01b5f52602160045260245ffd5b9052565b8681526001600160a01b0386811660208301528516604082015260c081016133b6606083018661336b565b608082019390935260a00152949350505050565b81835281816020850137505f828201602090810191909152601f909101601f19169091010190565b6001600160a01b038a811682528916602082015260ff8816604082015260c0606082018190525f90613427908301888a6133ca565b828103608084015261343a8187896133ca565b905082810360a084015261344f8185876133ca565b9c9b505050505050505050505050565b60ff81811683821601908111156107a0576107a061331d565b5f60208284031215613488575f5ffd5b815161098981612ec9565b5f602082840312156134a3575f5ffd5b81518015158114610989575f5ffd5b602081016107a0828461336b565b634e487b7160e01b5f52604160045260245ffd5b601f821115610d5957805f5260205f20601f840160051c810160208510156134f95750805b601f840160051c820191505b81811015610a05575f8155600101613505565b815167ffffffffffffffff811115613532576135326134c0565b6135468161354084546132d4565b846134d4565b6020601f821160018114613578575f83156135615750848201515b5f19600385901b1c1916600184901b178455610a05565b5f84815260208120601f198516915b828110156135a75787850151825560209485019460019092019101613587565b50848210156135c457868401515f19600387901b60f8161c191681555b50505050600190811b01905550565b80820281158282048414176107a0576107a061331d565b5f8261360457634e487b7160e01b5f52601260045260245ffd5b500490565b6001600160481b0382811682821603908111156107a0576107a061331d565b6001600160481b0381811683821601908111156107a0576107a061331d565b6001600160781b0382811682821603908111156107a0576107a061331d565b6001600160781b0381811683821601908111156107a0576107a061331d565b6001600160a01b0393909316835260208301919091526001600160781b031660408201526060019056fe458f5fa412d0f69b08dd84872b0215675cc67bc1d5b6fd93300a1c3878b86196ddf252ad1be2c89b69c2b068fc378daa952ba7f163c4a11628f55a4df523b3efa164736f6c634300081b000a","linkReferences":{}},"methodIdentifiers":{"ATOKEN_REVISION()":"0bd7ad3b","DELEGATE_BY_TYPE_TYPEHASH()":"aa9fbe02","DELEGATE_TYPEHASH()":"41cbf54a","DOMAIN_SEPARATOR()":"3644e515","EIP712_REVISION()":"78160376","PERMIT_TYPEHASH()":"30adf81f","POOL()":"7535d246","POWER_SCALE_FACTOR()":"570a9714","RESERVE_TREASURY_ADDRESS()":"ae167335","REWARDS_CONTROLLER()":"cd086d45","TREASURY()":"2d2c5565","UNDERLYING_ASSET_ADDRESS()":"b16a19de","allowance(address,address)":"dd62ed3e","approve(address,uint256)":"095ea7b3","balanceOf(address)":"70a08231","burn(address,address,uint256,uint256,uint256)":"b18d6afd","decimals()":"313ce567","decreaseAllowance(address,uint256)":"a457c2d7","delegate(address)":"5c19a95c","delegateByType(address,uint8)":"dc937e1c","getDelegateeByType(address,uint8)":"6f50458d","getDelegates(address)":"169db77d","getIncentivesController()":"75d26413","getPowerCurrent(address,uint8)":"b2f4201d","getPowersCurrent(address)":"2a8b3668","getPreviousIndex(address)":"e0753986","getScaledUserBalanceAndSupply(address)":"0afbcdc9","increaseAllowance(address,uint256)":"39509351","initialize(address,address,uint8,string,string,bytes)":"7fdd585f","metaDelegate(address,address,uint256,uint8,bytes32,bytes32)":"a095ac19","metaDelegateByType(address,address,uint8,uint256,uint8,bytes32,bytes32)":"657f0cde","mint(address,address,uint256,uint256)":"b3f1c93d","mintToTreasury(uint256,uint256)":"7df5bd3b","name()":"06fdde03","nonces(address)":"7ecebe00","permit(address,address,uint256,uint256,uint8,bytes32,bytes32)":"d505accf","rescueTokens(address,address,uint256)":"cea9d26f","scaledBalanceOf(address)":"1da24f3e","scaledTotalSupply()":"b1bf962d","symbol()":"95d89b41","totalSupply()":"18160ddd","transfer(address,uint256)":"a9059cbb","transferFrom(address,address,uint256)":"23b872dd","transferOnLiquidation(address,address,uint256,uint256,uint256)":"353b7b9a","transferUnderlyingTo(address,uint256)":"4efecaa5"},"id":137}