{"abi":[{"type":"function","name":"deployFactory","inputs":[],"outputs":[{"name":"child","type":"address","internalType":"address"}],"stateMutability":"nonpayable"}],"bytecode":{"object":"0x6080604052348015600e575f5ffd5b5060d680601a5f395ff3fe6080604052348015600e575f5ffd5b50600436106026575f3560e01c8063bff18c7814602a575b5f5ffd5b6030604c565b6040516001600160a01b03909116815260200160405180910390f35b5f5f60405180608001604052806053815260200160776053913990508051602082015ff09150509056fe604580600e600039806000f350fe7fffffffffffffffffffffffffffffffffffffffffffffffffffffffffffffffe03601600081602082378035828234f58015156039578182fd5b8082525050506014600cf3a164736f6c634300081b000a","linkReferences":{}},"methodIdentifiers":{"deployFactory()":"bff18c78"},"id":402}