{"abi":[{"type":"function","name":"REVISION","inputs":[],"outputs":[{"name":"","type":"uint256","internalType":"uint256"}],"stateMutability":"view"},{"type":"function","name":"initialize","inputs":[{"name":"val","type":"uint256","internalType":"uint256"}],"outputs":[],"stateMutability":"nonpayable"},{"type":"function","name":"value","inputs":[],"outputs":[{"name":"","type":"uint256","internalType":"uint256"}],"stateMutability":"view"}],"bytecode":{"object":"0x60806040525f5f553480156011575f5ffd5b5060025f5561019d806100235f395ff3fe608060405234801561000f575f5ffd5b506004361061003f575f3560e01c80633fa4f24514610043578063dde43cba1461005e578063fe4b84df14610066575b5f5ffd5b61004c60345481565b60405190815260200160405180910390f35b61004c600281565b610079610074366004610154565b61007b565b005b60015460029060ff168061008e5750303b155b8061009957505f5481115b6101005760405162461bcd60e51b815260206004820152602e60248201527f436f6e747261637420696e7374616e63652068617320616c726561647920626560448201526d195b881a5b9a5d1a585b1a5e995960921b606482015260840160405180910390fd5b60015460ff1615801561011e576001805460ff1916811790555f8290555b6034839055600283101561013e5761013e6034546001610074919061016b565b801561014f576001805460ff191690555b505050565b5f60208284031215610164575f5ffd5b5035919050565b8082018082111561018a57634e487b7160e01b5f52601160045260245ffd5b9291505056fea164736f6c634300081b000a","linkReferences":{}},"methodIdentifiers":{"REVISION()":"dde43cba","initialize(uint256)":"fe4b84df","value()":"3fa4f245"},"id":220}