{"abi":[{"type":"constructor","inputs":[],"stateMutability":"nonpayable"},{"type":"function","name":"initialize","inputs":[{"name":"provider","type":"address","internalType":"contract IPoolAddressesProvider"}],"outputs":[],"stateMutability":"nonpayable"}],"bytecode":{"object":"0x60806040525f5f553480156011575f5ffd5b5060015f55610133806100235f395ff3fe608060405234801561000f575f5ffd5b5060043610610029575f3560e01c8063c4d66de81461002d575b5f5ffd5b61004061003b3660046100f9565b610042565b005b6001805460ff16806100535750303b155b8061005e57505f5481115b6100c55760405162461bcd60e51b815260206004820152602e60248201527f436f6e747261637420696e7374616e63652068617320616c726561647920626560448201526d195b881a5b9a5d1a585b1a5e995960921b606482015260840160405180910390fd5b60015460ff161580156100e3576001805460ff1916811790555f8290555b80156100f4576001805460ff191690555b505050565b5f60208284031215610109575f5ffd5b81356001600160a01b038116811461011f575f5ffd5b939250505056fea164736f6c634300081b000a","linkReferences":{}},"methodIdentifiers":{"initialize(address)":"c4d66de8"},"id":207}