{"abi":[{"type":"function","name":"REVISION","inputs":[],"outputs":[{"name":"","type":"uint256","internalType":"uint256"}],"stateMutability":"view"},{"type":"function","name":"initialize","inputs":[{"name":"val","type":"uint256","internalType":"uint256"},{"name":"txt","type":"string","internalType":"string"},{"name":"vals","type":"uint256[]","internalType":"uint256[]"}],"outputs":[],"stateMutability":"nonpayable"},{"type":"function","name":"setValue","inputs":[{"name":"newValue","type":"uint256","internalType":"uint256"}],"outputs":[],"stateMutability":"nonpayable"},{"type":"function","name":"setValueViaProxy","inputs":[{"name":"newValue","type":"uint256","internalType":"uint256"}],"outputs":[],"stateMutability":"nonpayable"},{"type":"function","name":"text","inputs":[],"outputs":[{"name":"","type":"string","internalType":"string"}],"stateMutability":"view"},{"type":"function","name":"value","inputs":[],"outputs":[{"name":"","type":"uint256","internalType":"uint256"}],"stateMutability":"view"},{"type":"function","name":"values","inputs":[{"name":"","type":"uint256","internalType":"uint256"}],"outputs":[{"name":"","type":"uint256","internalType":"uint256"}],"stateMutability":"view"}],"bytecode":{"object":"0x60806040525f5f553480156011575f5ffd5b5060025f55610616806100235f395ff3fe608060405234801561000f575f5ffd5b506004361061007a575f3560e01c80635dd21610116100585780635dd21610146100b35780635e383d21146100c8578063d31f8b6b146100db578063dde43cba146100ee575f5ffd5b80631f1bd6921461007e5780633fa4f2451461009c57806355241077146100b3575b5f5ffd5b6100866100f6565b60405161009391906102df565b60405180910390f35b6100a560345481565b604051908152602001610093565b6100c66100c136600461032a565b603455565b005b6100a56100d636600461032a565b610182565b6100c66100e9366004610406565b6101a1565b6100a5600281565b60358054610103906104cd565b80601f016020809104026020016040519081016040528092919081815260200182805461012f906104cd565b801561017a5780601f106101515761010080835404028352916020019161017a565b820191905f5260205f20905b81548152906001019060200180831161015d57829003601f168201915b505050505081565b60368181548110610191575f80fd5b5f91825260209091200154905081565b60015460029060ff16806101b45750303b155b806101bf57505f5481115b6102265760405162461bcd60e51b815260206004820152602e60248201527f436f6e747261637420696e7374616e63652068617320616c726561647920626560448201526d195b881a5b9a5d1a585b1a5e995960921b606482015260840160405180910390fd5b60015460ff16158015610244576001805460ff1916811790555f8290555b60348590556035610255858261054e565b508251610269906036906020860190610282565b50801561027b576001805460ff191690555b5050505050565b828054828255905f5260205f209081019282156102bb579160200282015b828111156102bb5782518255916020019190600101906102a0565b506102c79291506102cb565b5090565b5b808211156102c7575f81556001016102cc565b602081525f82518060208401525f5b8181101561030b57602081860181015160408684010152016102ee565b505f604082850101526040601f19601f83011684010191505092915050565b5f6020828403121561033a575f5ffd5b5035919050565b634e487b7160e01b5f52604160045260245ffd5b604051601f8201601f1916810167ffffffffffffffff8111828210171561037e5761037e610341565b604052919050565b5f82601f830112610395575f5ffd5b813567ffffffffffffffff8111156103af576103af610341565b8060051b6103bf60208201610355565b918252602081850181019290810190868411156103da575f5ffd5b6020860192505b838310156103fc5782358252602092830192909101906103e1565b9695505050505050565b5f5f5f60608486031215610418575f5ffd5b83359250602084013567ffffffffffffffff811115610435575f5ffd5b8401601f81018613610445575f5ffd5b803567ffffffffffffffff81111561045f5761045f610341565b610472601f8201601f1916602001610355565b818152876020838501011115610486575f5ffd5b816020840160208301375f60208383010152809450505050604084013567ffffffffffffffff8111156104b7575f5ffd5b6104c386828701610386565b9150509250925092565b600181811c908216806104e157607f821691505b6020821081036104ff57634e487b7160e01b5f52602260045260245ffd5b50919050565b601f82111561054957805f5260205f20601f840160051c8101602085101561052a5750805b601f840160051c820191505b8181101561027b575f8155600101610536565b505050565b815167ffffffffffffffff81111561056857610568610341565b61057c8161057684546104cd565b84610505565b6020601f8211600181146105ae575f83156105975750848201515b5f19600385901b1c1916600184901b17845561027b565b5f84815260208120601f198516915b828110156105dd57878501518255602094850194600190920191016105bd565b50848210156105fa57868401515f19600387901b60f8161c191681555b50505050600190811b0190555056fea164736f6c634300081b000a","linkReferences":{}},"methodIdentifiers":{"REVISION()":"dde43cba","initialize(uint256,string,uint256[])":"d31f8b6b","setValue(uint256)":"55241077","setValueViaProxy(uint256)":"5dd21610","text()":"1f1bd692","value()":"3fa4f245","values(uint256)":"5e383d21"},"id":220}