{"abi":[{"type":"function","name":"REVISION","inputs":[],"outputs":[{"name":"","type":"uint256","internalType":"uint256"}],"stateMutability":"view"},{"type":"function","name":"initialize","inputs":[{"name":"val","type":"uint256","internalType":"uint256"},{"name":"txt","type":"string","internalType":"string"},{"name":"vals","type":"uint256[]","internalType":"uint256[]"}],"outputs":[],"stateMutability":"nonpayable"},{"type":"function","name":"setValue","inputs":[{"name":"newValue","type":"uint256","internalType":"uint256"}],"outputs":[],"stateMutability":"nonpayable"},{"type":"function","name":"setValueViaProxy","inputs":[{"name":"newValue","type":"uint256","internalType":"uint256"}],"outputs":[],"stateMutability":"nonpayable"},{"type":"function","name":"text","inputs":[],"outputs":[{"name":"","type":"string","internalType":"string"}],"stateMutability":"view"},{"type":"function","name":"value","inputs":[],"outputs":[{"name":"","type":"uint256","internalType":"uint256"}],"stateMutability":"view"},{"type":"function","name":"values","inputs":[{"name":"","type":"uint256","internalType":"uint256"}],"outputs":[{"name":"","type":"uint256","internalType":"uint256"}],"stateMutability":"view"}],"bytecode":{"object":"0x60806040525f5f553480156011575f5ffd5b5060015f55610614806100235f395ff3fe608060405234801561000f575f5ffd5b506004361061007a575f3560e01c80635dd21610116100585780635dd21610146100b35780635e383d21146100c8578063d31f8b6b146100db578063dde43cba146100ee575f5ffd5b80631f1bd6921461007e5780633fa4f2451461009c57806355241077146100b3575b5f5ffd5b6100866100f6565b60405161009391906102dd565b60405180910390f35b6100a560345481565b604051908152602001610093565b6100c66100c1366004610328565b603455565b005b6100a56100d6366004610328565b610182565b6100c66100e9366004610404565b6101a1565b6100a5600181565b60358054610103906104cb565b80601f016020809104026020016040519081016040528092919081815260200182805461012f906104cb565b801561017a5780601f106101515761010080835404028352916020019161017a565b820191905f5260205f20905b81548152906001019060200180831161015d57829003601f168201915b505050505081565b60368181548110610191575f80fd5b5f91825260209091200154905081565b6001805460ff16806101b25750303b155b806101bd57505f5481115b6102245760405162461bcd60e51b815260206004820152602e60248201527f436f6e747261637420696e7374616e63652068617320616c726561647920626560448201526d195b881a5b9a5d1a585b1a5e995960921b606482015260840160405180910390fd5b60015460ff16158015610242576001805460ff1916811790555f8290555b60348590556035610253858261054c565b508251610267906036906020860190610280565b508015610279576001805460ff191690555b5050505050565b828054828255905f5260205f209081019282156102b9579160200282015b828111156102b957825182559160200191906001019061029e565b506102c59291506102c9565b5090565b5b808211156102c5575f81556001016102ca565b602081525f82518060208401525f5b8181101561030957602081860181015160408684010152016102ec565b505f604082850101526040601f19601f83011684010191505092915050565b5f60208284031215610338575f5ffd5b5035919050565b634e487b7160e01b5f52604160045260245ffd5b604051601f8201601f1916810167ffffffffffffffff8111828210171561037c5761037c61033f565b604052919050565b5f82601f830112610393575f5ffd5b813567ffffffffffffffff8111156103ad576103ad61033f565b8060051b6103bd60208201610353565b918252602081850181019290810190868411156103d8575f5ffd5b6020860192505b838310156103fa5782358252602092830192909101906103df565b9695505050505050565b5f5f5f60608486031215610416575f5ffd5b83359250602084013567ffffffffffffffff811115610433575f5ffd5b8401601f81018613610443575f5ffd5b803567ffffffffffffffff81111561045d5761045d61033f565b610470601f8201601f1916602001610353565b818152876020838501011115610484575f5ffd5b816020840160208301375f60208383010152809450505050604084013567ffffffffffffffff8111156104b5575f5ffd5b6104c186828701610384565b9150509250925092565b600181811c908216806104df57607f821691505b6020821081036104fd57634e487b7160e01b5f52602260045260245ffd5b50919050565b601f82111561054757805f5260205f20601f840160051c810160208510156105285750805b601f840160051c820191505b81811015610279575f8155600101610534565b505050565b815167ffffffffffffffff8111156105665761056661033f565b61057a8161057484546104cb565b84610503565b6020601f8211600181146105ac575f83156105955750848201515b5f19600385901b1c1916600184901b178455610279565b5f84815260208120601f198516915b828110156105db57878501518255602094850194600190920191016105bb565b50848210156105f857868401515f19600387901b60f8161c191681555b50505050600190811b0190555056fea164736f6c634300081b000a","linkReferences":{}},"methodIdentifiers":{"REVISION()":"dde43cba","initialize(uint256,string,uint256[])":"d31f8b6b","setValue(uint256)":"55241077","setValueViaProxy(uint256)":"5dd21610","text()":"1f1bd692","value()":"3fa4f245","values(uint256)":"5e383d21"},"id":207}