{"abi":[{"type":"constructor","inputs":[{"name":"name","type":"string","internalType":"string"},{"name":"symbol","type":"string","internalType":"string"},{"name":"decimals","type":"uint8","internalType":"uint8"}],"stateMutability":"nonpayable"},{"type":"function","name":"DOMAIN_SEPARATOR","inputs":[],"outputs":[{"name":"","type":"bytes32","internalType":"bytes32"}],"stateMutability":"view"},{"type":"function","name":"allowance","inputs":[{"name":"owner","type":"address","internalType":"address"},{"name":"spender","type":"address","internalType":"address"}],"outputs":[{"name":"","type":"uint256","internalType":"uint256"}],"stateMutability":"view"},{"type":"function","name":"approve","inputs":[{"name":"spender","type":"address","internalType":"address"},{"name":"amount","type":"uint256","internalType":"uint256"}],"outputs":[{"name":"","type":"bool","internalType":"bool"}],"stateMutability":"nonpayable"},{"type":"function","name":"balanceOf","inputs":[{"name":"owner","type":"address","internalType":"address"}],"outputs":[{"name":"","type":"uint256","internalType":"uint256"}],"stateMutability":"view"},{"type":"function","name":"burn","inputs":[{"name":"from","type":"address","internalType":"address"},{"name":"value","type":"uint256","internalType":"uint256"}],"outputs":[],"stateMutability":"nonpayable"},{"type":"function","name":"decimals","inputs":[],"outputs":[{"name":"","type":"uint8","internalType":"uint8"}],"stateMutability":"view"},{"type":"function","name":"initialize","inputs":[{"name":"name_","type":"string","internalType":"string"},{"name":"symbol_","type":"string","internalType":"string"},{"name":"decimals_","type":"uint8","internalType":"uint8"}],"outputs":[],"stateMutability":"nonpayable"},{"type":"function","name":"mint","inputs":[{"name":"to","type":"address","internalType":"address"},{"name":"value","type":"uint256","internalType":"uint256"}],"outputs":[],"stateMutability":"nonpayable"},{"type":"function","name":"name","inputs":[],"outputs":[{"name":"","type":"string","internalType":"string"}],"stateMutability":"view"},{"type":"function","name":"nonces","inputs":[{"name":"","type":"address","internalType":"address"}],"outputs":[{"name":"","type":"uint256","internalType":"uint256"}],"stateMutability":"view"},{"type":"function","name":"permit","inputs":[{"name":"owner","type":"address","internalType":"address"},{"name":"spender","type":"address","internalType":"address"},{"name":"value","type":"uint256","internalType":"uint256"},{"name":"deadline","type":"uint256","internalType":"uint256"},{"name":"v","type":"uint8","internalType":"uint8"},{"name":"r","type":"bytes32","internalType":"bytes32"},{"name":"s","type":"bytes32","internalType":"bytes32"}],"outputs":[],"stateMutability":"nonpayable"},{"type":"function","name":"symbol","inputs":[],"outputs":[{"name":"","type":"string","internalType":"string"}],"stateMutability":"view"},{"type":"function","name":"totalSupply","inputs":[],"outputs":[{"name":"","type":"uint256","internalType":"uint256"}],"stateMutability":"view"},{"type":"function","name":"transfer","inputs":[{"name":"to","type":"address","internalType":"address"},{"name":"amount","type":"uint256","internalType":"uint256"}],"outputs":[{"name":"","type":"bool","internalType":"bool"}],"stateMutability":"nonpayable"},{"type":"function","name":"transferFrom","inputs":[{"name":"from","type":"address","internalType":"address"},{"name":"to","type":"address","internalType":"address"},{"name":"amount","type":"uint256","internalType":"uint256"}],"outputs":[{"name":"","type":"bool","internalType":"bool"}],"stateMutability":"nonpayable"},{"type":"event","name":"Approval","inputs":[{"name":"owner","type":"address","indexed":true,"internalType":"address"},{"name":"spender","type":"address","indexed":true,"internalType":"address"},{"name":"value","type":"uint256","indexed":false,"internalType":"uint256"}],"anonymous":false},{"type":"event","name":"Transfer","inputs":[{"name":"from","type":"address","indexed":true,"internalType":"address"},{"name":"to","type":"address","indexed":true,"internalType":"address"},{"name":"value","type":"uint256","indexed":false,"internalType":"uint256"}],"anonymous":false}],"bytecode":{"object":"0x608060405234801561000f575f5ffd5b5060405161140538038061140583398101604081905261002e91610260565b610039838383610041565b50505061048c565b60095460ff16156100985760405162461bcd60e51b815260206004820152601360248201527f414c52454144595f494e495449414c495a454400000000000000000000000000604482015260640160405180910390fd5b5f6100a38482610361565b5060016100b08382610361565b506002805460ff191660ff83161790556100c86100e8565b6006556100d3610108565b60075550506009805460ff1916600117905550565b5f6101aa602090811b610819179081906101019082901c565b9250505090565b5f7f8b73c3c69bb8fe3d512ecc4cf759cc79239f7b179b0ffacaa9a75d522b39400f5f604051610138919061041b565b6040519081900390207fc89efdaa54c0f20c7adf612882df0950f5a951637e0307cdcb4c672f298b8bc661016a6100e8565b604080516020810195909552840192909252606083015260808201523060a082015260c00160405160208183030381529060405280519060200120905090565b4690565b634e487b7160e01b5f52604160045260245ffd5b5f82601f8301126101d1575f5ffd5b81516001600160401b038111156101ea576101ea6101ae565b604051601f8201601f19908116603f011681016001600160401b0381118282101715610218576102186101ae565b60405281815283820160200185101561022f575f5ffd5b5f5b8281101561024d57602081860181015183830182015201610231565b505f918101602001919091529392505050565b5f5f5f60608486031215610272575f5ffd5b83516001600160401b03811115610287575f5ffd5b610293868287016101c2565b602086015190945090506001600160401b038111156102b0575f5ffd5b6102bc868287016101c2565b925050604084015160ff811681146102d2575f5ffd5b809150509250925092565b600181811c908216806102f157607f821691505b60208210810361030f57634e487b7160e01b5f52602260045260245ffd5b50919050565b601f82111561035c57805f5260205f20601f840160051c8101602085101561033a5750805b601f840160051c820191505b81811015610359575f8155600101610346565b50505b505050565b81516001600160401b0381111561037a5761037a6101ae565b61038e8161038884546102dd565b84610315565b6020601f8211600181146103c0575f83156103a95750848201515b5f19600385901b1c1916600184901b178455610359565b5f84815260208120601f198516915b828110156103ef57878501518255602094850194600190920191016103cf565b508482101561040c57868401515f19600387901b60f8161c191681555b50505050600190811b01905550565b5f5f8354610428816102dd565b60018216801561043f576001811461045457610481565b60ff1983168652811515820286019350610481565b865f5260205f205f5b838110156104795781548882015260019091019060200161045d565b505081860193505b509195945050505050565b610f6c806104995f395ff3fe608060405234801561000f575f5ffd5b50600436106100f0575f3560e01c806340c10f19116100935780639dc29fac116100635780639dc29fac146101ee578063a9059cbb14610201578063d505accf14610214578063dd62ed3e14610227575f5ffd5b806340c10f191461018c57806370a082311461019f5780637ecebe00146101c757806395d89b41146101e6575f5ffd5b806318160ddd116100ce57806318160ddd1461014a57806323b872dd1461015c578063313ce5671461016f5780633644e51514610184575f5ffd5b806306fdde03146100f4578063095ea7b3146101125780631624f6c614610135575b5f5ffd5b6100fc61025f565b6040516101099190610a8e565b60405180910390f35b610125610120366004610af4565b6102ee565b6040519015158152602001610109565b610148610143366004610bcb565b61035a565b005b6003545b604051908152602001610109565b61012561016a366004610c3f565b6103f8565b60025460405160ff9091168152602001610109565b61014e6104f4565b61014861019a366004610af4565b610519565b61014e6101ad366004610c79565b6001600160a01b03165f9081526004602052604090205490565b61014e6101d5366004610c79565b60086020525f908152604090205481565b6100fc610527565b6101486101fc366004610af4565b610536565b61012561020f366004610af4565b610540565b610148610222366004610c92565b6105c1565b61014e610235366004610cf8565b6001600160a01b039182165f90815260056020908152604080832093909416825291909152205490565b60605f805461026d90610d29565b80601f016020809104026020016040519081016040528092919081815260200182805461029990610d29565b80156102e45780601f106102bb576101008083540402835291602001916102e4565b820191905f5260205f20905b8154815290600101906020018083116102c757829003601f168201915b5050505050905090565b335f8181526005602090815260408083206001600160a01b038716808552925280832085905551919290917f8c5be1e5ebec7d5bd14f71427d1e84f3dd0314c0f7b2291e5b200ac8c7c3b925906103489086815260200190565b60405180910390a35060015b92915050565b60095460ff16156103a85760405162461bcd60e51b81526020600482015260136024820152721053149150511657d253925512505312569151606a1b60448201526064015b60405180910390fd5b5f6103b38482610dad565b5060016103c08382610dad565b506002805460ff191660ff83161790556103d861081d565b6006556103e3610835565b60075550506009805460ff1916600117905550565b6001600160a01b0383165f9081526005602090815260408083203384529091528120545f1981146104515761042d81846108d6565b6001600160a01b0386165f9081526005602090815260408083203384529091529020555b6001600160a01b0385165f9081526004602052604090205461047390846108d6565b6001600160a01b038087165f9081526004602052604080822093909355908616815220546104a19084610938565b6001600160a01b038086165f8181526004602052604090819020939093559151908716905f516020610f405f395f51905f52906104e19087815260200190565b60405180910390a3506001949350505050565b5f60065461050061081d565b146105125761050d610835565b905090565b5060075490565b6105238282610996565b5050565b60606001805461026d90610d29565b6105238282610a10565b335f9081526004602052604081205461055990836108d6565b335f90815260046020526040808220929092556001600160a01b038516815220546105849083610938565b6001600160a01b0384165f818152600460205260409081902092909255905133905f516020610f405f395f51905f52906103489086815260200190565b428410156106115760405162461bcd60e51b815260206004820152601760248201527f5045524d49545f444541444c494e455f45585049524544000000000000000000604482015260640161039f565b5f600161061c6104f4565b6001600160a01b038a165f90815260086020526040812080547f6e71edae12b1b97f4d1f60370fef10105fa2faae0126114a169c64845d6126c9928d928d928d9290919061066983610e7c565b909155506040805160208101969096526001600160a01b0394851690860152929091166060840152608083015260a082015260c0810188905260e001604051602081830303815290604052805190602001206040516020016106e292919061190160f01b81526002810192909252602282015260420190565b60408051601f1981840301815282825280516020918201205f84529083018083525260ff871690820152606081018590526080810184905260a0016020604051602081039080840390855afa15801561073d573d5f5f3e3d5ffd5b5050604051601f1901519150506001600160a01b038116158015906107735750876001600160a01b0316816001600160a01b0316145b6107b05760405162461bcd60e51b815260206004820152600e60248201526d24a72b20a624a22fa9a4a3a722a960911b604482015260640161039f565b6001600160a01b038181165f9081526005602090815260408083208b8516808552908352928190208a90555189815291928b16917f8c5be1e5ebec7d5bd14f71427d1e84f3dd0314c0f7b2291e5b200ac8c7c3b925910160405180910390a35050505050505050565b4690565b5f6108198061082e63ffffffff8216565b9250505090565b5f7f8b73c3c69bb8fe3d512ecc4cf759cc79239f7b179b0ffacaa9a75d522b39400f5f6040516108659190610e94565b60405180910390207fc89efdaa54c0f20c7adf612882df0950f5a951637e0307cdcb4c672f298b8bc661089661081d565b604080516020810195909552840192909252606083015260808201523060a082015260c00160405160208183030381529060405280519060200120905090565b5f818310156109275760405162461bcd60e51b815260206004820152601c60248201527f45524332303a207375627472616374696f6e20756e646572666c6f7700000000604482015260640161039f565b6109318284610f05565b9392505050565b5f806109448385610f18565b9050838110156109315760405162461bcd60e51b815260206004820152601860248201527f45524332303a206164646974696f6e206f766572666c6f770000000000000000604482015260640161039f565b6109a260035482610938565b6003556001600160a01b0382165f908152600460205260409020546109c79082610938565b6001600160a01b0383165f818152600460205260408082209390935591519091905f516020610f405f395f51905f5290610a049085815260200190565b60405180910390a35050565b6001600160a01b0382165f90815260046020526040902054610a3290826108d6565b6001600160a01b0383165f90815260046020526040902055600354610a5790826108d6565b6003556040518181525f906001600160a01b038416905f516020610f405f395f51905f5290602001610a04565b610a8c610f2b565b565b602081525f82518060208401525f5b81811015610aba5760208186018101516040868401015201610a9d565b505f604082850101526040601f19601f83011684010191505092915050565b80356001600160a01b0381168114610aef575f5ffd5b919050565b5f5f60408385031215610b05575f5ffd5b610b0e83610ad9565b946020939093013593505050565b634e487b7160e01b5f52604160045260245ffd5b5f82601f830112610b3f575f5ffd5b813567ffffffffffffffff811115610b5957610b59610b1c565b604051601f8201601f19908116603f0116810167ffffffffffffffff81118282101715610b8857610b88610b1c565b604052818152838201602001851015610b9f575f5ffd5b816020850160208301375f918101602001919091529392505050565b803560ff81168114610aef575f5ffd5b5f5f5f60608486031215610bdd575f5ffd5b833567ffffffffffffffff811115610bf3575f5ffd5b610bff86828701610b30565b935050602084013567ffffffffffffffff811115610c1b575f5ffd5b610c2786828701610b30565b925050610c3660408501610bbb565b90509250925092565b5f5f5f60608486031215610c51575f5ffd5b610c5a84610ad9565b9250610c6860208501610ad9565b929592945050506040919091013590565b5f60208284031215610c89575f5ffd5b61093182610ad9565b5f5f5f5f5f5f5f60e0888a031215610ca8575f5ffd5b610cb188610ad9565b9650610cbf60208901610ad9565b95506040880135945060608801359350610cdb60808901610bbb565b9699959850939692959460a0840135945060c09093013592915050565b5f5f60408385031215610d09575f5ffd5b610d1283610ad9565b9150610d2060208401610ad9565b90509250929050565b600181811c90821680610d3d57607f821691505b602082108103610d5b57634e487b7160e01b5f52602260045260245ffd5b50919050565b601f821115610da857805f5260205f20601f840160051c81016020851015610d865750805b601f840160051c820191505b81811015610da5575f8155600101610d92565b50505b505050565b815167ffffffffffffffff811115610dc757610dc7610b1c565b610ddb81610dd58454610d29565b84610d61565b6020601f821160018114610e0d575f8315610df65750848201515b5f19600385901b1c1916600184901b178455610da5565b5f84815260208120601f198516915b82811015610e3c5787850151825560209485019460019092019101610e1c565b5084821015610e5957868401515f19600387901b60f8161c191681555b50505050600190811b01905550565b634e487b7160e01b5f52601160045260245ffd5b5f60018201610e8d57610e8d610e68565b5060010190565b5f5f8354610ea181610d29565b600182168015610eb85760018114610ecd57610efa565b60ff1983168652811515820286019350610efa565b865f5260205f205f5b83811015610ef257815488820152600190910190602001610ed6565b505081860193505b509195945050505050565b8181038181111561035457610354610e68565b8082018082111561035457610354610e68565b634e487b7160e01b5f52605160045260245ffdfeddf252ad1be2c89b69c2b068fc378daa952ba7f163c4a11628f55a4df523b3efa164736f6c634300081b000a","linkReferences":{}},"methodIdentifiers":{"DOMAIN_SEPARATOR()":"3644e515","allowance(address,address)":"dd62ed3e","approve(address,uint256)":"095ea7b3","balanceOf(address)":"70a08231","burn(address,uint256)":"9dc29fac","decimals()":"313ce567","initialize(string,string,uint8)":"1624f6c6","mint(address,uint256)":"40c10f19","name()":"06fdde03","nonces(address)":"7ecebe00","permit(address,address,uint256,uint256,uint8,bytes32,bytes32)":"d505accf","symbol()":"95d89b41","totalSupply()":"18160ddd","transfer(address,uint256)":"a9059cbb","transferFrom(address,address,uint256)":"23b872dd"},"id":409}