{"abi":[{"type":"constructor","inputs":[{"name":"pool","type":"address","internalType":"contract IPool"},{"name":"rewardsController","type":"address","internalType":"address"}],"stateMutability":"nonpayable"},{"type":"function","name":"DEBT_TOKEN_REVISION","inputs":[],"outputs":[{"name":"","type":"uint256","internalType":"uint256"}],"stateMutability":"view"},{"type":"function","name":"DELEGATION_WITH_SIG_TYPEHASH","inputs":[],"outputs":[{"name":"","type":"bytes32","internalType":"bytes32"}],"stateMutability":"view"},{"type":"function","name":"DOMAIN_SEPARATOR","inputs":[],"outputs":[{"name":"","type":"bytes32","internalType":"bytes32"}],"stateMutability":"view"},{"type":"function","name":"EIP712_REVISION","inputs":[],"outputs":[{"name":"","type":"bytes","internalType":"bytes"}],"stateMutability":"view"},{"type":"function","name":"POOL","inputs":[],"outputs":[{"name":"","type":"address","internalType":"contract IPool"}],"stateMutability":"view"},{"type":"function","name":"REWARDS_CONTROLLER","inputs":[],"outputs":[{"name":"","type":"address","internalType":"contract IAaveIncentivesController"}],"stateMutability":"view"},{"type":"function","name":"UNDERLYING_ASSET_ADDRESS","inputs":[],"outputs":[{"name":"","type":"address","internalType":"address"}],"stateMutability":"view"},{"type":"function","name":"allowance","inputs":[{"name":"","type":"address","internalType":"address"},{"name":"","type":"address","internalType":"address"}],"outputs":[{"name":"","type":"uint256","internalType":"uint256"}],"stateMutability":"view"},{"type":"function","name":"approve","inputs":[{"name":"","type":"address","internalType":"address"},{"name":"","type":"uint256","internalType":"uint256"}],"outputs":[{"name":"","type":"bool","internalType":"bool"}],"stateMutability":"nonpayable"},{"type":"function","name":"approveDelegation","inputs":[{"name":"delegatee","type":"address","internalType":"address"},{"name":"amount","type":"uint256","internalType":"uint256"}],"outputs":[],"stateMutability":"nonpayable"},{"type":"function","name":"balanceOf","inputs":[{"name":"user","type":"address","internalType":"address"}],"outputs":[{"name":"","type":"uint256","internalType":"uint256"}],"stateMutability":"view"},{"type":"function","name":"borrowAllowance","inputs":[{"name":"fromUser","type":"address","internalType":"address"},{"name":"toUser","type":"address","internalType":"address"}],"outputs":[{"name":"","type":"uint256","internalType":"uint256"}],"stateMutability":"view"},{"type":"function","name":"burn","inputs":[{"name":"from","type":"address","internalType":"address"},{"name":"scaledAmount","type":"uint256","internalType":"uint256"},{"name":"index","type":"uint256","internalType":"uint256"}],"outputs":[{"name":"","type":"bool","internalType":"bool"},{"name":"","type":"uint256","internalType":"uint256"}],"stateMutability":"nonpayable"},{"type":"function","name":"decimals","inputs":[],"outputs":[{"name":"","type":"uint8","internalType":"uint8"}],"stateMutability":"view"},{"type":"function","name":"decreaseAllowance","inputs":[{"name":"","type":"address","internalType":"address"},{"name":"","type":"uint256","internalType":"uint256"}],"outputs":[{"name":"","type":"bool","internalType":"bool"}],"stateMutability":"nonpayable"},{"type":"function","name":"delegationWithSig","inputs":[{"name":"delegator","type":"address","internalType":"address"},{"name":"delegatee","type":"address","internalType":"address"},{"name":"value","type":"uint256","internalType":"uint256"},{"name":"deadline","type":"uint256","internalType":"uint256"},{"name":"v","type":"uint8","internalType":"uint8"},{"name":"r","type":"bytes32","internalType":"bytes32"},{"name":"s","type":"bytes32","internalType":"bytes32"}],"outputs":[],"stateMutability":"nonpayable"},{"type":"function","name":"getIncentivesController","inputs":[],"outputs":[{"name":"","type":"address","internalType":"contract IAaveIncentivesController"}],"stateMutability":"view"},{"type":"function","name":"getPreviousIndex","inputs":[{"name":"user","type":"address","internalType":"address"}],"outputs":[{"name":"","type":"uint256","internalType":"uint256"}],"stateMutability":"view"},{"type":"function","name":"getScaledUserBalanceAndSupply","inputs":[{"name":"user","type":"address","internalType":"address"}],"outputs":[{"name":"","type":"uint256","internalType":"uint256"},{"name":"","type":"uint256","internalType":"uint256"}],"stateMutability":"view"},{"type":"function","name":"increaseAllowance","inputs":[{"name":"","type":"address","internalType":"address"},{"name":"","type":"uint256","internalType":"uint256"}],"outputs":[{"name":"","type":"bool","internalType":"bool"}],"stateMutability":"nonpayable"},{"type":"function","name":"initialize","inputs":[{"name":"initializingPool","type":"address","internalType":"contract IPool"},{"name":"underlyingAsset","type":"address","internalType":"address"},{"name":"debtTokenDecimals","type":"uint8","internalType":"uint8"},{"name":"debtTokenName","type":"string","internalType":"string"},{"name":"debtTokenSymbol","type":"string","internalType":"string"},{"name":"params","type":"bytes","internalType":"bytes"}],"outputs":[],"stateMutability":"nonpayable"},{"type":"function","name":"mint","inputs":[{"name":"user","type":"address","internalType":"address"},{"name":"onBehalfOf","type":"address","internalType":"address"},{"name":"amount","type":"uint256","internalType":"uint256"},{"name":"scaledAmount","type":"uint256","internalType":"uint256"},{"name":"index","type":"uint256","internalType":"uint256"}],"outputs":[{"name":"","type":"uint256","internalType":"uint256"}],"stateMutability":"nonpayable"},{"type":"function","name":"name","inputs":[],"outputs":[{"name":"","type":"string","internalType":"string"}],"stateMutability":"view"},{"type":"function","name":"nonces","inputs":[{"name":"owner","type":"address","internalType":"address"}],"outputs":[{"name":"","type":"uint256","internalType":"uint256"}],"stateMutability":"view"},{"type":"function","name":"scaledBalanceOf","inputs":[{"name":"user","type":"address","internalType":"address"}],"outputs":[{"name":"","type":"uint256","internalType":"uint256"}],"stateMutability":"view"},{"type":"function","name":"scaledTotalSupply","inputs":[],"outputs":[{"name":"","type":"uint256","internalType":"uint256"}],"stateMutability":"view"},{"type":"function","name":"symbol","inputs":[],"outputs":[{"name":"","type":"string","internalType":"string"}],"stateMutability":"view"},{"type":"function","name":"totalSupply","inputs":[],"outputs":[{"name":"","type":"uint256","internalType":"uint256"}],"stateMutability":"view"},{"type":"function","name":"transfer","inputs":[{"name":"","type":"address","internalType":"address"},{"name":"","type":"uint256","internalType":"uint256"}],"outputs":[{"name":"","type":"bool","internalType":"bool"}],"stateMutability":"nonpayable"},{"type":"function","name":"transferFrom","inputs":[{"name":"","type":"address","internalType":"address"},{"name":"","type":"address","internalType":"address"},{"name":"","type":"uint256","internalType":"uint256"}],"outputs":[{"name":"","type":"bool","internalType":"bool"}],"stateMutability":"nonpayable"},{"type":"event","name":"Approval","inputs":[{"name":"owner","type":"address","indexed":true,"internalType":"address"},{"name":"spender","type":"address","indexed":true,"internalType":"address"},{"name":"value","type":"uint256","indexed":false,"internalType":"uint256"}],"anonymous":false},{"type":"event","name":"BorrowAllowanceDelegated","inputs":[{"name":"fromUser","type":"address","indexed":true,"internalType":"address"},{"name":"toUser","type":"address","indexed":true,"internalType":"address"},{"name":"asset","type":"address","indexed":true,"internalType":"address"},{"name":"amount","type":"uint256","indexed":false,"internalType":"uint256"}],"anonymous":false},{"type":"event","name":"Burn","inputs":[{"name":"from","type":"address","indexed":true,"internalType":"address"},{"name":"target","type":"address","indexed":true,"internalType":"address"},{"name":"value","type":"uint256","indexed":false,"internalType":"uint256"},{"name":"balanceIncrease","type":"uint256","indexed":false,"internalType":"uint256"},{"name":"index","type":"uint256","indexed":false,"internalType":"uint256"}],"anonymous":false},{"type":"event","name":"Initialized","inputs":[{"name":"underlyingAsset","type":"address","indexed":true,"internalType":"address"},{"name":"pool","type":"address","indexed":true,"internalType":"address"},{"name":"incentivesController","type":"address","indexed":false,"internalType":"address"},{"name":"debtTokenDecimals","type":"uint8","indexed":false,"internalType":"uint8"},{"name":"debtTokenName","type":"string","indexed":false,"internalType":"string"},{"name":"debtTokenSymbol","type":"string","indexed":false,"internalType":"string"},{"name":"params","type":"bytes","indexed":false,"internalType":"bytes"}],"anonymous":false},{"type":"event","name":"Mint","inputs":[{"name":"caller","type":"address","indexed":true,"internalType":"address"},{"name":"onBehalfOf","type":"address","indexed":true,"internalType":"address"},{"name":"value","type":"uint256","indexed":false,"internalType":"uint256"},{"name":"balanceIncrease","type":"uint256","indexed":false,"internalType":"uint256"},{"name":"index","type":"uint256","indexed":false,"internalType":"uint256"}],"anonymous":false},{"type":"event","name":"Transfer","inputs":[{"name":"from","type":"address","indexed":true,"internalType":"address"},{"name":"to","type":"address","indexed":true,"internalType":"address"},{"name":"value","type":"uint256","indexed":false,"internalType":"uint256"}],"anonymous":false},{"type":"error","name":"CallerMustBePool","inputs":[]},{"type":"error","name":"ECDSAInvalidSignature","inputs":[]},{"type":"error","name":"ECDSAInvalidSignatureLength","inputs":[{"name":"length","type":"uint256","internalType":"uint256"}]},{"type":"error","name":"ECDSAInvalidSignatureS","inputs":[{"name":"s","type":"bytes32","internalType":"bytes32"}]},{"type":"error","name":"ERC20InsufficientAllowance","inputs":[{"name":"spender","type":"address","internalType":"address"},{"name":"allowance","type":"uint256","internalType":"uint256"},{"name":"needed","type":"uint256","internalType":"uint256"}]},{"type":"error","name":"InsufficientBorrowAllowance","inputs":[{"name":"spender","type":"address","internalType":"address"},{"name":"allowance","type":"uint256","internalType":"uint256"},{"name":"needed","type":"uint256","internalType":"uint256"}]},{"type":"error","name":"InvalidBurnAmount","inputs":[]},{"type":"error","name":"InvalidExpiration","inputs":[]},{"type":"error","name":"InvalidMintAmount","inputs":[]},{"type":"error","name":"InvalidSignature","inputs":[]},{"type":"error","name":"OperationNotSupported","inputs":[]},{"type":"error","name":"PoolAddressesDoNotMatch","inputs":[]},{"type":"error","name":"SafeCastOverflowedUintDowncast","inputs":[{"name":"bits","type":"uint8","internalType":"uint8"},{"name":"value","type":"uint256","internalType":"uint256"}]},{"type":"error","name":"ZeroAddressNotValid","inputs":[]}],"bytecode":{"object":"0x6101006040525f5f55348015610013575f5ffd5b50604051611fdf380380611fdf833981016040819052610032916101aa565b8181816040518060400160405280601881526020017f5641524941424c455f444542545f544f4b454e5f494d504c00000000000000008152506040518060400160405280601881526020017f5641524941424c455f444542545f544f4b454e5f494d504c00000000000000008152505f84848484848484848484846100bb61018e60201b60201c565b5f554660805260408051630150a5d760e21b815290516001600160a01b03871691630542975c9160048083019260209291908290030181865afa158015610104573d5f5f3e3d5ffd5b505050506040513d601f19601f8201168201806040525081019061012891906101e2565b6001600160a01b031660a052603b610140858261029c565b50603c61014d848261029c565b50603d805460ff90931660ff19909316929092179091556001600160a01b0393841660c05290921660e052506103569e505050505050505050505050505050565b600490565b6001600160a01b03811681146101a7575f5ffd5b50565b5f5f604083850312156101bb575f5ffd5b82516101c681610193565b60208401519092506101d781610193565b809150509250929050565b5f602082840312156101f2575f5ffd5b81516101fd81610193565b9392505050565b634e487b7160e01b5f52604160045260245ffd5b600181811c9082168061022c57607f821691505b60208210810361024a57634e487b7160e01b5f52602260045260245ffd5b50919050565b601f82111561029757805f5260205f20601f840160051c810160208510156102755750805b601f840160051c820191505b81811015610294575f8155600101610281565b50505b505050565b81516001600160401b038111156102b5576102b5610204565b6102c9816102c38454610218565b84610250565b6020601f8211600181146102fb575f83156102e45750848201515b5f19600385901b1c1916600184901b178455610294565b5f84815260208120601f198516915b8281101561032a578785015182556020948501946001909201910161030a565b508482101561034757868401515f19600387901b60f8161c191681555b50505050600190811b01905550565b60805160a05160c05160e051611c136103cc5f395f81816103330152818161040601528181610a23015281816114f8015261155201525f81816102f70152818161072f0152818161081801528181610932015281816109ce01528181610a8f0152610b6801525f50505f6107bc0152611c135ff3fe608060405234801561000f575f5ffd5b50600436106101d1575f3560e01c80637ecebe00116100fe578063b1bf962d1161009e578063dd62ed3e1161006e578063dd62ed3e14610428578063e075398614610436578063f3bfc7381461046e578063f5298aca14610495575f5ffd5b8063b1bf962d146103de578063b9a7b622146103e6578063c04a8a10146103ee578063cd086d4514610401575f5ffd5b80639ceeaca7116100d95780639ceeaca7146103ba578063a457c2d7146101f3578063a9059cbb146101f3578063b16a19de146103cd575f5ffd5b80637ecebe00146103775780637fdd585f1461039f57806395d89b41146103b2575f5ffd5b8063313ce5671161017457806370a082311161014457806370a08231146102df5780637535d246146102f257806375d26413146103315780637816037614610357575f5ffd5b8063313ce5671461028a5780633644e5151461029f57806339509351146101f35780636bd76d24146102a7575f5ffd5b80630b52d558116101af5780630b52d5581461023e57806318160ddd146102535780631da24f3e1461026957806323b872dd1461027c575f5ffd5b806306fdde03146101d5578063095ea7b3146101f35780630afbcdc914610216575b5f5ffd5b6101dd6104bf565b6040516101ea9190611637565b60405180910390f35b610206610201366004611660565b61054f565b60405190151581526020016101ea565b61022961022436600461168a565b610569565b604080519283526020830191909152016101ea565b61025161024c3660046116ba565b610580565b005b61025b610707565b6040519081526020016101ea565b61025b61027736600461168a565b6107a9565b610206610201366004611724565b603d5460405160ff90911681526020016101ea565b61025b6107b9565b61025b6102b5366004611762565b6001600160a01b039182165f90815260366020908152604080832093909416825291909152205490565b61025b6102ed36600461168a565b6107f0565b6103197f000000000000000000000000000000000000000000000000000000000000000081565b6040516001600160a01b0390911681526020016101ea565b7f0000000000000000000000000000000000000000000000000000000000000000610319565b6101dd604051806040016040528060018152602001603160f81b81525081565b61025b61038536600461168a565b6001600160a01b03165f9081526034602052604090205490565b6102516103ad366004611838565b61088c565b6101dd610a7c565b61025b6103c8366004611930565b610a8b565b6037546001600160a01b0316610319565b61025b610b4a565b61025b600481565b6102516103fc366004611660565b610b54565b6103197f000000000000000000000000000000000000000000000000000000000000000081565b61025b610201366004611762565b61025b61044436600461168a565b6001600160a01b03165f90815260386020526040902054600160801b90046001600160801b031690565b61025b7f323db0410fecc107e39e2af5908671f4c8d106123b35a51501bb805c5fa36aa081565b6104a86104a336600461197d565b610b63565b6040805192151583526020830191909152016101ea565b6060603b80546104ce906119af565b80601f01602080910402602001604051908101604052809291908181526020018280546104fa906119af565b80156105455780601f1061051c57610100808354040283529160200191610545565b820191905f5260205f20905b81548152906001019060200180831161052857829003601f168201915b5050505050905090565b5f6040516329a270f560e01b815260040160405180910390fd5b5f5f61057483610bd1565b603a5491509150915091565b6001600160a01b0387166105a757604051633bf95ba760e01b815260040160405180910390fd5b834211156105c857604051637d9533a960e11b815260040160405180910390fd5b6001600160a01b0387165f90815260346020526040812054906105e96107b9565b604080517f323db0410fecc107e39e2af5908671f4c8d106123b35a51501bb805c5fa36aa060208201526001600160a01b038b1691810191909152606081018990526080810184905260a0810188905260c0016040516020818303038152906040528051906020012060405160200161067992919061190160f01b81526002810192909252602282015260420190565b60405160208183030381529060405280519060200120905061069d81868686610bf4565b6001600160a01b0316896001600160a01b0316146106ce57604051638baa579f60e01b815260040160405180910390fd5b6106d98260016119fb565b6001600160a01b038a165f908152603460205260409020556106fc898989610c20565b505050505050505050565b60375460405163386497fd60e01b81526001600160a01b0391821660048201525f916107a4917f00000000000000000000000000000000000000000000000000000000000000009091169063386497fd90602401602060405180830381865afa158015610776573d5f5f3e3d5ffd5b505050506040513d601f19601f8201168201806040525081019061079a9190611a0e565b603a545b90610c89565b905090565b5f6107b382610bd1565b92915050565b5f7f000000000000000000000000000000000000000000000000000000000000000046036107e8575060355490565b6107a4610c9b565b60375460405163386497fd60e01b81526001600160a01b0391821660048201525f916107b3917f00000000000000000000000000000000000000000000000000000000000000009091169063386497fd90602401602060405180830381865afa15801561085f573d5f5f3e3d5ffd5b505050506040513d601f19601f820116820180604052508101906108839190611a0e565b61079e84610bd1565b60015460049060ff168061089f5750303b155b806108aa57505f5481115b6109125760405162461bcd60e51b815260206004820152602e60248201527f436f6e747261637420696e7374616e63652068617320616c726561647920626560448201526d195b881a5b9a5d1a585b1a5e995960921b60648201526084015b60405180910390fd5b60015460ff16158015610930576001805460ff1916811790555f8290555b7f00000000000000000000000000000000000000000000000000000000000000006001600160a01b0316896001600160a01b03161461098257604051634c2b89eb60e01b815260040160405180910390fd5b61098b86610d43565b61099485610d4f565b603d805460ff191660ff8916179055603780546001600160a01b0319166001600160a01b038a161790556109c6610c9b565b6035819055507f00000000000000000000000000000000000000000000000000000000000000006001600160a01b0316886001600160a01b03167f40251fbfb6656cfa65a00d7879029fec1fad21d28fdcff2f4f68f52795b74f2c7f00000000000000000000000000000000000000000000000000000000000000008a8a8a8a8a604051610a5996959493929190611a25565b60405180910390a380156106fc576001805460ff19169055505050505050505050565b6060603c80546104ce906119af565b5f337f00000000000000000000000000000000000000000000000000000000000000006001600160a01b031614610ad557604051632a59ce7160e11b815260040160405180910390fd5b5f610adf87610bd1565b9050856001600160a01b0316876001600160a01b031614610b2757610b27868887610b0a8588610c89565b610b188861079e8b896119fb565b610b229190611a9a565b610d5b565b610b3687878686610c89610e4d565b50610b3f610b4a565b979650505050505050565b5f6107a4603a5490565b610b5f338383610c20565b5050565b5f80337f00000000000000000000000000000000000000000000000000000000000000006001600160a01b031614610bae57604051632a59ce7160e11b815260040160405180910390fd5b610bbd855f8686610c89610ff3565b610bc5610b4a565b91509150935093915050565b6001600160a01b03165f908152603860205260409020546001600160781b031690565b5f5f5f5f610c0488888888611250565b925092509250610c148282611318565b50909695505050505050565b6001600160a01b038381165f8181526036602090815260408083208786168085529083529281902086905560375490518681529416939192917fda919360433220e13b51e8c211e490d148e61a3bd53de8c097194e458b97f3e1910160405180910390a4505050565b5f610c9483836113d0565b9392505050565b5f7f8b73c3c69bb8fe3d512ecc4cf759cc79239f7b179b0ffacaa9a75d522b39400f610cc56113ff565b805160209182012060408051808201825260018152603160f81b90840152805192830193909352918101919091527fc89efdaa54c0f20c7adf612882df0950f5a951637e0307cdcb4c672f298b8bc660608201524660808201523060a082015260c00160405160208183030381529060405280519060200120905090565b603b610b5f8282611af9565b603c610b5f8282611af9565b6001600160a01b038085165f9081526036602090815260408083209387168352929052205482811015610dba57604051631cb19ef360e01b81526001600160a01b03851660048201526024810182905260448101849052606401610909565b5f82821015610dc95781610dcb565b825b90505f610dd88284611a9a565b6001600160a01b038089165f8181526036602090815260408083208c861680855292529182902085905560375491519495509216927fda919360433220e13b51e8c211e490d148e61a3bd53de8c097194e458b97f3e190610e3c9086815260200190565b60405180910390a450505050505050565b5f835f03610e6e5760405163199f5a0360e31b815260040160405180910390fd5b5f610e7886610bd1565b90505f610e92610e8883886119fb565b868663ffffffff16565b6001600160a01b0388165f9081526038602052604081205491925090610ecd908490600160801b90046001600160801b031663ffffffff8816565b90505f81610edf85898963ffffffff16565b610ee99190611a9a565b9050610ef487611409565b6001600160a01b038a165f90815260386020526040902080546001600160801b03928316600160801b029216919091179055610f3889610f338a611440565b611473565b5f610f438385611a9a565b9050896001600160a01b03165f6001600160a01b03167fddf252ad1be2c89b69c2b068fc378daa952ba7f163c4a11628f55a4df523b3ef83604051610f8a91815260200190565b60405180910390a360408051828152602081018490529081018990526001600160a01b03808c1691908d16907f458f5fa412d0f69b08dd84872b0215675cc67bc1d5b6fd93300a1c3878b861969060600160405180910390a35050911598975050505050505050565b5f835f03611014576040516302075cc160e41b815260040160405180910390fd5b5f61101e87610bd1565b90505f61102e610e888784611a9a565b6001600160a01b0389165f9081526038602052604081205491925090611069908490600160801b90046001600160801b031663ffffffff8816565b90505f8161107b85898963ffffffff16565b6110859190611a9a565b905061109087611409565b6001600160a01b038b165f90815260386020526040902080546001600160801b03928316600160801b0292169190911790556110d48a6110cf8a611440565b6115b0565b8183111561118a575f6110e78385611a9a565b90508a6001600160a01b03165f6001600160a01b03167fddf252ad1be2c89b69c2b068fc378daa952ba7f163c4a11628f55a4df523b3ef8360405161112e91815260200190565b60405180910390a360408051828152602081018490529081018990526001600160a01b038c169081907f458f5fa412d0f69b08dd84872b0215675cc67bc1d5b6fd93300a1c3878b861969060600160405180910390a350611237565b5f6111958484611a9a565b90505f6001600160a01b03168b6001600160a01b03167fddf252ad1be2c89b69c2b068fc378daa952ba7f163c4a11628f55a4df523b3ef836040516111dc91815260200190565b60405180910390a360408051828152602081018490529081018990526001600160a01b03808c1691908d16907f4cf25bc1d991c17529c25213d3cc0cda295eeaad5f13f361969b12ea48015f909060600160405180910390a3505b6112418885611a9a565b159a9950505050505050505050565b5f80807f7fffffffffffffffffffffffffffffff5d576e7357a4501ddfe92f46681b20a084111561128957505f9150600390508261130e565b604080515f808252602082018084528a905260ff891692820192909252606081018790526080810186905260019060a0016020604051602081039080840390855afa1580156112da573d5f5f3e3d5ffd5b5050604051601f1901519150506001600160a01b03811661130557505f92506001915082905061130e565b92505f91508190505b9450945094915050565b5f82600381111561132b5761132b611bb4565b03611334575050565b600182600381111561134857611348611bb4565b036113665760405163f645eedf60e01b815260040160405180910390fd5b600282600381111561137a5761137a611bb4565b0361139b5760405163fce698f760e01b815260048101829052602401610909565b60038260038111156113af576113af611bb4565b03610b5f576040516335e2f38360e21b815260048101829052602401610909565b5f815f19048311158215176113e3575f5ffd5b506b033b2e3c9fd0803ce8000000910281810491900615150190565b60606107a46104bf565b5f6001600160801b0382111561143c576040516306dfcc6560e41b81526080600482015260248101839052604401610909565b5090565b5f6001600160781b0382111561143c576040516306dfcc6560e41b81526078600482015260248101839052604401610909565b603a546114896001600160781b038316826119fb565b603a556001600160a01b0383165f908152603860205260409020546001600160781b03166114b78382611bc8565b6001600160a01b038581165f90815260386020526040902080546effffffffffffffffffffffffffffff19166001600160781b0393909316929092179091557f000000000000000000000000000000000000000000000000000000000000000016156115aa576040516318c39f1760e11b81526001600160a01b038581166004830152602482018490526001600160781b03831660448301527f000000000000000000000000000000000000000000000000000000000000000016906331873e2e906064015f604051808303815f87803b158015611593575f5ffd5b505af11580156115a5573d5f5f3e3d5ffd5b505050505b50505050565b603a546115c66001600160781b03831682611a9a565b603a556001600160a01b0383165f908152603860205260409020546001600160781b03166114b78382611be7565b5f81518084525f5b81811015611618576020818501810151868301820152016115fc565b505f602082860101526020601f19601f83011685010191505092915050565b602081525f610c9460208301846115f4565b6001600160a01b038116811461165d575f5ffd5b50565b5f5f60408385031215611671575f5ffd5b823561167c81611649565b946020939093013593505050565b5f6020828403121561169a575f5ffd5b8135610c9481611649565b803560ff811681146116b5575f5ffd5b919050565b5f5f5f5f5f5f5f60e0888a0312156116d0575f5ffd5b87356116db81611649565b965060208801356116eb81611649565b95506040880135945060608801359350611707608089016116a5565b9699959850939692959460a0840135945060c09093013592915050565b5f5f5f60608486031215611736575f5ffd5b833561174181611649565b9250602084013561175181611649565b929592945050506040919091013590565b5f5f60408385031215611773575f5ffd5b823561177e81611649565b9150602083013561178e81611649565b809150509250929050565b634e487b7160e01b5f52604160045260245ffd5b5f82601f8301126117bc575f5ffd5b813567ffffffffffffffff8111156117d6576117d6611799565b604051601f8201601f19908116603f0116810167ffffffffffffffff8111828210171561180557611805611799565b60405281815283820160200185101561181c575f5ffd5b816020850160208301375f918101602001919091529392505050565b5f5f5f5f5f5f5f60c0888a03121561184e575f5ffd5b873561185981611649565b9650602088013561186981611649565b9550611877604089016116a5565b9450606088013567ffffffffffffffff811115611892575f5ffd5b61189e8a828b016117ad565b945050608088013567ffffffffffffffff8111156118ba575f5ffd5b6118c68a828b016117ad565b93505060a088013567ffffffffffffffff8111156118e2575f5ffd5b8801601f81018a136118f2575f5ffd5b803567ffffffffffffffff811115611908575f5ffd5b8a6020828401011115611919575f5ffd5b602082019350809250505092959891949750929550565b5f5f5f5f5f60a08688031215611944575f5ffd5b853561194f81611649565b9450602086013561195f81611649565b94979496505050506040830135926060810135926080909101359150565b5f5f5f6060848603121561198f575f5ffd5b833561199a81611649565b95602085013595506040909401359392505050565b600181811c908216806119c357607f821691505b6020821081036119e157634e487b7160e01b5f52602260045260245ffd5b50919050565b634e487b7160e01b5f52601160045260245ffd5b808201808211156107b3576107b36119e7565b5f60208284031215611a1e575f5ffd5b5051919050565b6001600160a01b038716815260ff8616602082015260a0604082018190525f90611a51908301876115f4565b8281036060840152611a6381876115f4565b90508281036080840152838152838560208301375f602085830101526020601f19601f860116820101915050979650505050505050565b818103818111156107b3576107b36119e7565b601f821115611af457805f5260205f20601f840160051c81016020851015611ad25750805b601f840160051c820191505b81811015611af1575f8155600101611ade565b50505b505050565b815167ffffffffffffffff811115611b1357611b13611799565b611b2781611b2184546119af565b84611aad565b6020601f821160018114611b59575f8315611b425750848201515b5f19600385901b1c1916600184901b178455611af1565b5f84815260208120601f198516915b82811015611b885787850151825560209485019460019092019101611b68565b5084821015611ba557868401515f19600387901b60f8161c191681555b50505050600190811b01905550565b634e487b7160e01b5f52602160045260245ffd5b6001600160781b0381811683821601908111156107b3576107b36119e7565b6001600160781b0382811682821603908111156107b3576107b36119e756fea164736f6c634300081b000a","linkReferences":{}},"methodIdentifiers":{"DEBT_TOKEN_REVISION()":"b9a7b622","DELEGATION_WITH_SIG_TYPEHASH()":"f3bfc738","DOMAIN_SEPARATOR()":"3644e515","EIP712_REVISION()":"78160376","POOL()":"7535d246","REWARDS_CONTROLLER()":"cd086d45","UNDERLYING_ASSET_ADDRESS()":"b16a19de","allowance(address,address)":"dd62ed3e","approve(address,uint256)":"095ea7b3","approveDelegation(address,uint256)":"c04a8a10","balanceOf(address)":"70a08231","borrowAllowance(address,address)":"6bd76d24","burn(address,uint256,uint256)":"f5298aca","decimals()":"313ce567","decreaseAllowance(address,uint256)":"a457c2d7","delegationWithSig(address,address,uint256,uint256,uint8,bytes32,bytes32)":"0b52d558","getIncentivesController()":"75d26413","getPreviousIndex(address)":"e0753986","getScaledUserBalanceAndSupply(address)":"0afbcdc9","increaseAllowance(address,uint256)":"39509351","initialize(address,address,uint8,string,string,bytes)":"7fdd585f","mint(address,address,uint256,uint256,uint256)":"9ceeaca7","name()":"06fdde03","nonces(address)":"7ecebe00","scaledBalanceOf(address)":"1da24f3e","scaledTotalSupply()":"b1bf962d","symbol()":"95d89b41","totalSupply()":"18160ddd","transfer(address,uint256)":"a9059cbb","transferFrom(address,address,uint256)":"23b872dd"},"id":154}