{"abi":[{"type":"constructor","inputs":[],"stateMutability":"nonpayable"},{"type":"function","name":"getLibrariesReport","inputs":[],"outputs":[{"name":"","type":"tuple","internalType":"struct LibrariesReport","components":[{"name":"borrowLogic","type":"address","internalType":"address"},{"name":"configuratorLogic","type":"address","internalType":"address"},{"name":"eModeLogic","type":"address","internalType":"address"},{"name":"flashLoanLogic","type":"address","internalType":"address"},{"name":"liquidationLogic","type":"address","internalType":"address"},{"name":"poolLogic","type":"address","internalType":"address"},{"name":"supplyLogic","type":"address","internalType":"address"}]}],"stateMutability":"view"}],"bytecode":{"object":"0x608060405234801561000f575f5ffd5b506100186100b3565b80515f80546001600160a01b03199081166001600160a01b0393841617909155602083015160018054831691841691909117905560408301516002805483169184169190911790556060830151600380548316918416919091179055608083015160048054831691841691909117905560a083015160058054831691841691909117905560c0909201516006805490931691161790556104ec565b6040805160e0810182525f80825260208201819052918101829052606081018290526080810182905260a0810182905260c08101919091526040517f689217c1373873bb79a9fac7d9ef8e087de78e5547e2ef7976137de6e359e04c9061013a90829061012260208201610429565b601f1982820381018352601f909101166040526101b5565b6001600160a01b0316606083015260405161015d90829061012260208201610436565b6001600160a01b0316608083015260405161018090829061012260208201610443565b6001600160a01b031660a08301526040516101a390829061012260208201610450565b6001600160a01b031660c08301525090565b5f73914d7fec6aac8cd542e72bca78b30650d45643d73b151581036102215760405162461bcd60e51b815260206004820152601760248201527f4d495353494e475f435245415445325f464143544f525900000000000000000060448201526064015b60405180910390fd5b5f61022c8484610361565b90506001600160a01b0381163b1561024557905061035b565b5f848460405160200161025992919061048a565b6040516020818303038152906040529050606073914d7fec6aac8cd542e72bca78b30650d45643d76001600160a01b03168260405161029891906104a3565b5f604051808303815f865af19150503d805f81146102d1576040519150601f19603f3d011682016040523d82523d5f602084013e6102d6565b606091505b5091505f90506102e5826104ae565b60601c90506001600160a01b03841681146103505760405162461bcd60e51b815260206004820152602560248201527f6661696c7572652061742063726561746532206164647265737320646572697660448201526430ba34b7b760d91b6064820152608401610218565b935061035b92505050565b92915050565b5f610398838360405160200161037791906104a3565b6040516020818303038152906040528051906020012061039f60201b60201c565b9392505050565b6040517fff0000000000000000000000000000000000000000000000000000000000000060208201527f914d7fec6aac8cd542e72bca78b30650d45643d7000000000000000000000000602182015260358101839052605581018290525f90610398906075016040516020818303038152906040528051906020012061042660201b60201c565b90565b6120fe8061063a83390190565b6134d68061273883390190565b61200180615c0e83390190565b61292180617c0f83390190565b5f81515f5b8181101561047c5760208185018101518683015201610462565b505f93019283525090919050565b8281525f61049b602083018461045d565b949350505050565b5f610398828461045d565b805160208201516001600160601b03198116919060148210156104e5576001600160601b0319601483900360031b81901b82161692505b5050919050565b610141806104f95f395ff3fe608060405234801561000f575f5ffd5b5060043610610029575f3560e01c8063c3d5cff51461002d575b5f5ffd5b6100c46040805160e0810182525f80825260208201819052918101829052606081018290526080810182905260a0810182905260c0810191909152506040805160e0810182525f546001600160a01b039081168252600154811660208301526002548116928201929092526003548216606082015260045482166080820152600554821660a082015260065490911660c082015290565b60405161012b919081516001600160a01b03908116825260208084015182169083015260408084015182169083015260608084015182169083015260808084015182169083015260a08084015182169083015260c092830151169181019190915260e00190565b60405180910390f3fea164736f6c634300081b000a6120ca610034600b8282823980515f1a607314602857634e487b7160e01b5f525f60045260245ffd5b305f52607381538281f3fe730000000000000000000000000000000000000000301460806040526004361061003f575f3560e01c80632e7263ea14610043578063a1fe0e8d14610064575b5f5ffd5b81801561004e575f5ffd5b5061006261005d366004611a60565b610083565b005b81801561006f575f5ffd5b5061006261007e366004611c21565b6108af565b6100968582604001518360600151610aba565b6040805160a0810182525f80825260208201819052818301819052606080830152608082015290820151516001600160401b038111156100d8576100d8611815565b604051908082528060200260200182016040528015610101578160200160208202803683370190505b50606082015260208201516001600160a01b031681526101a082015161012c5781610120015161012e565b5f5b60808201525f5b826040015151811015610354578260600151818151811061015857610158611d03565b602090810291909101015160408301525f8360800151828151811061017f5761017f611d03565b6020026020010151600281111561019857610198611d17565b60028111156101a9576101a9611d17565b146101b4575f6101c7565b608082015160408301516101c791610bcf565b826060015182815181106101dd576101dd611d03565b6020026020010181815250506101f68260400151610bf4565b875f8560400151848151811061020e5761020e611d03565b60200260200101516001600160a01b03166001600160a01b031681526020019081526020015f2060080160108282829054906101000a90046001600160801b03166102599190611d3f565b92506101000a8154816001600160801b0302191690836001600160801b03160217905550865f8460400151838151811061029557610295611d03565b60200260200101516001600160a01b03166001600160a01b031681526020019081526020015f206004015f9054906101000a90046001600160a01b03166001600160a01b0316634efecaa5846020015184604001516040518363ffffffff1660e01b815260040161031b9291906001600160a01b03929092168252602082015260400190565b5f604051808303815f87803b158015610332575f5ffd5b505af1158015610344573d5f5f3e3d5ffd5b5050600190920191506101359050565b50805160408084015160608086015190850151865160e08801519451632483d72160e21b81526001600160a01b039096169563920f5c849561039c9594939291600401611ddb565b6020604051808303815f875af11580156103b8573d5f5f3e3d5ffd5b505050506040513d601f19601f820116820180604052508101906103dc9190611e75565b6103f957604051637d9b9c8f60e11b815260040160405180910390fd5b5f5b8260400151518110156108a6578260400151818151811061041e5761041e611d03565b6020908102919091018101516001600160a01b031690830152606083015180518290811061044e5761044e611d03565b602090810291909101015160408301525f8360800151828151811061047557610475611d03565b6020026020010151600281111561048e5761048e611d17565b600281111561049f5761049f611d17565b0361056757610562875f84602001516001600160a01b03166001600160a01b031681526020019081526020015f206040518060e00160405280865f01516001600160a01b03168152602001856040015181526020018560600151858151811061050a5761050a611d03565b6020026020010151815260200185602001516001600160a01b031681526020018660a001516001600160a01b0316815260200186602001516001600160a01b0316815260200186610100015161ffff16815250610c30565b61089e565b73__$83e702f37eeb79ca6ea8c03d9bc14d29cb$__631e6473f98888888860405180610160016040528089602001516001600160a01b031681526020018a5f01516001600160a01b031681526020018a60c001516001600160a01b031681526020018a60a001516001600160a01b03168152602001896040015181526020018a6080015189815181106105fc576105fc611d03565b6020026020010151600281111561061557610615611d17565b600281111561062657610626611d17565b81526020018a610100015161ffff1681526020015f151581526020018a61014001516001600160a01b031663fca513a86040518163ffffffff1660e01b8152600401602060405180830381865afa158015610683573d5f5f3e3d5ffd5b505050506040513d601f19601f820116820180604052508101906106a79190611e90565b6001600160a01b031681526020016107408b61016001516001600160a01b031663eddf1b798d60c001516040518263ffffffff1660e01b81526004016106fc91906001600160a01b0391909116815260200190565b602060405180830381865afa158015610717573d5f5f3e3d5ffd5b505050506040513d601f19601f8201168201806040525081019061073b9190611eab565b610d7c565b60ff1681526020018a61014001516001600160a01b0316635eb88d3d6040518163ffffffff1660e01b8152600401602060405180830381865afa158015610789573d5f5f3e3d5ffd5b505050506040513d601f19601f820116820180604052508101906107ad9190611e90565b6001600160a01b03168152506040518663ffffffff1660e01b81526004016107d9959493929190611ee2565b5f6040518083038186803b1580156107ef575f5ffd5b505af4158015610801573d5f5f3e3d5ffd5b5050505082610100015161ffff1682602001516001600160a01b031684602001516001600160a01b03167fefefaba5e921573100900a3ad9cf29f222d995fb3b6045797eaea7521bd8d6f0865f015186604001518860800151878151811061086b5761086b611d03565b6020026020010151600281111561088457610884611d17565b5f6040516108959493929190611fc8565b60405180910390a45b6001016103fb565b50505050505050565b6108bd828260800151610da9565b602081015160e082015160808301515f916108d89190610bcf565b90506108e78360800151610bf4565b60088501805460109061090b908490600160801b90046001600160801b0316611d3f565b82546001600160801b039182166101009390930a92830291909202199091161790555060048481015460208501516080860151604051634efecaa560e01b81526001600160a01b039283169481019490945260248401521690634efecaa5906044015f604051808303815f87803b158015610984575f5ffd5b505af1158015610996573d5f5f3e3d5ffd5b5050506040808501516080860151865160a08801519351631b11d0ff60e01b81526001600160a01b0388169550631b11d0ff946109dc9493928892909190600401611ffb565b6020604051808303815f875af11580156109f8573d5f5f3e3d5ffd5b505050506040513d601f19601f82011682018060405250810190610a1c9190611e75565b610a3957604051637d9b9c8f60e11b815260040160405180910390fd5b610ab4846040518060e00160405280865f01516001600160a01b031681526020018660800151815260200184815260200186604001516001600160a01b0316815260200186606001516001600160a01b0316815260200186602001516001600160a01b031681526020018660c0015161ffff16815250610c30565b50505050565b8051825114610adb576040516239ebb360e41b815260040160405180910390fd5b5f5b8251811015610ab4575f610af282600161203f565b90505b8351811015610b6957838181518110610b1057610b10611d03565b60200260200101516001600160a01b0316848381518110610b3357610b33611d03565b60200260200101516001600160a01b031603610b61576040516239ebb360e41b815260040160405180910390fd5b600101610af5565b50610bc7845f858481518110610b8157610b81611d03565b60200260200101516001600160a01b03166001600160a01b031681526020019081526020015f20838381518110610bba57610bba611d03565b6020026020010151610da9565b600101610add565b5f815f1904831115821517610be2575f5ffd5b50612710910281810491900615150190565b5f6001600160801b03821115610c2c576040516306dfcc6560e41b815260806004820152602481018390526044015b60405180910390fd5b5090565b5f81604001518260200151610c45919061203f565b90505f610c5184610ece565b9050610c5d8482610ff1565b610c80610c7b8260600151856040015161105690919063ffffffff16565b610bf4565b6008850180545f90610c9c9084906001600160801b0316612052565b92506101000a8154816001600160801b0302191690836001600160801b03160217905550610ce3818460600151845f87608001518961106a9095949392919063ffffffff16565b60a08301516101408201516060850151610d09926001600160a01b03909116918561131d565b8260c0015161ffff1683606001516001600160a01b03168460a001516001600160a01b03167fefefaba5e921573100900a3ad9cf29f222d995fb3b6045797eaea7521bd8d6f0865f015187602001515f8960400151604051610d6e9493929190611fc8565b60405180910390a450505050565b5f60ff821115610c2c576040516306dfcc6560e41b81526008600482015260248101839052604401610c23565b604080516020810190915282548082526710000000000000001615610de1576040516334dfd7c760e21b815260040160405180910390fd5b805167010000000000000016610e0a576040516324335bc960e21b815260040160405180910390fd5b805167800000000000000016610e3357604051631603cbc560e21b815260040160405180910390fd5b81836004015f9054906101000a90046001600160a01b03166001600160a01b03166318160ddd6040518163ffffffff1660e01b8152600401602060405180830381865afa158015610e86573d5f5f3e3d5ffd5b505050506040513d601f19601f82011682018060405250810190610eaa9190611eab565b1015610ec95760405163162908e360e11b815260040160405180910390fd5b505050565b610ed66117a4565b610ede6117a4565b6040805160208101825284548152610120830181905251901c61ffff1661010082015260018301546001600160801b0380821660608401819052604080850191909152600286015480831660a086018190526080860152600160801b93849004831660c086015283900490911660e08401526004808601546001600160a01b03908116610140860152600687015416610160850181905260038701549390930464ffffffffff16610180850152815163b1bf962d60e01b8152915163b1bf962d9280830192602092918290030181865afa158015610fbe573d5f5f3e3d5ffd5b505050506040513d601f19601f82011682018060405250810190610fe29190611eab565b60208201819052815292915050565b4264ffffffffff1681610180015164ffffffffff160361100f575050565b61101982826113bc565b6110238282611493565b6003909101805464ffffffffff4216600160801b810264ffffffffff60801b199092169190911790915561018090910152565b5f6110618383611546565b90505b92915050565b5f6110868660a00151876020015161158090919063ffffffff16565b60408051610100808201835260038b01546001600160801b0390811683526020830189905282840188905260608301859052908a015160808301526001600160a01b0389811660a0840152600160c084015260088c0154600160801b900490911660e0830152915163b90db31b60e01b81529293505f92839286169163b90db31b9161116f9190600401815181526020808301519082015260408083015190820152606080830151908201526080808301519082015260a0808301516001600160a01b03169082015260c08083015115159082015260e091820151918101919091526101000190565b6040805180830381865afa158015611189573d5f5f3e3d5ffd5b505050506040513d601f19601f820116820180604052508101906111ad9190612071565b915091506111ba82610bf4565b60018a0180546001600160801b03928316600160801b0292169190911790556111e281610bf4565b60028a0180546001600160801b03928316600160801b02921691909117905585156112595761121086610bf4565b60088a018054601090611234908490600160801b90046001600160801b0316612052565b92506101000a8154816001600160801b0302191690836001600160801b031602179055505b84156112b15761126885610bf4565b60088a01805460109061128c908490600160801b90046001600160801b0316611d3f565b92506101000a8154816001600160801b0302191690836001600160801b031602179055505b60608881015160a0808b0151604080518781525f602082015280820187905294850193909352608084015290516001600160a01b038a16927f804c9b842b2748a22bb64b345453a3de7ca54a6ca45ce00d415894979e22897a92908290030190a2505050505050505050565b6040516323b872dd60e01b8082526001600160a01b0385811660048401528416602483015260448201839052905f80606483828a5af161135f573d5f5f3e3d5ffd5b506113698561158b565b6113b55760405162461bcd60e51b815260206004820152601960248201527f475076323a206661696c6564207472616e7366657246726f6d000000000000006044820152606401610c23565b5050505050565b60c081015115611427575f6113da8260c0015183610180015161162e565b90506113f382604001518261167190919063ffffffff16565b6060830181905261140390610bf4565b6001840180546001600160801b0319166001600160801b0392909216919091179055505b80511561148f575f6114428260e001518361018001516116b2565b905061145b82608001518261167190919063ffffffff16565b60a0830181905261146b90610bf4565b6002840180546001600160801b0319166001600160801b0392909216919091179055505b5050565b8061010001515f036114a3575050565b5f6114c382608001518360a001516114bb9190612093565b8351906116be565b90505f6114de836101000151836116e490919063ffffffff16565b90508015610ab457611500610c7b84606001518361105690919063ffffffff16565b6008850180545f9061151c9084906001600160801b0316612052565b92506101000a8154816001600160801b0302191690836001600160801b0316021790555050505050565b5f8115744f3a68dbc8f03f243baf513267aa9a3ee524f8e0288411171561156b575f5ffd5b50676765c793fa10079d601b1b919091020490565b5f6110618383611708565b5f6115ad565b62461bcd60e51b5f52602060045280602452508060445260645ffd5b3d80156115ec576020811461161d576115e77f475076323a206d616c666f726d6564207472616e7366657220726573756c7400601f611591565b611628565b823b611614576116147311d41d8c8e881b9bdd08184818dbdb9d1c9858dd60621b6014611591565b60019150611628565b3d5f5f3e5f51151591505b50919050565b5f8061164164ffffffffff841642612093565b61164b90856120a6565b6301e133809004905061166981676765c793fa10079d601b1b61203f565b949350505050565b5f81156b019d971e4fe8401e740000001983900484111517611691575f5ffd5b50676765c793fa10079d601b1b91026b019d971e4fe8401e74000000010490565b5f611061838342611736565b5f815f19048311158215176116d1575f5ffd5b50676765c793fa10079d601b1b91020490565b5f811561138819839004841115176116fa575f5ffd5b506127109102611388010490565b5f815f190483111582151761171b575f5ffd5b50676765c793fa10079d601b1b910281810491900615150190565b5f8061174964ffffffffff851684612093565b9050805f0361176657676765c793fa10079d601b1b91505061179d565b6301e133808186020461178b61177f8260068104611671565b82906002820401611671565b01676765c793fa10079d601b1b019150505b9392505050565b604051806101a001604052805f81526020015f81526020015f81526020015f81526020015f81526020015f81526020015f81526020015f81526020015f81526020016117fb60405180602001604052805f81525090565b81525f602082018190526040820181905260609091015290565b634e487b7160e01b5f52604160045260245ffd5b6040516101c081016001600160401b038111828210171561184c5761184c611815565b60405290565b60405161010081016001600160401b038111828210171561184c5761184c611815565b604051601f8201601f191681016001600160401b038111828210171561189d5761189d611815565b604052919050565b6001600160a01b03811681146118b9575f5ffd5b50565b80356118c7816118a5565b919050565b5f6001600160401b038211156118e4576118e4611815565b5060051b60200190565b5f82601f8301126118fd575f5ffd5b813561191061190b826118cc565b611875565b8082825260208201915060208360051b860101925085831115611931575f5ffd5b602085015b83811015611957578035611949816118a5565b835260209283019201611936565b5095945050505050565b5f82601f830112611970575f5ffd5b813561197e61190b826118cc565b8082825260208201915060208360051b86010192508583111561199f575f5ffd5b602085015b838110156119575780358352602092830192016119a4565b5f82601f8301126119cb575f5ffd5b81356001600160401b038111156119e4576119e4611815565b6119f7601f8201601f1916602001611875565b818152846020838601011115611a0b575f5ffd5b816020850160208301375f918101602001919091529392505050565b803561ffff811681146118c7575f5ffd5b803560ff811681146118c7575f5ffd5b80151581146118b9575f5ffd5b80356118c781611a48565b5f5f5f5f5f60a08688031215611a74575f5ffd5b8535945060208601359350604086013592506060860135915060808601356001600160401b03811115611aa5575f5ffd5b86015f6101c0828a031215611ab8575f5ffd5b611ac0611829565b9050611acb826118bc565b8152611ad9602083016118bc565b602082015260408201356001600160401b03811115611af6575f5ffd5b611b028a8285016118ee565b60408301525060608201356001600160401b03811115611b20575f5ffd5b611b2c8a828501611961565b60608301525060808201356001600160401b03811115611b4a575f5ffd5b611b568a828501611961565b608083015250611b6860a083016118bc565b60a0820152611b7960c083016118bc565b60c082015260e08201356001600160401b03811115611b96575f5ffd5b611ba28a8285016119bc565b60e083015250611bb56101008301611a27565b6101008201526101208281013590820152611bd361014083016118bc565b610140820152611be661016083016118bc565b610160820152611bf96101808301611a38565b610180820152611c0c6101a08301611a55565b6101a082015280925050509295509295909350565b5f5f60408385031215611c32575f5ffd5b8235915060208301356001600160401b03811115611c4e575f5ffd5b83016101008186031215611c60575f5ffd5b611c68611852565b611c71826118bc565b8152611c7f602083016118bc565b6020820152611c90604083016118bc565b6040820152611ca1606083016118bc565b60608201526080828101359082015260a08201356001600160401b03811115611cc8575f5ffd5b611cd4878285016119bc565b60a083015250611ce660c08301611a27565b60c082015260e09182013591810191909152919491935090915050565b634e487b7160e01b5f52603260045260245ffd5b634e487b7160e01b5f52602160045260245ffd5b634e487b7160e01b5f52601160045260245ffd5b6001600160801b03828116828216039081111561106457611064611d2b565b5f8151808452602084019350602083015f5b82811015611d8e578151865260209586019590910190600101611d70565b5093949350505050565b5f81518084525f5b81811015611dbc57602081850181015186830182015201611da0565b505f602082860101526020601f19601f83011685010191505092915050565b60a080825286519082018190525f90602088019060c0840190835b81811015611e1d5783516001600160a01b0316835260209384019390920191600101611df6565b50508381036020850152611e318189611d5e565b9150508281036040840152611e468187611d5e565b6001600160a01b038616606085015290508281036080840152611e698185611d98565b98975050505050505050565b5f60208284031215611e85575f5ffd5b815161179d81611a48565b5f60208284031215611ea0575f5ffd5b815161179d816118a5565b5f60208284031215611ebb575f5ffd5b5051919050565b60038110611ede57634e487b7160e01b5f52602160045260245ffd5b9052565b85815260208101859052604081018490526060810183905281516001600160a01b031660808201526101e0810160208301516001600160a01b03811660a08401525060408301516001600160a01b03811660c08401525060608301516001600160a01b03811660e084015250608083015161010083015260a0830151611f6c610120840182611ec2565b5060c083015161ffff166101408381019190915260e084015115156101608401526101008401516001600160a01b0390811661018085015261012085015160ff166101a08501529301519092166101c090910152949350505050565b6001600160a01b03851681526020810184905260808101611fec6040830185611ec2565b82606083015295945050505050565b6001600160a01b03868116825260208201869052604082018590528316606082015260a0608082018190525f9061203490830184611d98565b979650505050505050565b8082018082111561106457611064611d2b565b6001600160801b03818116838216019081111561106457611064611d2b565b5f5f60408385031215612082575f5ffd5b505080516020909101519092909150565b8181038181111561106457611064611d2b565b808202811582820484141761106457611064611d2b56fea164736f6c634300081b000a6134a2610034600b8282823980515f1a607314602857634e487b7160e01b5f525f60045260245ffd5b305f52607381538281f3fe7300000000000000000000000000000000000000003014608060405260043610610060575f3560e01c80631a00fd001461006457806364e377d01461007e5780637e9e608c1461008a57806383c1087d146100a9578063a18964a5146100ca575b5f5ffd5b61006c6100d9565b60405190815260200160405180910390f35b61006c642e90edd00081565b818015610095575f5ffd5b5061006c6100a4366004613045565b6100ec565b8180156100b4575f5ffd5b506100c86100c3366004613119565b610469565b005b61006c670d2f13f7789f000081565b6100e96002642e90edd000613241565b81565b5f81606001515f036101115760405163162908e360e11b815260040160405180910390fd5b6020808301516001600160a01b03165f9081529085905260408120600381015490916001600160801b039091169081900361015f576040516394468f0360e01b815260040160405180910390fd5b60408051602081019091528554908190527f555555555555555555555555555555555555555555555555555555555555555516156101b0576040516316f1ef8160e01b815260040160405180910390fd5b5f6101ba83610ec8565b90506101c68382610feb565b5f6101dc82610120015151600160381b16151590565b9050806101fc576040516324335bc960e21b815260040160405180910390fd5b60608601518381111561020c5750825b6101408301518751604051630ed1279f60e11b81526001600160a01b0391821660048201525f929190911690631da24f3e90602401602060405180830381865afa15801561025c573d5f5f3e3d5ffd5b505050506040513d601f19601f820116820180604052508101906102809190613260565b90505f61029a85606001518461105090919063ffffffff16565b9050818111156102bd576040516311ef12cb60e21b815260040160405180910390fd5b600387015460408051602081019091528b5481525f916102e89190600160a81b900461ffff16611064565b90508080156102f657508282145b1561032057600388015460208b01518b51610320928e92600160a81b90910461ffff16915f611097565b6101408601518a51606088015160405163b18d6afd60e01b81526001600160a01b0384169363b18d6afd9361035d9390928a918991600401613277565b6020604051808303815f875af1158015610379573d5f5f3e3d5ffd5b505050506040513d601f19601f8201168201806040525081019061039d91906132a8565b506103a784611150565b6003890180545f906103c39084906001600160801b03166132c3565b92506101000a8154816001600160801b0302191690836001600160801b0316021790555061040a868b602001515f5f8e604001518d61118c9095949392919063ffffffff16565b6020808b01518b51604080516001600160a01b0392831681529384018890529116917f84b203e49f1a4b553088061534231969a68ad1c81be192205e96d23a206cb26a910160405180910390a2509196505050505050505b9392505050565b610471612ef1565b6040808301516001600160a01b039081165f908152602089815283822060608701518416835284832060808801519094168352908890529290206104b482610ec8565b6102008501526104c383610ec8565b6102208501526102008401516104da908390610feb565b6102208401516104eb908490610feb565b6040805160a081018252825460808083019182529082528701516001600160a01b03908116602083015260c0880151169181019190915260e086015160ff16606082015261053e908a908a90899061143f565b5060a0890152505061010086015260e08501526102208401516060810151610140909101516080870151604051630ed1279f60e11b81526001600160a01b0391821660048201526105de93929190911690631da24f3e906024015b602060405180830381865afa1580156105b4573d5f5f3e3d5ffd5b505050506040513d601f19601f820116820180604052508101906105d89190613260565b906118e9565b845261020084015160a0810151610160909101516080870151604051630ed1279f60e11b81526001600160a01b03918216600482015261066d93929190911690631da24f3e906024015b602060405180830381865afa158015610643573d5f5f3e3d5ffd5b505050506040513d601f19601f820116820180604052508101906106679190613260565b906118f4565b8460200181815250506106e28184846040518060c001604052808961020001518152602001896020015181526020018960a0015181526020018a61010001516001600160a01b031681526020018a608001516001600160a01b031681526020018a5f01516001600160a01b03168152506118ff565b60e085015160ff1615801590610736575060e085015160ff165f90815260208790526040902054600384015461073691660100000000000090046001600160801b031690600160a81b900461ffff16611bd6565b156107675760e085015160ff165f90815260208790526040902054640100000000900461ffff166080850152610780565b61022084015161012001515160201c61ffff1660808501525b60c0850151604080870151905163b3596f0760e01b81526001600160a01b03918216600482015291169063b3596f0790602401602060405180830381865afa1580156107ce573d5f5f3e3d5ffd5b505050506040513d601f19601f820116820180604052508101906107f29190613260565b61018085015260c0850151606086015160405163b3596f0760e01b81526001600160a01b03918216600482015291169063b3596f0790602401602060405180830381865afa158015610846573d5f5f3e3d5ffd5b505050506040513d601f19601f8201168201806040525081019061086a9190613260565b6101a085015261022084015161012001515160301c60ff1661088d90600a6133c5565b6101c085015261020084015161012001515160301c60ff166108b090600a6133c5565b6101e0850181905260208501516101a08601516108cc92611c0f565b6101408501526101c084015161018085015185516108ea91906133d0565b6108f49190613241565b6101608501819052602085015190642e90edd000118015906109205750642e90edd00085610140015110155b80156109375750670d2f13f7789f00008560a00151115b15610984576101008501515f9061095090611388611c3a565b9050808661014001511115610982576101a08601516101e087015161097590836133d0565b61097f9190613241565b91505b505b8086602001511161099957856020015161099b565b805b6040860181905261022086015161012001516101808701516101c08801516101a08901516101e08a01518a5160808c01516109d7979190611c5e565b61012089015260c08801526040870181905260608701919091526020860151118015610a165750845160c08601516060870151610a1491906133e7565b105b15610ad7575f610a2c6002642e90edd000613241565b610a5487604001518860200151610a4391906133fa565b886101a00151896101e00151611c0f565b101590505f610a696002642e90edd000613241565b6101c088015161018089015160c08a015160608b01518b51610a8b91906133fa565b610a9591906133fa565b610a9f91906133d0565b610aa99190613241565b10159050818015610ab75750805b610ad457604051632d8a6c3960e21b815260040160405180910390fd5b50505b845160c08601516060870151610aed91906133e7565b03610b1a57600384015460408701516080880151610b1a928592600160a81b90910461ffff16915f611097565b5f8561012001518660e00151149050610b5486610200015185858a608001518b606001518b602001518c60400151888f6101200151611e0a565b61022086015161012001515160d41c64ffffffffff1615610b8857610b888b87610200015188604001518a60400151611fc1565b8660a0015115610ba557610ba08b8b8b888b8b61204a565b610be8565b86606001516001600160a01b031687604001516001600160a01b031603610bdd57610200860151602090810151610220880151909101525b610be88588886121dc565b60c086015115610da7575f610c13876102200151606001518860c0015161105090919063ffffffff16565b610220880151610140015160808a0151604051630ed1279f60e11b81526001600160a01b0391821660048201529293505f92911690631da24f3e90602401602060405180830381865afa158015610c6c573d5f5f3e3d5ffd5b505050506040513d601f19601f82011682018060405250810190610c909190613260565b905080821115610cbf57809150610cb988610220015160600151826118e990919063ffffffff16565b60c08901525b87610220015161014001516001600160a01b031663353b7b9a8a608001518a610220015161014001516001600160a01b031663ae1673356040518163ffffffff1660e01b8152600401602060405180830381865afa158015610d23573d5f5f3e3d5ffd5b505050506040513d601f19601f82011682018060405250810190610d47919061340d565b8b60c00151868d6102200151606001516040518663ffffffff1660e01b8152600401610d77959493929190613277565b5f604051808303815f87803b158015610d8e575f5ffd5b505af1158015610da0573d5f5f3e3d5ffd5b5050505050505b808015610de5575060408051602081019091528354908190527f55555555555555555555555555555555555555555555555555555555555555551615155b15610df657610df68b8b858a6122b2565b86516102008701516101400151604088015160608a0151610e24936001600160a01b039091169290916123c8565b86608001516001600160a01b031687606001516001600160a01b031688604001516001600160a01b03167fe413a321e8681d831f4dbccbca790d2952b56f977908e45be37335533e00528689604001518a606001518c5f01518d60a00151604051610eb3949392919093845260208401929092526001600160a01b031660408301521515606082015260800190565b60405180910390a45050505050505050505050565b610ed0612f77565b610ed8612f77565b6040805160208101825284548152610120830181905251901c61ffff1661010082015260018301546001600160801b0380821660608401819052604080850191909152600286015480831660a086018190526080860152600160801b93849004831660c086015283900490911660e08401526004808601546001600160a01b03908116610140860152600687015416610160850181905260038701549390930464ffffffffff16610180850152815163b1bf962d60e01b8152915163b1bf962d9280830192602092918290030181865afa158015610fb8573d5f5f3e3d5ffd5b505050506040513d601f19601f82011682018060405250810190610fdc9190613260565b60208201819052815292915050565b4264ffffffffff1681610180015164ffffffffff1603611009575050565b6110138282612460565b61101d8282612537565b6003909101805464ffffffffff4216600160801b810264ffffffffff60801b199092169190911790915561018090910152565b5f61105b83836125ef565b90505b92915050565b5f60808210611086576040516385e98beb60e01b815260040160405180910390fd5b509051600191821b82011c16151590565b608084106110b8576040516385e98beb60e01b815260040160405180910390fd5b600184811b81011b8115611108578554811786556040516001600160a01b0380851691908616907e058a56ea94653cdf4f152d227ace22d4c00ad99e2a43f58cb7d9e3feb295f2905f90a3611148565b855481191686556040516001600160a01b0380851691908616907f44c58d81365b66dd4b1a7f36c25aa97b8c71c361ee4937adc1a00000227db5dd905f90a35b505050505050565b5f6001600160801b03821115611188576040516306dfcc6560e41b815260806004820152602481018390526044015b60405180910390fd5b5090565b5f6111a88660a0015187602001516118f490919063ffffffff16565b60408051610100808201835260038b01546001600160801b0390811683526020830189905282840188905260608301859052908a015160808301526001600160a01b0389811660a0840152600160c084015260088c0154600160801b900490911660e0830152915163b90db31b60e01b81529293505f92839286169163b90db31b916112919190600401815181526020808301519082015260408083015190820152606080830151908201526080808301519082015260a0808301516001600160a01b03169082015260c08083015115159082015260e091820151918101919091526101000190565b6040805180830381865afa1580156112ab573d5f5f3e3d5ffd5b505050506040513d601f19601f820116820180604052508101906112cf9190613428565b915091506112dc82611150565b60018a0180546001600160801b03928316600160801b02921691909117905561130481611150565b60028a0180546001600160801b03928316600160801b029216919091179055851561137b5761133286611150565b60088a018054601090611356908490600160801b90046001600160801b031661344a565b92506101000a8154816001600160801b0302191690836001600160801b031602179055505b84156113d35761138a85611150565b60088a0180546010906113ae908490600160801b90046001600160801b03166132c3565b92506101000a8154816001600160801b0302191690836001600160801b031602179055505b60608881015160a0808b0151604080518781525f602082015280820187905294850193909352608084015290516001600160a01b038a16927f804c9b842b2748a22bb64b345453a3de7ca54a6ca45ce00d415894979e22897a92908290030190a2505050505050505050565b5f5f5f5f5f5f611451875f0151511590565b1561146d57505f94508493508392508291505f199050816118dc565b6114ff6040518061024001604052805f81526020015f81526020015f81526020015f81526020015f81526020015f81526020015f81526020015f81526020015f81526020015f81526020015f81526020015f81526020015f81526020015f81526020015f6001600160801b031681526020015f6001600160a01b031681526020015f151581526020015f151581525090565b606088015160ff16156115735760608801805160ff9081165f90815260208c815260408083205461ffff9081166101808801528551851684528e835281842054620100009004166101a087015293519092168152908b90522054660100000000000090046001600160801b03166101c08201525b8751515f805b82156117ff575050600281811c916001808216149190811614808061159b5750815b156117ef5760c08401515f90815260208e905260409020546001600160a01b03166101e08501819052156117ef576101e08401516001600160a01b03165f90815260208f815260409182902082518083018452815490819052909261ffff80831693601084901c8216939081901c82169260ff603083901c169291905050506060890181905260a0890192909252506080870191909152600a0a602086015260408c8101516101e0870151915163b3596f0760e01b81526001600160a01b03928316600482015291169063b3596f0790602401602060405180830381865afa158015611689573d5f5f3e3d5ffd5b505050506040513d601f19601f820116820180604052508101906116ad9190613260565b855260a0850151158015906116bf5750815b156117ba576116db8c6020015182875f01518860200151612631565b60408601819052610100860180516116f49083906133e7565b90525060608c015160ff161580159061171b575061171b856101c001518660c00151611bd6565b151561022086015260808501511561177157846102200151611741578460800151611748565b8461018001515b856040015161175791906133d0565b856101400181815161176991906133e7565b90525061177a565b60016102008601525b84610220015161178e578460a00151611795565b846101a001515b85604001516117a491906133d0565b85610160018181516117b691906133e7565b9052505b82156117ed576117d78c6020015182875f0151886020015161269e565b85610120018181516117e991906133e7565b9052505b505b60c0840180516001019052611579565b610120840151156118395761271061182a8561012001518661016001516126f790919063ffffffff16565b6118349190613241565b61183c565b5f195b60e08501526101008401515f03611853575f61186e565b8361010001518461014001518161186c5761186c613219565b045b6101408501526101008401515f03611886575f6118a1565b8361010001518461016001518161189f5761189f613219565b045b610160850181905261010085015161012086015161014087015160e088015161020090980151929d50909b5099509097509395509293505050505b9499939850945094509450565b5f61105b838361272c565b5f61105b8383612752565b6040805160a0810182525f808252602082018190529181018290526060810182905260808101919091528160a001516001600160a01b031682608001516001600160a01b031603611963576040516344511af160e01b815260040160405180910390fd5b6040805160208082018352865491829052671000000000000000808316151591850191909152600160381b918216158015808652865161012001515192831615156060870152919092161515928401929092526119c1575080604001515b6119de576040516324335bc960e21b815260040160405180910390fd5b80602001511580156119f257508060600151155b611a0f576040516334dfd7c760e21b815260040160405180910390fd5b60608201516001600160a01b03161580611a345750670d2f13f7789f00008260400151105b80611a9e575081606001516001600160a01b0316637a5d20ea6040518163ffffffff1660e01b8152600401602060405180830381865afa158015611a7a573d5f5f3e3d5ffd5b505050506040513d601f19601f82011682018060405250810190611a9e91906132a8565b611abb57604051639103700960e01b815260040160405180910390fd5b600384015464ffffffffff428116600160b81b90920416108015611af35750600383015464ffffffffff428116600160b81b90920416105b611b10576040516304f1f30360e51b815260040160405180910390fd5b670de0b6b3a7640000826040015110611b3c5760405163930bb77160e01b815260040160405180910390fd5b604080516020810190915284549081905260101c61ffff1615801590611b8557506003840154604080516020810190915286548152611b8591600160a81b900461ffff16611064565b151560808201819052611bab576040516312f36b9d60e31b815260040160405180910390fd5b81602001515f03611bcf57604051633653732b60e01b815260040160405180910390fd5b5050505050565b5f60808210611bf8576040516385e98beb60e01b815260040160405180910390fd5b506001600160801b0391909116901c600116151590565b5f81611c19575f5ffd5b825f1904841115831517611c2b575f5ffd5b50910281810491900615150190565b5f81156113881983900484111517611c50575f5ffd5b506127109102611388010490565b5f5f5f5f611ca86040518061012001604052805f81526020015f81526020015f81526020015f81526020015f81526020015f81526020015f81526020015f81526020015f81525090565b61010081018c90528c5160981c61ffff1660a0820152611cc8898d6133d0565b8b611cd38a8d6133d0565b611cdd91906133d0565b611ce79190613241565b60208201819052611cf89087611c3a565b808252871015611d515760608101879052611d4786611d178d8d6133d0565b8b8460600151856101000151611d2d91906133d0565b611d3791906133d0565b611d419190613241565b90612780565b6080820152611d60565b80516060820152608081018890525b8a8161010001518260600151611d7691906133d0565b611d809190613241565b60e082015260a081015115611ddf576060810151611d9e90876127c3565b8160600151611dad91906133fa565b6040820181905260a0820151611dc39190611c3a565b60c08201819052606082018051611ddb9083906133fa565b9052505b6060810151608082015160c083015160e090930151919f909e50919c509a5098505050505050505050565b60018415611ecf575f83611e1e5784611e20565b855b90508a61016001516001600160a01b031663f5298aca89611e4e8e60a00151856127ec90919063ffffffff16565b60a08f01516040516001600160e01b031960e086901b1681526001600160a01b0390931660048401526024830191909152604482015260640160408051808303815f875af1158015611ea2573d5f5f3e3d5ffd5b505050506040513d601f19601f82011682018060405250810190611ec69190613469565b60208d01529150505b5f611eda85876133fa565b9050838015611ee857508015155b15611f8457611ef681611150565b60038b0180545f90611f129084906001600160801b031661344a565b92506101000a8154816001600160801b0302191690836001600160801b03160217905550866001600160a01b0316886001600160a01b03167f2bccfb3fad376d59d7accf970515eb77b2f27b082c90ed0fb15583dd5a94269983604051611f7b91815260200190565b60405180910390a35b8115611fa65760038a0154611fa6908a90600160a81b900461ffff165f6127f7565b611fb48a8c89885f8861118c565b5050505050505050505050565b6001600160a01b0381165f908152602085905260408120600901546001600160801b031690611ff0858561283b565b90505f816001600160801b0316836001600160801b031611612012575f61201c565b61201c82846132c3565b6001600160a01b0385165f908152602089905260409020909150612041908583612870565b50505050505050565b61022081015161014001518251604051630ed1279f60e11b81526001600160a01b0391821660048201525f929190911690631da24f3e90602401602060405180830381865afa15801561209f573d5f5f3e3d5ffd5b505050506040513d601f19601f820116820180604052508101906120c39190613260565b905081610220015161014001516001600160a01b031663353b7b9a8460800151855f0151856060015161210c87610220015160600151886060015161105090919063ffffffff16565b876102200151606001516040518663ffffffff1660e01b8152600401612136959493929190613277565b5f604051808303815f87803b15801561214d575f5ffd5b505af115801561215f573d5f5f3e3d5ffd5b50505050805f036120415782516001600160a01b03165f9081526020869052604090208351610220840151610120810151610140909101516121a792918b918b9186916128d3565b156121d2576003850154604085015185516121d2928492600160a81b90910461ffff16916001611097565b5050505050505050565b61220981610220015183604001515f84606001518661012001518861118c9095949392919063ffffffff16565b610220810151610140810151608084015184516060808601519401516001600160a01b039093169363b18d6afd93612242908290611050565b866102200151606001516040518663ffffffff1660e01b815260040161226c959493929190613277565b6020604051808303815f875af1158015612288573d5f5f3e3d5ffd5b505050506040513d601f19601f820116820180604052508101906122ac91906132a8565b50505050565b81545f805b82156120415750600282901c9160019081161480156123bd575f828152602087905260409020546001600160a01b031680156123bb576001600160a01b0381165f90815260208990526040812061230d90610ec8565b905061232481610120015151600160381b16151590565b156123b9576001600160a01b0382165f90815260208a90526040902061234a9082610feb565b6001600160a01b038083165f90815260208b9052604090819020608089015160a08501516101608601519351630ed1279f60e11b815282861660048201526123b99587958e94938a936123ab93919290911690631da24f3e90602401610628565b5f60018e6101200151611e0a565b505b505b8160010191506122b7565b6040516323b872dd60e01b8082526001600160a01b0385811660048401528416602483015260448201839052905f80606483828a5af161240a573d5f5f3e3d5ffd5b5061241485612abe565b611bcf5760405162461bcd60e51b815260206004820152601960248201527f475076323a206661696c6564207472616e7366657246726f6d00000000000000604482015260640161117f565b60c0810151156124cb575f61247e8260c00151836101800151612b61565b9050612497826040015182612b9c90919063ffffffff16565b606083018190526124a790611150565b6001840180546001600160801b0319166001600160801b0392909216919091179055505b805115612533575f6124e68260e00151836101800151612bdd565b90506124ff826080015182612b9c90919063ffffffff16565b60a0830181905261250f90611150565b6002840180546001600160801b0319166001600160801b0392909216919091179055505b5050565b8061010001515f03612547575050565b5f61256782608001518360a0015161255f91906133fa565b83519061272c565b90505f61258283610100015183611c3a90919063ffffffff16565b905080156122ac576125a96125a48460600151836127ec90919063ffffffff16565b611150565b6008850180545f906125c59084906001600160801b031661344a565b92506101000a8154816001600160801b0302191690836001600160801b0316021790555050505050565b5f8115744f3a68dbc8f03f243baf513267aa9a3ee524f8e02884111715612614575f5ffd5b50676765c793fa10079d601b1b9190910281810491900615150190565b5f5f8361267661264087612be9565b600488810154604051630ed1279f60e11b81526001600160a01b038c811693820193909352911690631da24f3e90602401610599565b61268091906133d0565b905082818161269157612691613219565b049150505b949350505050565b5f5f6126e06126ac86612c45565b6006870154604051630ed1279f60e11b81526001600160a01b038a8116600483015290911690631da24f3e90602401610628565b90506126ed818585611c0f565b9695505050505050565b5f8115670de0b6b3a764000060028404190484111715612715575f5ffd5b50670de0b6b3a76400009190910260028204010490565b5f815f190483111582151761273f575f5ffd5b50676765c793fa10079d601b1b91020490565b5f815f1904831115821517612765575f5ffd5b50676765c793fa10079d601b1b910281810491900615150190565b5f81157e068db8bac710cb295e9e1b089a027525460aa64c2f837b4a2339c0ebedfa43841117156127af575f5ffd5b506127109190910281810491900615150190565b5f8115612710600284041904841117156127db575f5ffd5b506127109190910260028204010490565b5f61105b8383612c9b565b60808210612818576040516385e98beb60e01b815260040160405180910390fd5b600182811b1b811561282f578354811784556122ac565b83549019169092555050565b610120820151515f9061105b9060029060301c60ff1661285b91906133fa565b61286690600a6133c5565b6125a49084613241565b6009830180546001600160801b0319166001600160801b0383169081179091556040519081526001600160a01b038316907faef84d3b40895fd58c561f3998000f0583abb992a52fbdc99ace8e8de4d676a59060200160405180910390a2505050565b81515f9060d41c64ffffffffff1615612aa7575f826001600160a01b0316637535d2466040518163ffffffff1660e01b8152600401602060405180830381865afa158015612923573d5f5f3e3d5ffd5b505050506040513d601f19601f82011682018060405250810190612947919061340d565b6001600160a01b0316630542975c6040518163ffffffff1660e01b8152600401602060405180830381865afa158015612982573d5f5f3e3d5ffd5b505050506040513d601f19601f820116820180604052508101906129a6919061340d565b9050806001600160a01b031663707cd7166040518163ffffffff1660e01b8152600401602060405180830381865afa1580156129e4573d5f5f3e3d5ffd5b505050506040513d601f19601f82011682018060405250810190612a08919061340d565b604051632474521560e21b81527fd1d2cf869016112a9af1107bcf43c3759daf22cf734aad47d0c9c726e33bc78260048201526001600160a01b038a8116602483015291909116906391d1485490604401602060405180830381865afa158015612a74573d5f5f3e3d5ffd5b505050506040513d601f19601f82011682018060405250810190612a9891906132a8565b612aa5575f9150506126ed565b505b612ab386868686612cd5565b979650505050505050565b5f612ae0565b62461bcd60e51b5f52602060045280602452508060445260645ffd5b3d8015612b1f5760208114612b5057612b1a7f475076323a206d616c666f726d6564207472616e7366657220726573756c7400601f612ac4565b612b5b565b823b612b4757612b477311d41d8c8e881b9bdd08184818dbdb9d1c9858dd60621b6014612ac4565b60019150612b5b565b3d5f5f3e5f51151591505b50919050565b5f80612b7464ffffffffff8416426133fa565b612b7e90856133d0565b6301e133809004905061269681676765c793fa10079d601b1b6133e7565b5f81156b019d971e4fe8401e740000001983900484111517612bbc575f5ffd5b50676765c793fa10079d601b1b91026b019d971e4fe8401e74000000010490565b5f61105b838342612d6e565b60038101545f90600160801b900464ffffffffff16428103612c17575050600101546001600160801b031690565b6001830154610462906001600160801b0380821691612c3f91600160801b9091041684612b61565b90612b9c565b60038101545f90600160801b900464ffffffffff16428103612c73575050600201546001600160801b031690565b6002830154610462906001600160801b0380821691612c3f91600160801b9091041684612bdd565b5f8115744f3a68dbc8f03f243baf513267aa9a3ee524f8e02884111715612cc0575f5ffd5b50676765c793fa10079d601b1b919091020490565b5f612ce2825161ffff1690565b5f03612cef57505f612696565b60408051602081019091528354908190527faaaaaaaaaaaaaaaaaaaaaaaaaaaaaaaaaaaaaaaaaaaaaaaaaaaaaaaaaaaaaaaa16612d2e57506001612696565b6040805160208101909152835481525f90612d4a908787612ddb565b50509050801580156126ed5750825160d41c64ffffffffff16159695505050505050565b5f80612d8164ffffffffff8516846133fa565b9050805f03612d9e57676765c793fa10079d601b1b915050610462565b6301e1338081860204612dc3612db78260068104612b9c565b82906002820401612b9c565b01676765c793fa10079d601b1b019150509392505050565b5f5f5f612de786612e81565b15612e6f575f612e17877faaaaaaaaaaaaaaaaaaaaaaaaaaaaaaaaaaaaaaaaaaaaaaaaaaaaaaaaaaaaaaaa612ec4565b5f81815260208781526040808320546001600160a01b03168084528a8352818420825193840190925290549182905292935060d41c64ffffffffff1690508015612e6b57600195509093509150612e789050565b5050505b505f9150819050805b93509350939050565b80515f907faaaaaaaaaaaaaaaaaaaaaaaaaaaaaaaaaaaaaaaaaaaaaaaaaaaaaaaaaaaaaaaa1680158015906104625750612ebc6001826133fa565b161592915050565b81515f9082165f198101198116825b60029190911c908115612ee857600101612ed3565b95945050505050565b6040518061024001604052805f81526020015f81526020015f81526020015f81526020015f81526020015f81526020015f81526020015f81526020015f81526020015f81526020015f81526020015f81526020015f81526020015f81526020015f81526020015f8152602001612f65612f77565b8152602001612f72612f77565b905290565b604051806101a001604052805f81526020015f81526020015f81526020015f81526020015f81526020015f81526020015f81526020015f81526020015f8152602001612fce60405180602001604052805f81525090565b81525f602082018190526040820181905260609091015290565b604051610140810167ffffffffffffffff8111828210171561301857634e487b7160e01b5f52604160045260245ffd5b60405290565b6001600160a01b0381168114613032575f5ffd5b50565b80356130408161301e565b919050565b5f5f5f83850360c0811215613058575f5ffd5b84359350602085013592506080603f1982011215613074575f5ffd5b506040516080810167ffffffffffffffff811182821017156130a457634e487b7160e01b5f52604160045260245ffd5b60409081528501356130b58161301e565b815260608501356130c58161301e565b602082015260808501356130d88161301e565b604082015260a094909401356060850152509093909250565b8015158114613032575f5ffd5b8035613040816130f1565b803560ff81168114613040575f5ffd5b5f5f5f5f5f8587036101c081121561312f575f5ffd5b86359550602087013594506040870135935060608701359250610140607f198201121561315a575f5ffd5b50613163612fe8565b61316f60808801613035565b815260a0870135602082015261318760c08801613035565b604082015261319860e08801613035565b60608201526131aa6101008801613035565b60808201526131bc61012088016130fe565b60a08201526131ce6101408801613035565b60c08201526131e06101608801613109565b60e08201526131f26101808801613035565b6101008201526132056101a08801613035565b610120820152809150509295509295909350565b634e487b7160e01b5f52601260045260245ffd5b634e487b7160e01b5f52601160045260245ffd5b5f8261325b57634e487b7160e01b5f52601260045260245ffd5b500490565b5f60208284031215613270575f5ffd5b5051919050565b6001600160a01b03958616815293909416602084015260408301919091526060820152608081019190915260a00190565b5f602082840312156132b8575f5ffd5b8151610462816130f1565b6001600160801b03828116828216039081111561105e5761105e61322d565b6001815b600184111561331d578085048111156133015761330161322d565b600184161561330f57908102905b60019390931c9280026132e6565b935093915050565b5f826133335750600161105e565b8161333f57505f61105e565b8160018114613355576002811461335f5761337b565b600191505061105e565b60ff8411156133705761337061322d565b50506001821b61105e565b5060208310610133831016604e8410600b841016171561339e575081810a61105e565b6133aa5f1984846132e2565b805f19048211156133bd576133bd61322d565b029392505050565b5f61105b8383613325565b808202811582820484141761105e5761105e61322d565b8082018082111561105e5761105e61322d565b8181038181111561105e5761105e61322d565b5f6020828403121561341d575f5ffd5b81516104628161301e565b5f5f60408385031215613439575f5ffd5b505080516020909101519092909150565b6001600160801b03818116838216019081111561105e5761105e61322d565b5f5f6040838503121561347a575f5ffd5b8251613485816130f1565b602093909301519294929350505056fea164736f6c634300081b000a611fcd610034600b8282823980515f1a607314602857634e487b7160e01b5f525f60045260245ffd5b305f52607381538281f3fe730000000000000000000000000000000000000000301460806040526004361061009b575f3560e01c806369fc1bdf1161006e57806369fc1bdf146101435780636ae438131461017257806387b322b2146101cf5780639cf57023146101ee578063d49341531461020d575f5ffd5b80631e3b41451461009f57806326ec273f146100c057806341a8c05e1461010557806348c2ca8c14610124575b5f5ffd5b8180156100aa575f5ffd5b506100be6100b9366004611b18565b61022c565b005b6100d36100ce366004611bd5565b6102a1565b604080519687526020870195909552938501929092526060840152608083015260a082015260c0015b60405180910390f35b818015610110575f5ffd5b506100be61011f366004611c7f565b6102db565b81801561012f575f5ffd5b506100be61013e366004611cb8565b6102fb565b81801561014e575f5ffd5b5061016261015d366004611d43565b610466565b60405190151581526020016100fc565b81801561017d575f5ffd5b506100be61018c366004611dd8565b6001600160a01b039091165f9081526020929092526040909120600301805464ffffffffff909216600160b81b0264ffffffffff60b81b19909216919091179055565b8180156101da575f5ffd5b506100be6101e9366004611e1e565b610666565b8180156101f9575f5ffd5b506100be610208366004611e58565b61067f565b818015610218575f5ffd5b506100be610227366004611e81565b610741565b6001600160a01b0381165f9081526020838152604091829020825191820190925290549081905260d41c64ffffffffff161561027b5760405163495f404160e01b815260040160405180910390fd5b6001600160a01b0381165f90815260208390526040812061029d918390610757565b5050565b5f5f5f5f5f5f6102b38a8a8a8a6107ba565b50939950919750909450925090506102cc868684610c64565b93509499939850945094509450565b5f6102e584610c95565b90506102f58482855f8087610db8565b50505050565b5f5b818110156102f5575f83838381811061031857610318611e98565b905060200201602081019061032d9190611eac565b6001600160a01b0381165f90815260208781526040918290208251918201909252815490819052919250906701000000000000001661036d57505061045e565b60088101546001600160801b0316801561045a576008820180546001600160801b03191690555f61039d8361106b565b90505f6103aa83836110cd565b600480860154604051637df5bd3b60e01b81529293506001600160a01b031691637df5bd3b916103e7918791879101918252602082015260400190565b5f604051808303815f87803b1580156103fe575f5ffd5b505af1158015610410573d5f5f3e3d5ffd5b50505050846001600160a01b03167fbfa21aa5d5f9a1f0120a95e7c0749f389863cbdbfff531aa7339077a5bc919de8260405161044f91815260200190565b60405180910390a250505b5050505b6001016102fd565b80515f903b61048857604051636f7c43f160e01b815260040160405180910390fd5b60208083015160408085015185516001600160a01b03165f9081529388905292206104b5929091906110e1565b81516001600160a01b03165f90815260208590526040812060030154600160a81b900461ffff16151580610503575082515f808052602086905260409020546001600160a01b039081169116145b905080156105245760405163aecc208560e01b815260040160405180910390fd5b5f5b836060015161ffff168161ffff1610156105c65761ffff81165f908152602086905260409020546001600160a01b03166105be5783516001600160a01b039081165f90815260208881526040808320600301805461ffff60a81b1916600160a81b61ffff97909716968702179055875194835290889052812080546001600160a01b03191693909216929092179055915061065f9050565b600101610526565b50826080015161ffff16836060015161ffff16106105f75760405163491d4a3360e11b815260040160405180910390fd5b505060608101805182516001600160a01b039081165f90815260208781526040808320600301805461ffff60a81b1916600160a81b61ffff978816021790558651955190941682528690529190912080546001600160a01b0319169290911691909117905560015b9392505050565b61067a6001600160a01b0384168383611170565b505050565b6001600160a01b0381165f9081526020849052604090206106a18382846111fd565b506001600160a01b03165f81815260208481526040808320600381018054600160a81b900461ffff16855295835290832080546001600160a01b0319908116909155938352949052808455600184018190556002840181905582546001600160e01b031916909255600483018054821690556005830180548216905560068301805482169055600783018054909116905560088201819055600990910155565b5f61074b82610c95565b905061029d82826113aa565b6009830180546001600160801b0319166001600160801b0383169081179091556040519081526001600160a01b038316907faef84d3b40895fd58c561f3998000f0583abb992a52fbdc99ace8e8de4d676a59060200160405180910390a2505050565b5f5f5f5f5f5f6107cc875f0151511590565b156107e857505f94508493508392508291505f19905081610c57565b61087a6040518061024001604052805f81526020015f81526020015f81526020015f81526020015f81526020015f81526020015f81526020015f81526020015f81526020015f81526020015f81526020015f81526020015f81526020015f81526020015f6001600160801b031681526020015f6001600160a01b031681526020015f151581526020015f151581525090565b606088015160ff16156108ee5760608801805160ff9081165f90815260208c815260408083205461ffff9081166101808801528551851684528e835281842054620100009004166101a087015293519092168152908b90522054660100000000000090046001600160801b03166101c08201525b8751515f805b8215610b7a575050600281811c91600180821614919081161480806109165750815b15610b6a5760c08401515f90815260208e905260409020546001600160a01b03166101e0850181905215610b6a576101e08401516001600160a01b03165f90815260208f815260409182902082518083018452815490819052909261ffff80831693601084901c8216939081901c82169260ff603083901c169291905050506060890181905260a0890192909252506080870191909152600a0a602086015260408c8101516101e0870151915163b3596f0760e01b81526001600160a01b03928316600482015291169063b3596f0790602401602060405180830381865afa158015610a04573d5f5f3e3d5ffd5b505050506040513d601f19601f82011682018060405250810190610a289190611ec5565b855260a085015115801590610a3a5750815b15610b3557610a568c6020015182875f0151886020015161140f565b6040860181905261010086018051610a6f908390611ef0565b90525060608c015160ff1615801590610a965750610a96856101c001518660c001516114ba565b1515610220860152608085015115610aec57846102200151610abc578460800151610ac3565b8461018001515b8560400151610ad29190611f03565b8561014001818151610ae49190611ef0565b905250610af5565b60016102008601525b846102200151610b09578460a00151610b10565b846101a001515b8560400151610b1f9190611f03565b8561016001818151610b319190611ef0565b9052505b8215610b6857610b528c6020015182875f015188602001516114f3565b8561012001818151610b649190611ef0565b9052505b505b60c08401805160010190526108f4565b61012084015115610bb457612710610ba585610120015186610160015161158c90919063ffffffff16565b610baf9190611f2e565b610bb7565b5f195b60e08501526101008401515f03610bce575f610be9565b83610100015184610140015181610be757610be7611f1a565b045b6101408501526101008401515f03610c01575f610c1c565b83610100015184610160015181610c1a57610c1a611f1a565b045b610160850181905261010085015161012086015161014087015160e088015161020090980151929d50909b5099509097509395509293505050505b9499939850945094509450565b5f80610c7085846115c1565b9050838111610c82575f91505061065f565b610c8c8482611f4d565b95945050505050565b610c9d611a8c565b610ca5611a8c565b6040805160208101825284548152610120830181905251901c61ffff1661010082015260018301546001600160801b0380821660608401819052604080850191909152600286015480831660a086018190526080860152600160801b93849004831660c086015283900490911660e08401526004808601546001600160a01b03908116610140860152600687015416610160850181905260038701549390930464ffffffffff16610180850152815163b1bf962d60e01b8152915163b1bf962d9280830192602092918290030181865afa158015610d85573d5f5f3e3d5ffd5b505050506040513d601f19601f82011682018060405250810190610da99190611ec5565b60208201819052815292915050565b5f610dd48660a0015187602001516115de90919063ffffffff16565b60408051610100808201835260038b01546001600160801b0390811683526020830189905282840188905260608301859052908a015160808301526001600160a01b0389811660a0840152600160c084015260088c0154600160801b900490911660e0830152915163b90db31b60e01b81529293505f92839286169163b90db31b91610ebd9190600401815181526020808301519082015260408083015190820152606080830151908201526080808301519082015260a0808301516001600160a01b03169082015260c08083015115159082015260e091820151918101919091526101000190565b6040805180830381865afa158015610ed7573d5f5f3e3d5ffd5b505050506040513d601f19601f82011682018060405250810190610efb9190611f60565b91509150610f08826115e9565b60018a0180546001600160801b03928316600160801b029216919091179055610f30816115e9565b60028a0180546001600160801b03928316600160801b0292169190911790558515610fa757610f5e866115e9565b60088a018054601090610f82908490600160801b90046001600160801b0316611f82565b92506101000a8154816001600160801b0302191690836001600160801b031602179055505b8415610fff57610fb6856115e9565b60088a018054601090610fda908490600160801b90046001600160801b0316611fa1565b92506101000a8154816001600160801b0302191690836001600160801b031602179055505b60608881015160a0808b0151604080518781525f602082015280820187905294850193909352608084015290516001600160a01b038a16927f804c9b842b2748a22bb64b345453a3de7ca54a6ca45ce00d415894979e22897a92908290030190a2505050505050505050565b60038101545f90600160801b900464ffffffffff16428103611099575050600101546001600160801b031690565b600183015461065f906001600160801b03808216916110c191600160801b9091041684611620565b90611663565b50919050565b5f6110d883836116a4565b90505b92915050565b60048301546001600160a01b03161561110d5760405163d71b1fd160e01b815260040160405180910390fd5b600183018054676765c793fa10079d601b1b6001600160801b0319918216811790925560028501805490911690911790556004830180546001600160a01b03199081166001600160a01b0394851617909155600690930180549093169116179055565b60405163a9059cbb60e01b8082526001600160a01b038416600483015260248201839052905f8060448382895af16111aa573d5f5f3e3d5ffd5b506111b4846116ca565b6102f55760405162461bcd60e51b815260206004820152601560248201527423a83b191d103330b4b632b2103a3930b739b332b960591b60448201526064015b60405180910390fd5b6001600160a01b03811661122457604051633bf95ba760e01b815260040160405180910390fd5b6003820154600160a81b900461ffff1615158061125957505f808052602084905260409020546001600160a01b038281169116145b6112765760405163b77e1e0f60e01b815260040160405180910390fd5b816006015f9054906101000a90046001600160a01b03166001600160a01b03166318160ddd6040518163ffffffff1660e01b8152600401602060405180830381865afa1580156112c8573d5f5f3e3d5ffd5b505050506040513d601f19601f820116820180604052508101906112ec9190611ec5565b1561130a5760405163dd04d59360e01b815260040160405180910390fd5b600480830154604080516318160ddd60e01b815290516001600160a01b03909216926318160ddd9282820192602092908290030181865afa158015611351573d5f5f3e3d5ffd5b505050506040513d601f19601f820116820180604052508101906113759190611ec5565b15801561138d575060088201546001600160801b0316155b61067a5760405163c26e71fb60e01b815260040160405180910390fd5b4264ffffffffff1681610180015164ffffffffff16036113c8575050565b6113d2828261176b565b6113dc8282611843565b6003909101805464ffffffffff4216600160801b810264ffffffffff60801b199092169190911790915561018090910152565b5f5f8361149461141e8761106b565b600488810154604051630ed1279f60e11b81526001600160a01b038c811693820193909352911690631da24f3e90602401602060405180830381865afa15801561146a573d5f5f3e3d5ffd5b505050506040513d601f19601f8201168201806040525081019061148e9190611ec5565b906110cd565b61149e9190611f03565b90508281816114af576114af611f1a565b049695505050505050565b5f608082106114dc576040516385e98beb60e01b815260040160405180910390fd5b506001600160801b0391909116901c600116151590565b5f5f611575611501866118fb565b6006870154604051630ed1279f60e11b81526001600160a01b038a8116600483015290911690631da24f3e90602401602060405180830381865afa15801561154b573d5f5f3e3d5ffd5b505050506040513d601f19601f8201168201806040525081019061156f9190611ec5565b906115de565b9050611582818585611951565b9695505050505050565b5f8115670de0b6b3a7640000600284041904841117156115aa575f5ffd5b50670de0b6b3a76400009190910260028204010490565b5f815f19048311158215176115d4575f5ffd5b5061271091020490565b5f6110d8838361197c565b5f6001600160801b0382111561161c576040516306dfcc6560e41b815260806004820152602481018390526044016111f4565b5090565b5f8061163364ffffffffff841642611f4d565b61163d9085611f03565b6301e133809004905061165b81676765c793fa10079d601b1b611ef0565b949350505050565b5f81156b019d971e4fe8401e740000001983900484111517611683575f5ffd5b50676765c793fa10079d601b1b91026b019d971e4fe8401e74000000010490565b5f815f19048311158215176116b7575f5ffd5b50676765c793fa10079d601b1b91020490565b5f6116ec565b62461bcd60e51b5f52602060045280602452508060445260645ffd5b3d801561172b576020811461175c576117267f475076323a206d616c666f726d6564207472616e7366657220726573756c7400601f6116d0565b6110c7565b823b611753576117537311d41d8c8e881b9bdd08184818dbdb9d1c9858dd60621b60146116d0565b600191506110c7565b3d5f5f3e50505f511515919050565b60c0810151156117d6575f6117898260c00151836101800151611620565b90506117a282604001518261166390919063ffffffff16565b606083018190526117b2906115e9565b6001840180546001600160801b0319166001600160801b0392909216919091179055505b80511561029d575f6117f18260e001518361018001516119aa565b905061180a82608001518261166390919063ffffffff16565b60a0830181905261181a906115e9565b6002840180546001600160801b03929092166001600160801b0319909216919091179055505050565b8061010001515f03611853575050565b5f61187382608001518360a0015161186b9190611f4d565b8351906116a4565b90505f61188e836101000151836119b690919063ffffffff16565b905080156102f5576118b56118b08460600151836119da90919063ffffffff16565b6115e9565b6008850180545f906118d19084906001600160801b0316611f82565b92506101000a8154816001600160801b0302191690836001600160801b0316021790555050505050565b60038101545f90600160801b900464ffffffffff16428103611929575050600201546001600160801b031690565b600283015461065f906001600160801b03808216916110c191600160801b90910416846119aa565b5f8161195b575f5ffd5b825f190484111583151761196d575f5ffd5b50910281810491900615150190565b5f815f190483111582151761198f575f5ffd5b50676765c793fa10079d601b1b910281810491900615150190565b5f6110d88383426119e5565b5f811561138819839004841115176119cc575f5ffd5b506127109102611388010490565b5f6110d88383611a52565b5f806119f864ffffffffff851684611f4d565b9050805f03611a1557676765c793fa10079d601b1b91505061065f565b6301e1338081860204611a3a611a2e8260068104611663565b82906002820401611663565b01676765c793fa10079d601b1b019150509392505050565b5f8115744f3a68dbc8f03f243baf513267aa9a3ee524f8e02884111715611a77575f5ffd5b50676765c793fa10079d601b1b919091020490565b604051806101a001604052805f81526020015f81526020015f81526020015f81526020015f81526020015f81526020015f81526020015f81526020015f8152602001611ae360405180602001604052805f81525090565b81525f602082018190526040820181905260609091015290565b80356001600160a01b0381168114611b13575f5ffd5b919050565b5f5f60408385031215611b29575f5ffd5b82359150611b3960208401611afd565b90509250929050565b6040516080810167ffffffffffffffff81118282101715611b7157634e487b7160e01b5f52604160045260245ffd5b60405290565b6040516020810167ffffffffffffffff81118282101715611b7157634e487b7160e01b5f52604160045260245ffd5b60405160a0810167ffffffffffffffff81118282101715611b7157634e487b7160e01b5f52604160045260245ffd5b5f5f5f5f84860360e0811215611be9575f5ffd5b853594506020860135935060408601359250605f19016080811215611c0c575f5ffd5b611c14611b42565b6020821215611c21575f5ffd5b611c29611b77565b606088013581528082529150611c4160808801611afd565b6020820152611c5260a08801611afd565b604082015260c0870135915060ff82168214611c6c575f5ffd5b6060810191909152939692955090935050565b5f5f5f60608486031215611c91575f5ffd5b83359250611ca160208501611afd565b9150611caf60408501611afd565b90509250925092565b5f5f5f60408486031215611cca575f5ffd5b83359250602084013567ffffffffffffffff811115611ce7575f5ffd5b8401601f81018613611cf7575f5ffd5b803567ffffffffffffffff811115611d0d575f5ffd5b8660208260051b8401011115611d21575f5ffd5b939660209190910195509293505050565b803561ffff81168114611b13575f5ffd5b5f5f5f83850360e0811215611d56575f5ffd5b843593506020850135925060a0603f1982011215611d72575f5ffd5b50611d7b611ba6565b611d8760408601611afd565b8152611d9560608601611afd565b6020820152611da660808601611afd565b6040820152611db760a08601611d32565b6060820152611dc860c08601611d32565b6080820152809150509250925092565b5f5f5f60608486031215611dea575f5ffd5b83359250611dfa60208501611afd565b9150604084013564ffffffffff81168114611e13575f5ffd5b809150509250925092565b5f5f5f60608486031215611e30575f5ffd5b611e3984611afd565b9250611e4760208501611afd565b929592945050506040919091013590565b5f5f5f60608486031215611e6a575f5ffd5b8335925060208401359150611caf60408501611afd565b5f60208284031215611e91575f5ffd5b5035919050565b634e487b7160e01b5f52603260045260245ffd5b5f60208284031215611ebc575f5ffd5b6110d882611afd565b5f60208284031215611ed5575f5ffd5b5051919050565b634e487b7160e01b5f52601160045260245ffd5b808201808211156110db576110db611edc565b80820281158282048414176110db576110db611edc565b634e487b7160e01b5f52601260045260245ffd5b5f82611f4857634e487b7160e01b5f52601260045260245ffd5b500490565b818103818111156110db576110db611edc565b5f5f60408385031215611f71575f5ffd5b505080516020909101519092909150565b6001600160801b0381811683821601908111156110db576110db611edc565b6001600160801b0382811682821603908111156110db576110db611edc56fea164736f6c634300081b000a6128ed610034600b8282823980515f1a607314602857634e487b7160e01b5f525f60045260245ffd5b305f52607381538281f3fe7300000000000000000000000000000000000000003014608060405260043610610055575f3560e01c8063186dea44146100595780631913f1611461008a5780638a5dadd1146100ab578063d2309641146100ca575b5f5ffd5b818015610064575f5ffd5b506100786100733660046123d0565b6100e9565b60405190815260200160405180910390f35b818015610095575f5ffd5b506100a96100a436600461249f565b61040a565b005b8180156100b6575f5ffd5b506100a96100c5366004612558565b610617565b8180156100d5575f5ffd5b506100a96100e4366004612633565b6107d3565b6020808201516001600160a01b03165f90815290869052604081208161010e82610969565b90508061014001516001600160a01b031684608001516001600160a01b03160361014b576040516336f109cf60e21b815260040160405180910390fd5b6101558282610a8c565b6101408101518451604051630ed1279f60e11b81526001600160a01b0391821660048201525f929190911690631da24f3e90602401602060405180830381865afa1580156101a5573d5f5f3e3d5ffd5b505050506040513d601f19601f820116820180604052508101906101c991906126c1565b90505f5f5f198760600151036101f35750606083015182906101ec908290610af1565b9150610210565b6060808501519088015161020691610b05565b9050866060015191505b61021b848285610b10565b602087015160408801516102379187918791905f908790610bab565b61014084015187516080890151606087015160405163b18d6afd60e01b81526001600160a01b0393841660048201529183166024830152604482018690526064820185905260848201525f92919091169063b18d6afd9060a4016020604051808303815f875af11580156102ad573d5f5f3e3d5ffd5b505050506040513d601f19601f820116820180604052508101906102d191906126d8565b600387015460408051602081019091528b5481529192506102fd9190600160a81b900461ffff16610e5e565b1561039857801561032d5760038601546020890151895161032d928c92600160a81b90910461ffff16915f610e91565b60408051602081019091528954908190527f55555555555555555555555555555555555555555555555555555555555555551615610398576103988c8c8c8c6040518060200160405290815f820154815250508c602001518d5f01518e60a001518f60c00151610f4a565b87608001516001600160a01b0316885f01516001600160a01b031689602001516001600160a01b03167f3115d1449a7b732c986cba18244e897a450f61e1bb8d589cd2e69e6c8924f9f7866040516103f291815260200190565b60405180910390a450909a9950505050505050505050565b6020808201516001600160a01b03165f90815290859052604081209061042f82610969565b905061043b8282610a8c565b5f61045782606001518560600151610faf90919063ffffffff16565b90506104698284838760800151610fba565b60208401516060850151604086015161048792869286925f90610bab565b8351610140830151606086015160208701516104b0936001600160a01b03909116929091611188565b61014082015184516080860151606085015160405163b3f1c93d60e01b81526001600160a01b03938416600482015291831660248301526044820185905260648201525f92919091169063b3f1c93d906084016020604051808303815f875af115801561051f573d5f5f3e3d5ffd5b505050506040513d601f19601f8201168201806040525081019061054391906126d8565b9050801561059457610566855f0151898989876101200151886101400151611225565b1561059457600384015460208601516080870151610594928992600160a81b90910461ffff16916001610e91565b8460a0015161ffff1685608001516001600160a01b031686602001516001600160a01b03167f2b627736bca15cd5381dcf80b0bf11fd197d01a037c52b927a881a10fb73ba61885f015189606001516040516106059291906001600160a01b03929092168252602082015260400190565b60405180910390a45050505050505050565b80516001600160a01b03165f90815260208690526040902061063881611412565b600381015460408301516020840151600160a81b90920461ffff16916001600160a01b039182169116148015906106725750606083015115155b156107ca576020808401516001600160a01b03165f908152858252604090819020815192830190915280548252906106aa9083610e5e565b156107575783606001518460800151036106d457835160208501516106d49183918591905f610e91565b60408051602081019091528154908190527f5555555555555555555555555555555555555555555555555555555555555555161561075757602080850180516001600160a01b03165f90815287835260409081902081519384019091525482528551905160c087015160e0880151610757948d948d948d94929391929091610f4a565b8360a001515f036107c8576040808501516001600160a01b039081165f90815260208881529083902081880151845192830190945286548252600487015490936107aa9390928d928d9287929116611225565b156107c657845160408601516107c69183918691906001610e91565b505b505b50505050505050565b6001600160a01b0384165f90815260208a81526040918290208251918201909252815481526108018161144a565b600382015460408051602081019091528954815261082991600160a81b900461ffff16610e5e565b15158515150361083a5750506107c6565b841561091c57600482810154604051630ed1279f60e11b81526001600160a01b038a811693820193909352911690631da24f3e90602401602060405180830381865afa15801561088c573d5f5f3e3d5ffd5b505050506040513d601f19601f820116820180604052508101906108b091906126c1565b5f036108cf57604051635fe1037760e01b815260040160405180910390fd5b6108db8b8b8a8461149d565b6108f857604051630657e03960e11b815260040160405180910390fd5b6003820154610917908990600160a81b900461ffff16888a6001610e91565b61095c565b600382015461093a908990600160a81b900461ffff16888a5f610e91565b60408051602081019091528854815261095c908c908c908c908a8c8a8a610f4a565b5050505050505050505050565b610971612297565b610979612297565b6040805160208101825284548152610120830181905251901c61ffff1661010082015260018301546001600160801b0380821660608401819052604080850191909152600286015480831660a086018190526080860152600160801b93849004831660c086015283900490911660e08401526004808601546001600160a01b03908116610140860152600687015416610160850181905260038701549390930464ffffffffff16610180850152815163b1bf962d60e01b8152915163b1bf962d9280830192602092918290030181865afa158015610a59573d5f5f3e3d5ffd5b505050506040513d601f19601f82011682018060405250810190610a7d91906126c1565b60208201819052815292915050565b4264ffffffffff1681610180015164ffffffffff1603610aaa575050565b610ab48282611539565b610abe8282611610565b6003909101805464ffffffffff4216600160801b810264ffffffffff60801b199092169190911790915561018090910152565b5f610afc83836116c9565b90505b92915050565b5f610afc83836116ef565b815f03610b305760405163162908e360e11b815260040160405180910390fd5b80821115610b51576040516311ef12cb60e21b815260040160405180910390fd5b5f5f610b61856101200151611731565b93505050915081610b85576040516324335bc960e21b815260040160405180910390fd5b8015610ba4576040516334dfd7c760e21b815260040160405180910390fd5b5050505050565b5f610bc78660a00151876020015161176990919063ffffffff16565b60408051610100808201835260038b01546001600160801b0390811683526020830189905282840188905260608301859052908a015160808301526001600160a01b0389811660a0840152600160c084015260088c0154600160801b900490911660e0830152915163b90db31b60e01b81529293505f92839286169163b90db31b91610cb09190600401815181526020808301519082015260408083015190820152606080830151908201526080808301519082015260a0808301516001600160a01b03169082015260c08083015115159082015260e091820151918101919091526101000190565b6040805180830381865afa158015610cca573d5f5f3e3d5ffd5b505050506040513d601f19601f82011682018060405250810190610cee91906126f3565b91509150610cfb82611774565b60018a0180546001600160801b03928316600160801b029216919091179055610d2381611774565b60028a0180546001600160801b03928316600160801b0292169190911790558515610d9a57610d5186611774565b60088a018054601090610d75908490600160801b90046001600160801b0316612729565b92506101000a8154816001600160801b0302191690836001600160801b031602179055505b8415610df257610da985611774565b60088a018054601090610dcd908490600160801b90046001600160801b0316612748565b92506101000a8154816001600160801b0302191690836001600160801b031602179055505b60608881015160a0808b0151604080518781525f602082015280820187905294850193909352608084015290516001600160a01b038a16927f804c9b842b2748a22bb64b345453a3de7ca54a6ca45ce00d415894979e22897a92908290030190a2505050505050505050565b5f60808210610e80576040516385e98beb60e01b815260040160405180910390fd5b509051600191821b82011c16151590565b60808410610eb2576040516385e98beb60e01b815260040160405180910390fd5b600184811b81011b8115610f02578554811786556040516001600160a01b0380851691908616907e058a56ea94653cdf4f152d227ace22d4c00ad99e2a43f58cb7d9e3feb295f2905f90a3610f42565b855481191686556040516001600160a01b0380851691908616907f44c58d81365b66dd4b1a7f36c25aa97b8c71c361ee4937adc1a00000227db5dd905f90a35b505050505050565b5f610f5a898989898887896117ab565b915050801580610f9257506001600160a01b0385165f90815260208a8152604091829020825191820190925290549081905261ffff16155b6107c657604051635b263df760e01b815260040160405180910390fd5b5f610afc8383611831565b815f03610fda5760405163162908e360e11b815260040160405180910390fd5b5f5f5f610feb876101200151611731565b9350509250925082611010576040516324335bc960e21b815260040160405180910390fd5b801561102f576040516334dfd7c760e21b815260040160405180910390fd5b811561104e57604051636d30581560e01b815260040160405180910390fd5b8661014001516001600160a01b0316846001600160a01b031603611085576040516318d2badf60e01b815260040160405180910390fd5b6101208701515160741c640fffffffff1680158061116b57506101208801515160301c60ff166110b690600a61284a565b6110c09082612855565b6111688960600151896008015f9054906101000a90046001600160801b03166001600160801b0316898c61014001516001600160a01b031663b1bf962d6040518163ffffffff1660e01b8152600401602060405180830381865afa15801561112a573d5f5f3e3d5ffd5b505050506040513d601f19601f8201168201806040525081019061114e91906126c1565b611158919061286c565b611162919061286c565b90610af1565b11155b6107c857604051637ac7b99d60e11b815260040160405180910390fd5b6040516323b872dd60e01b8082526001600160a01b0385811660048401528416602483015260448201839052905f80606483828a5af16111ca573d5f5f3e3d5ffd5b506111d48561186b565b610ba45760405162461bcd60e51b815260206004820152601960248201527f475076323a206661696c6564207472616e7366657246726f6d0000000000000060448201526064015b60405180910390fd5b81515f9060d41c64ffffffffff16156113f9575f826001600160a01b0316637535d2466040518163ffffffff1660e01b8152600401602060405180830381865afa158015611275573d5f5f3e3d5ffd5b505050506040513d601f19601f82011682018060405250810190611299919061287f565b6001600160a01b0316630542975c6040518163ffffffff1660e01b8152600401602060405180830381865afa1580156112d4573d5f5f3e3d5ffd5b505050506040513d601f19601f820116820180604052508101906112f8919061287f565b9050806001600160a01b031663707cd7166040518163ffffffff1660e01b8152600401602060405180830381865afa158015611336573d5f5f3e3d5ffd5b505050506040513d601f19601f8201168201806040525081019061135a919061287f565b604051632474521560e21b81527fd1d2cf869016112a9af1107bcf43c3759daf22cf734aad47d0c9c726e33bc78260048201526001600160a01b038a8116602483015291909116906391d1485490604401602060405180830381865afa1580156113c6573d5f5f3e3d5ffd5b505050506040513d601f19601f820116820180604052508101906113ea91906126d8565b6113f7575f915050611408565b505b6114058686868661149d565b90505b9695505050505050565b60408051602081019091528154908190526001603c1b1615611447576040516334dfd7c760e21b815260040160405180910390fd5b50565b5f5f61145583611731565b93505050915081611479576040516324335bc960e21b815260040160405180910390fd5b8015611498576040516334dfd7c760e21b815260040160405180910390fd5b505050565b5f6114aa825161ffff1690565b5f036114b757505f611531565b60408051602081019091528354908190527faaaaaaaaaaaaaaaaaaaaaaaaaaaaaaaaaaaaaaaaaaaaaaaaaaaaaaaaaaaaaaaa166114f657506001611531565b6040805160208101909152835481525f9061151290878761190e565b505090508015801561152d5750825160d41c64ffffffffff16155b9150505b949350505050565b60c0810151156115a4575f6115578260c001518361018001516119b4565b90506115708260400151826119ef90919063ffffffff16565b6060830181905261158090611774565b6001840180546001600160801b0319166001600160801b0392909216919091179055505b80511561160c575f6115bf8260e00151836101800151611a30565b90506115d88260800151826119ef90919063ffffffff16565b60a083018190526115e890611774565b6002840180546001600160801b0319166001600160801b0392909216919091179055505b5050565b8061010001515f03611620575050565b5f61164082608001518360a00151611638919061289a565b8351906116c9565b90505f61165b83610100015183611a3c90919063ffffffff16565b905080156116c35761168261167d846060015183610faf90919063ffffffff16565b611774565b6008850180545f9061169e9084906001600160801b0316612729565b92506101000a8154816001600160801b0302191690836001600160801b031602179055505b50505050565b5f815f19048311158215176116dc575f5ffd5b50676765c793fa10079d601b1b91020490565b5f8115744f3a68dbc8f03f243baf513267aa9a3ee524f8e02884111715611714575f5ffd5b50676765c793fa10079d601b1b9190910281810491900615150190565b516701000000000000008116151591670200000000000000821615159167040000000000000081161515916001603c1b909116151590565b5f610afc8383611a60565b5f6001600160801b038211156117a7576040516306dfcc6560e41b8152608060048201526024810183905260440161121c565b5090565b5f5f5f5f6117f08b8b8b60405180608001604052808d81526020018c6001600160a01b031681526020018a6001600160a01b031681526020018b60ff16815250611a8e565b9550955050505050670de0b6b3a764000082101561182157604051636679996d60e01b815260040160405180910390fd5b909a909950975050505050505050565b5f8115744f3a68dbc8f03f243baf513267aa9a3ee524f8e02884111715611856575f5ffd5b50676765c793fa10079d601b1b919091020490565b5f61188d565b62461bcd60e51b5f52602060045280602452508060445260645ffd5b3d80156118cc57602081146118fd576118c77f475076323a206d616c666f726d6564207472616e7366657220726573756c7400601f611871565b611908565b823b6118f4576118f47311d41d8c8e881b9bdd08184818dbdb9d1c9858dd60621b6014611871565b60019150611908565b3d5f5f3e5f51151591505b50919050565b5f5f5f61191a86611f38565b156119a2575f61194a877faaaaaaaaaaaaaaaaaaaaaaaaaaaaaaaaaaaaaaaaaaaaaaaaaaaaaaaaaaaaaaaa611f7e565b5f81815260208781526040808320546001600160a01b03168084528a8352818420825193840190925290549182905292935060d41c64ffffffffff169050801561199e576001955090935091506119ab9050565b5050505b505f9150819050805b93509350939050565b5f806119c764ffffffffff84164261289a565b6119d19085612855565b6301e133809004905061153181676765c793fa10079d601b1b61286c565b5f81156b019d971e4fe8401e740000001983900484111517611a0f575f5ffd5b50676765c793fa10079d601b1b91026b019d971e4fe8401e74000000010490565b5f610afc838342611fab565b5f81156113881983900484111517611a52575f5ffd5b506127109102611388010490565b5f815f1904831115821517611a73575f5ffd5b50676765c793fa10079d601b1b910281810491900615150190565b5f5f5f5f5f5f611aa0875f0151511590565b15611abc57505f94508493508392508291505f19905081611f2b565b611b4e6040518061024001604052805f81526020015f81526020015f81526020015f81526020015f81526020015f81526020015f81526020015f81526020015f81526020015f81526020015f81526020015f81526020015f81526020015f81526020015f6001600160801b031681526020015f6001600160a01b031681526020015f151581526020015f151581525090565b606088015160ff1615611bc25760608801805160ff9081165f90815260208c815260408083205461ffff9081166101808801528551851684528e835281842054620100009004166101a087015293519092168152908b90522054660100000000000090046001600160801b03166101c08201525b8751515f805b8215611e4e575050600281811c9160018082161491908116148080611bea5750815b15611e3e5760c08401515f90815260208e905260409020546001600160a01b03166101e0850181905215611e3e576101e08401516001600160a01b03165f90815260208f815260409182902082518083018452815490819052909261ffff80831693601084901c8216939081901c82169260ff603083901c169291905050506060890181905260a0890192909252506080870191909152600a0a602086015260408c8101516101e0870151915163b3596f0760e01b81526001600160a01b03928316600482015291169063b3596f0790602401602060405180830381865afa158015611cd8573d5f5f3e3d5ffd5b505050506040513d601f19601f82011682018060405250810190611cfc91906126c1565b855260a085015115801590611d0e5750815b15611e0957611d2a8c6020015182875f01518860200151612018565b6040860181905261010086018051611d4390839061286c565b90525060608c015160ff1615801590611d6a5750611d6a856101c001518660c001516120bd565b1515610220860152608085015115611dc057846102200151611d90578460800151611d97565b8461018001515b8560400151611da69190612855565b8561014001818151611db8919061286c565b905250611dc9565b60016102008601525b846102200151611ddd578460a00151611de4565b846101a001515b8560400151611df39190612855565b8561016001818151611e05919061286c565b9052505b8215611e3c57611e268c6020015182875f015188602001516120f6565b8561012001818151611e38919061286c565b9052505b505b60c0840180516001019052611bc8565b61012084015115611e8857612710611e7985610120015186610160015161218590919063ffffffff16565b611e8391906128c1565b611e8b565b5f195b60e08501526101008401515f03611ea2575f611ebd565b83610100015184610140015181611ebb57611ebb6128ad565b045b6101408501526101008401515f03611ed5575f611ef0565b83610100015184610160015181611eee57611eee6128ad565b045b610160850181905261010085015161012086015161014087015160e088015161020090980151929d50909b5099509097509395509293505050505b9499939850945094509450565b80515f907faaaaaaaaaaaaaaaaaaaaaaaaaaaaaaaaaaaaaaaaaaaaaaaaaaaaaaaaaaaaaaaa168015801590611f775750611f7360018261289a565b8116155b9392505050565b81515f9082165f198101198116825b60029190911c908115611fa257600101611f8d565b95945050505050565b5f80611fbe64ffffffffff85168461289a565b9050805f03611fdb57676765c793fa10079d601b1b915050611f77565b6301e1338081860204612000611ff482600681046119ef565b829060028204016119ef565b01676765c793fa10079d601b1b019150509392505050565b5f5f83612097612027876121ba565b600488810154604051630ed1279f60e11b81526001600160a01b038c811693820193909352911690631da24f3e90602401602060405180830381865afa158015612073573d5f5f3e3d5ffd5b505050506040513d601f19601f8201168201806040525081019061116291906126c1565b6120a19190612855565b90508281816120b2576120b26128ad565b049695505050505050565b5f608082106120df576040516385e98beb60e01b815260040160405180910390fd5b506001600160801b0391909116901c600116151590565b5f5f61217861210486612216565b6006870154604051630ed1279f60e11b81526001600160a01b038a8116600483015290911690631da24f3e90602401602060405180830381865afa15801561214e573d5f5f3e3d5ffd5b505050506040513d601f19601f8201168201806040525081019061217291906126c1565b90611769565b905061152d81858561226c565b5f8115670de0b6b3a7640000600284041904841117156121a3575f5ffd5b50670de0b6b3a76400009190910260028204010490565b60038101545f90600160801b900464ffffffffff164281036121e8575050600101546001600160801b031690565b6001830154611f77906001600160801b038082169161221091600160801b90910416846119b4565b906119ef565b60038101545f90600160801b900464ffffffffff16428103612244575050600201546001600160801b031690565b6002830154611f77906001600160801b038082169161221091600160801b9091041684611a30565b5f81612276575f5ffd5b825f1904841115831517612288575f5ffd5b50910281810491900615150190565b604051806101a001604052805f81526020015f81526020015f81526020015f81526020015f81526020015f81526020015f81526020015f81526020015f81526020016122ee60405180602001604052805f81525090565b81525f602082018190526040820181905260609091015290565b60405160e0810167ffffffffffffffff8111828210171561233757634e487b7160e01b5f52604160045260245ffd5b60405290565b60405160c0810167ffffffffffffffff8111828210171561233757634e487b7160e01b5f52604160045260245ffd5b604051610100810167ffffffffffffffff8111828210171561233757634e487b7160e01b5f52604160045260245ffd5b6001600160a01b0381168114611447575f5ffd5b80356123bb8161239c565b919050565b803560ff811681146123bb575f5ffd5b5f5f5f5f5f8587036101608112156123e6575f5ffd5b8635955060208701359450604087013593506060870135925060e0607f1982011215612410575f5ffd5b50612419612308565b60808701356124278161239c565b815260a08701356124378161239c565b602082015260c087013561244a8161239c565b604082015260e087013560608201526101008701356124688161239c565b608082015261247a61012088016123b0565b60a082015261248c61014088016123c0565b60c0820152809150509295509295909350565b5f5f5f5f8486036101208112156124b4575f5ffd5b85359450602086013593506040860135925060c0605f19820112156124d7575f5ffd5b506124e061233d565b60608601356124ee8161239c565b815260808601356124fe8161239c565b602082015260a08601356125118161239c565b604082015260c0860135606082015260e086013561252e8161239c565b608082015261010086013561ffff81168114612548575f5ffd5b60a0820152939692955090935050565b5f5f5f5f5f85870361018081121561256e575f5ffd5b86359550602087013594506040870135935060608701359250610100607f1982011215612599575f5ffd5b506125a261236c565b60808701356125b08161239c565b81526125be60a088016123b0565b60208201526125cf60c088016123b0565b604082015260e08701356060820152610100870135608082015261012087013560a082015261260161014088016123b0565b60c082015261261361016088016123c0565b60e0820152809150509295509295909350565b8015158114611447575f5ffd5b5f5f5f5f5f5f5f5f5f6101208a8c03121561264c575f5ffd5b8935985060208a0135975060408a0135965060608a0135955060808a01356126738161239c565b945060a08a01356126838161239c565b935060c08a013561269381612626565b925060e08a01356126a38161239c565b91506126b26101008b016123c0565b90509295985092959850929598565b5f602082840312156126d1575f5ffd5b5051919050565b5f602082840312156126e8575f5ffd5b8151611f7781612626565b5f5f60408385031215612704575f5ffd5b505080516020909101519092909150565b634e487b7160e01b5f52601160045260245ffd5b6001600160801b038181168382160190811115610aff57610aff612715565b6001600160801b038281168282160390811115610aff57610aff612715565b6001815b60018411156127a25780850481111561278657612786612715565b600184161561279457908102905b60019390931c92800261276b565b935093915050565b5f826127b857506001610aff565b816127c457505f610aff565b81600181146127da57600281146127e457612800565b6001915050610aff565b60ff8411156127f5576127f5612715565b50506001821b610aff565b5060208310610133831016604e8410600b8410161715612823575081810a610aff565b61282f5f198484612767565b805f190482111561284257612842612715565b029392505050565b5f610afc83836127aa565b8082028115828204841417610aff57610aff612715565b80820180821115610aff57610aff612715565b5f6020828403121561288f575f5ffd5b8151611f778161239c565b81810381811115610aff57610aff612715565b634e487b7160e01b5f52601260045260245ffd5b5f826128db57634e487b7160e01b5f52601260045260245ffd5b50049056fea164736f6c634300081b000a","linkReferences":{"src/contracts/protocol/libraries/logic/BorrowLogic.sol":{"BorrowLogic":[{"start":3031,"length":20}]}}},"methodIdentifiers":{"getLibrariesReport()":"c3d5cff5"},"id":323}