{"abi":[{"type":"constructor","inputs":[{"name":"networkBaseTokenPriceInUsdProxyAggregator","type":"address","internalType":"address"},{"name":"marketReferenceCurrencyPriceInUsdProxyAggregator","type":"address","internalType":"address"}],"stateMutability":"nonpayable"},{"type":"function","name":"getGettersReportOne","inputs":[],"outputs":[{"name":"","type":"tuple","internalType":"struct AaveV3GettersProcedureOne.GettersReportBatchOne","components":[{"name":"walletBalanceProvider","type":"address","internalType":"address"},{"name":"uiIncentiveDataProvider","type":"address","internalType":"address"},{"name":"uiPoolDataProvider","type":"address","internalType":"address"}]}],"stateMutability":"view"}],"bytecode":{"object":"0x608060405234801561000f575f5ffd5b5060405161581738038061581783398101604081905261002e916101d3565b6100388282610086565b80515f80546001600160a01b03199081166001600160a01b03938416179091556020830151600180548316918416919091179055604090920151600280549093169116179055506102049050565b60408051606080820183525f80835260208084018290528385018290528451928301855281835282018190528184015291519091906100c490610191565b604051809103905ff0801580156100dd573d5f5f3e3d5ffd5b506001600160a01b031681526040516100f59061019e565b604051809103905ff08015801561010e573d5f5f3e3d5ffd5b506001600160a01b03908116602083015284161580159061013757506001600160a01b03831615155b1561018a57838360405161014a906101ab565b6001600160a01b03928316815291166020820152604001604051809103905ff08015801561017a573d5f5f3e3d5ffd5b506001600160a01b031660408201525b9392505050565b6109d1806102cd83390190565b6123ba80610c9e83390190565b6127bf8061305883390190565b80516001600160a01b03811681146101ce575f5ffd5b919050565b5f5f604083850312156101e4575f5ffd5b6101ed836101b8565b91506101fb602084016101b8565b90509250929050565b60bd806102105f395ff3fe6080604052348015600e575f5ffd5b50600436106026575f3560e01c80630cf19f2c14602a575b5f5ffd5b607a604080516060810182525f808252602082018190529181019190915250604080516060810182525f546001600160a01b03908116825260015481166020830152600254169181019190915290565b6040805182516001600160a01b039081168252602080850151821690830152928201519092169082015260600160405180910390f3fea164736f6c634300081b000a6080604052348015600e575f5ffd5b506109b58061001c5f395ff3fe608060405234801561000f575f5ffd5b506004361061003f575f3560e01c80630240534314610043578063b59b28ef1461006d578063f7888aec1461008d575b5f5ffd5b610056610051366004610637565b6100ae565b6040516100649291906106a8565b60405180910390f35b61008061007b366004610749565b610426565b60405161006491906107b5565b6100a061009b366004610637565b610528565b604051908152602001610064565b6060805f846001600160a01b031663026b1d5f6040518163ffffffff1660e01b8152600401602060405180830381865afa1580156100ee573d5f5f3e3d5ffd5b505050506040513d601f19601f8201168201806040525081019061011291906107ce565b90505f816001600160a01b031663d1946dbc6040518163ffffffff1660e01b81526004015f60405180830381865afa158015610150573d5f5f3e3d5ffd5b505050506040513d5f823e601f3d908101601f19168201604052610177919081019061082e565b90505f8151600161018891906108f6565b67ffffffffffffffff8111156101a0576101a06107e9565b6040519080825280602002602001820160405280156101c9578160200160208202803683370190505b5090505f5b8251811015610223578281815181106101e9576101e9610909565b602002602001015182828151811061020357610203610909565b6001600160a01b03909216602092830291909101909101526001016101ce565b5073eeeeeeeeeeeeeeeeeeeeeeeeeeeeeeeeeeeeeeee8183518151811061024c5761024c610909565b60200260200101906001600160a01b031690816001600160a01b0316815250505f815167ffffffffffffffff811115610287576102876107e9565b6040519080825280602002602001820160405280156102b0578160200160208202803683370190505b5090505f5b83518110156103da575f856001600160a01b031663c44b11f78584815181106102e0576102e0610909565b60200260200101516040518263ffffffff1660e01b815260040161031391906001600160a01b0391909116815260200190565b602060405180830381865afa15801561032e573d5f5f3e3d5ffd5b505050506040513d601f19601f82011682018060405250810190610352919061091d565b80519091506701000000000000001615158061038e575f84848151811061037b5761037b610909565b60200260200101818152505050506103d2565b6103b18a8685815181106103a4576103a4610909565b6020026020010151610528565b8484815181106103c3576103c3610909565b60200260200101818152505050505b6001016102b5565b506103f98773eeeeeeeeeeeeeeeeeeeeeeeeeeeeeeeeeeeeeeee610528565b8184518151811061040c5761040c610909565b6020908102919091010152909450925050505b9250929050565b60605f610433838661095f565b67ffffffffffffffff81111561044b5761044b6107e9565b604051908082528060200260200182016040528015610474578160200160208202803683370190505b5090505f5b8581101561051e575f5b84811015610515576104dc8888848181106104a0576104a0610909565b90506020020160208101906104b59190610976565b8787848181106104c7576104c7610909565b905060200201602081019061009b9190610976565b83826104e8888661095f565b6104f291906108f6565b8151811061050257610502610909565b6020908102919091010152600101610483565b50600101610479565b5095945050505050565b5f73eeeeeeeeeeeeeeeeeeeeeeeeeeeeeeeeeeeeeeed196001600160a01b0383160161055f57506001600160a01b0382163161061a565b6001600160a01b0382163b156105de576040516370a0823160e01b81526001600160a01b0384811660048301528316906370a0823190602401602060405180830381865afa1580156105b3573d5f5f3e3d5ffd5b505050506040513d601f19601f820116820180604052508101906105d79190610991565b905061061a565b60405162461bcd60e51b815260206004820152600d60248201526c24a72b20a624a22faa27a5a2a760991b604482015260640160405180910390fd5b92915050565b6001600160a01b0381168114610634575f5ffd5b50565b5f5f60408385031215610648575f5ffd5b823561065381610620565b9150602083013561066381610620565b809150509250929050565b5f8151808452602084019350602083015f5b8281101561069e578151865260209586019590910190600101610680565b5093949350505050565b604080825283519082018190525f9060208501906060840190835b818110156106ea5783516001600160a01b03168352602093840193909201916001016106c3565b505083810360208501526106fe818661066e565b9695505050505050565b5f5f83601f840112610718575f5ffd5b50813567ffffffffffffffff81111561072f575f5ffd5b6020830191508360208260051b850101111561041f575f5ffd5b5f5f5f5f6040858703121561075c575f5ffd5b843567ffffffffffffffff811115610772575f5ffd5b61077e87828801610708565b909550935050602085013567ffffffffffffffff81111561079d575f5ffd5b6107a987828801610708565b95989497509550505050565b602081525f6107c7602083018461066e565b9392505050565b5f602082840312156107de575f5ffd5b81516107c781610620565b634e487b7160e01b5f52604160045260245ffd5b604051601f8201601f1916810167ffffffffffffffff81118282101715610826576108266107e9565b604052919050565b5f6020828403121561083e575f5ffd5b815167ffffffffffffffff811115610854575f5ffd5b8201601f81018413610864575f5ffd5b805167ffffffffffffffff81111561087e5761087e6107e9565b8060051b61088e602082016107fd565b918252602081840181019290810190878411156108a9575f5ffd5b6020850194505b838510156108d757845192506108c583610620565b828252602094850194909101906108b0565b979650505050505050565b634e487b7160e01b5f52601160045260245ffd5b8082018082111561061a5761061a6108e2565b634e487b7160e01b5f52603260045260245ffd5b5f602082840312801561092e575f5ffd5b506040516020810167ffffffffffffffff81118282101715610952576109526107e9565b6040529151825250919050565b808202811582820484141761061a5761061a6108e2565b5f60208284031215610986575f5ffd5b81356107c781610620565b5f602082840312156109a1575f5ffd5b505191905056fea164736f6c634300081b000a6080604052348015600e575f5ffd5b5061239e8061001c5f395ff3fe608060405234801561000f575f5ffd5b506004361061003f575f3560e01c80634763753614610043578063799bdcf51461006d578063976fafc51461008d575b5f5ffd5b610056610051366004611b43565b6100ad565b604051610064929190611f2a565b60405180910390f35b61008061007b366004611b43565b6100ce565b6040516100649190611f57565b6100a061009b366004611f69565b6100e1565b6040516100649190611f84565b6060806100b9846100f2565b6100c38585610d4d565b915091509250929050565b60606100da8383610d4d565b9392505050565b60606100ec826100f2565b92915050565b60605f826001600160a01b031663026b1d5f6040518163ffffffff1660e01b8152600401602060405180830381865afa158015610131573d5f5f3e3d5ffd5b505050506040513d601f19601f820116820180604052508101906101559190611fa6565b90505f816001600160a01b031663d1946dbc6040518163ffffffff1660e01b81526004015f60405180830381865afa158015610193573d5f5f3e3d5ffd5b505050506040513d5f823e601f3d908101601f191682016040526101ba919081019061202e565b90505f81516001600160401b038111156101d6576101d6611fc1565b60405190808252806020026020018201604052801561020f57816020015b6101fc611a05565b8152602001906001900390816101f45790505b5090505f5b8251811015610d44575f828281518110610230576102306120e0565b6020026020010151905083828151811061024c5761024c6120e0565b6020026020010151815f01906001600160a01b031690816001600160a01b0316815250505f856001600160a01b03166335ea6a75868581518110610292576102926120e0565b60200260200101516040518263ffffffff1660e01b81526004016102c591906001600160a01b0391909116815260200190565b6101e060405180830381865afa1580156102e1573d5f5f3e3d5ffd5b505050506040513d601f19601f820116820180604052508101906103059190612177565b90505f8161010001516001600160a01b03166375d264136040518163ffffffff1660e01b8152600401602060405180830381865afa158015610349573d5f5f3e3d5ffd5b505050506040513d601f19601f8201168201806040525081019061036d9190611fa6565b905060606001600160a01b038216156107ea57610100830151604051636657732f60e01b81526001600160a01b0391821660048201525f91841690636657732f906024015f60405180830381865afa1580156103cb573d5f5f3e3d5ffd5b505050506040513d5f823e601f3d908101601f191682016040526103f2919081019061202e565b905080516001600160401b0381111561040d5761040d611fc1565b60405190808252806020026020018201604052801561044657816020015b610433611a6b565b81526020019060019003908161042b5790505b5091505f5b81518110156107e75761045c611a6b565b82828151811061046e5761046e6120e0565b6020908102919091018101516001600160a01b03908116918301829052610100880151604051630fdfe97560e31b815290821660048201526024810192909252861690637eff4ba890604401608060405180830381865afa1580156104d5573d5f5f3e3d5ffd5b505050506040513d601f19601f820116820180604052508101906104f991906122a1565b60c08501526080840152606083015260a0820152610100860151604051634f7eb7b960e11b81526001600160a01b03918216600482015290861690639efd6f7290602401602060405180830381865afa158015610558573d5f5f3e3d5ffd5b505050506040513d601f19601f8201168201806040525081019061057c91906122d4565b60ff166101208201526020808201516040805163313ce56760e01b815290516001600160a01b039092169263313ce567926004808401938290030181865afa1580156105ca573d5f5f3e3d5ffd5b505050506040513d601f19601f820116820180604052508101906105ee91906122d4565b81610100019060ff16908160ff168152505080602001516001600160a01b03166395d89b416040518163ffffffff1660e01b81526004015f60405180830381865afa15801561063f573d5f5f3e3d5ffd5b505050506040513d5f823e601f3d908101601f1916820160405261066691908101906122f4565b81526020810151604051630150bdfb60e51b81526001600160a01b03918216600482015290861690632a17bf6090602401602060405180830381865afa1580156106b2573d5f5f3e3d5ffd5b505050506040513d601f19601f820116820180604052508101906106d69190611fa6565b6001600160a01b03166040808301829052805163313ce56760e01b8152905163313ce567916004808201926020929091908290030181865afa15801561071e573d5f5f3e3d5ffd5b505050506040513d601f19601f8201168201806040525081019061074291906122d4565b81610140019060ff16908160ff168152505080604001516001600160a01b03166350d25bcd6040518163ffffffff1660e01b8152600401602060405180830381865afa158015610794573d5f5f3e3d5ffd5b505050506040513d601f19601f820116820180604052508101906107b8919061237a565b60e0820152835181908590849081106107d3576107d36120e0565b60209081029190910101525060010161044b565b50505b60405180606001604052808461010001516001600160a01b03168152602001836001600160a01b031681526020018281525084602001819052505f8361014001516001600160a01b03166375d264136040518163ffffffff1660e01b8152600401602060405180830381865afa158015610866573d5f5f3e3d5ffd5b505050506040513d601f19601f8201168201806040525081019061088a9190611fa6565b905060606001600160a01b03821615610d0757610140850151604051636657732f60e01b81526001600160a01b0391821660048201525f91841690636657732f906024015f60405180830381865afa1580156108e8573d5f5f3e3d5ffd5b505050506040513d5f823e601f3d908101601f1916820160405261090f919081019061202e565b905080516001600160401b0381111561092a5761092a611fc1565b60405190808252806020026020018201604052801561096357816020015b610950611a6b565b8152602001906001900390816109485790505b5091505f5b8151811015610d0457610979611a6b565b82828151811061098b5761098b6120e0565b6020908102919091018101516001600160a01b039081169183018290526101408a0151604051630fdfe97560e31b815290821660048201526024810192909252861690637eff4ba890604401608060405180830381865afa1580156109f2573d5f5f3e3d5ffd5b505050506040513d601f19601f82011682018060405250810190610a1691906122a1565b60c08501526080840152606083015260a0820152610140880151604051634f7eb7b960e11b81526001600160a01b03918216600482015290861690639efd6f7290602401602060405180830381865afa158015610a75573d5f5f3e3d5ffd5b505050506040513d601f19601f82011682018060405250810190610a9991906122d4565b60ff166101208201526020808201516040805163313ce56760e01b815290516001600160a01b039092169263313ce567926004808401938290030181865afa158015610ae7573d5f5f3e3d5ffd5b505050506040513d601f19601f82011682018060405250810190610b0b91906122d4565b81610100019060ff16908160ff168152505080602001516001600160a01b03166395d89b416040518163ffffffff1660e01b81526004015f60405180830381865afa158015610b5c573d5f5f3e3d5ffd5b505050506040513d5f823e601f3d908101601f19168201604052610b8391908101906122f4565b81526020810151604051630150bdfb60e51b81526001600160a01b03918216600482015290861690632a17bf6090602401602060405180830381865afa158015610bcf573d5f5f3e3d5ffd5b505050506040513d601f19601f82011682018060405250810190610bf39190611fa6565b6001600160a01b03166040808301829052805163313ce56760e01b8152905163313ce567916004808201926020929091908290030181865afa158015610c3b573d5f5f3e3d5ffd5b505050506040513d601f19601f82011682018060405250810190610c5f91906122d4565b81610140019060ff16908160ff168152505080604001516001600160a01b03166350d25bcd6040518163ffffffff1660e01b8152600401602060405180830381865afa158015610cb1573d5f5f3e3d5ffd5b505050506040513d601f19601f82011682018060405250810190610cd5919061237a565b60e082015283518190859084908110610cf057610cf06120e0565b602090810291909101015250600101610968565b50505b60408051606081018252610140909601516001600160a01b0390811687529290921660208601528482015293909301919091525050600101610214565b50949350505050565b60605f836001600160a01b031663026b1d5f6040518163ffffffff1660e01b8152600401602060405180830381865afa158015610d8c573d5f5f3e3d5ffd5b505050506040513d601f19601f82011682018060405250810190610db09190611fa6565b90505f816001600160a01b031663d1946dbc6040518163ffffffff1660e01b81526004015f60405180830381865afa158015610dee573d5f5f3e3d5ffd5b505050506040513d5f823e601f3d908101601f19168201604052610e15919081019061202e565b90505f6001600160a01b038516610e2c575f610e2f565b81515b6001600160401b03811115610e4657610e46611fc1565b604051908082528060200260200182016040528015610e7f57816020015b610e6c611a05565b815260200190600190039081610e645790505b5090505f5b82518110156119fb575f846001600160a01b03166335ea6a75858481518110610eaf57610eaf6120e0565b60200260200101516040518263ffffffff1660e01b8152600401610ee291906001600160a01b0391909116815260200190565b6101e060405180830381865afa158015610efe573d5f5f3e3d5ffd5b505050506040513d601f19601f82011682018060405250810190610f229190612177565b9050838281518110610f3657610f366120e0565b6020026020010151838381518110610f5057610f506120e0565b60200260200101515f01906001600160a01b031690816001600160a01b0316815250505f8161010001516001600160a01b03166375d264136040518163ffffffff1660e01b8152600401602060405180830381865afa158015610fb5573d5f5f3e3d5ffd5b505050506040513d601f19601f82011682018060405250810190610fd99190611fa6565b90506001600160a01b0381161561149e57610100820151604051636657732f60e01b81526001600160a01b0391821660048201525f91831690636657732f906024015f60405180830381865afa158015611035573d5f5f3e3d5ffd5b505050506040513d5f823e601f3d908101601f1916820160405261105c919081019061202e565b90505f81516001600160401b0381111561107857611078611fc1565b6040519080825280602002602001820160405280156110b157816020015b61109e611ad6565b8152602001906001900390816110965790505b5090505f5b8251811015611447576110c7611ad6565b8382815181106110d9576110d96120e0565b60209081029190910101516001600160a01b039081166040808401829052610100890151905163299faa1560e11b81528f84166004820152908316602482015260448101919091529086169063533f542a90606401602060405180830381865afa158015611149573d5f5f3e3d5ffd5b505050506040513d601f19601f8201168201806040525081019061116d919061237a565b60808201526040808201519051632c08906360e21b81526001600160a01b038e8116600483015291821660248201529086169063b022418c90604401602060405180830381865afa1580156111c4573d5f5f3e3d5ffd5b505050506040513d601f19601f820116820180604052508101906111e8919061237a565b81606001818152505080604001516001600160a01b031663313ce5676040518163ffffffff1660e01b8152600401602060405180830381865afa158015611231573d5f5f3e3d5ffd5b505050506040513d601f19601f8201168201806040525081019061125591906122d4565b8160e0019060ff16908160ff168152505080604001516001600160a01b03166395d89b416040518163ffffffff1660e01b81526004015f60405180830381865afa1580156112a5573d5f5f3e3d5ffd5b505050506040513d5f823e601f3d908101601f191682016040526112cc91908101906122f4565b81526040808201519051630150bdfb60e51b81526001600160a01b03918216600482015290861690632a17bf6090602401602060405180830381865afa158015611318573d5f5f3e3d5ffd5b505050506040513d601f19601f8201168201806040525081019061133c9190611fa6565b6001600160a01b031660208083018290526040805163313ce56760e01b8152905163313ce567926004808401939192918290030181865afa158015611383573d5f5f3e3d5ffd5b505050506040513d601f19601f820116820180604052508101906113a791906122d4565b60ff1660c0820152602080820151604080516350d25bcd60e01b815290516001600160a01b03909216926350d25bcd926004808401938290030181865afa1580156113f4573d5f5f3e3d5ffd5b505050506040513d601f19601f82011682018060405250810190611418919061237a565b60a082015282518190849084908110611433576114336120e0565b6020908102919091010152506001016110b6565b5060405180606001604052808561010001516001600160a01b03168152602001846001600160a01b031681526020018281525086868151811061148c5761148c6120e0565b60200260200101516020018190525050505b5f8261014001516001600160a01b03166375d264136040518163ffffffff1660e01b8152600401602060405180830381865afa1580156114e0573d5f5f3e3d5ffd5b505050506040513d601f19601f820116820180604052508101906115049190611fa6565b90506001600160a01b038116156119f057610140830151604051636657732f60e01b81526001600160a01b0391821660048201525f91831690636657732f906024015f60405180830381865afa158015611560573d5f5f3e3d5ffd5b505050506040513d5f823e601f3d908101601f19168201604052611587919081019061202e565b90505f81516001600160401b038111156115a3576115a3611fc1565b6040519080825280602002602001820160405280156115dc57816020015b6115c9611ad6565b8152602001906001900390816115c15790505b5090505f5b8251811015611999576115f2611ad6565b838281518110611604576116046120e0565b602002602001015181604001906001600160a01b031690816001600160a01b031681525050846001600160a01b031663533f542a8e89610140015184604001516040518463ffffffff1660e01b8152600401611680939291906001600160a01b0393841681529183166020830152909116604082015260600190565b602060405180830381865afa15801561169b573d5f5f3e3d5ffd5b505050506040513d601f19601f820116820180604052508101906116bf919061237a565b60808201526040808201519051632c08906360e21b81526001600160a01b038f8116600483015291821660248201529086169063b022418c90604401602060405180830381865afa158015611716573d5f5f3e3d5ffd5b505050506040513d601f19601f8201168201806040525081019061173a919061237a565b81606001818152505080604001516001600160a01b031663313ce5676040518163ffffffff1660e01b8152600401602060405180830381865afa158015611783573d5f5f3e3d5ffd5b505050506040513d601f19601f820116820180604052508101906117a791906122d4565b8160e0019060ff16908160ff168152505080604001516001600160a01b03166395d89b416040518163ffffffff1660e01b81526004015f60405180830381865afa1580156117f7573d5f5f3e3d5ffd5b505050506040513d5f823e601f3d908101601f1916820160405261181e91908101906122f4565b81526040808201519051630150bdfb60e51b81526001600160a01b03918216600482015290861690632a17bf6090602401602060405180830381865afa15801561186a573d5f5f3e3d5ffd5b505050506040513d601f19601f8201168201806040525081019061188e9190611fa6565b6001600160a01b031660208083018290526040805163313ce56760e01b8152905163313ce567926004808401939192918290030181865afa1580156118d5573d5f5f3e3d5ffd5b505050506040513d601f19601f820116820180604052508101906118f991906122d4565b60ff1660c0820152602080820151604080516350d25bcd60e01b815290516001600160a01b03909216926350d25bcd926004808401938290030181865afa158015611946573d5f5f3e3d5ffd5b505050506040513d601f19601f8201168201806040525081019061196a919061237a565b60a082015282518190849084908110611985576119856120e0565b6020908102919091010152506001016115e1565b5060405180606001604052808661014001516001600160a01b03168152602001856001600160a01b03168152602001828152508787815181106119de576119de6120e0565b60200260200101516040018190525050505b505050600101610e84565b5095945050505050565b60405180606001604052805f6001600160a01b03168152602001611a4060408051606080820183525f80835260208301529181019190915290565b8152602001611a6660408051606080820183525f80835260208301529181019190915290565b905290565b604051806101600160405280606081526020015f6001600160a01b031681526020015f6001600160a01b031681526020015f81526020015f81526020015f81526020015f81526020015f81526020015f60ff1681526020015f60ff1681526020015f60ff1681525090565b604051806101000160405280606081526020015f6001600160a01b031681526020015f6001600160a01b031681526020015f81526020015f81526020015f81526020015f60ff1681526020015f60ff1681525090565b6001600160a01b0381168114611b40575f5ffd5b50565b5f5f60408385031215611b54575f5ffd5b8235611b5f81611b2c565b91506020830135611b6f81611b2c565b809150509250929050565b5f5b83811015611b94578181015183820152602001611b7c565b50505f910152565b5f8151808452611bb3816020860160208601611b7a565b601f01601f19169290920160200192915050565b5f6060830160018060a01b03835116845260018060a01b03602084015116602085015260408301516060604086015281815180845260808701915060808160051b88010193506020830192505f5b81811015611d0357607f19888603018352835180516101608752611c3d610160880182611b9c565b90506020820151611c5960208901826001600160a01b03169052565b506040820151611c7460408901826001600160a01b03169052565b50606082015160608801526080820151608088015260a082015160a088015260c082015160c088015260e082015160e0880152610100820151611cbd61010089018260ff169052565b50610120820151611cd461012089018260ff169052565b506101408201519150611ced61014088018360ff169052565b9550506020938401939290920191600101611c15565b50929695505050505050565b5f82825180855260208501945060208160051b830101602085015f5b83811015611d9957848303601f19018852815180516001600160a01b03168452602080820151606091860182905290611d6690860182611bc7565b9050604082015191508481036040860152611d818183611bc7565b60209a8b019a90955093909301925050600101611d2b565b50909695505050505050565b5f6060830160018060a01b03835116845260018060a01b03602084015116602085015260408301516060604086015281815180845260808701915060808160051b88010193506020830192505f5b81811015611d0357607f19888603018352835180516101008752611e1b610100880182611b9c565b905060018060a01b03602083015116602088015260018060a01b036040830151166040880152606082015160608801526080820151608088015260a082015160a088015260c0820151611e7360c089018260ff169052565b5060e08201519150611e8a60e088018360ff169052565b9550506020938401939290920191600101611df3565b5f82825180855260208501945060208160051b830101602085015f5b83811015611d9957848303601f19018852815180516001600160a01b03168452602080820151606091860182905290611ef790860182611da5565b9050604082015191508481036040860152611f128183611da5565b60209a8b019a90955093909301925050600101611ebc565b604081525f611f3c6040830185611d0f565b8281036020840152611f4e8185611ea0565b95945050505050565b602081525f6100da6020830184611ea0565b5f60208284031215611f79575f5ffd5b81356100da81611b2c565b602081525f6100da6020830184611d0f565b8051611fa181611b2c565b919050565b5f60208284031215611fb6575f5ffd5b81516100da81611b2c565b634e487b7160e01b5f52604160045260245ffd5b6040516101e081016001600160401b0381118282101715611ff857611ff8611fc1565b60405290565b604051601f8201601f191681016001600160401b038111828210171561202657612026611fc1565b604052919050565b5f6020828403121561203e575f5ffd5b81516001600160401b03811115612053575f5ffd5b8201601f81018413612063575f5ffd5b80516001600160401b0381111561207c5761207c611fc1565b8060051b61208c60208201611ffe565b918252602081840181019290810190878411156120a7575f5ffd5b6020850194505b838510156120d557845192506120c383611b2c565b828252602094850194909101906120ae565b979650505050505050565b634e487b7160e01b5f52603260045260245ffd5b5f60208284031215612104575f5ffd5b604051602081016001600160401b038111828210171561212657612126611fc1565b6040529151825250919050565b80516fffffffffffffffffffffffffffffffff81168114611fa1575f5ffd5b805164ffffffffff81168114611fa1575f5ffd5b805161ffff81168114611fa1575f5ffd5b5f6101e0828403128015612189575f5ffd5b50612192611fd5565b61219c84846120f4565b81526121aa60208401612133565b60208201526121bb60408401612133565b60408201526121cc60608401612133565b60608201526121dd60808401612133565b60808201526121ee60a08401612133565b60a08201526121ff60c08401612152565b60c082015261221060e08401612166565b60e08201526122226101008401611f96565b6101008201526122356101208401611f96565b6101208201526122486101408401611f96565b61014082015261225b6101608401611f96565b61016082015261226e6101808401612133565b6101808201526122816101a08401612133565b6101a08201526122946101c08401612133565b6101c08201529392505050565b5f5f5f5f608085870312156122b4575f5ffd5b505082516020840151604085015160609095015191969095509092509050565b5f602082840312156122e4575f5ffd5b815160ff811681146100da575f5ffd5b5f60208284031215612304575f5ffd5b81516001600160401b03811115612319575f5ffd5b8201601f81018413612329575f5ffd5b80516001600160401b0381111561234257612342611fc1565b612355601f8201601f1916602001611ffe565b818152856020838501011115612369575f5ffd5b611f4e826020830160208601611b7a565b5f6020828403121561238a575f5ffd5b505191905056fea164736f6c634300081b000a60c060405234801561000f575f5ffd5b506040516127bf3803806127bf83398101604081905261002e91610060565b6001600160a01b039182166080521660a052610091565b80516001600160a01b038116811461005b575f5ffd5b919050565b5f5f60408385031215610071575f5ffd5b61007a83610045565b915061008860208401610045565b90509250929050565b60805160a0516126f96100c65f395f81816101960152611aac01525f818160bb015281816118f6015261197f01526126f95ff3fe608060405234801561000f575f5ffd5b5060043610610090575f3560e01c80636f90b9d1116100635780636f90b9d114610136578063825ffd92146101565780639201de5514610171578063d22cf68a14610191578063ec489c21146101b8575f5ffd5b80630496f53a146100945780633c1740ed146100b657806351974cc0146100f5578063586c144214610116575b5f5ffd5b6100a3670de0b6b3a764000081565b6040519081526020015b60405180910390f35b6100dd7f000000000000000000000000000000000000000000000000000000000000000081565b6040516001600160a01b0390911681526020016100ad565b610108610103366004611bc7565b6101d9565b6040516100ad929190611bfe565b610129610124366004611c79565b610654565b6040516100ad9190611c94565b610149610144366004611c79565b610722565b6040516100ad9190611d2c565b6100dd739f8f72aa9304c8b593d555f12ef6589cc3a579a281565b61018461017f366004611e08565b610b9f565b6040516100ad9190611e1f565b6100dd7f000000000000000000000000000000000000000000000000000000000000000081565b6101cb6101c6366004611c79565b610cca565b6040516100ad929190611e31565b60605f5f846001600160a01b031663026b1d5f6040518163ffffffff1660e01b8152600401602060405180830381865afa158015610219573d5f5f3e3d5ffd5b505050506040513d601f19601f8201168201806040525081019061023d91906121eb565b90505f816001600160a01b031663d1946dbc6040518163ffffffff1660e01b81526004015f60405180830381865afa15801561027b573d5f5f3e3d5ffd5b505050506040513d5f823e601f3d908101601f191682016040526102a29190810190612273565b604051634417a58360e01b81526001600160a01b0387811660048301529192505f91841690634417a58390602401602060405180830381865afa1580156102eb573d5f5f3e3d5ffd5b505050506040513d601f19601f8201168201806040525081019061030f9190612364565b60405163eddf1b7960e01b81526001600160a01b0388811660048301529192505f9185169063eddf1b7990602401602060405180830381865afa158015610358573d5f5f3e3d5ffd5b505050506040513d601f19601f8201168201806040525081019061037c919061237e565b90505f6001600160a01b038816610393575f610396565b83515b6001600160401b038111156103ad576103ad612206565b6040519080825280602002602001820160405280156103fd57816020015b604080516080810182525f8082526020808301829052928201819052606082015282525f199092019101816103cb5790505b5090505f5b8451811015610646575f866001600160a01b03166335ea6a7587848151811061042d5761042d612395565b60200260200101516040518263ffffffff1660e01b815260040161046091906001600160a01b0391909116815260200190565b6101e060405180830381865afa15801561047c573d5f5f3e3d5ffd5b505050506040513d601f19601f820116820180604052508101906104a091906123e4565b90508582815181106104b4576104b4612395565b60200260200101518383815181106104ce576104ce612395565b60209081029190910101516001600160a01b039182169052610100820151604051630ed1279f60e11b81528c83166004820152911690631da24f3e90602401602060405180830381865afa158015610528573d5f5f3e3d5ffd5b505050506040513d601f19601f8201168201806040525081019061054c919061237e565b83838151811061055e5761055e612395565b60209081029190910181015101526105768583611b4c565b83838151811061058857610588612395565b60209081029190910101519015156040909101526105a68583611b7f565b1561063d57610140810151604051630ed1279f60e11b81526001600160a01b038c8116600483015290911690631da24f3e90602401602060405180830381865afa1580156105f6573d5f5f3e3d5ffd5b505050506040513d601f19601f8201168201806040525081019061061a919061237e565b83838151811061062c5761062c612395565b602002602001015160600181815250505b50600101610402565b509890975095505050505050565b60605f826001600160a01b031663026b1d5f6040518163ffffffff1660e01b8152600401602060405180830381865afa158015610693573d5f5f3e3d5ffd5b505050506040513d601f19601f820116820180604052508101906106b791906121eb565b9050806001600160a01b031663d1946dbc6040518163ffffffff1660e01b81526004015f60405180830381865afa1580156106f4573d5f5f3e3d5ffd5b505050506040513d5f823e601f3d908101601f1916820160405261071b9190810190612273565b9392505050565b60605f826001600160a01b031663026b1d5f6040518163ffffffff1660e01b8152600401602060405180830381865afa158015610761573d5f5f3e3d5ffd5b505050506040513d601f19601f8201168201806040525081019061078591906121eb565b6040805161010080825261202082019092529192505f9190816020015b6107e86040805180820182525f808252825160c08101845281815260208181018390529381018290526060808201839052608082015260a0810191909152909182015290565b8152602001906001900390816107a25790505090505f8060015b6101008160ff161015610aa85760405163b286f46760e01b815260ff821660048201525f906001600160a01b0387169063b286f46790602401606060405180830381865afa158015610856573d5f5f3e3d5ffd5b505050506040513d601f19601f8201168201806040525081019061087a919061250e565b9050806020015161ffff165f14610a775760405180604001604052808360ff1681526020016040518060c00160405280845f015161ffff168152602001846020015161ffff168152602001846040015161ffff168152602001896001600160a01b031663b0771dba876040518263ffffffff1660e01b8152600401610908919060ff91909116815260200190565b602060405180830381865afa158015610923573d5f5f3e3d5ffd5b505050506040513d601f19601f820116820180604052508101906109479190612579565b6001600160801b03168152604051632083e18360e01b815260ff871660048201526020909101906001600160a01b038b1690632083e183906024015f60405180830381865afa15801561099c573d5f5f3e3d5ffd5b505050506040513d5f823e601f3d908101601f191682016040526109c39190810190612592565b815260405163903a2c7160e01b815260ff871660048201526020909101906001600160a01b038b169063903a2c7190602401602060405180830381865afa158015610a10573d5f5f3e3d5ffd5b505050506040513d601f19601f82011682018060405250810190610a349190612579565b6001600160801b0316815250815250858560ff1681518110610a5857610a58612395565b602002602001018190525083610a6d90612621565b93505f9250610a83565b610a8083612621565b92505b60028360ff161115610a955750610aa8565b5080610aa081612621565b915050610802565b505f8260ff166001600160401b03811115610ac557610ac5612206565b604051908082528060200260200182016040528015610b3c57816020015b610b296040805180820182525f808252825160c08101845281815260208181018390529381018290526060808201839052608082015260a0810191909152909182015290565b815260200190600190039081610ae35790505b5090505f5b8360ff168160ff161015610b9457848160ff1681518110610b6457610b64612395565b6020026020010151828260ff1681518110610b8157610b81612395565b6020908102919091010152600101610b41565b509695505050505050565b60605f5b60208160ff16108015610bd75750828160ff1660208110610bc657610bc6612395565b1a60f81b6001600160f81b03191615155b15610bee5780610be681612621565b915050610ba3565b5f8160ff166001600160401b03811115610c0a57610c0a612206565b6040519080825280601f01601f191660200182016040528015610c34576020820181803683370190505b5090505f91505b60208260ff16108015610c6f5750838260ff1660208110610c5e57610c5e612395565b1a60f81b6001600160f81b03191615155b1561071b57838260ff1660208110610c8957610c89612395565b1a60f81b818360ff1681518110610ca257610ca2612395565b60200101906001600160f81b03191690815f1a90535081610cc281612621565b925050610c3b565b6060610cf660405180608001604052805f81526020015f81526020015f81526020015f60ff1681525090565b5f836001600160a01b031663fca513a86040518163ffffffff1660e01b8152600401602060405180830381865afa158015610d33573d5f5f3e3d5ffd5b505050506040513d601f19601f82011682018060405250810190610d5791906121eb565b90505f846001600160a01b031663026b1d5f6040518163ffffffff1660e01b8152600401602060405180830381865afa158015610d96573d5f5f3e3d5ffd5b505050506040513d601f19601f82011682018060405250810190610dba91906121eb565b90505f856001600160a01b031663e860accb6040518163ffffffff1660e01b8152600401602060405180830381865afa158015610df9573d5f5f3e3d5ffd5b505050506040513d601f19601f82011682018060405250810190610e1d91906121eb565b90505f826001600160a01b031663d1946dbc6040518163ffffffff1660e01b81526004015f60405180830381865afa158015610e5b573d5f5f3e3d5ffd5b505050506040513d5f823e601f3d908101601f19168201604052610e829190810190612273565b90505f81516001600160401b03811115610e9e57610e9e612206565b60405190808252806020026020018201604052801561100b57816020015b60408051610500810182525f8082526060602080840182905293830181905282018190526080820181905260a0820181905260c0820181905260e08201819052610100820181905261012082018190526101408201819052610160820181905261018082018190526101a082018190526101c082018190526101e08201819052610200820181905261022082018190526102408201819052610260820181905261028082018190526102a082018190526102c082018190526102e08201819052610300820181905261032082018190526103408201819052610360820181905261038082018190526103a082018190526103c082018190526103e08201819052610400820181905261042082018190526104408201819052610460820181905261048082018190526104a082018190526104c082018190526104e082015282525f19909201910181610ebc5790505b5090505f5b82518110156118c9575f82828151811061102c5761102c612395565b6020026020010151905083828151811061104857611048612395565b60209081029190910101516001600160a01b039081168083526040516335ea6a7560e01b815260048101919091525f918816906335ea6a75906024016101e060405180830381865afa1580156110a0573d5f5f3e3d5ffd5b505050506040513d601f19601f820116820180604052508101906110c491906123e4565b60208101516001600160801b03908116610180850152606082015181166101a085015260408083015182166101c086015260808301519091166101e085015260c082015164ffffffffff166102008501526101008201516001600160a01b03908116610220860152610140830151811661024086015261016083015181166102608601528451915163b3596f0760e01b815291811660048301529192509089169063b3596f0790602401602060405180830381865afa158015611189573d5f5f3e3d5ffd5b505050506040513d601f19601f820116820180604052508101906111ad919061237e565b6102c08301528151604051630495f95f60e51b81526001600160a01b039182166004820152908916906392bf2be090602401602060405180830381865afa1580156111fa573d5f5f3e3d5ffd5b505050506040513d601f19601f8201168201806040525081019061121e91906121eb565b6001600160a01b039081166102e084015282516102208401516040516370a0823160e01b815290831660048201529116906370a0823190602401602060405180830381865afa158015611273573d5f5f3e3d5ffd5b505050506040513d601f19601f82011682018060405250810190611297919061237e565b826102800181815250508161024001516001600160a01b031663b1bf962d6040518163ffffffff1660e01b8152600401602060405180830381865afa1580156112e2573d5f5f3e3d5ffd5b505050506040513d601f19601f82011682018060405250810190611306919061237e565b6102a083015281516001600160a01b0316739f8f72aa9304c8b593d555f12ef6589cc3a579a11901611422575f825f01516001600160a01b03166395d89b416040518163ffffffff1660e01b8152600401602060405180830381865afa158015611372573d5f5f3e3d5ffd5b505050506040513d601f19601f82011682018060405250810190611396919061237e565b90505f835f01516001600160a01b03166306fdde036040518163ffffffff1660e01b8152600401602060405180830381865afa1580156113d8573d5f5f3e3d5ffd5b505050506040513d601f19601f820116820180604052508101906113fc919061237e565b905061140782610b9f565b604085015261141581610b9f565b6020850152506114fa9050565b815f01516001600160a01b03166395d89b416040518163ffffffff1660e01b81526004015f60405180830381865afa158015611460573d5f5f3e3d5ffd5b505050506040513d5f823e601f3d908101601f191682016040526114879190810190612592565b8260400181905250815f01516001600160a01b03166306fdde036040518163ffffffff1660e01b81526004015f60405180830381865afa1580156114cd573d5f5f3e3d5ffd5b505050506040513d5f823e601f3d908101601f191682016040526114f49190810190612592565b60208301525b8051805161ffff604082811c821660e087015260ff603084901c166060870152602083901c821660c0870152601083901c821660a0870152911660808086018290529015156101008601528251671000000000000000811615156103808701526704000000000000008116151561012087015267020000000000000081161515610160870152670100000000000000161515610140860152610260850151855183516304c7a22760e21b81526001600160a01b039182166004820152935191169263131e889c9260248083019391928290030181865afa9250505080156115fe575060408051601f3d908101601f191682019092526115fb9181019061264b565b60015b1561162c57602081015161034085015260408101516103008501526060810151610320850152516103608401525b825160405163c952485d60e01b81526001600160a01b0391821660048201529089169063c952485d90602401602060405180830381865afa158015611673573d5f5f3e3d5ffd5b505050506040513d601f19601f82011682018060405250810190611697919061237e565b6001600160801b03166104e0840152805160d41c64ffffffffff1683610420018181525050866001600160a01b03166369b169e16040518163ffffffff1660e01b8152600401602060405180830381865afa1580156116f8573d5f5f3e3d5ffd5b505050506040513d601f19601f8201168201806040525081019061171c919061237e565b6104408401528051640fffffffff605082901c81169160741c1661048085015261046084015282516040516335fb4fbd60e21b81526001600160a01b0391821660048201529088169063d7ed3ef490602401602060405180830381865afa9250505080156117a7575060408051601f3d908101601f191682019092526117a4918101906126ad565b60015b6117e8573d8080156117d4576040519150601f19603f3d011682016040523d82523d5f602084013e6117d9565b606091505b505060016104008401526117f1565b15156104008401525b805167400000000000000016151515156103a08401526101c08201516001600160801b039081166103e0850152610180830151166103c0840152805167200000000000000016151515156104a084015282516040516337d83fcb60e11b81526001600160a01b03918216600482015290891690636fb07f9690602401602060405180830381865afa158015611888573d5f5f3e3d5ffd5b505050506040513d601f19601f820116820180604052508101906118ac9190612579565b6001600160801b03166104c0909301929092525050600101611010565b506118f460405180608001604052805f81526020015f81526020015f81526020015f60ff1681525090565b7f00000000000000000000000000000000000000000000000000000000000000006001600160a01b03166350d25bcd6040518163ffffffff1660e01b8152600401602060405180830381865afa158015611950573d5f5f3e3d5ffd5b505050506040513d601f19601f82011682018060405250810190611974919061237e565b8160400181815250507f00000000000000000000000000000000000000000000000000000000000000006001600160a01b031663313ce5676040518163ffffffff1660e01b8152600401602060405180830381865afa1580156119d9573d5f5f3e3d5ffd5b505050506040513d601f19601f820116820180604052508101906119fd91906126cc565b60ff16606082015260408051638c89b64f60e01b815290516001600160a01b03881691638c89b64f9160048083019260209291908290030181865afa925050508015611a66575060408051601f3d908101601f19168201909252611a639181019061237e565b60015b611b35573d808015611a93576040519150601f19603f3d011682016040523d82523d5f602084013e611a98565b606091505b50670de0b6b3a7640000825f0181815250507f00000000000000000000000000000000000000000000000000000000000000006001600160a01b03166350d25bcd6040518163ffffffff1660e01b8152600401602060405180830381865afa158015611b06573d5f5f3e3d5ffd5b505050506040513d601f19601f82011682018060405250810190611b2a919061237e565b602083015250611b3e565b80825260208201525b909890975095505050505050565b5f60808210611b6e576040516385e98beb60e01b815260040160405180910390fd5b509051600191821b82011c16151590565b5f60808210611ba1576040516385e98beb60e01b815260040160405180910390fd5b509051600191821b1c16151590565b6001600160a01b0381168114611bc4575f5ffd5b50565b5f5f60408385031215611bd8575f5ffd5b8235611be381611bb0565b91506020830135611bf381611bb0565b809150509250929050565b604080825283519082018190525f9060208501906060840190835b81811015611c6557835180516001600160a01b03168452602080820151818601526040808301511515908601526060918201519185019190915290930192608090920191600101611c19565b505060ff85166020850152915061071b9050565b5f60208284031215611c89575f5ffd5b813561071b81611bb0565b602080825282518282018190525f918401906040840190835b81811015611cd45783516001600160a01b0316835260209384019390920191600101611cad565b509095945050505050565b5f5b83811015611cf9578181015183820152602001611ce1565b50505f910152565b5f8151808452611d18816020860160208601611cdf565b601f01601f19169290920160200192915050565b5f602082016020835280845180835260408501915060408160051b8601019250602086015f5b82811015611dfc57603f19878603018452815160ff8151168652602081015190506040602087015261ffff815116604087015261ffff602082015116606087015261ffff60408201511660808701526001600160801b0360608201511660a0870152608081015160c080880152611dcd610100880182611d01565b60a092909201516001600160801b031660e0979097019690965294506020938401939190910190600101611d52565b50929695505050505050565b5f60208284031215611e18575f5ffd5b5035919050565b602081525f61071b6020830184611d01565b5f60a0820160a0835280855180835260c08501915060c08160051b8601019250602087015f5b828110156121a25786850360bf19018452815180516001600160a01b0316865260208101516105006020880152611e92610500880182611d01565b905060408201518782036040890152611eab8282611d01565b915050606082015160608801526080820151608088015260a082015160a088015260c082015160c088015260e082015160e0880152610100820151611ef561010089018215159052565b50610120820151611f0b61012089018215159052565b50610140820151611f2161014089018215159052565b50610160820151611f3761016089018215159052565b50610180820151611f546101808901826001600160801b03169052565b506101a0820151611f716101a08901826001600160801b03169052565b506101c0820151611f8e6101c08901826001600160801b03169052565b506101e0820151611fab6101e08901826001600160801b03169052565b50610200820151611fc661020089018264ffffffffff169052565b50610220820151611fe36102208901826001600160a01b03169052565b506102408201516120006102408901826001600160a01b03169052565b5061026082015161201d6102608901826001600160a01b03169052565b506102808201516102808801526102a08201516102a08801526102c08201516102c08801526102e082015161205e6102e08901826001600160a01b03169052565b506103008201516103008801526103208201516103208801526103408201516103408801526103608201516103608801526103808201516120a461038089018215159052565b506103a08201516120ba6103a089018215159052565b506103c08201516120d76103c08901826001600160801b03169052565b506103e08201516120f46103e08901826001600160801b03169052565b5061040082015161210a61040089018215159052565b506104208201516104208801526104408201516104408801526104608201516104608801526104808201516104808801526104a08201516121506104a089018215159052565b506104c082015161216d6104c08901826001600160801b03169052565b506104e0820151915061218c6104e08801836001600160801b03169052565b9550506020938401939190910190600101611e57565b505050508091505061071b602083018480518252602081015160208301526040810151604083015260ff60608201511660608301525050565b80516121e681611bb0565b919050565b5f602082840312156121fb575f5ffd5b815161071b81611bb0565b634e487b7160e01b5f52604160045260245ffd5b6040516101e081016001600160401b038111828210171561223d5761223d612206565b60405290565b604051601f8201601f191681016001600160401b038111828210171561226b5761226b612206565b604052919050565b5f60208284031215612283575f5ffd5b81516001600160401b03811115612298575f5ffd5b8201601f810184136122a8575f5ffd5b80516001600160401b038111156122c1576122c1612206565b8060051b6122d160208201612243565b918252602081840181019290810190878411156122ec575f5ffd5b6020850194505b8385101561231a578451925061230883611bb0565b828252602094850194909101906122f3565b979650505050505050565b5f60208284031215612335575f5ffd5b604051602081016001600160401b038111828210171561235757612357612206565b6040529151825250919050565b5f60208284031215612374575f5ffd5b61071b8383612325565b5f6020828403121561238e575f5ffd5b5051919050565b634e487b7160e01b5f52603260045260245ffd5b80516001600160801b03811681146121e6575f5ffd5b805164ffffffffff811681146121e6575f5ffd5b805161ffff811681146121e6575f5ffd5b5f6101e08284031280156123f6575f5ffd5b506123ff61221a565b6124098484612325565b8152612417602084016123a9565b6020820152612428604084016123a9565b6040820152612439606084016123a9565b606082015261244a608084016123a9565b608082015261245b60a084016123a9565b60a082015261246c60c084016123bf565b60c082015261247d60e084016123d3565b60e082015261248f61010084016121db565b6101008201526124a261012084016121db565b6101208201526124b561014084016121db565b6101408201526124c861016084016121db565b6101608201526124db61018084016123a9565b6101808201526124ee6101a084016123a9565b6101a08201526125016101c084016123a9565b6101c08201529392505050565b5f606082840312801561251f575f5ffd5b50604051606081016001600160401b038111828210171561254257612542612206565b60405261254e836123d3565b815261255c602084016123d3565b602082015261256d604084016123d3565b60408201529392505050565b5f60208284031215612589575f5ffd5b61071b826123a9565b5f602082840312156125a2575f5ffd5b81516001600160401b038111156125b7575f5ffd5b8201601f810184136125c7575f5ffd5b80516001600160401b038111156125e0576125e0612206565b6125f3601f8201601f1916602001612243565b818152856020838501011115612607575f5ffd5b612618826020830160208601611cdf565b95945050505050565b5f60ff821660ff810361264257634e487b7160e01b5f52601160045260245ffd5b60010192915050565b5f608082840312801561265c575f5ffd5b50604051608081016001600160401b038111828210171561267f5761267f612206565b6040908152835182526020808501519083015283810151908201526060928301519281019290925250919050565b5f602082840312156126bd575f5ffd5b8151801515811461071b575f5ffd5b5f602082840312156126dc575f5ffd5b815160ff8116811461071b575f5ffdfea164736f6c634300081b000a","linkReferences":{}},"methodIdentifiers":{"getGettersReportOne()":"0cf19f2c"},"id":298}