{"abi":[{"type":"constructor","inputs":[{"name":"name","type":"string","internalType":"string"},{"name":"symbol","type":"string","internalType":"string"},{"name":"decimals","type":"uint8","internalType":"uint8"}],"stateMutability":"nonpayable"},{"type":"function","name":"allowance","inputs":[{"name":"owner","type":"address","internalType":"address"},{"name":"spender","type":"address","internalType":"address"}],"outputs":[{"name":"","type":"uint256","internalType":"uint256"}],"stateMutability":"view"},{"type":"function","name":"approve","inputs":[{"name":"spender","type":"address","internalType":"address"},{"name":"amount","type":"uint256","internalType":"uint256"}],"outputs":[{"name":"","type":"bool","internalType":"bool"}],"stateMutability":"nonpayable"},{"type":"function","name":"balanceOf","inputs":[{"name":"account","type":"address","internalType":"address"}],"outputs":[{"name":"","type":"uint256","internalType":"uint256"}],"stateMutability":"view"},{"type":"function","name":"decimals","inputs":[],"outputs":[{"name":"","type":"uint8","internalType":"uint8"}],"stateMutability":"view"},{"type":"function","name":"decreaseAllowance","inputs":[{"name":"spender","type":"address","internalType":"address"},{"name":"subtractedValue","type":"uint256","internalType":"uint256"}],"outputs":[{"name":"","type":"bool","internalType":"bool"}],"stateMutability":"nonpayable"},{"type":"function","name":"delegate","inputs":[{"name":"delegateeAddress","type":"address","internalType":"address"}],"outputs":[],"stateMutability":"nonpayable"},{"type":"function","name":"delegatee","inputs":[],"outputs":[{"name":"","type":"address","internalType":"address"}],"stateMutability":"view"},{"type":"function","name":"increaseAllowance","inputs":[{"name":"spender","type":"address","internalType":"address"},{"name":"addedValue","type":"uint256","internalType":"uint256"}],"outputs":[{"name":"","type":"bool","internalType":"bool"}],"stateMutability":"nonpayable"},{"type":"function","name":"mint","inputs":[{"name":"value","type":"uint256","internalType":"uint256"}],"outputs":[{"name":"","type":"bool","internalType":"bool"}],"stateMutability":"nonpayable"},{"type":"function","name":"name","inputs":[],"outputs":[{"name":"","type":"string","internalType":"string"}],"stateMutability":"view"},{"type":"function","name":"symbol","inputs":[],"outputs":[{"name":"","type":"string","internalType":"string"}],"stateMutability":"view"},{"type":"function","name":"totalSupply","inputs":[],"outputs":[{"name":"","type":"uint256","internalType":"uint256"}],"stateMutability":"view"},{"type":"function","name":"transfer","inputs":[{"name":"recipient","type":"address","internalType":"address"},{"name":"amount","type":"uint256","internalType":"uint256"}],"outputs":[{"name":"","type":"bool","internalType":"bool"}],"stateMutability":"nonpayable"},{"type":"function","name":"transferFrom","inputs":[{"name":"sender","type":"address","internalType":"address"},{"name":"recipient","type":"address","internalType":"address"},{"name":"amount","type":"uint256","internalType":"uint256"}],"outputs":[{"name":"","type":"bool","internalType":"bool"}],"stateMutability":"nonpayable"},{"type":"event","name":"Approval","inputs":[{"name":"owner","type":"address","indexed":true,"internalType":"address"},{"name":"spender","type":"address","indexed":true,"internalType":"address"},{"name":"value","type":"uint256","indexed":false,"internalType":"uint256"}],"anonymous":false},{"type":"event","name":"Transfer","inputs":[{"name":"from","type":"address","indexed":true,"internalType":"address"},{"name":"to","type":"address","indexed":true,"internalType":"address"},{"name":"value","type":"uint256","indexed":false,"internalType":"uint256"}],"anonymous":false}],"bytecode":{"object":"0x608060405234801561000f575f5ffd5b50604051610cc3380380610cc383398101604081905261002e91610115565b8282600361003c8382610216565b5060046100498282610216565b50506005805460ff191660ff8416179055505050506102d0565b634e487b7160e01b5f52604160045260245ffd5b5f82601f830112610086575f5ffd5b81516001600160401b0381111561009f5761009f610063565b604051601f8201601f19908116603f011681016001600160401b03811182821017156100cd576100cd610063565b6040528181528382016020018510156100e4575f5ffd5b5f5b82811015610102576020818601810151838301820152016100e6565b505f918101602001919091529392505050565b5f5f5f60608486031215610127575f5ffd5b83516001600160401b0381111561013c575f5ffd5b61014886828701610077565b602086015190945090506001600160401b03811115610165575f5ffd5b61017186828701610077565b925050604084015160ff81168114610187575f5ffd5b809150509250925092565b600181811c908216806101a657607f821691505b6020821081036101c457634e487b7160e01b5f52602260045260245ffd5b50919050565b601f82111561021157805f5260205f20601f840160051c810160208510156101ef5750805b601f840160051c820191505b8181101561020e575f81556001016101fb565b50505b505050565b81516001600160401b0381111561022f5761022f610063565b6102438161023d8454610192565b846101ca565b6020601f821160018114610275575f831561025e5750848201515b5f19600385901b1c1916600184901b17845561020e565b5f84815260208120601f198516915b828110156102a45787850151825560209485019460019092019101610284565b50848210156102c157868401515f19600387901b60f8161c191681555b50505050600190811b01905550565b6109e6806102dd5f395ff3fe608060405234801561000f575f5ffd5b50600436106100e5575f3560e01c80635c19a95c11610088578063a0712d6811610063578063a0712d681461020f578063a457c2d714610222578063a9059cbb14610235578063dd62ed3e14610248575f5ffd5b80635c19a95c146101a757806370a08231146101df57806395d89b4114610207575f5ffd5b80631e31d053116100c35780631e31d0531461013c57806323b872dd1461016c578063313ce5671461017f5780633950935114610194575f5ffd5b806306fdde03146100e9578063095ea7b31461010757806318160ddd1461012a575b5f5ffd5b6100f1610280565b6040516100fe91906107fe565b60405180910390f35b61011a610115366004610864565b610310565b60405190151581526020016100fe565b6002545b6040519081526020016100fe565b6005546101549061010090046001600160a01b031681565b6040516001600160a01b0390911681526020016100fe565b61011a61017a36600461088c565b610326565b60055460405160ff90911681526020016100fe565b61011a6101a2366004610864565b61038d565b6101dd6101b53660046108c6565b600580546001600160a01b0390921661010002610100600160a81b0319909216919091179055565b005b61012e6101ed3660046108c6565b6001600160a01b03165f9081526020819052604090205490565b6100f16103c2565b61011a61021d3660046108e6565b6103d1565b61011a610230366004610864565b6103e4565b61011a610243366004610864565b610431565b61012e6102563660046108fd565b6001600160a01b039182165f90815260016020908152604080832093909416825291909152205490565b60606003805461028f9061092e565b80601f01602080910402602001604051908101604052809291908181526020018280546102bb9061092e565b80156103065780601f106102dd57610100808354040283529160200191610306565b820191905f5260205f20905b8154815290600101906020018083116102e957829003601f168201915b5050505050905090565b5f61031c33848461043d565b5060015b92915050565b5f610332848484610566565b610383843361037e8560405180606001604052806028815260200161098d602891396001600160a01b038a165f90815260016020908152604080832033845290915290205491906106e6565b61043d565b5060019392505050565b335f8181526001602090815260408083206001600160a01b0387168452909152812054909161031c91859061037e9086610713565b60606004805461028f9061092e565b5f6103dc3383610722565b506001919050565b5f61031c338461037e856040518060600160405280602581526020016109b560259139335f9081526001602090815260408083206001600160a01b038d16845290915290205491906106e6565b5f61031c338484610566565b6001600160a01b0383166104a45760405162461bcd60e51b8152602060048201526024808201527f45524332303a20617070726f76652066726f6d20746865207a65726f206164646044820152637265737360e01b60648201526084015b60405180910390fd5b6001600160a01b0382166105055760405162461bcd60e51b815260206004820152602260248201527f45524332303a20617070726f766520746f20746865207a65726f206164647265604482015261737360f01b606482015260840161049b565b6001600160a01b038381165f8181526001602090815260408083209487168084529482529182902085905590518481527f8c5be1e5ebec7d5bd14f71427d1e84f3dd0314c0f7b2291e5b200ac8c7c3b92591015b60405180910390a3505050565b6001600160a01b0383166105ca5760405162461bcd60e51b815260206004820152602560248201527f45524332303a207472616e736665722066726f6d20746865207a65726f206164604482015264647265737360d81b606482015260840161049b565b6001600160a01b03821661062c5760405162461bcd60e51b815260206004820152602360248201527f45524332303a207472616e7366657220746f20746865207a65726f206164647260448201526265737360e81b606482015260840161049b565b61066881604051806060016040528060268152602001610967602691396001600160a01b0386165f9081526020819052604090205491906106e6565b6001600160a01b038085165f9081526020819052604080822093909355908416815220546106969082610713565b6001600160a01b038381165f818152602081815260409182902094909455518481529092918616917fddf252ad1be2c89b69c2b068fc378daa952ba7f163c4a11628f55a4df523b3ef9101610559565b818303818482111561070b5760405162461bcd60e51b815260040161049b91906107fe565b509392505050565b80820182811015610320575f5ffd5b6001600160a01b0382166107785760405162461bcd60e51b815260206004820152601f60248201527f45524332303a206d696e7420746f20746865207a65726f206164647265737300604482015260640161049b565b6002546107859082610713565b6002556001600160a01b0382165f908152602081905260409020546107aa9082610713565b6001600160a01b0383165f81815260208181526040808320949094559251848152919290917fddf252ad1be2c89b69c2b068fc378daa952ba7f163c4a11628f55a4df523b3ef910160405180910390a35050565b602081525f82518060208401525f5b8181101561082a576020818601810151604086840101520161080d565b505f604082850101526040601f19601f83011684010191505092915050565b80356001600160a01b038116811461085f575f5ffd5b919050565b5f5f60408385031215610875575f5ffd5b61087e83610849565b946020939093013593505050565b5f5f5f6060848603121561089e575f5ffd5b6108a784610849565b92506108b560208501610849565b929592945050506040919091013590565b5f602082840312156108d6575f5ffd5b6108df82610849565b9392505050565b5f602082840312156108f6575f5ffd5b5035919050565b5f5f6040838503121561090e575f5ffd5b61091783610849565b915061092560208401610849565b90509250929050565b600181811c9082168061094257607f821691505b60208210810361096057634e487b7160e01b5f52602260045260245ffd5b5091905056fe45524332303a207472616e7366657220616d6f756e7420657863656564732062616c616e636545524332303a207472616e7366657220616d6f756e74206578636565647320616c6c6f77616e636545524332303a2064656372656173656420616c6c6f77616e63652062656c6f77207a65726fa164736f6c634300081b000a","linkReferences":{}},"methodIdentifiers":{"allowance(address,address)":"dd62ed3e","approve(address,uint256)":"095ea7b3","balanceOf(address)":"70a08231","decimals()":"313ce567","decreaseAllowance(address,uint256)":"a457c2d7","delegate(address)":"5c19a95c","delegatee()":"1e31d053","increaseAllowance(address,uint256)":"39509351","mint(uint256)":"a0712d68","name()":"06fdde03","symbol()":"95d89b41","totalSupply()":"18160ddd","transfer(address,uint256)":"a9059cbb","transferFrom(address,address,uint256)":"23b872dd"},"id":213}