{"abi":[{"type":"constructor","inputs":[{"name":"provider","type":"address","internalType":"contract IPoolAddressesProvider"},{"name":"interestRateStrategy","type":"address","internalType":"contract IReserveInterestRateStrategy"}],"stateMutability":"nonpayable"},{"type":"function","name":"ADDRESSES_PROVIDER","inputs":[],"outputs":[{"name":"","type":"address","internalType":"contract IPoolAddressesProvider"}],"stateMutability":"view"},{"type":"function","name":"FLASHLOAN_PREMIUM_TOTAL","inputs":[],"outputs":[{"name":"","type":"uint128","internalType":"uint128"}],"stateMutability":"view"},{"type":"function","name":"FLASHLOAN_PREMIUM_TO_PROTOCOL","inputs":[],"outputs":[{"name":"","type":"uint128","internalType":"uint128"}],"stateMutability":"view"},{"type":"function","name":"MAX_NUMBER_RESERVES","inputs":[],"outputs":[{"name":"","type":"uint16","internalType":"uint16"}],"stateMutability":"view"},{"type":"function","name":"POOL_REVISION","inputs":[],"outputs":[{"name":"","type":"uint256","internalType":"uint256"}],"stateMutability":"view"},{"type":"function","name":"RESERVE_INTEREST_RATE_STRATEGY","inputs":[],"outputs":[{"name":"","type":"address","internalType":"address"}],"stateMutability":"view"},{"type":"function","name":"UMBRELLA","inputs":[],"outputs":[{"name":"","type":"bytes32","internalType":"bytes32"}],"stateMutability":"view"},{"type":"function","name":"approvePositionManager","inputs":[{"name":"positionManager","type":"address","internalType":"address"},{"name":"approve","type":"bool","internalType":"bool"}],"outputs":[],"stateMutability":"nonpayable"},{"type":"function","name":"borrow","inputs":[{"name":"asset","type":"address","internalType":"address"},{"name":"amount","type":"uint256","internalType":"uint256"},{"name":"interestRateMode","type":"uint256","internalType":"uint256"},{"name":"referralCode","type":"uint16","internalType":"uint16"},{"name":"onBehalfOf","type":"address","internalType":"address"}],"outputs":[],"stateMutability":"nonpayable"},{"type":"function","name":"configureEModeCategory","inputs":[{"name":"id","type":"uint8","internalType":"uint8"},{"name":"category","type":"tuple","internalType":"struct DataTypes.EModeCategoryBaseConfiguration","components":[{"name":"ltv","type":"uint16","internalType":"uint16"},{"name":"liquidationThreshold","type":"uint16","internalType":"uint16"},{"name":"liquidationBonus","type":"uint16","internalType":"uint16"},{"name":"label","type":"string","internalType":"string"}]}],"outputs":[],"stateMutability":"nonpayable"},{"type":"function","name":"configureEModeCategoryBorrowableBitmap","inputs":[{"name":"id","type":"uint8","internalType":"uint8"},{"name":"borrowableBitmap","type":"uint128","internalType":"uint128"}],"outputs":[],"stateMutability":"nonpayable"},{"type":"function","name":"configureEModeCategoryCollateralBitmap","inputs":[{"name":"id","type":"uint8","internalType":"uint8"},{"name":"collateralBitmap","type":"uint128","internalType":"uint128"}],"outputs":[],"stateMutability":"nonpayable"},{"type":"function","name":"deposit","inputs":[{"name":"asset","type":"address","internalType":"address"},{"name":"amount","type":"uint256","internalType":"uint256"},{"name":"onBehalfOf","type":"address","internalType":"address"},{"name":"referralCode","type":"uint16","internalType":"uint16"}],"outputs":[],"stateMutability":"nonpayable"},{"type":"function","name":"dropReserve","inputs":[{"name":"asset","type":"address","internalType":"address"}],"outputs":[],"stateMutability":"nonpayable"},{"type":"function","name":"eliminateReserveDeficit","inputs":[{"name":"asset","type":"address","internalType":"address"},{"name":"amount","type":"uint256","internalType":"uint256"}],"outputs":[{"name":"","type":"uint256","internalType":"uint256"}],"stateMutability":"nonpayable"},{"type":"function","name":"finalizeTransfer","inputs":[{"name":"asset","type":"address","internalType":"address"},{"name":"from","type":"address","internalType":"address"},{"name":"to","type":"address","internalType":"address"},{"name":"scaledAmount","type":"uint256","internalType":"uint256"},{"name":"scaledBalanceFromBefore","type":"uint256","internalType":"uint256"},{"name":"scaledBalanceToBefore","type":"uint256","internalType":"uint256"}],"outputs":[],"stateMutability":"nonpayable"},{"type":"function","name":"flashLoan","inputs":[{"name":"receiverAddress","type":"address","internalType":"address"},{"name":"assets","type":"address[]","internalType":"address[]"},{"name":"amounts","type":"uint256[]","internalType":"uint256[]"},{"name":"interestRateModes","type":"uint256[]","internalType":"uint256[]"},{"name":"onBehalfOf","type":"address","internalType":"address"},{"name":"params","type":"bytes","internalType":"bytes"},{"name":"referralCode","type":"uint16","internalType":"uint16"}],"outputs":[],"stateMutability":"nonpayable"},{"type":"function","name":"flashLoanSimple","inputs":[{"name":"receiverAddress","type":"address","internalType":"address"},{"name":"asset","type":"address","internalType":"address"},{"name":"amount","type":"uint256","internalType":"uint256"},{"name":"params","type":"bytes","internalType":"bytes"},{"name":"referralCode","type":"uint16","internalType":"uint16"}],"outputs":[],"stateMutability":"nonpayable"},{"type":"function","name":"getBorrowLogic","inputs":[],"outputs":[{"name":"","type":"address","internalType":"address"}],"stateMutability":"pure"},{"type":"function","name":"getConfiguration","inputs":[{"name":"asset","type":"address","internalType":"address"}],"outputs":[{"name":"","type":"tuple","internalType":"struct DataTypes.ReserveConfigurationMap","components":[{"name":"data","type":"uint256","internalType":"uint256"}]}],"stateMutability":"view"},{"type":"function","name":"getEModeCategoryBorrowableBitmap","inputs":[{"name":"id","type":"uint8","internalType":"uint8"}],"outputs":[{"name":"","type":"uint128","internalType":"uint128"}],"stateMutability":"view"},{"type":"function","name":"getEModeCategoryCollateralBitmap","inputs":[{"name":"id","type":"uint8","internalType":"uint8"}],"outputs":[{"name":"","type":"uint128","internalType":"uint128"}],"stateMutability":"view"},{"type":"function","name":"getEModeCategoryCollateralConfig","inputs":[{"name":"id","type":"uint8","internalType":"uint8"}],"outputs":[{"name":"res","type":"tuple","internalType":"struct DataTypes.CollateralConfig","components":[{"name":"ltv","type":"uint16","internalType":"uint16"},{"name":"liquidationThreshold","type":"uint16","internalType":"uint16"},{"name":"liquidationBonus","type":"uint16","internalType":"uint16"}]}],"stateMutability":"view"},{"type":"function","name":"getEModeCategoryData","inputs":[{"name":"id","type":"uint8","internalType":"uint8"}],"outputs":[{"name":"","type":"tuple","internalType":"struct DataTypes.EModeCategoryLegacy","components":[{"name":"ltv","type":"uint16","internalType":"uint16"},{"name":"liquidationThreshold","type":"uint16","internalType":"uint16"},{"name":"liquidationBonus","type":"uint16","internalType":"uint16"},{"name":"priceSource","type":"address","internalType":"address"},{"name":"label","type":"string","internalType":"string"}]}],"stateMutability":"view"},{"type":"function","name":"getEModeCategoryLabel","inputs":[{"name":"id","type":"uint8","internalType":"uint8"}],"outputs":[{"name":"","type":"string","internalType":"string"}],"stateMutability":"view"},{"type":"function","name":"getEModeLogic","inputs":[],"outputs":[{"name":"","type":"address","internalType":"address"}],"stateMutability":"pure"},{"type":"function","name":"getFlashLoanLogic","inputs":[],"outputs":[{"name":"","type":"address","internalType":"address"}],"stateMutability":"pure"},{"type":"function","name":"getLiquidationGracePeriod","inputs":[{"name":"asset","type":"address","internalType":"address"}],"outputs":[{"name":"","type":"uint40","internalType":"uint40"}],"stateMutability":"view"},{"type":"function","name":"getLiquidationLogic","inputs":[],"outputs":[{"name":"","type":"address","internalType":"address"}],"stateMutability":"pure"},{"type":"function","name":"getPoolLogic","inputs":[],"outputs":[{"name":"","type":"address","internalType":"address"}],"stateMutability":"pure"},{"type":"function","name":"getReserveAToken","inputs":[{"name":"asset","type":"address","internalType":"address"}],"outputs":[{"name":"","type":"address","internalType":"address"}],"stateMutability":"view"},{"type":"function","name":"getReserveAddressById","inputs":[{"name":"id","type":"uint16","internalType":"uint16"}],"outputs":[{"name":"","type":"address","internalType":"address"}],"stateMutability":"view"},{"type":"function","name":"getReserveData","inputs":[{"name":"asset","type":"address","internalType":"address"}],"outputs":[{"name":"res","type":"tuple","internalType":"struct DataTypes.ReserveDataLegacy","components":[{"name":"configuration","type":"tuple","internalType":"struct DataTypes.ReserveConfigurationMap","components":[{"name":"data","type":"uint256","internalType":"uint256"}]},{"name":"liquidityIndex","type":"uint128","internalType":"uint128"},{"name":"currentLiquidityRate","type":"uint128","internalType":"uint128"},{"name":"variableBorrowIndex","type":"uint128","internalType":"uint128"},{"name":"currentVariableBorrowRate","type":"uint128","internalType":"uint128"},{"name":"currentStableBorrowRate","type":"uint128","internalType":"uint128"},{"name":"lastUpdateTimestamp","type":"uint40","internalType":"uint40"},{"name":"id","type":"uint16","internalType":"uint16"},{"name":"aTokenAddress","type":"address","internalType":"address"},{"name":"stableDebtTokenAddress","type":"address","internalType":"address"},{"name":"variableDebtTokenAddress","type":"address","internalType":"address"},{"name":"interestRateStrategyAddress","type":"address","internalType":"address"},{"name":"accruedToTreasury","type":"uint128","internalType":"uint128"},{"name":"unbacked","type":"uint128","internalType":"uint128"},{"name":"isolationModeTotalDebt","type":"uint128","internalType":"uint128"}]}],"stateMutability":"view"},{"type":"function","name":"getReserveDeficit","inputs":[{"name":"asset","type":"address","internalType":"address"}],"outputs":[{"name":"","type":"uint256","internalType":"uint256"}],"stateMutability":"view"},{"type":"function","name":"getReserveNormalizedIncome","inputs":[{"name":"asset","type":"address","internalType":"address"}],"outputs":[{"name":"","type":"uint256","internalType":"uint256"}],"stateMutability":"view"},{"type":"function","name":"getReserveNormalizedVariableDebt","inputs":[{"name":"asset","type":"address","internalType":"address"}],"outputs":[{"name":"","type":"uint256","internalType":"uint256"}],"stateMutability":"view"},{"type":"function","name":"getReserveVariableDebtToken","inputs":[{"name":"asset","type":"address","internalType":"address"}],"outputs":[{"name":"","type":"address","internalType":"address"}],"stateMutability":"view"},{"type":"function","name":"getReservesCount","inputs":[],"outputs":[{"name":"","type":"uint256","internalType":"uint256"}],"stateMutability":"view"},{"type":"function","name":"getReservesList","inputs":[],"outputs":[{"name":"","type":"address[]","internalType":"address[]"}],"stateMutability":"view"},{"type":"function","name":"getSupplyLogic","inputs":[],"outputs":[{"name":"","type":"address","internalType":"address"}],"stateMutability":"pure"},{"type":"function","name":"getUserAccountData","inputs":[{"name":"user","type":"address","internalType":"address"}],"outputs":[{"name":"totalCollateralBase","type":"uint256","internalType":"uint256"},{"name":"totalDebtBase","type":"uint256","internalType":"uint256"},{"name":"availableBorrowsBase","type":"uint256","internalType":"uint256"},{"name":"currentLiquidationThreshold","type":"uint256","internalType":"uint256"},{"name":"ltv","type":"uint256","internalType":"uint256"},{"name":"healthFactor","type":"uint256","internalType":"uint256"}],"stateMutability":"view"},{"type":"function","name":"getUserConfiguration","inputs":[{"name":"user","type":"address","internalType":"address"}],"outputs":[{"name":"","type":"tuple","internalType":"struct DataTypes.UserConfigurationMap","components":[{"name":"data","type":"uint256","internalType":"uint256"}]}],"stateMutability":"view"},{"type":"function","name":"getUserEMode","inputs":[{"name":"user","type":"address","internalType":"address"}],"outputs":[{"name":"","type":"uint256","internalType":"uint256"}],"stateMutability":"view"},{"type":"function","name":"getVirtualUnderlyingBalance","inputs":[{"name":"asset","type":"address","internalType":"address"}],"outputs":[{"name":"","type":"uint128","internalType":"uint128"}],"stateMutability":"view"},{"type":"function","name":"initReserve","inputs":[{"name":"asset","type":"address","internalType":"address"},{"name":"aTokenAddress","type":"address","internalType":"address"},{"name":"variableDebtAddress","type":"address","internalType":"address"}],"outputs":[],"stateMutability":"nonpayable"},{"type":"function","name":"initialize","inputs":[{"name":"provider","type":"address","internalType":"contract IPoolAddressesProvider"}],"outputs":[],"stateMutability":"nonpayable"},{"type":"function","name":"isApprovedPositionManager","inputs":[{"name":"user","type":"address","internalType":"address"},{"name":"positionManager","type":"address","internalType":"address"}],"outputs":[{"name":"","type":"bool","internalType":"bool"}],"stateMutability":"view"},{"type":"function","name":"liquidationCall","inputs":[{"name":"collateralAsset","type":"address","internalType":"address"},{"name":"debtAsset","type":"address","internalType":"address"},{"name":"borrower","type":"address","internalType":"address"},{"name":"debtToCover","type":"uint256","internalType":"uint256"},{"name":"receiveAToken","type":"bool","internalType":"bool"}],"outputs":[],"stateMutability":"nonpayable"},{"type":"function","name":"mintToTreasury","inputs":[{"name":"assets","type":"address[]","internalType":"address[]"}],"outputs":[],"stateMutability":"nonpayable"},{"type":"function","name":"multicall","inputs":[{"name":"data","type":"bytes[]","internalType":"bytes[]"}],"outputs":[{"name":"results","type":"bytes[]","internalType":"bytes[]"}],"stateMutability":"nonpayable"},{"type":"function","name":"renouncePositionManagerRole","inputs":[{"name":"user","type":"address","internalType":"address"}],"outputs":[],"stateMutability":"nonpayable"},{"type":"function","name":"repay","inputs":[{"name":"asset","type":"address","internalType":"address"},{"name":"amount","type":"uint256","internalType":"uint256"},{"name":"interestRateMode","type":"uint256","internalType":"uint256"},{"name":"onBehalfOf","type":"address","internalType":"address"}],"outputs":[{"name":"","type":"uint256","internalType":"uint256"}],"stateMutability":"nonpayable"},{"type":"function","name":"repayWithATokens","inputs":[{"name":"asset","type":"address","internalType":"address"},{"name":"amount","type":"uint256","internalType":"uint256"},{"name":"interestRateMode","type":"uint256","internalType":"uint256"}],"outputs":[{"name":"","type":"uint256","internalType":"uint256"}],"stateMutability":"nonpayable"},{"type":"function","name":"repayWithPermit","inputs":[{"name":"asset","type":"address","internalType":"address"},{"name":"amount","type":"uint256","internalType":"uint256"},{"name":"interestRateMode","type":"uint256","internalType":"uint256"},{"name":"onBehalfOf","type":"address","internalType":"address"},{"name":"deadline","type":"uint256","internalType":"uint256"},{"name":"permitV","type":"uint8","internalType":"uint8"},{"name":"permitR","type":"bytes32","internalType":"bytes32"},{"name":"permitS","type":"bytes32","internalType":"bytes32"}],"outputs":[{"name":"","type":"uint256","internalType":"uint256"}],"stateMutability":"nonpayable"},{"type":"function","name":"rescueTokens","inputs":[{"name":"token","type":"address","internalType":"address"},{"name":"to","type":"address","internalType":"address"},{"name":"amount","type":"uint256","internalType":"uint256"}],"outputs":[],"stateMutability":"nonpayable"},{"type":"function","name":"resetIsolationModeTotalDebt","inputs":[{"name":"asset","type":"address","internalType":"address"}],"outputs":[],"stateMutability":"nonpayable"},{"type":"function","name":"setConfiguration","inputs":[{"name":"asset","type":"address","internalType":"address"},{"name":"configuration","type":"tuple","internalType":"struct DataTypes.ReserveConfigurationMap","components":[{"name":"data","type":"uint256","internalType":"uint256"}]}],"outputs":[],"stateMutability":"nonpayable"},{"type":"function","name":"setLiquidationGracePeriod","inputs":[{"name":"asset","type":"address","internalType":"address"},{"name":"until","type":"uint40","internalType":"uint40"}],"outputs":[],"stateMutability":"nonpayable"},{"type":"function","name":"setMaxNumberOfReserves","inputs":[{"name":"newMaxNumberOfReserves","type":"uint16","internalType":"uint16"}],"outputs":[],"stateMutability":"nonpayable"},{"type":"function","name":"setUserEMode","inputs":[{"name":"categoryId","type":"uint8","internalType":"uint8"}],"outputs":[],"stateMutability":"nonpayable"},{"type":"function","name":"setUserEModeOnBehalfOf","inputs":[{"name":"categoryId","type":"uint8","internalType":"uint8"},{"name":"onBehalfOf","type":"address","internalType":"address"}],"outputs":[],"stateMutability":"nonpayable"},{"type":"function","name":"setUserUseReserveAsCollateral","inputs":[{"name":"asset","type":"address","internalType":"address"},{"name":"useAsCollateral","type":"bool","internalType":"bool"}],"outputs":[],"stateMutability":"nonpayable"},{"type":"function","name":"setUserUseReserveAsCollateralOnBehalfOf","inputs":[{"name":"asset","type":"address","internalType":"address"},{"name":"useAsCollateral","type":"bool","internalType":"bool"},{"name":"onBehalfOf","type":"address","internalType":"address"}],"outputs":[],"stateMutability":"nonpayable"},{"type":"function","name":"supply","inputs":[{"name":"asset","type":"address","internalType":"address"},{"name":"amount","type":"uint256","internalType":"uint256"},{"name":"onBehalfOf","type":"address","internalType":"address"},{"name":"referralCode","type":"uint16","internalType":"uint16"}],"outputs":[],"stateMutability":"nonpayable"},{"type":"function","name":"supplyWithPermit","inputs":[{"name":"asset","type":"address","internalType":"address"},{"name":"amount","type":"uint256","internalType":"uint256"},{"name":"onBehalfOf","type":"address","internalType":"address"},{"name":"referralCode","type":"uint16","internalType":"uint16"},{"name":"deadline","type":"uint256","internalType":"uint256"},{"name":"permitV","type":"uint8","internalType":"uint8"},{"name":"permitR","type":"bytes32","internalType":"bytes32"},{"name":"permitS","type":"bytes32","internalType":"bytes32"}],"outputs":[],"stateMutability":"nonpayable"},{"type":"function","name":"syncIndexesState","inputs":[{"name":"asset","type":"address","internalType":"address"}],"outputs":[],"stateMutability":"nonpayable"},{"type":"function","name":"syncRatesState","inputs":[{"name":"asset","type":"address","internalType":"address"}],"outputs":[],"stateMutability":"nonpayable"},{"type":"function","name":"updateFlashloanPremium","inputs":[{"name":"flashLoanPremium","type":"uint128","internalType":"uint128"}],"outputs":[],"stateMutability":"nonpayable"},{"type":"function","name":"withdraw","inputs":[{"name":"asset","type":"address","internalType":"address"},{"name":"amount","type":"uint256","internalType":"uint256"},{"name":"to","type":"address","internalType":"address"}],"outputs":[{"name":"","type":"uint256","internalType":"uint256"}],"stateMutability":"nonpayable"},{"type":"event","name":"Borrow","inputs":[{"name":"reserve","type":"address","indexed":true,"internalType":"address"},{"name":"user","type":"address","indexed":false,"internalType":"address"},{"name":"onBehalfOf","type":"address","indexed":true,"internalType":"address"},{"name":"amount","type":"uint256","indexed":false,"internalType":"uint256"},{"name":"interestRateMode","type":"uint8","indexed":false,"internalType":"enum DataTypes.InterestRateMode"},{"name":"borrowRate","type":"uint256","indexed":false,"internalType":"uint256"},{"name":"referralCode","type":"uint16","indexed":true,"internalType":"uint16"}],"anonymous":false},{"type":"event","name":"DeficitCovered","inputs":[{"name":"reserve","type":"address","indexed":true,"internalType":"address"},{"name":"caller","type":"address","indexed":false,"internalType":"address"},{"name":"amountCovered","type":"uint256","indexed":false,"internalType":"uint256"}],"anonymous":false},{"type":"event","name":"DeficitCreated","inputs":[{"name":"user","type":"address","indexed":true,"internalType":"address"},{"name":"debtAsset","type":"address","indexed":true,"internalType":"address"},{"name":"amountCreated","type":"uint256","indexed":false,"internalType":"uint256"}],"anonymous":false},{"type":"event","name":"FlashLoan","inputs":[{"name":"target","type":"address","indexed":true,"internalType":"address"},{"name":"initiator","type":"address","indexed":false,"internalType":"address"},{"name":"asset","type":"address","indexed":true,"internalType":"address"},{"name":"amount","type":"uint256","indexed":false,"internalType":"uint256"},{"name":"interestRateMode","type":"uint8","indexed":false,"internalType":"enum DataTypes.InterestRateMode"},{"name":"premium","type":"uint256","indexed":false,"internalType":"uint256"},{"name":"referralCode","type":"uint16","indexed":true,"internalType":"uint16"}],"anonymous":false},{"type":"event","name":"IsolationModeTotalDebtUpdated","inputs":[{"name":"asset","type":"address","indexed":true,"internalType":"address"},{"name":"totalDebt","type":"uint256","indexed":false,"internalType":"uint256"}],"anonymous":false},{"type":"event","name":"LiquidationCall","inputs":[{"name":"collateralAsset","type":"address","indexed":true,"internalType":"address"},{"name":"debtAsset","type":"address","indexed":true,"internalType":"address"},{"name":"user","type":"address","indexed":true,"internalType":"address"},{"name":"debtToCover","type":"uint256","indexed":false,"internalType":"uint256"},{"name":"liquidatedCollateralAmount","type":"uint256","indexed":false,"internalType":"uint256"},{"name":"liquidator","type":"address","indexed":false,"internalType":"address"},{"name":"receiveAToken","type":"bool","indexed":false,"internalType":"bool"}],"anonymous":false},{"type":"event","name":"MintedToTreasury","inputs":[{"name":"reserve","type":"address","indexed":true,"internalType":"address"},{"name":"amountMinted","type":"uint256","indexed":false,"internalType":"uint256"}],"anonymous":false},{"type":"event","name":"PositionManagerApproved","inputs":[{"name":"user","type":"address","indexed":true,"internalType":"address"},{"name":"positionManager","type":"address","indexed":true,"internalType":"address"}],"anonymous":false},{"type":"event","name":"PositionManagerRevoked","inputs":[{"name":"user","type":"address","indexed":true,"internalType":"address"},{"name":"positionManager","type":"address","indexed":true,"internalType":"address"}],"anonymous":false},{"type":"event","name":"Repay","inputs":[{"name":"reserve","type":"address","indexed":true,"internalType":"address"},{"name":"user","type":"address","indexed":true,"internalType":"address"},{"name":"repayer","type":"address","indexed":true,"internalType":"address"},{"name":"amount","type":"uint256","indexed":false,"internalType":"uint256"},{"name":"useATokens","type":"bool","indexed":false,"internalType":"bool"}],"anonymous":false},{"type":"event","name":"ReserveDataUpdated","inputs":[{"name":"reserve","type":"address","indexed":true,"internalType":"address"},{"name":"liquidityRate","type":"uint256","indexed":false,"internalType":"uint256"},{"name":"stableBorrowRate","type":"uint256","indexed":false,"internalType":"uint256"},{"name":"variableBorrowRate","type":"uint256","indexed":false,"internalType":"uint256"},{"name":"liquidityIndex","type":"uint256","indexed":false,"internalType":"uint256"},{"name":"variableBorrowIndex","type":"uint256","indexed":false,"internalType":"uint256"}],"anonymous":false},{"type":"event","name":"ReserveUsedAsCollateralDisabled","inputs":[{"name":"reserve","type":"address","indexed":true,"internalType":"address"},{"name":"user","type":"address","indexed":true,"internalType":"address"}],"anonymous":false},{"type":"event","name":"ReserveUsedAsCollateralEnabled","inputs":[{"name":"reserve","type":"address","indexed":true,"internalType":"address"},{"name":"user","type":"address","indexed":true,"internalType":"address"}],"anonymous":false},{"type":"event","name":"Supply","inputs":[{"name":"reserve","type":"address","indexed":true,"internalType":"address"},{"name":"user","type":"address","indexed":false,"internalType":"address"},{"name":"onBehalfOf","type":"address","indexed":true,"internalType":"address"},{"name":"amount","type":"uint256","indexed":false,"internalType":"uint256"},{"name":"referralCode","type":"uint16","indexed":true,"internalType":"uint16"}],"anonymous":false},{"type":"event","name":"UserEModeSet","inputs":[{"name":"user","type":"address","indexed":true,"internalType":"address"},{"name":"categoryId","type":"uint8","indexed":false,"internalType":"uint8"}],"anonymous":false},{"type":"event","name":"Withdraw","inputs":[{"name":"reserve","type":"address","indexed":true,"internalType":"address"},{"name":"user","type":"address","indexed":true,"internalType":"address"},{"name":"to","type":"address","indexed":true,"internalType":"address"},{"name":"amount","type":"uint256","indexed":false,"internalType":"uint256"}],"anonymous":false},{"type":"error","name":"AddressEmptyCode","inputs":[{"name":"target","type":"address","internalType":"address"}]},{"type":"error","name":"AssetNotListed","inputs":[]},{"type":"error","name":"CallerNotAToken","inputs":[]},{"type":"error","name":"CallerNotPoolAdmin","inputs":[]},{"type":"error","name":"CallerNotPoolConfigurator","inputs":[]},{"type":"error","name":"CallerNotPositionManager","inputs":[]},{"type":"error","name":"CallerNotUmbrella","inputs":[]},{"type":"error","name":"EModeCategoryReserved","inputs":[]},{"type":"error","name":"FailedCall","inputs":[]},{"type":"error","name":"InvalidAddressesProvider","inputs":[]},{"type":"error","name":"ZeroAddressNotValid","inputs":[]}],"bytecode":{"object":"0x60c06040525f8055603d805461ffff19166080179055348015610020575f5ffd5b5060405161560338038061560383398101604081905261003f916100ba565b8181818161004b610091565b5f556001600160a01b03808316608052811661007a57604051633bf95ba760e01b815260040160405180910390fd5b6001600160a01b031660a052506101179350505050565b5f61009e600960016100f2565b905090565b6001600160a01b03811681146100b7575f5ffd5b50565b5f5f604083850312156100cb575f5ffd5b82516100d6816100a3565b60208401519092506100e7816100a3565b809150509250929050565b8082018082111561011157634e487b7160e01b5f52601160045260245ffd5b92915050565b60805160a0516153e461021f5f395f81816104a501528181610e9801528181610fe9015281816112b601528181611561015281816116bb0152818161196101528181611c8501528181611d9501528181612407015281816125a6015281816126f4015281816129ee01526135c101525f818161044101528181610d6101528181610e1d0152818161116f0152818161132b015281816115d501528181611818015281816119d501528181611b2901528181611dd901528181612304015281816124e6015281816127640152818161282001528181612a8801528181612f5b01528181613162015281816133dd01528181613635015281816139e40152613b0801526153e45ff3fe608060405234801561000f575f5ffd5b50600436106103f5575f3560e01c806392380ecb11610216578063c4d66de81161012a578063e8eda9df116100b4578063f51e435b11610084578063f51e435b14610c47578063f8119d5114610c5a578063f9c2bd8714610c70578063fea149a614610cbb578063ff72158a14610cce575f5ffd5b8063e8eda9df146106df578063eddf1b7914610bef578063ee3e210b14610c1a578063f32b9a7314610c2d575f5ffd5b8063d15e0053116100fa578063d15e005314610b87578063d1946dbc14610b9a578063d335015514610baf578063d5ed393314610bc9578063e43e88a114610bdc575f5ffd5b8063c4d66de814610aff578063c952485d14610b12578063cea9d26f14610b46578063cff027d914610b59575f5ffd5b8063ab2b51f6116101ab578063b1a99e261161017b578063b1a99e26146109c6578063b286f467146109d9578063b8caa7c514610a6b578063bf92857c14610a7e578063c44b11f714610abe575f5ffd5b8063ab2b51f61461094b578063ab9c4b5d1461095e578063ac9650d814610971578063b0771dba14610991575f5ffd5b80639c1d5f00116101e65780639c1d5f00146108ff5780639cd1999614610912578063a1d2f3c414610925578063a415bcad14610938575f5ffd5b806392380ecb146108b3578063932f12c8146108c6578063972b35fa146108d957806398c7da4e146108ec575f5ffd5b8063527517971161030d5780636a99c036116102a257806372218d041161027257806372218d041461082b5780637b75d7f41461083e578063870e774414610851578063903a2c711461086b578063911a341314610899575f5ffd5b80636a99c036146107b65780636c6f6ae1146107be5780636fb07f96146107de57806371459c1514610819575f5ffd5b80635c9a8b18116102dd5780635c9a8b1814610690578063617ba037146106df57806363c9b860146106f257806369328dec146107a3575f5ffd5b80635275179714610618578063573ade811461064457806357c68dc4146106575780635a3b74b91461067d575f5ffd5b80632be29fa71161038e578063365090a01161035e578063365090a014610561578063386497fd1461058f57806342b0b77c146105a25780634417a583146105b55780634ba0681414610605575f5ffd5b80632be29fa7146104fa5780632dad97d414610514578063348fde0f1461052757806335ea6a7514610541575f5ffd5b8063074b2e43116103c9578063074b2e431461047b5780631b8feb0e146104a05780632083e183146104c757806328530a47146104e7575f5ffd5b8062a718a9146103f95780630148170e1461040e57806302c205f0146104295780630542975c1461043c575b5f5ffd5b61040c610407366004613e25565b610ce1565b005b610416600981565b6040519081526020015b60405180910390f35b61040c610437366004613eaa565b610f16565b6104637f000000000000000000000000000000000000000000000000000000000000000081565b6040516001600160a01b039091168152602001610420565b603a546001600160801b03165b6040516001600160801b039091168152602001610420565b6104637f000000000000000000000000000000000000000000000000000000000000000081565b6104da6104d5366004613f24565b611088565b6040516104209190613f8a565b61040c6104f5366004613f24565b61112e565b73__$83e702f37eeb79ca6ea8c03d9bc14d29cb$__610463565b610416610522366004613f9c565b611240565b73__$1aecd72e546835de8d2664e100f70770e0$__610463565b61055461054f366004613fce565b61143c565b6040516104209190613fe9565b61046361056f366004613fce565b6001600160a01b039081165f908152603460205260409020600601541690565b61041661059d366004613fce565b611653565b61040c6105b03660046141be565b611679565b6105f66105c3366004613fce565b60408051602080820183525f918290526001600160a01b0393909316815260358352819020815192830190915254815290565b60405190518152602001610420565b61040c61061336600461423a565b6117c6565b61046361062636600461426f565b61ffff165f908152603660205260409020546001600160a01b031690565b610416610652366004614288565b6118eb565b61040c61066536600461426f565b603d805461ffff191661ffff92909216919091179055565b61040c61068b3660046142cf565b611ae8565b6106c961069e366004613fce565b6001600160a01b03165f90815260346020526040902060030154600160b81b900464ffffffffff1690565b60405164ffffffffff9091168152602001610420565b61040c6106ed3660046142fb565b611c13565b61040c610700366004613fce565b6001600160a01b03165f818152603460208181526040808420600381018054600160a81b900461ffff1686526036845291852080546001600160a01b031990811690915595855292909152828255600182018390556002820183905580546001600160e01b031916905560048101805484169055600581018054841690556006810180548416905560078101805490931690925560088201819055600990910155565b6104166107b1366004614349565b611d20565b612710610488565b6107d16107cc366004613f24565b611ea1565b6040516104209190614388565b6104886107ec366004613fce565b6001600160a01b03165f90815260346020526040902060080154600160801b90046001600160801b031690565b61041667554d4252454c4c4160c01b81565b603b54600160401b900461ffff16610416565b61040c61084c3660046143de565b611fb1565b73__$91b47d451814c731a99462488968bab857$__610463565b610488610879366004613f24565b60ff165f908152603760205260409020600201546001600160801b031690565b73__$6d137c64be18f5cad883104c2a9fa60a79$__610463565b61040c6108c1366004614439565b6120c7565b61040c6108d436600461446a565b61213d565b61040c6108e73660046144a7565b6122b2565b61040c6108fa366004613fce565b6123c7565b61040c61090d3660046144d4565b612452565b61040c61092036600461452d565b61247c565b61041661093336600461456b565b6124b8565b61040c610946366004614595565b612670565b61040c610959366004613fce565b6128b7565b61040c61096c3660046145e0565b612910565b61098461097f36600461452d565b612c39565b60405161042091906146db565b61048861099f366004613f24565b60ff165f90815260376020526040902054660100000000000090046001600160801b031690565b61040c6109d436600461473e565b612d1e565b610a3e6109e7366004613f24565b604080516060810182525f808252602080830182815283850183815260ff9690961680845260378084529584205461ffff808216875262010000820481169093529352939052640100000000900490911690915290565b60408051825161ffff90811682526020808501518216908301529282015190921690820152606001610420565b61040c610a793660046142cf565b612dfe565b610a91610a8c366004613fce565b612edd565b604080519687526020870195909552938501929092526060840152608083015260a082015260c001610420565b6105f6610acc366004613fce565b60408051602080820183525f918290526001600160a01b0393909316815260348352819020815192830190915254815290565b61040c610b0d366004613fce565b6130b3565b610416610b20366004613fce565b6001600160a01b03165f908152603460205260409020600301546001600160801b031690565b61040c610b54366004614773565b6131c7565b610463610b67366004613fce565b6001600160a01b039081165f908152603460205260409020600401541690565b610416610b95366004613fce565b61321e565b610ba261323e565b60405161042091906147b1565b73__$5c81c34ced5c181849a1f58b32d6fe0e6c$__610463565b61040c610bd73660046147fc565b613332565b61040c610bea366004613fce565b6134dc565b610416610bfd366004613fce565b6001600160a01b03165f9081526038602052604090205460ff1690565b610416610c2836600461485d565b61352b565b73__$3e9faf92b4e65bc494281f12b43a229306$__610463565b61040c610c5536600461489e565b613778565b603d5460405161ffff9091168152602001610420565b610cab610c7e3660046148dc565b6001600160a01b039182165f908152603c6020908152604080832093909416825291909152205460ff1690565b6040519015158152602001610420565b61040c610cc9366004613fce565b61384a565b61040c610cdc366004614439565b6138d0565b73__$6d137c64be18f5cad883104c2a9fa60a79$__6383c1087d6034603660356037604051806101400160405280610d163390565b6001600160a01b031681526020018981526020018c6001600160a01b031681526020018b6001600160a01b031681526020018a6001600160a01b0316815260200188151581526020017f00000000000000000000000000000000000000000000000000000000000000006001600160a01b031663fca513a86040518163ffffffff1660e01b8152600401602060405180830381865afa158015610dbb573d5f5f3e3d5ffd5b505050506040513d601f19601f82011682018060405250810190610ddf91906148f8565b6001600160a01b0390811682528b81165f908152603860209081526040918290205460ff16818501528151635eb88d3d60e01b8152825192909401937f000000000000000000000000000000000000000000000000000000000000000090931692635eb88d3d92600480830193928290030181865afa158015610e64573d5f5f3e3d5ffd5b505050506040513d601f19601f82011682018060405250810190610e8891906148f8565b6001600160a01b031681526020017f00000000000000000000000000000000000000000000000000000000000000006001600160a01b03168152506040518663ffffffff1660e01b8152600401610ee3959493929190614913565b5f6040518083038186803b158015610ef9575f5ffd5b505af4158015610f0b573d5f5f3e3d5ffd5b505050505050505050565b60405163d505accf60e01b81526001600160a01b0389169063d505accf90610f4e90339030908c908a908a908a908a906004016149f8565b5f604051808303815f87803b158015610f65575f5ffd5b505af1925050508015610f76575060015b5073__$91b47d451814c731a99462488968bab857$__631913f1616034603660355f8b6001600160a01b03166001600160a01b031681526020019081526020015f206040518060c00160405280610fca3390565b6001600160a01b031681526020018e6001600160a01b031681526020017f00000000000000000000000000000000000000000000000000000000000000006001600160a01b031681526020018d81526020018c6001600160a01b031681526020018b61ffff168152506040518563ffffffff1660e01b81526004016110529493929190614a39565b5f6040518083038186803b158015611068575f5ffd5b505af415801561107a573d5f5f3e3d5ffd5b505050505050505050505050565b60ff81165f9081526037602052604090206001018054606091906110ab90614aaa565b80601f01602080910402602001604051908101604052809291908181526020018280546110d790614aaa565b80156111225780601f106110f957610100808354040283529160200191611122565b820191905f5260205f20905b81548152906001019060200180831161110557829003601f168201915b50505050509050919050565b73__$3e9faf92b4e65bc494281f12b43a229306$__631eb87a9c603460366037603860355f336001600160a01b0316815260208101919091526040015f20337f00000000000000000000000000000000000000000000000000000000000000006001600160a01b031663fca513a86040518163ffffffff1660e01b8152600401602060405180830381865afa1580156111c9573d5f5f3e3d5ffd5b505050506040513d601f19601f820116820180604052508101906111ed91906148f8565b896040518963ffffffff1660e01b8152600401611211989796959493929190614adc565b5f6040518083038186803b158015611227575f5ffd5b505af4158015611239573d5f5f3e3d5ffd5b5050505050565b5f73__$83e702f37eeb79ca6ea8c03d9bc14d29cb$__6338ca4d8a603460366037603586336001600160a01b03166001600160a01b031681526020019081526020015f206040518061012001604052808b6001600160a01b031681526020016112a63390565b6001600160a01b031681526020017f00000000000000000000000000000000000000000000000000000000000000006001600160a01b031681526020018a81526020018960028111156112fb576112fb614b21565b600281111561130c5761130c614b21565b8152602001336001600160a01b031681526020016001151581526020017f00000000000000000000000000000000000000000000000000000000000000006001600160a01b031663fca513a86040518163ffffffff1660e01b8152600401602060405180830381865afa158015611385573d5f5f3e3d5ffd5b505050506040513d601f19601f820116820180604052508101906113a991906148f8565b6001600160a01b03168152335f908152603860209081526040918290205460ff169201919091525160e087901b6001600160e01b03191681526113f3959493929190600401614b55565b602060405180830381865af415801561140e573d5f5f3e3d5ffd5b505050506040513d601f19601f820116820180604052508101906114329190614c00565b90505b9392505050565b60408051610200810182525f6101e08201818152825260208201819052918101829052606081018290526080810182905260a0810182905260c0810182905260e08101829052610100810182905261012081018290526101408101829052610160810182905261018081018290526101a081018290526101c08101919091526001600160a01b038281165f9081526034602090815260408083208151808401835281548152865260018101546001600160801b0380821694880194909452600160801b908190048416878401526002820154808516606089015281900484166080880152600382015490810464ffffffffff1660c0880152600160a81b900461ffff1660e08701526004808201548616610100880152600682015486166101408801527f00000000000000000000000000000000000000000000000000000000000000008616610160880152600882015484166101808801526101a087019490945260098101549092166101c0860152516321f8a72160e01b81526f1353d0d2d7d4d51050931157d111509560821b92810192909252917f000000000000000000000000000000000000000000000000000000000000000016906321f8a72190602401602060405180830381865afa15801561161a573d5f5f3e3d5ffd5b505050506040513d601f19601f8201168201806040525081019061163e91906148f8565b6001600160a01b031661012083015250919050565b6001600160a01b0381165f90815260346020526040812061167390613930565b92915050565b5f60405180610100016040528061168d3390565b6001600160a01b03168152602001886001600160a01b03168152602001876001600160a01b031681526020017f00000000000000000000000000000000000000000000000000000000000000006001600160a01b0316815260200186815260200185858080601f0160208091040260200160405190810160405280939291908181526020018383808284375f92018290525093855250505061ffff8516602080840191909152603a546001600160801b03166040938401526001600160a01b038a16825260349052819020905163a1fe0e8d60e01b815291925073__$1aecd72e546835de8d2664e100f70770e0$__9163a1fe0e8d91611791918590600401614c17565b5f6040518083038186803b1580156117a7575f5ffd5b505af41580156117b9573d5f5f3e3d5ffd5b5050505050505050505050565b806117d081613992565b73__$3e9faf92b4e65bc494281f12b43a229306$__631eb87a9c603460366037603860355f896001600160a01b03166001600160a01b031681526020019081526020015f20887f00000000000000000000000000000000000000000000000000000000000000006001600160a01b031663fca513a86040518163ffffffff1660e01b8152600401602060405180830381865afa158015611872573d5f5f3e3d5ffd5b505050506040513d601f19601f8201168201806040525081019061189691906148f8565b8b6040518963ffffffff1660e01b81526004016118ba989796959493929190614adc565b5f6040518083038186803b1580156118d0575f5ffd5b505af41580156118e2573d5f5f3e3d5ffd5b50505050505050565b5f73__$83e702f37eeb79ca6ea8c03d9bc14d29cb$__6338ca4d8a60346036603760355f886001600160a01b03166001600160a01b031681526020019081526020015f206040518061012001604052808c6001600160a01b031681526020016119513390565b6001600160a01b031681526020017f00000000000000000000000000000000000000000000000000000000000000006001600160a01b031681526020018b81526020018a60028111156119a6576119a6614b21565b60028111156119b7576119b7614b21565b8152602001896001600160a01b031681526020015f151581526020017f00000000000000000000000000000000000000000000000000000000000000006001600160a01b031663fca513a86040518163ffffffff1660e01b8152600401602060405180830381865afa158015611a2f573d5f5f3e3d5ffd5b505050506040513d601f19601f82011682018060405250810190611a5391906148f8565b6001600160a01b0390811682528a165f908152603860209081526040918290205460ff16920191909152516001600160e01b031960e088901b168152611aa0959493929190600401614b55565b602060405180830381865af4158015611abb573d5f5f3e3d5ffd5b505050506040513d601f19601f82011682018060405250810190611adf9190614c00565b95945050505050565b73__$91b47d451814c731a99462488968bab857$__63d230964160346036603760355f336001600160a01b0316815260208101919091526040015f203388887f00000000000000000000000000000000000000000000000000000000000000006001600160a01b031663fca513a86040518163ffffffff1660e01b8152600401602060405180830381865afa158015611b83573d5f5f3e3d5ffd5b505050506040513d601f19601f82011682018060405250810190611ba791906148f8565b335f908152603860205260409081902054905160e08b901b6001600160e01b0319168152611be399989796959493929160ff1690600401614cc3565b5f6040518083038186803b158015611bf9575f5ffd5b505af4158015611c0b573d5f5f3e3d5ffd5b505050505050565b73__$91b47d451814c731a99462488968bab857$__631913f1616034603660355f876001600160a01b03166001600160a01b031681526020019081526020015f206040518060c00160405280611c663390565b6001600160a01b031681526020018a6001600160a01b031681526020017f00000000000000000000000000000000000000000000000000000000000000006001600160a01b03168152602001898152602001886001600160a01b031681526020018761ffff168152506040518563ffffffff1660e01b8152600401611cee9493929190614a39565b5f6040518083038186803b158015611d04575f5ffd5b505af4158015611d16573d5f5f3e3d5ffd5b5050505050505050565b5f73__$91b47d451814c731a99462488968bab857$__63186dea44603460366037603586336001600160a01b03166001600160a01b031681526020019081526020015f206040518060e00160405280611d763390565b6001600160a01b031681526020018b6001600160a01b031681526020017f00000000000000000000000000000000000000000000000000000000000000006001600160a01b031681526020018a8152602001896001600160a01b031681526020017f00000000000000000000000000000000000000000000000000000000000000006001600160a01b031663fca513a86040518163ffffffff1660e01b8152600401602060405180830381865afa158015611e33573d5f5f3e3d5ffd5b505050506040513d601f19601f82011682018060405250810190611e5791906148f8565b6001600160a01b03168152335f908152603860209081526040918290205460ff169201919091525160e087901b6001600160e01b03191681526113f3959493929190600401614d13565b6040805160a080820183525f80835260208084018290528385018290526060808501839052608080860182905260ff881684526037835286842087519586018852805461ffff80821688526201000082048116958801959095526401000000009004909316968501969096528301919091526001810180549394919391830191611f2a90614aaa565b80601f0160208091040260200160405190810160405280929190818152602001828054611f5690614aaa565b8015611fa15780601f10611f7857610100808354040283529160200191611fa1565b820191905f5260205f20905b815481529060010190602001808311611f8457829003601f168201915b5050505050815250915050919050565b611fb96139d8565b8160ff165f03611fdc57604051639284211360e01b815260040160405180910390fd5b611fe9602082018261426f565b60ff83165f90815260376020908152604091829020805461ffff191661ffff94909416939093179092556120229190830190830161426f565b60ff83165f9081526037602052604090819020805461ffff93909316620100000263ffff00001990931692909217909155612063906060830190830161426f565b60ff83165f908152603760205260409020805461ffff929092166401000000000265ffff00000000199092169190911790556120a26060820182614d9c565b60ff84165f908152603760205260409020600101916120c2919083614e36565b505050565b6120cf6139d8565b8160ff165f036120f257604051639284211360e01b815260040160405180910390fd5b60ff9091165f90815260376020526040902080546001600160801b0390921666010000000000000275ffffffffffffffffffffffffffffffff00000000000019909216919091179055565b6121456139d8565b73__$5c81c34ced5c181849a1f58b32d6fe0e6c$__6369fc1bdf603460366040518060a00160405280886001600160a01b03168152602001876001600160a01b03168152602001866001600160a01b03168152602001603b60089054906101000a900461ffff1661ffff1681526020016121c2603d5461ffff1690565b61ffff908116909152604080516001600160e01b031960e088901b1681526004810195909552602485019390935281516001600160a01b0390811660448601526020830151811660648601529282015190921660848401526060810151821660a4840152608001511660c482015260e401602060405180830381865af415801561224e573d5f5f3e3d5ffd5b505050506040513d601f19601f820116820180604052508101906122729190614eef565b156120c257603b8054600160401b900461ffff1690600861229283614f1e565b91906101000a81548161ffff021916908361ffff16021790555050505050565b806122bc81613992565b73__$91b47d451814c731a99462488968bab857$__63d230964160346036603760355f886001600160a01b03166001600160a01b031681526020019081526020015f20878a8a7f00000000000000000000000000000000000000000000000000000000000000006001600160a01b031663fca513a86040518163ffffffff1660e01b8152600401602060405180830381865afa15801561235e573d5f5f3e3d5ffd5b505050506040513d601f19601f8201168201806040525081019061238291906148f8565b6001600160a01b038c165f90815260386020526040908190205490516001600160e01b031960e08c901b168152611cee99989796959493929160ff1690600401614cc3565b6123cf6139d8565b6001600160a01b038181165f818152603460205260409081902090516320d4602f60e11b8152600481019190915260248101919091527f0000000000000000000000000000000000000000000000000000000000000000909116604482015273__$5c81c34ced5c181849a1f58b32d6fe0e6c$__906341a8c05e90606401611211565b61245a6139d8565b603a80546001600160801b0319166001600160801b0392909216919091179055565b604051631230b2a360e21b815273__$5c81c34ced5c181849a1f58b32d6fe0e6c$__906348c2ca8c90611be39060349086908690600401614f3e565b5f336040516321f8a72160e01b815267554d4252454c4c4160c01b60048201526001600160a01b03918216917f000000000000000000000000000000000000000000000000000000000000000016906321f8a72190602401602060405180830381865afa15801561252b573d5f5f3e3d5ffd5b505050506040513d601f19601f8201168201806040525081019061254f91906148f8565b6001600160a01b0316146125765760405163c45a7cdd60e01b815260040160405180910390fd5b335f8181526035602090815260409182902082516080810184529384526001600160a01b038781168584019081527f00000000000000000000000000000000000000000000000000000000000000008216868601908152606087018981528651631fa7982360e21b815260346004820152602481019590955296518316604485015290518216606484015251166084820152925160a4840152905173__$6d137c64be18f5cad883104c2a9fa60a79$__92637e9e608c9260c48083019391928290030181865af415801561264c573d5f5f3e3d5ffd5b505050506040513d601f19601f820116820180604052508101906114359190614c00565b73__$83e702f37eeb79ca6ea8c03d9bc14d29cb$__631e6473f960346036603760355f876001600160a01b03166001600160a01b031681526020019081526020015f206040518061016001604052808c6001600160a01b031681526020016126d53390565b6001600160a01b03168152602001886001600160a01b031681526020017f00000000000000000000000000000000000000000000000000000000000000006001600160a01b031681526020018b81526020018a600281111561273957612739614b21565b600281111561274a5761274a614b21565b81526020018961ffff1681526020016001151581526020017f00000000000000000000000000000000000000000000000000000000000000006001600160a01b031663fca513a86040518163ffffffff1660e01b8152600401602060405180830381865afa1580156127be573d5f5f3e3d5ffd5b505050506040513d601f19601f820116820180604052508101906127e291906148f8565b6001600160a01b0390811682528981165f908152603860209081526040918290205460ff16818501528151635eb88d3d60e01b8152825192909401937f000000000000000000000000000000000000000000000000000000000000000090931692635eb88d3d92600480830193928290030181865afa158015612867573d5f5f3e3d5ffd5b505050506040513d601f19601f8201168201806040525081019061288b91906148f8565b6001600160a01b03168152506040518663ffffffff1660e01b8152600401610ee3959493929190614f87565b6128bf6139d8565b6001600160a01b0381165f9081526034602052604090819020905163d493415360e01b8152600481019190915273__$5c81c34ced5c181849a1f58b32d6fe0e6c$__9063d493415390602401611211565b5f604051806101c001604052806129243390565b6001600160a01b031681526020018d6001600160a01b031681526020018c8c808060200260200160405190810160405280939291908181526020018383602002808284375f920191909152505050908252506040805160208c810282810182019093528c82529283019290918d918d9182918501908490808284375f920191909152505050908252506040805160208a810282810182019093528a82529283019290918b918b9182918501908490808284375f920191909152505050908252506001600160a01b037f000000000000000000000000000000000000000000000000000000000000000081166020808401919091529088166040808401919091528051601f88018390048302810183019091528681526060909201919087908790819084018382808284375f92018290525093855250505061ffff8516602080840191909152603a546001600160801b03166040808501919091526001600160a01b037f0000000000000000000000000000000000000000000000000000000000000000811660608601819052306080870152908b16845260388352928190205460ff1660a0850152805163383e6b8b60e11b8152905160c09094019363707cd716926004808401939192918290030181865afa158015612b06573d5f5f3e3d5ffd5b505050506040513d601f19601f82011682018060405250810190612b2a91906148f8565b6001600160a01b031663fa50f297336040516001600160e01b031960e084901b1681526001600160a01b039091166004820152602401602060405180830381865afa158015612b7b573d5f5f3e3d5ffd5b505050506040513d601f19601f82011682018060405250810190612b9f9190614eef565b151590526001600160a01b0386165f9081526035602052604090819020905163173931f560e11b815291925073__$1aecd72e546835de8d2664e100f70770e0$__91632e7263ea91612bff916034916036916037919088906004016150dd565b5f6040518083038186803b158015612c15575f5ffd5b505af4158015612c27573d5f5f3e3d5ffd5b50505050505050505050505050505050565b604080515f815260208101909152606090826001600160401b03811115612c6257612c62614dde565b604051908082528060200260200182016040528015612c9557816020015b6060815260200190600190039081612c805790505b5091505f5b83811015612d1657612cf130868684818110612cb857612cb861525b565b9050602002810190612cca9190614d9c565b85604051602001612cdd9392919061526f565b604051602081830303815290604052613a8b565b838281518110612d0357612d0361525b565b6020908102919091010152600101612c9a565b505092915050565b612d266139d8565b6001600160a01b0382165f90815260346020526040902060030154600160a81b900461ffff16151580612d8d57505f805260366020527f4cb2b152c1b54ce671907a93c300fd5aa72383a9d4ec19a81e3333632ae92e00546001600160a01b038381169116145b612daa5760405163b77e1e0f60e01b815260040160405180910390fd5b604051636ae4381360e01b8152603460048201526001600160a01b038316602482015264ffffffffff8216604482015273__$5c81c34ced5c181849a1f58b32d6fe0e6c$__90636ae4381390606401611be3565b335f908152603c602090815260408083206001600160a01b038616845290915290205481151560ff909116151503612e34575050565b335f908152603c602090815260408083206001600160a01b03861684529091529020805460ff19168215801591909117909155612ea4576040516001600160a01b0383169033907f540e692f36c2fa13e7583c4deeffd91ce6bc04f91e7d84f295d9d858372875fc905f90a35050565b6040516001600160a01b0383169033907f08c92c3870d10c79e9673fecea8f4ff261f8e6b661067d9ca63fd777882bff15905f90a35050565b5f5f5f5f5f5f73__$5c81c34ced5c181849a1f58b32d6fe0e6c$__6326ec273f603460366037604051806080016040528060355f8f6001600160a01b03166001600160a01b031681526020019081526020015f206040518060200160405290815f8201548152505081526020018d6001600160a01b031681526020017f00000000000000000000000000000000000000000000000000000000000000006001600160a01b031663fca513a86040518163ffffffff1660e01b8152600401602060405180830381865afa158015612fb5573d5f5f3e3d5ffd5b505050506040513d601f19601f82011682018060405250810190612fd991906148f8565b6001600160a01b0390811682528e81165f908152603860209081526040918290205460ff90811694820194909452815160e08a901b6001600160e01b0319168152600481019890985260248801969096526044870194909452825151606487015293820151841660848601529181015190921660a48401526060909101511660c482015260e40160c060405180830381865af415801561307b573d5f5f3e3d5ffd5b505050506040513d601f19601f8201168201806040525081019061309f9190615294565b949c939b5091995097509550909350915050565b5f6130bc613af4565b60015490915060ff16806130cf5750303b155b806130da57505f5481115b6131425760405162461bcd60e51b815260206004820152602e60248201527f436f6e747261637420696e7374616e63652068617320616c726561647920626560448201526d195b881a5b9a5d1a585b1a5e995960921b60648201526084015b60405180910390fd5b60015460ff16158015613160576001805460ff1916811790555f8290555b7f00000000000000000000000000000000000000000000000000000000000000006001600160a01b0316836001600160a01b0316146131b257604051633b175b8760e01b815260040160405180910390fd5b80156120c2576001805460ff19169055505050565b6131cf613b06565b6040516343d9915960e11b81526001600160a01b038085166004830152831660248201526044810182905273__$5c81c34ced5c181849a1f58b32d6fe0e6c$__906387b322b2906064016118ba565b6001600160a01b0381165f90815260346020526040812061167390613c18565b603b54606090600160401b900461ffff165f80826001600160401b0381111561326957613269614dde565b604051908082528060200260200182016040528015613292578160200160208202803683370190505b5090505f5b83811015613328575f818152603660205260409020546001600160a01b031615613312575f818152603660205260409020546001600160a01b0316826132dd8584615248565b815181106132ed576132ed61525b565b60200260200101906001600160a01b031690816001600160a01b031681525050613320565b8261331c816152da565b9350505b600101613297565b5091038152919050565b6001600160a01b038681165f9081526034602052604090206004015416331461336e576040516393b9ef1f60e01b815260040160405180910390fd5b73__$91b47d451814c731a99462488968bab857$__638a5dadd160346036603760356040518061010001604052808d6001600160a01b031681526020018c6001600160a01b031681526020018b6001600160a01b031681526020018a81526020018981526020018881526020017f00000000000000000000000000000000000000000000000000000000000000006001600160a01b031663fca513a86040518163ffffffff1660e01b8152600401602060405180830381865afa158015613437573d5f5f3e3d5ffd5b505050506040513d601f19601f8201168201806040525081019061345b91906148f8565b6001600160a01b0390811682528d165f908152603860209081526040918290205460ff16920191909152516001600160e01b031960e088901b1681526134a89594939291906004016152f2565b5f6040518083038186803b1580156134be575f5ffd5b505af41580156134d0573d5f5f3e3d5ffd5b50505050505050505050565b6134e46139d8565b604051631e3b414560e01b8152603460048201526001600160a01b038216602482015273__$5c81c34ced5c181849a1f58b32d6fe0e6c$__90631e3b414590604401611211565b60405163d505accf60e01b81525f906001600160a01b038a169063d505accf9061356590339030908d908b908b908b908b906004016149f8565b5f604051808303815f87803b15801561357c575f5ffd5b505af192505050801561358d575060015b505f6040518061012001604052808b6001600160a01b031681526020016135b13390565b6001600160a01b031681526020017f00000000000000000000000000000000000000000000000000000000000000006001600160a01b031681526020018a815260200189600281111561360657613606614b21565b600281111561361757613617614b21565b8152602001886001600160a01b031681526020015f151581526020017f00000000000000000000000000000000000000000000000000000000000000006001600160a01b031663fca513a86040518163ffffffff1660e01b8152600401602060405180830381865afa15801561368f573d5f5f3e3d5ffd5b505050506040513d601f19601f820116820180604052508101906136b391906148f8565b6001600160a01b03908116825289165f8181526038602090815260408083205460ff169482019490945291815260359091528190209051631c6526c560e11b815291925073__$83e702f37eeb79ca6ea8c03d9bc14d29cb$__916338ca4d8a9161372b91603491603691603791908890600401614b55565b602060405180830381865af4158015613746573d5f5f3e3d5ffd5b505050506040513d601f19601f8201168201806040525081019061376a9190614c00565b9a9950505050505050505050565b6137806139d8565b6001600160a01b0382166137a757604051633bf95ba760e01b815260040160405180910390fd5b6001600160a01b0382165f90815260346020526040902060030154600160a81b900461ffff1615158061380e57505f805260366020527f4cb2b152c1b54ce671907a93c300fd5aa72383a9d4ec19a81e3333632ae92e00546001600160a01b038381169116145b61382b5760405163b77e1e0f60e01b815260040160405180910390fd5b6001600160a01b03919091165f90815260346020526040902090359055565b6001600160a01b0381165f908152603c6020908152604080832033845290915281205460ff161515900361387b5750565b6001600160a01b0381165f818152603c60209081526040808320338085529252808320805460ff19169055519092917f08c92c3870d10c79e9673fecea8f4ff261f8e6b661067d9ca63fd777882bff1591a350565b6138d86139d8565b8160ff165f036138fb57604051639284211360e01b815260040160405180910390fd5b60ff919091165f90815260376020526040902060020180546001600160801b0319166001600160801b03909216919091179055565b60038101545f90600160801b900464ffffffffff1642810361395e575050600201546001600160801b031690565b6002830154611435906001600160801b038082169161398691600160801b9091041684613c6e565b90613c7a565b50919050565b6001600160a01b0381165f908152603c6020908152604080832033845290915290205460ff166139d557604051632af6008960e21b815260040160405180910390fd5b50565b336001600160a01b03167f00000000000000000000000000000000000000000000000000000000000000006001600160a01b031663631adfca6040518163ffffffff1660e01b8152600401602060405180830381865afa158015613a3e573d5f5f3e3d5ffd5b505050506040513d601f19601f82011682018060405250810190613a6291906148f8565b6001600160a01b031614613a89576040516344ff885f60e01b815260040160405180910390fd5b565b60605f5f846001600160a01b031684604051613aa79190615392565b5f60405180830381855af49150503d805f8114613adf576040519150601f19603f3d011682016040523d82523d5f602084013e613ae4565b606091505b5091509150611adf858383613cbc565b5f613b01600960016153ad565b905090565b7f00000000000000000000000000000000000000000000000000000000000000006001600160a01b031663707cd7166040518163ffffffff1660e01b8152600401602060405180830381865afa158015613b62573d5f5f3e3d5ffd5b505050506040513d601f19601f82011682018060405250810190613b8691906148f8565b6001600160a01b0316637be53ca1336040516001600160e01b031960e084901b1681526001600160a01b039091166004820152602401602060405180830381865afa158015613bd7573d5f5f3e3d5ffd5b505050506040513d601f19601f82011682018060405250810190613bfb9190614eef565b613a895760405163cdd36a9760e01b815260040160405180910390fd5b60038101545f90600160801b900464ffffffffff16428103613c46575050600101546001600160801b031690565b6001830154611435906001600160801b038082169161398691600160801b9091041684613d18565b5f611435838342613d5c565b5f81156b019d971e4fe8401e740000001983900484111517613c9a575f5ffd5b506b033b2e3c9fd0803ce800000091026b019d971e4fe8401e74000000010490565b606082613cd157613ccc82613dcb565b611435565b8151158015613ce857506001600160a01b0384163b155b15613d1157604051639996b31560e01b81526001600160a01b0385166004820152602401613139565b5080611435565b5f80613d2b64ffffffffff841642615248565b613d3590856153c0565b6301e1338090049050613d54816b033b2e3c9fd0803ce80000006153ad565b949350505050565b5f80613d6f64ffffffffff851684615248565b9050805f03613d8d576b033b2e3c9fd0803ce8000000915050611435565b6301e1338081860204613db2613da68260068104613c7a565b82906002820401613c7a565b016b033b2e3c9fd0803ce8000000019150509392505050565b805115613ddb5780518082602001fd5b60405163d6bda27560e01b815260040160405180910390fd5b6001600160a01b03811681146139d5575f5ffd5b8035613e1381613df4565b919050565b80151581146139d5575f5ffd5b5f5f5f5f5f60a08688031215613e39575f5ffd5b8535613e4481613df4565b94506020860135613e5481613df4565b93506040860135613e6481613df4565b9250606086013591506080860135613e7b81613e18565b809150509295509295909350565b803561ffff81168114613e13575f5ffd5b803560ff81168114613e13575f5ffd5b5f5f5f5f5f5f5f5f610100898b031215613ec2575f5ffd5b8835613ecd81613df4565b9750602089013596506040890135613ee481613df4565b9550613ef260608a01613e89565b945060808901359350613f0760a08a01613e9a565b979a969950949793969295929450505060c08201359160e0013590565b5f60208284031215613f34575f5ffd5b61143582613e9a565b5f5b83811015613f57578181015183820152602001613f3f565b50505f910152565b5f8151808452613f76816020860160208601613f3d565b601f01601f19169290920160200192915050565b602081525f6114356020830184613f5f565b5f5f5f60608486031215613fae575f5ffd5b8335613fb981613df4565b95602085013595506040909401359392505050565b5f60208284031215613fde575f5ffd5b813561143581613df4565b81515181526101e08101602083015161400d60208401826001600160801b03169052565b50604083015161402860408401826001600160801b03169052565b50606083015161404360608401826001600160801b03169052565b50608083015161405e60808401826001600160801b03169052565b5060a083015161407960a08401826001600160801b03169052565b5060c083015161409260c084018264ffffffffff169052565b5060e08301516140a860e084018261ffff169052565b506101008301516140c56101008401826001600160a01b03169052565b506101208301516140e26101208401826001600160a01b03169052565b506101408301516140ff6101408401826001600160a01b03169052565b5061016083015161411c6101608401826001600160a01b03169052565b506101808301516141396101808401826001600160801b03169052565b506101a08301516141566101a08401826001600160801b03169052565b506101c08301516141736101c08401826001600160801b03169052565b5092915050565b5f5f83601f84011261418a575f5ffd5b5081356001600160401b038111156141a0575f5ffd5b6020830191508360208285010111156141b7575f5ffd5b9250929050565b5f5f5f5f5f5f60a087890312156141d3575f5ffd5b86356141de81613df4565b955060208701356141ee81613df4565b94506040870135935060608701356001600160401b0381111561420f575f5ffd5b61421b89828a0161417a565b909450925061422e905060808801613e89565b90509295509295509295565b5f5f6040838503121561424b575f5ffd5b61425483613e9a565b9150602083013561426481613df4565b809150509250929050565b5f6020828403121561427f575f5ffd5b61143582613e89565b5f5f5f5f6080858703121561429b575f5ffd5b84356142a681613df4565b9350602085013592506040850135915060608501356142c481613df4565b939692955090935050565b5f5f604083850312156142e0575f5ffd5b82356142eb81613df4565b9150602083013561426481613e18565b5f5f5f5f6080858703121561430e575f5ffd5b843561431981613df4565b935060208501359250604085013561433081613df4565b915061433e60608601613e89565b905092959194509250565b5f5f5f6060848603121561435b575f5ffd5b833561436681613df4565b925060208401359150604084013561437d81613df4565b809150509250925092565b6020815261ffff825116602082015261ffff602083015116604082015261ffff604083015116606082015260018060a01b0360608301511660808201525f608083015160a080840152613d5460c0840182613f5f565b5f5f604083850312156143ef575f5ffd5b6143f883613e9a565b915060208301356001600160401b03811115614412575f5ffd5b830160808186031215614264575f5ffd5b80356001600160801b0381168114613e13575f5ffd5b5f5f6040838503121561444a575f5ffd5b61445383613e9a565b915061446160208401614423565b90509250929050565b5f5f5f6060848603121561447c575f5ffd5b833561448781613df4565b9250602084013561449781613df4565b9150604084013561437d81613df4565b5f5f5f606084860312156144b9575f5ffd5b83356144c481613df4565b9250602084013561449781613e18565b5f602082840312156144e4575f5ffd5b61143582614423565b5f5f83601f8401126144fd575f5ffd5b5081356001600160401b03811115614513575f5ffd5b6020830191508360208260051b85010111156141b7575f5ffd5b5f5f6020838503121561453e575f5ffd5b82356001600160401b03811115614553575f5ffd5b61455f858286016144ed565b90969095509350505050565b5f5f6040838503121561457c575f5ffd5b823561458781613df4565b946020939093013593505050565b5f5f5f5f5f60a086880312156145a9575f5ffd5b85356145b481613df4565b945060208601359350604086013592506145d060608701613e89565b91506080860135613e7b81613df4565b5f5f5f5f5f5f5f5f5f5f5f60e08c8e0312156145fa575f5ffd5b6146038c613e08565b9a5060208c01356001600160401b0381111561461d575f5ffd5b6146298e828f016144ed565b909b5099505060408c01356001600160401b03811115614647575f5ffd5b6146538e828f016144ed565b90995097505060608c01356001600160401b03811115614671575f5ffd5b61467d8e828f016144ed565b9097509550614690905060808d01613e08565b935060a08c01356001600160401b038111156146aa575f5ffd5b6146b68e828f0161417a565b90945092506146c9905060c08d01613e89565b90509295989b509295989b9093969950565b5f602082016020835280845180835260408501915060408160051b8601019250602086015f5b8281101561473257603f1987860301845261471d858351613f5f565b94506020938401939190910190600101614701565b50929695505050505050565b5f5f6040838503121561474f575f5ffd5b823561475a81613df4565b9150602083013564ffffffffff81168114614264575f5ffd5b5f5f5f60608486031215614785575f5ffd5b833561479081613df4565b925060208401356147a081613df4565b929592945050506040919091013590565b602080825282518282018190525f918401906040840190835b818110156147f15783516001600160a01b03168352602093840193909201916001016147ca565b509095945050505050565b5f5f5f5f5f5f60c08789031215614811575f5ffd5b863561481c81613df4565b9550602087013561482c81613df4565b9450604087013561483c81613df4565b959894975094956060810135955060808101359460a0909101359350915050565b5f5f5f5f5f5f5f5f610100898b031215614875575f5ffd5b883561488081613df4565b975060208901359650604089013595506060890135613ef281613df4565b5f5f82840360408112156148b0575f5ffd5b83356148bb81613df4565b92506020601f19820112156148ce575f5ffd5b506020830190509250929050565b5f5f604083850312156148ed575f5ffd5b823561425481613df4565b5f60208284031215614908575f5ffd5b815161143581613df4565b85815260208101859052604081018490526060810183905281516001600160a01b031660808201526101c08101602083015160a083015260408301516001600160a01b03811660c08401525060608301516001600160a01b03811660e08401525060808301516001600160a01b0381166101008401525060a08301518015156101208401525060c08301516001600160a01b0381166101408401525060e083015160ff8116610160840152506101008301516001600160a01b038116610180840152506101208301516001600160a01b0381166101a08401525b509695505050505050565b6001600160a01b0397881681529590961660208601526040850193909352606084019190915260ff16608083015260a082015260c081019190915260e00190565b93845260208085019390935260408085019290925280516001600160a01b0390811660608087019190915293820151811660808087019190915292820151811660a0808701919091529382015160c08601529181015190911660e0840152015161ffff166101008201526101200190565b600181811c90821680614abe57607f821691505b60208210810361398c57634e487b7160e01b5f52602260045260245ffd5b97885260208801969096526040870194909452606086019290925260808501526001600160a01b0390811660a08501521660c083015260ff1660e08201526101000190565b634e487b7160e01b5f52602160045260245ffd5b60038110614b5157634e487b7160e01b5f52602160045260245ffd5b9052565b858152602080820186905260408083018690526060830185905283516001600160a01b03908116608085015291840151821660a084015283015190811660c08301526101a082019050606083015160e08301526080830151614bbb610100840182614b35565b5060a08301516001600160a01b0390811661012084015260c0840151151561014084015260e08401511661016083015261010083015160ff81166101808401526149ed565b5f60208284031215614c10575f5ffd5b5051919050565b8281526040602080830182905283516001600160a01b0390811683850152908401511660608301528201515f90614c5960808401826001600160a01b03169052565b5060608301516001600160a01b03811660a084015250608083015160c083015260a083015161010060e0840152614c94610140840182613f5f565b905060c0840151614cac61010085018261ffff169052565b5060e0840151610120840152809150509392505050565b9889526020890197909752604088019590955260608701939093526001600160a01b039182166080870152811660a086015290151560c08501521660e083015260ff166101008201526101200190565b85815260208082018690526040808301869052606080840186905284516001600160a01b0390811660808087019190915293860151811660a08087019190915292860151811660c0808701919091529186015160e08601529285015183166101008501529084015190911661012083015282015160ff81166101408301526101608201906149ed565b5f5f8335601e19843603018112614db1575f5ffd5b8301803591506001600160401b03821115614dca575f5ffd5b6020019150368190038213156141b7575f5ffd5b634e487b7160e01b5f52604160045260245ffd5b601f8211156120c257805f5260205f20601f840160051c81016020851015614e175750805b601f840160051c820191505b81811015611239575f8155600101614e23565b6001600160401b03831115614e4d57614e4d614dde565b614e6183614e5b8354614aaa565b83614df2565b5f601f841160018114614e92575f8515614e7b5750838201355b5f19600387901b1c1916600186901b178355611239565b5f83815260208120601f198716915b82811015614ec15786850135825560209485019460019092019101614ea1565b5086821015614edd575f1960f88860031b161c19848701351681555b505060018560011b0183555050505050565b5f60208284031215614eff575f5ffd5b815161143581613e18565b634e487b7160e01b5f52601160045260245ffd5b5f61ffff821661ffff8103614f3557614f35614f0a565b60010192915050565b83815260406020820181905281018290525f8360608301825b858110156149ed578235614f6a81613df4565b6001600160a01b0316825260209283019290910190600101614f57565b85815260208101859052604081018490526060810183905281516001600160a01b031660808201526101e0810160208301516001600160a01b03811660a08401525060408301516001600160a01b03811660c08401525060608301516001600160a01b03811660e084015250608083015161010083015260a0830151615011610120840182614b35565b5060c083015161ffff166101408381019190915260e084015115156101608401526101008401516001600160a01b0390811661018085015261012085015160ff166101a0850152908401519081166101c08401526149ed565b5f8151808452602084019350602083015f5b828110156150a35781516001600160a01b031686526020958601959091019060010161507c565b5093949350505050565b5f8151808452602084019350602083015f5b828110156150a35781518652602095860195909101906001016150bf565b85815284602082015283604082015282606082015260a0608082015261510f60a0820183516001600160a01b03169052565b5f602083015161512a60c08401826001600160a01b03169052565b5060408301516101c060e084015261514661026084018261506a565b90506060840151609f198483030161010085015261516482826150ad565b9150506080840151609f198483030161012085015261518382826150ad565b91505060a08401516151a16101408501826001600160a01b03169052565b5060c08401516001600160a01b031661016084015260e0840151838203609f19016101808501526151d28282613f5f565b9150506101008401516151ec6101a085018261ffff169052565b506101208401516101c08401526101408401516001600160a01b039081166101e08501526101608501511661020084015261018084015160ff166102208401526101a09093015115156102409092019190915250949350505050565b8181038181111561167357611673614f0a565b634e487b7160e01b5f52603260045260245ffd5b828482375f8382015f8152835161528a818360208801613f3d565b0195945050505050565b5f5f5f5f5f5f60c087890312156152a9575f5ffd5b50508451602086015160408701516060880151608089015160a090990151939a929950909790965094509092509050565b5f600182016152eb576152eb614f0a565b5060010190565b5f6101808201905086825285602083015284604083015283606083015260018060a01b03835116608083015260018060a01b0360208401511660a083015260018060a01b0360408401511660c0830152606083015160e0830152608083015161010083015260a083015161012083015260c083015161537d6101408401826001600160a01b03169052565b5060e083015160ff81166101608401526149ed565b5f82516153a3818460208701613f3d565b9190910192915050565b8082018082111561167357611673614f0a565b808202811582820484141761167357611673614f0a56fea164736f6c634300081b000a","linkReferences":{"src/contracts/protocol/libraries/logic/BorrowLogic.sol":{"BorrowLogic":[{"start":1819,"length":20},{"start":5218,"length":20},{"start":6925,"length":20},{"start":10385,"length":20},{"start":14616,"length":20}]},"src/contracts/protocol/libraries/logic/EModeLogic.sol":{"EModeLogic":[{"start":3662,"length":20},{"start":4943,"length":20},{"start":6641,"length":20}]},"src/contracts/protocol/libraries/logic/FlashLoanLogic.sol":{"FlashLoanLogic":[{"start":1864,"length":20},{"start":6536,"length":20},{"start":11756,"length":20}]},"src/contracts/protocol/libraries/logic/LiquidationLogic.sol":{"LiquidationLogic":[{"start":2746,"length":20},{"start":3842,"length":20},{"start":10290,"length":20}]},"src/contracts/protocol/libraries/logic/PoolLogic.sol":{"PoolLogic":[{"start":3536,"length":20},{"start":9062,"length":20},{"start":9807,"length":20},{"start":9898,"length":20},{"start":11021,"length":20},{"start":12283,"length":20},{"start":12548,"length":20},{"start":13339,"length":20},{"start":14120,"length":20}]},"src/contracts/protocol/libraries/logic/SupplyLogic.sol":{"SupplyLogic":[{"start":2674,"length":20},{"start":4504,"length":20},{"start":7433,"length":20},{"start":7732,"length":20},{"start":8002,"length":20},{"start":9437,"length":20},{"start":13711,"length":20}]}}},"methodIdentifiers":{"ADDRESSES_PROVIDER()":"0542975c","FLASHLOAN_PREMIUM_TOTAL()":"074b2e43","FLASHLOAN_PREMIUM_TO_PROTOCOL()":"6a99c036","MAX_NUMBER_RESERVES()":"f8119d51","POOL_REVISION()":"0148170e","RESERVE_INTEREST_RATE_STRATEGY()":"1b8feb0e","UMBRELLA()":"71459c15","approvePositionManager(address,bool)":"b8caa7c5","borrow(address,uint256,uint256,uint16,address)":"a415bcad","configureEModeCategory(uint8,(uint16,uint16,uint16,string))":"7b75d7f4","configureEModeCategoryBorrowableBitmap(uint8,uint128)":"ff72158a","configureEModeCategoryCollateralBitmap(uint8,uint128)":"92380ecb","deposit(address,uint256,address,uint16)":"e8eda9df","dropReserve(address)":"63c9b860","eliminateReserveDeficit(address,uint256)":"a1d2f3c4","finalizeTransfer(address,address,address,uint256,uint256,uint256)":"d5ed3933","flashLoan(address,address[],uint256[],uint256[],address,bytes,uint16)":"ab9c4b5d","flashLoanSimple(address,address,uint256,bytes,uint16)":"42b0b77c","getBorrowLogic()":"2be29fa7","getConfiguration(address)":"c44b11f7","getEModeCategoryBorrowableBitmap(uint8)":"903a2c71","getEModeCategoryCollateralBitmap(uint8)":"b0771dba","getEModeCategoryCollateralConfig(uint8)":"b286f467","getEModeCategoryData(uint8)":"6c6f6ae1","getEModeCategoryLabel(uint8)":"2083e183","getEModeLogic()":"f32b9a73","getFlashLoanLogic()":"348fde0f","getLiquidationGracePeriod(address)":"5c9a8b18","getLiquidationLogic()":"911a3413","getPoolLogic()":"d3350155","getReserveAToken(address)":"cff027d9","getReserveAddressById(uint16)":"52751797","getReserveData(address)":"35ea6a75","getReserveDeficit(address)":"c952485d","getReserveNormalizedIncome(address)":"d15e0053","getReserveNormalizedVariableDebt(address)":"386497fd","getReserveVariableDebtToken(address)":"365090a0","getReservesCount()":"72218d04","getReservesList()":"d1946dbc","getSupplyLogic()":"870e7744","getUserAccountData(address)":"bf92857c","getUserConfiguration(address)":"4417a583","getUserEMode(address)":"eddf1b79","getVirtualUnderlyingBalance(address)":"6fb07f96","initReserve(address,address,address)":"932f12c8","initialize(address)":"c4d66de8","isApprovedPositionManager(address,address)":"f9c2bd87","liquidationCall(address,address,address,uint256,bool)":"00a718a9","mintToTreasury(address[])":"9cd19996","multicall(bytes[])":"ac9650d8","renouncePositionManagerRole(address)":"fea149a6","repay(address,uint256,uint256,address)":"573ade81","repayWithATokens(address,uint256,uint256)":"2dad97d4","repayWithPermit(address,uint256,uint256,address,uint256,uint8,bytes32,bytes32)":"ee3e210b","rescueTokens(address,address,uint256)":"cea9d26f","resetIsolationModeTotalDebt(address)":"e43e88a1","setConfiguration(address,(uint256))":"f51e435b","setLiquidationGracePeriod(address,uint40)":"b1a99e26","setMaxNumberOfReserves(uint16)":"57c68dc4","setUserEMode(uint8)":"28530a47","setUserEModeOnBehalfOf(uint8,address)":"4ba06814","setUserUseReserveAsCollateral(address,bool)":"5a3b74b9","setUserUseReserveAsCollateralOnBehalfOf(address,bool,address)":"972b35fa","supply(address,uint256,address,uint16)":"617ba037","supplyWithPermit(address,uint256,address,uint16,uint256,uint8,bytes32,bytes32)":"02c205f0","syncIndexesState(address)":"ab2b51f6","syncRatesState(address)":"98c7da4e","updateFlashloanPremium(uint128)":"9c1d5f00","withdraw(address,uint256,address)":"69328dec"},"id":188}