{"abi":[{"type":"constructor","inputs":[{"name":"provider","type":"address","internalType":"contract IPoolAddressesProvider"}],"stateMutability":"nonpayable"},{"type":"function","name":"ADDRESSES_PROVIDER","inputs":[],"outputs":[{"name":"","type":"address","internalType":"contract IPoolAddressesProvider"}],"stateMutability":"view"},{"type":"function","name":"ASSET_LISTING_ADMIN_ROLE","inputs":[],"outputs":[{"name":"","type":"bytes32","internalType":"bytes32"}],"stateMutability":"view"},{"type":"function","name":"BRIDGE_ROLE","inputs":[],"outputs":[{"name":"","type":"bytes32","internalType":"bytes32"}],"stateMutability":"view"},{"type":"function","name":"DEFAULT_ADMIN_ROLE","inputs":[],"outputs":[{"name":"","type":"bytes32","internalType":"bytes32"}],"stateMutability":"view"},{"type":"function","name":"EMERGENCY_ADMIN_ROLE","inputs":[],"outputs":[{"name":"","type":"bytes32","internalType":"bytes32"}],"stateMutability":"view"},{"type":"function","name":"FLASH_BORROWER_ROLE","inputs":[],"outputs":[{"name":"","type":"bytes32","internalType":"bytes32"}],"stateMutability":"view"},{"type":"function","name":"POOL_ADMIN_ROLE","inputs":[],"outputs":[{"name":"","type":"bytes32","internalType":"bytes32"}],"stateMutability":"view"},{"type":"function","name":"RISK_ADMIN_ROLE","inputs":[],"outputs":[{"name":"","type":"bytes32","internalType":"bytes32"}],"stateMutability":"view"},{"type":"function","name":"addAssetListingAdmin","inputs":[{"name":"admin","type":"address","internalType":"address"}],"outputs":[],"stateMutability":"nonpayable"},{"type":"function","name":"addBridge","inputs":[{"name":"bridge","type":"address","internalType":"address"}],"outputs":[],"stateMutability":"nonpayable"},{"type":"function","name":"addEmergencyAdmin","inputs":[{"name":"admin","type":"address","internalType":"address"}],"outputs":[],"stateMutability":"nonpayable"},{"type":"function","name":"addFlashBorrower","inputs":[{"name":"borrower","type":"address","internalType":"address"}],"outputs":[],"stateMutability":"nonpayable"},{"type":"function","name":"addPoolAdmin","inputs":[{"name":"admin","type":"address","internalType":"address"}],"outputs":[],"stateMutability":"nonpayable"},{"type":"function","name":"addRiskAdmin","inputs":[{"name":"admin","type":"address","internalType":"address"}],"outputs":[],"stateMutability":"nonpayable"},{"type":"function","name":"getRoleAdmin","inputs":[{"name":"role","type":"bytes32","internalType":"bytes32"}],"outputs":[{"name":"","type":"bytes32","internalType":"bytes32"}],"stateMutability":"view"},{"type":"function","name":"grantRole","inputs":[{"name":"role","type":"bytes32","internalType":"bytes32"},{"name":"account","type":"address","internalType":"address"}],"outputs":[],"stateMutability":"nonpayable"},{"type":"function","name":"hasRole","inputs":[{"name":"role","type":"bytes32","internalType":"bytes32"},{"name":"account","type":"address","internalType":"address"}],"outputs":[{"name":"","type":"bool","internalType":"bool"}],"stateMutability":"view"},{"type":"function","name":"isAssetListingAdmin","inputs":[{"name":"admin","type":"address","internalType":"address"}],"outputs":[{"name":"","type":"bool","internalType":"bool"}],"stateMutability":"view"},{"type":"function","name":"isBridge","inputs":[{"name":"bridge","type":"address","internalType":"address"}],"outputs":[{"name":"","type":"bool","internalType":"bool"}],"stateMutability":"view"},{"type":"function","name":"isEmergencyAdmin","inputs":[{"name":"admin","type":"address","internalType":"address"}],"outputs":[{"name":"","type":"bool","internalType":"bool"}],"stateMutability":"view"},{"type":"function","name":"isFlashBorrower","inputs":[{"name":"borrower","type":"address","internalType":"address"}],"outputs":[{"name":"","type":"bool","internalType":"bool"}],"stateMutability":"view"},{"type":"function","name":"isPoolAdmin","inputs":[{"name":"admin","type":"address","internalType":"address"}],"outputs":[{"name":"","type":"bool","internalType":"bool"}],"stateMutability":"view"},{"type":"function","name":"isRiskAdmin","inputs":[{"name":"admin","type":"address","internalType":"address"}],"outputs":[{"name":"","type":"bool","internalType":"bool"}],"stateMutability":"view"},{"type":"function","name":"removeAssetListingAdmin","inputs":[{"name":"admin","type":"address","internalType":"address"}],"outputs":[],"stateMutability":"nonpayable"},{"type":"function","name":"removeBridge","inputs":[{"name":"bridge","type":"address","internalType":"address"}],"outputs":[],"stateMutability":"nonpayable"},{"type":"function","name":"removeEmergencyAdmin","inputs":[{"name":"admin","type":"address","internalType":"address"}],"outputs":[],"stateMutability":"nonpayable"},{"type":"function","name":"removeFlashBorrower","inputs":[{"name":"borrower","type":"address","internalType":"address"}],"outputs":[],"stateMutability":"nonpayable"},{"type":"function","name":"removePoolAdmin","inputs":[{"name":"admin","type":"address","internalType":"address"}],"outputs":[],"stateMutability":"nonpayable"},{"type":"function","name":"removeRiskAdmin","inputs":[{"name":"admin","type":"address","internalType":"address"}],"outputs":[],"stateMutability":"nonpayable"},{"type":"function","name":"renounceRole","inputs":[{"name":"role","type":"bytes32","internalType":"bytes32"},{"name":"account","type":"address","internalType":"address"}],"outputs":[],"stateMutability":"nonpayable"},{"type":"function","name":"revokeRole","inputs":[{"name":"role","type":"bytes32","internalType":"bytes32"},{"name":"account","type":"address","internalType":"address"}],"outputs":[],"stateMutability":"nonpayable"},{"type":"function","name":"setRoleAdmin","inputs":[{"name":"role","type":"bytes32","internalType":"bytes32"},{"name":"adminRole","type":"bytes32","internalType":"bytes32"}],"outputs":[],"stateMutability":"nonpayable"},{"type":"function","name":"supportsInterface","inputs":[{"name":"interfaceId","type":"bytes4","internalType":"bytes4"}],"outputs":[{"name":"","type":"bool","internalType":"bool"}],"stateMutability":"view"},{"type":"event","name":"RoleAdminChanged","inputs":[{"name":"role","type":"bytes32","indexed":true,"internalType":"bytes32"},{"name":"previousAdminRole","type":"bytes32","indexed":true,"internalType":"bytes32"},{"name":"newAdminRole","type":"bytes32","indexed":true,"internalType":"bytes32"}],"anonymous":false},{"type":"event","name":"RoleGranted","inputs":[{"name":"role","type":"bytes32","indexed":true,"internalType":"bytes32"},{"name":"account","type":"address","indexed":true,"internalType":"address"},{"name":"sender","type":"address","indexed":true,"internalType":"address"}],"anonymous":false},{"type":"event","name":"RoleRevoked","inputs":[{"name":"role","type":"bytes32","indexed":true,"internalType":"bytes32"},{"name":"account","type":"address","indexed":true,"internalType":"address"},{"name":"sender","type":"address","indexed":true,"internalType":"address"}],"anonymous":false},{"type":"error","name":"AclAdminCannotBeZero","inputs":[]}],"bytecode":{"object":"0x60a060405234801561000f575f5ffd5b50604051610f83380380610f8383398101604081905261002e916101a4565b806001600160a01b03166080816001600160a01b0316815250505f816001600160a01b0316630e67178c6040518163ffffffff1660e01b8152600401602060405180830381865afa158015610085573d5f5f3e3d5ffd5b505050506040513d601f19601f820116820180604052508101906100a991906101a4565b90506001600160a01b0381166100d257604051635dadfdd760e11b815260040160405180910390fd5b6100dc5f826100e3565b50506101c6565b6100ed82826100f1565b5050565b5f828152602081815260408083206001600160a01b038516845290915290205460ff166100ed575f828152602081815260408083206001600160a01b03851684529091529020805460ff191660011790556101493390565b6001600160a01b0316816001600160a01b0316837f2f8788117e7eff1d82e926ec794901d17c78024a50270940304540a733656f0d60405160405180910390a45050565b6001600160a01b03811681146101a1575f5ffd5b50565b5f602082840312156101b4575f5ffd5b81516101bf8161018d565b9392505050565b608051610da56101de5f395f6102380152610da55ff3fe608060405234801561000f575f5ffd5b50600436106101f2575f3560e01c8063674b5e4d116101145780639a2b96f7116100a9578063b5bfddea11610079578063b5bfddea14610462578063b8f6dba714610476578063d547741f1461048a578063f83695cb1461049d578063fa50f297146104b0575f5ffd5b80639a2b96f7146104225780639ac9d80b14610435578063a217fddf14610448578063a21bce151461044f575f5ffd5b80637a9a93f4116100e45780637a9a93f4146103d65780637be53ca1146103e957806391d14854146103fc5780639712fdf81461040f575f5ffd5b8063674b5e4d146103885780636e76fc8f1461039b578063726600ce146103af57806378bb0a43146103c2575f5ffd5b80632500f2b61161018a5780633c5a08e51161015a5780633c5a08e51461033a5780634f16b4251461034d5780635577b7a9146103615780635b9a94e414610375575f5ffd5b80632500f2b6146102ee578063253cf980146103015780632f2ff15d1461031457806336568abe14610327575f5ffd5b8063179efb09116101c5578063179efb09146102855780631e4e00911461029857806322650caf146102ab578063248a9ca3146102be575f5ffd5b806301ffc9a7146101f657806304df017d1461021e5780630542975c1461023357806313ee32e014610272575b5f5ffd5b610209610204366004610ad9565b6104c3565b60405190151581526020015b60405180910390f35b61023161022c366004610b1b565b6104f9565b005b61025a7f000000000000000000000000000000000000000000000000000000000000000081565b6040516001600160a01b039091168152602001610215565b610209610280366004610b1b565b610513565b610231610293366004610b1b565b61052b565b6102316102a6366004610b34565b610542565b6102316102b9366004610b1b565b61055c565b6102e06102cc366004610b54565b5f9081526020819052604090206001015490565b604051908152602001610215565b6102096102fc366004610b1b565b610573565b61023161030f366004610b1b565b61058b565b610231610322366004610b6b565b6105a2565b610231610335366004610b6b565b6105c7565b610231610348366004610b1b565b61064a565b6102e05f516020610cf95f395f51905f5281565b6102e05f516020610d795f395f51905f5281565b610231610383366004610b1b565b610661565b610209610396366004610b1b565b610678565b6102e05f516020610d595f395f51905f5281565b6102096103bd366004610b1b565b610690565b6102e05f516020610d195f395f51905f5281565b6102316103e4366004610b1b565b6106a8565b6102096103f7366004610b1b565b6106bf565b61020961040a366004610b6b565b6106d3565b61023161041d366004610b1b565b6106fb565b610231610430366004610b1b565b610712565b610231610443366004610b1b565b610729565b6102e05f81565b61023161045d366004610b1b565b610740565b6102e05f516020610d395f395f51905f5281565b6102e05f516020610cd95f395f51905f5281565b610231610498366004610b6b565b610753565b6102316104ab366004610b1b565b610778565b6102096104be366004610b1b565b61078f565b5f6001600160e01b03198216637965db0b60e01b14806104f357506301ffc9a760e01b6001600160e01b03198316145b92915050565b6105105f516020610d395f395f51905f5282610753565b50565b5f6104f35f516020610d195f395f51905f52836106d3565b6105105f516020610d595f395f51905f52826105a2565b5f61054d81336107a7565b610557838361080b565b505050565b6105105f516020610cd95f395f51905f52826105a2565b5f6104f35f516020610d595f395f51905f52836106d3565b6105105f516020610d795f395f51905f5282610753565b5f828152602081905260409020600101546105bd81336107a7565b6105578383610855565b6001600160a01b038116331461063c5760405162461bcd60e51b815260206004820152602f60248201527f416363657373436f6e74726f6c3a2063616e206f6e6c792072656e6f756e636560448201526e103937b632b9903337b91039b2b63360891b60648201526084015b60405180910390fd5b61064682826108d8565b5050565b6105105f516020610cf95f395f51905f5282610753565b6105105f516020610cf95f395f51905f52826105a2565b5f6104f35f516020610cf95f395f51905f52836106d3565b5f6104f35f516020610d395f395f51905f52836106d3565b6105105f516020610d595f395f51905f5282610753565b5f6104f35f516020610cd95f395f51905f52835b5f918252602082815260408084206001600160a01b0393909316845291905290205460ff1690565b6105105f516020610d395f395f51905f52826105a2565b6105105f516020610d195f395f51905f52826105a2565b6105105f516020610d795f395f51905f52826105a2565b6105105f516020610d195f395f51905f52825b5f8281526020819052604090206001015461076e81336107a7565b61055783836108d8565b6105105f516020610cd95f395f51905f5282610753565b5f6104f35f516020610d795f395f51905f52836106d3565b6107b182826106d3565b610646576107c9816001600160a01b0316601461093c565b6107d483602061093c565b6040516020016107e5929190610bb7565b60408051601f198184030181529082905262461bcd60e51b825261063391600401610c2b565b5f82815260208190526040808220600101805490849055905190918391839186917fbd79b86ffe0ab8e8776151514217cd7cacd52c909f66475c3af44e129f0b00ff9190a4505050565b61085f82826106d3565b610646575f828152602081815260408083206001600160a01b03851684529091529020805460ff191660011790556108943390565b6001600160a01b0316816001600160a01b0316837f2f8788117e7eff1d82e926ec794901d17c78024a50270940304540a733656f0d60405160405180910390a45050565b6108e282826106d3565b15610646575f828152602081815260408083206001600160a01b0385168085529252808320805460ff1916905551339285917ff6391f5c32d9c69d2a47ea670b442974b53935d1edc7fd64eb21e047a839171b9190a45050565b60605f61094a836002610c71565b610955906002610c88565b67ffffffffffffffff81111561096d5761096d610c9b565b6040519080825280601f01601f191660200182016040528015610997576020820181803683370190505b509050600360fc1b815f815181106109b1576109b1610caf565b60200101906001600160f81b03191690815f1a905350600f60fb1b816001815181106109df576109df610caf565b60200101906001600160f81b03191690815f1a9053505f610a01846002610c71565b610a0c906001610c88565b90505b6001811115610a83576f181899199a1a9b1b9c1cb0b131b232b360811b85600f1660108110610a4057610a40610caf565b1a60f81b828281518110610a5657610a56610caf565b60200101906001600160f81b03191690815f1a90535060049490941c93610a7c81610cc3565b9050610a0f565b508315610ad25760405162461bcd60e51b815260206004820181905260248201527f537472696e67733a20686578206c656e67746820696e73756666696369656e746044820152606401610633565b9392505050565b5f60208284031215610ae9575f5ffd5b81356001600160e01b031981168114610ad2575f5ffd5b80356001600160a01b0381168114610b16575f5ffd5b919050565b5f60208284031215610b2b575f5ffd5b610ad282610b00565b5f5f60408385031215610b45575f5ffd5b50508035926020909101359150565b5f60208284031215610b64575f5ffd5b5035919050565b5f5f60408385031215610b7c575f5ffd5b82359150610b8c60208401610b00565b90509250929050565b5f5b83811015610baf578181015183820152602001610b97565b50505f910152565b7f416363657373436f6e74726f6c3a206163636f756e742000000000000000000081525f8351610bee816017850160208801610b95565b7001034b99036b4b9b9b4b733903937b6329607d1b6017918401918201528351610c1f816028840160208801610b95565b01602801949350505050565b602081525f8251806020840152610c49816040850160208701610b95565b601f01601f19169190910160400192915050565b634e487b7160e01b5f52601160045260245ffd5b80820281158282048414176104f3576104f3610c5d565b808201808211156104f3576104f3610c5d565b634e487b7160e01b5f52604160045260245ffd5b634e487b7160e01b5f52603260045260245ffd5b5f81610cd157610cd1610c5d565b505f19019056fe12ad05bde78c5ab75238ce885307f96ecd482bb402ef831f99e7018a0f169b7b8aa855a911518ecfbe5bc3088c8f3dda7badf130faaf8ace33fdc33828e1816719c860a63258efbd0ecb7d55c626237bf5c2044c26c073390b74f0c13c85743308fb31c3e81624356c3314088aa971b73bcc82d22bc3e3b184b4593077ae32785c91514091af31f62f596a314af7d5be40146b2f2355969392f055e12e0982fb939b8dfb57ecef2aea54a93a15e86768b9d4089f1ba61c245e6ec980695f4ca4a164736f6c634300081b000a","linkReferences":{}},"methodIdentifiers":{"ADDRESSES_PROVIDER()":"0542975c","ASSET_LISTING_ADMIN_ROLE()":"78bb0a43","BRIDGE_ROLE()":"b5bfddea","DEFAULT_ADMIN_ROLE()":"a217fddf","EMERGENCY_ADMIN_ROLE()":"6e76fc8f","FLASH_BORROWER_ROLE()":"5577b7a9","POOL_ADMIN_ROLE()":"b8f6dba7","RISK_ADMIN_ROLE()":"4f16b425","addAssetListingAdmin(address)":"9a2b96f7","addBridge(address)":"9712fdf8","addEmergencyAdmin(address)":"179efb09","addFlashBorrower(address)":"9ac9d80b","addPoolAdmin(address)":"22650caf","addRiskAdmin(address)":"5b9a94e4","getRoleAdmin(bytes32)":"248a9ca3","grantRole(bytes32,address)":"2f2ff15d","hasRole(bytes32,address)":"91d14854","isAssetListingAdmin(address)":"13ee32e0","isBridge(address)":"726600ce","isEmergencyAdmin(address)":"2500f2b6","isFlashBorrower(address)":"fa50f297","isPoolAdmin(address)":"7be53ca1","isRiskAdmin(address)":"674b5e4d","removeAssetListingAdmin(address)":"a21bce15","removeBridge(address)":"04df017d","removeEmergencyAdmin(address)":"7a9a93f4","removeFlashBorrower(address)":"253cf980","removePoolAdmin(address)":"f83695cb","removeRiskAdmin(address)":"3c5a08e5","renounceRole(bytes32,address)":"36568abe","revokeRole(bytes32,address)":"d547741f","setRoleAdmin(bytes32,bytes32)":"1e4e0091","supportsInterface(bytes4)":"01ffc9a7"},"id":222}