{"abi":[{"type":"constructor","inputs":[{"name":"provider","type":"address","internalType":"contract IPoolAddressesProvider"}],"stateMutability":"nonpayable"},{"type":"function","name":"ADDRESSES_PROVIDER","inputs":[],"outputs":[{"name":"","type":"address","internalType":"contract IPoolAddressesProvider"}],"stateMutability":"view"},{"type":"function","name":"POOL","inputs":[],"outputs":[{"name":"","type":"address","internalType":"contract IPool"}],"stateMutability":"view"},{"type":"function","name":"executeOperation","inputs":[{"name":"assets","type":"address[]","internalType":"address[]"},{"name":"amounts","type":"uint256[]","internalType":"uint256[]"},{"name":"premiums","type":"uint256[]","internalType":"uint256[]"},{"name":"","type":"address","internalType":"address"},{"name":"","type":"bytes","internalType":"bytes"}],"outputs":[{"name":"","type":"bool","internalType":"bool"}],"stateMutability":"nonpayable"}],"bytecode":{"object":"0x60c060405234801561000f575f5ffd5b506040516105ee3803806105ee83398101604081905261002e916100d4565b80806001600160a01b03166080816001600160a01b031681525050806001600160a01b031663026b1d5f6040518163ffffffff1660e01b8152600401602060405180830381865afa158015610085573d5f5f3e3d5ffd5b505050506040513d601f19601f820116820180604052508101906100a991906100d4565b6001600160a01b031660a052506100f69050565b6001600160a01b03811681146100d1575f5ffd5b50565b5f602082840312156100e4575f5ffd5b81516100ef816100bd565b9392505050565b60805160a0516104d261011c5f395f8181608c015261010701525f604801526104d25ff3fe608060405234801561000f575f5ffd5b506004361061003f575f3560e01c80630542975c146100435780637535d24614610087578063920f5c84146100ae575b5f5ffd5b61006a7f000000000000000000000000000000000000000000000000000000000000000081565b6040516001600160a01b0390911681526020015b60405180910390f35b61006a7f000000000000000000000000000000000000000000000000000000000000000081565b6100c16100bc36600461033f565b6100d1565b604051901515815260200161007e565b5f805b86518110156101d9578681815181106100ef576100ef610466565b60200260200101516001600160a01b031663095ea7b37f000000000000000000000000000000000000000000000000000000000000000087848151811061013857610138610466565b602002602001015189858151811061015257610152610466565b6020026020010151610164919061047a565b6040516001600160e01b031960e085901b1681526001600160a01b03909216600483015260248201526044016020604051808303815f875af11580156101ac573d5f5f3e3d5ffd5b505050506040513d601f19601f820116820180604052508101906101d0919061049f565b506001016100d4565b5060019695505050505050565b634e487b7160e01b5f52604160045260245ffd5b604051601f8201601f1916810167ffffffffffffffff81118282101715610223576102236101e6565b604052919050565b5f67ffffffffffffffff821115610244576102446101e6565b5060051b60200190565b80356001600160a01b0381168114610264575f5ffd5b919050565b5f82601f830112610278575f5ffd5b813561028b6102868261022b565b6101fa565b8082825260208201915060208360051b8601019250858311156102ac575f5ffd5b602085015b838110156102c95780358352602092830192016102b1565b5095945050505050565b5f82601f8301126102e2575f5ffd5b813567ffffffffffffffff8111156102fc576102fc6101e6565b61030f601f8201601f19166020016101fa565b818152846020838601011115610323575f5ffd5b816020850160208301375f918101602001919091529392505050565b5f5f5f5f5f60a08688031215610353575f5ffd5b853567ffffffffffffffff811115610369575f5ffd5b8601601f81018813610379575f5ffd5b80356103876102868261022b565b8082825260208201915060208360051b85010192508a8311156103a8575f5ffd5b6020840193505b828410156103d1576103c08461024e565b8252602093840193909101906103af565b9750505050602086013567ffffffffffffffff8111156103ef575f5ffd5b6103fb88828901610269565b945050604086013567ffffffffffffffff811115610417575f5ffd5b61042388828901610269565b9350506104326060870161024e565b9150608086013567ffffffffffffffff81111561044d575f5ffd5b610459888289016102d3565b9150509295509295909350565b634e487b7160e01b5f52603260045260245ffd5b8082018082111561049957634e487b7160e01b5f52601160045260245ffd5b92915050565b5f602082840312156104af575f5ffd5b815180151581146104be575f5ffd5b939250505056fea164736f6c634300081b000a","linkReferences":{}},"methodIdentifiers":{"ADDRESSES_PROVIDER()":"0542975c","POOL()":"7535d246","executeOperation(address[],uint256[],uint256[],address,bytes)":"920f5c84"},"id":195}