{"abi":[{"type":"constructor","inputs":[{"name":"addressesProvider","type":"address","internalType":"contract IPoolAddressesProvider"}],"stateMutability":"nonpayable"},{"type":"function","name":"ADDRESSES_PROVIDER","inputs":[],"outputs":[{"name":"","type":"address","internalType":"contract IPoolAddressesProvider"}],"stateMutability":"view"},{"type":"function","name":"POOL","inputs":[],"outputs":[{"name":"","type":"address","internalType":"contract IPool"}],"stateMutability":"view"},{"type":"function","name":"getATokenTotalSupply","inputs":[{"name":"asset","type":"address","internalType":"address"}],"outputs":[{"name":"","type":"uint256","internalType":"uint256"}],"stateMutability":"view"},{"type":"function","name":"getAllATokens","inputs":[],"outputs":[{"name":"","type":"tuple[]","internalType":"struct IPoolDataProvider.TokenData[]","components":[{"name":"symbol","type":"string","internalType":"string"},{"name":"tokenAddress","type":"address","internalType":"address"}]}],"stateMutability":"view"},{"type":"function","name":"getAllReservesTokens","inputs":[],"outputs":[{"name":"","type":"tuple[]","internalType":"struct IPoolDataProvider.TokenData[]","components":[{"name":"symbol","type":"string","internalType":"string"},{"name":"tokenAddress","type":"address","internalType":"address"}]}],"stateMutability":"view"},{"type":"function","name":"getDebtCeiling","inputs":[{"name":"asset","type":"address","internalType":"address"}],"outputs":[{"name":"","type":"uint256","internalType":"uint256"}],"stateMutability":"view"},{"type":"function","name":"getDebtCeilingDecimals","inputs":[],"outputs":[{"name":"","type":"uint256","internalType":"uint256"}],"stateMutability":"pure"},{"type":"function","name":"getFlashLoanEnabled","inputs":[{"name":"asset","type":"address","internalType":"address"}],"outputs":[{"name":"","type":"bool","internalType":"bool"}],"stateMutability":"view"},{"type":"function","name":"getInterestRateStrategyAddress","inputs":[{"name":"","type":"address","internalType":"address"}],"outputs":[{"name":"irStrategyAddress","type":"address","internalType":"address"}],"stateMutability":"view"},{"type":"function","name":"getIsVirtualAccActive","inputs":[{"name":"","type":"address","internalType":"address"}],"outputs":[{"name":"","type":"bool","internalType":"bool"}],"stateMutability":"pure"},{"type":"function","name":"getLiquidationProtocolFee","inputs":[{"name":"asset","type":"address","internalType":"address"}],"outputs":[{"name":"","type":"uint256","internalType":"uint256"}],"stateMutability":"view"},{"type":"function","name":"getPaused","inputs":[{"name":"asset","type":"address","internalType":"address"}],"outputs":[{"name":"isPaused","type":"bool","internalType":"bool"}],"stateMutability":"view"},{"type":"function","name":"getReserveCaps","inputs":[{"name":"asset","type":"address","internalType":"address"}],"outputs":[{"name":"borrowCap","type":"uint256","internalType":"uint256"},{"name":"supplyCap","type":"uint256","internalType":"uint256"}],"stateMutability":"view"},{"type":"function","name":"getReserveConfigurationData","inputs":[{"name":"asset","type":"address","internalType":"address"}],"outputs":[{"name":"decimals","type":"uint256","internalType":"uint256"},{"name":"ltv","type":"uint256","internalType":"uint256"},{"name":"liquidationThreshold","type":"uint256","internalType":"uint256"},{"name":"liquidationBonus","type":"uint256","internalType":"uint256"},{"name":"reserveFactor","type":"uint256","internalType":"uint256"},{"name":"usageAsCollateralEnabled","type":"bool","internalType":"bool"},{"name":"borrowingEnabled","type":"bool","internalType":"bool"},{"name":"stableBorrowRateEnabled","type":"bool","internalType":"bool"},{"name":"isActive","type":"bool","internalType":"bool"},{"name":"isFrozen","type":"bool","internalType":"bool"}],"stateMutability":"view"},{"type":"function","name":"getReserveData","inputs":[{"name":"asset","type":"address","internalType":"address"}],"outputs":[{"name":"","type":"uint256","internalType":"uint256"},{"name":"accruedToTreasuryScaled","type":"uint256","internalType":"uint256"},{"name":"totalAToken","type":"uint256","internalType":"uint256"},{"name":"","type":"uint256","internalType":"uint256"},{"name":"totalVariableDebt","type":"uint256","internalType":"uint256"},{"name":"liquidityRate","type":"uint256","internalType":"uint256"},{"name":"variableBorrowRate","type":"uint256","internalType":"uint256"},{"name":"","type":"uint256","internalType":"uint256"},{"name":"","type":"uint256","internalType":"uint256"},{"name":"liquidityIndex","type":"uint256","internalType":"uint256"},{"name":"variableBorrowIndex","type":"uint256","internalType":"uint256"},{"name":"lastUpdateTimestamp","type":"uint40","internalType":"uint40"}],"stateMutability":"view"},{"type":"function","name":"getReserveDeficit","inputs":[{"name":"asset","type":"address","internalType":"address"}],"outputs":[{"name":"","type":"uint256","internalType":"uint256"}],"stateMutability":"view"},{"type":"function","name":"getReserveTokensAddresses","inputs":[{"name":"asset","type":"address","internalType":"address"}],"outputs":[{"name":"aTokenAddress","type":"address","internalType":"address"},{"name":"stableDebtTokenAddress","type":"address","internalType":"address"},{"name":"variableDebtTokenAddress","type":"address","internalType":"address"}],"stateMutability":"view"},{"type":"function","name":"getSiloedBorrowing","inputs":[{"name":"asset","type":"address","internalType":"address"}],"outputs":[{"name":"","type":"bool","internalType":"bool"}],"stateMutability":"view"},{"type":"function","name":"getTotalDebt","inputs":[{"name":"asset","type":"address","internalType":"address"}],"outputs":[{"name":"","type":"uint256","internalType":"uint256"}],"stateMutability":"view"},{"type":"function","name":"getUnbackedMintCap","inputs":[{"name":"","type":"address","internalType":"address"}],"outputs":[{"name":"","type":"uint256","internalType":"uint256"}],"stateMutability":"pure"},{"type":"function","name":"getUserReserveData","inputs":[{"name":"asset","type":"address","internalType":"address"},{"name":"user","type":"address","internalType":"address"}],"outputs":[{"name":"currentATokenBalance","type":"uint256","internalType":"uint256"},{"name":"currentStableDebt","type":"uint256","internalType":"uint256"},{"name":"currentVariableDebt","type":"uint256","internalType":"uint256"},{"name":"principalStableDebt","type":"uint256","internalType":"uint256"},{"name":"scaledVariableDebt","type":"uint256","internalType":"uint256"},{"name":"stableBorrowRate","type":"uint256","internalType":"uint256"},{"name":"liquidityRate","type":"uint256","internalType":"uint256"},{"name":"stableRateLastUpdated","type":"uint40","internalType":"uint40"},{"name":"usageAsCollateralEnabled","type":"bool","internalType":"bool"}],"stateMutability":"view"},{"type":"function","name":"getVirtualUnderlyingBalance","inputs":[{"name":"asset","type":"address","internalType":"address"}],"outputs":[{"name":"","type":"uint256","internalType":"uint256"}],"stateMutability":"view"},{"type":"error","name":"InvalidReserveIndex","inputs":[]},{"type":"error","name":"ZeroAddressNotValid","inputs":[]}],"bytecode":{"object":"0x60c060405234801561000f575f5ffd5b50604051611ed5380380611ed583398101604081905261002e916100fb565b806001600160a01b03166080816001600160a01b0316815250505f816001600160a01b031663026b1d5f6040518163ffffffff1660e01b8152600401602060405180830381865afa158015610085573d5f5f3e3d5ffd5b505050506040513d601f19601f820116820180604052508101906100a991906100fb565b90506001600160a01b0381166100d257604051633bf95ba760e01b815260040160405180910390fd5b6001600160a01b031660a0525061011d565b6001600160a01b03811681146100f8575f5ffd5b50565b5f6020828403121561010b575f5ffd5b8151610116816100e4565b9392505050565b60805160a051611d0b6101ca5f395f81816103730152818161047e0152818161053b015281816107500152818161096101528181610a0301528181610a8401528181610bc101528181610c7201528181610d6801528181610d9a01528181610e3901528181610eb8015281816111e9015281816112ac0152818161133c015281816113c801528181611463015281816114e7015281816115da015261175701525f6101460152611d0b5ff3fe608060405234801561000f575f5ffd5b506004361061013d575f3560e01c80636fb07f96116100b4578063c952485d11610079578063c952485d146103e0578063d2493b6c146103f3578063d7ed3ef414610430578063f561ae4114610443578063f7e143071461044b578063fcf40a621461045f575f5ffd5b80636fb07f961461035b5780637535d2461461036e5780637ba1ae3614610395578063b316ff89146103a8578063b55d9904146103bd575f5ffd5b80633e150141116101055780633e1501411461028c57806346fbe558146102f35780634d44ac4f1461031b57806351460e251461032e5780636744362a1461034157806369b169e114610354575f5ffd5b80630542975c1461014157806328dd2d011461018557806335ea6a75146101e55780633c798109146102585780633cb8a62214610279575b5f5ffd5b6101687f000000000000000000000000000000000000000000000000000000000000000081565b6040516001600160a01b0390911681526020015b60405180910390f35b61019861019336600461181a565b610472565b60408051998a5260208a0198909852968801959095526060870193909352608086019190915260a085015260c084015264ffffffffff1660e083015215156101008201526101200161017c565b6101f86101f3366004611851565b610741565b604080519c8d5260208d019b909b52998b019890985260608a0196909652608089019490945260a088019290925260c087015260e086015261010085015261012084015261014083015264ffffffffff166101608201526101800161017c565b61026b610266366004611851565b61093c565b60405190815260200161017c565b61026b610287366004611851565b6109de565b61029f61029a366004611851565b610a77565b604080519a8b5260208b01999099529789019690965260608801949094526080870192909252151560a0860152151560c0850152151560e0840152151561010083015215156101208201526101400161017c565b610306610301366004611851565b610b9a565b6040805192835260208301919091520161017c565b61026b610329366004611851565b610c4f565b61026b61033c366004611851565b610d45565b61016861034f366004611851565b610d97565b600261026b565b61026b610369366004611851565b610e18565b6101687f000000000000000000000000000000000000000000000000000000000000000081565b61026b6103a3366004611851565b505f90565b6103b0610eb3565b60405161017c919061188e565b6103d06103cb366004611851565b6111c4565b604051901515815260200161017c565b61026b6103ee366004611851565b61128b565b610406610401366004611851565b611317565b604080516001600160a01b039485168152928416602084015292169181019190915260600161017c565b6103d061043e366004611851565b611440565b6103b06114e2565b6103d0610459366004611851565b50600190565b6103d061046d366004611851565b611732565b5f5f5f5f5f5f5f5f5f5f7f00000000000000000000000000000000000000000000000000000000000000006001600160a01b03166335ea6a758d6040518263ffffffff1660e01b81526004016104d791906001600160a01b0391909116815260200190565b6101e060405180830381865afa1580156104f3573d5f5f3e3d5ffd5b505050506040513d601f19601f820116820180604052508101906105179190611a1f565b604051634417a58360e01b81526001600160a01b038d811660048301529192505f917f00000000000000000000000000000000000000000000000000000000000000001690634417a58390602401602060405180830381865afa158015610580573d5f5f3e3d5ffd5b505050506040513d601f19601f820116820180604052508101906105a49190611b49565b6101008301516040516370a0823160e01b81526001600160a01b038f811660048301529293509116906370a0823190602401602060405180830381865afa1580156105f1573d5f5f3e3d5ffd5b505050506040513d601f19601f820116820180604052508101906106159190611b63565b6101408301516040516370a0823160e01b81526001600160a01b038f81166004830152929d509116906370a0823190602401602060405180830381865afa158015610662573d5f5f3e3d5ffd5b505050506040513d601f19601f820116820180604052508101906106869190611b63565b610140830151604051630ed1279f60e11b81526001600160a01b038f811660048301525f9d50929b508c9a508a9850889650911690631da24f3e90602401602060405180830381865afa1580156106df573d5f5f3e3d5ffd5b505050506040513d601f19601f820116820180604052508101906107039190611b63565b965081604001516001600160801b031694506107308260e0015161ffff16826117d090919063ffffffff16565b925050509295985092959850929598565b5f5f5f5f5f5f5f5f5f5f5f5f5f7f00000000000000000000000000000000000000000000000000000000000000006001600160a01b03166335ea6a758f6040518263ffffffff1660e01b81526004016107a991906001600160a01b0391909116815260200190565b6101e060405180830381865afa1580156107c5573d5f5f3e3d5ffd5b505050506040513d601f19601f820116820180604052508101906107e99190611a1f565b90505f8161018001518261010001516001600160a01b03166318160ddd6040518163ffffffff1660e01b8152600401602060405180830381865afa158015610833573d5f5f3e3d5ffd5b505050506040513d601f19601f820116820180604052508101906108579190611b63565b5f8461014001516001600160a01b03166318160ddd6040518163ffffffff1660e01b8152600401602060405180830381865afa158015610899573d5f5f3e3d5ffd5b505050506040513d601f19601f820116820180604052508101906108bd9190611b63565b856040015186608001515f5f89602001518a606001518b60c001518a6001600160801b03169a50866001600160801b03169650856001600160801b03169550826001600160801b03169250816001600160801b031691509c509c509c509c509c509c509c509c509c509c509c509c505091939597999b5091939597999b565b60405163c44b11f760e01b81526001600160a01b0382811660048301525f916109d8917f0000000000000000000000000000000000000000000000000000000000000000169063c44b11f790602401602060405180830381865afa1580156109a6573d5f5f3e3d5ffd5b505050506040513d601f19601f820116820180604052508101906109ca9190611b49565b5160d41c64ffffffffff1690565b92915050565b60405163c44b11f760e01b81526001600160a01b0382811660048301525f916109d8917f0000000000000000000000000000000000000000000000000000000000000000169063c44b11f790602401602060405180830381865afa158015610a48573d5f5f3e3d5ffd5b505050506040513d601f19601f82011682018060405250810190610a6c9190611b49565b5160981c61ffff1690565b5f5f5f5f5f5f5f5f5f5f5f7f00000000000000000000000000000000000000000000000000000000000000006001600160a01b031663c44b11f78d6040518263ffffffff1660e01b8152600401610add91906001600160a01b0391909116815260200190565b602060405180830381865afa158015610af8573d5f5f3e3d5ffd5b505050506040513d601f19601f82011682018060405250810190610b1c9190611b49565b9050610b4d815161ffff80821692601083901c821692602081901c831692603082901c60ff169260409290921c1690565b8551919f50939d50919b509950909750600160381b8116151590600160391b81161515906001603a1b8116151590509c9e9b9d50999b989a97998c151599985f9850919650945092505050565b60405163c44b11f760e01b81526001600160a01b0382811660048301525f918291610c45917f00000000000000000000000000000000000000000000000000000000000000009091169063c44b11f790602401602060405180830381865afa158015610c08573d5f5f3e3d5ffd5b505050506040513d601f19601f82011682018060405250810190610c2c9190611b49565b51640fffffffff605082901c81169260749290921c1690565b9094909350915050565b6040516301b2848560e51b81526001600160a01b0382811660048301525f9182917f0000000000000000000000000000000000000000000000000000000000000000169063365090a0906024015b602060405180830381865afa158015610cb8573d5f5f3e3d5ffd5b505050506040513d601f19601f82011682018060405250810190610cdc9190611b7a565b9050806001600160a01b03166318160ddd6040518163ffffffff1660e01b8152600401602060405180830381865afa158015610d1a573d5f5f3e3d5ffd5b505050506040513d601f19601f82011682018060405250810190610d3e9190611b63565b9392505050565b60405163cff027d960e01b81526001600160a01b0382811660048301525f9182917f0000000000000000000000000000000000000000000000000000000000000000169063cff027d990602401610c9d565b5f7f00000000000000000000000000000000000000000000000000000000000000006001600160a01b0316631b8feb0e6040518163ffffffff1660e01b8152600401602060405180830381865afa158015610df4573d5f5f3e3d5ffd5b505050506040513d601f19601f820116820180604052508101906109d89190611b7a565b6040516337d83fcb60e11b81526001600160a01b0382811660048301525f917f000000000000000000000000000000000000000000000000000000000000000090911690636fb07f9690602401602060405180830381865afa158015610e80573d5f5f3e3d5ffd5b505050506040513d601f19601f82011682018060405250810190610ea49190611b95565b6001600160801b031692915050565b60605f7f00000000000000000000000000000000000000000000000000000000000000006001600160a01b031663d1946dbc6040518163ffffffff1660e01b81526004015f60405180830381865afa158015610f11573d5f5f3e3d5ffd5b505050506040513d5f823e601f3d908101601f19168201604052610f389190810190611bae565b90505f815167ffffffffffffffff811115610f5557610f55611925565b604051908082528060200260200182016040528015610f9a57816020015b60408051808201909152606081525f6020820152815260200190600190039081610f735790505b5090505f5b82518110156111bd57739f8f72aa9304c8b593d555f12ef6589cc3a579a26001600160a01b0316838281518110610fd857610fd8611c62565b60200260200101516001600160a01b0316036110625760405180604001604052806040518060400160405280600381526020016226a5a960e91b815250815260200184838151811061102c5761102c611c62565b60200260200101516001600160a01b031681525082828151811061105257611052611c62565b60200260200101819052506111b5565b73eeeeeeeeeeeeeeeeeeeeeeeeeeeeeeeeeeeeeeee6001600160a01b031683828151811061109257611092611c62565b60200260200101516001600160a01b0316036110e65760405180604001604052806040518060400160405280600381526020016208aa8960eb1b815250815260200184838151811061102c5761102c611c62565b604051806040016040528084838151811061110357611103611c62565b60200260200101516001600160a01b03166395d89b416040518163ffffffff1660e01b81526004015f60405180830381865afa158015611145573d5f5f3e3d5ffd5b505050506040513d5f823e601f3d908101601f1916820160405261116c9190810190611c76565b815260200184838151811061118357611183611c62565b60200260200101516001600160a01b03168152508282815181106111a9576111a9611c62565b60200260200101819052505b600101610f9f565b5092915050565b60405163c44b11f760e01b81526001600160a01b0382811660048301525f91611282917f0000000000000000000000000000000000000000000000000000000000000000169063c44b11f790602401602060405180830381865afa15801561122e573d5f5f3e3d5ffd5b505050506040513d601f19601f820116820180604052508101906112529190611b49565b51600160381b8116151591600160391b82161515916001603a1b8116151591671000000000000000909116151590565b95945050505050565b60405163c952485d60e01b81526001600160a01b0382811660048301525f917f00000000000000000000000000000000000000000000000000000000000000009091169063c952485d90602401602060405180830381865afa1580156112f3573d5f5f3e3d5ffd5b505050506040513d601f19601f820116820180604052508101906109d89190611b63565b60405163cff027d960e01b81526001600160a01b0382811660048301525f91829182917f00000000000000000000000000000000000000000000000000000000000000009091169063cff027d990602401602060405180830381865afa158015611383573d5f5f3e3d5ffd5b505050506040513d601f19601f820116820180604052508101906113a79190611b7a565b6040516301b2848560e51b81526001600160a01b0386811660048301525f917f00000000000000000000000000000000000000000000000000000000000000009091169063365090a090602401602060405180830381865afa15801561140f573d5f5f3e3d5ffd5b505050506040513d601f19601f820116820180604052508101906114339190611b7a565b9250925092509193909250565b60405163c44b11f760e01b81526001600160a01b0382811660048301525f9182917f0000000000000000000000000000000000000000000000000000000000000000169063c44b11f790602401602060405180830381865afa1580156114a8573d5f5f3e3d5ffd5b505050506040513d601f19601f820116820180604052508101906114cc9190611b49565b9050610d3e815167800000000000000016151590565b60605f7f00000000000000000000000000000000000000000000000000000000000000006001600160a01b031663d1946dbc6040518163ffffffff1660e01b81526004015f60405180830381865afa158015611540573d5f5f3e3d5ffd5b505050506040513d5f823e601f3d908101601f191682016040526115679190810190611bae565b90505f815167ffffffffffffffff81111561158457611584611925565b6040519080825280602002602001820160405280156115c957816020015b60408051808201909152606081525f60208201528152602001906001900390816115a25790505b5090505f5b82518110156111bd575f7f00000000000000000000000000000000000000000000000000000000000000006001600160a01b031663cff027d985848151811061161957611619611c62565b60200260200101516040518263ffffffff1660e01b815260040161164c91906001600160a01b0391909116815260200190565b602060405180830381865afa158015611667573d5f5f3e3d5ffd5b505050506040513d601f19601f8201168201806040525081019061168b9190611b7a565b90506040518060400160405280826001600160a01b03166395d89b416040518163ffffffff1660e01b81526004015f60405180830381865afa1580156116d3573d5f5f3e3d5ffd5b505050506040513d5f823e601f3d908101601f191682016040526116fa9190810190611c76565b8152602001826001600160a01b031681525083838151811061171e5761171e611c62565b6020908102919091010152506001016115ce565b60405163c44b11f760e01b81526001600160a01b0382811660048301525f916109d8917f0000000000000000000000000000000000000000000000000000000000000000169063c44b11f790602401602060405180830381865afa15801561179c573d5f5f3e3d5ffd5b505050506040513d601f19601f820116820180604052508101906117c09190611b49565b5167400000000000000016151590565b5f608082106117f2576040516385e98beb60e01b815260040160405180910390fd5b509051600191821b82011c16151590565b6001600160a01b0381168114611817575f5ffd5b50565b5f5f6040838503121561182b575f5ffd5b823561183681611803565b9150602083013561184681611803565b809150509250929050565b5f60208284031215611861575f5ffd5b8135610d3e81611803565b5f5b8381101561188657818101518382015260200161186e565b50505f910152565b5f602082016020835280845180835260408501915060408160051b8601019250602086015f5b8281101561191957603f19878603018452815180516040875280518060408901526118e68160608a016020850161186c565b6020928301516001600160a01b031688840152601f01601f191690960160600195509384019391909101906001016118b4565b50929695505050505050565b634e487b7160e01b5f52604160045260245ffd5b6040516101e0810167ffffffffffffffff8111828210171561195d5761195d611925565b60405290565b604051601f8201601f1916810167ffffffffffffffff8111828210171561198c5761198c611925565b604052919050565b5f602082840312156119a4575f5ffd5b6040516020810167ffffffffffffffff811182821017156119c7576119c7611925565b6040529151825250919050565b80516001600160801b03811681146119ea575f5ffd5b919050565b805164ffffffffff811681146119ea575f5ffd5b805161ffff811681146119ea575f5ffd5b80516119ea81611803565b5f6101e0828403128015611a31575f5ffd5b50611a3a611939565b611a448484611994565b8152611a52602084016119d4565b6020820152611a63604084016119d4565b6040820152611a74606084016119d4565b6060820152611a85608084016119d4565b6080820152611a9660a084016119d4565b60a0820152611aa760c084016119ef565b60c0820152611ab860e08401611a03565b60e0820152611aca6101008401611a14565b610100820152611add6101208401611a14565b610120820152611af06101408401611a14565b610140820152611b036101608401611a14565b610160820152611b1661018084016119d4565b610180820152611b296101a084016119d4565b6101a0820152611b3c6101c084016119d4565b6101c08201529392505050565b5f60208284031215611b59575f5ffd5b610d3e8383611994565b5f60208284031215611b73575f5ffd5b5051919050565b5f60208284031215611b8a575f5ffd5b8151610d3e81611803565b5f60208284031215611ba5575f5ffd5b610d3e826119d4565b5f60208284031215611bbe575f5ffd5b815167ffffffffffffffff811115611bd4575f5ffd5b8201601f81018413611be4575f5ffd5b805167ffffffffffffffff811115611bfe57611bfe611925565b8060051b611c0e60208201611963565b91825260208184018101929081019087841115611c29575f5ffd5b6020850194505b83851015611c575784519250611c4583611803565b82825260209485019490910190611c30565b979650505050505050565b634e487b7160e01b5f52603260045260245ffd5b5f60208284031215611c86575f5ffd5b815167ffffffffffffffff811115611c9c575f5ffd5b8201601f81018413611cac575f5ffd5b805167ffffffffffffffff811115611cc657611cc6611925565b611cd9601f8201601f1916602001611963565b818152856020838501011115611ced575f5ffd5b61128282602083016020860161186c56fea164736f6c634300081b000a","linkReferences":{}},"methodIdentifiers":{"ADDRESSES_PROVIDER()":"0542975c","POOL()":"7535d246","getATokenTotalSupply(address)":"51460e25","getAllATokens()":"f561ae41","getAllReservesTokens()":"b316ff89","getDebtCeiling(address)":"3c798109","getDebtCeilingDecimals()":"69b169e1","getFlashLoanEnabled(address)":"d7ed3ef4","getInterestRateStrategyAddress(address)":"6744362a","getIsVirtualAccActive(address)":"f7e14307","getLiquidationProtocolFee(address)":"3cb8a622","getPaused(address)":"b55d9904","getReserveCaps(address)":"46fbe558","getReserveConfigurationData(address)":"3e150141","getReserveData(address)":"35ea6a75","getReserveDeficit(address)":"c952485d","getReserveTokensAddresses(address)":"d2493b6c","getSiloedBorrowing(address)":"fcf40a62","getTotalDebt(address)":"4d44ac4f","getUnbackedMintCap(address)":"7ba1ae36","getUserReserveData(address,address)":"28dd2d01","getVirtualUnderlyingBalance(address)":"6fb07f96"},"id":123}