{"abi":[{"type":"constructor","inputs":[{"name":"pool","type":"address","internalType":"address"},{"name":"addressesProvider","type":"address","internalType":"address"}],"stateMutability":"nonpayable"},{"type":"function","name":"ADDRESSES_PROVIDER","inputs":[],"outputs":[{"name":"","type":"address","internalType":"contract IPoolAddressesProvider"}],"stateMutability":"view"},{"type":"function","name":"POOL","inputs":[],"outputs":[{"name":"","type":"address","internalType":"contract IPool"}],"stateMutability":"view"},{"type":"function","name":"getCollateralFullInfo","inputs":[{"name":"user","type":"address","internalType":"address"},{"name":"collateralAsset","type":"address","internalType":"address"}],"outputs":[{"name":"","type":"tuple","internalType":"struct ILiquidationDataProvider.CollateralFullInfo","components":[{"name":"aToken","type":"address","internalType":"address"},{"name":"collateralBalance","type":"uint256","internalType":"uint256"},{"name":"collateralBalanceInBaseCurrency","type":"uint256","internalType":"uint256"},{"name":"price","type":"uint256","internalType":"uint256"},{"name":"assetUnit","type":"uint256","internalType":"uint256"}]}],"stateMutability":"view"},{"type":"function","name":"getDebtFullInfo","inputs":[{"name":"user","type":"address","internalType":"address"},{"name":"debtAsset","type":"address","internalType":"address"}],"outputs":[{"name":"","type":"tuple","internalType":"struct ILiquidationDataProvider.DebtFullInfo","components":[{"name":"variableDebtToken","type":"address","internalType":"address"},{"name":"debtBalance","type":"uint256","internalType":"uint256"},{"name":"debtBalanceInBaseCurrency","type":"uint256","internalType":"uint256"},{"name":"price","type":"uint256","internalType":"uint256"},{"name":"assetUnit","type":"uint256","internalType":"uint256"}]}],"stateMutability":"view"},{"type":"function","name":"getLiquidationInfo","inputs":[{"name":"user","type":"address","internalType":"address"},{"name":"collateralAsset","type":"address","internalType":"address"},{"name":"debtAsset","type":"address","internalType":"address"}],"outputs":[{"name":"","type":"tuple","internalType":"struct ILiquidationDataProvider.LiquidationInfo","components":[{"name":"userInfo","type":"tuple","internalType":"struct ILiquidationDataProvider.UserPositionFullInfo","components":[{"name":"totalCollateralInBaseCurrency","type":"uint256","internalType":"uint256"},{"name":"totalDebtInBaseCurrency","type":"uint256","internalType":"uint256"},{"name":"availableBorrowsInBaseCurrency","type":"uint256","internalType":"uint256"},{"name":"currentLiquidationThreshold","type":"uint256","internalType":"uint256"},{"name":"ltv","type":"uint256","internalType":"uint256"},{"name":"healthFactor","type":"uint256","internalType":"uint256"}]},{"name":"collateralInfo","type":"tuple","internalType":"struct ILiquidationDataProvider.CollateralFullInfo","components":[{"name":"aToken","type":"address","internalType":"address"},{"name":"collateralBalance","type":"uint256","internalType":"uint256"},{"name":"collateralBalanceInBaseCurrency","type":"uint256","internalType":"uint256"},{"name":"price","type":"uint256","internalType":"uint256"},{"name":"assetUnit","type":"uint256","internalType":"uint256"}]},{"name":"debtInfo","type":"tuple","internalType":"struct ILiquidationDataProvider.DebtFullInfo","components":[{"name":"variableDebtToken","type":"address","internalType":"address"},{"name":"debtBalance","type":"uint256","internalType":"uint256"},{"name":"debtBalanceInBaseCurrency","type":"uint256","internalType":"uint256"},{"name":"price","type":"uint256","internalType":"uint256"},{"name":"assetUnit","type":"uint256","internalType":"uint256"}]},{"name":"maxCollateralToLiquidate","type":"uint256","internalType":"uint256"},{"name":"maxDebtToLiquidate","type":"uint256","internalType":"uint256"},{"name":"liquidationProtocolFee","type":"uint256","internalType":"uint256"},{"name":"amountToPassToLiquidationCall","type":"uint256","internalType":"uint256"}]}],"stateMutability":"view"},{"type":"function","name":"getLiquidationInfo","inputs":[{"name":"user","type":"address","internalType":"address"},{"name":"collateralAsset","type":"address","internalType":"address"},{"name":"debtAsset","type":"address","internalType":"address"},{"name":"debtLiquidationAmount","type":"uint256","internalType":"uint256"}],"outputs":[{"name":"","type":"tuple","internalType":"struct ILiquidationDataProvider.LiquidationInfo","components":[{"name":"userInfo","type":"tuple","internalType":"struct ILiquidationDataProvider.UserPositionFullInfo","components":[{"name":"totalCollateralInBaseCurrency","type":"uint256","internalType":"uint256"},{"name":"totalDebtInBaseCurrency","type":"uint256","internalType":"uint256"},{"name":"availableBorrowsInBaseCurrency","type":"uint256","internalType":"uint256"},{"name":"currentLiquidationThreshold","type":"uint256","internalType":"uint256"},{"name":"ltv","type":"uint256","internalType":"uint256"},{"name":"healthFactor","type":"uint256","internalType":"uint256"}]},{"name":"collateralInfo","type":"tuple","internalType":"struct ILiquidationDataProvider.CollateralFullInfo","components":[{"name":"aToken","type":"address","internalType":"address"},{"name":"collateralBalance","type":"uint256","internalType":"uint256"},{"name":"collateralBalanceInBaseCurrency","type":"uint256","internalType":"uint256"},{"name":"price","type":"uint256","internalType":"uint256"},{"name":"assetUnit","type":"uint256","internalType":"uint256"}]},{"name":"debtInfo","type":"tuple","internalType":"struct ILiquidationDataProvider.DebtFullInfo","components":[{"name":"variableDebtToken","type":"address","internalType":"address"},{"name":"debtBalance","type":"uint256","internalType":"uint256"},{"name":"debtBalanceInBaseCurrency","type":"uint256","internalType":"uint256"},{"name":"price","type":"uint256","internalType":"uint256"},{"name":"assetUnit","type":"uint256","internalType":"uint256"}]},{"name":"maxCollateralToLiquidate","type":"uint256","internalType":"uint256"},{"name":"maxDebtToLiquidate","type":"uint256","internalType":"uint256"},{"name":"liquidationProtocolFee","type":"uint256","internalType":"uint256"},{"name":"amountToPassToLiquidationCall","type":"uint256","internalType":"uint256"}]}],"stateMutability":"view"},{"type":"function","name":"getUserPositionFullInfo","inputs":[{"name":"user","type":"address","internalType":"address"}],"outputs":[{"name":"","type":"tuple","internalType":"struct ILiquidationDataProvider.UserPositionFullInfo","components":[{"name":"totalCollateralInBaseCurrency","type":"uint256","internalType":"uint256"},{"name":"totalDebtInBaseCurrency","type":"uint256","internalType":"uint256"},{"name":"availableBorrowsInBaseCurrency","type":"uint256","internalType":"uint256"},{"name":"currentLiquidationThreshold","type":"uint256","internalType":"uint256"},{"name":"ltv","type":"uint256","internalType":"uint256"},{"name":"healthFactor","type":"uint256","internalType":"uint256"}]}],"stateMutability":"view"},{"type":"error","name":"InvalidReserveIndex","inputs":[]}],"bytecode":{"object":"0x60c060405234801561000f575f5ffd5b50604051611ec5380380611ec583398101604081905261002e91610060565b6001600160a01b039081166080521660a052610091565b80516001600160a01b038116811461005b575f5ffd5b919050565b5f5f60408385031215610071575f5ffd5b61007a83610045565b915061008860208401610045565b90509250929050565b60805160a051611db36101125f395f818160fa015281816103fd0152818161048d015281816106ce0152818161086401528181610a7a01528181610c3d01528181610d1301528181610daf01528181610e3d0152610edf01525f818160830152818161017e015281816102190152818161030b0152610aad0152611db35ff3fe608060405234801561000f575f5ffd5b506004361061007a575f3560e01c80637535d246116100585780637535d246146100f55780639db9ddcf1461011c578063ce5874c01461013c578063fa1582d51461014f575f5ffd5b80630542975c1461007e5780630a2d69b4146100c25780632d8c532c146100e2575b5f5ffd5b6100a57f000000000000000000000000000000000000000000000000000000000000000081565b6040516001600160a01b0390911681526020015b60405180910390f35b6100d56100d03660046115d3565b61016f565b6040516100b99190611640565b6100d56100f03660046115d3565b61020a565b6100a57f000000000000000000000000000000000000000000000000000000000000000081565b61012f61012a36600461164e565b61029c565b6040516100b99190611696565b61012f61014a36600461172b565b6102bb565b61016261015d366004611779565b610649565b6040516100b99190611794565b610177611513565b61020183837f00000000000000000000000000000000000000000000000000000000000000006001600160a01b031663fca513a86040518163ffffffff1660e01b8152600401602060405180830381865afa1580156101d8573d5f5f3e3d5ffd5b505050506040513d601f19601f820116820180604052508101906101fc91906117e7565b610758565b90505b92915050565b610212611513565b61020183837f00000000000000000000000000000000000000000000000000000000000000006001600160a01b031663fca513a86040518163ffffffff1660e01b8152600401602060405180830381865afa158015610273573d5f5f3e3d5ffd5b505050506040513d601f19601f8201168201806040525081019061029791906117e7565b61096e565b6102a4611546565b6102b18484845f196102bb565b90505b9392505050565b6102c3611546565b6102cb611546565b6102f86040518060a001604052805f81526020015f81526020015f81526020015f81526020015f81525090565b61030187610649565b825f01819052505f7f00000000000000000000000000000000000000000000000000000000000000006001600160a01b031663fca513a86040518163ffffffff1660e01b8152600401602060405180830381865afa158015610365573d5f5f3e3d5ffd5b505050506040513d601f19601f8201168201806040525081019061038991906117e7565b9050610396888883610758565b60208401526103a688878361096e565b60408401819052602001515f0390506103c157509050610641565b815160a001516103d090610aa9565b6103dc57509050610641565b6040516335ea6a7560e01b81526001600160a01b0387811660048301525f917f0000000000000000000000000000000000000000000000000000000000000000909116906335ea6a75906024016101e060405180830381865afa158015610445573d5f5f3e3d5ffd5b505050506040513d601f19601f82011682018060405250810190610469919061190f565b6040516335ea6a7560e01b81526001600160a01b0388811660048301529192505f917f000000000000000000000000000000000000000000000000000000000000000016906335ea6a75906024016101e060405180830381865afa1580156104d3573d5f5f3e3d5ffd5b505050506040513d601f19601f820116820180604052508101906104f7919061190f565b9050610508886001845f0151610be3565b158061051f575061051d875f835f0151610be3565b155b156105305783945050505050610641565b61053e898360e00151610cf0565b61054e5783945050505050610641565b610560898360e00151845f0151610d8c565b835283516020850151604086015161057a92919089610f77565b60208085018290528451908601516040870151855161059c949392919061101b565b60808601819052606086018290526040808701849052865160208901519189015187516105cd969594939190611135565b60a0870152608086018190526060860191909152158015906105fa57508360400151602001518460800151145b8061061e575060608401511580159061061e57508360200151602001518460600151145b1561062f575f1960c085015261063a565b608084015160c08501525b5091925050505b949350505050565b61067c6040518060c001604052805f81526020015f81526020015f81526020015f81526020015f81526020015f81525090565b6106af6040518060c001604052805f81526020015f81526020015f81526020015f81526020015f81526020015f81525090565b604051632fe4a15f60e21b81526001600160a01b0384811660048301527f0000000000000000000000000000000000000000000000000000000000000000169063bf92857c9060240160c060405180830381865afa158015610713573d5f5f3e3d5ffd5b505050506040513d601f19601f820116820180604052508101906107379190611a39565b60a08701526080860152606085015260408401526020830152815292915050565b610760611513565b610768611513565b836001600160a01b031663313ce5676040518163ffffffff1660e01b8152600401602060405180830381865afa1580156107a4573d5f5f3e3d5ffd5b505050506040513d601f19601f820116820180604052508101906107c89190611a7f565b6107d390600a611b96565b608082015260405163b3596f0760e01b81526001600160a01b03858116600483015284169063b3596f0790602401602060405180830381865afa15801561081c573d5f5f3e3d5ffd5b505050506040513d601f19601f820116820180604052508101906108409190611ba4565b606082015260405163cff027d960e01b81526001600160a01b0385811660048301527f0000000000000000000000000000000000000000000000000000000000000000169063cff027d9906024015b602060405180830381865afa1580156108aa573d5f5f3e3d5ffd5b505050506040513d601f19601f820116820180604052508101906108ce91906117e7565b6001600160a01b039081168083526040516370a0823160e01b81529187166004830152906370a0823190602401602060405180830381865afa158015610916573d5f5f3e3d5ffd5b505050506040513d601f19601f8201168201806040525081019061093a9190611ba4565b602082018190526080820151606083015190916109579190611bbb565b6109619190611bd2565b6040820152949350505050565b610976611513565b61097e611513565b836001600160a01b031663313ce5676040518163ffffffff1660e01b8152600401602060405180830381865afa1580156109ba573d5f5f3e3d5ffd5b505050506040513d601f19601f820116820180604052508101906109de9190611a7f565b6109e990600a611b96565b608082015260405163b3596f0760e01b81526001600160a01b03858116600483015284169063b3596f0790602401602060405180830381865afa158015610a32573d5f5f3e3d5ffd5b505050506040513d601f19601f82011682018060405250810190610a569190611ba4565b60608201526040516301b2848560e51b81526001600160a01b0385811660048301527f0000000000000000000000000000000000000000000000000000000000000000169063365090a09060240161088f565b5f5f7f00000000000000000000000000000000000000000000000000000000000000006001600160a01b0316635eb88d3d6040518163ffffffff1660e01b8152600401602060405180830381865afa158015610b07573d5f5f3e3d5ffd5b505050506040513d601f19601f82011682018060405250810190610b2b91906117e7565b9050670de0b6b3a76400008310610b4457505f92915050565b6001600160a01b03811615801590610b645750670d2f13f7789f00008310155b8015610bcd5750806001600160a01b0316637a5d20ea6040518163ffffffff1660e01b8152600401602060405180830381865afa158015610ba7573d5f5f3e3d5ffd5b505050506040513d601f19601f82011682018060405250810190610bcb9190611bf1565b155b15610bda57505f92915050565b50600192915050565b5f5f610bf9835167010000000000000016151590565b90505f610c10845167100000000000000016151590565b604051630b93516360e31b81526001600160a01b0388811660048301529192505f914264ffffffffff16917f000000000000000000000000000000000000000000000000000000000000000090911690635c9a8b1890602401602060405180830381865afa158015610c84573d5f5f3e3d5ffd5b505050506040513d601f19601f82011682018060405250810190610ca89190611c10565b64ffffffffff16109050828015610cbd575081155b8015610cc65750805b8015610ce5575085610cd9576001610ce5565b845160101c61ffff1615155b979650505050505050565b604051634417a58360e01b81526001600160a01b0383811660048301525f9182917f00000000000000000000000000000000000000000000000000000000000000001690634417a58390602401602060405180830381865afa158015610d58573d5f5f3e3d5ffd5b505050506040513d601f19601f82011682018060405250810190610d7c9190611c29565b90506106418161ffff8516611417565b60405163eddf1b7960e01b81526001600160a01b0384811660048301525f9182917f0000000000000000000000000000000000000000000000000000000000000000169063eddf1b7990602401602060405180830381865afa158015610df4573d5f5f3e3d5ffd5b505050506040513d601f19601f82011682018060405250810190610e189190611ba4565b60405163583b8edd60e11b815260ff821660048201529091505f906001600160a01b037f0000000000000000000000000000000000000000000000000000000000000000169063b0771dba90602401602060405180830381865afa158015610e82573d5f5f3e3d5ffd5b505050506040513d601f19601f82011682018060405250810190610ea69190611c43565b90508115801590610ec05750610ec0818661ffff1661144a565b15610f6557604051636c6f6ae160e01b815260ff831660048201525f907f00000000000000000000000000000000000000000000000000000000000000006001600160a01b031690636c6f6ae1906024015f60405180830381865afa158015610f2b573d5f5f3e3d5ffd5b505050506040513d5f823e601f3d908101601f19168201604052610f529190810190611c5c565b6040015161ffff1693506102b492505050565b835160201c61ffff16925050506102b4565b5f5f83602001519050642e90edd000856040015110158015610fa25750642e90edd000846040015110155b8015610fb95750670d2f13f7789f00008660a00151115b156110025760208601515f90610fd190611388611483565b905080856040015111156110005760608501516080860151610ff39083611bbb565b610ffd9190611bd2565b91505b505b82811061100f5782611011565b805b9695505050505050565b5f5f5f5f611031855161ffff60989190911c1690565b90505f866080015188606001516110489190611bbb565b88608001518b896060015161105d9190611bbb565b6110679190611bbb565b6110719190611bd2565b90505f61107e828b611483565b90505f5f8a602001518311156110e3578a6020015191506110dc8c8c608001518c606001516110ad9190611bbb565b8c60800151858f606001516110c29190611bbb565b6110cc9190611bbb565b6110d69190611bd2565b906114a7565b90506110e9565b508190508b5b5f8515611121575f6110fb848f6114ea565b6111059085611d80565b90506111118188611483565b915061111d8285611d80565b9350505b919d909c50909a5098505050505050505050565b5f5f5f6111786040518061010001604052805f81526020015f81526020015f81526020015f81526020015f81526020015f81526020015f81526020015f81525090565b60208701516111878a8d611d93565b108015611197575085602001518a105b1561140657866080015187606001518a8d8a602001516111b79190611d80565b6111c19190611d80565b6111cb9190611bbb565b6111d59190611bd2565b81526080860151606087015160208801516111f1908d90611d80565b6111fb9190611bbb565b6112059190611bd2565b602082015261121a6002642e90edd000611bd2565b8151108061123a57506112336002642e90edd000611bd2565b8160200151105b156114065761124f6002642e90edd000611bd2565b81511061125c575f611278565b805161126e6002642e90edd000611bd2565b6112789190611d80565b604082015261128d6002642e90edd000611bd2565b81602001511061129d575f6112bc565b60208101516112b26002642e90edd000611bd2565b6112bc9190611d80565b6060820181905260408201511115611338578660600151876080015182604001516112e79190611bbb565b6112f19190611bd2565b60808201819052611302908c611d80565b9a50611331888860800151886060015161131c9190611bbb565b88608001518e8b606001516110c29190611bbb565b99506113b8565b8560600151866080015182606001516113519190611bbb565b61135b9190611bd2565b60a0820181905261136c908b611d80565b99506113b588876080015189606001516113869190611bbb565b89608001518d8a6060015161139b9190611bbb565b6113a59190611bbb565b6113af9190611bd2565b90611483565b9a505b845160981c61ffff1660c0820181905215611406576113d78b896114ea565b6113e1908c611d80565b60e0820181905260c08201516113f79190611483565b9850611403898c611d80565b9a505b509899979850959695505050505050565b5f60808210611439576040516385e98beb60e01b815260040160405180910390fd5b509051600191821b82011c16151590565b5f6080821061146c576040516385e98beb60e01b815260040160405180910390fd5b506001600160801b0391909116901c600116151590565b5f81156113881983900484111517611499575f5ffd5b506127109102611388010490565b5f81157e068db8bac710cb295e9e1b089a027525460aa64c2f837b4a2339c0ebedfa43841117156114d6575f5ffd5b506127109190910281810491900615150190565b5f811561271060028404190484111715611502575f5ffd5b506127109190910260028204010490565b6040518060a001604052805f6001600160a01b031681526020015f81526020015f81526020015f81526020015f81525090565b6040518060e001604052806115846040518060c001604052805f81526020015f81526020015f81526020015f81526020015f81526020015f81525090565b8152602001611591611513565b815260200161159e611513565b81526020015f81526020015f81526020015f81526020015f81525090565b6001600160a01b03811681146115d0575f5ffd5b50565b5f5f604083850312156115e4575f5ffd5b82356115ef816115bc565b915060208301356115ff816115bc565b809150509250929050565b80516001600160a01b03168252602080820151908301526040808201519083015260608082015190830152608090810151910152565b60a08101610204828461160a565b5f5f5f60608486031215611660575f5ffd5b833561166b816115bc565b9250602084013561167b816115bc565b9150604084013561168b816115bc565b809150509250925092565b8151805182526020808201519083015260408082015190830152606080820151908301526080808201519083015260a09081015190820152610280810160208301516116e560c084018261160a565b5060408301516116f961016084018261160a565b506060830151610200830152608083015161022083015260a083015161024083015260c0909201516102609091015290565b5f5f5f5f6080858703121561173e575f5ffd5b8435611749816115bc565b93506020850135611759816115bc565b92506040850135611769816115bc565b9396929550929360600135925050565b5f60208284031215611789575f5ffd5b81356102b4816115bc565b60c081016102048284805182526020810151602083015260408101516040830152606081015160608301526080810151608083015260a081015160a08301525050565b80516117e2816115bc565b919050565b5f602082840312156117f7575f5ffd5b81516102b4816115bc565b634e487b7160e01b5f52604160045260245ffd5b6040516101e0810167ffffffffffffffff8111828210171561183a5761183a611802565b60405290565b60405160a0810167ffffffffffffffff8111828210171561183a5761183a611802565b604051601f8201601f1916810167ffffffffffffffff8111828210171561188c5761188c611802565b604052919050565b5f602082840312156118a4575f5ffd5b6040516020810167ffffffffffffffff811182821017156118c7576118c7611802565b6040529151825250919050565b80516001600160801b03811681146117e2575f5ffd5b805164ffffffffff811681146117e2575f5ffd5b805161ffff811681146117e2575f5ffd5b5f6101e0828403128015611921575f5ffd5b5061192a611816565b6119348484611894565b8152611942602084016118d4565b6020820152611953604084016118d4565b6040820152611964606084016118d4565b6060820152611975608084016118d4565b608082015261198660a084016118d4565b60a082015261199760c084016118ea565b60c08201526119a860e084016118fe565b60e08201526119ba61010084016117d7565b6101008201526119cd61012084016117d7565b6101208201526119e061014084016117d7565b6101408201526119f361016084016117d7565b610160820152611a0661018084016118d4565b610180820152611a196101a084016118d4565b6101a0820152611a2c6101c084016118d4565b6101c08201529392505050565b5f5f5f5f5f5f60c08789031215611a4e575f5ffd5b50508451602086015160408701516060880151608089015160a090990151939a929950909790965094509092509050565b5f60208284031215611a8f575f5ffd5b815160ff811681146102b4575f5ffd5b634e487b7160e01b5f52601160045260245ffd5b6001815b6001841115611aee57808504811115611ad257611ad2611a9f565b6001841615611ae057908102905b60019390931c928002611ab7565b935093915050565b5f82611b0457506001610204565b81611b1057505f610204565b8160018114611b265760028114611b3057611b4c565b6001915050610204565b60ff841115611b4157611b41611a9f565b50506001821b610204565b5060208310610133831016604e8410600b8410161715611b6f575081810a610204565b611b7b5f198484611ab3565b805f1904821115611b8e57611b8e611a9f565b029392505050565b5f61020160ff841683611af6565b5f60208284031215611bb4575f5ffd5b5051919050565b808202811582820484141761020457610204611a9f565b5f82611bec57634e487b7160e01b5f52601260045260245ffd5b500490565b5f60208284031215611c01575f5ffd5b815180151581146102b4575f5ffd5b5f60208284031215611c20575f5ffd5b610201826118ea565b5f60208284031215611c39575f5ffd5b6102018383611894565b5f60208284031215611c53575f5ffd5b610201826118d4565b5f60208284031215611c6c575f5ffd5b815167ffffffffffffffff811115611c82575f5ffd5b820160a08185031215611c93575f5ffd5b611c9b611840565b611ca4826118fe565b8152611cb2602083016118fe565b6020820152611cc3604083016118fe565b60408201526060820151611cd6816115bc565b6060820152608082015167ffffffffffffffff811115611cf4575f5ffd5b80830192505084601f830112611d08575f5ffd5b815167ffffffffffffffff811115611d2257611d22611802565b611d35601f8201601f1916602001611863565b818152866020838601011115611d49575f5ffd5b5f5b82811015611d6757602081860181015183830182015201611d4b565b505f918101602001919091526080820152949350505050565b8181038181111561020457610204611a9f565b8082018082111561020457610204611a9f56fea164736f6c634300081b000a","linkReferences":{}},"methodIdentifiers":{"ADDRESSES_PROVIDER()":"0542975c","POOL()":"7535d246","getCollateralFullInfo(address,address)":"0a2d69b4","getDebtFullInfo(address,address)":"2d8c532c","getLiquidationInfo(address,address,address)":"9db9ddcf","getLiquidationInfo(address,address,address,uint256)":"ce5874c0","getUserPositionFullInfo(address)":"fa1582d5"},"id":125}