{"abi":[{"type":"constructor","inputs":[{"name":"customEngine","type":"address","internalType":"address"}],"stateMutability":"nonpayable"},{"type":"function","name":"CONFIG_ENGINE","inputs":[],"outputs":[{"name":"","type":"address","internalType":"contract IAaveV3ConfigEngine"}],"stateMutability":"view"},{"type":"function","name":"assetsEModeUpdates","inputs":[],"outputs":[{"name":"","type":"tuple[]","internalType":"struct IAaveV3ConfigEngine.AssetEModeUpdate[]","components":[{"name":"asset","type":"address","internalType":"address"},{"name":"eModeCategory","type":"uint8","internalType":"uint8"},{"name":"borrowable","type":"uint256","internalType":"uint256"},{"name":"collateral","type":"uint256","internalType":"uint256"}]}],"stateMutability":"view"},{"type":"function","name":"borrowsUpdates","inputs":[],"outputs":[{"name":"","type":"tuple[]","internalType":"struct IAaveV3ConfigEngine.BorrowUpdate[]","components":[{"name":"asset","type":"address","internalType":"address"},{"name":"enabledToBorrow","type":"uint256","internalType":"uint256"},{"name":"flashloanable","type":"uint256","internalType":"uint256"},{"name":"borrowableInIsolation","type":"uint256","internalType":"uint256"},{"name":"withSiloedBorrowing","type":"uint256","internalType":"uint256"},{"name":"reserveFactor","type":"uint256","internalType":"uint256"}]}],"stateMutability":"view"},{"type":"function","name":"capsUpdates","inputs":[],"outputs":[{"name":"","type":"tuple[]","internalType":"struct IAaveV3ConfigEngine.CapsUpdate[]","components":[{"name":"asset","type":"address","internalType":"address"},{"name":"supplyCap","type":"uint256","internalType":"uint256"},{"name":"borrowCap","type":"uint256","internalType":"uint256"}]}],"stateMutability":"view"},{"type":"function","name":"collateralsUpdates","inputs":[],"outputs":[{"name":"","type":"tuple[]","internalType":"struct IAaveV3ConfigEngine.CollateralUpdate[]","components":[{"name":"asset","type":"address","internalType":"address"},{"name":"ltv","type":"uint256","internalType":"uint256"},{"name":"liqThreshold","type":"uint256","internalType":"uint256"},{"name":"liqBonus","type":"uint256","internalType":"uint256"},{"name":"debtCeiling","type":"uint256","internalType":"uint256"},{"name":"liqProtocolFee","type":"uint256","internalType":"uint256"}]}],"stateMutability":"view"},{"type":"function","name":"eModeCategoriesUpdates","inputs":[],"outputs":[{"name":"","type":"tuple[]","internalType":"struct IAaveV3ConfigEngine.EModeCategoryUpdate[]","components":[{"name":"eModeCategory","type":"uint8","internalType":"uint8"},{"name":"ltv","type":"uint256","internalType":"uint256"},{"name":"liqThreshold","type":"uint256","internalType":"uint256"},{"name":"liqBonus","type":"uint256","internalType":"uint256"},{"name":"label","type":"string","internalType":"string"}]}],"stateMutability":"pure"},{"type":"function","name":"eModeCategoryCreations","inputs":[],"outputs":[{"name":"","type":"tuple[]","internalType":"struct IAaveV3ConfigEngine.EModeCategoryCreation[]","components":[{"name":"ltv","type":"uint256","internalType":"uint256"},{"name":"liqThreshold","type":"uint256","internalType":"uint256"},{"name":"liqBonus","type":"uint256","internalType":"uint256"},{"name":"label","type":"string","internalType":"string"},{"name":"borrowables","type":"address[]","internalType":"address[]"},{"name":"collaterals","type":"address[]","internalType":"address[]"}]}],"stateMutability":"view"},{"type":"function","name":"execute","inputs":[],"outputs":[],"stateMutability":"nonpayable"},{"type":"function","name":"getPoolContext","inputs":[],"outputs":[{"name":"","type":"tuple","internalType":"struct IAaveV3ConfigEngine.PoolContext","components":[{"name":"networkName","type":"string","internalType":"string"},{"name":"networkAbbreviation","type":"string","internalType":"string"}]}],"stateMutability":"pure"},{"type":"function","name":"newListings","inputs":[],"outputs":[{"name":"","type":"tuple[]","internalType":"struct IAaveV3ConfigEngine.Listing[]","components":[{"name":"asset","type":"address","internalType":"address"},{"name":"assetSymbol","type":"string","internalType":"string"},{"name":"priceFeed","type":"address","internalType":"address"},{"name":"rateStrategyParams","type":"tuple","internalType":"struct IAaveV3ConfigEngine.InterestRateInputData","components":[{"name":"optimalUsageRatio","type":"uint256","internalType":"uint256"},{"name":"baseVariableBorrowRate","type":"uint256","internalType":"uint256"},{"name":"variableRateSlope1","type":"uint256","internalType":"uint256"},{"name":"variableRateSlope2","type":"uint256","internalType":"uint256"}]},{"name":"enabledToBorrow","type":"uint256","internalType":"uint256"},{"name":"borrowableInIsolation","type":"uint256","internalType":"uint256"},{"name":"withSiloedBorrowing","type":"uint256","internalType":"uint256"},{"name":"flashloanable","type":"uint256","internalType":"uint256"},{"name":"ltv","type":"uint256","internalType":"uint256"},{"name":"liqThreshold","type":"uint256","internalType":"uint256"},{"name":"liqBonus","type":"uint256","internalType":"uint256"},{"name":"reserveFactor","type":"uint256","internalType":"uint256"},{"name":"supplyCap","type":"uint256","internalType":"uint256"},{"name":"borrowCap","type":"uint256","internalType":"uint256"},{"name":"debtCeiling","type":"uint256","internalType":"uint256"},{"name":"liqProtocolFee","type":"uint256","internalType":"uint256"}]}],"stateMutability":"view"},{"type":"function","name":"newListingsCustom","inputs":[],"outputs":[{"name":"","type":"tuple[]","internalType":"struct IAaveV3ConfigEngine.ListingWithCustomImpl[]","components":[{"name":"base","type":"tuple","internalType":"struct IAaveV3ConfigEngine.Listing","components":[{"name":"asset","type":"address","internalType":"address"},{"name":"assetSymbol","type":"string","internalType":"string"},{"name":"priceFeed","type":"address","internalType":"address"},{"name":"rateStrategyParams","type":"tuple","internalType":"struct IAaveV3ConfigEngine.InterestRateInputData","components":[{"name":"optimalUsageRatio","type":"uint256","internalType":"uint256"},{"name":"baseVariableBorrowRate","type":"uint256","internalType":"uint256"},{"name":"variableRateSlope1","type":"uint256","internalType":"uint256"},{"name":"variableRateSlope2","type":"uint256","internalType":"uint256"}]},{"name":"enabledToBorrow","type":"uint256","internalType":"uint256"},{"name":"borrowableInIsolation","type":"uint256","internalType":"uint256"},{"name":"withSiloedBorrowing","type":"uint256","internalType":"uint256"},{"name":"flashloanable","type":"uint256","internalType":"uint256"},{"name":"ltv","type":"uint256","internalType":"uint256"},{"name":"liqThreshold","type":"uint256","internalType":"uint256"},{"name":"liqBonus","type":"uint256","internalType":"uint256"},{"name":"reserveFactor","type":"uint256","internalType":"uint256"},{"name":"supplyCap","type":"uint256","internalType":"uint256"},{"name":"borrowCap","type":"uint256","internalType":"uint256"},{"name":"debtCeiling","type":"uint256","internalType":"uint256"},{"name":"liqProtocolFee","type":"uint256","internalType":"uint256"}]},{"name":"implementations","type":"tuple","internalType":"struct IAaveV3ConfigEngine.TokenImplementations","components":[{"name":"aToken","type":"address","internalType":"address"},{"name":"vToken","type":"address","internalType":"address"}]}]}],"stateMutability":"view"},{"type":"function","name":"priceFeedsUpdates","inputs":[],"outputs":[{"name":"","type":"tuple[]","internalType":"struct IAaveV3ConfigEngine.PriceFeedUpdate[]","components":[{"name":"asset","type":"address","internalType":"address"},{"name":"priceFeed","type":"address","internalType":"address"}]}],"stateMutability":"view"},{"type":"function","name":"rateStrategiesUpdates","inputs":[],"outputs":[{"name":"","type":"tuple[]","internalType":"struct IAaveV3ConfigEngine.RateStrategyUpdate[]","components":[{"name":"asset","type":"address","internalType":"address"},{"name":"params","type":"tuple","internalType":"struct IAaveV3ConfigEngine.InterestRateInputData","components":[{"name":"optimalUsageRatio","type":"uint256","internalType":"uint256"},{"name":"baseVariableBorrowRate","type":"uint256","internalType":"uint256"},{"name":"variableRateSlope1","type":"uint256","internalType":"uint256"},{"name":"variableRateSlope2","type":"uint256","internalType":"uint256"}]}]}],"stateMutability":"view"},{"type":"error","name":"AddressEmptyCode","inputs":[{"name":"target","type":"address","internalType":"address"}]},{"type":"error","name":"FailedCall","inputs":[]}],"bytecode":{"object":"0x60a0604052348015600e575f5ffd5b50604051610dae380380610dae833981016040819052602b91603b565b6001600160a01b03166080526066565b5f60208284031215604a575f5ffd5b81516001600160a01b0381168114605f575f5ffd5b9392505050565b608051610d2a6100845f395f818160fb01526102580152610d2a5ff3fe608060405234801561000f575f5ffd5b50600436106100cb575f3560e01c8063b1af0d0d11610088578063ca8e89cc11610063578063ca8e89cc1461018a578063d0c38c271461019f578063fabe3463146101ae578063fbb256f6146101bd575f5ffd5b8063b1af0d0d1461015d578063c0a255801461016c578063c3b871ad1461017b575f5ffd5b80631850edd8146100cf5780632b179434146100e75780635e5eef7a146100f65780636146195414610135578063922870951461013f57806395a93cb11461014e575b5f5ffd5b60606040516100de9190610669565b60405180910390f35b60606040516100de91906106b6565b61011d7f000000000000000000000000000000000000000000000000000000000000000081565b6040516001600160a01b0390911681526020016100de565b61013d6101d2565b005b60606040516100de91906106f8565b60606040516100de919061075e565b60606040516100de91906107b7565b60606040516100de91906109bb565b60606040516100de9190610a10565b6101926103f2565b6040516100de9190610ad2565b60606040516100de9190610b61565b60606040516100de9190610c55565b6101c56104cf565b6040516100de9190610c94565b6060805f6101de6103f2565b8351909150606090819081908190819081908190156102805761027e630b393a0960e11b61020a6104cf565b8c60405160240161021c929190610ca6565b60408051601f198184030181529190526020810180516001600160e01b03166001600160e01b0319909316929092179091526001600160a01b037f0000000000000000000000000000000000000000000000000000000000000000169061052b565b505b8851156102ae576102ac6311577d8d60e01b61029a6104cf565b8b60405160240161021c929190610cca565b505b8751156102d5576040516102d3906327708a8d60e11b9061021c908b90602401610ad2565b505b8651156102fc576040516102fa9063012146c760e41b9061021c908a906024016106f8565b505b8551156103235760405161032190630ecae8b560e21b9061021c908990602401610a10565b505b83511561034a5760405161034890633c70994b60e21b9061021c908790602401610669565b505b8451156103715760405161036f9063013b066560e31b9061021c9088906024016106b6565b505b825115610398576040516103969063b79421eb60e01b9061021c908690602401610b61565b505b8151156103bf576040516103bd9063927c400360e01b9061021c9085906024016107b7565b505b8051156103e6576040516103e4906355caa16360e01b9061021c90849060240161075e565b505b50505050505050505050565b6040805160018082528183019092526060915f9190816020015b61043d6040518060a001604052805f60ff1681526020015f81526020015f81526020015f8152602001606081525090565b81526020019060019003908161040c5790505090506040518060a00160405280600160ff16815260200161260c8152602001612620815260200160fa8152602001604051806040016040528060138152602001724b4545505f43555252454e545f535452494e4760681b815250815250815f815181106104bf576104bf610cee565b6020908102919091010152919050565b60408051808201909152606080825260208201525060408051608081018252600581830190815264131bd8d85b60da1b60608301528152815180830190925260038252624c6f6360e81b60208381019190915281019190915290565b60605f5f846001600160a01b0316846040516105479190610d02565b5f60405180830381855af49150503d805f811461057f576040519150601f19603f3d011682016040523d82523d5f602084013e610584565b606091505b509150915061059485838361059d565b95945050505050565b6060826105b2576105ad82610600565b6105f9565b81511580156105c957506001600160a01b0384163b155b156105f657604051639996b31560e01b81526001600160a01b038516600482015260240160405180910390fd5b50805b9392505050565b8051156106105780518082602001fd5b60405163d6bda27560e01b815260040160405180910390fd5b80516001600160a01b031682526020808201519083015260408082015190830152606080820151908301526080808201519083015260a090810151910152565b602080825282518282018190525f918401906040840190835b818110156106ab57610695838551610629565b6020939093019260c09290920191600101610682565b509095945050505050565b602080825282518282018190525f918401906040840190835b818110156106ab576106e2838551610629565b6020939093019260c092909201916001016106cf565b602080825282518282018190525f918401906040840190835b818110156106ab57835180516001600160a01b0316845260208082015160ff1681860152604080830151908601526060918201519185019190915290930192608090920191600101610711565b602080825282518282018190525f918401906040840190835b818110156106ab57835180516001600160a01b03168452602080820151818601526040918201519185019190915290930192606090920191600101610777565b602080825282518282018190525f918401906040840190835b818110156106ab576107f983855180516001600160a01b03908116835260209182015116910152565b60209390930192604092909201916001016107d0565b5f5b83811015610829578181015183820152602001610811565b50505f910152565b5f815180845261084881602086016020860161080f565b601f01601f19169290920160200192915050565b80516001600160a01b031682525f60208201516102606020850152610885610260850182610831565b905060408301516108a160408601826001600160a01b03169052565b5060608381015180518683015260208101516080870152604081015160a08701529081015160c086015250608083015160e085015260a083015161010085015260c083015161012085015260e08301516101408501526101008301516101608501526101208301516101808501526101408301516101a08501526101608301516101c08501526101808301516101e08501526101a08301516102008501526101c08301516102208501526101e08301516102408501528091505092915050565b5f82825180855260208501945060208160051b830101602085015f5b838110156109af57601f1985840301885261099983835161085c565b602098890198909350919091019060010161097d565b50909695505050505050565b602081525f6105f96020830184610961565b5f8151808452602084019350602083015f5b82811015610a065781516001600160a01b03168652602095860195909101906001016109df565b5093949350505050565b5f602082016020835280845180835260408501915060408160051b8601019250602086015f5b82811015610ac657603f198786030184528151805186526020810151602087015260408101516040870152606081015160c06060880152610a7a60c0880182610831565b905060808201518782036080890152610a9382826109cd565b91505060a0820151915086810360a0880152610aaf81836109cd565b965050506020938401939190910190600101610a36565b50929695505050505050565b5f602082016020835280845180835260408501915060408160051b8601019250602086015f5b82811015610ac657603f19878603018452815160ff81511686526020810151602087015260408101516040870152606081015160608701526080810151905060a06080870152610b4b60a0870182610831565b9550506020938401939190910190600101610af8565b602080825282518282018190525f918401906040840190835b818110156106ab57835180516001600160a01b0316845260209081015190610bc590850182805182526020810151602083015260408101516040830152606081015160608301525050565b506020939093019260a09290920191600101610b7a565b5f82825180855260208501945060208160051b830101602085015f5b838110156109af57601f198584030188528151805160608552610c1e606086018261085c565b60209283015180516001600160a01b0390811688860152908401511660409096019590955250978801979190910190600101610bf8565b602081525f6105f96020830184610bdc565b5f815160408452610c7b6040850182610831565b9050602083015184820360208601526105948282610831565b602081525f6105f96020830184610c67565b604081525f610cb86040830185610c67565b82810360208401526105948185610961565b604081525f610cdc6040830185610c67565b82810360208401526105948185610bdc565b634e487b7160e01b5f52603260045260245ffd5b5f8251610d1381846020870161080f565b919091019291505056fea164736f6c634300081b000a","linkReferences":{}},"methodIdentifiers":{"CONFIG_ENGINE()":"5e5eef7a","assetsEModeUpdates()":"92287095","borrowsUpdates()":"1850edd8","capsUpdates()":"95a93cb1","collateralsUpdates()":"2b179434","eModeCategoriesUpdates()":"ca8e89cc","eModeCategoryCreations()":"c3b871ad","execute()":"61461954","getPoolContext()":"fbb256f6","newListings()":"c0a25580","newListingsCustom()":"fabe3463","priceFeedsUpdates()":"b1af0d0d","rateStrategiesUpdates()":"d0c38c27"},"id":346}