{"abi":[{"type":"constructor","inputs":[{"name":"l2Flag","type":"bool","internalType":"bool"},{"name":"poolAddressesProvider","type":"address","internalType":"address"},{"name":"sequencerUptimeOracle","type":"address","internalType":"address"},{"name":"gracePeriod","type":"uint256","internalType":"uint256"}],"stateMutability":"nonpayable"},{"type":"function","name":"getMiscReport","inputs":[],"outputs":[{"name":"","type":"tuple","internalType":"struct MiscReport","components":[{"name":"priceOracleSentinel","type":"address","internalType":"address"},{"name":"defaultInterestRateStrategy","type":"address","internalType":"address"}]}],"stateMutability":"view"},{"type":"error","name":"InterestRateStrategyNotFound","inputs":[]},{"type":"error","name":"L2MustBeDisabled","inputs":[]},{"type":"error","name":"L2MustBeEnabled","inputs":[]},{"type":"error","name":"PoolAdminNotFound","inputs":[]},{"type":"error","name":"ProviderNotFound","inputs":[]},{"type":"error","name":"ProxyAdminNotFound","inputs":[]}],"bytecode":{"object":"0x608060405234801561000f575f5ffd5b5060405161181038038061181083398101604081905261002e916101ac565b5f61003b85858585610078565b80515f80546001600160a01b03199081166001600160a01b0393841617909155602090920151600180549093169116179055506101fa9350505050565b604080518082019091525f80825260208201526001600160a01b0384166100b25760405163b1cd090360e01b815260040160405180910390fd5b8480156100c757506001600160a01b03831615155b80156100d257508115155b1561012a578383836040516100e690610177565b6001600160a01b0393841681529290911660208301526040820152606001604051809103905ff08015801561011d573d5f5f3e3d5ffd5b506001600160a01b031681525b8360405161013790610184565b6001600160a01b039091168152602001604051809103905ff080158015610160573d5f5f3e3d5ffd5b506001600160a01b03166020820152949350505050565b6106d28061028f83390190565b610eaf8061096183390190565b80516001600160a01b03811681146101a7575f5ffd5b919050565b5f5f5f5f608085870312156101bf575f5ffd5b845180151581146101ce575f5ffd5b93506101dc60208601610191565b92506101ea60408601610191565b6060959095015193969295505050565b6089806102065f395ff3fe6080604052348015600e575f5ffd5b50600436106026575f3560e01c8063edffa84714602a575b5f5ffd5b6040805180820182525f80825260209182018190528251808401845290546001600160a01b03908116808352600154821692840192835284519081529151169181019190915281519081900390910190f3fea164736f6c634300081b000a60a060405234801561000f575f5ffd5b506040516106d23803806106d283398101604081905261002e91610073565b6001600160a01b039283166080525f80546001600160a01b03191692909316919091179091556001556100b3565b6001600160a01b0381168114610070575f5ffd5b50565b5f5f5f60608486031215610085575f5ffd5b83516100908161005c565b60208501519093506100a18161005c565b80925050604084015190509250925092565b6080516105fa6100d85f395f8181608301528181610134015261029001526105fa5ff3fe608060405234801561000f575f5ffd5b506004361061007a575f3560e01c80637a5d20ea116100585780637a5d20ea146100d2578063dbd18388146100ea578063f0aef31c146100fb578063f2f6596014610110575f5ffd5b80630542975c1461007e57806312168dc2146100c257806349aa2e81146100d2575b5f5ffd5b6100a57f000000000000000000000000000000000000000000000000000000000000000081565b6040516001600160a01b0390911681526020015b60405180910390f35b5f546001600160a01b03166100a5565b6100da610123565b60405190151581526020016100b9565b6001546040519081526020016100b9565b61010e6101093660046104e9565b610131565b005b61010e61011e36600461050b565b61028d565b5f61012c610435565b905090565b5f7f00000000000000000000000000000000000000000000000000000000000000006001600160a01b031663707cd7166040518163ffffffff1660e01b8152600401602060405180830381865afa15801561018e573d5f5f3e3d5ffd5b505050506040513d601f19601f820116820180604052508101906101b29190610522565b604051637be53ca160e01b81523360048201529091506001600160a01b03821690637be53ca190602401602060405180830381865afa1580156101f7573d5f5f3e3d5ffd5b505050506040513d601f19601f8201168201806040525081019061021b919061053d565b6102385760405163cdd36a9760e01b815260040160405180910390fd5b5f80546001600160a01b0319166001600160a01b0384169081179091556040519081527f95cbf1d8f44ec81ff345ed9cf2fe53b6a6473e072bf046ee412f198c54dba449906020015b60405180910390a15050565b5f7f00000000000000000000000000000000000000000000000000000000000000006001600160a01b031663707cd7166040518163ffffffff1660e01b8152600401602060405180830381865afa1580156102ea573d5f5f3e3d5ffd5b505050506040513d601f19601f8201168201806040525081019061030e9190610522565b60405163674b5e4d60e01b81523360048201529091506001600160a01b0382169063674b5e4d90602401602060405180830381865afa158015610353573d5f5f3e3d5ffd5b505050506040513d601f19601f82011682018060405250810190610377919061053d565b806103e35750604051637be53ca160e01b81523360048201526001600160a01b03821690637be53ca190602401602060405180830381865afa1580156103bf573d5f5f3e3d5ffd5b505050506040513d601f19601f820116820180604052508101906103e3919061053d565b610400576040516366e574d760e01b815260040160405180910390fd5b60018290556040518281527f33d1191f5a3abfe19d468d51bb5ece97489f1277a912a5b5c65992fc279ad3d490602001610281565b5f5f5f5f5f9054906101000a90046001600160a01b03166001600160a01b031663feaf968c6040518163ffffffff1660e01b815260040160a060405180830381865afa158015610487573d5f5f3e3d5ffd5b505050506040513d601f19601f820116820180604052508101906104ab919061057a565b50509250925050815f1480156104cb57506001546104c982426105c8565b115b9250505090565b6001600160a01b03811681146104e6575f5ffd5b50565b5f602082840312156104f9575f5ffd5b8135610504816104d2565b9392505050565b5f6020828403121561051b575f5ffd5b5035919050565b5f60208284031215610532575f5ffd5b8151610504816104d2565b5f6020828403121561054d575f5ffd5b81518015158114610504575f5ffd5b805169ffffffffffffffffffff81168114610575575f5ffd5b919050565b5f5f5f5f5f60a0868803121561058e575f5ffd5b6105978661055c565b602087015160408801516060890151929750909550935091506105bc6080870161055c565b90509295509295909350565b818103818111156105e757634e487b7160e01b5f52601160045260245ffd5b9291505056fea164736f6c634300081b000a60a060405234801561000f575f5ffd5b50604051610eaf380380610eaf83398101604081905261002e91610066565b6001600160a01b03811661005557604051633b175b8760e01b815260040160405180910390fd5b6001600160a01b0316608052610093565b5f60208284031215610076575f5ffd5b81516001600160a01b038116811461008c575f5ffd5b9392505050565b608051610df76100b85f395f818160ee0152818161047201526107d40152610df75ff3fe608060405234801561000f575f5ffd5b50600436106100e5575f3560e01c8063a8d9e56f11610088578063c79ce42e11610063578063c79ce42e1461021d578063cca22ea1146102fa578063f7e0fe671461030d578063fd81bb1214610315575f5ffd5b8063a8d9e56f146101cd578063aa33f063146101e2578063b90db31b146101f5575f5ffd5b80636a00178e116100c35780636a00178e146101945780637a0c5ebf146101a75780637a24bd7e146101b15780638f4b0d5d146101ba575f5ffd5b80630542975c146100e9578063131e889c1461012d5780635b651bae14610173575b5f5ffd5b6101107f000000000000000000000000000000000000000000000000000000000000000081565b6040516001600160a01b0390911681526020015b60405180910390f35b61014061013b366004610bbf565b610328565b60405161012491908151815260208083015190820152604080830151908201526060918201519181019190915260800190565b610186610181366004610bbf565b6103ba565b604051908152602001610124565b6101866101a2366004610bbf565b6103e8565b610186620186a081565b6101866126ac81565b6101866101c8366004610bbf565b610442565b6101e06101db366004610be1565b610470565b005b6101866101f0366004610bbf565b61053b565b610208610203366004610c61565b610560565b60408051928352602083019190915201610124565b6102ad61022b366004610bbf565b604080516080810182525f808252602082018190529181018290526060810191909152506001600160a01b03165f90815260208181526040918290208251608081018452905461ffff8116825263ffffffff620100008204811693830193909352600160301b8104831693820193909352600160501b90920416606082015290565b60405161012491905f60808201905061ffff835116825263ffffffff602084015116602083015263ffffffff604084015116604083015263ffffffff606084015116606083015292915050565b610186610308366004610bbf565b6107a5565b610186606481565b6101e0610323366004610c7b565b6107d2565b61034f60405180608001604052805f81526020015f81526020015f81526020015f81525090565b6001600160a01b0382165f90815260208181526040918290208251608081018452905461ffff8116825263ffffffff620100008204811693830193909352600160301b8104831693820193909352600160501b9092041660608201526103b49061089a565b92915050565b6001600160a01b0381165f908152602081905260408120546103b490600160301b900463ffffffff1661092c565b6001600160a01b0381165f908152602081905260408120546103b49063ffffffff600160501b820481169161042d91600160301b820481169162010000900416610ccd565b6104379190610ccd565b63ffffffff1661092c565b6001600160a01b0381165f908152602081905260408120546103b490600160501b900463ffffffff1661092c565b7f00000000000000000000000000000000000000000000000000000000000000006001600160a01b031663631adfca6040518163ffffffff1660e01b8152600401602060405180830381865afa1580156104cc573d5f5f3e3d5ffd5b505050506040513d601f19601f820116820180604052508101906104f09190610ce9565b6001600160a01b0316336001600160a01b031614610521576040516344ff885f60e01b815260040160405180910390fd5b6105368361053183850185610d1c565b610941565b505050565b6001600160a01b0381165f908152602081905260408120546103b49061ffff1661092c565b5f80806105dd818061057860c0880160a08901610bbf565b6001600160a01b0316815260208082019290925260409081015f208151608081018352905461ffff8116825263ffffffff620100008204811694830194909452600160301b8104841692820192909252600160501b909104909116606082015261089a565b90506106126040518060c001604052805f81526020015f81526020015f81526020015f81526020015f81526020015f81525090565b5f6040820152602080830151908201526060850135156106a4576040850135610643602087013560e0880135610dad565b61064d9190610dc0565b80825261065f90606087013590610dad565b60a0820181905261067590606087013590610b05565b606082015260a081015161069a9061068f90873590610dad565b606087013590610b05565b60808201526106b3565b602001515f9590945092505050565b8151606082015111156107315781515f906106f5906106de906b033b2e3c9fd0803ce8000000610dc0565b845160608501516106ef9190610dc0565b90610b05565b60608401519091506107079082610b42565b83604001516107169190610dad565b826020018181516107279190610dad565b9052506107619050565b81516060820151604084015161074c92916106ef9190610b42565b8160200181815161075d9190610dad565b9052505b61078d6107746080870135612710610dc0565b6080830151602084015161078791610b42565b90610b84565b60408201819052602090910151909590945092505050565b6001600160a01b0381165f908152602081905260408120546103b49062010000900463ffffffff1661092c565b7f00000000000000000000000000000000000000000000000000000000000000006001600160a01b031663631adfca6040518163ffffffff1660e01b8152600401602060405180830381865afa15801561082e573d5f5f3e3d5ffd5b505050506040513d601f19601f820116820180604052508101906108529190610ce9565b6001600160a01b0316336001600160a01b031614610883576040516344ff885f60e01b815260040160405180910390fd5b6108968261053136849003840184610d1c565b5050565b6108c160405180608001604052805f81526020015f81526020015f81526020015f81525090565b60405180608001604052806108dc845f015161ffff1661092c565b81526020016108f4846020015163ffffffff1661092c565b815260200161090c846040015163ffffffff1661092c565b8152602001610924846060015163ffffffff1661092c565b905292915050565b5f6103b48269152d02c7e14af6800000610dd3565b6001600160a01b03821661096857604051633bf95ba760e01b815260040160405180910390fd5b6126ac815f015161ffff161115801561098957506064815f015161ffff1610155b6109a6576040516335a8aee760e01b815260040160405180910390fd5b806060015163ffffffff16816040015163ffffffff1611156109db57604051631a6782a560e31b815260040160405180910390fd5b620186a0816060015163ffffffff16826040015163ffffffff16836020015163ffffffff16610a0a9190610dad565b610a149190610dad565b1115610a33576040516303b9a7db60e61b815260040160405180910390fd5b6001600160a01b0382165f81815260208181526040918290208451815486840151878601516060808a015161ffff90951665ffffffffffff1990941684176201000063ffffffff948516908102919091176dffffffffffffffff0000000000001916600160301b93851693840263ffffffff60501b191617600160501b9490961693840295909517909555865192835294820192909252938401929092528201527f5d123bea2036a4052274206f59d99350b9741e17da56ffae335d809b25ee09429060800160405180910390a25050565b5f81156b033b2e3c9fd0803ce800000060028404190484111715610b27575f5ffd5b506b033b2e3c9fd0803ce80000009190910260028204010490565b5f81156b019d971e4fe8401e740000001983900484111517610b62575f5ffd5b506b033b2e3c9fd0803ce800000091026b019d971e4fe8401e74000000010490565b5f81156113881983900484111517610b9a575f5ffd5b506127109102611388010490565b6001600160a01b0381168114610bbc575f5ffd5b50565b5f60208284031215610bcf575f5ffd5b8135610bda81610ba8565b9392505050565b5f5f5f60408486031215610bf3575f5ffd5b8335610bfe81610ba8565b9250602084013567ffffffffffffffff811115610c19575f5ffd5b8401601f81018613610c29575f5ffd5b803567ffffffffffffffff811115610c3f575f5ffd5b866020828401011115610c50575f5ffd5b939660209190910195509293505050565b5f610100828403128015610c73575f5ffd5b509092915050565b5f5f82840360a0811215610c8d575f5ffd5b8335610c9881610ba8565b92506080601f1982011215610cab575f5ffd5b506020830190509250929050565b634e487b7160e01b5f52601160045260245ffd5b63ffffffff81811683821601908111156103b4576103b4610cb9565b5f60208284031215610cf9575f5ffd5b8151610bda81610ba8565b803563ffffffff81168114610d17575f5ffd5b919050565b5f6080828403128015610d2d575f5ffd5b506040516080810167ffffffffffffffff81118282101715610d5d57634e487b7160e01b5f52604160045260245ffd5b604052823561ffff81168114610d71575f5ffd5b8152610d7f60208401610d04565b6020820152610d9060408401610d04565b6040820152610da160608401610d04565b60608201529392505050565b808201808211156103b4576103b4610cb9565b818103818111156103b4576103b4610cb9565b80820281158282048414176103b4576103b4610cb956fea164736f6c634300081b000a","linkReferences":{}},"methodIdentifiers":{"getMiscReport()":"edffa847"},"id":303}