{"abi":[{"type":"constructor","inputs":[],"stateMutability":"nonpayable"},{"type":"receive","stateMutability":"payable"},{"type":"function","name":"DEFAULT_ADMIN_ROLE","inputs":[],"outputs":[{"name":"","type":"bytes32","internalType":"bytes32"}],"stateMutability":"view"},{"type":"function","name":"ETH_MOCK_ADDRESS","inputs":[],"outputs":[{"name":"","type":"address","internalType":"address"}],"stateMutability":"view"},{"type":"function","name":"FUNDS_ADMIN_ROLE","inputs":[],"outputs":[{"name":"","type":"bytes32","internalType":"bytes32"}],"stateMutability":"view"},{"type":"function","name":"approve","inputs":[{"name":"token","type":"address","internalType":"contract IERC20"},{"name":"recipient","type":"address","internalType":"address"},{"name":"amount","type":"uint256","internalType":"uint256"}],"outputs":[],"stateMutability":"nonpayable"},{"type":"function","name":"balanceOf","inputs":[{"name":"streamId","type":"uint256","internalType":"uint256"},{"name":"who","type":"address","internalType":"address"}],"outputs":[{"name":"balance","type":"uint256","internalType":"uint256"}],"stateMutability":"view"},{"type":"function","name":"cancelStream","inputs":[{"name":"streamId","type":"uint256","internalType":"uint256"}],"outputs":[{"name":"","type":"bool","internalType":"bool"}],"stateMutability":"nonpayable"},{"type":"function","name":"createStream","inputs":[{"name":"recipient","type":"address","internalType":"address"},{"name":"deposit","type":"uint256","internalType":"uint256"},{"name":"tokenAddress","type":"address","internalType":"address"},{"name":"startTime","type":"uint256","internalType":"uint256"},{"name":"stopTime","type":"uint256","internalType":"uint256"}],"outputs":[{"name":"","type":"uint256","internalType":"uint256"}],"stateMutability":"nonpayable"},{"type":"function","name":"deltaOf","inputs":[{"name":"streamId","type":"uint256","internalType":"uint256"}],"outputs":[{"name":"delta","type":"uint256","internalType":"uint256"}],"stateMutability":"view"},{"type":"function","name":"getNextStreamId","inputs":[],"outputs":[{"name":"","type":"uint256","internalType":"uint256"}],"stateMutability":"view"},{"type":"function","name":"getRoleAdmin","inputs":[{"name":"role","type":"bytes32","internalType":"bytes32"}],"outputs":[{"name":"","type":"bytes32","internalType":"bytes32"}],"stateMutability":"view"},{"type":"function","name":"getStream","inputs":[{"name":"streamId","type":"uint256","internalType":"uint256"}],"outputs":[{"name":"sender","type":"address","internalType":"address"},{"name":"recipient","type":"address","internalType":"address"},{"name":"deposit","type":"uint256","internalType":"uint256"},{"name":"tokenAddress","type":"address","internalType":"address"},{"name":"startTime","type":"uint256","internalType":"uint256"},{"name":"stopTime","type":"uint256","internalType":"uint256"},{"name":"remainingBalance","type":"uint256","internalType":"uint256"},{"name":"ratePerSecond","type":"uint256","internalType":"uint256"}],"stateMutability":"view"},{"type":"function","name":"grantRole","inputs":[{"name":"role","type":"bytes32","internalType":"bytes32"},{"name":"account","type":"address","internalType":"address"}],"outputs":[],"stateMutability":"nonpayable"},{"type":"function","name":"hasRole","inputs":[{"name":"role","type":"bytes32","internalType":"bytes32"},{"name":"account","type":"address","internalType":"address"}],"outputs":[{"name":"","type":"bool","internalType":"bool"}],"stateMutability":"view"},{"type":"function","name":"initialize","inputs":[{"name":"nextStreamId","type":"uint256","internalType":"uint256"},{"name":"admin","type":"address","internalType":"address"}],"outputs":[],"stateMutability":"nonpayable"},{"type":"function","name":"isFundsAdmin","inputs":[{"name":"admin","type":"address","internalType":"address"}],"outputs":[{"name":"","type":"bool","internalType":"bool"}],"stateMutability":"view"},{"type":"function","name":"renounceRole","inputs":[{"name":"role","type":"bytes32","internalType":"bytes32"},{"name":"callerConfirmation","type":"address","internalType":"address"}],"outputs":[],"stateMutability":"nonpayable"},{"type":"function","name":"revokeRole","inputs":[{"name":"role","type":"bytes32","internalType":"bytes32"},{"name":"account","type":"address","internalType":"address"}],"outputs":[],"stateMutability":"nonpayable"},{"type":"function","name":"supportsInterface","inputs":[{"name":"interfaceId","type":"bytes4","internalType":"bytes4"}],"outputs":[{"name":"","type":"bool","internalType":"bool"}],"stateMutability":"view"},{"type":"function","name":"transfer","inputs":[{"name":"token","type":"address","internalType":"contract IERC20"},{"name":"recipient","type":"address","internalType":"address"},{"name":"amount","type":"uint256","internalType":"uint256"}],"outputs":[],"stateMutability":"nonpayable"},{"type":"function","name":"withdrawFromStream","inputs":[{"name":"streamId","type":"uint256","internalType":"uint256"},{"name":"amount","type":"uint256","internalType":"uint256"}],"outputs":[{"name":"","type":"bool","internalType":"bool"}],"stateMutability":"nonpayable"},{"type":"event","name":"CancelStream","inputs":[{"name":"streamId","type":"uint256","indexed":true,"internalType":"uint256"},{"name":"sender","type":"address","indexed":true,"internalType":"address"},{"name":"recipient","type":"address","indexed":true,"internalType":"address"},{"name":"senderBalance","type":"uint256","indexed":false,"internalType":"uint256"},{"name":"recipientBalance","type":"uint256","indexed":false,"internalType":"uint256"}],"anonymous":false},{"type":"event","name":"CreateStream","inputs":[{"name":"streamId","type":"uint256","indexed":true,"internalType":"uint256"},{"name":"sender","type":"address","indexed":true,"internalType":"address"},{"name":"recipient","type":"address","indexed":true,"internalType":"address"},{"name":"deposit","type":"uint256","indexed":false,"internalType":"uint256"},{"name":"tokenAddress","type":"address","indexed":false,"internalType":"address"},{"name":"startTime","type":"uint256","indexed":false,"internalType":"uint256"},{"name":"stopTime","type":"uint256","indexed":false,"internalType":"uint256"}],"anonymous":false},{"type":"event","name":"Initialized","inputs":[{"name":"version","type":"uint64","indexed":false,"internalType":"uint64"}],"anonymous":false},{"type":"event","name":"RoleAdminChanged","inputs":[{"name":"role","type":"bytes32","indexed":true,"internalType":"bytes32"},{"name":"previousAdminRole","type":"bytes32","indexed":true,"internalType":"bytes32"},{"name":"newAdminRole","type":"bytes32","indexed":true,"internalType":"bytes32"}],"anonymous":false},{"type":"event","name":"RoleGranted","inputs":[{"name":"role","type":"bytes32","indexed":true,"internalType":"bytes32"},{"name":"account","type":"address","indexed":true,"internalType":"address"},{"name":"sender","type":"address","indexed":true,"internalType":"address"}],"anonymous":false},{"type":"event","name":"RoleRevoked","inputs":[{"name":"role","type":"bytes32","indexed":true,"internalType":"bytes32"},{"name":"account","type":"address","indexed":true,"internalType":"address"},{"name":"sender","type":"address","indexed":true,"internalType":"address"}],"anonymous":false},{"type":"event","name":"WithdrawFromStream","inputs":[{"name":"streamId","type":"uint256","indexed":true,"internalType":"uint256"},{"name":"recipient","type":"address","indexed":true,"internalType":"address"},{"name":"amount","type":"uint256","indexed":false,"internalType":"uint256"}],"anonymous":false},{"type":"error","name":"AccessControlBadConfirmation","inputs":[]},{"type":"error","name":"AccessControlUnauthorizedAccount","inputs":[{"name":"account","type":"address","internalType":"address"},{"name":"neededRole","type":"bytes32","internalType":"bytes32"}]},{"type":"error","name":"BalanceExceeded","inputs":[]},{"type":"error","name":"DepositNotMultipleTimeDelta","inputs":[]},{"type":"error","name":"DepositSmallerTimeDelta","inputs":[]},{"type":"error","name":"FailedCall","inputs":[]},{"type":"error","name":"InsufficientBalance","inputs":[{"name":"balance","type":"uint256","internalType":"uint256"},{"name":"needed","type":"uint256","internalType":"uint256"}]},{"type":"error","name":"InvalidInitialization","inputs":[]},{"type":"error","name":"InvalidRecipient","inputs":[]},{"type":"error","name":"InvalidStartTime","inputs":[]},{"type":"error","name":"InvalidStopTime","inputs":[]},{"type":"error","name":"InvalidZeroAddress","inputs":[]},{"type":"error","name":"InvalidZeroAmount","inputs":[]},{"type":"error","name":"NotInitializing","inputs":[]},{"type":"error","name":"OnlyFundsAdmin","inputs":[]},{"type":"error","name":"OnlyFundsAdminOrRecipient","inputs":[]},{"type":"error","name":"ReentrancyGuardReentrantCall","inputs":[]},{"type":"error","name":"SafeERC20FailedOperation","inputs":[{"name":"token","type":"address","internalType":"address"}]},{"type":"error","name":"StreamDoesNotExist","inputs":[]}],"bytecode":{"object":"0x6080604052348015600e575f5ffd5b5060156019565b60c9565b7ff0c57e16840df040f15088dc2f81fe391c3923bec73e23a9662efc9c229c6a00805468010000000000000000900460ff161560685760405163f92ee8a960e01b815260040160405180910390fd5b80546001600160401b039081161460c65780546001600160401b0319166001600160401b0390811782556040519081527fc7f505b2f371ae2175ee4913f4499e1f2633a7b5936321eed1cdaeb6115181d29060200160405180910390a15b50565b611960806100d65f395ff3fe60806040526004361061011e575f3560e01c806391d148541161009d578063cc1b4bf611610062578063cc1b4bf614610371578063d547741f14610390578063da35a26f146103af578063e1f21c67146103ce578063f501148c146103ed575f5ffd5b806391d14854146102e057806397713592146102ff578063a217fddf14610320578063a82ccd4d14610333578063beabacc814610352575f5ffd5b80633656eec2116100e35780633656eec2146101da57806351ee886b146101f95780636db9241b146102385780637a9b2c6c14610257578063894e9a0d14610276575f5ffd5b806301ffc9a7146101295780630932f92b1461015d578063248a9ca31461017b5780632f2ff15d1461019a57806336568abe146101bb575f5ffd5b3661012557005b5f5ffd5b348015610134575f5ffd5b50610148610143366004611735565b61040c565b60405190151581526020015b60405180910390f35b348015610168575f5ffd5b506035545b604051908152602001610154565b348015610186575f5ffd5b5061016d610195366004611763565b610442565b3480156101a5575f5ffd5b506101b96101b436600461178e565b610462565b005b3480156101c6575f5ffd5b506101b96101d536600461178e565b610484565b3480156101e5575f5ffd5b5061016d6101f436600461178e565b6104bc565b348015610204575f5ffd5b5061022073eeeeeeeeeeeeeeeeeeeeeeeeeeeeeeeeeeeeeeee81565b6040516001600160a01b039091168152602001610154565b348015610243575f5ffd5b50610148610252366004611763565b61065f565b348015610262575f5ffd5b506101486102713660046117bc565b6108a4565b348015610281575f5ffd5b50610295610290366004611763565b610b24565b604080516001600160a01b03998a1681529789166020890152870195909552959092166060850152608084015260a083015260c082019290925260e081019190915261010001610154565b3480156102eb575f5ffd5b506101486102fa36600461178e565b610bc7565b34801561030a575f5ffd5b5061016d6a232aa72229afa0a226a4a760a91b81565b34801561032b575f5ffd5b5061016d5f81565b34801561033e575f5ffd5b5061016d61034d366004611763565b610bfd565b34801561035d575f5ffd5b506101b961036c3660046117dc565b610d16565b34801561037c575f5ffd5b5061016d61038b36600461181a565b610db2565b34801561039b575f5ffd5b506101b96103aa36600461178e565b611104565b3480156103ba575f5ffd5b506101b96103c936600461178e565b611120565b3480156103d9575f5ffd5b506101b96103e83660046117dc565b611266565b3480156103f8575f5ffd5b50610148610407366004611868565b6112a3565b5f6001600160e01b03198216637965db0b60e01b148061043c57506301ffc9a760e01b6001600160e01b03198316145b92915050565b5f9081525f5160206119145f395f51905f52602052604090206001015490565b61046b82610442565b610474816112bc565b61047e83836112c9565b50505050565b6001600160a01b03811633146104ad5760405163334bd91960e11b815260040160405180910390fd5b6104b7828261136a565b505050565b5f828152603660205260408120600701548390600160a01b900460ff166104f65760405163314c062560e21b815260040160405180910390fd5b5f8481526036602090815260408083208151610120810183528154815260018201548185015260028201548184015260038201546060808301919091526004830154608083015260058301546001600160a01b0390811660a08401526006840154811660c084015260079093015492831660e0830152600160a01b90920460ff1615156101008201528251918201835284825292810184905290810192909252905f6105a187610bfd565b90508260200151816105b39190611897565b82526040830151835111156105e957604083015183516105d391906118ae565b6020830181905282516105e691906118ae565b82525b8260a001516001600160a01b0316866001600160a01b03160361061157505192506106589050565b8260c001516001600160a01b0316866001600160a01b031603610651578151604084015161063f91906118ae565b60409092018290525092506106589050565b5f94505050505b5092915050565b5f6106686113e3565b5f828152603660205260409020600701548290600160a01b900460ff166106a25760405163314c062560e21b815260040160405180910390fd5b826106ab61141a565b1580156106d157505f818152603660205260409020600501546001600160a01b03163314155b156106ef576040516358c6353d60e11b815260040160405180910390fd5b5f84815260366020908152604080832081516101208101835281548152600182015493810193909352600281015491830191909152600381015460608301526004810154608083015260058101546001600160a01b0390811660a08401526006820154811660c0840181905260079092015490811660e0840152600160a01b900460ff1615156101008301529091906107899087906104bc565b90505f61079a878460a001516104bc565b5f88815260366020526040812081815560018101829055600281018290556003810182905560048101919091556005810180546001600160a01b0319908116909155600682018054909116905560070180546001600160a81b031916905560e084015190915081156108205760a0840151610820906001600160a01b0383169084611438565b8360a001516001600160a01b03168460c001516001600160a01b0316897fca3e6079b726e7728802a0537949e2d1c7762304fa641fb06eb56daf2ba8c6b98686604051610877929190918252602082015260400190565b60405180910390a46001965050505050505061089f60015f5160206119345f395f51905f5255565b919050565b5f6108ad6113e3565b5f838152603660205260409020600701548390600160a01b900460ff166108e75760405163314c062560e21b815260040160405180910390fd5b836108f061141a565b15801561091657505f818152603660205260409020600501546001600160a01b03163314155b15610934576040516358c6353d60e11b815260040160405180910390fd5b835f0361095457604051630dd484e760e41b815260040160405180910390fd5b5f85815260366020908152604080832081516101208101835281548152600182015493810193909352600281015491830191909152600381015460608301526004810154608083015260058101546001600160a01b0390811660a084018190526006830154821660c085015260079092015490811660e0840152600160a01b900460ff1615156101008301529091906109ee9088906104bc565b905085811015610a1157604051634d9d73a360e01b815260040160405180910390fd5b858260400151610a2191906118ae565b5f88815260366020526040812060020182905503610a98575f87815260366020526040812081815560018101829055600281018290556003810182905560048101919091556005810180546001600160a01b0319908116909155600682018054909116905560070180546001600160a81b03191690555b610abe8260a00151878460e001516001600160a01b03166114389092919063ffffffff16565b8160a001516001600160a01b0316877f36c3ab437e6a424ed25dc4bfdeb62706aa06558660fab2dab229d2555adaf89c88604051610afe91815260200190565b60405180910390a3600194505050505061043c60015f5160206119345f395f51905f5255565b5f5f5f5f5f5f5f5f8860365f8281526020019081526020015f2060070160149054906101000a900460ff16610b6c5760405163314c062560e21b815260040160405180910390fd5b5050505f968752505060366020525050604090922060068101546005820154825460078401546003850154600486015460028701546001909701546001600160a01b039687169a958716995093975091909416949092909190565b5f9182525f5160206119145f395f51905f52602090815260408084206001600160a01b0393909316845291905290205460ff1690565b5f818152603660205260408120600701548290600160a01b900460ff16610c375760405163314c062560e21b815260040160405180910390fd5b5f83815260366020908152604091829020825161012081018452815481526001820154928101929092526002810154928201929092526003820154606082018190526004830154608083015260058301546001600160a01b0390811660a08401526006840154811660c084015260079093015492831660e0830152600160a01b90920460ff161515610100820152904211610cd5575f925050610d10565b8060800151421015610cf8576060810151610cf090426118ae565b925050610d10565b80606001518160800151610d0c91906118ae565b9250505b50919050565b610d1e61141a565b15155f03610d3f5760405163277cf38160e01b815260040160405180910390fd5b6001600160a01b038216610d665760405163f6b2911f60e01b815260040160405180910390fd5b73eeeeeeeeeeeeeeeeeeeeeeeeeeeeeeeeeeeeeeed196001600160a01b03841601610d9e576104b76001600160a01b038316826114aa565b6104b76001600160a01b0384168383611438565b5f610dbb61141a565b15155f03610ddc5760405163277cf38160e01b815260040160405180910390fd5b6001600160a01b038616610e035760405163f6b2911f60e01b815260040160405180910390fd5b306001600160a01b03871603610e2c57604051634e46966960e11b815260040160405180910390fd5b336001600160a01b03871603610e5557604051634e46966960e11b815260040160405180910390fd5b845f03610e7557604051630dd484e760e41b815260040160405180910390fd5b42831015610e9657604051632ca4094f60e21b815260040160405180910390fd5b828211610eb657604051635f5ab34960e01b815260040160405180910390fd5b604080518082019091525f8082526020820152610ed384846118ae565b808252861015610ef65760405163c4e1993b60e01b815260040160405180910390fd5b80515f90610f0490886118d5565b1115610f2357604051636b3cc5b760e11b815260040160405180910390fd5b8051610f2f90876118e8565b8160200181815250505f603554905060405180610120016040528088815260200183602001518152602001888152602001868152602001858152602001896001600160a01b03168152602001306001600160a01b03168152602001876001600160a01b031681526020016001151581525060365f8381526020019081526020015f205f820151815f01556020820151816001015560408201518160020155606082015181600301556080820151816004015560a0820151816005015f6101000a8154816001600160a01b0302191690836001600160a01b0316021790555060c0820151816006015f6101000a8154816001600160a01b0302191690836001600160a01b0316021790555060e0820151816007015f6101000a8154816001600160a01b0302191690836001600160a01b031602179055506101008201518160070160146101000a81548160ff02191690831515021790555090505060355f81548092919061109b906118fb565b9091555050604080518881526001600160a01b0388811660208301529181018790526060810186905290891690309083907f7b01d409597969366dc268d7f957a990d1ca3d3449baf8fb45db67351aecfe789060800160405180910390a4979650505050505050565b61110d82610442565b611116816112bc565b61047e838361136a565b7ff0c57e16840df040f15088dc2f81fe391c3923bec73e23a9662efc9c229c6a008054600160401b810460ff16159067ffffffffffffffff165f811580156111655750825b90505f8267ffffffffffffffff1660011480156111815750303b155b90508115801561118f575080155b156111ad5760405163f92ee8a960e01b815260040160405180910390fd5b845467ffffffffffffffff1916600117855583156111d757845460ff60401b1916600160401b1785555b6111df611549565b6111e7611553565b6111f15f876112c9565b5061120a6a232aa72229afa0a226a4a760a91b876112c9565b5086156112175760358790555b831561125d57845460ff60401b19168555604051600181527fc7f505b2f371ae2175ee4913f4499e1f2633a7b5936321eed1cdaeb6115181d29060200160405180910390a15b50505050505050565b61126e61141a565b15155f0361128f5760405163277cf38160e01b815260040160405180910390fd5b6104b76001600160a01b0384168383611563565b5f61043c6a232aa72229afa0a226a4a760a91b83610bc7565b6112c681336115f2565b50565b5f5f5160206119145f395f51905f526112e28484610bc7565b611361575f848152602082815260408083206001600160a01b03871684529091529020805460ff191660011790556113173390565b6001600160a01b0316836001600160a01b0316857f2f8788117e7eff1d82e926ec794901d17c78024a50270940304540a733656f0d60405160405180910390a4600191505061043c565b5f91505061043c565b5f5f5160206119145f395f51905f526113838484610bc7565b15611361575f848152602082815260408083206001600160a01b0387168085529252808320805460ff1916905551339287917ff6391f5c32d9c69d2a47ea670b442974b53935d1edc7fd64eb21e047a839171b9190a4600191505061043c565b5f5160206119345f395f51905f5280546001190161141457604051633ee5aeb560e01b815260040160405180910390fd5b60029055565b5f6114336a232aa72229afa0a226a4a760a91b33610bc7565b905090565b6040516001600160a01b038381166024830152604482018390526104b791859182169063a9059cbb906064015b604051602081830303815290604052915060e01b6020820180516001600160e01b03838183161783525050505061162f565b60015f5160206119345f395f51905f5255565b804710156114d95760405163cf47918160e01b8152476004820152602481018290526044015b60405180910390fd5b5f826001600160a01b0316826040515f6040518083038185875af1925050503d805f8114611522576040519150601f19603f3d011682016040523d82523d5f602084013e611527565b606091505b50509050806104b75760405163d6bda27560e01b815260040160405180910390fd5b61155161169b565b565b61155b61169b565b6115516116e4565b604080516001600160a01b038416602482015260448082018490528251808303909101815260649091019091526020810180516001600160e01b031663095ea7b360e01b1790526115b484826116ec565b61047e576040516001600160a01b0384811660248301525f60448301526115e891869182169063095ea7b390606401611465565b61047e848261162f565b6115fc8282610bc7565b61162b5760405163e2517d3f60e01b81526001600160a01b0382166004820152602481018390526044016114d0565b5050565b5f5f60205f8451602086015f885af18061164e576040513d5f823e3d81fd5b50505f513d91508115611665578060011415611672565b6001600160a01b0384163b155b1561047e57604051635274afe760e01b81526001600160a01b03851660048201526024016114d0565b7ff0c57e16840df040f15088dc2f81fe391c3923bec73e23a9662efc9c229c6a0054600160401b900460ff1661155157604051631afcd79f60e31b815260040160405180910390fd5b61149761169b565b5f5f5f5f60205f8651602088015f8a5af192503d91505f51905082801561172b5750811561171d578060011461172b565b5f866001600160a01b03163b115b9695505050505050565b5f60208284031215611745575f5ffd5b81356001600160e01b03198116811461175c575f5ffd5b9392505050565b5f60208284031215611773575f5ffd5b5035919050565b6001600160a01b03811681146112c6575f5ffd5b5f5f6040838503121561179f575f5ffd5b8235915060208301356117b18161177a565b809150509250929050565b5f5f604083850312156117cd575f5ffd5b50508035926020909101359150565b5f5f5f606084860312156117ee575f5ffd5b83356117f98161177a565b925060208401356118098161177a565b929592945050506040919091013590565b5f5f5f5f5f60a0868803121561182e575f5ffd5b85356118398161177a565b94506020860135935060408601356118508161177a565b94979396509394606081013594506080013592915050565b5f60208284031215611878575f5ffd5b813561175c8161177a565b634e487b7160e01b5f52601160045260245ffd5b808202811582820484141761043c5761043c611883565b8181038181111561043c5761043c611883565b634e487b7160e01b5f52601260045260245ffd5b5f826118e3576118e36118c1565b500690565b5f826118f6576118f66118c1565b500490565b5f6001820161190c5761190c611883565b506001019056fe02dd7bc7dec4dceedda775e58dd541e08a116c6c53815c0bd028192f7b6268009b779b17422d0df92223018b32b4d1fa46e071723d6817e2486d003becc55f00a164736f6c634300081b000a","linkReferences":{}},"methodIdentifiers":{"DEFAULT_ADMIN_ROLE()":"a217fddf","ETH_MOCK_ADDRESS()":"51ee886b","FUNDS_ADMIN_ROLE()":"97713592","approve(address,address,uint256)":"e1f21c67","balanceOf(uint256,address)":"3656eec2","cancelStream(uint256)":"6db9241b","createStream(address,uint256,address,uint256,uint256)":"cc1b4bf6","deltaOf(uint256)":"a82ccd4d","getNextStreamId()":"0932f92b","getRoleAdmin(bytes32)":"248a9ca3","getStream(uint256)":"894e9a0d","grantRole(bytes32,address)":"2f2ff15d","hasRole(bytes32,address)":"91d14854","initialize(uint256,address)":"da35a26f","isFundsAdmin(address)":"f501148c","renounceRole(bytes32,address)":"36568abe","revokeRole(bytes32,address)":"d547741f","supportsInterface(bytes4)":"01ffc9a7","transfer(address,address,uint256)":"beabacc8","withdrawFromStream(uint256,uint256)":"7a9b2c6c"},"id":276}