{"abi":[{"type":"constructor","inputs":[{"name":"initialAnswer","type":"int256","internalType":"int256"}],"stateMutability":"nonpayable"},{"type":"function","name":"_latestAnswer","inputs":[],"outputs":[{"name":"","type":"int256","internalType":"int256"}],"stateMutability":"view"},{"type":"function","name":"decimals","inputs":[],"outputs":[{"name":"","type":"uint8","internalType":"uint8"}],"stateMutability":"pure"},{"type":"function","name":"getTokenType","inputs":[],"outputs":[{"name":"","type":"uint256","internalType":"uint256"}],"stateMutability":"pure"},{"type":"function","name":"latestAnswer","inputs":[],"outputs":[{"name":"","type":"int256","internalType":"int256"}],"stateMutability":"view"},{"type":"function","name":"setLatestAnswer","inputs":[{"name":"answer","type":"int256","internalType":"int256"}],"outputs":[],"stateMutability":"nonpayable"},{"type":"event","name":"AnswerUpdated","inputs":[{"name":"current","type":"int256","indexed":true,"internalType":"int256"},{"name":"roundId","type":"uint256","indexed":true,"internalType":"uint256"},{"name":"updatedAt","type":"uint256","indexed":false,"internalType":"uint256"}],"anonymous":false}],"bytecode":{"object":"0x6080604052348015600e575f5ffd5b50604051610182380380610182833981016040819052602b91606d565b5f81815560405142815282919082907f0559884fd3a460db3073b7fc896cc77986f16e378210ded43186175bf646fc5f9060200160405180910390a350506083565b5f60208284031215607c575f5ffd5b5051919050565b60f38061008f5f395ff3fe6080604052348015600e575f5ffd5b5060043610604e575f3560e01c806304ea97b0146052578063313ce56714606357806350d25bcd146077578063b15b37a5146087578063fcab181914608e575b5f5ffd5b6061605d36600460d0565b6094565b005b604051600881526020015b60405180910390f35b5f545b604051908152602001606e565b607a5f5481565b6001607a565b5f81815560405142815282907f0559884fd3a460db3073b7fc896cc77986f16e378210ded43186175bf646fc5f9060200160405180910390a350565b5f6020828403121560df575f5ffd5b503591905056fea164736f6c634300081b000a","linkReferences":{}},"methodIdentifiers":{"_latestAnswer()":"b15b37a5","decimals()":"313ce567","getTokenType()":"fcab1819","latestAnswer()":"50d25bcd","setLatestAnswer(int256)":"04ea97b0"},"id":408}