{"abi":[{"type":"constructor","inputs":[],"stateMutability":"nonpayable"},{"type":"function","name":"executeOperation","inputs":[{"name":"asset","type":"address","internalType":"address"},{"name":"amount","type":"uint256","internalType":"uint256"},{"name":"premium","type":"uint256","internalType":"uint256"},{"name":"initiator","type":"address","internalType":"address"},{"name":"params","type":"bytes","internalType":"bytes"}],"outputs":[{"name":"","type":"bool","internalType":"bool"}],"stateMutability":"nonpayable"},{"type":"event","name":"AssertEqFail","inputs":[{"name":"","type":"string","indexed":false,"internalType":"string"}],"anonymous":false},{"type":"event","name":"AssertFail","inputs":[{"name":"","type":"string","indexed":false,"internalType":"string"}],"anonymous":false},{"type":"event","name":"AssertGeFail","inputs":[{"name":"","type":"string","indexed":false,"internalType":"string"}],"anonymous":false},{"type":"event","name":"AssertGtFail","inputs":[{"name":"","type":"string","indexed":false,"internalType":"string"}],"anonymous":false},{"type":"event","name":"AssertLeFail","inputs":[{"name":"","type":"string","indexed":false,"internalType":"string"}],"anonymous":false},{"type":"event","name":"AssertLtFail","inputs":[{"name":"","type":"string","indexed":false,"internalType":"string"}],"anonymous":false},{"type":"event","name":"AssertNeqFail","inputs":[{"name":"","type":"string","indexed":false,"internalType":"string"}],"anonymous":false},{"type":"event","name":"LogAddress","inputs":[{"name":"","type":"string","indexed":false,"internalType":"string"},{"name":"","type":"address","indexed":false,"internalType":"address"}],"anonymous":false},{"type":"event","name":"LogString","inputs":[{"name":"","type":"string","indexed":false,"internalType":"string"}],"anonymous":false},{"type":"event","name":"LogUint256","inputs":[{"name":"","type":"string","indexed":false,"internalType":"string"},{"name":"","type":"uint256","indexed":false,"internalType":"uint256"}],"anonymous":false}],"bytecode":{"object":"0x6080604052348015600e575f5ffd5b506107f28061001c5f395ff3fe608060405234801561000f575f5ffd5b5060043610610029575f3560e01c80631b11d0ff1461002d575b5f5ffd5b61004061003b366004610414565b610054565b604051901515815260200160405180910390f35b5f8080610063848601866104b9565b915091506100a786826040518060400160405280601c81526020017f6f6e466c6173684c6f616e3a2077726f6e6720696e69746961746f72000000008152506100ca565b6100bb89836100b68a8c6104fb565b61016a565b50600198975050505050505050565b816001600160a01b0316836001600160a01b031614610165575f6100ed8461028f565b90505f6100f98461028f565b90505f82828560405160200161011193929190610536565b60405160208183030381529060405290507f2d2d38c9a34df9887a6dcb2a54c1f79ff8bf9c4d4cafacd7d1f7277f57baab6f8160405161015191906105b7565b60405180910390a16101616105e9565b5050505b505050565b60405163095ea7b360e01b8152336004820152602481018290526001600160a01b0384169063095ea7b3906044016020604051808303815f875af11580156101b4573d5f5f3e3d5ffd5b505050506040513d601f19601f820116820180604052508101906101d891906105fd565b508082111561026d576001600160a01b0383166340c10f19306101fb8486610623565b6040516001600160e01b031960e085901b1681526001600160a01b03909216600483015260248201526044016020604051808303815f875af1158015610243573d5f5f3e3d5ffd5b505050506040513d601f19601f8201168201806040525081019061026791906105fd565b50505050565b80821015610165576001600160a01b03831663a9059cbb5f6101fb8585610623565b60408051602880825260608281019093525f91906020820181803683370190505090505f5b60148110156103c1575f6102c9826013610623565b6102d4906008610636565b6102df906002610730565b6102f2906001600160a01b03871661074f565b60f81b90505f60108260f81c6103089190610762565b60f81b90505f8160f81c601061031e9190610783565b8360f81c61032c919061079f565b60f81b905061033a826103c8565b85610346866002610636565b81518110610356576103566107b8565b60200101906001600160f81b03191690815f1a905350610375816103c8565b85610381866002610636565b61038c9060016104fb565b8151811061039c5761039c6107b8565b60200101906001600160f81b03191690815f1a90535050600190920191506102b49050565b5092915050565b5f600a60f883901c10156103ee576103e560f883901c60306107cc565b60f81b92915050565b6103e560f883901c60576107cc565b6001600160a01b0381168114610411575f5ffd5b50565b5f5f5f5f5f5f60a08789031215610429575f5ffd5b8635610434816103fd565b955060208701359450604087013593506060870135610452816103fd565b9250608087013567ffffffffffffffff81111561046d575f5ffd5b8701601f8101891361047d575f5ffd5b803567ffffffffffffffff811115610493575f5ffd5b8960208284010111156104a4575f5ffd5b60208201935080925050509295509295509295565b5f5f604083850312156104ca575f5ffd5b8235915060208301356104dc816103fd565b809150509250929050565b634e487b7160e01b5f52601160045260245ffd5b8082018082111561050e5761050e6104e7565b92915050565b5f5b8381101561052e578181015183820152602001610516565b50505f910152565b68024b73b30b634b21d160bd1b81525f8451610559816009850160208901610514565b61213d60f01b600991840191820152845161057b81600b840160208901610514565b60098183010191505069016103932b0b9b7b71d160b51b600282015283516105aa81600c840160208801610514565b01600c0195945050505050565b602081525f82518060208401526105d5816040850160208701610514565b601f01601f19169190910160400192915050565b634e487b7160e01b5f52600160045260245ffd5b5f6020828403121561060d575f5ffd5b8151801515811461061c575f5ffd5b9392505050565b8181038181111561050e5761050e6104e7565b808202811582820484141761050e5761050e6104e7565b6001815b60018411156106885780850481111561066c5761066c6104e7565b600184161561067a57908102905b60019390931c928002610651565b935093915050565b5f8261069e5750600161050e565b816106aa57505f61050e565b81600181146106c057600281146106ca576106e6565b600191505061050e565b60ff8411156106db576106db6104e7565b50506001821b61050e565b5060208310610133831016604e8410600b8410161715610709575081810a61050e565b6107155f19848461064d565b805f1904821115610728576107286104e7565b029392505050565b5f61061c8383610690565b634e487b7160e01b5f52601260045260245ffd5b5f8261075d5761075d61073b565b500490565b5f60ff8316806107745761077461073b565b8060ff84160491505092915050565b60ff81811683821602908116908181146103c1576103c16104e7565b60ff828116828216039081111561050e5761050e6104e7565b634e487b7160e01b5f52603260045260245ffd5b60ff818116838216019081111561050e5761050e6104e756fea164736f6c634300081b000a","linkReferences":{}},"methodIdentifiers":{"executeOperation(address,uint256,uint256,address,bytes)":"1b11d0ff"},"id":394}