{"abi":[{"type":"function","name":"buy","inputs":[{"name":"fromToken","type":"address","internalType":"address"},{"name":"toToken","type":"address","internalType":"address"},{"name":"fromAmount","type":"uint256","internalType":"uint256"},{"name":"toAmount","type":"uint256","internalType":"uint256"}],"outputs":[{"name":"","type":"uint256","internalType":"uint256"}],"stateMutability":"nonpayable"},{"type":"function","name":"expectBuy","inputs":[{"name":"fromToken","type":"address","internalType":"address"},{"name":"toToken","type":"address","internalType":"address"},{"name":"fromAmount","type":"uint256","internalType":"uint256"},{"name":"toAmountMin","type":"uint256","internalType":"uint256"},{"name":"toAmountMax","type":"uint256","internalType":"uint256"}],"outputs":[],"stateMutability":"nonpayable"},{"type":"function","name":"expectSwap","inputs":[{"name":"fromToken","type":"address","internalType":"address"},{"name":"toToken","type":"address","internalType":"address"},{"name":"fromAmountMin","type":"uint256","internalType":"uint256"},{"name":"fromAmountMax","type":"uint256","internalType":"uint256"},{"name":"receivedAmount","type":"uint256","internalType":"uint256"}],"outputs":[],"stateMutability":"nonpayable"},{"type":"function","name":"swap","inputs":[{"name":"fromToken","type":"address","internalType":"address"},{"name":"toToken","type":"address","internalType":"address"},{"name":"fromAmount","type":"uint256","internalType":"uint256"},{"name":"toAmount","type":"uint256","internalType":"uint256"}],"outputs":[{"name":"","type":"uint256","internalType":"uint256"}],"stateMutability":"nonpayable"}],"bytecode":{"object":"0x6080604052348015600e575f5ffd5b506107938061001c5f395ff3fe608060405234801561000f575f5ffd5b506004361061004a575f3560e01c80638507eae81461004e578063a9d424e2146100a9578063b166d5f0146100ce578063fe02915614610127575b5f5ffd5b6100a761005c3660046106d8565b5f805460016001600160a81b03199091166101006001600160a01b039889160217811790915580546001600160a01b0319169490951693909317909355600555600791909155600655565b005b6100bc6100b7366004610721565b61013a565b60405190815260200160405180910390f35b6100a76100dc3660046106d8565b5f805460016001600160a81b03199091166101006001600160a01b039889160217811790915580546001600160a01b0319169490951693909317909355600255600391909155600455565b6100bc610135366004610721565b610382565b5f805460ff166101865760405162461bcd60e51b815260206004820152601260248201527104e6f7420657870656374696e6720737761760741b60448201526064015b60405180910390fd5b5f546001600160a01b0386811661010090920416146101df5760405162461bcd60e51b81526020600482015260156024820152742ab732bc3832b1ba32b210333937b6903a37b5b2b760591b604482015260640161017d565b6001546001600160a01b038581169116146102325760405162461bcd60e51b81526020600482015260136024820152722ab732bc3832b1ba32b2103a37903a37b5b2b760691b604482015260640161017d565b600754821015801561024657506006548211155b61028b5760405162461bcd60e51b8152602060048201526016602482015275546f20616d6f756e74206f7574206f662072616e676560501b604482015260640161017d565b8260055411156102f45760405162461bcd60e51b815260206004820152602e60248201527f46726f6d20616d6f756e74206f6620746f6b656e73206172652068696768657260448201526d081d1a185b88195e1c1958dd195960921b606482015260840161017d565b61030285333060055461063e565b6040516340c10f1960e01b8152336004820152602481018390526001600160a01b038516906340c10f19906044016020604051808303815f875af115801561034c573d5f5f3e3d5ffd5b505050506040513d601f19601f820116820180604052508101906103709190610760565b50505f805460ff191690555092915050565b5f805460ff166103c95760405162461bcd60e51b815260206004820152601260248201527104e6f7420657870656374696e6720737761760741b604482015260640161017d565b5f546001600160a01b0386811661010090920416146104225760405162461bcd60e51b81526020600482015260156024820152742ab732bc3832b1ba32b210333937b6903a37b5b2b760591b604482015260640161017d565b6001546001600160a01b038581169116146104755760405162461bcd60e51b81526020600482015260136024820152722ab732bc3832b1ba32b2103a37903a37b5b2b760691b604482015260640161017d565b600254831015801561048957506003548311155b6104d55760405162461bcd60e51b815260206004820152601860248201527f46726f6d20616d6f756e74206f7574206f662072616e67650000000000000000604482015260640161017d565b8160045410156105405760405162461bcd60e51b815260206004820152603060248201527f526563656976656420616d6f756e74206f6620746f6b656e7320617265206c6560448201526f1cdcc81d1a185b88195e1c1958dd195960821b606482015260840161017d565b61054c8533308661063e565b6004805460405163140e25ad60e31b8152918201526001600160a01b0385169063a0712d68906024016020604051808303815f875af1158015610591573d5f5f3e3d5ffd5b505050506040513d601f19601f820116820180604052508101906105b59190610760565b506004805460405163a9059cbb60e01b8152339281019290925260248201526001600160a01b0385169063a9059cbb906044016020604051808303815f875af1158015610604573d5f5f3e3d5ffd5b505050506040513d601f19601f820116820180604052508101906106289190610760565b50505f805460ff19169055600454949350505050565b6040516323b872dd60e01b81526001600160a01b0384811660048301528381166024830152604482018390528516906323b872dd906064016020604051808303815f875af1158015610692573d5f5f3e3d5ffd5b505050506040513d601f19601f820116820180604052508101906106b69190610760565b5050505050565b80356001600160a01b03811681146106d3575f5ffd5b919050565b5f5f5f5f5f60a086880312156106ec575f5ffd5b6106f5866106bd565b9450610703602087016106bd565b94979496505050506040830135926060810135926080909101359150565b5f5f5f5f60808587031215610734575f5ffd5b61073d856106bd565b935061074b602086016106bd565b93969395505050506040820135916060013590565b5f60208284031215610770575f5ffd5b8151801515811461077f575f5ffd5b939250505056fea164736f6c634300081b000a","linkReferences":{}},"methodIdentifiers":{"buy(address,address,uint256,uint256)":"a9d424e2","expectBuy(address,address,uint256,uint256,uint256)":"8507eae8","expectSwap(address,address,uint256,uint256,uint256)":"b166d5f0","swap(address,address,uint256,uint256)":"fe029156"},"id":193}