{"abi":[{"type":"function","name":"DELEGATION_WITH_SIG_TYPEHASH","inputs":[],"outputs":[{"name":"","type":"bytes32","internalType":"bytes32"}],"stateMutability":"view"},{"type":"function","name":"EIP712_DOMAIN","inputs":[],"outputs":[{"name":"","type":"bytes32","internalType":"bytes32"}],"stateMutability":"view"},{"type":"function","name":"PERMIT_TYPEHASH","inputs":[],"outputs":[{"name":"","type":"bytes32","internalType":"bytes32"}],"stateMutability":"view"},{"type":"function","name":"getCreditDelegationTypedDataHash","inputs":[{"name":"_del","type":"tuple","internalType":"struct EIP712SigUtils.CreditDelegation","components":[{"name":"delegatee","type":"address","internalType":"address"},{"name":"value","type":"uint256","internalType":"uint256"},{"name":"nonce","type":"uint256","internalType":"uint256"},{"name":"deadline","type":"uint256","internalType":"uint256"}]},{"name":"name","type":"bytes","internalType":"bytes"},{"name":"revision","type":"bytes","internalType":"bytes"},{"name":"contractAddress","type":"address","internalType":"address"}],"outputs":[{"name":"","type":"bytes32","internalType":"bytes32"}],"stateMutability":"view"},{"type":"function","name":"getDomainSeparator","inputs":[{"name":"name","type":"bytes","internalType":"bytes"},{"name":"revision","type":"bytes","internalType":"bytes"},{"name":"contractAddress","type":"address","internalType":"address"}],"outputs":[{"name":"","type":"bytes32","internalType":"bytes32"}],"stateMutability":"view"},{"type":"function","name":"getTypedDataHash","inputs":[{"name":"_permit","type":"tuple","internalType":"struct EIP712SigUtils.Permit","components":[{"name":"owner","type":"address","internalType":"address"},{"name":"spender","type":"address","internalType":"address"},{"name":"value","type":"uint256","internalType":"uint256"},{"name":"nonce","type":"uint256","internalType":"uint256"},{"name":"deadline","type":"uint256","internalType":"uint256"}]},{"name":"name","type":"bytes","internalType":"bytes"},{"name":"revision","type":"bytes","internalType":"bytes"},{"name":"contractAddress","type":"address","internalType":"address"}],"outputs":[{"name":"","type":"bytes32","internalType":"bytes32"}],"stateMutability":"view"}],"bytecode":{"object":"0x610628610034600b8282823980515f1a607314602857634e487b7160e01b5f525f60045260245ffd5b305f52607381538281f3fe730000000000000000000000000000000000000000301460806040526004361061006b575f3560e01c806330adf81f1461006f57806338731cdb146100a8578063436a01eb146100bb578063bcf0b7e3146100ce578063e1b11da4146100e1578063f3bfc73814610108575b5f5ffd5b6100967f6e71edae12b1b97f4d1f60370fef10105fa2faae0126114a169c64845d6126c981565b60405190815260200160405180910390f35b6100966100b6366004610428565b61012f565b6100966100c93660046104f6565b610182565b6100966100dc36600461056a565b610203565b6100967f8b73c3c69bb8fe3d512ecc4cf759cc79239f7b179b0ffacaa9a75d522b39400f81565b6100967f323db0410fecc107e39e2af5908671f4c8d106123b35a51501bb805c5fa36aa081565b5f61013b848484610182565b61014486610218565b60405161190160f01b602082015260228101929092526042820152606201604051602081830303815290604052805190602001209050949350505050565b8251602080850191909120835184830120604080517f8b73c3c69bb8fe3d512ecc4cf759cc79239f7b179b0ffacaa9a75d522b39400f9481019490945283019190915260608201524660808201526001600160a01b03821660a08201525f9060c0016040516020818303038152906040528051906020012090509392505050565b5f61020f848484610182565b610144866102b2565b80516020808301516040808501516060860151608087015192515f96610295967f6e71edae12b1b97f4d1f60370fef10105fa2faae0126114a169c64845d6126c996919591949392019586526001600160a01b0394851660208701529290931660408501526060840152608083019190915260a082015260c00190565b604051602081830303815290604052805190602001209050919050565b5f7f323db0410fecc107e39e2af5908671f4c8d106123b35a51501bb805c5fa36aa0825f01518360200151846040015185606001516040516020016102959594939291909485526001600160a01b0393909316602085015260408401919091526060830152608082015260a00190565b634e487b7160e01b5f52604160045260245ffd5b60405160a0810167ffffffffffffffff8111828210171561035957610359610322565b60405290565b6040516080810167ffffffffffffffff8111828210171561035957610359610322565b80356001600160a01b0381168114610398575f5ffd5b919050565b5f82601f8301126103ac575f5ffd5b813567ffffffffffffffff8111156103c6576103c6610322565b604051601f8201601f19908116603f0116810167ffffffffffffffff811182821017156103f5576103f5610322565b60405281815283820160200185101561040c575f5ffd5b816020850160208301375f918101602001919091529392505050565b5f5f5f5f84860361010081121561043d575f5ffd5b60a081121561044a575f5ffd5b50610453610336565b61045c86610382565b815261046a60208701610382565b6020820152604086810135908201526060808701359082015260808087013590820152935060a085013567ffffffffffffffff8111156104a8575f5ffd5b6104b48782880161039d565b93505060c085013567ffffffffffffffff8111156104d0575f5ffd5b6104dc8782880161039d565b9250506104eb60e08601610382565b905092959194509250565b5f5f5f60608486031215610508575f5ffd5b833567ffffffffffffffff81111561051e575f5ffd5b61052a8682870161039d565b935050602084013567ffffffffffffffff811115610546575f5ffd5b6105528682870161039d565b92505061056160408501610382565b90509250925092565b5f5f5f5f84860360e081121561057e575f5ffd5b608081121561058b575f5ffd5b5061059461035f565b61059d86610382565b81526020868101359082015260408087013590820152606080870135908201529350608085013567ffffffffffffffff8111156105d8575f5ffd5b6105e48782880161039d565b93505060a085013567ffffffffffffffff811115610600575f5ffd5b61060c8782880161039d565b9250506104eb60c0860161038256fea164736f6c634300081b000a","linkReferences":{}},"methodIdentifiers":{"DELEGATION_WITH_SIG_TYPEHASH()":"f3bfc738","EIP712_DOMAIN()":"e1b11da4","PERMIT_TYPEHASH()":"30adf81f","getCreditDelegationTypedDataHash(EIP712SigUtils.CreditDelegation,bytes,bytes,address)":"bcf0b7e3","getDomainSeparator(bytes,bytes,address)":"436a01eb","getTypedDataHash(EIP712SigUtils.Permit,bytes,bytes,address)":"38731cdb"},"id":472}