{"abi":[{"type":"constructor","inputs":[{"name":"aTokenImpl","type":"address","internalType":"address"},{"name":"vTokenImpl","type":"address","internalType":"address"},{"name":"engineConstants","type":"tuple","internalType":"struct IAaveV3ConfigEngine.EngineConstants","components":[{"name":"pool","type":"address","internalType":"contract IPool"},{"name":"poolConfigurator","type":"address","internalType":"contract IPoolConfigurator"},{"name":"oracle","type":"address","internalType":"contract IAaveOracle"},{"name":"rewardsController","type":"address","internalType":"address"},{"name":"collector","type":"address","internalType":"address"},{"name":"defaultInterestRateStrategy","type":"address","internalType":"address"}]},{"name":"engineLibraries","type":"tuple","internalType":"struct IAaveV3ConfigEngine.EngineLibraries","components":[{"name":"listingEngine","type":"address","internalType":"address"},{"name":"eModeEngine","type":"address","internalType":"address"},{"name":"borrowEngine","type":"address","internalType":"address"},{"name":"collateralEngine","type":"address","internalType":"address"},{"name":"priceFeedEngine","type":"address","internalType":"address"},{"name":"rateEngine","type":"address","internalType":"address"},{"name":"capsEngine","type":"address","internalType":"address"}]}],"stateMutability":"nonpayable"},{"type":"function","name":"ATOKEN_IMPL","inputs":[],"outputs":[{"name":"","type":"address","internalType":"address"}],"stateMutability":"view"},{"type":"function","name":"BORROW_ENGINE","inputs":[],"outputs":[{"name":"","type":"address","internalType":"address"}],"stateMutability":"view"},{"type":"function","name":"CAPS_ENGINE","inputs":[],"outputs":[{"name":"","type":"address","internalType":"address"}],"stateMutability":"view"},{"type":"function","name":"COLLATERAL_ENGINE","inputs":[],"outputs":[{"name":"","type":"address","internalType":"address"}],"stateMutability":"view"},{"type":"function","name":"COLLECTOR","inputs":[],"outputs":[{"name":"","type":"address","internalType":"address"}],"stateMutability":"view"},{"type":"function","name":"DEFAULT_INTEREST_RATE_STRATEGY","inputs":[],"outputs":[{"name":"","type":"address","internalType":"address"}],"stateMutability":"view"},{"type":"function","name":"EMODE_ENGINE","inputs":[],"outputs":[{"name":"","type":"address","internalType":"address"}],"stateMutability":"view"},{"type":"function","name":"LISTING_ENGINE","inputs":[],"outputs":[{"name":"","type":"address","internalType":"address"}],"stateMutability":"view"},{"type":"function","name":"ORACLE","inputs":[],"outputs":[{"name":"","type":"address","internalType":"contract IAaveOracle"}],"stateMutability":"view"},{"type":"function","name":"POOL","inputs":[],"outputs":[{"name":"","type":"address","internalType":"contract IPool"}],"stateMutability":"view"},{"type":"function","name":"POOL_CONFIGURATOR","inputs":[],"outputs":[{"name":"","type":"address","internalType":"contract IPoolConfigurator"}],"stateMutability":"view"},{"type":"function","name":"PRICE_FEED_ENGINE","inputs":[],"outputs":[{"name":"","type":"address","internalType":"address"}],"stateMutability":"view"},{"type":"function","name":"RATE_ENGINE","inputs":[],"outputs":[{"name":"","type":"address","internalType":"address"}],"stateMutability":"view"},{"type":"function","name":"REWARDS_CONTROLLER","inputs":[],"outputs":[{"name":"","type":"address","internalType":"address"}],"stateMutability":"view"},{"type":"function","name":"VTOKEN_IMPL","inputs":[],"outputs":[{"name":"","type":"address","internalType":"address"}],"stateMutability":"view"},{"type":"function","name":"createEModeCategories","inputs":[{"name":"creations","type":"tuple[]","internalType":"struct IAaveV3ConfigEngine.EModeCategoryCreation[]","components":[{"name":"ltv","type":"uint256","internalType":"uint256"},{"name":"liqThreshold","type":"uint256","internalType":"uint256"},{"name":"liqBonus","type":"uint256","internalType":"uint256"},{"name":"label","type":"string","internalType":"string"},{"name":"borrowables","type":"address[]","internalType":"address[]"},{"name":"collaterals","type":"address[]","internalType":"address[]"}]}],"outputs":[],"stateMutability":"nonpayable"},{"type":"function","name":"listAssets","inputs":[{"name":"context","type":"tuple","internalType":"struct IAaveV3ConfigEngine.PoolContext","components":[{"name":"networkName","type":"string","internalType":"string"},{"name":"networkAbbreviation","type":"string","internalType":"string"}]},{"name":"listings","type":"tuple[]","internalType":"struct IAaveV3ConfigEngine.Listing[]","components":[{"name":"asset","type":"address","internalType":"address"},{"name":"assetSymbol","type":"string","internalType":"string"},{"name":"priceFeed","type":"address","internalType":"address"},{"name":"rateStrategyParams","type":"tuple","internalType":"struct IAaveV3ConfigEngine.InterestRateInputData","components":[{"name":"optimalUsageRatio","type":"uint256","internalType":"uint256"},{"name":"baseVariableBorrowRate","type":"uint256","internalType":"uint256"},{"name":"variableRateSlope1","type":"uint256","internalType":"uint256"},{"name":"variableRateSlope2","type":"uint256","internalType":"uint256"}]},{"name":"enabledToBorrow","type":"uint256","internalType":"uint256"},{"name":"borrowableInIsolation","type":"uint256","internalType":"uint256"},{"name":"withSiloedBorrowing","type":"uint256","internalType":"uint256"},{"name":"flashloanable","type":"uint256","internalType":"uint256"},{"name":"ltv","type":"uint256","internalType":"uint256"},{"name":"liqThreshold","type":"uint256","internalType":"uint256"},{"name":"liqBonus","type":"uint256","internalType":"uint256"},{"name":"reserveFactor","type":"uint256","internalType":"uint256"},{"name":"supplyCap","type":"uint256","internalType":"uint256"},{"name":"borrowCap","type":"uint256","internalType":"uint256"},{"name":"debtCeiling","type":"uint256","internalType":"uint256"},{"name":"liqProtocolFee","type":"uint256","internalType":"uint256"}]}],"outputs":[],"stateMutability":"nonpayable"},{"type":"function","name":"listAssetsCustom","inputs":[{"name":"context","type":"tuple","internalType":"struct IAaveV3ConfigEngine.PoolContext","components":[{"name":"networkName","type":"string","internalType":"string"},{"name":"networkAbbreviation","type":"string","internalType":"string"}]},{"name":"listings","type":"tuple[]","internalType":"struct IAaveV3ConfigEngine.ListingWithCustomImpl[]","components":[{"name":"base","type":"tuple","internalType":"struct IAaveV3ConfigEngine.Listing","components":[{"name":"asset","type":"address","internalType":"address"},{"name":"assetSymbol","type":"string","internalType":"string"},{"name":"priceFeed","type":"address","internalType":"address"},{"name":"rateStrategyParams","type":"tuple","internalType":"struct IAaveV3ConfigEngine.InterestRateInputData","components":[{"name":"optimalUsageRatio","type":"uint256","internalType":"uint256"},{"name":"baseVariableBorrowRate","type":"uint256","internalType":"uint256"},{"name":"variableRateSlope1","type":"uint256","internalType":"uint256"},{"name":"variableRateSlope2","type":"uint256","internalType":"uint256"}]},{"name":"enabledToBorrow","type":"uint256","internalType":"uint256"},{"name":"borrowableInIsolation","type":"uint256","internalType":"uint256"},{"name":"withSiloedBorrowing","type":"uint256","internalType":"uint256"},{"name":"flashloanable","type":"uint256","internalType":"uint256"},{"name":"ltv","type":"uint256","internalType":"uint256"},{"name":"liqThreshold","type":"uint256","internalType":"uint256"},{"name":"liqBonus","type":"uint256","internalType":"uint256"},{"name":"reserveFactor","type":"uint256","internalType":"uint256"},{"name":"supplyCap","type":"uint256","internalType":"uint256"},{"name":"borrowCap","type":"uint256","internalType":"uint256"},{"name":"debtCeiling","type":"uint256","internalType":"uint256"},{"name":"liqProtocolFee","type":"uint256","internalType":"uint256"}]},{"name":"implementations","type":"tuple","internalType":"struct IAaveV3ConfigEngine.TokenImplementations","components":[{"name":"aToken","type":"address","internalType":"address"},{"name":"vToken","type":"address","internalType":"address"}]}]}],"outputs":[],"stateMutability":"nonpayable"},{"type":"function","name":"updateAssetsEMode","inputs":[{"name":"updates","type":"tuple[]","internalType":"struct IAaveV3ConfigEngine.AssetEModeUpdate[]","components":[{"name":"asset","type":"address","internalType":"address"},{"name":"eModeCategory","type":"uint8","internalType":"uint8"},{"name":"borrowable","type":"uint256","internalType":"uint256"},{"name":"collateral","type":"uint256","internalType":"uint256"}]}],"outputs":[],"stateMutability":"nonpayable"},{"type":"function","name":"updateBorrowSide","inputs":[{"name":"updates","type":"tuple[]","internalType":"struct IAaveV3ConfigEngine.BorrowUpdate[]","components":[{"name":"asset","type":"address","internalType":"address"},{"name":"enabledToBorrow","type":"uint256","internalType":"uint256"},{"name":"flashloanable","type":"uint256","internalType":"uint256"},{"name":"borrowableInIsolation","type":"uint256","internalType":"uint256"},{"name":"withSiloedBorrowing","type":"uint256","internalType":"uint256"},{"name":"reserveFactor","type":"uint256","internalType":"uint256"}]}],"outputs":[],"stateMutability":"nonpayable"},{"type":"function","name":"updateCaps","inputs":[{"name":"updates","type":"tuple[]","internalType":"struct IAaveV3ConfigEngine.CapsUpdate[]","components":[{"name":"asset","type":"address","internalType":"address"},{"name":"supplyCap","type":"uint256","internalType":"uint256"},{"name":"borrowCap","type":"uint256","internalType":"uint256"}]}],"outputs":[],"stateMutability":"nonpayable"},{"type":"function","name":"updateCollateralSide","inputs":[{"name":"updates","type":"tuple[]","internalType":"struct IAaveV3ConfigEngine.CollateralUpdate[]","components":[{"name":"asset","type":"address","internalType":"address"},{"name":"ltv","type":"uint256","internalType":"uint256"},{"name":"liqThreshold","type":"uint256","internalType":"uint256"},{"name":"liqBonus","type":"uint256","internalType":"uint256"},{"name":"debtCeiling","type":"uint256","internalType":"uint256"},{"name":"liqProtocolFee","type":"uint256","internalType":"uint256"}]}],"outputs":[],"stateMutability":"nonpayable"},{"type":"function","name":"updateEModeCategories","inputs":[{"name":"updates","type":"tuple[]","internalType":"struct IAaveV3ConfigEngine.EModeCategoryUpdate[]","components":[{"name":"eModeCategory","type":"uint8","internalType":"uint8"},{"name":"ltv","type":"uint256","internalType":"uint256"},{"name":"liqThreshold","type":"uint256","internalType":"uint256"},{"name":"liqBonus","type":"uint256","internalType":"uint256"},{"name":"label","type":"string","internalType":"string"}]}],"outputs":[],"stateMutability":"nonpayable"},{"type":"function","name":"updatePriceFeeds","inputs":[{"name":"updates","type":"tuple[]","internalType":"struct IAaveV3ConfigEngine.PriceFeedUpdate[]","components":[{"name":"asset","type":"address","internalType":"address"},{"name":"priceFeed","type":"address","internalType":"address"}]}],"outputs":[],"stateMutability":"nonpayable"},{"type":"function","name":"updateRateStrategies","inputs":[{"name":"updates","type":"tuple[]","internalType":"struct IAaveV3ConfigEngine.RateStrategyUpdate[]","components":[{"name":"asset","type":"address","internalType":"address"},{"name":"params","type":"tuple","internalType":"struct IAaveV3ConfigEngine.InterestRateInputData","components":[{"name":"optimalUsageRatio","type":"uint256","internalType":"uint256"},{"name":"baseVariableBorrowRate","type":"uint256","internalType":"uint256"},{"name":"variableRateSlope1","type":"uint256","internalType":"uint256"},{"name":"variableRateSlope2","type":"uint256","internalType":"uint256"}]}]}],"outputs":[],"stateMutability":"nonpayable"},{"type":"error","name":"AddressEmptyCode","inputs":[{"name":"target","type":"address","internalType":"address"}]},{"type":"error","name":"FailedCall","inputs":[]}],"bytecode":{"object":"0x610260604052348015610010575f5ffd5b506040516124d23803806124d283398101604081905261002f916103e7565b81516001600160a01b031615801590610054575060208201516001600160a01b031615155b801561006c575060408201516001600160a01b031615155b8015610084575060608201516001600160a01b031615155b801561009c575060808201516001600160a01b031615155b80156100b4575060a08201516001600160a01b031615155b6101055760405162461bcd60e51b815260206004820152601d60248201527f4f4e4c595f4e4f4e5a45524f5f454e47494e455f434f4e5354414e545300000060448201526064015b60405180910390fd5b6001600160a01b0384161580159061012557506001600160a01b03831615155b6101715760405162461bcd60e51b815260206004820152601860248201527f4f4e4c595f4e4f4e5a45524f5f544f4b454e5f494d504c53000000000000000060448201526064016100fc565b60408101516001600160a01b031615801590610199575060c08101516001600160a01b031615155b80156101ae575080516001600160a01b031615155b80156101c6575060808101516001600160a01b031615155b80156101de575060a08101516001600160a01b031615155b61022a5760405162461bcd60e51b815260206004820152601d60248201527f4f4e4c595f4e4f4e5a45524f5f454e47494e455f4c494252415249455300000060448201526064016100fc565b6001600160a01b0393841660e05291831661010052805183166080908152602080830151851660a0908152604080850151871660c090815260608087015189166101205285870151891661014052958301518816610160529086015187166101805285015186166101a0529284015185166101c05283015184166101e0528251841661020052820151831661022052015116610240526104be565b6001600160a01b03811681146102d9575f5ffd5b50565b80516102e7816102c5565b919050565b60405160e081016001600160401b038111828210171561031a57634e487b7160e01b5f52604160045260245ffd5b60405290565b60405160c081016001600160401b038111828210171561031a57634e487b7160e01b5f52604160045260245ffd5b5f60e0828403121561035e575f5ffd5b6103666102ec565b90508151610373816102c5565b81526020820151610383816102c5565b60208201526040820151610396816102c5565b604082015260608201516103a9816102c5565b60608201526103ba608083016102dc565b60808201526103cb60a083016102dc565b60a08201526103dc60c083016102dc565b60c082015292915050565b5f5f5f5f8486036101e08112156103fc575f5ffd5b8551610407816102c5565b6020870151909550610418816102c5565b935060c0603f198201121561042b575f5ffd5b50610434610320565b6040860151610442816102c5565b81526060860151610452816102c5565b60208201526080860151610465816102c5565b604082015260a0860151610478816102c5565b606082015260c086015161048b816102c5565b608082015260e086015161049e816102c5565b60a082015291506104b386610100870161034e565b905092959194509250565b60805160a05160c05160e05161010051610120516101405161016051610180516101a0516101c0516101e051610200516102205161024051611ed96105f95f395f81816104130152818161066b0152610b2001525f81816104740152818161063c0152610a9701525f81816101ce01528181610580015261071a01525f818161022e015281816105af01526107a301525f81816102dd015281816104f9015261060d01525f81816101760152818161069a0152610a0e01525f818161043a015281816105de0152610ba901525f81816103510152610cf801525f81816102b60152610cc901525f81816103c50152610c9a01525f818161025501526108f601525f81816103ec01526108c701525f818161027c0152610c6b01525f818161032a0152610c3c01525f81816103780152610c0d0152611ed95ff3fe608060405234801561000f575f5ffd5b506004361061016d575f3560e01c80634ee1151a116100d9578063b79421eb11610093578063e36b91ab1161006e578063e36b91ab1461040e578063f1288cbb14610435578063f1c2652c1461045c578063fafeb5741461046f575f5ffd5b8063b79421eb146103ad578063cd086d45146103c0578063d99ec884146103e7575f5ffd5b80634ee1151a146102ff57806355caa1631461031257806358725084146103255780636714ddd51461034c5780637535d24614610373578063927c40031461039a575f5ffd5b8063241554091161012a57806324155409146102295780633368555c1461025057806338013f02146102775780633b2ba2d41461029e5780633cbadf78146102b15780633d5030a3146102d8575f5ffd5b80630804799f1461017157806309d83328146101b45780630a4aa3fa146101c957806311577d8d146101f057806312146c70146102035780631672741214610216575b5f5ffd5b6101987f000000000000000000000000000000000000000000000000000000000000000081565b6040516001600160a01b03909116815260200160405180910390f35b6101c76101c2366004610f59565b610496565b005b6101987f000000000000000000000000000000000000000000000000000000000000000081565b6101c76101fe366004611236565b610524565b6101c76102113660046113a9565b610740565b6101c7610224366004611458565b6107c9565b6101987f000000000000000000000000000000000000000000000000000000000000000081565b6101987f000000000000000000000000000000000000000000000000000000000000000081565b6101987f000000000000000000000000000000000000000000000000000000000000000081565b6101c76102ac3660046114bf565b61095a565b6101987f000000000000000000000000000000000000000000000000000000000000000081565b6101987f000000000000000000000000000000000000000000000000000000000000000081565b6101c761030d3660046114bf565b610984565b6101c76103203660046114f1565b6109ab565b6101987f000000000000000000000000000000000000000000000000000000000000000081565b6101987f000000000000000000000000000000000000000000000000000000000000000081565b6101987f000000000000000000000000000000000000000000000000000000000000000081565b6101c76103a8366004611550565b610a34565b6101c76103bb3660046115af565b610abd565b6101987f000000000000000000000000000000000000000000000000000000000000000081565b6101987f000000000000000000000000000000000000000000000000000000000000000081565b6101987f000000000000000000000000000000000000000000000000000000000000000081565b6101987f000000000000000000000000000000000000000000000000000000000000000081565b6101c761046a366004610f59565b610b46565b6101987f000000000000000000000000000000000000000000000000000000000000000081565b61051f630304504560e21b6104a9610bcf565b84846040516024016104bd939291906116a0565b60408051601f198184030181529190526020810180516001600160e01b03166001600160e01b0319909316929092179091526001600160a01b037f00000000000000000000000000000000000000000000000000000000000000001690610d28565b505050565b61051f63b668509b60e01b83610538610bcf565b6106ca6040805160e0810182525f80825260208201819052918101829052606081018290526080810182905260a0810182905260c08101919091526040518060e001604052807f00000000000000000000000000000000000000000000000000000000000000006001600160a01b031681526020017f00000000000000000000000000000000000000000000000000000000000000006001600160a01b031681526020017f00000000000000000000000000000000000000000000000000000000000000006001600160a01b031681526020017f00000000000000000000000000000000000000000000000000000000000000006001600160a01b031681526020017f00000000000000000000000000000000000000000000000000000000000000006001600160a01b031681526020017f00000000000000000000000000000000000000000000000000000000000000006001600160a01b031681526020017f00000000000000000000000000000000000000000000000000000000000000006001600160a01b0316815250905090565b856040516024016106de949392919061192b565b60408051601f198184030181529190526020810180516001600160e01b03166001600160e01b0319909316929092179091526001600160a01b037f00000000000000000000000000000000000000000000000000000000000000001690610d28565b61051f63930b9fc960e01b610753610bcf565b848460405160240161076793929190611a2f565b60408051601f198184030181529190526020810180516001600160e01b03166001600160e01b0319909316929092179091526001600160a01b037f00000000000000000000000000000000000000000000000000000000000000001690610d28565b5f81900361081e5760405162461bcd60e51b815260206004820152601b60248201527f41545f4c454153545f4f4e455f41535345545f5245515549524544000000000060448201526064015b60405180910390fd5b5f816001600160401b0381111561083757610837610fad565b60405190808252806020026020018201604052801561087057816020015b61085d610e22565b8152602001906001900390816108555790505b5090505f5b8281101561094957604051806040016040528085858481811061089a5761089a611aa6565b90506020028101906108ac9190611aba565b6108b590611ad9565b815260200160405180604001604052807f00000000000000000000000000000000000000000000000000000000000000006001600160a01b031681526020017f00000000000000000000000000000000000000000000000000000000000000006001600160a01b031681525081525082828151811061093657610936611aa6565b6020908102919091010152600101610875565b506109548482610524565b50505050565b61051f600162c2eadb60e01b0319610970610bcf565b848460405160240161076793929190611b74565b61051f634b333daf60e11b610997610bcf565b848460405160240161076793929190611c74565b61051f633c2d400f60e01b6109be610bcf565b84846040516024016109d293929190611d32565b60408051601f198184030181529190526020810180516001600160e01b03166001600160e01b0319909316929092179091526001600160a01b037f00000000000000000000000000000000000000000000000000000000000000001690610d28565b61051f63f328645d60e01b610a47610bcf565b8484604051602401610a5b93929190611d95565b60408051601f198184030181529190526020810180516001600160e01b03166001600160e01b0319909316929092179091526001600160a01b037f00000000000000000000000000000000000000000000000000000000000000001690610d28565b61051f6302e0cfc960e11b610ad0610bcf565b8484604051602401610ae493929190611dfe565b60408051601f198184030181529190526020810180516001600160e01b03166001600160e01b0319909316929092179091526001600160a01b037f00000000000000000000000000000000000000000000000000000000000000001690610d28565b61051f6351518ee360e11b610b59610bcf565b8484604051602401610b6d93929190611e75565b60408051601f198184030181529190526020810180516001600160e01b03166001600160e01b0319909316929092179091526001600160a01b037f00000000000000000000000000000000000000000000000000000000000000001690610d28565b6040805160c0810182525f80825260208201819052918101829052606081018290526080810182905260a08101919091526040518060c001604052807f00000000000000000000000000000000000000000000000000000000000000006001600160a01b031681526020017f00000000000000000000000000000000000000000000000000000000000000006001600160a01b031681526020017f00000000000000000000000000000000000000000000000000000000000000006001600160a01b031681526020017f00000000000000000000000000000000000000000000000000000000000000006001600160a01b031681526020017f00000000000000000000000000000000000000000000000000000000000000006001600160a01b031681526020017f00000000000000000000000000000000000000000000000000000000000000006001600160a01b0316815250905090565b60605f5f846001600160a01b031684604051610d449190611ebb565b5f60405180830381855af49150503d805f8114610d7c576040519150601f19603f3d011682016040523d82523d5f602084013e610d81565b606091505b5091509150610d91858383610d9a565b95945050505050565b606082610daf57610daa82610df9565b610df2565b8151158015610dc657506001600160a01b0384163b155b15610def57604051639996b31560e01b81526001600160a01b0385166004820152602401610815565b50805b9392505050565b805115610e095780518082602001fd5b60405163d6bda27560e01b815260040160405180910390fd5b6040518060400160405280610e35610e6c565b8152602001610e6760405180604001604052805f6001600160a01b031681526020015f6001600160a01b031681525090565b905290565b6040518061020001604052805f6001600160a01b03168152602001606081526020015f6001600160a01b03168152602001610ec460405180608001604052805f81526020015f81526020015f81526020015f81525090565b81526020015f81526020015f81526020015f81526020015f81526020015f81526020015f81526020015f81526020015f81526020015f81526020015f81526020015f81526020015f81525090565b5f5f83601f840112610f22575f5ffd5b5081356001600160401b03811115610f38575f5ffd5b60208301915083602060c083028501011115610f52575f5ffd5b9250929050565b5f5f60208385031215610f6a575f5ffd5b82356001600160401b03811115610f7f575f5ffd5b610f8b85828601610f12565b90969095509350505050565b5f60408284031215610fa7575f5ffd5b50919050565b634e487b7160e01b5f52604160045260245ffd5b60405161020081016001600160401b0381118282101715610fe457610fe4610fad565b60405290565b604080519081016001600160401b0381118282101715610fe457610fe4610fad565b604051601f8201601f191681016001600160401b038111828210171561103457611034610fad565b604052919050565b80356001600160a01b0381168114611052575f5ffd5b919050565b5f82601f830112611066575f5ffd5b81356001600160401b0381111561107f5761107f610fad565b611092601f8201601f191660200161100c565b8181528460208386010111156110a6575f5ffd5b816020850160208301375f918101602001919091529392505050565b5f608082840312156110d2575f5ffd5b604051608081016001600160401b03811182821017156110f4576110f4610fad565b6040908152833582526020808501359083015283810135908201526060928301359281019290925250919050565b5f6102608284031215611133575f5ffd5b61113b610fc1565b90506111468261103c565b815260208201356001600160401b03811115611160575f5ffd5b61116c84828501611057565b60208301525061117e6040830161103c565b604082015261119083606084016110c2565b606082015260e08281013560808301526101008084013560a08401526101208085013560c08501526101408086013593850193909352610160808601359285019290925261018080860135918501919091526101a080860135938501939093526101c080860135928501929092526101e0808601359185019190915261020085013592840192909252610220840135908301526102409092013591810191909152919050565b5f5f60408385031215611247575f5ffd5b82356001600160401b0381111561125c575f5ffd5b61126885828601610f97565b92505060208301356001600160401b03811115611283575f5ffd5b8301601f81018513611293575f5ffd5b80356001600160401b038111156112ac576112ac610fad565b8060051b6112bc6020820161100c565b918252602081840181019290810190888411156112d7575f5ffd5b6020850192505b8383101561139a5782356001600160401b038111156112fb575f5ffd5b8501808a03601f19016060811215611311575f5ffd5b611319610fea565b60208301356001600160401b03811115611331575f5ffd5b6113408d602083870101611122565b8252506040601f1983011215611354575f5ffd5b61135c610fea565b915061136a6040840161103c565b82526113786060840161103c565b60208301528160208201528085525050506020820191506020830192506112de565b80955050505050509250929050565b5f5f602083850312156113ba575f5ffd5b82356001600160401b038111156113cf575f5ffd5b8301601f810185136113df575f5ffd5b80356001600160401b038111156113f4575f5ffd5b8560208260071b8401011115611408575f5ffd5b6020919091019590945092505050565b5f5f83601f840112611428575f5ffd5b5081356001600160401b0381111561143e575f5ffd5b6020830191508360208260051b8501011115610f52575f5ffd5b5f5f5f6040848603121561146a575f5ffd5b83356001600160401b0381111561147f575f5ffd5b61148b86828701610f97565b93505060208401356001600160401b038111156114a6575f5ffd5b6114b286828701611418565b9497909650939450505050565b5f5f602083850312156114d0575f5ffd5b82356001600160401b038111156114e5575f5ffd5b610f8b85828601611418565b5f5f60208385031215611502575f5ffd5b82356001600160401b03811115611517575f5ffd5b8301601f81018513611527575f5ffd5b80356001600160401b0381111561153c575f5ffd5b856020606083028401011115611408575f5ffd5b5f5f60208385031215611561575f5ffd5b82356001600160401b03811115611576575f5ffd5b8301601f81018513611586575f5ffd5b80356001600160401b0381111561159b575f5ffd5b8560208260061b8401011115611408575f5ffd5b5f5f602083850312156115c0575f5ffd5b82356001600160401b038111156115d5575f5ffd5b8301601f810185136115e5575f5ffd5b80356001600160401b038111156115fa575f5ffd5b85602060a083028401011115611408575f5ffd5b80516001600160a01b03908116835260208083015182169084015260408083015182169084015260608083015182169084015260808083015182169084015260a09182015116910152565b6001600160a01b0361166a8261103c565b1682526020818101359083015260408082013590830152606080820135908301526080808201359083015260a090810135910152565b5f60e082016116af838761160e565b60e060c08401528390528361010083015f5b858110156116e6576116d38284611659565b60c09283019291909101906001016116c1565b509695505050505050565b5f5f8335601e19843603018112611706575f5ffd5b83016020810192503590506001600160401b03811115611724575f5ffd5b803603821315610f52575f5ffd5b81835281816020850137505f828201602090810191909152601f909101601f19169091010190565b5f5b8381101561177457818101518382015260200161175c565b50505f910152565b5f815180845261179381602086016020860161175a565b601f01601f19169290920160200192915050565b5f82825180855260208501945060208160051b830101602085015f5b8381101561191f57848303601f1901885281518051606080865281516001600160a01b031690860152602081015161026060808701526118076102c087018261177c565b9050604082015161182360a08801826001600160a01b03169052565b50606082810151805160c0890152602081015160e089015260408101516101008901529081015161012088015250608082015161014087015260a082015161016087015260c082015161018087015260e08201516101a08701526101008201516101c08701526101208201516101e08701526101408201516102008701526101608201516102208701526101808201516102408701526101a08201516102608701526101c08201516102808701526101e08201516102a087015260208301519250611907602087018480516001600160a01b03908116835260209182015116910152565b60209a8b019a909550939093019250506001016117c3565b50909695505050505050565b6101e081525f61193b86876116f1565b60406101e085015261195261022085018284611732565b91505061196260208801886116f1565b8483036101df190161020086015261197b838284611732565b9250505061198c602084018761160e565b84516001600160a01b0390811660e085015260208601518116610100850152604086015181166101208501526060860151811661014085015260808601511661016084015260a08501516119ec6101808501826001600160a01b03169052565b5060c08501516001600160a01b03166101a08401528281036101c0840152611a1481856117a7565b979650505050505050565b803560ff81168114611052575f5ffd5b5f60e08201611a3e838761160e565b60e060c08401528390528361010083015f5b858110156116e6576001600160a01b03611a698461103c565b16825260ff611a7a60208501611a1f565b166020830152604083810135908301526060808401359083015260809283019290910190600101611a50565b634e487b7160e01b5f52603260045260245ffd5b5f823561025e19833603018112611acf575f5ffd5b9190910192915050565b5f611ae43683611122565b92915050565b5f5f8335601e19843603018112611aff575f5ffd5b83016020810192503590506001600160401b03811115611b1d575f5ffd5b8060051b3603821315610f52575f5ffd5b8183526020830192505f815f5b84811015611b6a576001600160a01b03611b548361103c565b1686526020958601959190910190600101611b3b565b5093949350505050565b5f60e08201611b83838761160e565b60e060c0840152839052610100600584901b83018101908301855f60be1936839003015b87821015611c665786850360ff190184528235818112611bc5575f5ffd5b8901803586526020808201359087015260408082013590870152611bec60608201826116f1565b60c06060890152611c0160c089018284611732565b915050611c116080830183611aea565b88830360808a0152611c24838284611b2e565b92505050611c3560a0830183611aea565b925087820360a0890152611c4a828483611b2e565b9750505050602083019250602084019350600182019150611ba7565b509298975050505050505050565b5f60e08201611c83838761160e565b60e060c0840152839052610100600584901b83018101908301855f609e1936839003015b87821015611c665786850360ff190184528235818112611cc5575f5ffd5b890160ff611cd282611a1f565b168652602081810135908701526040808201359087015260608082013590870152611d0060808201826116f1565b915060a06080880152611d1760a088018383611732565b96505050602083019250602084019350600182019150611ca7565b5f60e08201611d41838761160e565b60e060c08401528390528361010083015f5b858110156116e6576001600160a01b03611d6c8461103c565b168252602083810135908301526040808401359083015260609283019290910190600101611d53565b5f60e08201611da4838761160e565b60e060c08401528390528361010083015f5b858110156116e6576001600160a01b03611dcf8461103c565b1682526001600160a01b03611de66020850161103c565b16602083015260409283019290910190600101611db6565b5f60e08201611e0d838761160e565b60e060c08401528390528361010083015f5b858110156116e6576001600160a01b03611e388461103c565b1682526020838101359083015260408084013590830152606080840135908301526080808401359083015260a09283019290910190600101611e1f565b5f60e08201611e84838761160e565b60e060c08401528390528361010083015f5b858110156116e657611ea88284611659565b60c0928301929190910190600101611e96565b5f8251611acf81846020870161175a56fea164736f6c634300081b000a","linkReferences":{}},"methodIdentifiers":{"ATOKEN_IMPL()":"d99ec884","BORROW_ENGINE()":"f1288cbb","CAPS_ENGINE()":"0804799f","COLLATERAL_ENGINE()":"3d5030a3","COLLECTOR()":"3cbadf78","DEFAULT_INTEREST_RATE_STRATEGY()":"6714ddd5","EMODE_ENGINE()":"24155409","LISTING_ENGINE()":"0a4aa3fa","ORACLE()":"38013f02","POOL()":"7535d246","POOL_CONFIGURATOR()":"58725084","PRICE_FEED_ENGINE()":"fafeb574","RATE_ENGINE()":"e36b91ab","REWARDS_CONTROLLER()":"cd086d45","VTOKEN_IMPL()":"3368555c","createEModeCategories((uint256,uint256,uint256,string,address[],address[])[])":"3b2ba2d4","listAssets((string,string),(address,string,address,(uint256,uint256,uint256,uint256),uint256,uint256,uint256,uint256,uint256,uint256,uint256,uint256,uint256,uint256,uint256,uint256)[])":"16727412","listAssetsCustom((string,string),((address,string,address,(uint256,uint256,uint256,uint256),uint256,uint256,uint256,uint256,uint256,uint256,uint256,uint256,uint256,uint256,uint256,uint256),(address,address))[])":"11577d8d","updateAssetsEMode((address,uint8,uint256,uint256)[])":"12146c70","updateBorrowSide((address,uint256,uint256,uint256,uint256,uint256)[])":"f1c2652c","updateCaps((address,uint256,uint256)[])":"55caa163","updateCollateralSide((address,uint256,uint256,uint256,uint256,uint256)[])":"09d83328","updateEModeCategories((uint8,uint256,uint256,uint256,string)[])":"4ee1151a","updatePriceFeeds((address,address)[])":"927c4003","updateRateStrategies((address,(uint256,uint256,uint256,uint256))[])":"b79421eb"},"id":112}