{"abi":[{"type":"constructor","inputs":[{"name":"poolAdmin","type":"address","internalType":"address"},{"name":"config","type":"tuple","internalType":"struct MarketConfig","components":[{"name":"networkBaseTokenPriceInUsdProxyAggregator","type":"address","internalType":"address"},{"name":"marketReferenceCurrencyPriceInUsdProxyAggregator","type":"address","internalType":"address"},{"name":"marketId","type":"string","internalType":"string"},{"name":"oracleDecimals","type":"uint8","internalType":"uint8"},{"name":"paraswapAugustusRegistry","type":"address","internalType":"address"},{"name":"l2SequencerUptimeFeed","type":"address","internalType":"address"},{"name":"l2PriceOracleSentinelGracePeriod","type":"uint256","internalType":"uint256"},{"name":"providerId","type":"uint256","internalType":"uint256"},{"name":"salt","type":"bytes32","internalType":"bytes32"},{"name":"wrappedNativeToken","type":"address","internalType":"address"},{"name":"flashLoanPremium","type":"uint128","internalType":"uint128"},{"name":"incentivesProxy","type":"address","internalType":"address"},{"name":"treasury","type":"address","internalType":"address"},{"name":"treasuryPartner","type":"address","internalType":"address"},{"name":"treasurySplitPercent","type":"uint16","internalType":"uint16"}]},{"name":"poolAddressesProvider","type":"address","internalType":"address"},{"name":"setupBatch","type":"address","internalType":"address"}],"stateMutability":"nonpayable"},{"type":"function","name":"getPeripheryReport","inputs":[],"outputs":[{"name":"","type":"tuple","internalType":"struct PeripheryReport","components":[{"name":"aaveOracle","type":"address","internalType":"address"},{"name":"treasury","type":"address","internalType":"address"},{"name":"treasuryImplementation","type":"address","internalType":"address"},{"name":"emissionManager","type":"address","internalType":"address"},{"name":"rewardsControllerImplementation","type":"address","internalType":"address"},{"name":"revenueSplitter","type":"address","internalType":"address"},{"name":"emptyImplementation","type":"address","internalType":"address"},{"name":"dustBin","type":"address","internalType":"address"}]}],"stateMutability":"view"}],"bytecode":{"object":"0x608060405234801561000f575f5ffd5b5060405161923f38038061923f83398101604081905261002e9161081c565b60608301516100409060ff16836102a6565b5f80546001600160a01b0319166001600160a01b03928316179055610180840151166100dd575f61007c858561010001516102fa60201b60201c565b6020810151600180546001600160a01b03199081166001600160a01b03938416179091558251600280548316918416919091179055606083015160078054831691841691909117905560409092015160068054909316911617905550610103565b610180830151600180546001600160a01b0319166001600160a01b039092169190911790555b6101a08301516001600160a01b03161580159061012857505f836101c0015161ffff16115b801561013e5750612710836101c0015161ffff16105b156101c7576001546101a08401516101c08501516040516001600160a01b039093169261016a9061068b565b6001600160a01b03938416815292909116602083015261ffff166040820152606001604051809103905ff0801580156101a5573d5f5f3e3d5ffd5b50600580546001600160a01b0319166001600160a01b03929092169190911790555b6101608301516001600160a01b0316610217576101e38161060b565b600480546001600160a01b039283166001600160a01b0319918216179091556003805493909216921691909117905561029d565b8261016001516001600160a01b03166392074b086040518163ffffffff1660e01b8152600401602060405180830381865afa158015610258573d5f5f3e3d5ffd5b505050506040513d601f19601f8201168201806040525081019061027c91906109a0565b600380546001600160a01b0319166001600160a01b03929092169190911790555b50505050610bb4565b5f60608183828083806102ba8a600a610ab7565b6040516102c690610698565b6102d596959493929190610b09565b604051809103905ff0801580156102ee573d5f5f3e3d5ffd5b50925050505b92915050565b604080516080810182525f808252602082018190529181018290526060810191909152604080516080810182525f8082526020820181905291810182905260608101919091528280156104b3575f81604051610355906106a5565b8190604051809103905ff5905080158015610372573d5f5f3e3d5ffd5b506001600160a01b0381811680865260408051620186a06024820152928a1660448085019190915281518085039091018152606490930181526020830180516001600160e01b031663da35a26f60e01b179052519293508492909189916103d8906106b2565b6103e493929190610b64565b8190604051809103905ff5905080158015610401573d5f5f3e3d5ffd5b506001600160a01b03166020840152604051829061041e906106bf565b8190604051809103905ff590508015801561043b573d5f5f3e3d5ffd5b506001600160a01b0316604080850182905251839190889061045c906106b2565b6001600160a01b039283168152911660208201526060604082018190525f908201526080018190604051809103905ff590508015801561049e573d5f5f3e3d5ffd5b506001600160a01b0316606084015250610603565b5f6040516104c0906106a5565b604051809103905ff0801580156104d9573d5f5f3e3d5ffd5b506001600160a01b0381811680865260408051620186a06024820152928a1660448085019190915281518085039091018152606490930181526020830180516001600160e01b031663da35a26f60e01b179052519293509188919061053d906106b2565b61054993929190610b64565b604051809103905ff080158015610562573d5f5f3e3d5ffd5b506001600160a01b0316602084015260405161057d906106bf565b604051809103905ff080158015610596573d5f5f3e3d5ffd5b506001600160a01b031660408085018290525187906105b4906106b2565b6001600160a01b039283168152911660208201526060604082018190525f90820152608001604051809103905ff0801580156105f2573d5f5f3e3d5ffd5b506001600160a01b03166060840152505b509392505050565b5f5f5f8360405161061b906106cb565b6001600160a01b039091168152602001604051809103905ff080158015610644573d5f5f3e3d5ffd5b5090505f81604051610655906106d8565b6001600160a01b039091168152602001604051809103905ff08015801561067e573d5f5f3e3d5ffd5b5091959194509092505050565b6108de80610d2283390190565b610d868061160083390190565b611a368061238683390190565b610dc880613dbc83390190565b602f80614b8483390190565b610f4180614bb383390190565b61374b80615af483390190565b80516001600160a01b03811681146106fb575f5ffd5b919050565b634e487b7160e01b5f52604160045260245ffd5b6040516101e081016001600160401b038111828210171561073757610737610700565b60405290565b5f5b8381101561075757818101518382015260200161073f565b50505f910152565b5f82601f83011261076e575f5ffd5b81516001600160401b0381111561078757610787610700565b604051601f8201601f19908116603f011681016001600160401b03811182821017156107b5576107b5610700565b6040528181528382016020018510156107cc575f5ffd5b6107dd82602083016020870161073d565b949350505050565b805160ff811681146106fb575f5ffd5b80516001600160801b03811681146106fb575f5ffd5b805161ffff811681146106fb575f5ffd5b5f5f5f5f6080858703121561082f575f5ffd5b610838856106e5565b60208601519094506001600160401b03811115610853575f5ffd5b85016101e08188031215610865575f5ffd5b61086d610714565b610876826106e5565b8152610884602083016106e5565b602082015260408201516001600160401b038111156108a1575f5ffd5b6108ad8982850161075f565b6040830152506108bf606083016107e5565b60608201526108d0608083016106e5565b60808201526108e160a083016106e5565b60a082015260c0828101519082015260e08083015190820152610100808301519082015261091261012083016106e5565b61012082015261092561014083016107f5565b61014082015261093861016083016106e5565b61016082015261094b61018083016106e5565b61018082015261095e6101a083016106e5565b6101a08201526109716101c0830161080b565b6101c082015293506109879050604086016106e5565b9150610995606086016106e5565b905092959194509250565b5f602082840312156109b0575f5ffd5b6109b9826106e5565b9392505050565b634e487b7160e01b5f52601160045260245ffd5b6001815b6001841115610a0f578085048111156109f3576109f36109c0565b6001841615610a0157908102905b60019390931c9280026109d8565b935093915050565b5f82610a25575060016102f4565b81610a3157505f6102f4565b8160018114610a475760028114610a5157610a6d565b60019150506102f4565b60ff841115610a6257610a626109c0565b50506001821b6102f4565b5060208310610133831016604e8410600b8410161715610a90575081810a6102f4565b610a9c5f1984846109d4565b805f1904821115610aaf57610aaf6109c0565b029392505050565b5f6109b961ffff841683610a17565b5f8151808452602084019350602083015f5b82811015610aff5781516001600160a01b0316865260209586019590910190600101610ad8565b5093949350505050565b6001600160a01b038716815260c0602082018190525f90610b2c90830188610ac6565b8281036040840152610b3e8188610ac6565b6001600160a01b0396871660608501529490951660808301525060a00152949350505050565b60018060a01b038416815260018060a01b0383166020820152606060408201525f8251806060840152610b9e81608085016020870161073d565b601f01601f191691909101608001949350505050565b61016180610bc15f395ff3fe608060405234801561000f575f5ffd5b5060043610610029575f3560e01c8063620b88461461002d575b5f5ffd5b6100d760408051610100810182525f80825260208201819052918101829052606081018290526080810182905260a0810182905260c0810182905260e08101919091525060408051610100810182525f546001600160a01b039081168252600154811660208301526002548116928201929092526003548216606082015260045482166080820152600554821660a0820152600654821660c082015260075490911660e082015290565b60405161014b919081516001600160a01b03908116825260208084015182169083015260408084015182169083015260608084015182169083015260808084015182169083015260a08084015182169083015260c08084015182169083015260e09283015116918101919091526101000190565b60405180910390f3fea164736f6c634300081b000a60e060405234801561000f575f5ffd5b506040516108de3803806108de83398101604081905261002e916100a1565b60015f5561ffff8116158061004957506127108161ffff1610155b15610067576040516307a6a76b60e31b815260040160405180910390fd5b6001600160a01b03928316608052911660a05261ffff1660c0526100eb565b80516001600160a01b038116811461009c575f5ffd5b919050565b5f5f5f606084860312156100b3575f5ffd5b6100bc84610086565b92506100ca60208501610086565b9150604084015161ffff811681146100e0575f5ffd5b809150509250925092565b60805160a05160c0516107a161013d5f395f818160680152818161025f01526103b301525f8181610133015281816102f2015261046301525f818160d40152818161029801526103e901526107a15ff3fe60806040526004361061004c575f3560e01c806330298df414610057578063607ecbea146100a2578063a93aa57e146100c3578063ee8d69a81461010e578063f10d2fd114610122575f5ffd5b3661005357005b5f5ffd5b348015610062575f5ffd5b5061008a7f000000000000000000000000000000000000000000000000000000000000000081565b60405161ffff90911681526020015b60405180910390f35b3480156100ad575f5ffd5b506100c16100bc366004610653565b610155565b005b3480156100ce575f5ffd5b506100f67f000000000000000000000000000000000000000000000000000000000000000081565b6040516001600160a01b039091168152602001610099565b348015610119575f5ffd5b506100c1610343565b34801561012d575f5ffd5b506100f67f000000000000000000000000000000000000000000000000000000000000000081565b60025f54036101ab5760405162461bcd60e51b815260206004820152601f60248201527f5265656e7472616e637947756172643a207265656e7472616e742063616c6c0060448201526064015b60405180910390fd5b60025f9081555b81518160ff16101561033b575f828260ff16815181106101d4576101d461071e565b60209081029190910101516040516370a0823160e01b81523060048201526001600160a01b03909116906370a0823190602401602060405180830381865afa158015610222573d5f5f3e3d5ffd5b505050506040513d601f19601f820116820180604052508101906102469190610732565b9050805f03610255575061032b565b5f6102848261ffff7f0000000000000000000000000000000000000000000000000000000000000000166104cf565b90505f610291828461075d565b90506102ed7f000000000000000000000000000000000000000000000000000000000000000083878760ff16815181106102cd576102cd61071e565b60200260200101516001600160a01b03166104f39092919063ffffffff16565b6103277f000000000000000000000000000000000000000000000000000000000000000082878760ff16815181106102cd576102cd61071e565b5050505b61033481610776565b90506101b2565b505060015f55565b60025f54036103945760405162461bcd60e51b815260206004820152601f60248201527f5265656e7472616e637947756172643a207265656e7472616e742063616c6c0060448201526064016101a2565b60025f90815547908190036103a957506104c9565b5f6103d88261ffff7f0000000000000000000000000000000000000000000000000000000000000000166104cf565b90505f6103e5828461075d565b90507f00000000000000000000000000000000000000000000000000000000000000006001600160a01b0316826040515f6040518083038185875af1925050503d805f811461044f576040519150601f19603f3d011682016040523d82523d5f602084013e610454565b606091505b50506040516001600160a01b037f000000000000000000000000000000000000000000000000000000000000000016915082905f81818185875af1925050503d805f81146104bd576040519150601f19603f3d011682016040523d82523d5f602084013e6104c2565b606091505b5050505050505b60015f55565b5f811561138819839004841115176104e5575f5ffd5b506127109102611388010490565b60405163a9059cbb60e01b8082526001600160a01b038416600483015260248201839052905f8060448382895af161052d573d5f5f3e3d5ffd5b5061053784610581565b61057b5760405162461bcd60e51b815260206004820152601560248201527423a83b191d103330b4b632b2103a3930b739b332b960591b60448201526064016101a2565b50505050565b5f6105a3565b62461bcd60e51b5f52602060045280602452508060445260645ffd5b3d80156105e25760208114610613576105dd7f475076323a206d616c666f726d6564207472616e7366657220726573756c7400601f610587565b61061e565b823b61060a5761060a7311d41d8c8e881b9bdd08184818dbdb9d1c9858dd60621b6014610587565b6001915061061e565b3d5f5f3e5f51151591505b50919050565b634e487b7160e01b5f52604160045260245ffd5b80356001600160a01b038116811461064e575f5ffd5b919050565b5f60208284031215610663575f5ffd5b813567ffffffffffffffff811115610679575f5ffd5b8201601f81018413610689575f5ffd5b803567ffffffffffffffff8111156106a3576106a3610624565b8060051b604051601f19603f830116810181811067ffffffffffffffff821117156106d0576106d0610624565b6040529182526020818401810192908101878411156106ed575f5ffd5b6020850194505b838510156107135761070585610638565b8152602094850194016106f4565b509695505050505050565b634e487b7160e01b5f52603260045260245ffd5b5f60208284031215610742575f5ffd5b5051919050565b634e487b7160e01b5f52601160045260245ffd5b8181038181111561077057610770610749565b92915050565b5f60ff821660ff810361078b5761078b610749565b6001019291505056fea164736f6c634300081b000a60e060405234801561000f575f5ffd5b50604051610d86380380610d8683398101604081905261002e916102eb565b6001600160a01b038616608052610044836100a0565b61004e85856100e9565b6001600160a01b03821660a081905260c08290526040518281527fe27c4c1372396a3d15a9922f74f9dfc7c72b1ad6d63868470787249c356454c19060200160405180910390a25050505050506103a6565b600180546001600160a01b0319166001600160a01b0383169081179091556040517fce7a780d33665b1ea097af5f155e3821b809ecbaa839d3b33aa83ba28168cefb905f90a250565b805182511461010b57604051630d10f63b60e01b815260040160405180910390fd5b5f5b82518110156102085781818151811061012857610128610392565b60200260200101515f5f85848151811061014457610144610392565b60200260200101516001600160a01b03166001600160a01b031681526020019081526020015f205f6101000a8154816001600160a01b0302191690836001600160a01b031602179055508181815181106101a0576101a0610392565b60200260200101516001600160a01b03168382815181106101c3576101c3610392565b60200260200101516001600160a01b03167f22c5b7b2d8561d39f7f210b6b326a1aa69f15311163082308ac4877db6339dc160405160405180910390a360010161010d565b505050565b6001600160a01b0381168114610221575f5ffd5b50565b634e487b7160e01b5f52604160045260245ffd5b80516102438161020d565b919050565b5f82601f830112610257575f5ffd5b81516001600160401b0381111561027057610270610224565b604051600582901b90603f8201601f191681016001600160401b038111828210171561029e5761029e610224565b6040529182526020818501810192908101868411156102bb575f5ffd5b6020860192505b838310156102e1576102d383610238565b8152602092830192016102c2565b5095945050505050565b5f5f5f5f5f5f60c08789031215610300575f5ffd5b865161030b8161020d565b60208801519096506001600160401b03811115610326575f5ffd5b61033289828a01610248565b604089015190965090506001600160401b0381111561034f575f5ffd5b61035b89828a01610248565b945050606087015161036c8161020d565b608088015190935061037d8161020d565b8092505060a087015190509295509295509295565b634e487b7160e01b5f52603260045260245ffd5b60805160a05160c0516109a26103e45f395f8181610103015261034d01525f81816101a9015261032201525f8181609901526104dc01526109a25ff3fe608060405234801561000f575f5ffd5b5060043610610090575f3560e01c806392bf2be01161006357806392bf2be0146101335780639d23d9f21461015e578063abfd53101461017e578063b3596f0714610191578063e19f4700146101a4575f5ffd5b80630542975c14610094578063170aee73146100d85780636210308c146100ed5780638c89b64f146100fe575b5f5ffd5b6100bb7f000000000000000000000000000000000000000000000000000000000000000081565b6040516001600160a01b0390911681526020015b60405180910390f35b6100eb6100e63660046107cc565b6101cb565b005b6001546001600160a01b03166100bb565b6101257f000000000000000000000000000000000000000000000000000000000000000081565b6040519081526020016100cf565b6100bb6101413660046107cc565b6001600160a01b039081165f908152602081905260409020541690565b61017161016c36600461082f565b6101df565b6040516100cf919061086e565b6100eb61018c3660046108b0565b610288565b61012561019f3660046107cc565b610301565b6100bb7f000000000000000000000000000000000000000000000000000000000000000081565b6101d36104d9565b6101dc8161064b565b50565b60605f8267ffffffffffffffff8111156101fb576101fb61091c565b604051908082528060200260200182016040528015610224578160200160208202803683370190505b5090505f5b838110156102805761025b85858381811061024657610246610930565b905060200201602081019061019f91906107cc565b82828151811061026d5761026d610930565b6020908102919091010152600101610229565b509392505050565b6102906104d9565b6102fb8484808060200260200160405190810160405280939291908181526020018383602002808284375f92019190915250506040805160208088028281018201909352878252909350879250869182918501908490808284375f9201919091525061069492505050565b50505050565b6001600160a01b038082165f818152602081905260408120549092908116917f0000000000000000000000000000000000000000000000000000000000000000909116900361037257507f000000000000000000000000000000000000000000000000000000000000000092915050565b6001600160a01b0381166103f35760015460405163b3596f0760e01b81526001600160a01b0385811660048301529091169063b3596f0790602401602060405180830381865afa1580156103c8573d5f5f3e3d5ffd5b505050506040513d601f19601f820116820180604052508101906103ec9190610944565b9392505050565b5f816001600160a01b03166350d25bcd6040518163ffffffff1660e01b8152600401602060405180830381865afa158015610430573d5f5f3e3d5ffd5b505050506040513d601f19601f820116820180604052508101906104549190610944565b90505f811315610465579392505050565b60015460405163b3596f0760e01b81526001600160a01b0386811660048301529091169063b3596f0790602401602060405180830381865afa1580156104ad573d5f5f3e3d5ffd5b505050506040513d601f19601f820116820180604052508101906104d19190610944565b949350505050565b5f7f00000000000000000000000000000000000000000000000000000000000000006001600160a01b031663707cd7166040518163ffffffff1660e01b8152600401602060405180830381865afa158015610536573d5f5f3e3d5ffd5b505050506040513d601f19601f8201168201806040525081019061055a919061095b565b604051629f719760e51b81523360048201529091506001600160a01b038216906313ee32e090602401602060405180830381865afa15801561059e573d5f5f3e3d5ffd5b505050506040513d601f19601f820116820180604052508101906105c29190610976565b8061062e5750604051637be53ca160e01b81523360048201526001600160a01b03821690637be53ca190602401602060405180830381865afa15801561060a573d5f5f3e3d5ffd5b505050506040513d601f19601f8201168201806040525081019061062e9190610976565b6101dc57604051630e8e140f60e21b815260040160405180910390fd5b600180546001600160a01b0319166001600160a01b0383169081179091556040517fce7a780d33665b1ea097af5f155e3821b809ecbaa839d3b33aa83ba28168cefb905f90a250565b80518251146106b657604051630d10f63b60e01b815260040160405180910390fd5b5f5b82518110156107b3578181815181106106d3576106d3610930565b60200260200101515f5f8584815181106106ef576106ef610930565b60200260200101516001600160a01b03166001600160a01b031681526020019081526020015f205f6101000a8154816001600160a01b0302191690836001600160a01b0316021790555081818151811061074b5761074b610930565b60200260200101516001600160a01b031683828151811061076e5761076e610930565b60200260200101516001600160a01b03167f22c5b7b2d8561d39f7f210b6b326a1aa69f15311163082308ac4877db6339dc160405160405180910390a36001016106b8565b505050565b6001600160a01b03811681146101dc575f5ffd5b5f602082840312156107dc575f5ffd5b81356103ec816107b8565b5f5f83601f8401126107f7575f5ffd5b50813567ffffffffffffffff81111561080e575f5ffd5b6020830191508360208260051b8501011115610828575f5ffd5b9250929050565b5f5f60208385031215610840575f5ffd5b823567ffffffffffffffff811115610856575f5ffd5b610862858286016107e7565b90969095509350505050565b602080825282518282018190525f918401906040840190835b818110156108a5578351835260209384019390920191600101610887565b509095945050505050565b5f5f5f5f604085870312156108c3575f5ffd5b843567ffffffffffffffff8111156108d9575f5ffd5b6108e5878288016107e7565b909550935050602085013567ffffffffffffffff811115610904575f5ffd5b610910878288016107e7565b95989497509550505050565b634e487b7160e01b5f52604160045260245ffd5b634e487b7160e01b5f52603260045260245ffd5b5f60208284031215610954575f5ffd5b5051919050565b5f6020828403121561096b575f5ffd5b81516103ec816107b8565b5f60208284031215610986575f5ffd5b815180151581146103ec575f5ffdfea164736f6c634300081b000a6080604052348015600e575f5ffd5b5060156019565b60c9565b7ff0c57e16840df040f15088dc2f81fe391c3923bec73e23a9662efc9c229c6a00805468010000000000000000900460ff161560685760405163f92ee8a960e01b815260040160405180910390fd5b80546001600160401b039081161460c65780546001600160401b0319166001600160401b0390811782556040519081527fc7f505b2f371ae2175ee4913f4499e1f2633a7b5936321eed1cdaeb6115181d29060200160405180910390a15b50565b611960806100d65f395ff3fe60806040526004361061011e575f3560e01c806391d148541161009d578063cc1b4bf611610062578063cc1b4bf614610371578063d547741f14610390578063da35a26f146103af578063e1f21c67146103ce578063f501148c146103ed575f5ffd5b806391d14854146102e057806397713592146102ff578063a217fddf14610320578063a82ccd4d14610333578063beabacc814610352575f5ffd5b80633656eec2116100e35780633656eec2146101da57806351ee886b146101f95780636db9241b146102385780637a9b2c6c14610257578063894e9a0d14610276575f5ffd5b806301ffc9a7146101295780630932f92b1461015d578063248a9ca31461017b5780632f2ff15d1461019a57806336568abe146101bb575f5ffd5b3661012557005b5f5ffd5b348015610134575f5ffd5b50610148610143366004611735565b61040c565b60405190151581526020015b60405180910390f35b348015610168575f5ffd5b506035545b604051908152602001610154565b348015610186575f5ffd5b5061016d610195366004611763565b610442565b3480156101a5575f5ffd5b506101b96101b436600461178e565b610462565b005b3480156101c6575f5ffd5b506101b96101d536600461178e565b610484565b3480156101e5575f5ffd5b5061016d6101f436600461178e565b6104bc565b348015610204575f5ffd5b5061022073eeeeeeeeeeeeeeeeeeeeeeeeeeeeeeeeeeeeeeee81565b6040516001600160a01b039091168152602001610154565b348015610243575f5ffd5b50610148610252366004611763565b61065f565b348015610262575f5ffd5b506101486102713660046117bc565b6108a4565b348015610281575f5ffd5b50610295610290366004611763565b610b24565b604080516001600160a01b03998a1681529789166020890152870195909552959092166060850152608084015260a083015260c082019290925260e081019190915261010001610154565b3480156102eb575f5ffd5b506101486102fa36600461178e565b610bc7565b34801561030a575f5ffd5b5061016d6a232aa72229afa0a226a4a760a91b81565b34801561032b575f5ffd5b5061016d5f81565b34801561033e575f5ffd5b5061016d61034d366004611763565b610bfd565b34801561035d575f5ffd5b506101b961036c3660046117dc565b610d16565b34801561037c575f5ffd5b5061016d61038b36600461181a565b610db2565b34801561039b575f5ffd5b506101b96103aa36600461178e565b611104565b3480156103ba575f5ffd5b506101b96103c936600461178e565b611120565b3480156103d9575f5ffd5b506101b96103e83660046117dc565b611266565b3480156103f8575f5ffd5b50610148610407366004611868565b6112a3565b5f6001600160e01b03198216637965db0b60e01b148061043c57506301ffc9a760e01b6001600160e01b03198316145b92915050565b5f9081525f5160206119145f395f51905f52602052604090206001015490565b61046b82610442565b610474816112bc565b61047e83836112c9565b50505050565b6001600160a01b03811633146104ad5760405163334bd91960e11b815260040160405180910390fd5b6104b7828261136a565b505050565b5f828152603660205260408120600701548390600160a01b900460ff166104f65760405163314c062560e21b815260040160405180910390fd5b5f8481526036602090815260408083208151610120810183528154815260018201548185015260028201548184015260038201546060808301919091526004830154608083015260058301546001600160a01b0390811660a08401526006840154811660c084015260079093015492831660e0830152600160a01b90920460ff1615156101008201528251918201835284825292810184905290810192909252905f6105a187610bfd565b90508260200151816105b39190611897565b82526040830151835111156105e957604083015183516105d391906118ae565b6020830181905282516105e691906118ae565b82525b8260a001516001600160a01b0316866001600160a01b03160361061157505192506106589050565b8260c001516001600160a01b0316866001600160a01b031603610651578151604084015161063f91906118ae565b60409092018290525092506106589050565b5f94505050505b5092915050565b5f6106686113e3565b5f828152603660205260409020600701548290600160a01b900460ff166106a25760405163314c062560e21b815260040160405180910390fd5b826106ab61141a565b1580156106d157505f818152603660205260409020600501546001600160a01b03163314155b156106ef576040516358c6353d60e11b815260040160405180910390fd5b5f84815260366020908152604080832081516101208101835281548152600182015493810193909352600281015491830191909152600381015460608301526004810154608083015260058101546001600160a01b0390811660a08401526006820154811660c0840181905260079092015490811660e0840152600160a01b900460ff1615156101008301529091906107899087906104bc565b90505f61079a878460a001516104bc565b5f88815260366020526040812081815560018101829055600281018290556003810182905560048101919091556005810180546001600160a01b0319908116909155600682018054909116905560070180546001600160a81b031916905560e084015190915081156108205760a0840151610820906001600160a01b0383169084611438565b8360a001516001600160a01b03168460c001516001600160a01b0316897fca3e6079b726e7728802a0537949e2d1c7762304fa641fb06eb56daf2ba8c6b98686604051610877929190918252602082015260400190565b60405180910390a46001965050505050505061089f60015f5160206119345f395f51905f5255565b919050565b5f6108ad6113e3565b5f838152603660205260409020600701548390600160a01b900460ff166108e75760405163314c062560e21b815260040160405180910390fd5b836108f061141a565b15801561091657505f818152603660205260409020600501546001600160a01b03163314155b15610934576040516358c6353d60e11b815260040160405180910390fd5b835f0361095457604051630dd484e760e41b815260040160405180910390fd5b5f85815260366020908152604080832081516101208101835281548152600182015493810193909352600281015491830191909152600381015460608301526004810154608083015260058101546001600160a01b0390811660a084018190526006830154821660c085015260079092015490811660e0840152600160a01b900460ff1615156101008301529091906109ee9088906104bc565b905085811015610a1157604051634d9d73a360e01b815260040160405180910390fd5b858260400151610a2191906118ae565b5f88815260366020526040812060020182905503610a98575f87815260366020526040812081815560018101829055600281018290556003810182905560048101919091556005810180546001600160a01b0319908116909155600682018054909116905560070180546001600160a81b03191690555b610abe8260a00151878460e001516001600160a01b03166114389092919063ffffffff16565b8160a001516001600160a01b0316877f36c3ab437e6a424ed25dc4bfdeb62706aa06558660fab2dab229d2555adaf89c88604051610afe91815260200190565b60405180910390a3600194505050505061043c60015f5160206119345f395f51905f5255565b5f5f5f5f5f5f5f5f8860365f8281526020019081526020015f2060070160149054906101000a900460ff16610b6c5760405163314c062560e21b815260040160405180910390fd5b5050505f968752505060366020525050604090922060068101546005820154825460078401546003850154600486015460028701546001909701546001600160a01b039687169a958716995093975091909416949092909190565b5f9182525f5160206119145f395f51905f52602090815260408084206001600160a01b0393909316845291905290205460ff1690565b5f818152603660205260408120600701548290600160a01b900460ff16610c375760405163314c062560e21b815260040160405180910390fd5b5f83815260366020908152604091829020825161012081018452815481526001820154928101929092526002810154928201929092526003820154606082018190526004830154608083015260058301546001600160a01b0390811660a08401526006840154811660c084015260079093015492831660e0830152600160a01b90920460ff161515610100820152904211610cd5575f925050610d10565b8060800151421015610cf8576060810151610cf090426118ae565b925050610d10565b80606001518160800151610d0c91906118ae565b9250505b50919050565b610d1e61141a565b15155f03610d3f5760405163277cf38160e01b815260040160405180910390fd5b6001600160a01b038216610d665760405163f6b2911f60e01b815260040160405180910390fd5b73eeeeeeeeeeeeeeeeeeeeeeeeeeeeeeeeeeeeeeed196001600160a01b03841601610d9e576104b76001600160a01b038316826114aa565b6104b76001600160a01b0384168383611438565b5f610dbb61141a565b15155f03610ddc5760405163277cf38160e01b815260040160405180910390fd5b6001600160a01b038616610e035760405163f6b2911f60e01b815260040160405180910390fd5b306001600160a01b03871603610e2c57604051634e46966960e11b815260040160405180910390fd5b336001600160a01b03871603610e5557604051634e46966960e11b815260040160405180910390fd5b845f03610e7557604051630dd484e760e41b815260040160405180910390fd5b42831015610e9657604051632ca4094f60e21b815260040160405180910390fd5b828211610eb657604051635f5ab34960e01b815260040160405180910390fd5b604080518082019091525f8082526020820152610ed384846118ae565b808252861015610ef65760405163c4e1993b60e01b815260040160405180910390fd5b80515f90610f0490886118d5565b1115610f2357604051636b3cc5b760e11b815260040160405180910390fd5b8051610f2f90876118e8565b8160200181815250505f603554905060405180610120016040528088815260200183602001518152602001888152602001868152602001858152602001896001600160a01b03168152602001306001600160a01b03168152602001876001600160a01b031681526020016001151581525060365f8381526020019081526020015f205f820151815f01556020820151816001015560408201518160020155606082015181600301556080820151816004015560a0820151816005015f6101000a8154816001600160a01b0302191690836001600160a01b0316021790555060c0820151816006015f6101000a8154816001600160a01b0302191690836001600160a01b0316021790555060e0820151816007015f6101000a8154816001600160a01b0302191690836001600160a01b031602179055506101008201518160070160146101000a81548160ff02191690831515021790555090505060355f81548092919061109b906118fb565b9091555050604080518881526001600160a01b0388811660208301529181018790526060810186905290891690309083907f7b01d409597969366dc268d7f957a990d1ca3d3449baf8fb45db67351aecfe789060800160405180910390a4979650505050505050565b61110d82610442565b611116816112bc565b61047e838361136a565b7ff0c57e16840df040f15088dc2f81fe391c3923bec73e23a9662efc9c229c6a008054600160401b810460ff16159067ffffffffffffffff165f811580156111655750825b90505f8267ffffffffffffffff1660011480156111815750303b155b90508115801561118f575080155b156111ad5760405163f92ee8a960e01b815260040160405180910390fd5b845467ffffffffffffffff1916600117855583156111d757845460ff60401b1916600160401b1785555b6111df611549565b6111e7611553565b6111f15f876112c9565b5061120a6a232aa72229afa0a226a4a760a91b876112c9565b5086156112175760358790555b831561125d57845460ff60401b19168555604051600181527fc7f505b2f371ae2175ee4913f4499e1f2633a7b5936321eed1cdaeb6115181d29060200160405180910390a15b50505050505050565b61126e61141a565b15155f0361128f5760405163277cf38160e01b815260040160405180910390fd5b6104b76001600160a01b0384168383611563565b5f61043c6a232aa72229afa0a226a4a760a91b83610bc7565b6112c681336115f2565b50565b5f5f5160206119145f395f51905f526112e28484610bc7565b611361575f848152602082815260408083206001600160a01b03871684529091529020805460ff191660011790556113173390565b6001600160a01b0316836001600160a01b0316857f2f8788117e7eff1d82e926ec794901d17c78024a50270940304540a733656f0d60405160405180910390a4600191505061043c565b5f91505061043c565b5f5f5160206119145f395f51905f526113838484610bc7565b15611361575f848152602082815260408083206001600160a01b0387168085529252808320805460ff1916905551339287917ff6391f5c32d9c69d2a47ea670b442974b53935d1edc7fd64eb21e047a839171b9190a4600191505061043c565b5f5160206119345f395f51905f5280546001190161141457604051633ee5aeb560e01b815260040160405180910390fd5b60029055565b5f6114336a232aa72229afa0a226a4a760a91b33610bc7565b905090565b6040516001600160a01b038381166024830152604482018390526104b791859182169063a9059cbb906064015b604051602081830303815290604052915060e01b6020820180516001600160e01b03838183161783525050505061162f565b60015f5160206119345f395f51905f5255565b804710156114d95760405163cf47918160e01b8152476004820152602481018290526044015b60405180910390fd5b5f826001600160a01b0316826040515f6040518083038185875af1925050503d805f8114611522576040519150601f19603f3d011682016040523d82523d5f602084013e611527565b606091505b50509050806104b75760405163d6bda27560e01b815260040160405180910390fd5b61155161169b565b565b61155b61169b565b6115516116e4565b604080516001600160a01b038416602482015260448082018490528251808303909101815260649091019091526020810180516001600160e01b031663095ea7b360e01b1790526115b484826116ec565b61047e576040516001600160a01b0384811660248301525f60448301526115e891869182169063095ea7b390606401611465565b61047e848261162f565b6115fc8282610bc7565b61162b5760405163e2517d3f60e01b81526001600160a01b0382166004820152602481018390526044016114d0565b5050565b5f5f60205f8451602086015f885af18061164e576040513d5f823e3d81fd5b50505f513d91508115611665578060011415611672565b6001600160a01b0384163b155b1561047e57604051635274afe760e01b81526001600160a01b03851660048201526024016114d0565b7ff0c57e16840df040f15088dc2f81fe391c3923bec73e23a9662efc9c229c6a0054600160401b900460ff1661155157604051631afcd79f60e31b815260040160405180910390fd5b61149761169b565b5f5f5f5f60205f8651602088015f8a5af192503d91505f51905082801561172b5750811561171d578060011461172b565b5f866001600160a01b03163b115b9695505050505050565b5f60208284031215611745575f5ffd5b81356001600160e01b03198116811461175c575f5ffd5b9392505050565b5f60208284031215611773575f5ffd5b5035919050565b6001600160a01b03811681146112c6575f5ffd5b5f5f6040838503121561179f575f5ffd5b8235915060208301356117b18161177a565b809150509250929050565b5f5f604083850312156117cd575f5ffd5b50508035926020909101359150565b5f5f5f606084860312156117ee575f5ffd5b83356117f98161177a565b925060208401356118098161177a565b929592945050506040919091013590565b5f5f5f5f5f60a0868803121561182e575f5ffd5b85356118398161177a565b94506020860135935060408601356118508161177a565b94979396509394606081013594506080013592915050565b5f60208284031215611878575f5ffd5b813561175c8161177a565b634e487b7160e01b5f52601160045260245ffd5b808202811582820484141761043c5761043c611883565b8181038181111561043c5761043c611883565b634e487b7160e01b5f52601260045260245ffd5b5f826118e3576118e36118c1565b500690565b5f826118f6576118f66118c1565b500490565b5f6001820161190c5761190c611883565b506001019056fe02dd7bc7dec4dceedda775e58dd541e08a116c6c53815c0bd028192f7b6268009b779b17422d0df92223018b32b4d1fa46e071723d6817e2486d003becc55f00a164736f6c634300081b000a60a0604052604051610dc8380380610dc88339810160408190526100229161038c565b828161002e828261008c565b50508160405161003d9061032e565b6001600160a01b039091168152602001604051809103905ff080158015610066573d5f5f3e3d5ffd5b506001600160a01b031660805261008461007f60805190565b6100ea565b505050610477565b61009582610157565b6040516001600160a01b038316907fbc7cd75a20ee27fd9adebab32041f755214dbc6bffa90cc0225b39da2e5c2d3b905f90a28051156100de576100d982826101d5565b505050565b6100e6610248565b5050565b7f7e644d79422f17c01e4894b5f4f588d331ebfa28653d42ae832dc59e38c9798f6101295f516020610da85f395f51905f52546001600160a01b031690565b604080516001600160a01b03928316815291841660208301520160405180910390a161015481610269565b50565b806001600160a01b03163b5f0361019157604051634c9c8ce360e01b81526001600160a01b03821660048201526024015b60405180910390fd5b807f360894a13ba1a3210667c828492db98dca3e2076cc3735a920a3ca505d382bbc5b80546001600160a01b0319166001600160a01b039290921691909117905550565b60605f5f846001600160a01b0316846040516101f1919061045c565b5f60405180830381855af49150503d805f8114610229576040519150601f19603f3d011682016040523d82523d5f602084013e61022e565b606091505b50909250905061023f8583836102a6565b95945050505050565b34156102675760405163b398979f60e01b815260040160405180910390fd5b565b6001600160a01b03811661029257604051633173bdd160e11b81525f6004820152602401610188565b805f516020610da85f395f51905f526101b4565b6060826102bb576102b682610305565b6102fe565b81511580156102d257506001600160a01b0384163b155b156102fb57604051639996b31560e01b81526001600160a01b0385166004820152602401610188565b50805b9392505050565b8051156103155780518082602001fd5b60405163d6bda27560e01b815260040160405180910390fd5b6104d2806108d683390190565b80516001600160a01b0381168114610351575f5ffd5b919050565b634e487b7160e01b5f52604160045260245ffd5b5f5b8381101561038457818101518382015260200161036c565b50505f910152565b5f5f5f6060848603121561039e575f5ffd5b6103a78461033b565b92506103b56020850161033b565b60408501519092506001600160401b038111156103d0575f5ffd5b8401601f810186136103e0575f5ffd5b80516001600160401b038111156103f9576103f9610356565b604051601f8201601f19908116603f011681016001600160401b038111828210171561042757610427610356565b60405281815282820160200188101561043e575f5ffd5b61044f82602083016020860161036a565b8093505050509250925092565b5f825161046d81846020870161036a565b9190910192915050565b60805161044861048e5f395f601001526104485ff3fe608060405261000c61000e565b005b7f00000000000000000000000000000000000000000000000000000000000000006001600160a01b0316330361007a575f356001600160e01b03191663278f794360e11b14610070576040516334ad5dbb60e21b815260040160405180910390fd5b610078610082565b565b6100786100b0565b5f806100913660048184610303565b81019061009e919061033e565b915091506100ac82826100c0565b5050565b6100786100bb61011a565b610151565b6100c98261016f565b6040516001600160a01b038316907fbc7cd75a20ee27fd9adebab32041f755214dbc6bffa90cc0225b39da2e5c2d3b905f90a28051156101125761010d82826101ea565b505050565b6100ac61025c565b5f61014c7f360894a13ba1a3210667c828492db98dca3e2076cc3735a920a3ca505d382bbc546001600160a01b031690565b905090565b365f5f375f5f365f845af43d5f5f3e80801561016b573d5ff35b3d5ffd5b806001600160a01b03163b5f036101a957604051634c9c8ce360e01b81526001600160a01b03821660048201526024015b60405180910390fd5b7f360894a13ba1a3210667c828492db98dca3e2076cc3735a920a3ca505d382bbc80546001600160a01b0319166001600160a01b0392909216919091179055565b60605f5f846001600160a01b031684604051610206919061040f565b5f60405180830381855af49150503d805f811461023e576040519150601f19603f3d011682016040523d82523d5f602084013e610243565b606091505b509150915061025385838361027b565b95945050505050565b34156100785760405163b398979f60e01b815260040160405180910390fd5b6060826102905761028b826102da565b6102d3565b81511580156102a757506001600160a01b0384163b155b156102d057604051639996b31560e01b81526001600160a01b03851660048201526024016101a0565b50805b9392505050565b8051156102ea5780518082602001fd5b60405163d6bda27560e01b815260040160405180910390fd5b5f5f85851115610311575f5ffd5b8386111561031d575f5ffd5b5050820193919092039150565b634e487b7160e01b5f52604160045260245ffd5b5f5f6040838503121561034f575f5ffd5b82356001600160a01b0381168114610365575f5ffd5b9150602083013567ffffffffffffffff811115610380575f5ffd5b8301601f81018513610390575f5ffd5b803567ffffffffffffffff8111156103aa576103aa61032a565b604051601f8201601f19908116603f0116810167ffffffffffffffff811182821017156103d9576103d961032a565b6040528181528282016020018710156103f0575f5ffd5b816020840160208301375f602083830101528093505050509250929050565b5f82515f5b8181101561042e5760208186018101518583015201610414565b505f92019182525091905056fea164736f6c634300081b000a6080604052348015600e575f5ffd5b506040516104d23803806104d2833981016040819052602b9160b4565b806001600160a01b038116605857604051631e4fbdf760e01b81525f600482015260240160405180910390fd5b605f816065565b505060df565b5f80546001600160a01b038381166001600160a01b0319831681178455604051919092169283917f8be0079c531659141344cd1fd0a4f28419497f9722a3daafe3b4186f6b6457e09190a35050565b5f6020828403121560c3575f5ffd5b81516001600160a01b038116811460d8575f5ffd5b9392505050565b6103e6806100ec5f395ff3fe608060405260043610610049575f3560e01c8063715018a61461004d5780638da5cb5b146100635780639623609d1461008e578063ad3cb1cc146100a1578063f2fde38b146100de575b5f5ffd5b348015610058575f5ffd5b506100616100fd565b005b34801561006e575f5ffd5b505f546040516001600160a01b0390911681526020015b60405180910390f35b61006161009c366004610260565b610110565b3480156100ac575f5ffd5b506100d1604051806040016040528060058152602001640352e302e360dc1b81525081565b604051610085919061037a565b3480156100e9575f5ffd5b506100616100f8366004610393565b61017b565b6101056101bd565b61010e5f6101e9565b565b6101186101bd565b60405163278f794360e11b81526001600160a01b03841690634f1ef28690349061014890869086906004016103ae565b5f604051808303818588803b15801561015f575f5ffd5b505af1158015610171573d5f5f3e3d5ffd5b5050505050505050565b6101836101bd565b6001600160a01b0381166101b157604051631e4fbdf760e01b81525f60048201526024015b60405180910390fd5b6101ba816101e9565b50565b5f546001600160a01b0316331461010e5760405163118cdaa760e01b81523360048201526024016101a8565b5f80546001600160a01b038381166001600160a01b0319831681178455604051919092169283917f8be0079c531659141344cd1fd0a4f28419497f9722a3daafe3b4186f6b6457e09190a35050565b6001600160a01b03811681146101ba575f5ffd5b634e487b7160e01b5f52604160045260245ffd5b5f5f5f60608486031215610272575f5ffd5b833561027d81610238565b9250602084013561028d81610238565b9150604084013567ffffffffffffffff8111156102a8575f5ffd5b8401601f810186136102b8575f5ffd5b803567ffffffffffffffff8111156102d2576102d261024c565b604051601f8201601f19908116603f0116810167ffffffffffffffff811182821017156103015761030161024c565b604052818152828201602001881015610318575f5ffd5b816020840160208301375f602083830101528093505050509250925092565b5f81518084525f5b8181101561035b5760208185018101518683018201520161033f565b505f602082860101526020601f19601f83011685010191505092915050565b602081525f61038c6020830184610337565b9392505050565b5f602082840312156103a3575f5ffd5b813561038c81610238565b6001600160a01b03831681526040602082018190525f906103d190830184610337565b94935050505056fea164736f6c634300081b000ab53127684a568b3173ae13b9f8a6016e243e63b6e8ee1178d6a717850b5d61036080604052348015600e575f5ffd5b50601580601a5f395ff3fe60806040525f5ffdfea164736f6c634300081b000a608060405234801561000f575f5ffd5b50604051610f41380380610f4183398101604081905261002e91610173565b5f80546001600160a01b031916339081178255604051909182915f516020610f215f395f51905f52908290a3506100648161006a565b506101a0565b5f546001600160a01b031633146100c85760405162461bcd60e51b815260206004820181905260248201527f4f776e61626c653a2063616c6c6572206973206e6f7420746865206f776e657260448201526064015b60405180910390fd5b6001600160a01b03811661012d5760405162461bcd60e51b815260206004820152602660248201527f4f776e61626c653a206e6577206f776e657220697320746865207a65726f206160448201526564647265737360d01b60648201526084016100bf565b5f80546040516001600160a01b03808516939216915f516020610f215f395f51905f5291a35f80546001600160a01b0319166001600160a01b0392909216919091179055565b5f60208284031215610183575f5ffd5b81516001600160a01b0381168114610199575f5ffd5b9392505050565b610d74806101ad5f395ff3fe608060405234801561000f575f5ffd5b50600436106100cb575f3560e01c8063bee36bb311610088578063e15ac62311610063578063e15ac623146101a0578063f2fde38b146101b3578063f5cf673b146101c6578063f996868b146101d9575f5ffd5b8063bee36bb314610169578063c5a7b5381461017c578063de2627381461018f575f5ffd5b8063529b1e87146100cf5780635453ba1014610116578063715018a61461012b5780638da5cb5b14610133578063955c2ad714610143578063a286c6b414610156575b5f5ffd5b6100fa6100dd36600461085c565b6001600160a01b039081165f908152600160205260409020541690565b6040516001600160a01b03909116815260200160405180910390f35b61012961012436600461087e565b6101ec565b005b610129610297565b5f546001600160a01b03166100fa565b610129610151366004610950565b610308565b61012961016436600461087e565b6103e3565b61012961017736600461085c565b61046f565b61012961018a366004610a80565b6104ba565b6002546001600160a01b03166100fa565b6101296101ae36600461087e565b610568565b6101296101c136600461085c565b6105dc565b6101296101d436600461087e565b6106c3565b6101296101e7366004610b0c565b610752565b6001600160a01b038281165f90815260016020526040902054839116331461022f5760405162461bcd60e51b815260040161022690610b8e565b60405180910390fd5b6002546040516305453ba160e41b81526001600160a01b038581166004830152848116602483015290911690635453ba10906044015b5f604051808303815f87803b15801561027c575f5ffd5b505af115801561028e573d5f5f3e3d5ffd5b50505050505050565b5f546001600160a01b031633146102c05760405162461bcd60e51b815260040161022690610bbb565b5f80546040516001600160a01b03909116907f8be0079c531659141344cd1fd0a4f28419497f9722a3daafe3b4186f6b6457e0908390a35f80546001600160a01b0319169055565b5f5b815181101561038257336001600160a01b031660015f84848151811061033257610332610bf0565b602090810291909101810151608001516001600160a01b039081168352908201929092526040015f2054161461037a5760405162461bcd60e51b815260040161022690610b8e565b60010161030a565b5060025460405163955c2ad760e01b81526001600160a01b039091169063955c2ad7906103b3908490600401610c04565b5f604051808303815f87803b1580156103ca575f5ffd5b505af11580156103dc573d5f5f3e3d5ffd5b5050505050565b5f546001600160a01b0316331461040c5760405162461bcd60e51b815260040161022690610bbb565b6001600160a01b038083165f8181526001602052604080822080548686166001600160a01b0319821681179092559151919094169392849290917fda40ea421dd7e42cf8be71255facac4fdc12a3f70f4d5fd373cb16cec4cb53849190a4505050565b5f546001600160a01b031633146104985760405162461bcd60e51b815260040161022690610bbb565b600280546001600160a01b0319166001600160a01b0392909216919091179055565b6001600160a01b038281165f9081526001602052604090205483911633146104f45760405162461bcd60e51b815260040161022690610b8e565b6002546040516318b4f6a760e31b81526001600160a01b038681166004830152858116602483015263ffffffff851660448301529091169063c5a7b538906064015f604051808303815f87803b15801561054c575f5ffd5b505af115801561055e573d5f5f3e3d5ffd5b5050505050505050565b6001600160a01b038281165f9081526001602052604090205483911633146105a25760405162461bcd60e51b815260040161022690610b8e565b60025460405163e15ac62360e01b81526001600160a01b03858116600483015284811660248301529091169063e15ac62390604401610265565b5f546001600160a01b031633146106055760405162461bcd60e51b815260040161022690610bbb565b6001600160a01b03811661066a5760405162461bcd60e51b815260206004820152602660248201527f4f776e61626c653a206e6577206f776e657220697320746865207a65726f206160448201526564647265737360d01b6064820152608401610226565b5f80546040516001600160a01b03808516939216917f8be0079c531659141344cd1fd0a4f28419497f9722a3daafe3b4186f6b6457e091a35f80546001600160a01b0319166001600160a01b0392909216919091179055565b5f546001600160a01b031633146106ec5760405162461bcd60e51b815260040161022690610bbb565b60025460405163f5cf673b60e01b81526001600160a01b03848116600483015283811660248301529091169063f5cf673b906044015f604051808303815f87803b158015610738575f5ffd5b505af115801561074a573d5f5f3e3d5ffd5b505050505050565b5f5b838110156107c8573360015f87878581811061077257610772610bf0565b9050602002016020810190610787919061085c565b6001600160a01b03908116825260208201929092526040015f205416146107c05760405162461bcd60e51b815260040161022690610b8e565b600101610754565b5060025460405163f996868b60e01b81526001600160a01b039091169063f996868b906108019088908890889088908890600401610cc0565b5f604051808303815f87803b158015610818575f5ffd5b505af115801561082a573d5f5f3e3d5ffd5b505050505050505050565b6001600160a01b0381168114610849575f5ffd5b50565b803561085781610835565b919050565b5f6020828403121561086c575f5ffd5b813561087781610835565b9392505050565b5f5f6040838503121561088f575f5ffd5b823561089a81610835565b915060208301356108aa81610835565b809150509250929050565b634e487b7160e01b5f52604160045260245ffd5b60405160e0810167ffffffffffffffff811182821017156108ec576108ec6108b5565b60405290565b604051601f8201601f1916810167ffffffffffffffff8111828210171561091b5761091b6108b5565b604052919050565b80356affffffffffffffffffffff81168114610857575f5ffd5b803563ffffffff81168114610857575f5ffd5b5f60208284031215610960575f5ffd5b813567ffffffffffffffff811115610976575f5ffd5b8201601f81018413610986575f5ffd5b803567ffffffffffffffff8111156109a0576109a06108b5565b6109af60208260051b016108f2565b80828252602082019150602060e084028501019250868311156109d0575f5ffd5b6020840193505b82841015610a765760e084880312156109ee575f5ffd5b6109f66108c9565b6109ff85610923565b815260208501356020820152610a176040860161093d565b60408201526060850135610a2a81610835565b6060820152610a3b6080860161084c565b6080820152610a4c60a0860161084c565b60a0820152610a5d60c0860161084c565b60c0820152825260e093909301926020909101906109d7565b9695505050505050565b5f5f5f60608486031215610a92575f5ffd5b8335610a9d81610835565b92506020840135610aad81610835565b9150610abb6040850161093d565b90509250925092565b5f5f83601f840112610ad4575f5ffd5b50813567ffffffffffffffff811115610aeb575f5ffd5b6020830191508360208260051b8501011115610b05575f5ffd5b9250929050565b5f5f5f5f5f60608688031215610b20575f5ffd5b8535610b2b81610835565b9450602086013567ffffffffffffffff811115610b46575f5ffd5b610b5288828901610ac4565b909550935050604086013567ffffffffffffffff811115610b71575f5ffd5b610b7d88828901610ac4565b969995985093965092949392505050565b60208082526013908201527227a7262cafa2a6a4a9a9a4a7a72fa0a226a4a760691b604082015260600190565b6020808252818101527f4f776e61626c653a2063616c6c6572206973206e6f7420746865206f776e6572604082015260600190565b634e487b7160e01b5f52603260045260245ffd5b602080825282518282018190525f918401906040840190835b81811015610cb557835180516affffffffffffffffffffff1684526020808201519085015260408082015163ffffffff16908501526060808201516001600160a01b039081169186019190915260808083015182169086015260a0808301519091169085015260c09081015190610c9e908501826001600160a01b03169052565b506020939093019260e09290920191600101610c1d565b509095945050505050565b6001600160a01b038616815260606020820181905281018490525f8560808301825b87811015610d12578235610cf581610835565b6001600160a01b0316825260209283019290910190600101610ce2565b5083810360408501528481526020019050845f5b85811015610d59576affffffffffffffffffffff610d4383610923565b1683526020928301929190910190600101610d26565b50909897505050505050505056fea164736f6c634300081b000a8be0079c531659141344cd1fd0a4f28419497f9722a3daafe3b4186f6b6457e060a06040525f600555348015610013575f5ffd5b5060405161374b38038061374b83398101604081905261003291610048565b6001600160a01b03166080526001600555610075565b5f60208284031215610058575f5ffd5b81516001600160a01b038116811461006e575f5ffd5b9392505050565b60805161368d6100be5f395f818161044f0152818161054c015281816109e501528181610c2e015281816110b3015281816111c20152818161121401526112b2015261368d5ff3fe608060405234801561000f575f5ffd5b50600436106101d1575f3560e01c806392074b08116100fe578063bf90f63a1161009e578063dde43cba1161006e578063dde43cba1461056e578063e15ac62314610576578063f5cf673b14610589578063f996868b1461059c575f5ffd5b8063bf90f63a1461050e578063c4d66de814610521578063c5a7b53814610534578063cbcbb50714610547575f5ffd5b80639ff55db9116100d95780639ff55db9146104cd578063b022418c146104e0578063b45ac1a9146104f3578063bb492bf5146104fb575f5ffd5b806392074b081461044d578063955c2ad7146104735780639efd6f7214610486575f5ffd5b80635453ba101161017457806370674ab91161014457806370674ab91461035b57806374d945ec1461036e5780637eff4ba814610399578063886fe70b14610425575f5ffd5b80635453ba10146102ea57806357b89883146102fd5780635f130b24146103105780636657732f1461033b575f5ffd5b806331873e2e116101af57806331873e2e1461025157806333028b99146102665780634c0369c314610279578063533f542a1461029a575f5ffd5b80631b839c77146101d5578063236300dc146101fb5780632a17bf601461020e575b5f5ffd5b6101e86101e3366004612d86565b6105af565b6040519081526020015b60405180910390f35b6101e8610209366004612dfd565b6105e8565b61023961021c366004612e6b565b6001600160a01b039081165f908152603b60205260409020541690565b6040516001600160a01b0390911681526020016101f2565b61026461025f366004612e8d565b610631565b005b6101e8610274366004612ebf565b610642565b61028c610287366004612f3e565b610736565b6040516101f2929190612fd3565b6101e86102a836600461302b565b6001600160a01b038083165f90815260016020818152604080842086861685528252808420948816845293909101905220546001600160681b03169392505050565b6102646102f8366004612d86565b6109da565b6101e861030b366004613068565b610a30565b61023961031e366004612e6b565b6001600160a01b039081165f908152603a60205260409020541690565b61034e610349366004612e6b565b610a49565b6040516101f291906130c2565b6101e86103693660046130d4565b610b42565b61023961037c366004612e6b565b6001600160a01b039081165f908152603960205260409020541690565b6104056103a7366004612d86565b6001600160a01b039182165f9081526001602090815260408083209390941682529190915220546001600160681b038116916001600160581b03600160681b8304169163ffffffff600160c01b8204811692600160e01b9092041690565b6040805194855260208501939093529183015260608201526080016101f2565b610438610433366004612d86565b610b58565b604080519283526020830191909152016101f2565b7f0000000000000000000000000000000000000000000000000000000000000000610239565b6102646104813660046131c6565b610c23565b6104bb610494366004612e6b565b6001600160a01b03165f90815260016020526040902060020154600160801b900460ff1690565b60405160ff90911681526020016101f2565b61028c6104db3660046130d4565b610db2565b6101e86104ee366004612d86565b610ea9565b61034e610f34565b61028c610509366004612f3e565b610f94565b61028c61051c3660046132f0565b610fd6565b61026461052f366004612e6b565b610ff1565b61026461054236600461332e565b6110a8565b6102397f000000000000000000000000000000000000000000000000000000000000000081565b6101e8600181565b610264610584366004612d86565b6111b7565b610264610597366004612d86565b611209565b6102646105aa366004613372565b6112a7565b6001600160a01b038281165f90815260016020908152604080832093851683529290522054600160e01b900463ffffffff165b92915050565b5f6001600160a01b0383166106185760405162461bcd60e51b815260040161060f906133f2565b60405180910390fd5b610627868686333388886115c6565b9695505050505050565b61063d338483856117c3565b505050565b6001600160a01b038084165f908152603960205260408120549091339186911682146106a75760405162461bcd60e51b815260206004820152601460248201527310d3105253515497d5539055551213d49256915160621b604482015260640161060f565b6001600160a01b0386166106f45760405162461bcd60e51b8152602060048201526014602482015273494e56414c49445f555345525f4144445245535360601b604482015260640161060f565b6001600160a01b03851661071a5760405162461bcd60e51b815260040161060f906133f2565b610729898989338a8a8a6115c6565b9998505050505050505050565b6060805f61074586868661190e565b6003549091506001600160401b038111156107625761076261312c565b60405190808252806020026020018201604052801561078b578160200160208202803683370190505b50925082516001600160401b038111156107a7576107a761312c565b6040519080825280602002602001820160405280156107d0578160200160208202803683370190505b5091505f5b81518110156109cf575f5b84518110156109c657600381815481106107fc576107fc61341e565b905f5260205f20015f9054906101000a90046001600160a01b03168582815181106108295761082961341e565b60200260200101906001600160a01b031690816001600160a01b03168152505060015f84848151811061085e5761085e61341e565b60200260200101515f01516001600160a01b03166001600160a01b031681526020019081526020015f205f015f86838151811061089d5761089d61341e565b60200260200101516001600160a01b03166001600160a01b031681526020019081526020015f206001015f876001600160a01b03166001600160a01b031681526020019081526020015f205f01600d9054906101000a90046001600160801b03166001600160801b03168482815181106109195761091961341e565b6020026020010181815161092d9190613446565b90525082518390839081106109445761094461341e565b6020026020010151602001515f03156109be576109948686838151811061096d5761096d61341e565b60200260200101518585815181106109875761098761341e565b6020026020010151611abb565b8482815181106109a6576109a661341e565b602002602001018181516109ba9190613446565b9052505b6001016107e0565b506001016107d5565b50505b935093915050565b336001600160a01b037f00000000000000000000000000000000000000000000000000000000000000001614610a225760405162461bcd60e51b815260040161060f90613459565b610a2c8282611b59565b5050565b5f610a40858585333333886115c6565b95945050505050565b6001600160a01b0381165f908152600160205260408120600201546060916001600160801b0390911690816001600160401b03811115610a8b57610a8b61312c565b604051908082528060200260200182016040528015610ab4578160200160208202803683370190505b5090505f5b826001600160801b0316816001600160801b03161015610b3a576001600160a01b038086165f9081526001602081815260408084206001600160801b03871680865293019091529091205484519216918491908110610b1a57610b1a61341e565b6001600160a01b0390921660209283029190910190910152600101610ab9565b509392505050565b5f610a408383610b5388888861190e565b611c5d565b6001600160a01b038083165f8181526001602090815260408083209486168352938152838220845163b1bf962d60e01b81529451929485949193610c169385939263b1bf962d92600480830193928290030181865afa158015610bbd573d5f5f3e3d5ffd5b505050506040513d601f19601f82011682018060405250810190610be19190613488565b6001600160a01b0388165f90815260016020526040902060020154610c1190600160801b900460ff16600a61357a565b611dab565b92509250505b9250929050565b336001600160a01b037f00000000000000000000000000000000000000000000000000000000000000001614610c6b5760405162461bcd60e51b815260040161060f90613459565b5f5b8151811015610da557818181518110610c8857610c8861341e565b6020026020010151606001516001600160a01b031663b1bf962d6040518163ffffffff1660e01b8152600401602060405180830381865afa158015610ccf573d5f5f3e3d5ffd5b505050506040513d601f19601f82011682018060405250810190610cf39190613488565b828281518110610d0557610d0561341e565b60200260200101516020018181525050610d59828281518110610d2a57610d2a61341e565b602002602001015160800151838381518110610d4857610d4861341e565b602002602001015160a00151611e71565b610d9d828281518110610d6e57610d6e61341e565b602002602001015160800151838381518110610d8c57610d8c61341e565b602002602001015160c00151611b59565b600101610c6d565b50610daf81611f70565b50565b6001600160a01b038083165f90815260396020526040902054606091829133918691168214610e1a5760405162461bcd60e51b815260206004820152601460248201527310d3105253515497d5539055551213d49256915160621b604482015260640161060f565b6001600160a01b038616610e675760405162461bcd60e51b8152602060048201526014602482015273494e56414c49445f555345525f4144445245535360601b604482015260640161060f565b6001600160a01b038516610e8d5760405162461bcd60e51b815260040161060f906133f2565b610e9a88883389896125fc565b93509350505094509492505050565b5f80805b600454811015610b3a5760015f60048381548110610ecd57610ecd61341e565b5f918252602080832091909101546001600160a01b03908116845283820194909452604092830182208885168352815282822093891682526001909301909252902054610f2a90600160681b90046001600160801b031683613446565b9150600101610ead565b60606003805480602002602001604051908101604052809291908181526020018280548015610f8a57602002820191905f5260205f20905b81546001600160a01b03168152600190910190602001808311610f6c575b5050505050905090565b6060806001600160a01b038316610fbd5760405162461bcd60e51b815260040161060f906133f2565b610fca85853333876125fc565b91509150935093915050565b606080610fe684843333336125fc565b915091509250929050565b60065460019060ff16806110045750303b155b80611010575060055481115b6110735760405162461bcd60e51b815260206004820152602e60248201527f436f6e747261637420696e7374616e63652068617320616c726561647920626560448201526d195b881a5b9a5d1a585b1a5e995960921b606482015260840161060f565b60065460ff16158015611093576006805460ff1916600117905560058290555b801561063d576006805460ff19169055505050565b336001600160a01b037f000000000000000000000000000000000000000000000000000000000000000016146110f05760405162461bcd60e51b815260040161060f90613459565b6001600160a01b038381165f8181526001602090815260408083209487168084529482529182902080546001600160e01b038116600160e01b63ffffffff898116828102938417958690558751600160681b9096046001600160581b0316808752968601969096529083041694830185905260608301939093526001600160681b039081169216919091176080820152909291907fac1777479f07f3e7c34da8402139d54027a6a260caaae168bdee825ca5580dc59060a00160405180910390a350505050565b336001600160a01b037f000000000000000000000000000000000000000000000000000000000000000016146111ff5760405162461bcd60e51b815260040161060f90613459565b610a2c8282611e71565b336001600160a01b037f000000000000000000000000000000000000000000000000000000000000000016146112515760405162461bcd60e51b815260040161060f90613459565b6001600160a01b038281165f8181526039602052604080822080546001600160a01b0319169486169485179055517f4925eafc82d0c4d67889898eeed64b18488ab19811e61620f387026dec126a289190a35050565b336001600160a01b037f000000000000000000000000000000000000000000000000000000000000000016146112ef5760405162461bcd60e51b815260040161060f90613459565b82811461132e5760405162461bcd60e51b815260206004820152600d60248201526c1253959053125117d253941555609a1b604482015260640161060f565b5f5b838110156115be576001600160a01b0386165f9081526001602052604081209081818888868181106113645761136461341e565b90506020020160208101906113799190612e6b565b6001600160a01b0316815260208101919091526040015f206002830154909150600160801b900460ff1680158015906113bf57508154600160c01b900463ffffffff1615155b61140b5760405162461bcd60e51b815260206004820152601b60248201527f444953545249425554494f4e5f444f45535f4e4f545f45584953540000000000604482015260640161060f565b5f611480838b6001600160a01b031663b1bf962d6040518163ffffffff1660e01b8152600401602060405180830381865afa15801561144c573d5f5f3e3d5ffd5b505050506040513d601f19601f820116820180604052508101906114709190613488565b61147b85600a613588565b6129be565b508354909150600160681b90046001600160581b03168787878181106114a8576114a861341e565b90506020020160208101906114bd9190613593565b84546001600160581b0391909116600160681b026affffffffffffffffffffff60681b199091161784558989878181106114f9576114f961341e565b905060200201602081019061150e9190612e6b565b6001600160a01b03168b6001600160a01b03167fac1777479f07f3e7c34da8402139d54027a6a260caaae168bdee825ca5580dc5838b8b8b8181106115555761155561341e565b905060200201602081019061156a9190613593565b8854604080519384526001600160581b039092166020840152600160e01b900463ffffffff1690820181905260608201526080810186905260a00160405180910390a3505060019093019250611330915050565b505050505050565b5f855f036115d557505f6117b8565b5f6115ea856115e58b8b8961190e565b612aa8565b5f5b8881101561174a575f8a8a838181106116075761160761341e565b905060200201602081019061161c9190612e6b565b6001600160a01b038181165f9081526001602081815260408084208b861685528252808420948d168452939091019052205490915061166b90600160681b90046001600160801b031684613446565b92508883116116bb576001600160a01b038082165f9081526001602081815260408084208a861685528252808420948c168452939091019052208054600160681b600160e81b0319169055611741565b5f6116c68a856135ac565b90506116d281856135ac565b93506116dd81612b1d565b6001600160a01b039283165f9081526001602081815260408084208b881685528252808420968d1684529590910190529290922080546001600160801b0393909316600160681b02600160681b600160e81b0319909316929092179091555061174a565b506001016115ec565b50805f0361175b575f9150506117b8565b611766848483612b54565b604080516001600160a01b038881168252602082018490528087169286821692918916917fc052130bc4ef84580db505783484b067ea8b71b3bca78a7e12db7aea8658f004910160405180910390a490505b979650505050505050565b6001600160a01b0384165f9081526001602052604081206002015460ff600160801b820416600a0a916001600160801b0390911690819003611806575050611908565b5f5b81816001600160801b03161015611904576001600160a01b038088165f9081526001602081815260408084206001600160801b038716855292830182528084205490941680845291905291812090806118628389896129be565b915091505f5f611875858d8d878d612c2d565b9150915082806118825750805b156118f2578b6001600160a01b0316866001600160a01b03168e6001600160a01b03167f3303facd24627943a92e9dc87cfbb34b15c49b726eec3ad3487c16be9ab8efe88788876040516118e9939291909283526020830191909152604082015260600190565b60405180910390a45b50506001909401935061180892505050565b5050505b50505050565b6060826001600160401b038111156119285761192861312c565b60405190808252806020026020018201604052801561198357816020015b61197060405180606001604052805f6001600160a01b031681526020015f81526020015f81525090565b8152602001906001900390816119465790505b5090505f5b83811015610b3a578484828181106119a2576119a261341e565b90506020020160208101906119b79190612e6b565b8282815181106119c9576119c961341e565b60209081029190910101516001600160a01b0390911690528484828181106119f3576119f361341e565b9050602002016020810190611a089190612e6b565b604051630afbcdc960e01b81526001600160a01b0385811660048301529190911690630afbcdc9906024016040805180830381865afa158015611a4d573d5f5f3e3d5ffd5b505050506040513d601f19601f82011682018060405250810190611a7191906135bf565b838381518110611a8357611a8361341e565b6020026020010151602001848481518110611aa057611aa061341e565b60209081029190910101516040019190915252600101611988565b80516001600160a01b039081165f90815260016020818152604080842087861685528252808420865190951684529190528120600201549091908290611b0c90600160801b900460ff16600a61357a565b90505f611b1e83866040015184611dab565b6020808801516001600160a01b038b165f908152600188019092526040909120549193506117b892509083906001600160681b031685612d1f565b5f816001600160a01b03166350d25bcd6040518163ffffffff1660e01b8152600401602060405180830381865afa158015611b96573d5f5f3e3d5ffd5b505050506040513d601f19601f82011682018060405250810190611bba9190613488565b13611c075760405162461bcd60e51b815260206004820152601860248201527f4f5241434c455f4d5553545f52455455524e5f50524943450000000000000000604482015260640161060f565b6001600160a01b038281165f818152603b602052604080822080546001600160a01b0319169486169485179055517f1a1cd5483e52e60b9ff7f3b9d1db3bbd9e9d21c6324ad3a8c79dba9b75e62f4d9190a35050565b5f805b8251811015610b3a57828181518110611c7b57611c7b61341e565b6020026020010151602001515f03611d065760015f848381518110611ca257611ca261341e565b602090810291909101810151516001600160a01b0390811683528282019390935260409182015f90812088851682528252828120938916815260019093019052902054611cff90600160681b90046001600160801b031683613446565b9150611da3565b60015f848381518110611d1b57611d1b61341e565b602090810291909101810151516001600160a01b0390811683528282019390935260409182015f908120888516825282528281209389168152600190930190529020548351600160681b9091046001600160801b031690611d8c90879087908790869081106109875761098761341e565b611d969190613446565b611da09083613446565b91505b600101611c60565b82545f9081906001600160681b0381169063ffffffff600160e01b82048116916001600160581b03600160681b82041691600160c01b90910416811580611df0575087155b80611dfa57504281145b80611e055750828110155b15611e1957838495509550505050506109d2565b5f834211611e275742611e29565b835b90505f611e3683836135ac565b90505f89611e4483876135e1565b611e4e91906135e1565b8b9004905086611e5e8183613446565b9850985050505050505050935093915050565b6001600160a01b038116611ec75760405162461bcd60e51b815260206004820152601860248201527f53545241544547595f43414e5f4e4f545f42455f5a45524f0000000000000000604482015260640161060f565b6001813b151514611f1a5760405162461bcd60e51b815260206004820152601960248201527f53545241544547595f4d5553545f42455f434f4e545241435400000000000000604482015260640161060f565b6001600160a01b038281165f818152603a602052604080822080546001600160a01b0319169486169485179055517f8ca1d928f1d72493a6b78c4f74aabde976bc37ffe2570f2a1ce5a8abd3dde0aa9190a35050565b5f5b8151811015610a2c5760015f838381518110611f9057611f9061341e565b6020026020010151606001516001600160a01b03166001600160a01b031681526020019081526020015f2060020160109054906101000a900460ff1660ff165f03612028576004828281518110611fe957611fe961341e565b6020908102919091018101516060015182546001810184555f938452919092200180546001600160a01b0319166001600160a01b039092169190911790555b5f82828151811061203b5761203b61341e565b6020026020010151606001516001600160a01b031663313ce5676040518163ffffffff1660e01b8152600401602060405180830381865afa158015612082573d5f5f3e3d5ffd5b505050506040513d601f19601f820116820180604052508101906120a691906135f8565b60015f8585815181106120bb576120bb61341e565b6020026020010151606001516001600160a01b03166001600160a01b031681526020019081526020015f2060020160106101000a81548160ff021916908360ff160217905560ff1690505f60015f85858151811061211b5761211b61341e565b6020026020010151606001516001600160a01b03166001600160a01b031681526020019081526020015f205f015f85858151811061215b5761215b61341e565b6020026020010151608001516001600160a01b03166001600160a01b031681526020019081526020015f209050805f0160189054906101000a900463ffffffff1663ffffffff165f0361231d578383815181106121ba576121ba61341e565b60200260200101516080015160015f8686815181106121db576121db61341e565b6020026020010151606001516001600160a01b03166001600160a01b031681526020019081526020015f206001015f60015f88888151811061221f5761221f61341e565b6020026020010151606001516001600160a01b03166001600160a01b031681526020019081526020015f206002015f9054906101000a90046001600160801b03166001600160801b03166001600160801b031681526020019081526020015f205f6101000a8154816001600160a01b0302191690836001600160a01b0316021790555060015f8585815181106122b7576122b761341e565b602090810291909101810151606001516001600160a01b031682528101919091526040015f90812060020180546001600160801b0316916122f783613618565b91906101000a8154816001600160801b0302191690836001600160801b03160217905550505b60025f8585815181106123325761233261341e565b602090810291909101810151608001516001600160a01b031682528101919091526040015f9081205460ff161515900361241157600160025f86868151811061237d5761237d61341e565b6020026020010151608001516001600160a01b03166001600160a01b031681526020019081526020015f205f6101000a81548160ff02191690831515021790555060038484815181106123d2576123d261341e565b6020908102919091018101516080015182546001810184555f938452919092200180546001600160a01b0319166001600160a01b039092169190911790555b5f612441828686815181106124285761242861341e565b60200260200101516020015185600a61147b9190613588565b5082548651919250600160681b81046001600160581b031691600160e01b90910463ffffffff169087908790811061247b5761247b61341e565b60209081029190910101515184546001600160581b03909116600160681b026affffffffffffffffffffff60681b1990911617845586518790879081106124c4576124c461341e565b602090810291909101015160400151845463ffffffff909116600160e01b026001600160e01b0390911617845586518790879081106125055761250561341e565b6020026020010151608001516001600160a01b031687878151811061252c5761252c61341e565b6020026020010151606001516001600160a01b03167fac1777479f07f3e7c34da8402139d54027a6a260caaae168bdee825ca5580dc5848a8a815181106125755761257561341e565b60200260200101515f0151858c8c815181106125935761259361341e565b602002602001015160400151896040516125e39594939291906001600160581b03958616815293909416602084015263ffffffff9182166040840152166060820152608081019190915260a00190565b60405180910390a3505060019093019250611f72915050565b6003546060908190806001600160401b0381111561261c5761261c61312c565b604051908082528060200260200182016040528015612645578160200160208202803683370190505b509250806001600160401b038111156126605761266061312c565b604051908082528060200260200182016040528015612689578160200160208202803683370190505b50915061269b856115e58a8a8961190e565b5f5b878110156128c5575f8989838181106126b8576126b861341e565b90506020020160208101906126cd9190612e6b565b90505f5b838110156128bb575f6001600160a01b03168682815181106126f5576126f561341e565b60200260200101516001600160a01b03160361276c576003818154811061271e5761271e61341e565b905f5260205f20015f9054906101000a90046001600160a01b031686828151811061274b5761274b61341e565b60200260200101906001600160a01b031690816001600160a01b0316815250505b6001600160a01b0382165f908152600160205260408120875182908990859081106127995761279961341e565b6020908102919091018101516001600160a01b0390811683528282019390935260409182015f908120938d16815260019093019052902054600160681b90046001600160801b0316905080156128b257808683815181106127fc576127fc61341e565b602002602001018181516128109190613446565b9052506001600160a01b0383165f908152600160205260408120885182908a90869081106128405761284061341e565b60200260200101516001600160a01b03166001600160a01b031681526020019081526020015f206001015f8b6001600160a01b03166001600160a01b031681526020019081526020015f205f01600d6101000a8154816001600160801b0302191690836001600160801b031602179055505b506001016126d1565b505060010161269d565b505f5b818110156129b25761290d858583815181106128e6576128e661341e565b60200260200101518584815181106129005761290061341e565b6020026020010151612b54565b846001600160a01b03168482815181106129295761292961341e565b60200260200101516001600160a01b0316876001600160a01b03167fc052130bc4ef84580db505783484b067ea8b71b3bca78a7e12db7aea8658f0048a8786815181106129785761297861341e565b60200260200101516040516129a29291906001600160a01b03929092168252602082015260400190565b60405180910390a46001016128c8565b50509550959350505050565b5f5f5f5f6129cd878787611dab565b915091505f828214612a71576001600160681b03821115612a215760405162461bcd60e51b815260206004820152600e60248201526d494e4445585f4f564552464c4f5760901b604482015260640161060f565b5086546cffffffffffffffffffffffffff19166001600160681b0382161787556001612a4c42612d42565b885463ffffffff91909116600160c01b0263ffffffff60c01b19909116178855612a9b565b612a7a42612d42565b885463ffffffff91909116600160c01b0263ffffffff60c01b199091161788555b9097909650945050505050565b5f5b815181101561063d57612b15828281518110612ac857612ac861341e565b60200260200101515f015184848481518110612ae657612ae661341e565b602002602001015160200151858581518110612b0457612b0461341e565b6020026020010151604001516117c3565b600101612aaa565b5f6001600160801b03821115612b50576040516306dfcc6560e41b8152608060048201526024810183905260440161060f565b5090565b6001600160a01b038281165f818152603a6020526040808220549051630b5f5cc160e11b81528785166004820152602481019390935260448301859052909216919082906316beb982906064016020604051808303815f875af1158015612bbd573d5f5f3e3d5ffd5b505050506040513d601f19601f82011682018060405250810190612be19190613642565b9050600181151514612c265760405162461bcd60e51b815260206004820152600e60248201526d2a2920a729a322a92fa2a92927a960911b604482015260640161060f565b5050505050565b6001600160a01b0384165f90815260018601602052604081205481906001600160681b031681858214801590612d10576001600160a01b0389165f90815260018b016020526040902080546cffffffffffffffffffffffffff19166001600160681b0389161790558715612d1057612ca788888589612d1f565b9150612cb282612b1d565b6001600160a01b038a165f90815260018c01602052604090208054600d90612ceb908490600160681b90046001600160801b0316613661565b92506101000a8154816001600160801b0302191690836001600160801b031602179055505b90999098509650505050505050565b5f80612d2b84866135ac565b612d3590876135e1565b9290920495945050505050565b5f63ffffffff821115612b50576040516306dfcc6560e41b8152602060048201526024810183905260440161060f565b6001600160a01b0381168114610daf575f5ffd5b5f5f60408385031215612d97575f5ffd5b8235612da281612d72565b91506020830135612db281612d72565b809150509250929050565b5f5f83601f840112612dcd575f5ffd5b5081356001600160401b03811115612de3575f5ffd5b6020830191508360208260051b8501011115610c1c575f5ffd5b5f5f5f5f5f60808688031215612e11575f5ffd5b85356001600160401b03811115612e26575f5ffd5b612e3288828901612dbd565b909650945050602086013592506040860135612e4d81612d72565b91506060860135612e5d81612d72565b809150509295509295909350565b5f60208284031215612e7b575f5ffd5b8135612e8681612d72565b9392505050565b5f5f5f60608486031215612e9f575f5ffd5b8335612eaa81612d72565b95602085013595506040909401359392505050565b5f5f5f5f5f5f60a08789031215612ed4575f5ffd5b86356001600160401b03811115612ee9575f5ffd5b612ef589828a01612dbd565b909750955050602087013593506040870135612f1081612d72565b92506060870135612f2081612d72565b91506080870135612f3081612d72565b809150509295509295509295565b5f5f5f60408486031215612f50575f5ffd5b83356001600160401b03811115612f65575f5ffd5b612f7186828701612dbd565b9094509250506020840135612f8581612d72565b809150509250925092565b5f8151808452602084019350602083015f5b82811015612fc95781516001600160a01b0316865260209586019590910190600101612fa2565b5093949350505050565b604081525f612fe56040830185612f90565b82810360208401528084518083526020830191506020860192505f5b8181101561301f578351835260209384019390920191600101613001565b50909695505050505050565b5f5f5f6060848603121561303d575f5ffd5b833561304881612d72565b9250602084013561305881612d72565b91506040840135612f8581612d72565b5f5f5f5f6060858703121561307b575f5ffd5b84356001600160401b03811115613090575f5ffd5b61309c87828801612dbd565b9095509350506020850135915060408501356130b781612d72565b939692955090935050565b602081525f612e866020830184612f90565b5f5f5f5f606085870312156130e7575f5ffd5b84356001600160401b038111156130fc575f5ffd5b61310887828801612dbd565b909550935050602085013561311c81612d72565b915060408501356130b781612d72565b634e487b7160e01b5f52604160045260245ffd5b60405160e081016001600160401b03811182821017156131625761316261312c565b60405290565b604051601f8201601f191681016001600160401b03811182821017156131905761319061312c565b604052919050565b80356001600160581b03811681146131ae575f5ffd5b919050565b803563ffffffff811681146131ae575f5ffd5b5f602082840312156131d6575f5ffd5b81356001600160401b038111156131eb575f5ffd5b8201601f810184136131fb575f5ffd5b80356001600160401b038111156132145761321461312c565b61322360208260051b01613168565b80828252602082019150602060e08402850101925086831115613244575f5ffd5b6020840193505b828410156106275760e08488031215613262575f5ffd5b61326a613140565b61327385613198565b81526020858101359082015261328b604086016131b3565b6040820152606085013561329e81612d72565b606082015260808501356132b181612d72565b608082015260a08501356132c481612d72565b60a082015260c08501356132d781612d72565b60c0820152825260e0939093019260209091019061324b565b5f5f60208385031215613301575f5ffd5b82356001600160401b03811115613316575f5ffd5b61332285828601612dbd565b90969095509350505050565b5f5f5f60608486031215613340575f5ffd5b833561334b81612d72565b9250602084013561335b81612d72565b9150613369604085016131b3565b90509250925092565b5f5f5f5f5f60608688031215613386575f5ffd5b853561339181612d72565b945060208601356001600160401b038111156133ab575f5ffd5b6133b788828901612dbd565b90955093505060408601356001600160401b038111156133d5575f5ffd5b6133e188828901612dbd565b969995985093965092949392505050565b602080825260129082015271494e56414c49445f544f5f4144445245535360701b604082015260600190565b634e487b7160e01b5f52603260045260245ffd5b634e487b7160e01b5f52601160045260245ffd5b808201808211156105e2576105e2613432565b60208082526015908201527427a7262cafa2a6a4a9a9a4a7a72fa6a0a720a3a2a960591b604082015260600190565b5f60208284031215613498575f5ffd5b5051919050565b6001815b60018411156109d2578085048111156134be576134be613432565b60018416156134cc57908102905b60019390931c9280026134a3565b5f826134e8575060016105e2565b816134f457505f6105e2565b816001811461350a576002811461351457613530565b60019150506105e2565b60ff84111561352557613525613432565b50506001821b6105e2565b5060208310610133831016604e8410600b8410161715613553575081810a6105e2565b61355f5f19848461349f565b805f190482111561357257613572613432565b029392505050565b5f612e8660ff8416836134da565b5f612e8683836134da565b5f602082840312156135a3575f5ffd5b612e8682613198565b818103818111156105e2576105e2613432565b5f5f604083850312156135d0575f5ffd5b505080516020909101519092909150565b80820281158282048414176105e2576105e2613432565b5f60208284031215613608575f5ffd5b815160ff81168114612e86575f5ffd5b5f6001600160801b0382166001600160801b03810361363957613639613432565b60010192915050565b5f60208284031215613652575f5ffd5b81518015158114612e86575f5ffd5b6001600160801b0381811683821601908111156105e2576105e261343256fea164736f6c634300081b000a","linkReferences":{}},"methodIdentifiers":{"getPeripheryReport()":"620b8846"},"id":305}