{"abi":[{"type":"constructor","inputs":[{"name":"mockName","type":"string","internalType":"string"},{"name":"mockSymbol","type":"string","internalType":"string"},{"name":"owner","type":"address","internalType":"address"}],"stateMutability":"nonpayable"},{"type":"receive","stateMutability":"payable"},{"type":"function","name":"allowance","inputs":[{"name":"","type":"address","internalType":"address"},{"name":"","type":"address","internalType":"address"}],"outputs":[{"name":"","type":"uint256","internalType":"uint256"}],"stateMutability":"view"},{"type":"function","name":"approve","inputs":[{"name":"guy","type":"address","internalType":"address"},{"name":"wad","type":"uint256","internalType":"uint256"}],"outputs":[{"name":"","type":"bool","internalType":"bool"}],"stateMutability":"nonpayable"},{"type":"function","name":"balanceOf","inputs":[{"name":"","type":"address","internalType":"address"}],"outputs":[{"name":"","type":"uint256","internalType":"uint256"}],"stateMutability":"view"},{"type":"function","name":"decimals","inputs":[],"outputs":[{"name":"","type":"uint8","internalType":"uint8"}],"stateMutability":"view"},{"type":"function","name":"deposit","inputs":[],"outputs":[],"stateMutability":"payable"},{"type":"function","name":"mint","inputs":[{"name":"account","type":"address","internalType":"address"},{"name":"value","type":"uint256","internalType":"uint256"}],"outputs":[{"name":"","type":"bool","internalType":"bool"}],"stateMutability":"nonpayable"},{"type":"function","name":"name","inputs":[],"outputs":[{"name":"","type":"string","internalType":"string"}],"stateMutability":"view"},{"type":"function","name":"owner","inputs":[],"outputs":[{"name":"","type":"address","internalType":"address"}],"stateMutability":"view"},{"type":"function","name":"renounceOwnership","inputs":[],"outputs":[],"stateMutability":"nonpayable"},{"type":"function","name":"symbol","inputs":[],"outputs":[{"name":"","type":"string","internalType":"string"}],"stateMutability":"view"},{"type":"function","name":"totalSupply","inputs":[],"outputs":[{"name":"","type":"uint256","internalType":"uint256"}],"stateMutability":"view"},{"type":"function","name":"transfer","inputs":[{"name":"dst","type":"address","internalType":"address"},{"name":"wad","type":"uint256","internalType":"uint256"}],"outputs":[{"name":"","type":"bool","internalType":"bool"}],"stateMutability":"nonpayable"},{"type":"function","name":"transferFrom","inputs":[{"name":"src","type":"address","internalType":"address"},{"name":"dst","type":"address","internalType":"address"},{"name":"wad","type":"uint256","internalType":"uint256"}],"outputs":[{"name":"","type":"bool","internalType":"bool"}],"stateMutability":"nonpayable"},{"type":"function","name":"transferOwnership","inputs":[{"name":"newOwner","type":"address","internalType":"address"}],"outputs":[],"stateMutability":"nonpayable"},{"type":"function","name":"withdraw","inputs":[{"name":"wad","type":"uint256","internalType":"uint256"}],"outputs":[],"stateMutability":"nonpayable"},{"type":"event","name":"Approval","inputs":[{"name":"src","type":"address","indexed":true,"internalType":"address"},{"name":"guy","type":"address","indexed":true,"internalType":"address"},{"name":"wad","type":"uint256","indexed":false,"internalType":"uint256"}],"anonymous":false},{"type":"event","name":"Deposit","inputs":[{"name":"dst","type":"address","indexed":true,"internalType":"address"},{"name":"wad","type":"uint256","indexed":false,"internalType":"uint256"}],"anonymous":false},{"type":"event","name":"OwnershipTransferred","inputs":[{"name":"previousOwner","type":"address","indexed":true,"internalType":"address"},{"name":"newOwner","type":"address","indexed":true,"internalType":"address"}],"anonymous":false},{"type":"event","name":"Transfer","inputs":[{"name":"src","type":"address","indexed":true,"internalType":"address"},{"name":"dst","type":"address","indexed":true,"internalType":"address"},{"name":"wad","type":"uint256","indexed":false,"internalType":"uint256"}],"anonymous":false},{"type":"event","name":"Withdrawal","inputs":[{"name":"src","type":"address","indexed":true,"internalType":"address"},{"name":"wad","type":"uint256","indexed":false,"internalType":"uint256"}],"anonymous":false}],"bytecode":{"object":"0x60c0604052600d60809081526c2bb930b83832b21022ba3432b960991b60a0525f9061002b9082610289565b506040805180820190915260048152630ae8aa8960e31b60208201526001906100549082610289565b506002805460ff1916601217905534801561006d575f5ffd5b50604051610ee4380380610ee483398101604081905261008c916103e1565b600580546001600160a01b0319163390811790915560405181905f905f516020610ec45f395f51905f52908290a3505f6100c68482610289565b5060016100d38382610289565b506100dd816100e5565b505050610466565b6005546001600160a01b031633146101445760405162461bcd60e51b815260206004820181905260248201527f4f776e61626c653a2063616c6c6572206973206e6f7420746865206f776e657260448201526064015b60405180910390fd5b6001600160a01b0381166101a95760405162461bcd60e51b815260206004820152602660248201527f4f776e61626c653a206e6577206f776e657220697320746865207a65726f206160448201526564647265737360d01b606482015260840161013b565b6005546040516001600160a01b038084169216905f516020610ec45f395f51905f52905f90a3600580546001600160a01b0319166001600160a01b0392909216919091179055565b634e487b7160e01b5f52604160045260245ffd5b600181811c9082168061021957607f821691505b60208210810361023757634e487b7160e01b5f52602260045260245ffd5b50919050565b601f82111561028457805f5260205f20601f840160051c810160208510156102625750805b601f840160051c820191505b81811015610281575f815560010161026e565b50505b505050565b81516001600160401b038111156102a2576102a26101f1565b6102b6816102b08454610205565b8461023d565b6020601f8211600181146102e8575f83156102d15750848201515b5f19600385901b1c1916600184901b178455610281565b5f84815260208120601f198516915b8281101561031757878501518255602094850194600190920191016102f7565b508482101561033457868401515f19600387901b60f8161c191681555b50505050600190811b01905550565b5f82601f830112610352575f5ffd5b81516001600160401b0381111561036b5761036b6101f1565b604051601f8201601f19908116603f011681016001600160401b0381118282101715610399576103996101f1565b6040528181528382016020018510156103b0575f5ffd5b5f5b828110156103ce576020818601810151838301820152016103b2565b505f918101602001919091529392505050565b5f5f5f606084860312156103f3575f5ffd5b83516001600160401b03811115610408575f5ffd5b61041486828701610343565b602086015190945090506001600160401b03811115610431575f5ffd5b61043d86828701610343565b604086015190935090506001600160a01b038116811461045b575f5ffd5b809150509250925092565b610a51806104735f395ff3fe6080604052600436106100e7575f3560e01c806370a0823111610087578063a9059cbb11610057578063a9059cbb14610271578063d0e30db014610290578063dd62ed3e14610298578063f2fde38b146102ce575f5ffd5b806370a08231146101f7578063715018a6146102225780638da5cb5b1461023657806395d89b411461025d575f5ffd5b806323b872dd116100c257806323b872dd1461016f5780632e1a7d4d1461018e578063313ce567146101ad57806340c10f19146101d8575f5ffd5b806306fdde03146100fa578063095ea7b31461012457806318160ddd14610153575f5ffd5b366100f6576100f46102ed565b005b5f5ffd5b348015610105575f5ffd5b5061010e610347565b60405161011b9190610874565b60405180910390f35b34801561012f575f5ffd5b5061014361013e3660046108da565b6103d2565b604051901515815260200161011b565b34801561015e575f5ffd5b50475b60405190815260200161011b565b34801561017a575f5ffd5b50610143610189366004610902565b61043e565b348015610199575f5ffd5b506100f46101a836600461093c565b6105b9565b3480156101b8575f5ffd5b506002546101c69060ff1681565b60405160ff909116815260200161011b565b3480156101e3575f5ffd5b506101436101f23660046108da565b610659565b348015610202575f5ffd5b50610161610211366004610953565b60036020525f908152604090205481565b34801561022d575f5ffd5b506100f46106f7565b348015610241575f5ffd5b506005546040516001600160a01b03909116815260200161011b565b348015610268575f5ffd5b5061010e61076a565b34801561027c575f5ffd5b5061014361028b3660046108da565b610777565b6100f46102ed565b3480156102a3575f5ffd5b506101616102b236600461096c565b600460209081525f928352604080842090915290825290205481565b3480156102d9575f5ffd5b506100f46102e8366004610953565b61078a565b335f908152600360205260408120805434929061030b9084906109b1565b909155505060405134815233907fe1fffcc4923d04b559f4d29a8bfc6cda04eb5b0d3c460751c2402c5c5cc9109c9060200160405180910390a2565b5f8054610353906109c4565b80601f016020809104026020016040519081016040528092919081815260200182805461037f906109c4565b80156103ca5780601f106103a1576101008083540402835291602001916103ca565b820191905f5260205f20905b8154815290600101906020018083116103ad57829003601f168201915b505050505081565b335f8181526004602090815260408083206001600160a01b038716808552925280832085905551919290917f8c5be1e5ebec7d5bd14f71427d1e84f3dd0314c0f7b2291e5b200ac8c7c3b9259061042c9086815260200190565b60405180910390a35060015b92915050565b6001600160a01b0383165f90815260036020526040812054821115610461575f5ffd5b6001600160a01b038416331480159061049d57506001600160a01b0384165f9081526004602090815260408083203384529091529020545f1914155b15610508576001600160a01b0384165f9081526004602090815260408083203384529091529020548211156104d0575f5ffd5b6001600160a01b0384165f908152600460209081526040808320338452909152812080548492906105029084906109fc565b90915550505b6001600160a01b0384165f908152600360205260408120805484929061052f9084906109fc565b90915550506001600160a01b0383165f908152600360205260408120805484929061055b9084906109b1565b92505081905550826001600160a01b0316846001600160a01b03167fddf252ad1be2c89b69c2b068fc378daa952ba7f163c4a11628f55a4df523b3ef846040516105a791815260200190565b60405180910390a35060019392505050565b335f908152600360205260409020548111156105d3575f5ffd5b335f90815260036020526040812080548392906105f19084906109fc565b9091555050604051339082156108fc029083905f818181858888f19350505050158015610620573d5f5f3e3d5ffd5b5060405181815233907f7fcf532c15f0a6db0bd6d0e038bea71d30d808c7d98cb3bf7268a95bf5081b659060200160405180910390a250565b6005545f906001600160a01b0316331461068e5760405162461bcd60e51b815260040161068590610a0f565b60405180910390fd5b6001600160a01b0383165f90815260036020526040812080548492906106b59084906109b1565b90915550506040518281526001600160a01b038416905f907fddf252ad1be2c89b69c2b068fc378daa952ba7f163c4a11628f55a4df523b3ef9060200161042c565b6005546001600160a01b031633146107215760405162461bcd60e51b815260040161068590610a0f565b6005546040515f916001600160a01b0316907f8be0079c531659141344cd1fd0a4f28419497f9722a3daafe3b4186f6b6457e0908390a3600580546001600160a01b0319169055565b60018054610353906109c4565b5f61078333848461043e565b9392505050565b6005546001600160a01b031633146107b45760405162461bcd60e51b815260040161068590610a0f565b6001600160a01b0381166108195760405162461bcd60e51b815260206004820152602660248201527f4f776e61626c653a206e6577206f776e657220697320746865207a65726f206160448201526564647265737360d01b6064820152608401610685565b6005546040516001600160a01b038084169216907f8be0079c531659141344cd1fd0a4f28419497f9722a3daafe3b4186f6b6457e0905f90a3600580546001600160a01b0319166001600160a01b0392909216919091179055565b602081525f82518060208401525f5b818110156108a05760208186018101516040868401015201610883565b505f604082850101526040601f19601f83011684010191505092915050565b80356001600160a01b03811681146108d5575f5ffd5b919050565b5f5f604083850312156108eb575f5ffd5b6108f4836108bf565b946020939093013593505050565b5f5f5f60608486031215610914575f5ffd5b61091d846108bf565b925061092b602085016108bf565b929592945050506040919091013590565b5f6020828403121561094c575f5ffd5b5035919050565b5f60208284031215610963575f5ffd5b610783826108bf565b5f5f6040838503121561097d575f5ffd5b610986836108bf565b9150610994602084016108bf565b90509250929050565b634e487b7160e01b5f52601160045260245ffd5b808201808211156104385761043861099d565b600181811c908216806109d857607f821691505b6020821081036109f657634e487b7160e01b5f52602260045260245ffd5b50919050565b818103818111156104385761043861099d565b6020808252818101527f4f776e61626c653a2063616c6c6572206973206e6f7420746865206f776e657260408201526060019056fea164736f6c634300081b000a8be0079c531659141344cd1fd0a4f28419497f9722a3daafe3b4186f6b6457e0","linkReferences":{}},"methodIdentifiers":{"allowance(address,address)":"dd62ed3e","approve(address,uint256)":"095ea7b3","balanceOf(address)":"70a08231","decimals()":"313ce567","deposit()":"d0e30db0","mint(address,uint256)":"40c10f19","name()":"06fdde03","owner()":"8da5cb5b","renounceOwnership()":"715018a6","symbol()":"95d89b41","totalSupply()":"18160ddd","transfer(address,uint256)":"a9059cbb","transferFrom(address,address,uint256)":"23b872dd","transferOwnership(address)":"f2fde38b","withdraw(uint256)":"2e1a7d4d"},"id":193}