{"abi":[{"type":"constructor","inputs":[{"name":"owner","type":"address","internalType":"address"}],"stateMutability":"nonpayable"},{"type":"function","name":"configureAssets","inputs":[{"name":"config","type":"tuple[]","internalType":"struct RewardsDataTypes.RewardsConfigInput[]","components":[{"name":"emissionPerSecond","type":"uint88","internalType":"uint88"},{"name":"totalSupply","type":"uint256","internalType":"uint256"},{"name":"distributionEnd","type":"uint32","internalType":"uint32"},{"name":"asset","type":"address","internalType":"address"},{"name":"reward","type":"address","internalType":"address"},{"name":"transferStrategy","type":"address","internalType":"contract ITransferStrategyBase"},{"name":"rewardOracle","type":"address","internalType":"contract AggregatorInterface"}]}],"outputs":[],"stateMutability":"nonpayable"},{"type":"function","name":"getEmissionAdmin","inputs":[{"name":"reward","type":"address","internalType":"address"}],"outputs":[{"name":"","type":"address","internalType":"address"}],"stateMutability":"view"},{"type":"function","name":"getRewardsController","inputs":[],"outputs":[{"name":"","type":"address","internalType":"contract IRewardsController"}],"stateMutability":"view"},{"type":"function","name":"owner","inputs":[],"outputs":[{"name":"","type":"address","internalType":"address"}],"stateMutability":"view"},{"type":"function","name":"renounceOwnership","inputs":[],"outputs":[],"stateMutability":"nonpayable"},{"type":"function","name":"setClaimer","inputs":[{"name":"user","type":"address","internalType":"address"},{"name":"claimer","type":"address","internalType":"address"}],"outputs":[],"stateMutability":"nonpayable"},{"type":"function","name":"setDistributionEnd","inputs":[{"name":"asset","type":"address","internalType":"address"},{"name":"reward","type":"address","internalType":"address"},{"name":"newDistributionEnd","type":"uint32","internalType":"uint32"}],"outputs":[],"stateMutability":"nonpayable"},{"type":"function","name":"setEmissionAdmin","inputs":[{"name":"reward","type":"address","internalType":"address"},{"name":"admin","type":"address","internalType":"address"}],"outputs":[],"stateMutability":"nonpayable"},{"type":"function","name":"setEmissionPerSecond","inputs":[{"name":"asset","type":"address","internalType":"address"},{"name":"rewards","type":"address[]","internalType":"address[]"},{"name":"newEmissionsPerSecond","type":"uint88[]","internalType":"uint88[]"}],"outputs":[],"stateMutability":"nonpayable"},{"type":"function","name":"setRewardOracle","inputs":[{"name":"reward","type":"address","internalType":"address"},{"name":"rewardOracle","type":"address","internalType":"contract AggregatorInterface"}],"outputs":[],"stateMutability":"nonpayable"},{"type":"function","name":"setRewardsController","inputs":[{"name":"controller","type":"address","internalType":"address"}],"outputs":[],"stateMutability":"nonpayable"},{"type":"function","name":"setTransferStrategy","inputs":[{"name":"reward","type":"address","internalType":"address"},{"name":"transferStrategy","type":"address","internalType":"contract ITransferStrategyBase"}],"outputs":[],"stateMutability":"nonpayable"},{"type":"function","name":"transferOwnership","inputs":[{"name":"newOwner","type":"address","internalType":"address"}],"outputs":[],"stateMutability":"nonpayable"},{"type":"event","name":"EmissionAdminUpdated","inputs":[{"name":"reward","type":"address","indexed":true,"internalType":"address"},{"name":"oldAdmin","type":"address","indexed":true,"internalType":"address"},{"name":"newAdmin","type":"address","indexed":true,"internalType":"address"}],"anonymous":false},{"type":"event","name":"OwnershipTransferred","inputs":[{"name":"previousOwner","type":"address","indexed":true,"internalType":"address"},{"name":"newOwner","type":"address","indexed":true,"internalType":"address"}],"anonymous":false}],"bytecode":{"object":"0x608060405234801561000f575f5ffd5b50604051610f41380380610f4183398101604081905261002e91610173565b5f80546001600160a01b031916339081178255604051909182915f516020610f215f395f51905f52908290a3506100648161006a565b506101a0565b5f546001600160a01b031633146100c85760405162461bcd60e51b815260206004820181905260248201527f4f776e61626c653a2063616c6c6572206973206e6f7420746865206f776e657260448201526064015b60405180910390fd5b6001600160a01b03811661012d5760405162461bcd60e51b815260206004820152602660248201527f4f776e61626c653a206e6577206f776e657220697320746865207a65726f206160448201526564647265737360d01b60648201526084016100bf565b5f80546040516001600160a01b03808516939216915f516020610f215f395f51905f5291a35f80546001600160a01b0319166001600160a01b0392909216919091179055565b5f60208284031215610183575f5ffd5b81516001600160a01b0381168114610199575f5ffd5b9392505050565b610d74806101ad5f395ff3fe608060405234801561000f575f5ffd5b50600436106100cb575f3560e01c8063bee36bb311610088578063e15ac62311610063578063e15ac623146101a0578063f2fde38b146101b3578063f5cf673b146101c6578063f996868b146101d9575f5ffd5b8063bee36bb314610169578063c5a7b5381461017c578063de2627381461018f575f5ffd5b8063529b1e87146100cf5780635453ba1014610116578063715018a61461012b5780638da5cb5b14610133578063955c2ad714610143578063a286c6b414610156575b5f5ffd5b6100fa6100dd36600461085c565b6001600160a01b039081165f908152600160205260409020541690565b6040516001600160a01b03909116815260200160405180910390f35b61012961012436600461087e565b6101ec565b005b610129610297565b5f546001600160a01b03166100fa565b610129610151366004610950565b610308565b61012961016436600461087e565b6103e3565b61012961017736600461085c565b61046f565b61012961018a366004610a80565b6104ba565b6002546001600160a01b03166100fa565b6101296101ae36600461087e565b610568565b6101296101c136600461085c565b6105dc565b6101296101d436600461087e565b6106c3565b6101296101e7366004610b0c565b610752565b6001600160a01b038281165f90815260016020526040902054839116331461022f5760405162461bcd60e51b815260040161022690610b8e565b60405180910390fd5b6002546040516305453ba160e41b81526001600160a01b038581166004830152848116602483015290911690635453ba10906044015b5f604051808303815f87803b15801561027c575f5ffd5b505af115801561028e573d5f5f3e3d5ffd5b50505050505050565b5f546001600160a01b031633146102c05760405162461bcd60e51b815260040161022690610bbb565b5f80546040516001600160a01b03909116907f8be0079c531659141344cd1fd0a4f28419497f9722a3daafe3b4186f6b6457e0908390a35f80546001600160a01b0319169055565b5f5b815181101561038257336001600160a01b031660015f84848151811061033257610332610bf0565b602090810291909101810151608001516001600160a01b039081168352908201929092526040015f2054161461037a5760405162461bcd60e51b815260040161022690610b8e565b60010161030a565b5060025460405163955c2ad760e01b81526001600160a01b039091169063955c2ad7906103b3908490600401610c04565b5f604051808303815f87803b1580156103ca575f5ffd5b505af11580156103dc573d5f5f3e3d5ffd5b5050505050565b5f546001600160a01b0316331461040c5760405162461bcd60e51b815260040161022690610bbb565b6001600160a01b038083165f8181526001602052604080822080548686166001600160a01b0319821681179092559151919094169392849290917fda40ea421dd7e42cf8be71255facac4fdc12a3f70f4d5fd373cb16cec4cb53849190a4505050565b5f546001600160a01b031633146104985760405162461bcd60e51b815260040161022690610bbb565b600280546001600160a01b0319166001600160a01b0392909216919091179055565b6001600160a01b038281165f9081526001602052604090205483911633146104f45760405162461bcd60e51b815260040161022690610b8e565b6002546040516318b4f6a760e31b81526001600160a01b038681166004830152858116602483015263ffffffff851660448301529091169063c5a7b538906064015f604051808303815f87803b15801561054c575f5ffd5b505af115801561055e573d5f5f3e3d5ffd5b5050505050505050565b6001600160a01b038281165f9081526001602052604090205483911633146105a25760405162461bcd60e51b815260040161022690610b8e565b60025460405163e15ac62360e01b81526001600160a01b03858116600483015284811660248301529091169063e15ac62390604401610265565b5f546001600160a01b031633146106055760405162461bcd60e51b815260040161022690610bbb565b6001600160a01b03811661066a5760405162461bcd60e51b815260206004820152602660248201527f4f776e61626c653a206e6577206f776e657220697320746865207a65726f206160448201526564647265737360d01b6064820152608401610226565b5f80546040516001600160a01b03808516939216917f8be0079c531659141344cd1fd0a4f28419497f9722a3daafe3b4186f6b6457e091a35f80546001600160a01b0319166001600160a01b0392909216919091179055565b5f546001600160a01b031633146106ec5760405162461bcd60e51b815260040161022690610bbb565b60025460405163f5cf673b60e01b81526001600160a01b03848116600483015283811660248301529091169063f5cf673b906044015f604051808303815f87803b158015610738575f5ffd5b505af115801561074a573d5f5f3e3d5ffd5b505050505050565b5f5b838110156107c8573360015f87878581811061077257610772610bf0565b9050602002016020810190610787919061085c565b6001600160a01b03908116825260208201929092526040015f205416146107c05760405162461bcd60e51b815260040161022690610b8e565b600101610754565b5060025460405163f996868b60e01b81526001600160a01b039091169063f996868b906108019088908890889088908890600401610cc0565b5f604051808303815f87803b158015610818575f5ffd5b505af115801561082a573d5f5f3e3d5ffd5b505050505050505050565b6001600160a01b0381168114610849575f5ffd5b50565b803561085781610835565b919050565b5f6020828403121561086c575f5ffd5b813561087781610835565b9392505050565b5f5f6040838503121561088f575f5ffd5b823561089a81610835565b915060208301356108aa81610835565b809150509250929050565b634e487b7160e01b5f52604160045260245ffd5b60405160e0810167ffffffffffffffff811182821017156108ec576108ec6108b5565b60405290565b604051601f8201601f1916810167ffffffffffffffff8111828210171561091b5761091b6108b5565b604052919050565b80356affffffffffffffffffffff81168114610857575f5ffd5b803563ffffffff81168114610857575f5ffd5b5f60208284031215610960575f5ffd5b813567ffffffffffffffff811115610976575f5ffd5b8201601f81018413610986575f5ffd5b803567ffffffffffffffff8111156109a0576109a06108b5565b6109af60208260051b016108f2565b80828252602082019150602060e084028501019250868311156109d0575f5ffd5b6020840193505b82841015610a765760e084880312156109ee575f5ffd5b6109f66108c9565b6109ff85610923565b815260208501356020820152610a176040860161093d565b60408201526060850135610a2a81610835565b6060820152610a3b6080860161084c565b6080820152610a4c60a0860161084c565b60a0820152610a5d60c0860161084c565b60c0820152825260e093909301926020909101906109d7565b9695505050505050565b5f5f5f60608486031215610a92575f5ffd5b8335610a9d81610835565b92506020840135610aad81610835565b9150610abb6040850161093d565b90509250925092565b5f5f83601f840112610ad4575f5ffd5b50813567ffffffffffffffff811115610aeb575f5ffd5b6020830191508360208260051b8501011115610b05575f5ffd5b9250929050565b5f5f5f5f5f60608688031215610b20575f5ffd5b8535610b2b81610835565b9450602086013567ffffffffffffffff811115610b46575f5ffd5b610b5288828901610ac4565b909550935050604086013567ffffffffffffffff811115610b71575f5ffd5b610b7d88828901610ac4565b969995985093965092949392505050565b60208082526013908201527227a7262cafa2a6a4a9a9a4a7a72fa0a226a4a760691b604082015260600190565b6020808252818101527f4f776e61626c653a2063616c6c6572206973206e6f7420746865206f776e6572604082015260600190565b634e487b7160e01b5f52603260045260245ffd5b602080825282518282018190525f918401906040840190835b81811015610cb557835180516affffffffffffffffffffff1684526020808201519085015260408082015163ffffffff16908501526060808201516001600160a01b039081169186019190915260808083015182169086015260a0808301519091169085015260c09081015190610c9e908501826001600160a01b03169052565b506020939093019260e09290920191600101610c1d565b509095945050505050565b6001600160a01b038616815260606020820181905281018490525f8560808301825b87811015610d12578235610cf581610835565b6001600160a01b0316825260209283019290910190600101610ce2565b5083810360408501528481526020019050845f5b85811015610d59576affffffffffffffffffffff610d4383610923565b1683526020928301929190910190600101610d26565b50909897505050505050505056fea164736f6c634300081b000a8be0079c531659141344cd1fd0a4f28419497f9722a3daafe3b4186f6b6457e0","linkReferences":{}},"methodIdentifiers":{"configureAssets((uint88,uint256,uint32,address,address,address,address)[])":"955c2ad7","getEmissionAdmin(address)":"529b1e87","getRewardsController()":"de262738","owner()":"8da5cb5b","renounceOwnership()":"715018a6","setClaimer(address,address)":"f5cf673b","setDistributionEnd(address,address,uint32)":"c5a7b538","setEmissionAdmin(address,address)":"a286c6b4","setEmissionPerSecond(address,address[],uint88[])":"f996868b","setRewardOracle(address,address)":"5453ba10","setRewardsController(address)":"bee36bb3","setTransferStrategy(address,address)":"e15ac623","transferOwnership(address)":"f2fde38b"},"id":262}