{"abi":[{"type":"constructor","inputs":[{"name":"_tokens","type":"address[]","internalType":"address[]"},{"name":"_contracts","type":"address[]","internalType":"address[]"}],"stateMutability":"payable"},{"type":"receive","stateMutability":"payable"},{"type":"function","name":"proxy","inputs":[{"name":"_target","type":"address","internalType":"address"},{"name":"_calldata","type":"bytes","internalType":"bytes"}],"outputs":[{"name":"success","type":"bool","internalType":"bool"},{"name":"returnData","type":"bytes","internalType":"bytes"}],"stateMutability":"nonpayable"},{"type":"function","name":"proxy","inputs":[{"name":"_target","type":"address","internalType":"address"},{"name":"_calldata","type":"bytes","internalType":"bytes"},{"name":"value","type":"uint256","internalType":"uint256"}],"outputs":[{"name":"success","type":"bool","internalType":"bool"},{"name":"returnData","type":"bytes","internalType":"bytes"}],"stateMutability":"nonpayable"}],"bytecode":{"object":"0x60806040526040516106dd3803806106dd83398101604081905261002291610280565b8151610034905f906020850190610137565b508051610048906001906020840190610137565b505f5b5f5481101561012f575f5b600154811015610126575f8281548110610072576100726102e5565b5f91825260209091200154600180546001600160a01b039092169163095ea7b39190849081106100a4576100a46102e5565b5f9182526020909120015460405160e083901b6001600160e01b03191681526001600160a01b0390911660048201525f1960248201526044016020604051808303815f875af11580156100f9573d5f5f3e3d5ffd5b505050506040513d601f19601f8201168201806040525081019061011d91906102f9565b50600101610056565b5060010161004b565b50505061031f565b828054828255905f5260205f2090810192821561018a579160200282015b8281111561018a57825182546001600160a01b0319166001600160a01b03909116178255602090920191600190910190610155565b5061019692915061019a565b5090565b5b80821115610196575f815560010161019b565b634e487b7160e01b5f52604160045260245ffd5b80516001600160a01b03811681146101d8575f5ffd5b919050565b5f82601f8301126101ec575f5ffd5b81516001600160401b03811115610205576102056101ae565b604051600582901b90603f8201601f191681016001600160401b0381118282101715610233576102336101ae565b604052918252602081850181019290810186841115610250575f5ffd5b6020860192505b8383101561027657610268836101c2565b815260209283019201610257565b5095945050505050565b5f5f60408385031215610291575f5ffd5b82516001600160401b038111156102a6575f5ffd5b6102b2858286016101dd565b602085015190935090506001600160401b038111156102cf575f5ffd5b6102db858286016101dd565b9150509250929050565b634e487b7160e01b5f52603260045260245ffd5b5f60208284031215610309575f5ffd5b81518015158114610318575f5ffd5b9392505050565b6103b18061032c5f395ff3fe60806040526004361061002b575f3560e01c8063be6d055a14610036578063e0764abd1461006c575f5ffd5b3661003257005b5f5ffd5b348015610041575f5ffd5b5061005561005036600461027a565b61008b565b6040516100639291906102e7565b60405180910390f35b348015610077575f5ffd5b50610055610086366004610322565b6100fb565b5f6060836001600160a01b0316836040516100a69190610375565b5f604051808303815f865af19150503d805f81146100df576040519150601f19603f3d011682016040523d82523d5f602084013e6100e4565b606091505b5090925090506100f4828261016e565b9250929050565b5f6060846001600160a01b031683856040516101179190610375565b5f6040518083038185875af1925050503d805f8114610151576040519150601f19603f3d011682016040523d82523d5f602084013e610156565b606091505b509092509050610166828261016e565b935093915050565b8115801561017d575080516024145b156101bc57602081015160248201516001600160e01b03198216634e487b7160e01b1480156101ac5750806001145b156101b9576101b9610390565b50505b5050565b80356001600160a01b03811681146101d6575f5ffd5b919050565b634e487b7160e01b5f52604160045260245ffd5b5f82601f8301126101fe575f5ffd5b813567ffffffffffffffff811115610218576102186101db565b604051601f8201601f19908116603f0116810167ffffffffffffffff81118282101715610247576102476101db565b60405281815283820160200185101561025e575f5ffd5b816020850160208301375f918101602001919091529392505050565b5f5f6040838503121561028b575f5ffd5b610294836101c0565b9150602083013567ffffffffffffffff8111156102af575f5ffd5b6102bb858286016101ef565b9150509250929050565b5f5b838110156102df5781810151838201526020016102c7565b50505f910152565b8215158152604060208201525f825180604084015261030d8160608501602087016102c5565b601f01601f1916919091016060019392505050565b5f5f5f60608486031215610334575f5ffd5b61033d846101c0565b9250602084013567ffffffffffffffff811115610358575f5ffd5b610364868287016101ef565b925050604084013590509250925092565b5f82516103868184602087016102c5565b9190910192915050565b634e487b7160e01b5f52600160045260245ffdfea164736f6c634300081b000a","linkReferences":{}},"methodIdentifiers":{"proxy(address,bytes)":"be6d055a","proxy(address,bytes,uint256)":"e0764abd"},"id":401}